:020000040800F2
:1000000040F40120AD010008CD1D0008B113000827
:100010006D1D0008950900087941000800000000E6
:10002000000000000000000000000000BF01000808
:10003000BB09000800000000C301000831280008C7
:10004000C7010008C7010008C7010008C701000870
:10005000C7010008C7010008C7010008C701000860
:10006000C7010008C7010008C7010008C701000850
:10007000C7010008C7010008C7010008C701000840
:10008000C7010008C7010008C7010008C701000830
:10009000C7010008C7010008C7010008C701000820
:1000A000C7010008C7010008C7010008C701000810
:1000B000C7010008C7010008C7010008C701000800
:1000C000C7010008C7010008C7010008C7010008F0
:1000D000C7010008C7010008293500087D35000860
:1000E000C7010008C7010008C7010008C7010008D0
:1000F000C7010008C7010008C7010008C7010008C0
:10010000C7010008C7010008C7010008C7010008AF
:1001100009350008C7010008452D0008C70100087F
:10012000C7010008C7010008C7010008C70100088F
:10013000C7010008C7010008C7010008C70100087F
:10014000C7010008C7010008C7010008C70100086F
:10015000C7010008C7010008C7010008C70100085F
:10016000C7010008C7010008C7010008C70100084F
:10017000C7010008C7010008C7010008C70100083F
:10018000C7010008C7010008C7010008C70100082F
:10019000C7010008C7010008DFF80CD000F0D0F953
:1001A000004800475D48000840F4012006488047A9
:1001B00006480047FEE7FEE7FEE7FEE7FEE7FEE74C
:1001C000FEE7FEE7FEE7FEE7352800089901000894
:1001D00040EA01039B0703D009E008C9121F08C0C9
:1001E000042AFAD203E011F8013B00F8013B521E49
:1001F000F9D27047D2B201E000F8012B491EFBD2C0
:1002000070470022F6E710B513460A460446194621
:10021000FFF7F0FF204610BD30B505462A460B46D5
:1002200012F8010B13F8014B08B1A042F8D01CB131
:10023000002802D06D1CF1E7284630BDCAB2401E2E
:1002400010F8011F8A4202D00029F9D1002070471E
:10025000421C10F8011B0029FBD1801A704770B5B1
:10026000064604F009F8046805460A2200213046D3
:1002700000F0D1F82C6070BD2DE9FE4F81EA030437
:1002800004F0004421F0004100944FF0000B23F0F3
:10029000004350EA01045ED052EA03045BD0C3F38A
:1002A0000A54C1F30A552C44A4F2F3340194A0FB80
:1002B0000254C1F3130141F48011C3F3130343F457
:1002C000801301FB024400FB034E840A970A44EAB0
:1002D000815447EA8357A4FB076802958D0A05FB02
:1002E00007854FEA932C04FB0C542705029D4FEA27
:1002F000065847EA1637B5EB08056EEB070C870E74
:10030000920E47EA811742EA8312A7FB0201B6EB7D
:100310000B0164EB00042B0D43EA0C335E1844EB35
:100320001C50DA465146E7FB0201C5F313044FEABD
:100330000B3343EA14534FEA0432019C43EA0603A9
:10034000A4F10C040294009CCDE900B400F0AAF8DA
:1003500003B0BDE8F08F00200146F9E70EB5C10FEC
:1003600080EAE0700844CA07002140F233438DE878
:100370000E000A460B4600F095F803B000BD0EB51E
:1003800040F2334102910021CDE900110A460B46AB
:1003900000F088F803B000BDC1F30A5210B5C1F3F4
:1003A000130140F2FF3341F480119A4201DA002038
:1003B00010BD40F233439A42A2F2334203DC524270
:1003C00000F019F810BD904010BD30B50B46014645
:1003D00000202022012409E021FA02F59D4205D3E4
:1003E00003FA02F5491B04FA02F52844151EA2F18E
:1003F0000102F1DC30BD202A04DB203A21FA02F0B0
:100400000021704721FA02F3D040C2F1200291404E
:100410000843194670472DE9F04791460F4680463C
:100420000446002614F8015B2DB100F0ABF800681B
:10043000405DC007F6D12B2D02D02D2D18D0641EA3
:100440004A463946204600F0A1F827B13968A14252
:1004500001D1C7F8008071054FF002040BD540426E
:10046000002803DD03F008FF0460A007BDE8F08763
:1004700046F48066E4E70028F8DA03F0FDFE046045
:100480006FF00040F2E710B5141E73F1000408DAB3
:10049000401C41F1000192185B411A4301D120F048
:1004A000010010BD2DE9F04D92469B4611B1B1FA05
:1004B00081F202E0B0FA80F22032904600F052F869
:1004C00004460F4640EA0A0041EA0B0153465A46E9
:1004D000084313D0114653EA010019D0C8F1400275
:1004E0005046FFF788FF05460E465046594642469D
:1004F00000F038F8084305D0012004E020463946D2
:10050000BDE8F08D0020054346EAE0762C433743F2
:100510000A986305E40AA0EB08000022FD0A44EAF9
:1005200047540A3002D500200146E9E701051019B9
:100530006941DDE9084500196941BDE8F04DA2E7D0
:10054000064C074D06E0E06840F0010394E8070020
:1005500098471034AC42F6D3FFF722FE106700082C
:1005600030670008202A04DB203A00FA02F100205C
:1005700070479140C2F1200320FA03F319439040E1
:100580007047000000487047306600082DE9F05FB2
:1005900082460078002715468B460AF10104B946C9
:1005A000302801D09DB113E014F8010B0127782801
:1005B00003D0582801D045B10AE00DB1102D07D164
:1005C0000027102514F8010B02E0082500E00A2599
:1005D0000026B0460EE005FB080005FB06F10127EA
:1005E00001EB10461FFA80F8B6F5803F00D3B946FC
:1005F00014F8010B294600F018F80028EBDABBF1DB
:10060000000F05D00FB1641E00E05446CBF8004047
:10061000B9F1000F06D003F02FFE02210160C81EC1
:10062000BDE8F09F48EA0640FAE73A2800D23038A1
:1006300020F02002412A01D3A2F13700884201D3E1
:100640004FF0FF30704700F0C7BE000070B51A4C85
:10065000E07A10B1012829D10EE02079401C2071E8
:1006600001F090FB0C2115A003F06CFD642001F05B
:10067000A1FB0120E07219E001F07AFB002810D004
:10068000124D286801F050FE014611482A6800F01A
:10069000E1F910A10E48FFF7BFFD002110B1E17292
:1006A000012070BD20790A2802D8E172002070BDB7
:1006B0002171E172022070BD3000002041542B51A5
:1006C000494143543D310D0A000000002C00002038
:1006D000380E00204F4B00000146054A09780020E3
:1006E000135C994203D0401CC0B20A28F8D370476B
:1006F000684900082DE9F0414C4C8188A18081793E
:10070000A171B0F801102180C178A170B0F8071074
:100710002181417AA1724189A181017BA173B0F845
:100720000D102182C17BA174018AA182817CA175F7
:10073000B0F813102183407DA0766068FFF71FFE9C
:100740009FED3B1B53EC112BFFF796FDFFF724FEAB
:1007500004F11C0786B23E802068FFF710FE9FED73
:10076000361B53EC112BFFF787FDFFF715FE85B203
:100770007D80E068B0F5000F03DBC043401CC0F390
:100780001600FFF7EBFD9FED2E1B53EC112BFFF72F
:1007900073FDFFF701FE80B200EE100AB8802C4B0B
:1007A000B8EE401A00EE106AB8EE400AC1EE000A38
:1007B00000EE105AB8EE401A80EE810ADFED220AF0
:1007C00060EE200A9FED210A60EE800AFCEEE00A4E
:1007D00010EE900A38732069596808445860194629
:1007E0009A68C968904201D3821A03E06FF07F448F
:1007F000A21A024411440022D960C3E901200D2944
:1008000011D300EE901A9FED131AB868F8EE600A43
:1008100060EE810A20EE800ABCEEC00A10EE101ACB
:100820000844B860DA60BDE8F08100005C0900208F
:100830009FE74A621B81103FCD2D44350B4E903F00
:1008400056B7DD7835487A3F0000C84200007A4448
:100850001C000020EDF8433A08B507A0006800909E
:1008600006480178012905D100210170022168465E
:1008700003F0CCFB08BD000058AA00001C000020BB
:1008800010B5FFF7E9FFBDE8104003F0D9BB000049
:1008900010B5074C0221204600F01EFD4FF4FA70FF
:1008A00003F0F8FD2046BDE81040022100F0A8BC8E
:1008B0000008014038B50220ADF8000010208DF886
:1008C000030001200B4C8DF802006946204600F021
:1008D00089FB0221204600F093FCFFF7D9FF40F688
:1008E000B83003F0D7FD044A4FF47A71042003F0C6
:1008F0006FFC38BD000801403526000838B54FF4BC
:100900008054ADF8004010208DF803000120064D02
:100910008DF802006946284600F064FB214628460F
:1009200000F06EFC38BD00000008014010B503F077
:1009300035FC00F077F801F0EDFC03F0BFFE03F0AA
:10094000F9FD03F079FE01F042FAFFF7B3FF03F07F
:1009500035FFFFF7D3FF00F081FD01F0FDFF01F04F
:1009600075FE01F04BFEFFF76EFE00F0D3FFBDE811
:10097000104003F0EBBE0000054910B5012048709F
:1009800001F040F8FFF77CFFBDE8104000F0DABF4F
:1009900012000020FEE770B50546102003F08EFF20
:1009A000040009D06D1C2846656003F087FF2060B5
:1009B0000020E060A060204670BD704710B5174C65
:1009C000E07868B12179164800294FF0010102D082
:1009D00000F082FC01E000F013FC2079C04320719C
:1009E00020890021B0F57A7F01D321810BE0401CE2
:1009F0000004000C208106D0A0F54072E73A05D132
:100A0000607810B102E0617000E0E170AFF2530273
:100A10001E21BDE81040022003F0DABB12000020C6
:100A20000010014008B50120ADF8000010218DF83C
:100A300003108DF802006946044800F0D3FA044A16
:100A40001E21022003F0C4FB08BD0000001001407D
:100A5000BD090008F0B517460D460646002404E01F
:100A6000384601F0C1FA3055641CAC42F8D3F0BDF1
:100A70002DE9F0410D46044601287DD0022CFCD022
:100A8000042CFAD0082CF8D0A4F5A0101038F4D01B
:100A90002038F2D0A4F5B0104038EED08038ECD039
:100AA000F7488442E9D0F7488442E6D0F6488442C9
:100AB000E3D0F6488442E0D0F5488442DDD0B4F576
:100AC000805FDAD0B4F5E91FD7D0B4F5EA1FD4D0EF
:100AD000B4F5EB1FD1D0B4F5004FCED06FF40010B9
:100AE000C442CAD0A4F50010801EC6D0801EC4D057
:100AF000001FC2D00838C0D0E6488442BDD0E648C6
:100B00008442BAD0E5488442B7D0E5488442B4D0A4
:100B10006FF08040C442B0D0E2488442ADD0001DA6
:100B20008442AAD0E0488442A7D0DF4810308442F3
:100B3000A3D0DE488442A0D0DC48803084429CD0E0
:100B4000DB48844299D0DB48844296D0DA4884421C
:100B500093D0DA48844290D0D94884428DD0D94885
:100B600084428AD0D848844287D0D848844284D0EE
:100B7000D748844285D000E08CE0D648844286D0B5
:100B8000401C844285D0401C844286D0D248844296
:100B900085D0001D84427DD0D04884427AD0D04890
:100BA000844277D0CE480830844273D0CD48844206
:100BB00070D0CD4884426DD0CB481030844269D08B
:100BC000C9482030844265D0C848844262D0C748B2
:100BD000403084425ED0C548803084425AD0C448F8
:100BE000844257D0C348844254D0C348844251D031
:100BF000C24884424ED0C24884424BD0C14884424D
:100C000048D0C148844245D0C048844242D0C04800
:100C100084423FD0401C84423CD0401C844239D0A6
:100C2000BC48844236D0001D844233D0001D84422B
:100C300030D0B94884422DD0B7482030844229D0E2
:100C4000B648844226D0B5488030844222D0B44889
:100C500084421FD0B34884421CD0B348844219D088
:100C6000B24884427ED0B24884427BD0B1488442AC
:100C700078D04FEAF030844274D0AF48844271D0CB
:100C8000AE4884426ED0401C84426BD0801C8442AB
:100C900068D000E066E0001D844263D0A84884422A
:100CA00060D0A748203084425CD0A4483F308442C2
:100CB00058D0A2487F30844254D0A048FF308442AC
:100CC00050D0A04884424DD0A4F50010803849D0BF
:100CD00010F5202046D0A4F18150803842D0403019
:100CE00040D020303ED010303CD008303AD0001DEB
:100CF00038D0801C36D06FF08150C44232D0924838
:100D000084422FD0914884422CD09148844229D0EB
:100D1000B4F1102F26D04FEA7040844222D08D4883
:100D200084421FD08C4884421CD08C48844219D005
:100D3000A4F18050803815D0403013D0203011D02D
:100D400010300FD008300DD0001D0BD0801C09D002
:100D50006FF08050C44205D040F27A2280A18FA06B
:100D600003F080FB3DB1012D05D040F27B227CA138
:100D700090A003F077FB9649002C01DAC8690CE0DB
:100D8000600001D5086A08E0A00001D5486A04E0C7
:100D9000E00001D5886A00E048688E4AA6B204EAFD
:100DA0000207C4F340521301A2B29A40B7F5401FA4
:100DB0000CD0E70210D5A6024FF00303C4F303479B
:100DC00003FA07F300D51B04984344E04B6820F076
:100DD000706023F0706332E0E70117D5670710D524
:100DE000A30120EA020008D51DB14B6843F00103BE
:100DF00018E04A6822F0010218E04B6823F0010372
:100E00001BE046F004069E40B043EDE7670121D5A4
:100E1000270716D5A30120EA02000BD5B5B14B6810
:100E200043F0080343F070634B601AE042F07062D5
:100E30004A6017E04B6823F0080343F070634B608F
:100E40000EE046F008069E40B043E7E74A6822F00D
:100E50000802EBE7904314F0E04F01D140F07060DE
:100E600005B11043002C02DAC861BDE8F0816200D0
:100E700001D50862F9E7A20001D54862F5E7ABE0C9
:100E800000011800000218000003180000081A00F2
:100E9000000C1A0000013000000230000004300095
:100EA0000004008002001140200014404000164061
:100EB000000218400003184000041A40000C1A40B9
:100EC00000101C4000301C4000401E4000801E40AE
:100ED00000C01E40010030400000204104002043BB
:100EE00000002044080020461000344040003640F6
:100EF000000238400003384000043A40000C3A40F9
:100F000000103C4000303C4000403E4000C03E40AD
:100F100001001020040012201000142040001620B0
:100F200000011820000218200003182000041A20D5
:100F3000000C1A200010002000800020010020205A
:100F4000100034200002202000800010004000101B
:100F5000002000100004001000020010000100102A
:100F60002E2E5C6669726D776172655C6E333267D6
:100F70003435785F7374645F7065726970685F643C
:100F800072697665725C7372635C6E333267343596
:100F9000785F6770696F2E630000000049535F47F8
:100FA00050494F5F52454D415028526D7050696E07
:100FB0002900000049535F46554E4354494F4E4166
:100FC0004C5F535441544528436D64290000000090
:100FD0000000014000003070E20001D5886244E763
:100FE000486042E72DE9F0410446494800260D4695
:100FF000844216D04748844213D04748844210D0D8
:10100000464884420DD0464884420AD0454884422E
:1010100007D04548844204D0BE2244A152A003F028
:1010200021FAE87890B1042810D028280ED048285A
:101030000CD014280AD0102808D01C2806D0182854
:1010400004D0BF2239A14FA003F00CFA288820B9A0
:10105000C02236A156A003F005FAE87800F00F0789
:10106000C0060ED5A87850B1022808D0012806D0B5
:10107000032804D0C7222DA156A003F0F3F9A878C5
:10108000074328784FF00F0C10F0FF0F4FF0010EC0
:101090001BD021682A880EFA06F00240824210D145
:1010A000B2000CFA02F321EA030307FA02F1EA782C
:1010B0001943282A02D0482A02D002E0606100E0E9
:1010C0002061761C082EE5D321602888FF281CD9D2
:1010D0006168002000F108030EFA03F22B88134028
:1010E00093420ED183000CFA03F6B14307FA03F6DC
:1010F000EB783143282B00D16261EB78482B00D18B
:101100002261401C0828E5D36160BDE8F081000041
:1011100000080140000C0140001001400014014093
:1011200000180140001C0140002001402E2E5C668A
:1011300069726D776172655C6E3332673435785FE2
:101140007374645F7065726970685F6472697665F4
:10115000725C7372635C6E3332673435785F6770CC
:10116000696F2E630000000049535F4750494F5F8D
:10117000414C4C5F504552495048284750494F78A0
:101180002900000049535F4750494F5F4D4F444588
:10119000284750494F5F496E697453747275637480
:1011A0002D3E4750494F5F4D6F6465290000000098
:1011B00049535F4750494F5F50494E284750494F68
:1011C0005F496E69745374727563742D3E50696E15
:1011D0002900000049535F4750494F5F5350454530
:1011E00044284750494F5F496E6974537472756360
:1011F000742D3E4750494F5F537065656429000068
:1012000070B5044612480D46844217D011488442F6
:1012100014D01148844211D0104884420ED0104896
:1012200084420BD00F48844208D00F48844205D036
:101230004FF4C5720DA11CA003F014F92DB940F2B2
:101240008B120AA11FA003F00DF9656170BD0000AB
:1012500000080140000C0140001001400014014052
:1012600000180140001C0140002001402E2E5C6649
:1012700069726D776172655C6E3332673435785FA1
:101280007374645F7065726970685F6472697665B3
:10129000725C7372635C6E3332673435785F67708B
:1012A000696F2E630000000049535F4750494F5F4C
:1012B000414C4C5F504552495048284750494F785F
:1012C0002900000049535F4750494F5F50494E285D
:1012D00050696E290000000070B5044612480D46A2
:1012E000844217D01148844214D01148844211D04E
:1012F000104884420ED0104884420BD00F488442DC
:1013000008D00F48844205D040F273120DA11CA0F2
:1013100003F0A8F82DB94FF4BA720AA11FA003F088
:10132000A1F8256170BD000000080140000C0140DB
:10133000001001400014014000180140001C014051
:10134000002001402E2E5C6669726D776172655CCB
:101350006E3332673435785F7374645F70657269B9
:1013600070685F6472697665725C7372635C6E3319
:1013700032673435785F6770696F2E630000000054
:1013800049535F4750494F5F414C4C5F504552496C
:101390005048284750494F782900000049535F477B
:1013A00050494F5F50494E2850696E290000000097
:1013B00001A002F02DFFFBE7766F6964204861729F
:1013C000644661756C745F48616E646C6572287602
:1013D0006F6964290D0A00002DE9F8434FF40055A8
:1013E000ADF800501026DFF840808DF8036001272B
:1013F0008DF8027069464046FFF7F4FD6C10ADF8B9
:1014000000408DF803608DF8027069464046FFF792
:10141000E9FD29464046FFF75FFF21464046FFF7BA
:101420005BFFBDE8F8830000000C014030B5C268E6
:1014300043681446521C92FBF3F503FB15228368A4
:101440009A4209D002681155C1684268491C91FB53
:10145000F2F302FB1311C16030BD000008B501209A
:10146000ADF8000048208DF8030069460148FFF7F9
:10147000B9FD08BD000801402DE9F047394C207B3B
:1014800010B1012864D10EE06079401C607100F059
:1014900079FC0A2134A002F055FEC82000F08AFC35
:1014A0000120207354E000F063FC00284CD0314D43
:1014B000286800F039FF01462F482A68FFF7CAFA6A
:1014C0002EA12D48FEF7A8FE06004FF0000741D0E0
:1014D0002C212948FEF7B2FEC0B3451CB846A146F0
:1014E0006771801CFFF7F8F804462846FFF7F4F808
:1014F00000EB800004EB4000C0B2102801D208309D
:1015000000E01038C4B2281DED1CFFF7E5F80746CF
:101510002846FFF7E1F800EB800007EB4000C7B278
:10152000301DFFF7D9F806462846FFF7D5F800EB3F
:10153000800006EB4000C3B23A46214611A002F0FB
:1015400067FE89F80C800120BDE8F08702E0277370
:101550000020F9E760790A28F9D167712773022022
:10156000F2E700003000002041542B43434C4B3F36
:101570000D0A00002C000020380E00202B43434CA5
:101580004B3A000025643A25643A25640D0A0000B0
:101590000248012101700021817070473000002055
:1015A0002DE9F047994E0024DFF86482B07BADF559
:1015B000C46D2546274609286ED2DFE800F0050DE8
:1015C00012216E7382D7FD00F078012801D001202E
:1015D000FFE0F7700420FCE0642000F0EBFB022049
:1015E000F7E000F0C5FB00287ED000F0CBFB112116
:1015F00088A002F0A7FD642000F0DCFB0320E8E0F7
:1016000000F0B6FB00286FD0D8F8000000F08CFE88
:1016100001468548D8F80020FFF71CFA83A18248CC
:10162000FEF7FAFD002837D083A17F48FEF7F4FDCE
:101630001030044600E0401C01782C29FBD1001B2F
:10164000A0F10108C8216846FEF7DBFD42462146AD
:101650006846FEF7BDFD04EB08007BA1FEF7DCFD4C
:101660000028E0D0841C0DF2046103E048556D1C95
:10167000ADB2641C20782C28F8D14F550846FEF7EF
:10168000EEFD0546C8216846FEF7BBFD2A46611CF3
:101690006846FEF79DFDB773B5E0642000F08AFB55
:1016A000052096E000F064FB00281DD000F06AFBE6
:1016B000082166A002F046FD642000F07BFB0620B6
:1016C00087E000F055FB00280ED0D8F8000000F0AD
:1016D0002BFE01465448D8F80020FFF7BBF95EA165
:1016E0005148FEF799FD00E074E018B3801D01E059
:1016F000401C641C01782C29FAD1DFF86491051B89
:101700004FF0710809F10C0A012C02D0022C12D002
:101710002AE02846FEF7E0FFA8EB4000C2B251A144
:101720000DF5C36002F084FD9DF8181689F80C10C1
:101730008AF8017018E0681CFEF7CEFF04462846C0
:10174000FEF7CAFF00EB800004EB4000A8EB40006E
:10175000C2B244A10DF5C36002F06AFDBDF81816CF
:10176000A9F80C108AF80270072032E00E213EA082
:1017700002F0E8FC318A404802F0E4FC022132A089
:1017800002F0E0FC06213DA002F0DCFC728A35A1EB
:101790000DF2DC5002F04CFD0DF2DC50FEF758FD6E
:1017A00081B20DF2DC5002F0CDFC022131A002F03A
:1017B000C9FC718A304800E010E0C83002F0C2FC79
:1017C000032130A002F0BEFCF770C82000F0F2FA4E
:1017D0000820B0730DF5C46DBDE8F08700F0C8FABD
:1017E0000028F7D0D8F8000000F09EFD01460E4812
:1017F000D8F80020FFF72EF923A10B48FEF70CFDC7
:1018000008B9FFF7C5FEB773E4E700003000002019
:101810002C00002041542B4D515454524541443D1D
:10182000302C310D0A000000380E00202B4D515491
:1018300054524541443A00002B4D515454524541B5
:10184000443A20302C302C00222C000041542B43F1
:1018500053510D0A000000002B4353513A20000061
:10186000081400202564000041542B4D515454505D
:1018700055423D302C22000088090020302C302CAD
:10188000302C0000220D0A004F4B00002DE9F041E2
:101890001C4C1D4E0023A0794FF4004520B10128B7
:1018A00018D0022823D125E0184FA370386800F023
:1018B0003BFD014616483A68FFF7CCF800F062FAA3
:1018C00029463046FFF708FD4FF4FA7000F072FA2F
:1018D00001200BE000F04CFA48B129463046FFF7F2
:1018E0008FFC41F2883000F065FA0220A0710020E0
:1018F000BDE8F08100F03CFA0028F9D0A371012086
:10190000F6E7000030000020000801402C00002015
:10191000380E002038B54FF40044ADF800401020D8
:101920008DF803000120064D8DF802006946284617
:10193000FFF758FB21462846FFF7CEFC38BD0000D4
:10194000000801402DE9F0412D4C00250827E07BDF
:1019500001260B2810D2DFE800F006131B242C31DF
:10196000390F400F4A00FFF791FF002804D00128EB
:1019700004D0022800D1E573BDE8F081E673FBE7EF
:1019800000F0D8FB0028F7D00128F2D1022006E0B1
:1019900000F086FB0028EFD00128EAD10320E07395
:1019A000EAE700F033FB0028E6D00128E1D104206B
:1019B000F5E7FFF761FD0BE0E773DDE700F06CFE94
:1019C0000028D9D00128D4D10620E8E7FEF73EFE52
:1019D0000028D1D00128EFD0CBE700F039F800285B
:1019E000CAD00128C5D10A20E073A670C4E72078C8
:1019F000012801D12570E573BDE8F041FFF7D0BDA6
:101A0000300000200A4A107801280FD100231370FB
:101A10009078401CC1B207489170012903D093709F
:101A20002021FFF7EDBB2021FFF756BC70470000D7
:101A30001200002000080140044901200870AFF2A4
:101A400007024FF47A7102F0C3BB000012000020BD
:101A5000F0B5874C0025874E607B8DB041F288370A
:101A60000A2825D2DFE800F005102732468095B01D
:101A7000CBE600F087F919217FA002F063FB642018
:101A800000F098F9012012E000F072F9002810D05F
:101A9000306800F049FC01467E483268FEF7DAFF04
:101AA0007DA17C48FEF7B8FB002871D0022060734E
:101AB00000200DB0F0BD00F065F91E2177A002F006
:101AC00041FB642000F076F90320F0E700F050F9C4
:101AD0000028EED0306800F027FC01466D483268DF
:101AE000FEF7B8FF6CA16B48FEF796FB0028DCD030
:101AF0000420DCE700F046F90F2170A002F022FB81
:101B0000C621B820CDE90001EA2331226FA102A845
:101B100002F08EFB02A8FEF79BFB81B202A802F046
:101B200011FB42F648326DA102A802F081FB02A827
:101B3000FEF78EFB81B202A802F004FB022168A02E
:101B400002F000FB1021674802F0FCFA022166A0B7
:101B500002F0F8FA132165A002F0F4FA4FF4FA60EB
:101B600000F028F90520A2E700F002F90028A0D033
:101B7000306800F0D9FB014646483268FEF76AFF3C
:101B80005FA14448FEF748FB00286DD006208EE791
:101B90006AE000F0F7F81D215FA002F0D3FA514A85
:101BA00065A102A802F044FB02A8FEF751FB81B236
:101BB00002A802F0C7FA052160A002F0C3FA384675
:101BC00000F0F8F8072072E700F0D2F80028CED035
:101BD000306800F0A9FB01462E483268FEF73AFF54
:101BE0002DA12C48FEF718FB064656A12948FEF702
:101BF00013FB002E38D0002836D0082057E700F01D
:101C0000C1F81A2152A002F09DFA364A4AA102A850
:101C100002F00EFB02A8FEF71BFB81B202A802F045
:101C200091FA052145A002F08DFA384600F0C2F87D
:101C300009203CE700F09CF8002898D0306800F0BC
:101C400073FB014613483268FEF704FF12A11148E6
:101C5000FEF7E2FA06463BA10E48FEF7DDFA1EB19A
:101C600010B16573012024E76573022021E70000AD
:101C7000300000202C00002041542B4D515454437F
:101C800046473D22636163686564222C302C310D28
:101C90000A000000380E00204F4B000041542B4D2D
:101CA0005154544346473D226B656570616C6976BB
:101CB00065222C302C3132300D0A000041542B4D5E
:101CC000515454434F4E4E3D302C220025642E2556
:101CD000642E25642E2564222C000000256400005B
:101CE0002C22000000000020222C000022757365C9
:101CF00072222C22302E313233343536220D0A0036
:101D00002B4D5154545552433A2022636F6E6E222C
:101D10002C302C300000000041542B4D51545453B2
:101D200055423D302C226D6F646275735F636F6E38
:101D300074726F6C2F00000025730000222C300D90
:101D40000A0000002B4D5154545355423A203000A4
:101D500041542B4D5154545355423D302C226D6FFC
:101D6000646275735F74696D652F0000FEE70000A3
:101D700003494878002802D0012000224A707047A9
:101D8000300000200020064A01464FF47A731154B7
:101D9000401C80B29842FAD302488182704700000A
:101DA000380E0020300000200149012048707047A3
:101DB00030000020034B002201465A70024A0920DD
:101DC00002F006BA30000020A91D0008704738B59F
:101DD00035208DF8000000248DF801408DF8024078
:101DE00001258DF80350684600F026F826208DF86E
:101DF00000008DF801408DF802408DF803506846D0
:101E000000F01AF827208DF800008DF801408DF8B9
:101E100002408DF80350684600F00EF834208DF82B
:101E200000008DF801408DF802408DF8035068469F
:101E300000F002F838BD000070B50446C0780F25E8
:101E400030B1012804D07D2220A12DA002F00AFB90
:101E50006078102804D37E221CA1384802F002FBCF
:101E6000A078102804D37F2218A1354802F0FAFA8E
:101E7000E0780122F8B133480068617800F4E0604E
:101E8000C0F5E060000AC0F10403C540A0789940A5
:101E9000284008432178000101F1E02181F8000485
:101EA000207800F01F018A404009800000F1E02006
:101EB000C0F8002170BD207800F01F018A40400961
:101EC000800000F1E020C0F8802170BD2E2E5C66FD
:101ED00069726D776172655C6E3332673435785F35
:101EE0007374645F7065726970685F647269766547
:101EF000725C7372635C6D6973632E630000000033
:101F000049535F46554E4354494F4E414C5F5354DD
:101F1000415445284E5649435F496E697453747263
:101F20007563742D3E4E5649435F49525143686173
:101F30006E6E656C436D64290000000078660008D1
:101F4000346600080CED00E010B50446B0F5E06F13
:101F500010D0B4F5C06F0DD0B4F5A06F0AD0B4F5B1
:101F6000806F07D0B4F5407F04D06C2204A111A08B
:101F700002F078FA1A4804431A48046010BD0000C1
:101F80002E2E5C6669726D776172655C6E333267A6
:101F90003435785F7374645F7065726970685F640C
:101FA00072697665725C7372635C6D6973632E63CC
:101FB0000000000049535F4E5649435F5052494F5D
:101FC000524954595F47524F5550284E5649435F26
:101FD0005072696F7269747947726F757029000069
:101FE0000000FA050CED00E010B5D0E902128A42BB
:101FF00001D1002010BD0268535C4268491C91FB6E
:10200000F2F402FB14118160184610BD70B51B4C30
:10201000607A10B101282AD10EE02079401C20718D
:10202000FFF7B0FE0B2116A002F08CF86420FFF73A
:10203000C1FE012060721AE0FFF79AFE002811D05D
:10204000124D286800F070F9014611482A68FEF721
:1020500001FD10A10E48FEF7DFF8002118B16172F2
:102060002171012070BD20795A2802D861720020A8
:1020700070BD21716172022070BD0000300000202F
:1020800041542B43474154543F0D0A002C0000207B
:10209000380E00202B43474154543A2031000000B1
:1020A00070B51B4C207A10B101282AD10EE020799E
:1020B000401C2071FFF766FE0B2116A002F042F8CB
:1020C0006420FFF777FE012020721AE0FFF750FE30
:1020D000002811D0124D286800F026F90146114859
:1020E0002A68FEF7B7FC10A10E48FEF795F800210C
:1020F00018B121722171012070BD20795A2802D8AF
:102100002172002070BD21712172022070BD00007B
:102110003000002041542B43455245473F0D0A00F3
:102120002C000020380E00202B43455245473A2012
:10213000302C31002DE9F0415D4C00255D4BE079FC
:102140005D4E4FF4FA670A282FD2DFE800F0051938
:102150002F343A455A657F8A1D46186800F0E4F826
:10216000014656482A68FEF775FCFFF70BFE04216E
:1021700053A001F0E7FF3846FFF71CFE012013E0F3
:10218000FFF7F6FD00287AD01E46186800F0CCF85C
:1021900001464A483268FEF75DFC4BA14748FEF70E
:1021A0003BF800287FD00220E0717FE03846FFF73F
:1021B00001FE0320F8E7FFF7DBFD002876D00420BE
:1021C000F2E7FFF7DFFD0A2140A001F0BBFF64202A
:1021D000FFF7F0FD0520E7E7FFF7CAFD002860D014
:1021E0001E46186800F0A0F8014634483268FEF731
:1021F00031FC39A13148FEF70FF8002853D00620F2
:10220000D2E7FFF7BFFD0B2137A001F09BFF642051
:10221000FFF7D0FD0720C7E7FFF7AAFD002840D051
:102220001F46186800F080F8014624483A68FEF717
:1022300011FC30A12148FDF7EFFF08B3C11D0F22AB
:10224000701DFDF7C5FF35750820ADE7FFF79AFD56
:102250000A212AA001F076FF6420FFF7ABFD0920D8
:10226000A2E7FFF785FD00281BD01F46186800F085
:102270005BF8014611483A68FEF7ECFB01E010E01C
:1022800011E021A10D48FDF7C7FF60B100F1080181
:10229000094814221530FDF79BFF86F82950E57197
:1022A0000120BDE8F081E5710220FAE70020F8E79F
:1022B000300000202C00002014140020380E0020D4
:1022C00041540D0A000000004F4B000041542B43C5
:1022D00050494E3F0D0A00002B4350494E3A2052C0
:1022E000454144590000000041542B4347534E3DA3
:1022F000310D0A002B4347534E3A200041542B49DD
:10230000434349440D0A00002B49434349443A20C2
:102310000000000010B540F2DC50FEF73CFB014924
:10232000086010BD2C0000200146D1E90220801A6F
:1023300001D549680844704710B5040011D0B4F5C0
:10234000806F0ED0B4F5A06F0BD0B4F5C06F08D07D
:10235000B4F5E06F05D040F2C31205A112A002F05F
:1023600081F81849486820F4E0602043486010BDB7
:102370002E2E5C6669726D776172655C6E333267B2
:102380003435785F7374645F7065726970685F6418
:1023900072697665725C7372635C6E333267343572
:1023A000785F7263632E630049535F5243435F4813
:1023B000434C4B5F444956285243435F48434C4B80
:1023C000290000000010024070B504460D480D467B
:1023D000044200D12CB940F2FE320BA118A002F049
:1023E00041F8204E55B1012D05D040F2FF3206A133
:1023F0001DA002F037F8F069204301E0F069A04326
:10240000F06170BD003301412E2E5C6669726D77FC
:102410006172655C6E3332673435785F7374645F04
:102420007065726970685F6472697665725C7372F8
:10243000635C6E3332673435785F7263632E63009A
:1024400049535F5243435F415042315F50455249C7
:102450005048285243435F41504231506572697081
:10246000682900000010024049535F46554E43540E
:10247000494F4E414C5F535441544528436D6429A4
:102480000000000070B504460D480D46044200D11E
:102490002CB940F2DF320BA118A001F0E3FF204E6F
:1024A00055B1012D05D04FF4787206A11DA001F0A1
:1024B000D9FFB069204301E0B069A043B06170BDAD
:1024C0000286E0FF2E2E5C6669726D776172655C34
:1024D0006E3332673435785F7374645F7065726928
:1024E00070685F6472697665725C7372635C6E3388
:1024F00032673435785F7263632E630049535F52ED
:1025000043435F415042325F504552495048285240
:1025100043435F4150423250657269706829000040
:102520000010024049535F46554E4354494F4E41B7
:102530004C5F535441544528436D6429000000000A
:1025400070B5294B5968294A11405A680C0102F4A8
:10255000803201D4022401E06FF4F77404EB91415E
:1025600012B15A68920301D5214A00E0214A514331
:102570005A68204C12F00C0203D0042A01D0082A19
:1025800001D0046000E001605A680F2404EA1212CE
:10259000194CA55C0268EA4042605D68072606EABD
:1025A0001525655D22FA05F585605D6806EAD52585
:1025B000645D22FA04F4C460DC6A0F4D04F00F0479
:1025C00010352C5DB2FBF4F24261DA6A1F2303EA94
:1025D000121202F00F0205F1100333F81220B1FBC2
:1025E000F2F1016170BD00000010024000003C08E3
:1025F00000093D0000127A002849000838B501F0B2
:10260000D9FF4FF40064ADF8004010208DF80300AE
:102610000120064D8DF8020069462846FEF7E2FCCF
:1026200021462846FEF7ECFD38BD000000080140B9
:1026300001F05EBD044901200870AFF207024FF4BB
:102640007A71042001F0C4BD1C000020F8B54FF4DD
:102650000044ADF8004010250E4F8DF803500326BE
:102660008DF8026069463846FEF7BCFC21463846C4
:10267000FEF732FE6410ADF800408DF803508DF87F
:10268000026069463846FEF7ADFC21463846FEF743
:1026900023FEF8BD000C014070B51A4CA07A10B1B1
:1026A000012829D10EE02079401C2071FFF76AFB38
:1026B0001F2115A001F046FD6420FFF77BFB0120E0
:1026C000A07219E0FFF754FB002810D0164D2868BF
:1026D000FFF72AFE014615482A68FEF7BBF914A148
:1026E0001248FDF799FD002110B1A172012070BDC3
:1026F00020790A2802D8A172002070BD2171A17230
:10270000022070BD3000002041542B5149435347F3
:10271000503D312C312C22434D4E4554222C222247
:102720002C22222C310D0A002C000020380E002013
:102730004F4B00000CB500208DF8000001901948A7
:10274000016821F007010160016841F003010160A7
:10275000154841684160416841F400514160416859
:1027600041F4A06141604168104A114041604168F4
:1027700041F0026100914160016841F080710160A7
:1027800001688901FCD5416821F00301416041687D
:1027900041F0020141604168C1F381010229FAD18F
:1027A0000CBD00000020024000100240FFFFC0F7F7
:1027B000042806D0401D0AD0CF2205A111A001F0A7
:1027C00051BE4FF0E020016941F004010161704702
:1027D0002E2E5C6669726D776172655C6E3332674E
:1027E0003435785F7374645F7065726970685F64B4
:1027F00072697665725C7372635C6D6973632E6374
:102800000000000049535F5359535449434B5F4301
:102810004C4B5F534F55524345285379735469636A
:102820006B5F434C4B536F7572636529000000006A
:10283000704700001D4810B5016841F47001016047
:102840001B48016841F0010101604168194A1140CB
:1028500041600168184A11400160016821F480213B
:1028600001604168154A114041600021C162016365
:102870004FF41F018160C16941F08051C16110496D
:10288000CA6842F00102CA60C16921F08051C16189
:102890000C48016841F090010160FFF74BFF0349CC
:1028A0004FF000608039086010BD000088ED00E046
:1028B0000010024000C0FFF8FFFFF6FEFFFF00F728
:1028C00000700040002002402DE9F04104461D4602
:1028D00016460F462A2000F0DDF9204600F0CFF919
:1028E000304600F0CCF92B2000F0D4F9384600F047
:1028F000C6F9284600F0C3F9BDE8F0412C2000F0ED
:10290000C9B910B514460B460246FFF7DDFF204655
:10291000BDE8104000F0B3B92DE9F04780461F46EE
:10292000581E83B21646501E82B20D464046DDF850
:102930002090FFF7C9FF0AE0444604E0484600F053
:102940009EF9641CA4B2B442F8D36D1CADB2BD4272
:10295000F2D3BDE8F087000070B5002400F0D6F98E
:10296000794E4FF4007529463046FEF749FC642045
:1029700001F090FD29463046FEF7AEFC642001F0E0
:1029800089FD10213046FEF73BFC642001F082FDFA
:10299000362000F07FF9602000F090F93A2000F036
:1029A00079F9052000F08AF9B22000F073F90C20C3
:1029B00000F084F90C2000F081F9002000F07EF98D
:1029C000332000F07BF9332000F078F9B72000F0D5
:1029D00061F9352000F072F9BB2000F05BF9192095
:1029E00000F06CF9C02000F055F92C2000F066F9D9
:1029F000C22000F04FF9012000F060F9C32000F080
:102A000049F9122000F05AF9C42000F043F92020BF
:102A100000F054F9C62000F03DF90F2000F04EF907
:102A2000D02000F037F9A42000F048F9A12000F0F0
:102A300045F9E02000F02EF9D02000F03FF9042005
:102A400000F03CF90D2000F039F9112000F036F9C2
:102A5000132000F033F92B2000F030F93F2000F074
:102A60002DF9542000F02AF94C2000F027F9182005
:102A700000F024F90D2000F021F90B2000F01EF9E0
:102A80001F2000F01BF9232000F018F9E12000F0CE
:102A900001F9D02000F012F9042000F00FF90C2009
:102AA00000F00CF9112000F009F9132000F006F9EC
:102AB0002C2000F003F93F2000F000F9442000F042
:102AC000FDF8512000F0FAF82F2000F0F7F81F2051
:102AD00000F0F4F81F2000F0F1F8202000F0EEF8EC
:102AE000232000F0EBF8212000F0D4F8112000F0B2
:102AF000D1F8292000F0CEF82A2000F0CBF80020F1
:102B000000F0DCF8002000F0D9F8002000F0D6F842
:102B1000EF2000F0D3F82B2000F0BCF8002000F0EC
:102B2000CDF8002000F0CAF8002000F0C7F8C5205A
:102B300000F0C4F82C2000F0ADF8641CE4B2022CC4
:102B4000FFF426AF70BD0000000C01402DE9FF4FDF
:102B500083B00546DDF844A000274FEA5A090090EB
:102B60005FEA497000D0012000EBD90000FB0AF0B9
:102B700001900498203A5044401E83B205EB0900AE
:102B800002F0FF0B401E82B228460499FFF79CFE1C
:102B9000002648E0BAF10C0F28D0BAF1100F2BD064
:102BA000BAF1180F42D124490BEB4B0001EB001096
:102BB000002410F80680129800284FF0010000FA57
:102BC00004F000EA08001BD020B12846069A0499B8
:102BD000FFF797FE6D1C0098ADB2291A49451CD12C
:102BE0000498009D401C80B204901AE013490BEB3E
:102BF0004B0001EB8000DBE7114901EB0B10D7E73D
:102C000008B1069800E0109800F039F87F1CFFB278
:102C1000B7FBF9F109FB117058B1641CE4B2082C40
:102C2000C9D3761CB6B201988642B3D307B0BDE8CB
:102C3000F08F0027F5E70000DC5300087849000812
:102C4000EC4D00082DE9FE4F9946DDE90D6714466D
:102C50008A460546DDF830800CE0CDF800804B4612
:102C600051462846CDE90167FFF770FF05EB560096
:102C700085B2641C2278002AEFD1BDE8FE8F10B522
:102C80000446000A00F01AF8E0B2BDE8104000F077
:102C900015B8000070B5084D06464FF48074214603
:102CA0002846FEF7ADFA304600F008F821462846DF
:102CB000BDE87040FEF710BB000C014070B5124E2D
:102CC000054620213046FEF79BFA0024402130467D
:102CD000FEF796FA28064FF08001304602D5FEF73F
:102CE000FBFA01E0FEF78CFA40213046FEF7F4FAD9
:102CF0006806641C050EE4B2082CE7D33046BDE834
:102D000070402021FEF7E8BA000C014008B54FF4EE
:102D10007C70ADF8000010208DF8030003208DF8C2
:102D2000020069460548FEF75DF901210920FFF719
:102D3000A9FB01210248FDF79BFE08BD000C0140E4
:102D40000002300010B5084C0121204600F034FA92
:102D5000002807D00121204600F008F8BDE8104007
:102D600001F040BA10BD00000010004070B50446EC
:102D700016480D4684421AD0B4F1804F17D014483B
:102D8000844214D01348844211D0134884420ED098
:102D9000124884420BD01248844208D01148844221
:102DA00005D040F6224210A11DA001F05BFB15F4F6
:102DB0007F4F00D12DB940F623420BA11EA001F098
:102DC00051FB2069A843206170BD0000002C014028
:102DD0000004004000080040000C004000100040CB
:102DE00000140040003401402E2E5C6669726D773D
:102DF0006172655C6E3332673435785F7374645F1B
:102E00007065726970685F6472697665725C73720E
:102E1000635C6E3332673435785F74696D2E63009E
:102E2000497354696D416C6C4D6F64756C652854C1
:102E3000494D782900000000497354696D496E744A
:102E40002854494D5F4954290000000070B50446DC
:102E50001C4816460D4684421AD0B4F1804F17D054
:102E60001948844214D01948844211D01848844229
:102E70000ED0184884420BD01748844208D0174817
:102E8000844205D04FF47B7215A123A001F0EAFA29
:102E9000280A00D12DB940F2ED3211A124A001F091
:102EA000E1FA56B1012E05D040F2EE320CA125A078
:102EB00001F0D8FAA089284301E0A089A843A081A5
:102EC00070BD0000002C01400004004000080040DC
:102ED000000C00400010004000140040003401408D
:102EE0002E2E5C6669726D776172655C6E33326737
:102EF0003435785F7374645F7065726970685F649D
:102F000072697665725C7372635C6E3332673435F6
:102F1000785F74696D2E6300497354696D416C6C00
:102F20004D6F64756C652854494D78290000000088
:102F3000497354696D496E742854494D5F49542949
:102F40000000000049535F46554E4354494F4E41DF
:102F50004C5F535441544528436D642900000000E0
:102F600070B50446154815460E4684421AD0B4F191
:102F7000804F17D01248844214D01248844211D096
:102F8000114884420ED0114884420BD0104884422C
:102F900008D01048844205D040F219520EA11CA05E
:102FA00001F060FA3DB1012D05D040F21A520AA19C
:102FB0001DA001F057FA2685A58270BD002C0140A6
:102FC0000004004000080040000C004000100040D9
:102FD00000140040003401402E2E5C6669726D774B
:102FE0006172655C6E3332673435785F7374645F29
:102FF0007065726970685F6472697665725C73721D
:10300000635C6E3332673435785F74696D2E6300AC
:10301000497354696D416C6C4D6F64756C652854CF
:10302000494D782900000000497354696D5073635D
:1030300052656C6F61644D6F64652854494D5F50F3
:10304000534352656C6F61644D6F646529000000E5
:10305000F8B51A4E41F63F70F0804FF4A060FFF7CC
:103060006BF901211020FFF7AFF936208DF8000031
:1030700003258DF8015000248DF8024001208DF8C1
:1030800003006846FEF7D8FE0D48042185800180C4
:10309000C48044800B4C0146204600F00FF9012209
:1030A000F1882046FFF75CFF012211462046FFF71A
:1030B000CDFE0121204600F007F8F8BD12000020E7
:1030C000580000200010004070B5044618480D4616
:1030D00084421AD0B4F1804F17D01648844214D0DD
:1030E0001548844211D0154884420ED014488442B9
:1030F0000BD01448844208D01348844205D040F2D3
:10310000AF3212A11FA001F0ADF95DB1012D05D0C4
:103110004FF46C720DA121A001F0A4F9206840F0D9
:10312000010002E0206820F00100206070BD000076
:10313000002C01400004004000080040000C00404A
:103140000010004000140040003401402E2E5C6648
:1031500069726D776172655C6E3332673435785FA2
:103160007374645F7065726970685F6472697665B4
:10317000725C7372635C6E3332673435785F746986
:103180006D2E6300497354696D416C6C4D6F6475AD
:103190006C652854494D78290000000049535F466A
:1031A000554E4354494F4E414C5F5354415445286A
:1031B000436D64290000000070B505461F480026D5
:1031C0000C4685421AD0B5F1804F17D01C48854275
:1031D00014D01C48854211D01B4885420ED01B4894
:1031E00085420BD01A48854208D01A48854205D03E
:1031F00040F6FC3218A126A001F034F9012C13D0BE
:10320000022C11D0042C0FD0082C0DD0102C0BD078
:10321000202C09D0402C07D0802C05D040F6FD3260
:103220000DA121A001F01EF92969A889214200EA17
:10323000040001D000B10126304670BD002C0140D1
:103240000004004000080040000C00400010004056
:1032500000140040003401402E2E5C6669726D77C8
:103260006172655C6E3332673435785F7374645FA6
:103270007065726970685F6472697665725C73729A
:10328000635C6E3332673435785F74696D2E63002A
:10329000497354696D416C6C4D6F64756C6528544D
:1032A000494D782900000000497354696D476574E1
:1032B000496E742854494D5F495429002DE9F05F47
:1032C000DFF87CB1DFF87C91DFF87CA15F4F604EC6
:1032D0000D4604464FF08048584514D0444512D05E
:1032E000BC4210D0B4420ED054450CD05948844250
:1032F00009D05948844206D04C4504D0BD2257A17C
:1033000064A001F0AFF8688860B110280AD02028C6
:1033100008D0402806D0602804D0BE224FA163A068
:1033200001F0A0F8E88850B1B0F5807F07D0B0F583
:10333000007F04D0BF2249A168A001F093F8206863
:103340005A46944209D04C4507D0444505D0BC426A
:1033500003D0B44201D0544503D120F070016888F5
:1033600008433C498C4206D03B498C4203D020F4B0
:103370004071E88808432060A888A08528882085B7
:10338000944201D04C4501D1287A20860120A082A8
:103390002068944209D04C4507D0444505D0BC4232
:1033A00003D0B44201D0544508D1697A11B140F438
:1033B000006001E020F40060444505D0BC4203D029
:1033C000B44201D054450FD1A97A11B140F48050D4
:1033D00001E020F48050E97A11B140F4005001E09E
:1033E00020F40050444503D0BC4201D0B44206D181
:1033F000297B11B140F4804001E020F480405C451D
:1034000007D04C4505D0444503D0BC4201D0B4425E
:1034100006D1697B11B140F4004001E020F4004086
:1034200020606068444501D0B44206D1A97B11B147
:1034300040F4807001E020F480706060BDE8F09F8F
:10344000002C014000340140000C0040000400400A
:103450000008004000100040001400402E2E5C6662
:1034600069726D776172655C6E3332673435785F8F
:103470007374645F7065726970685F6472697665A1
:10348000725C7372635C6E3332673435785F746973
:103490006D2E6300497354696D416C6C4D6F64759A
:1034A0006C652854494D782900000000497354691F
:1034B0006D436E744D6F64652854494D5F54696D5A
:1034C0006542617365496E69745374727563742DD6
:1034D0003E436E744D6F6465290000004973546962
:1034E0006D436C6B4469762854494D5F54696D6532
:1034F00042617365496E69745374727563742D3ECD
:10350000436C6B446976290010B5054800F0A2FCB5
:10351000C1B204480068BDE81040FDF787BF000055
:10352000004C00402C00002070B5114D40F2255198
:10353000284600F043FA10B10E4C207820B12846FE
:10354000BDE8704000F086BC284600F083FC0949C5
:103550006288091D50546088401C6080032000F080
:103560002DFEBDE870403221034A032000F030BE3A
:10357000004400400A0500207D41000870B5114D4F
:1035800040F22551284600F019FA10B10E4C20786F
:1035900020B12846BDE8704000F05CBC284600F031
:1035A00059FC09496288091D50546088401C60809C
:1035B000052000F003FEBDE870403221034A0520DB
:1035C00000F006BE00480040B80000208D41000811
:1035D0002DE9F047DFF8E080DFF8E090DFF8E0A0C9
:1035E00016460D460446404515D04C4513D054456B
:1035F00011D0344884420ED0334884420BD0334833
:10360000844208D03248844205D040F27F1231A172
:103610003FA000F027FF40F66A17282D1DD0A5F522
:10362000E060273819D0A5F5C060263815D0A5F57B
:10363000A060253811D0A5F5806024380DD0A5F5FF
:103640000060463809D0BD4207D0602D05D04FF448
:10365000C07220A135A000F005FF3EB1012E05D0BB
:1036600040F281121BA138A000F0FCFEBD420BD13C
:10367000444509D04C4507D0544505D040F2851249
:1036800014A138A000F0EEFE05F01F020120C5F3E2
:1036900042119040012906D0022906D01434216835
:1036A0002EB1014304E00C34F9E71034F7E781430D
:1036B0002160BDE8F0870000003801400044004070
:1036C00000480040004C00400050004000500140C5
:1036D000005401402E2E5C6669726D776172655CE4
:1036E0006E3332673435785F7374645F7065726906
:1036F00070685F6472697665725C7372635C6E3366
:1037000032673435785F75736172742E6300000020
:1037100049535F55534152545F414C4C5F504552A1
:1037200049504828555341525478290049535F5510
:10373000534152545F4346475F494E5428555341C5
:1037400052545F494E54290049535F46554E4354E5
:10375000494F4E414C5F535441544528436D6429B1
:103760000000000049535F55534152545F313233DA
:103770005F504552495048285553415254782900CA
:1037800070B5044616480D46844217D01548844249
:1037900014D01548844211D0144884420ED01448E5
:1037A00084420BD01348844208D01348844205D089
:1037B00040F2591211A120A000F054FE5DB1012D7C
:1037C00005D04FF4AD720DA122A000F04BFEA089F0
:1037D00040F4005002E0A08920F40050A08170BDA8
:1037E000003801400044004000480040004C0040C8
:1037F0000050004000500140005401402E2E5C66F5
:1038000069726D776172655C6E3332673435785FEB
:103810007374645F7065726970685F6472697665FD
:10382000725C7372635C6E3332673435785F7573C4
:103830006172742E6300000049535F555341525426
:103840005F414C4C5F5045524950482855534152B6
:103850005478290049535F46554E4354494F4E41D1
:103860004C5F535441544528436D642900000000C7
:103870002DE9F047264F0026DFF89880DFF8989072
:103880000C460546B84215D0454513D04D4511D0DC
:10389000224885420ED0224885420BD021488542DD
:1038A00008D02148854205D040F219321FA12EA030
:1038B00000F0D8FD012C24D0802C22D0402C20D028
:1038C000202C1ED0102C1CD0B4F5807F19D0B4F55C
:1038D000007F0AD0082C14D0042C12D0022C10D057
:1038E00040F21A3211A127A009E0BD4209D0454596
:1038F00007D04D4505D040F21E320CA128A000F0A3
:10390000B1FD2888204200D001263046BDE8F0876E
:10391000003801400044004000480040004C004096
:103920000050004000500140005401402E2E5C66C3
:1039300069726D776172655C6E3332673435785FBA
:103940007374645F7065726970685F6472697665CC
:10395000725C7372635C6E3332673435785F757393
:103960006172742E6300000049535F5553415254F5
:103970005F414C4C5F504552495048285553415285
:103980005478290049535F55534152545F464C4186
:10399000472855534152545F464C41472900000087
:1039A00049535F55534152545F3132335F50455252
:1039B0004950482855534152547829002DE9F04781
:1039C000DFF8E8800026DFF8E890DFF8E8A00C4692
:1039D0000546404515D04D4513D0554511D03648C4
:1039E00085420ED0354885420BD03548854208D0F7
:1039F0003448854205D040F26B3233A141A000F03B
:103A000031FD282C34D0A4F5E06040F66A17273841
:103A100020D0A4F5C06026381CD0A4F5A0602538BD
:103A200018D0A4F58060243814D0A4F5006046387E
:103A300010D0BC420ED0B4F5587F19D0B4F5187F21
:103A400016D0B4F5B07F13D04FF45B721EA134A032
:103A500000F008FDBC420BD1454509D04D4507D0CB
:103A6000554505D04FF45C7217A134A000F0FAFC64
:103A700004F01F020123C4F3421103FA02F00129EA
:103A800010D0022910D0A98A4FEA142203FA02F3B7
:103A90002A88014202EA030201D002B1012630461F
:103AA000BDE8F087A989EFE7298AEDE700380140F2
:103AB0000044004000480040004C004000500040DE
:103AC00000500140005401402E2E5C6669726D77F3
:103AD0006172655C6E3332673435785F7374645F2E
:103AE0007065726970685F6472697665725C737222
:103AF000635C6E3332673435785F75736172742E30
:103B00006300000049535F55534152545F414C4C90
:103B10005F50455249504828555341525478290026
:103B200049535F55534152545F4745545F494E5482
:103B30002855534152545F494E54290049535F550B
:103B4000534152545F3132335F50455249504828F7
:103B500055534152547829002DE9F04F5D4E5E4F88
:103B6000DFF87881DFF87891DFF878A187B00D462B
:103B70000446B04212D0BC4210D044450ED05A4840
:103B800084420BD05948844208D04C4506D0544555
:103B900004D0C42256A165A000F064FC28686A49DC
:103BA000401E884204D3C52251A168A000F05AFCEF
:103BB000A8884FF4805B30B1584504D0C6224CA190
:103BC0006EA000F04FFCE88860B158450AD0B0F50F
:103BD000005F07D0B0F5405F04D0C72244A174A0B5
:103BE00000F040FC288950B1B0F5806F07D0B0F5E7
:103BF000C06F04D0C8223EA179A000F033FC6889D0
:103C000030F00C0100D120B9C92239A17FA000F009
:103C100029FCA88900281AD0B0F5807F0CD0B0F517
:103C2000007F09D0B0F5407F06D0CA2230A181487C
:103C300000F018FCA88950B1B44208D0BC4206D0AC
:103C4000444504D0CE222AA17BA000F00BFC208AA0
:103C50004CF6FF710840E98801432182A1894EF6A4
:103C6000F3100140A8882A8910436A890A43104347
:103C7000A081A08A4FF6FF410840A9890143A18293
:103C80006846FEF75DFCB44203D04C4501D0544574
:103C900001D1039800E00298642200EBC00101EB1F
:103CA000001029686FF018058900B0FBF1F1B1FB35
:103CB000F2F0000103096B4301EB8301322303EBB4
:103CC0000111B1FBF2F101F00F010143218107B0B5
:103CD000BDE8F08F0038014000440040004800403B
:103CE0000050014000540140004C00400050004092
:103CF0002E2E5C6669726D776172655C6E33326719
:103D00003435785F7374645F7065726970685F647E
:103D100072697665725C7372635C6E3332673435D8
:103D2000785F75736172742E6300000049535F55AC
:103D3000534152545F414C4C5F50455249504828C2
:103D4000555341525478290020AA440049535F55E5
:103D5000534152545F4241554452415445285553B2
:103D60004152545F496E69745374727563742D3E89
:103D700042617564526174652900000049535F55C2
:103D8000534152545F574F52445F4C454E4754483D
:103D90002855534152545F496E6974537472756368
:103DA000742D3E576F72644C656E6774682900000D
:103DB00049535F55534152545F53544F50424954F5
:103DC000532855534152545F496E69745374727548
:103DD00063742D3E53746F70426974732900000040
:103DE00049535F55534152545F50415249545928E9
:103DF00055534152545F496E6974537472756374BC
:103E00002D3E5061726974792900000049535F5555
:103E1000534152545F4D4F44452855534152545FCE
:103E2000496E69745374727563742D3E4D6F646589
:103E300029000000C866000849535F555341525499
:103E40005F3132335F5045524950482855534152F3
:103E50005478290010B504460F48844217D00F4803
:103E6000844214D00E48844211D00E4884420ED0B1
:103E70000D4884420BD00D48844208D00C4884423F
:103E800005D040F251220BA119A000F0EBFAA08856
:103E9000C0F3080010BD000000380140004400409D
:103EA00000480040004C00400050004000500140DD
:103EB000005401402E2E5C6669726D776172655CFC
:103EC0006E3332673435785F7374645F706572691E
:103ED00070685F6472697665725C7372635C6E337E
:103EE00032673435785F75736172742E6300000039
:103EF00049535F55534152545F414C4C5F504552BA
:103F000049504828555341525478290070B5044609
:103F100014480D46844217D01348844214D01348E5
:103F2000844211D0124884420ED0124884420BD0F1
:103F30001148844208D01148844205D04FF41072D1
:103F40000FA11EA000F08EFAB5F5007F05D340F258
:103F500041220BA120A000F085FAC5F30800A08043
:103F600070BD00000038014000440040004800409F
:103F7000004C0040005000400050014000540140FF
:103F80002E2E5C6669726D776172655C6E33326786
:103F90003435785F7374645F7065726970685F64EC
:103FA00072697665725C7372635C6E333267343546
:103FB000785F75736172742E6300000049535F551A
:103FC000534152545F414C4C5F5045524950482830
:103FD000555341525478290049535F555341525427
:103FE0005F44415441284461746129000020024625
:103FF000054903E00B18401C1A71C0B24B8883427C
:10400000F8D84A800A7070470A0500202DE9F0416F
:104010000D4606460024094F0BE0315D3846FFF798
:1040200075FF80213846FFF723FC0028F9D0641C77
:10403000A4B2AC42F1D3BDE8F081000000440040DE
:1040400070B50021582200F021F800281BD00E483E
:104050004488172C13D1631E05E04518491C2D799F
:10406000C9B22A4492B28B42F7DCD143064AC9B2A4
:10407000D21CA25C8A4202D1001DFCF73BFBBDE8CA
:104080007040FFF7B3BF70BD0A05002002480078FA
:10409000012800D0002070470A05002000200246B9
:1040A000054903E00B18401C1A71C0B24B888342CB
:1040B000F8D84A800A707047B80000202DE9F04116
:1040C0000D4606460024094F0BE0315D3846FFF7E8
:1040D0001DFF80213846FFF7CBFB0028F9D0641C78
:1040E000A4B2AC42F1D3BDE8F0810000004800402A
:1040F00070B500F01FF8002816D00C4D4FF4006486
:1041000021462846FDF7E8F809484188001DFFF7D9
:10411000D5FF642000F0BEF921462846FDF770F86F
:10412000BDE87040FFF7BABF70BD00000008014055
:10413000B800002002480078012800D00020704715
:10414000B80000202DE9F0410D4606460024094F35
:104150000BE0315D3846FFF7D9FE80213846FFF786
:1041600087FB0028F9D0641CA4B2AC42F1D3BDE8AF
:10417000F0810000004C0040FEE7000002490120F1
:104180000870032000F01AB80A0500200249012037
:104190000870052000F012B8B80000200020064981
:1041A000024601EBC00341F83020401CC0B25A6007
:1041B0000A28F6D3FEF74CBF68000020034A00210E
:1041C00042F8301002EBC0004160704768000020E8
:1041D000034B43F8301003EBC0004260704700000F
:1041E0006800002070B5094D002455F8340040B136
:1041F000401E05EBC40145F83400496809B100B917
:104200008847641CE4B20A2CEFD370BD680000201C
:104210000FB4054B10B503A9044A029800F040F80A
:1042200010BC5DF814FB0000AD44000848000020FD
:104230000FB4084B10B504A902AA039800F030F897
:10424000044602A9002000F007F9204610BC5DF8E2
:1042500014FB0000594400080907090E002804DB7C
:1042600000F1E02080F80014704700F00F0000F12A
:10427000E02080F8141D704700487047540000206B
:1042800002E008C8121F08C1002AFAD1704770471F
:10429000002001E001C1121F002AFBD1704700007D
:1042A0002DE9FF4F8BB09A460F460546002606E0E3
:1042B00025280BD052460D9990476D1C761C287806
:1042C0000028F5D10FB03046BDE8F08F0024A0469D
:1042D0000122604900E0044315F8013F203B02FA47
:1042E00003F00842F7D128782E2817D115F8010FCE
:1042F00044F004042A280ED06FF02F022878A0F191
:10430000300109290AD808EB880102EB410100EBD2
:1043100001086D1CF2E757F8048B6D1C287869289A
:104320003ED006DC0028CDD063280BD0642804D111
:1043300036E0732810D075284BD052460D9990471F
:10434000761C85E017F8040B8DF8000000208DF82E
:104350000100E946012003E057F8049B4FF0FF30CD
:1043600061074FF0000401D40AE0641C44450DDAF3
:104370008442FADB19F804100029F6D106E0641C27
:104380008442FCDB19F804100029F8D1264404E02B
:1043900019F8010B52460D999047641EF8D257E068
:1043A00001CF4FF00A0B002802DA40422D2102E033
:1043B000210504D52B218DF82410012103E0E1070C
:1043C00005D02021F7E70DF1200908910CE000212C
:1043D000F9E701CF4FF00A0BF9E75946FBF7F5FF74
:1043E00001F1300209F8012D0028F6D1ADEB0900EA
:1043F00000F1200B600701D44FF00108D84502DD21
:10440000A8EB0B0000E000208046002406E009A88D
:104410005246005D0D999047641C761C08988442B2
:10442000F5DB04E0302052460D999047761CB8F138
:104430000001A8F10108F5DC05E019F8010B52466E
:104440000D999047761CBBF10001ABF1010BF4DC38
:104450006D1C34E7092801000A68531C0B601070BA
:104460007047000013460A46014602A0FFF7D0FE3F
:10447000FEE70000617373657274696F6E20666198
:10448000696C65643A20602573602061742025732F
:104490003A256400002246F2A81303E01946491E9B
:1044A000FDD1521C8242F9D37047000070B5074D10
:1044B0000446C1B22846FFF729FD40212846FFF7F0
:1044C000D7F90028F9D0204670BD00000050004008
:1044D00030B587B06846FEF733F8012140F2FD1091
:1044E000FDF7D0FF01214FF46020FDF76DFF4FF481
:1044F0004070FDF729FD0420FEF75AF90198642168
:10450000B0FBF1F1491E4FF0FF35B1F1807F0AD2C7
:104510004FF0E02461610F212846FFF79DFE002047
:10452000A0610720206100212846FFF795FE07B013
:1045300030BD000030B585B00424ADF8104018201F
:104540008DF813000320194D8DF8120004A9284698
:10455000FCF748FD0821ADF8101001208DF812007D
:104560008DF8134004A92846FCF73CFD4FF4165083
:1045700000900020ADF80400ADF80600ADF808008A
:10458000ADF80C000C200A4CADF80A006946204634
:10459000FFF7E2FA012240F225512046FFF718F812
:1045A00001212046FFF7ECF805B030BD00080140BE
:1045B0000044004010B586B04FF48060ADF81000A4
:1045C00018208DF813000320194C8DF8120004A94F
:1045D0002046FCF707FDE114ADF8101001218DF81D
:1045E000121004218DF8131004A92046FCF7FAFCE0
:1045F0004FF4165000900020ADF80400ADF806000E
:10460000ADF80800ADF80C000C200A4CADF80A001B
:1046100069462046FFF7A0FA012240F225512046C4
:10462000FEF7D6FF01212046FFF7AAF806B010BD1D
:10463000000C01400048004010B586B04FF4806087
:10464000ADF8100018208DF813000320194C8DF8D8
:10465000120004A92046FCF7C5FCE114ADF81010C7
:1046600001218DF8121004218DF8131004A92046A1
:10467000FCF7B8FC4FF4E13000900020ADF80400E6
:10468000ADF80600ADF80800ADF80C000C200A4C9F
:10469000ADF80A0069462046FFF75EFA012240F2B3
:1046A00025512046FEF794FF01212046FFF768F8C8
:1046B00006B010BD00100140004C004010B586B09F
:1046C00001213120FDF7DEFE01210805FDF77CFE0A
:1046D0004FF48050ADF8100018208DF8130003201F
:1046E0008DF8120004A91648FCF77CFC0420ADF8F4
:1046F00010008DF8130004A91248FCF773FC4FF466
:10470000E13000900020ADF80400ADF80600ADF8EF
:104710000800ADF80C0008200B4CADF80A00694603
:104720002046FFF719FA012240F225512046FEF7F4
:104730004FFF01212046FFF723F8208806B010BD67
:10474000001001400014014000500040F8B5042062
:10475000ADF80000164D48248DF803406946284600
:10476000FCF740FC1020ADF80000124E8DF803401D
:1047700069463046FCF736FC4020ADF800008DF865
:10478000034069463046FCF72DFC2020ADF80000C0
:104790008DF8034069460848FCF724FC0220ADF878
:1047A00000008DF8034069462846FCF71BFCF8BD65
:1047B000000C01400008014000100140F8B5202025
:1047C000ADF800001025214E8DF8035001248DF81E
:1047D000024069463046FCF705FC20213046FCF7D4
:1047E0007BFD1B4A4FF4FA710120FFF7F1FC80209A
:1047F000ADF800008DF803508DF802406946304650
:10480000FCF7F0FB80213046FCF766FDADF8005068
:10481000104E8DF803508DF8024069463046FCF783
:10482000E1FB10213046FCF757FDADF800408DF854
:1048300003508DF80240084C69462046FCF7D2FB35
:1048400001212046FCF748FDF8BD000000080140AA
:10485000391A000800100140000C01400EB5FFF7A6
:1048600037FEFCF763F80EA0FFF7D2FC4FF6FF749B
:104870000021F0234FF4A07208460094FEF74CF894
:10488000002010210094CDE901104FF4784308A2D4
:104890000146FEF7D7F9FCF76FF8FDF7C9FEFAE716
:1048A00068656C6C6F20776F726C640D0A00000095
:1048B00069206D69737320796F750000F0B50B3056
:1048C000154D20F007010024144A0FE003688B42C5
:1048D0000BD38B4205D95E1A43184768C3E90067BA
:1048E00000E04368136002C004E0021D1068002865
:1048F000ECD12046002802D1286808B10020F0BD84
:10490000064A07481060074A121A22F00702C0E957
:10491000002401202860D7E7500000204C00002030
:1049200044140020400401200000000001020304A0
:10493000010203040607080901020406080A0C1014
:10494000202020202020202001000200040006005A
:1049500008000A000C001000200040008000000148
:1049600000010001000100013031323334353637A7
:104970003839414243444546000000000000000031
:10498000000000000000040404040400000400000F
:1049900014140A00000000000000000000000A0AD1
:1049A0001F0A0A1F0A0A000000040E1505060C144F
:1049B000150E0400000012150D152E2C2A120000F1
:1049C0000000040A0A36151529160000020201002B
:1049D00000000000000000001008080404040404A3
:1049E000080810000204040808080808040402006B
:1049F00000000004150E0E15040000000000000861
:104A0000083E080800000000000000000000000050
:104A10000202010000000000003F00000000000052
:104A20000000000000000000000200000020101044
:104A3000080804040202010000000E1111111111F6
:104A4000110E00000000040604040404040E00001B
:104A500000000E1111080402011F000000000E11D9
:104A6000100C1010110E00000000080C0C0A091F99
:104A7000081C000000001F01010F1110110E0000A2
:104A800000000C12010D1311110E000000001E1089
:104A9000080804040404000000000E11110E111196
:104AA000110E000000000E11111916100906000069
:104AB00000000000040000000004000000000000EE
:104AC00000040000000404000000100804020204B6
:104AD00008100000000000003F003F000000000040
:104AE00000000204081010080402000000000E116B
:104AF000110804040004000000001C22292D2D1DB3
:104B0000221C0000000004040C0A0A1E12330000DC
:104B100000000F12120E1212120F000000001E11E0
:104B200001010101110E000000000F1212121212F9
:104B3000120F000000001F120A0E0A02121F0000CE
:104B400000001F120A0E0A020207000000001C12D9
:104B500001013911120C000000003312121E121252
:104B60001233000000001F0404040404041F0000AA
:104B700000003E0808080808080809070000371266
:104B80000A060A121237000000000702020202029F
:104B9000223F000000003B1B1B1B151515350000B4
:104BA00000003B1216161A1A1217000000000E1110
:104BB00011111111110E000000000F12120E02024D
:104BC0000207000000000E1111111117190E180034
:104BD00000000F12120E0A121237000000001E1100
:104BE00001060810110F000000001F150404040442
:104BF000040E00000000331212121212120C0000F8
:104C000000003312120A0A0C0404000000001515FB
:104C100015150E0A0A0A000000001B0A0A04040AFD
:104C20000A1B000000001B0A0A0A0404040E00000C
:104C300000001F0908040402121F00001C040404E1
:104C40000404040404041C00000202040404080810
:104C5000081010000E0808080808080808080E00C8
:104C6000040A000000000000000000000000000036
:104C7000000000000000003F0204000000000000EF
:104C80000000000000000000000C121C123C00009C
:104C900000030202020E1212120E000000000000B9
:104CA000001C1202120C000000181010101C12122E
:104CB000123C000000000000000C121E021C00004C
:104CC00000182404041E0404041E00000000000058
:104CD000003C120C021C221C00030202020E1212E3
:104CE000123700000004040000060404040E000053
:104CF00000080800000C0808080808070003020262
:104D0000021A0A060A13000000070404040404043B
:104D1000041F000000000000000F1515151500000D
:104D200000000000000F1212123700000000000007
:104D3000000C1212120C000000000000000F1212F2
:104D4000120E020700000000001C1212121C103884
:104D500000000000001B0602020700000000000027
:104D6000001E020C101E000000000004041E0404BB
:104D7000041C000000000000001B1212123C000086
:104D800000000000001B0A0A0404000000000000EC
:104D90000015150E0A0A000000000000001B0A049E
:104DA0000A1B000000000000003312120C0804036C
:104DB00000000000001E0804041E00001808080877
:104DC000080C080808081800080808080808080857
:104DD000080808080604040404080404040406007F
:104DE00016090000000000000000000000000000A4
:104DF00000000000000000000000000000000008AB
:104E000008080808080800001818000000486C246A
:104E1000120000000000000000000000000000245C
:104E200024247F1212127F12121200000000081CAC
:104E30002A2A0A0C1828282A2A1C080800000022FE
:104E4000251515152A585454542200000000000C52
:104E50001212120A76252911916E0000000606042E
:104E600003000000000000000000000000402010CF
:104E70001008080808080810102040000002040864
:104E800008101010101010080804020000000000A4
:104E900008086B1C1C6B08080000000000000000E4
:104EA000080808087F080808080000000000000043
:104EB00000000000000000000606040300000000DF
:104EC00000000000FE0000000000000000000000E4
:104ED0000000000000000000060600000000804006
:104EE00040202010100808040402020000000018EE
:104EF000244242424242424224180000000000087C
:104F00000E08080808080808083E00000000003CD9
:104F10004242422020100804427E00000000003C73
:104F20004242201820404042221C00000000002085
:104F30003028242422227E20207800000000007ED9
:104F40000202021A26404042221C000000000038E3
:104F50002402021A26424242241800000000007E69
:104F60002222101008080808080800000000003C71
:104F70004242422418244242423C000000000018F1
:104F80002442424264584040241C000000000000BB
:104F900000001818000000001818000000000000B1
:104FA00000000008000000000008080400000040A5
:104FB0002010080402040810204000000000000037
:104FC00000007F0000007F000000000000000002E1
:104FD0000408102040201008040200000000003CDB
:104FE0004242464020101000181800000000001C2B
:104FF000225A555555552D42221C0000000000082C
:1050000008181414243C224242E700000000001F4C
:105010002222221E22424242221F00000000007C67
:105020004242010101010142221C00000000001F58
:105030002242424242424242221F00000000003F00
:105040004212121E12120242423F00000000003FB4
:105050004212121E12120202020700000000003C5F
:105060002222010101712122221C0000000000E720
:10507000424242427E42424242E700000000003E7D
:105080000808080808080808083E00000000007C1E
:1050900010101010101010101010110F00000077D9
:1050A00022120A0E0A1212222277000000000007C4
:1050B0000202020202020202427F000000000077A8
:1050C000363636362A2A2A2A2A6B0000000000E3E8
:1050D00046464A4A52525262624700000000001C93
:1050E0002241414141414141221C00000000003F5A
:1050F000424242423E020202020700000000001C3F
:105100002241414141414D53321C60000000003FAB
:105110004242423E1212222242C700000000007C9E
:105120004242020418204042423E00000000007F3C
:105130004908080808080808081C0000000000E7E3
:105140004242424242424242423C0000000000E7EA
:105150004242222424141418080800000000006BA6
:10516000494949495555362222220000000000E7EE
:10517000422424181818242442E700000000007775
:105180002222141408080808081C00000000007EF1
:105190002120101008040442423F00000078080853
:1051A0000808080808080808080878000000020233
:1051B000040408080810102020204040001E101091
:1051C000101010101010101010101E0000384400A5
:1051D00000000000000000000000000000000000CF
:1051E0000000000000000000000000FF00060800B2
:1051F00000000000000000000000000000000000AF
:105200000000003C4278444242FC000000000003E1
:105210000202021A26424242261A00000000000042
:105220000000003844020202443800000000006020
:10523000404040784442424264D8000000000000F0
:105240000000003C427E0202423C0000000000F0F0
:105250008808087E08080808083E000000000000D2
:105260000000007C22221C023C42423C0000000361
:105270000202023A4642424242E700000000000CAD
:105280000C00000E08080808083E0000000000306E
:1052900030000038202020202020221E00000003A3
:1052A00002020272120A1612227700000000000E9B
:1052B0000808080808080808083E00000000000068
:1052C0000000007F9292929292B7000000000000CE
:1052D0000000003B4642424242E70000000000005E
:1052E0000000003C42424242423C000000000000FC
:1052F0000000001B26424242221E0207000000005E
:105300000000007844424242447840E0000000003F
:10531000000000774C040404041F0000000000009B
:105320000000007C42023C40423E000000000000C1
:105330000008083E080808080830000000000000C7
:10534000000000634242424262DC000000000000B4
:10535000000000E7422424140808000000000000B8
:10536000000000EB494955552222000000000000D2
:105370000000007624181818246E000000000000B9
:10538000000000E742242414180808070000000069
:105390000000007E22100808447E000000C020208B
:1053A00020202010202020202020C00010101010CD
:1053B0001010101010101010101010100006080817
:1053C0000808081008080808080806000C32C2007F
:1053D00000000000000000000000000000000000CD
:1053E00000000000000000000000000000000000BD
:1053F00000000000000000000000000000000000AD
:10540000000000000000000000000000000000009C
:10541000000000006000600060006000600060004C
:10542000600040002000200020000000000000007C
:10543000600060006000000000000000000000004C
:1054400060066006300398018800440000000000F8
:10545000000000000000000000000000000000004C
:10546000000000000000000000000000000000003C
:10547000000000001002100210021002FE07FE07DA
:1054800008020801080108010801FE07FE070401DF
:1054900004010401040100000000000000000000FD
:1054A000000040004000F00158034C03CC034C00C6
:1054B00058007000E000C001C00140034C035C03D1
:1054C0004C034801F00040004000000000000000D4
:1054D000000000000E010A019100910091005100AE
:1054E00051003A00AE03A00250045004480448049E
:1054F0004804840284030000000000000000000053
:105500000000000038006C006C006C006C006C0047
:105510002C0098071C011A01330133016301E300D9
:10552000C308C6093C07000000000000000000009E
:105530000C001C0010001000080004000000000017
:10554000000000000000000000000000000000005B
:10555000000000000000000000000000000000004B
:105560000004000200018000800040004000200094
:1055700020002000200020002000200040004000EB
:105580008000800000010002000400000000000014
:10559000020004000800100010002000200040005D
:1055A000400040004000400040004000200020003B
:1055B00010001000080004000200000000000000BD
:1055C00000000000000000004000C0004000460C49
:1055D0004E0FD001F0015E0F460C4000400040002D
:1055E00000000000000000000000000000000000BB
:1055F00000000000000000000000400040004000EB
:1056000040004000FE0F40004000400040004000CD
:10561000000000000000000000000000000000008A
:10562000000000000000000000000000000000007A
:10563000000000000000000000000000000000006A
:105640000C001C0010001000080004000000000006
:10565000000000000000000000000000000000004A
:1056600000000000FE070000000000000000000035
:10567000000000000000000000000000000000002A
:10568000000000000000000000000000000000001A
:10569000000000000000000000000000000000000A
:1056A0001C001C001C0000000000000000000000A6
:1056B00000040006000200030001000180008000D9
:1056C0004000400060002000200010001000080092
:1056D00008000C00040006000200000000000000AA
:1056E000000000000000F00098010C030C03060607
:1056F00006060606060606060606060606060C0347
:105700000C039801F0000000000000000000000001
:1057100000000000000040007C00600060006000AD
:105720006000600060006000600060006000600079
:1057300060006000FC0300000000000000000000AA
:10574000000000000000F8008401020306030603C5
:10575000000300018001C00060002000100008026A
:1057600004020602FE03000000000000000000002A
:105770000000000000007800C6008601860180015C
:105780008001C000700080010001000300030603D7
:1057900006038601F8000000000000000000000081
:1057A00000000000000080018001C001A001A001F4
:1057B00090018801880184018201FE0F800180012F
:1057C00080018001E00700000000000000000000F0
:1057D000000000000000FC030400040004000400BA
:1057E0000400F4008C010403000300030603060315
:1057F00082018401F80000000000000000000000A9
:10580000000000000000E00118030C030C0004007D
:105810000600E60116030E06060606060606040640
:105820000C021803F000000000000000000000005F
:10583000000000000000F8070C060402040100014B
:1058400000018000800040004000400060006000D7
:105850006000600060000000000000000000000028
:10586000000000000000F8010C030606060606060C
:105870000C021C03F000C8010C030606060606060F
:1058800006060C03F001000000000000000000000C
:10589000000000000000F0000C010C0306020606E8
:1058A0000606060606078C067806000600030003B7
:1058B0000C018C01780000000000000000000000D6
:1058C00000000000000000000000000000000000D8
:1058D000E000E000E0000000000000000000000028
:1058E000E000E000E0000000000000000000000018
:1058F00000000000000000000000000000000000A8
:1059000060006000000000000000000000000000D7
:105910000000600060004000200020000000000047
:105920000000000000040002000180004000200090
:105930001000080004000800100020004000800053
:105940000001000200040000000000000000000050
:105950000000000000000000000000000000000047
:10596000FE07000000000000FE070000000000002D
:105970000000000000000000000000000000000027
:10598000000000000400080010002000400080001B
:10599000000100020004000200018000400020001D
:1059A00010000800040000000000000000000000DB
:1059B000000000000000E0031806040C040C0C0CAE
:1059C0000C0C000780014000400040000000000077
:1059D000E000E000E0000000000000000000000027
:1059E00000000000E00018030C02CC056405660509
:1059F000A605B604B604B604B604B602E4010C0467
:105A00000C021803F000000000000000000000007D
:105A1000000000000000600060005000D000900016
:105A20009000880088010801F801040304030402BF
:105A3000020202060F0F000000000000000000003C
:105A4000000000000000FE008C030C030C030C039C
:105A50000C038C01FC000C030C020C060C060C065B
:105A60000C060C03FE010000000000000000000016
:105A7000000000000000E00318030C060C040404FE
:105A800006000600060006000600060006040C04D8
:105A90000C021803F00000000000000000000000ED
:105AA0000000000000007F008C010C030C030C06BA
:105AB0000C060C060C060C060C060C060C060C0359
:105AC0000C038C017F0000000000000000000000BB
:105AD000000000000000FF030603060406040600A1
