:020000040800F2
:1000000058B80020AD01000861200008A5150008BF
:1000100019200008F90A00089D47000800000000A8
:10002000000000000000000000000000BF01000808
:10003000FB0A000800000000C3010008312B000883
:10004000C7010008C7010008C7010008C701000870
:10005000C7010008C7010008C7010008C701000860
:10006000C7010008C7010008C7010008C701000850
:10007000C7010008C7010008C7010008C701000840
:10008000C7010008C7010008C7010008C701000830
:10009000C7010008C7010008C7010008C701000820
:1000A000C7010008C7010008C7010008C701000810
:1000B000C7010008C7010008C7010008C701000800
:1000C000C7010008C7010008C7010008C7010008F0
:1000D000C7010008C7010008693B0008C13B0008D0
:1000E000C7010008C7010008C7010008C7010008D0
:1000F000C7010008C7010008C7010008C7010008C0
:10010000C7010008C7010008C7010008C7010008AF
:10011000493B0008C701000871330008C701000807
:10012000C7010008C7010008C7010008C70100088F
:10013000C7010008C7010008C7010008C70100087F
:10014000C7010008C7010008C7010008C70100086F
:10015000C7010008C7010008C7010008C70100085F
:10016000C7010008C7010008C7010008C70100084F
:10017000C7010008C7010008C7010008C70100083F
:10018000C7010008C7010008C7010008C70100082F
:10019000C7010008C7010008DFF80CD000F042FAE0
:1001A00000480047D1F0020858B8002006488047B0
:1001B00006480047FEE7FEE7FEE7FEE7FEE7FEE74C
:1001C000FEE7FEE7FEE7FEE7352B00089901000891
:1001D0002DE9F05F0546002092469B46884606467C
:1001E000814640241BE0284641464746224600F00F
:1001F00073F953465A46C01A914110D31146184616
:10020000224600F05AF92D1A67EB01084F462246A4
:100210000120002100F051F917EB00094E41201E8A
:10022000A4F10104DFDC484631462A464346BDE8D6
:10023000F09F2DE9F0410024061B254671F10006D0
:1002400005DA01240027D0EB070067EB0101161E39
:1002500073F1000605DA0027D2EB0702012567EBF0
:100260000303FFF7B5FF86460E4617469C46AC4291
:1002700004D00025D0EB050E65EB010624B100206B
:10028000D2EB000760EB030C704631463A466346FA
:10029000BDE8F08140EA01039B0703D009E008C9EB
:1002A000121F08C0042AFAD203E011F8013B00F83B
:1002B000013B521EF9D27047D2B201E000F8012B87
:1002C000491EFBD270470022F6E710B513460A46D6
:1002D00004461946FFF7F0FF204610BD30B505462D
:1002E0002A460B4612F8010B13F8014B08B1A04245
:1002F000F8D01CB1002802D06D1CF1E7284630BDB3
:10030000CAB2401E10F8011F8A4202D00029F9D15A
:1003100000207047421C10F8011B0029FBD1801AF5
:10032000704770B5064604F0B1FA046805460A2223
:100330000021304600F0E0F82C6070BD2DE9FE4F42
:1003400081EA030404F0004421F0004100944FF0DE
:10035000000B23F0004350EA01045ED052EA03048C
:100360005BD0C3F30A54C1F30A552C44A4F2F3340E
:100370000194A0FB0254C1F3130141F48011C3F3B3
:10038000130343F4801301FB024400FB034E840A71
:10039000970A44EA815447EA8357A4FB0768029509
:1003A0008D0A05FB07854FEA932C04FB0C542705A7
:1003B000029D4FEA065847EA1637B5EB08056EEB83
:1003C000070C870E920E47EA811742EA8312A7FBB9
:1003D0000201B6EB0B0164EB00042B0D43EA0C3376
:1003E0005E1844EB1C50DA465146E7FB0201C5F3A8
:1003F00013044FEA0B3343EA14534FEA0432019CCF
:1004000043EA0603A4F10C040294009CCDE900B475
:1004100000F0B9F803B0BDE8F08F00200146F9E71D
:100420000EB5C10F80EAE0700844CA07002140F20F
:1004300033438DE80E000A460B4600F0A4F803B0E3
:1004400000BD0EB540F2334102910021CDE900110B
:100450000A460B4600F097F803B000BDC1F30A52FC
:1004600010B5C1F3130140F2FF3341F480119A42F9
:1004700001DA002010BD40F233439A42A2F2334227
:1004800003DC524200F028F810BD904010BD30B59A
:100490000B46014600202022012409E021FA02F542
:1004A0009D4205D303FA02F5491B04FA02F52844DC
:1004B000151EA2F10102F1DC30BD202A04DB203A36
:1004C00000FA02F1002070479140C2F1200320FAA7
:1004D00003F3194390407047202A04DB203A21FAA5
:1004E00002F00021704721FA02F3D040C2F120024D
:1004F00091400843194670472DE9F04791460F4651
:1005000080460446002614F8015B2DB100F09CF8EB
:100510000068405DC007F6D12B2D02D02D2D18D0DC
:10052000641E4A463946204600F092F827B13968E1
:10053000A14201D1C7F8008071054FF002040BD52C
:100540004042002803DD04F0A1F90460A007BDE8E3
:10055000F08746F48066E4E70028F8DA04F096F9BC
:1005600004606FF00040F2E710B5141E73F1000450
:1005700008DA401C41F1000192185B411A4301D195
:1005800020F0010010BD2DE9F04D92469B4611B1BF
:10059000B1FA81F202E0B0FA80F220329046FFF721
:1005A0008CFF04460F4640EA0A0041EA0B0153461D
:1005B0005A46084313D0114653EA010019D0C8F136
:1005C00040025046FFF788FF05460E465046594602
:1005D0004246FFF772FF084305D0012004E02046A1
:1005E0003946BDE8F08D0020054346EAE0762C430D
:1005F00037430A986305E40AA0EB08000022FD0ACD
:1006000044EA47540A3002D500200146E9E70105D3
:1006100010196941DDE9084500196941BDE8F04D4F
:10062000A2E70000064C074D06E0E06840F0010339
:1006300094E8070098471034AC42F6D3FFF7B0FDBA
:1006400098110408B81104080048704760090408AC
:100650002DE9F05F82460078002715468B460AF1A7
:100660000104B946302801D09DB113E014F8010B04
:100670000127782803D0582801D045B10AE00DB1F0
:10068000102D07D10027102514F8010B02E00825D2
:1006900000E00A250026B0460EE005FB080005FB39
:1006A00006F1012701EB10461FFA80F8B6F5803FEE
:1006B00000D3B94614F8010B294600F018F80028B9
:1006C000EBDABBF1000F05D00FB1641E00E0544619
:1006D000CBF80040B9F1000F06D004F0D7F80221A2
:1006E0000160C81EBDE8F09F48EA0640FAE73A28D4
:1006F00000D2303820F02002412A01D3A2F1370085
:10070000884201D34FF0FF3070470000F8B54FF436
:100710000050ADF8000010250E4E8DF80350012456
:100720008DF802406946304600F056FD2103ADF8D1
:1007300000108DF803508DF802406946304600F0F5
:100740004BFD6103304600F0C3FE2103304600F04C
:10075000BFFEF8BD000C014070B51D4C0025E07ACD
:1007600010B1012813D010E02079401C207101F055
:1007700061FC0C2117A003F0F5FF64216570194A94
:10078000092004F037F80120E072002070BD01F06C
:1007900045FC002808BF70BD134E306801F062FFB1
:1007A00001461248326800F0A9F911A10F48FFF77D
:1007B00095FD00281EBFE572012070BD20790A2832
:1007C00098BFE572E1D92571E572022070BD000085
:1007D0003000002041542B51494143543D310D0A12
:1007E00000000000552000082C000020300A0020E6
:1007F0004F4B00000146064A09780020135C9942DD
:1008000008BF7047401CC0B20A28F7D370470000E9
:1008100042A70308000000002DE9F0414E4C8188FA
:10082000A1808179A171B0F801102180C178A170F7
:10083000B0F807102181417AA1724189A181017B21
:10084000A173B0F80D102182C17BA174018AA1822D
:10085000817CA175B0F813102183407DA07660687B
:10086000FFF7EFFD9FED3E1B53EC112BFFF766FDED
:10087000FFF7F4FD04F11C0685B235802068FFF710
:10088000E0FD9FED391B53EC112BFFF757FDFFF7F0
:10089000E5FD87B27780E068B0F5000F03DBC04369
:1008A000401CC0F31600FFF7BBFD9FED311B53EC5E
:1008B000112BFFF743FDFFF7D1FD80B200EE100AC8
:1008C000B0802F4BB8EE401A00EE105AB8EE400A36
:1008D000C1EE000A00EE107AB8EE401A80EE810AEE
:1008E000DFED250A60EE200A9FED240A60EE800A03
:1008F000FCEEE00A10EE900A307320695968084453
:10090000586019469A68C968904203D3821A114404
:10091000D96006E06FF07F4CACEB02020244114458
:10092000D9600022C3E901200D2938BFBDE8F0815C
:1009300000EE901AB1689FED131AF8EE600A60EEAF
:10094000810A20EE800ABCEEC00A10EE100A0844AC
:10095000B060DA60BDE8F081040A00200000000009
:100960009FE74A621B81103FCD2D44350B4E903FCF
:1009700056B7DD7835487A3F0000C84200007A4417
:100980001C000020EDF8433A08B507A0006800906D
:1009900006480178012918BF08BD00210170022115
:1009A000684603F049FE08BD58AA00001C0000205C
:1009B000084808B50068009007480178012905D16A
:1009C000002101700221684603F036FEBDE80840B0
:1009D00003F04EBEA80900081C00002038B5022014
:1009E000ADF8000010208DF803000120104C8DF8A8
:1009F00002006946204600F0EFFB0221204600F08D
:100A0000FDFC0221204600F063FD4FF4FA7009F06E
:100A100020F90221204600F0F1FC40F6B83009F040
:100A200018F9044A4FF47A71042003F0E3FE38BD4C
:100A3000000801409D29000838B503F0C1FE0FF001
:100A4000D7F901F0F7FD0FF00FF90FF08FF901F072
:100A500008FBFFF7C3FF10F0B5F94FF48050ADF875
:100A6000000010208DF80300114D01248DF8024084
:100A70006946284600F0B0FB2103284600F0BEFC82
:100A8000ADF8004048218DF803106946284600F073
:100A9000A3FB02F085F901F08DFF01F063FFFFF782
:100AA00035FE01F035F8BDE838400FF0C7BB000057
:100AB0000008014010B50E4C0120607001F040F8B4
:100AC000207801280CD100222270A078401CC1B2ED
:100AD0000848A170012907D0A270202100F08EFCE7
:100AE000BDE81040FFF764BF202100F0F1FCF7E7FC
:100AF0001200002000080140FEE770470023002993
:100B000098BF7047F0B40026D2E902C4644508BF1C
:100B100034460BD01468556814F80C400CF1010CE5
:100B20009CFBF5F705FB17CCC2F808C0C4545B1C4E
:100B30008B42E9D3F0BC704770B50D4604460128DE
:100B400018BF022C00F0E081042C18BF082C00F024
:100B5000DB81A4F5A01010381CBFA4F5A010B0F1E3
:100B6000300000F0D181A4F5B01040381CBFA4F5CE
:100B7000B010B0F1C00000F0C781A4F5C010B0F50E
:100B800080701CBFA4F5C010B0F5007000F0BC81EF
:100B9000A4F5C010B0F540701CBFA4F5C010B0F5AE
:100BA000023000F0B181A4F5C010B0F5033018BFD9
:100BB000B4F5805F00F0A881B4F5E91F18BFB4F563
:100BC000EA1F00F0A181B4F5EB1F18BFB4F5004F88
:100BD00000F09A816FF40010C4421CBFA4F500100D
:100BE000B0F1020000F09081A4F50010001F1CBFBE
:100BF000A4F50010B0F1080000F08681A4F5001003
:100C000010381CBFA4F54010B0F5807000F07C8156
:100C1000A4F54010B0F500701CBFA4F54010B0F56D
:100C2000806000F07181FB4884421CBF6FF08040FF
:100C3000C44200F06981F84884421CBFF7488442EE
:100C400000F06281F64884421CBFF648844200F0FE
:100C50005B81F54884421CBFF448844200F0548113
:100C6000F34884421CBFF348844200F04D81F248AF
:100C700084421CBFF148844200F04681F04884421F
:100C80001CBFF048844200F03F81A4F18040B0F5E1
:100C9000F2101CBFA4F18040B0F5F41000F03481D4
:100CA000A4F18040B0F5F6101CBFE748844200F084
:100CB0002B81E64884421CBFE548844200F0248131
:100CC000A4F18040B0F190701CBFE248844200F073
:100CD0001B81E14884421CBFA4F18040B0F18460D4
:100CE00000F01281DD4884421CBFDD48844200F0E0
:100CF0000B81DC4884421CBFDB48844200F0048145
:100D0000DA4884421CBFDA48844200F0FD80D948AA
:100D100084421CBFD848844200F0F680D748844201
:100D20001CBFD748844200F0EF80D64884421CBFE5
:100D3000D548844200F0E880D44884421CBFD4489F
:100D4000844200F0E180A4F18040B0F579101CBF2E
:100D5000A4F18040B0F57B107ED0CE4884421CBF09
:100D6000CD48844278D0CD4884421CBFCC488442D0
:100D700072D0CC4884421CBFCB4884426CD0CB4854
:100D800084421CBFCA48844266D0CA4884421CBF01
:100D9000C948844260D0C94884421CBFC8488442C4
:100DA0005AD0C84884421CBFC748844254D0C74860
:100DB00084421CBFA4F10050B0F580504CD0A4F187
:100DC0000050B0F580401CBFA4F10050B0F50040C9
:100DD00042D0BF4884421CBFBE4884423CD0BE487B
:100DE00084421CBFBD48844236D0BD4884421CBFEB
:100DF000BC48844230D0BC4884421CBFBB488442BB
:100E00002AD0BB4884421CBFBA4884427CD0A4F597
:100E1000001080381CBFA4F5B010B0F1800073D072
:100E2000A4F1815080381CBFA4F18150B0F1400082
:100E30006AD0A4F1815020381CBFA4F18150B0F1D8
:100E4000100061D0A4F1815008381CBFA4F181507A
:100E5000B0F1040058D000E056E0A4F18150801EAB
:100E60001CBF6FF08150C4424ED0A4F18050B0F549
:100E700000401CBFA4F18050B0F5804044D0A4F1E4
:100E80008050B0F5005018BFB4F1102F3CD0A4F141
:100E90008050B0F500601CBFA4F18050B0F58060B8
:100EA00032D0A4F18050B0F500701CBFA4F1805086
:100EB000B0F5807028D0A4F1805080381CBFA4F118
:100EC0008050B0F140001FD0A4F1805020381CBFEA
:100ED000A4F18050B0F1100016D0A4F18050083871
:100EE0001CBFA4F18050B0F104000DD0A4F18050DB
:100EF000801E1CBF6FF08050C44205D040F27A22A1
:100F00007DA18CA006F042FF002D18BF012D05D059
:100F100040F27B2278A18DA006F038FF924A14F0AF
:100F2000004F18BFD0691ED090491FFA84FC04EA14
:100F30000106C4F340510B01A1B29940B6F5401F20
:100F400021D014F4801F24D014F4001F4FF00303A9
:100F5000C4F3034603FA06F318BF1B04984314F0C6
:100F6000E04F52D11EE114F0804F18BF106ADBD160
:100F700014F0005F18BF506AD6D114F0805F14BF20
:100F8000906A5068D0E7536820F0706023F0706377
:100F9000FAE014F0807F25D014F0040F1AD014F07A
:100FA000007F20EA01000ED035B1536843F0010301
:100FB00043F070635360F8E0516821F0010141F0A3
:100FC00070615160F2E0536823F0010343F07063F5
:100FD0005360E9E04CF0040C0CFA03F39843002D45
:100FE000EAD0E2E714F0806F11D014F0080F0FD0B0
:100FF00014F0007F20EA01000BD03DB1536843F0AC
:10100000080343F070635360CFE0CDE0B0E0C5E08B
:10101000BCE0B4E000040080020011400600114072
:10102000200014403000144040001640C00016401C
:10103000000218400003184000041A40000C1A4037
:1010400000101C4000301C400100304002003040C5
:1010500003003040040020410400204308002044E5
:101060000800204610003440200034403000344056
:101070004000364080003640C00036400002384014
:101080000003384000043A40000C3A4000103C4055
:1010900000303C400100102002001020030010200E
:1010A00004001220080012200C001220100014204E
:1010B0003000142040001620C00016200001182027
:1010C000000218200003182000041A20000C1A2027
:1010D0000100202002002020040020200800202001
:1010E00010003420300034204000202080002020D8
:1010F00000012020000220202E2E5C6669726D7790
:101100006172655C6E3332673435785F7374645F27
:101110007065726970685F6472697665725C73721B
:10112000635C6E3332673435785F6770696F2E6346
:101130000000000049535F4750494F5F52454D4101
:101140005028526D7050696E2900000049535F4667
:10115000554E4354494F4E414C5F535441544528DA
:10116000436D642900000000000001400000307061
:10117000516821F0080141F07061516016E0536838
:1011800023F0080343F0706353600DE04CF0080C4B
:101190000CFA03F39843002DEAD02FE7884314F0AC
:1011A000E04F01D140F0706005B1084314F0004FEA
:1011B0001CBFD06170BD14F0804F1CBF106270BDA9
:1011C00014F0005F1CBF506270BD14F0805F14BF4C
:1011D0009062506070BD00002DE9F0410446002689
:1011E000A0F180400D46B0F584301CBFA4F18040D2
:1011F000B0F586301CD0A4F18040B0F588301CBF1B
:10120000A4F18040B0F58A3012D0A4F18040B0F54E
:101210008C301FBFA4F18040B0F58E30A4F1804027
:10122000B0F5903004D0BE223FA14EA006F0AEFD36
:10123000E878002818BF042810D0282818BF4828AC
:101240000CD0142818BF102808D01C2818BF182844
:1012500004D0BF2234A14AA006F098FD288820B906
:10126000C02231A151A006F091FDE87800F00F07EF
:1012700010F0100F0FD0A878002818BF022808D04F
:10128000012818BF032804D0C72227A150A006F0C8
:101290007DFDA878074328784FF00F0C10F0FF0F62
:1012A0004FF0010318BF216819D02A8803FA06F00D
:1012B000024082420FD1B2000CFA02F821EA080182
:1012C00007FA02F21143EA78282A08BF606102D0C7
:1012D000482A08BF2061761C082EE6D321602888A2
:1012E000FF2886BF62680020BDE8F08100F1080198
:1012F0002E8803FA01F10E408E420FD186000CFABF
:1013000006F822EA080207FA06F63243EE78282E9B
:1013100008BF6161EE78482E08BF2161401C082893
:10132000E4D36260BDE8F0812E2E5C6669726D7751
:101330006172655C6E3332673435785F7374645FF5
:101340007065726970685F6472697665725C7372E9
:10135000635C6E3332673435785F6770696F2E6314
:101360000000000049535F4750494F5F414C4C5FBC
:10137000504552495048284750494F7829000000AD
:1013800049535F4750494F5F4D4F444528475049A7
:101390004F5F496E69745374727563742D3E475084
:1013A000494F5F4D6F6465290000000049535F4756
:1013B00050494F5F50494E284750494F5F496E6929
:1013C000745374727563742D3E50696E2900000069
:1013D00049535F4750494F5F535045454428475054
:1013E000494F5F496E69745374727563742D3E473B
:1013F00050494F5F537065656429000070B504461D
:10140000A0F180400D46B0F584301CBFA4F18040AF
:10141000B0F586301DD0A4F18040B0F588301CBFF7
:10142000A4F18040B0F58A3013D0A4F18040B0F52B
:101430008C301FBFA4F18040B0F58E30A4F1804005
:10144000B0F5903005D04FF4C57206A114A006F097
:101450009DFC2DB940F28B1202A118A006F096FC5B
:10146000656170BD2E2E5C6669726D776172655C18
:101470006E3332673435785F7374645F7065726998
:1014800070685F6472697665725C7372635C6E33F8
:1014900032673435785F6770696F2E630000000033
:1014A00049535F4750494F5F414C4C5F504552494B
:1014B0005048284750494F782900000049535F475A
:1014C00050494F5F50494E2850696E290000000076
:1014D00070B50446A0F180400D46B0F584301CBFC5
:1014E000A4F18040B0F586301DD0A4F18040B0F565
:1014F00088301CBFA4F18040B0F58A3013D0A4F12D
:101500008040B0F58C301FBFA4F18040B0F58E3024
:10151000A4F18040B0F5903005D040F2731206A1DE
:1015200014A006F033FC2DB94FF4BA7202A118A032
:1015300006F02CFC256170BD2E2E5C6669726D77FD
:101540006172655C6E3332673435785F7374645FE3
:101550007065726970685F6472697665725C7372D7
:10156000635C6E3332673435785F6770696F2E6302
:101570000000000049535F4750494F5F414C4C5FAA
:10158000504552495048284750494F78290000009B
:1015900049535F4750494F5F50494E2850696E2963
:1015A0000000000001A003F047F9FBE7766F6964D3
:1015B00020486172644661756C745F48616E646C4A
:1015C000657228766F6964290D0A000010B4C2683C
:1015D000D0F804C0531C93FBFCF40CFB1433D0F87C
:1015E00008C0634504BF10BC704703689954C168C4
:1015F0004268491C91FBF2F302FB1311C16010BC5D
:10160000704700002DE9F0473D4E0025307B10B1BA
:10161000012812D06BE07079401C707100F00AFD57
:101620000A2138A003F09EF8C8217570384A0920B5
:1016300003F0E0F80120307359E000F0EFFC0028DF
:1016400008BFBDE8F087334C206801F00BF8014675
:1016500031482268FFF752FA30A12F48FEF73EFECC
:10166000070040D02C212C48FEF74AFE002836D037
:10167000441C7571801CFFF7BDF880462046FFF7BB
:10168000B9F800EB800008EB4000C0B210282CBF76
:101690001038083000F0FF08201DE41CFFF7AAF8FE
:1016A00081462046FFF7A6F800EB800009EB4000DA
:1016B00000F0FF09381DFFF79DF807462046FFF7A9
:1016C00099F800EB800007EB4000C3B24A46414660
:1016D00014A003F0B1F835730120BDE8F0877079EC
:1016E0000A2803D106E070790A2803D03573002058
:1016F000BDE8F087757135730220BDE8F087000002
:101700003000002041542B43434C4B3F0D0A000056
:10171000552000082C000020300A00202B43434CA9
:101720004B3A000025643A25643A25640D0A00000E
:101730002DE9F047AC4E0024DFF8B082B07BADF568
:10174000C46D25464FF001092746092880F04481E1
:10175000DFE800F005121A2C7F879DFAF800F07878
:10176000012807BFF770042086F80E900DF5C46DB0
:1017700018BFBDE8F08785E0642177709C4A092096
:1017800003F038F802207DE000F048FC00287AD011
:1017900000F050FC112197A002F0E4FF6421777063
:1017A000934A092003F026F803206BE000F036FC92
:1017B000002868D0D8F8000000F054FF0146924895
:1017C000D8F80020FFF79AF990A18F48FEF786FD20
:1017D000002800F0018190A18B48FEF77FFD1030BA
:1017E000044601782C2903D010F8011F2C29FBD1C5
:1017F000001BA0F10108C8216846FEF764FD4246BF
:1018000021466846FEF746FD04EB080086A1FEF778
:1018100065FD002800F0E080841C81780DF5C16032
:101820002C2906D04155691C8DB214F8011F2C29B2
:10183000F8D14755FEF775FD0546C8216846FEF705
:1018400042FD2A46611C6846FEF724FDB77300F08E
:10185000C3B864217770664A092002F0CBFF0520E7
:1018600010E000F0DBFB00280DD000F0E3FB0821C6
:101870006EA002F077FF642177705D4A092002F0C4
:10188000B9FF0620B0730DF5C46DBDE8F08700F018
:10189000C5FB002804BF0DF5C46DBDE8F087D8F87E
:1018A000000000F0DFFE01465748D8F80020FFF79F
:1018B00025F961A15448FEF711FD28B310F8061F61
:1018C0002C2904D010F8011F641C2C29FAD1DFF850
:1018D00070817125A0EB040A08F51079012C02D063
:1018E000022C12D02BE05046FEF784FFA5EB4000FF
:1018F000C2B254A10DF2DC5002F0AEFF9DF8DC053F
:1019000088F8400289F8017019E00AF10100FEF739
:1019100071FF04465046FEF76DFF00EB800004EBBC
:101920004000A5EB4000C2B246A10DF2DC5002F02F
:1019300093FFBDF8DC05A8F8400289F80270072083
:10194000B073A0E734E0FFE70E213FA002F00AFFEA
:10195000718A414802F006FF022133A002F002FF23
:1019600006213EA002F0FEFEB28A36A10DF5BC6053
:1019700002F072FF0DF5BC60FEF7CCFC81B20DF5F4
:10198000BC6002F0EFFE022132A002F0EBFEB18A51
:10199000344802F0E7FE032133A002F0E3FEF770C3
:1019A000C8217770124A092002F024FF082069E755
:1019B00000F034FB00283FF466AFD8F8000000F0D8
:1019C00051FE01461048D8F80020FFF797F827A1EC
:1019D0000D48FEF783FC08B1B77354E786F8009012
:1019E000B770B7734FE70000300000202C000020D4
:1019F0005520000841542B4D515454524541443D0B
:101A0000302C310D0A000000300A00202B4D5154BB
:101A100054524541443A00002B4D515454524541D3
:101A2000443A20302C302C00222C000041542B430F
:101A300053510D0A000000002B4353513A2000007F
:101A4000300E00202564000041542B4D5154545059
:101A500055423D302C220000A4100020302C302CA8
:101A6000302C00006C110020220D0A004F4B0000AA
:101A70002DE9F041214C224F0025A07920B1012809
:101A80001FD0022831D02DE01E4EA570306800F026
:101A9000E9FD01461C483268FFF730F800F0CAFA49
:101AA0004FF400413846FFF713FD4FF4FA716570AB
:101AB000164A092002F09EFE0120A0710020BDE818
:101AC000F08100F0ABFA68B14FF400413846FFF7FF
:101AD00095FC41F2883165700C4A092002F08AFEBB
:101AE0000220A0710020BDE8F08100F097FA0028E4
:101AF0001CBFA5710120BDE8F0810000300000206E
:101B0000000801402C000020300A00205520000869
:101B100038B54FF40040ADF8000010208DF80300F8
:101B20000120064C8DF8020069462046FFF754FB61
:101B30004FF400412046FFF7CBFC38BD00080140C0
:101B4000474810B5007C0B2828BF10BDDFE800F027
:101B5000061826344654620F6C0F7C00FFF788FF8E
:101B6000002808BF10BD012802D0022804D010BDF3
:101B70003B490120087410BD39490020087410BD8C
:101B800000F020FC002808BF10BD012802D0022868
:101B9000F2D010BD32480221017410BD00F0C2FB2A
:101BA000002808BF10BD012802D00228E4D010BDD3
:101BB0002B490320087410BD00F064FB002808BF07
:101BC00010BD012806D0022818BF10BD00212448EE
:101BD000017410BD22490420087410BDFFF712FDE6
:101BE000002808BF10BD012802D00228C4D010BDB3
:101BF0001B490820087410BD00F002FF002808BF30
:101C000010BD012802D00228B6D010BD144906200C
:101C1000087410BDFEF7A0FD002808BF10BD012804
:101C2000E6D00228A8D010BD00F028F8002808BF90
:101C300010BD012802D002289ED010BD08480A21FC
:101C400001740121817010BD05480178012902D17C
:101C5000002101700174BDE81040FFF769BD00006C
:101C600030000020044901200870AFF207024FF451
:101C70007A7102F0BFBD00001200002010B5A64826
:101C80008CB0407B0A2832D2DFE800F005183445DA
:101C90005F9EB7D9FBF900F0CDF919219FA002F0A2
:101CA00061FD9D4C002064216070A34A092002F070
:101CB000A1FD012060730CB0002010BD00F0AEF952
:101CC000002804BF0CB010BD9C4C206800F0CAFC7A
:101CD00001469B482268FEF711FF9AA19848FEF73B
:101CE000FDFA002800F012818B49022048730CB0E5
:101CF000002010BD00F09EF91E2193A002F032FDDD
:101D0000854C0020642160708B4A092002F072FD2E
:101D1000032000F092B800F081F9002804BF0CB055
:101D200010BD864C206800F09DFC01468448226866
:101D3000FEF7E4FE83A18248FEF7D0FA002800F007
:101D4000E580754904204873D1E700F073F90F214D
:101D500085A002F007FDC621B820CDE90001EA23E5
:101D6000312285A102A802F077FD02A8FEF7D2FA7F
:101D700081B202A802F0F6FC42F6483282A102A823
:101D800002F06AFD02A8FEF7C5FA81B202A802F0CD
:101D9000E9FC02217DA002F0E5FC10217C4802F064
:101DA000E1FC02217BA002F0DDFC13217AA002F00D
:101DB000D9FC594C00204FF4FA6160705E4A09204A
:101DC00002F018FD052038E000F028F9002804BFD3
:101DD0000CB010BD594C206800F044FC0146584836
:101DE0002268FEF78BFE71A15548FEF777FA0028AE
:101DF0007ED049490620487379E700F01BF91D2180
:101E000070A002F0AFFC624A76A102A802F024FDA5
:101E100002A8FEF77FFA81B202A802F0A3FC052116
:101E200071A002F09FFC3C4C002041F288316070B0
:101E3000414A092002F0DEFC0720607357E700F0FA
:101E4000EDF8002804BF0CB010BD3C4C206800F039
:101E500009FC01463A482268FEF750FE39A138488D
:101E6000FEF73CFA044662A13548FEF737FA002C2B
:101E700018BF00284AD028490820487337E721E0D6
:101E8000FFE700F0D7F81A215CA002F06BFC404A93
:101E900054A102A802F0E0FC02A8FEF73BFA81B2CE
:101EA00002A802F05FFC05214FA002F05BFC1A4C77
:101EB000002041F2883160701F4A092002F09AFC2C
:101EC0000920BAE700F0AAF8002804BF0CB010BD42
:101ED0001A4C206800F0C6FB014619482268FEF73C
:101EE0000DFE18A11648FEF7F9F9044640A100E0DE
:101EF0000CE01348FEF7F2F9002C18BF002805D0BB
:101F00000549002048730CB0012010BD0249002093
:101F100048730CB0022010BD3000002041542B4DFE
:101F20005154544346473D22636163686564222CE3
:101F3000302C310D0A000000552000082C00002034
:101F4000300A00204F4B000041542B4D5154544354
:101F500046473D226B656570616C697665222C3061
:101F60002C3132300D0A000041542B4D5154544352
:101F70004F4E4E3D302C220025642E25642E2564C4
:101F80002E2564222C000000256400002C22000075
:101F900000000020222C00002275736572222C2282
:101FA000302E313233343536220D0A002B4D515448
:101FB000545552433A2022636F6E6E222C302C30DF
:101FC0000000000041542B4D5154545355423D30B4
:101FD0002C226D6F646275735F636F6E74726F6CC9
:101FE0002F00000025730000222C300D0A00000095
:101FF0002B4D5154545355423A20300041542B4DEF
:102000005154545355423D302C226D6F64627573A8
:102010005F74696D652F0000FEE700000449487891
:10202000002808BF7047012000224A707047000056
:10203000300000200020054A01461154401C80B2A7
:10204000B0F57A7FF9D30248C1827047300A002088
:102050003000002001490120487070473000002006
:10206000704738B535208DF8000000248DF8014008
:102070008DF8024001258DF80350684600F026F8DF
:1020800026208DF800008DF801408DF802408DF873
:102090000350684600F01AF827208DF800008DF8EC
:1020A00001408DF802408DF80350684600F00EF8AC
:1020B00034208DF8000002208DF801008DF80240D8
:1020C0008DF80350684600F001F838BD70B504463D
:1020D000C0780F25002818BF012804D07D2223A135
:1020E0002FA005F053FE6078102804D37E221FA194
:1020F0003A4805F04BFEA078102804D37F221BA19C
:10210000374805F043FEE078012210B335480068F7
:10211000637800F4E060C0F5E060000AC0F10401FB
:1021200003FA01F1A37825FA00F01840084321785A
:10213000000101F1E02181F80004207800F01F0186
:1021400002FA01F14009800000F1E020C0F800111E
:1021500070BD207800F01F0102FA01F140098000F3
:1021600000F1E020C0F8801170BD00002E2E5C66EA
:1021700069726D776172655C6E3332673435785F92
:102180007374645F7065726970685F6472697665A4
:10219000725C7372635C6D6973632E630000000090
:1021A00049535F46554E4354494F4E414C5F53543B
:1021B000415445284E5649435F496E6974537472C1
:1021C0007563742D3E4E5649435F495251436861D1
:1021D0006E6E656C436D642900000000A809040858
:1021E000640904080CED00E010B50446B0F5E06F9A
:1021F00018BFB4F5C06F0CD0B4F5A06F1CBFB4F518
:10220000806FB4F5407F04D06C2205A111A005F0C9
:10221000BDFD1B4944F0FD7040F08060086010BDBA
:102220002E2E5C6669726D776172655C6E33326703
:102230003435785F7374645F7065726970685F6469
:1022400072697665725C7372635C6D6973632E6329
:102250000000000049535F4E5649435F5052494FBA
:10226000524954595F47524F5550284E5649435F83
:102270005072696F7269747947726F7570290000C6
:102280000CED00E070B51D4C0025607A10B10128FE
:1022900013D010E02079401C2071FFF7CBFE0B21FA
:1022A00017A002F05FFA64216570184A092002F055
:1022B000A1FA01206072002070BDFFF7AFFE002878
:1022C00008BF70BD124E306800F0CCF901461148CD
:1022D0003268FEF713FC10A10E48FDF7FFFF18B19E
:1022E00065722571012070BD20795A2898BF6572EA
:1022F000E1D925716572022070BD00003000002018
:1023000041542B43474154543F0D0A0055200008C7
:102310002C000020300A00202B43474154543A201F
:102320003100000070B51D4C0025207A10B1012845
:1023300013D010E02079401C2071FFF77BFE0B21A9
:1023400017A002F00FFA64216570184A092002F004
:1023500051FA01202072002070BDFFF75FFE0028B7
:1023600008BF70BD124E306800F07CF9014611487C
:102370003268FEF7C3FB10A10E48FDF7AFFF18B19E
:1023800025722571012070BD20795A2898BF2572C9
:10239000E1D925712572022070BD000030000020B7
:1023A00041542B43455245473F0D0A005520000834
:1023B0002C000020300A00202B43455245473A208C
:1023C000302C3100814810B5C0790A283AD2DFE8B4
:1023D00000F005213B4850617989B9CA7C4C2068DE
:1023E00000F040F901467B482268FEF787FBFFF7C3
:1023F00021FE042178A002F0B5F9744C00204FF4BE
:10240000FA616070764A092002F0F4F90120E07167
:10241000002010BDFFF702FE002808BF10BD6C4C65
:10242000206800F01FF901466A482268FEF766FB43
:102430006CA16848FDF752FF002800F0C280634994
:102440000220C871002010BD604C00204FF4FA61DA
:102450006070634A092002F0CDF90320E07100208A
:1024600010BDFFF7DBFD0028ECD058490420C871EF
:10247000E8E7FFF7DFFD0A215BA002F073F9534C98
:10248000002064216070564A092002F0B3F905204B
:10249000E071D7E7FFF7C2FD002808BF10BD4C4C24
:1024A000206800F0DFF801464A482268FEF726FB64
:1024B00050A14848FDF712FF00287DD0434906206F
:1024C000C871BFE7FFF7B6FD0B214EA002F04AF935
:1024D0003E4C002064216070414A092002F08AF9D4
:1024E00007203EE0FFF79AFD002808BF10BD384CDA
:1024F000206800F0B7F8014636482268FEF7FEFA79
:1025000043A13448FDF7EAFE00285AD04249D0F8EA
:102510000720C1F84822D0F80B20C1F84C22D0F88F
:102520000F20C1F85022B0F81320A1F85422407DAA
:1025300081F8560201F510710020C8752349082062
:10254000C8717FE7FFF776FD0A2134A002F00AF98F
:102550001E4C002064216070214A092002F04AF9D3
:102560000920E0716EE7FFF759FD002808BF10BD94
:10257000174C206800F076F8014616482268FEF7EE
:10258000BDFA29A11348FDF7A9FEA8B12249826826
:10259000C1F85822C268C1F85C220269C1F8602201
:1025A0004269C1F864228069C1F8680201F51071BE
:1025B000002081F82C0000E003E00449C8710120EC
:1025C00010BD02490020C871022010BD300000205B
:1025D0002C000020300A002041540D0A00000000A9
:1025E000552000084F4B000041542B4350494E3FAB
:1025F0000D0A00002B4350494E3A205245414459A0
:102600000000000041542B4347534E3D310D0A005A
:102610002B4347534E3A2000300E002041542B49A3
:10262000434349440D0A00002B49434349443A209F
:102630000000000070B510202CF0E4FD04004FF005
:10264000000508BF2C4607D040F2DD5060602CF03A
:10265000D9FDE560A56020600148046070BD000000
:102660002C0000200146D1E90220801A44BF4968AD
:102670000844704710B5040018BFB4F5806F0DD042
:10268000B4F5A06F1CBFB4F5C06FB4F5E06F05D012
:1026900040F2C31205A113A005F078FB1849486861
:1026A00020F4E0602043486010BD00002E2E5C66E0
:1026B00069726D776172655C6E3332673435785F4D
:1026C0007374645F7065726970685F64726976655F
:1026D000725C7372635C6E3332673435785F726339
:1026E000632E630049535F5243435F48434C4B5F43
:1026F000444956285243435F48434C4B290000004D
:102700000010024070B504460E480D46044200D148
:102710002CB940F2FE320CA119A005F037FB214E76
:10272000002D04BFF069A04309D0012D05D040F26F
:10273000FF3205A11CA005F029FBF0692043F061E0
:1027400070BD0000003301412E2E5C6669726D770A
:102750006172655C6E3332673435785F7374645FC1
:102760007065726970685F6472697665725C7372B5
:10277000635C6E3332673435785F7263632E630057
:1027800049535F5243435F415042315F5045524984
:102790005048285243435F4150423150657269703E
:1027A000682900000010024049535F46554E4354CB
:1027B000494F4E414C5F535441544528436D642961
:1027C0000000000070B504460E480D46044200D1DA
:1027D0002CB940F2DF320CA119A005F0D7FA214E36
:1027E000002D04BFB069A04309D0012D05D04FF4DE
:1027F000787205A11CA005F0C9FAB0692043B06148
:1028000070BD00000286E0FF2E2E5C6669726D7757
:102810006172655C6E3332673435785F7374645F00
:102820007065726970685F6472697665725C7372F4
:10283000635C6E3332673435785F7263632E630096
:1028400049535F5243435F415042325F50455249C2
:102850005048285243435F4150423250657269707C
:10286000682900000010024049535F46554E43540A
:10287000494F4E414C5F535441544528436D6429A0
:1028800000000000324B30B45968324A11405A6897
:1028900011F0006F02F480320CBF4FF0020C6FF4A5
:1028A000F77C0CEB9141002A04BF2B4A514306D020
:1028B0005A6812F4003F14BF274A284A51435A6805
:1028C000DFF898C012F00C0218BF042A03D0082ABF
:1028D00008BF016001D0C0F800C05A684FF00F0C6B
:1028E0001F4D0CEA1212D0F800C0AA5C2CFA02F2BA
:1028F0004260D3F804C0072404EA1C2C15F80CC06D
:1029000022FA0CFCC0F808C0D3F804C004EADC2C9E
:1029100015F80CC022FA0CFCC0F80CC0D3F82CC07F
:1029200005F110040CF00F0C14F80CC0B2FBFCF213
:102930004261DA6A1F2303EA121202F00F0204F165
:10294000100333F81220B1FBF2F1016130BC704783
:102950000010024000003C0800093D0000127A000F
:1029600002A7030838B50DF0BFF94FF40060ADF8C9
:10297000000010208DF803000120064C8DF80200A5
:1029800069462046FEF728FCE1142046FEF736FD96
:1029900038BD00000008014001F0A0BE044901203C
:1029A0000870AFF207024FF47A71042001F022BFE1
:1029B0001C000020F8B54FF40040ADF800001025D1
:1029C0000E4E8DF8035003248DF8024069463046C0
:1029D000FEF702FCE9023046FEF77AFDA902ADF8E7
:1029E00000108DF803508DF8024069463046FEF71E
:1029F000F3FBA9023046FEF76BFDF8BD000C014069
:102A000070B51D4C0025A07A10B1012813D010E03C
:102A10002079401C2071FFF70DFB1F2117A001F04A
:102A2000A1FE642165701D4A092001F0E3FE01202A
:102A3000A072002070BDFFF7F1FA002808BF70BD3A
:102A4000174E3068FFF70EFE014616483268FEF753
:102A500055F815A11348FDF741FC00281EBFA572CB
:102A6000012070BD20790A2898BFA572E1D925718F
:102A7000A572022070BD00003000002041542B518F
:102A800049435347503D312C312C22434D4E455440
:102A9000222C22222C22222C310D0A005520000843
:102AA0002C000020300A00204F4B0000042808D0E2
:102AB00010F1050F08BF7047CF2205A111A005F046
:102AC00065B94FF0E020016941F0040101617047F0
:102AD0002E2E5C6669726D776172655C6E3332674B
:102AE0003435785F7374645F7065726970685F64B1
:102AF00072697665725C7372635C6D6973632E6371
:102B00000000000049535F5359535449434B5F43FE
:102B10004C4B5F534F555243452853797354696367
:102B20006B5F434C4B536F75726365290000000067
:102B300070470000384882B0016841F470010160BC
:102B40003648016841F0010101604168344A114092
:102B50004160016821F4102121F080710160016859
:102B600021F480210160416821F47F0121F000619E
:102B700041600022C26202634FF41F018160C1699B
:102B800041F08051C1612749CB6843F00103CB601C
:102B9000C16921F08051C16123490B6843F0900362
:102BA0000B608DF8002001920A6822F007020A608B
:102BB0000A6842F003020A6041684160416841F4DA
:102BC00000514160416841F4A0614160416821F4D5
:102BD0007C1121F000614160416841F00261009187
:102BE0004160016841F080710160016811F0007F6F
:102BF000FBD0416821F003014160416841F00201CE
:102C00004160416801F00C010829FAD10806074922
:102C1000086002B07047000088ED00E0001002403C
:102C200000C0FFF8007000400020024008ED00E006
:102C30002DE9F047DFF894900D4607461C461646EE
:102C40004FF02A084FF480714846FEF7D7FB404604
:102C500000F064FB4FF480714846FEF739FC380AF7
:102C600000F05CFBF8B200F059FB300A00F056FBB4
:102C7000F0B200F053FB2B264FF480714846FEF76C
:102C8000BDFB304600F04AFB4FF480714846FEF72A
:102C90001FFC280A00F042FBE8B200F03FFB200ACC
:102CA00000F03CFBE0B200F039FB2C244FF48071C3
:102CB0004846FEF7A3FB204600F030FB4846BDE83F
:102CC000F0474FF48071FEF703BC0000000C014098
:102CD0002DE9F04781469846581E83B21746501E8C
:102CE00082B20D464846089EFFF7A2FF454534BF15
:102CF0004FEA162ABDE8F0874C46B94509D250463E
:102D000000F00CFBF0B200F009FB601C84B2BC4286
:102D1000F5D3681C85B24545EED3BDE8F0872DE9B3
:102D2000FF4F83B08B4603980025101A401C1FFAF2
:102D300080F8A3EB0B00401CDDF840A01FFA80F9DF
:102D40002F46B9F1000F04BF07B0BDE8F08F0BEBC1
:102D500009000190039840440090019883B20098C4
:102D600082B20BEB070081B20398FFF761FF0024EA
:102D7000B8F1000F0DD90AEB45000688300A00F0C3
:102D8000CDFAF0B200F0CAFA601C84B26D1CA04506
:102D9000F1D8781C87B24F45DFD307B0BDE8F08F7C
:102DA000F8B54FF47C70ADF8000010208DF80300EA
:102DB0000320F24E8DF8020069463046FEF70CFA09
:102DC00001210920FFF7FEFC0121ED48FDF7B4FECB
:102DD00071153046FEF712FB6423002246F2A8115B
:102DE000491EFDD1521C9A42F8D34FF4007130466F
:102DF000FEF76EFB6423002246F2A811491EFDD1A6
:102E0000521C9A42F8D310213046FEF7F7FA642399
:102E1000002246F2A811491EFDD1521C9A42F8D355
:102E2000002436254FF480713046FEF7E7FA284635
:102E300000F074FA4FF480713046FEF749FB6020D1
:102E400000F06CFA3A254FF480713046FEF7D6FA5E
:102E5000284600F063FA4FF480713046FEF738FBE5
:102E6000052000F05BFAB2254FF480713046FEF782
:102E7000C5FA284600F052FA4FF480713046FEF74A
:102E800027FB0C2000F04AFA0C2000F047FA002043
:102E900000F044FA332000F041FA332000F03EFA0B
:102EA000B7254FF480713046FEF7A8FA284600F0A7
:102EB00035FA4FF480713046FEF70AFB352000F0FA
:102EC0002DFABB254FF480713046FEF797FA28465D
:102ED00000F024FA4FF480713046FEF7F9FA192019
:102EE00000F01CFAC0254FF480713046FEF786FAD8
:102EF000284600F013FA4FF480713046FEF7E8FAE6
:102F00002C2000F00BFAC2254FF480713046FEF7FA
:102F100075FA284600F002FA4FF480713046FEF749
:102F2000D7FA012000F0FAF9C3254FF4807130463A
:102F3000FEF764FA284600F0F1F94FF4807130464C
:102F4000FEF7C6FA122000F0E9F9C4254FF48071AB
:102F50003046FEF753FA284600F0E0F94FF480714E
:102F60003046FEF7B5FA202000F0D8F9C6254FF418
:102F700080713046FEF742FA284600F0CFF94FF450
:102F800080713046FEF7A4FA0F2000F0C7F9D02573
:102F90004FF480713046FEF731FA284600F0BEF952
:102FA0004FF480713046FEF793FAA42000F0B6F992
:102FB000A12000F0B3F9E0254FF480713046FEF710
:102FC0001DFA284600F0AAF94FF480713046FEF74A
:102FD0007FFAD02000F0A2F9042000F09FF90D2024
:102FE00000F09CF9112000F099F9132000F096F9F7
:102FF0002B2000F093F93F2000F090F9542000F0CE
:103000008DF94C2000F08AF9182000F087F90D2086
:1030100000F084F90B2000F081F91F2000F07EF908
:10302000232000F07BF9E1254FF480713046FEF754
:10303000E5F9284600F072F94FF480713046FEF74A
:1030400047FAD02000F06AF9042000F067F90C205C
:1030500000F064F9112000F061F9132000F05EF92E
:103060002C2000F05BF93F2000F058F9442000F0DC
:1030700055F9512000F052F92F2000F04FF91F2090
:1030800000F04CF91F2000F049F9202000F046F92B
:10309000232000F043F921254FF480713046FEF7DC
:1030A000ADF9284600F03AF94FF480713046FEF74A
:1030B0000FFA11254FF480713046FEF79FF928462C
:1030C00000F02CF94FF480713046FEF701FA292503
:1030D0004FF480713046FEF791F9284600F01EF952
:1030E0004FF480713046FEF7F3F92A254FF48071D2
:1030F0003046FEF783F9284600F010F94FF480714E
:103100003046FEF7E5F9002000F008F9002000F055
:1031100005F9002000F002F9EF2000F0FFF82B2560
:103120004FF480713046FEF769F9284600F0F6F852
:103130004FF480713046FEF7CBF9002000F0EEF836
:10314000002000F0EBF8002000F0E8F8C52000F0C7
:10315000E5F82C254FF480713046FEF74FF92846EC
:1031600000F0DCF84FF480713046FEF7B1F9601CD6
:10317000C4B2022CFFF455AEF8BD0000000C0140B3
:10318000000230002DE9FF4F89B00546DDF85CA054
:1031900000264FEA5A0901909B4619F0070018BF14
:1031A000012000EBD90000FB0AF00290A2F1200000
:1031B000C4B20A980A995044401E83B205EB090034
:1031C000401E82B22846FFF733FD02984FF00008F8
:1031D00000289CBF0DB0BDE8F08F3A4904EB4400D5
:1031E00001EB80010791384901EB04110691374941
:1031F00001EB001005901698000A04904FEA1B207E
:103200000090BAF10C0F04BF079810F808700DD0A9
:10321000BAF1100F08BF069806D0BAF1180F0EBF0A
:1032200005980DB0BDE8F08F10F8087000241898CC
:1032300000284FF0010000FA04F000EA070019D05E
:1032400060B10A992A460B461046FFF7F1FC009838
:1032500000F064F80BF0FF0000F060F8681C85B225
:103260000198281A48451FD10A98019D401C80B238
:103270000A901DE028B1009800F050F80BF0FF0014
:1032800006E016980390049800F048F80398C0B23E
:1032900000F044F8701CC6B2B6FBF9F009FB1060F0
:1032A000002808BF002603D0601CC4B2082CBED37F
:1032B00008F101001FFA80F802988045A1D30DB0F3
:1032C000BDE8F08F52A70308C6AB0308B6B10308E8
:1032D0002DE9F04784B00646DDE90D571078DDF89A
:1032E0003080994614468A46002804BF04B0BDE8E1
:1032F000F087CDF80080CDE9015722784B46514642
:103300003046FFF73FFF06EB550086B214F8010F79
:103310000028EED104B0BDE8F087000070B5134E70
:10332000054620213046FEF769F80024402130464A
:10333000FEF764F815F0800F4FF08001304602D0A0
:10334000FEF7C6F801E0FEF759F840213046FEF7D7
:10335000BFF86806050E601CC4B2082CE6D33046E0
:10336000BDE870402021FEF7B3B80000000C01401A
:1033700010B5094C0121204600F03AFA002808BF98
:1033800010BD0121204600F009F801F03DFABDE82A
:10339000104001202BF038B80010004070B50446F2
:1033A000A0F180400D46B0F5963018BFB4F1804FC3
:1033B00023D0A4F18040B0F580601CBFA4F1804010
:1033C000B0F5006019D0A4F18040B0F540601CBF9A
:1033D000A4F18040B0F580500FD0A4F18040B0F54A
:1033E000A0501CBFA4F18040B0F59A3005D040F643
:1033F000224209A116A004F0C9FC15F47F4F00D1A8
:103400002DB940F6234204A117A004F0BFFC2069A7
:10341000A843206170BD00002E2E5C6669726D7736
:103420006172655C6E3332673435785F7374645FE4
:103430007065726970685F6472697665725C7372D8
:10344000635C6E3332673435785F74696D2E630068
:10345000497354696D416C6C4D6F64756C6528548B
:10346000494D782900000000497354696D496E7414
:103470002854494D5F4954290000000070B50446A6
:10348000A0F1804016460D46B0F5963018BFB4F155
:10349000804F23D0A4F18040B0F580601CBFA4F120
:1034A0008040B0F5006019D0A4F18040B0F54060D4
:1034B0001CBFA4F18040B0F580500FD0A4F1804033
:1034C000B0F5A0501CBFA4F18040B0F59A3005D0F3
:1034D0004FF47B720FA11DA004F058FC15F47F4F30
:1034E00000D12DB940F2ED320AA11EA004F04EFC2D
:1034F000002E04BFA089A84309D0012E05D040F2B8
:10350000EE3204A11CA004F041FCA0892843A08154
:1035100070BD00002E2E5C6669726D776172655C0D
:103520006E3332673435785F7374645F70657269C7
:1035300070685F6472697665725C7372635C6E3327
:1035400032673435785F74696D2E6300497354694E
:103550006D416C6C4D6F64756C652854494D7829CC
:1035600000000000497354696D496E742854494D38
:103570005F4954290000000049535F46554E4354AB
:10358000494F4E414C5F535441544528436D642983
:103590000000000070B50446A0F1804015460E46BC
:1035A000B0F5963018BFB4F1804F23D0A4F180401D
:1035B000B0F580601CBFA4F18040B0F5006019D068
:1035C000A4F18040B0F540601CBFA4F18040B0F58C
:1035D00080500FD0A4F18040B0F5A0501CBFA4F1E2
:1035E0008040B0F59A3005D040F2195208A116A0DB
:1035F00004F0CCFB002D18BF012D05D040F21A526B
:1036000003A117A004F0C2FB2685A58270BD0000AF
:103610002E2E5C6669726D776172655C6E333267FF
:103620003435785F7374645F7065726970685F6465
:1036300072697665725C7372635C6E3332673435BF
:10364000785F74696D2E6300497354696D416C6CC9
:103650004D6F64756C652854494D78290000000051
:10366000497354696D50736352656C6F61644D6F3B
:1036700064652854494D5F50534352656C6F6164D3
:103680004D6F646529000000F8B51A4E41F63F7091
:10369000F0804FF4A060FEF7EDFF01211020FFF74E
:1036A00031F836208DF8000003258DF801500024F4
:1036B0008DF8024001208DF803006846FEF706FDF4
:1036C0000D48042185800180C48044800B4C014654
:1036D000204600F00FF90122F1882046FFF75AFF3B
:1036E000012211462046FFF7C9FE0121204600F0C5
:1036F00007F8F8BD12000020000100200010004073
:1037000070B50446A0F180400D46B0F5963018BF64
:10371000B4F1804F23D0A4F18040B0F580601CBF8D
:10372000A4F18040B0F5006019D0A4F18040B0F55C
:1037300040601CBFA4F18040B0F580500FD0A4F1D0
:103740008040B0F5A0501CBFA4F18040B0F59A3085
:1037500005D040F2AF320BA118A004F017FB002DEA
:1037600004BF206820F001000AD0012D05D04FF4DD
:103770006C7204A117A004F009FB206840F001005E
:10378000206070BD2E2E5C6669726D776172655C1B
:103790006E3332673435785F7374645F7065726955
:1037A00070685F6472697665725C7372635C6E33B5
:1037B00032673435785F74696D2E630049735469DC
:1037C0006D416C6C4D6F64756C652854494D78295A
:1037D0000000000049535F46554E4354494F4E4147
:1037E0004C5F535441544528436D64290000000048
:1037F00070B505460026A0F180400C46B0F5963025
:1038000018BFB5F1804F23D0A5F18040B0F580609E
:103810001CBFA5F18040B0F5006019D0A5F1804033
:10382000B0F540601CBFA5F18040B0F580500FD0CE
:10383000A5F18040B0F5A0501CBFA5F18040B0F5C7
:103840009A3005D040F6FC3211A11FA004F09EFA78
:10385000012C18BF022C11D0042C18BF082C0DD03D
:10386000102C18BF202C09D0402C18BF802C05D05C
:1038700040F6FD3206A11AA004F088FA2869A98949
:10388000204201EA04011CBF00290126304670BD18
:103890002E2E5C6669726D776172655C6E3332677D
:1038A0003435785F7374645F7065726970685F64E3
:1038B00072697665725C7372635C6E33326734353D
:1038C000785F74696D2E6300497354696D416C6C47
:1038D0004D6F64756C652854494D782900000000CF
:1038E000497354696D476574496E742854494D5F36
:1038F000495429002DE9F05FDFF888A1DFF888B18D
:10390000DFF88881DFF88891624F634E0D460446E8
:10391000504518BFB4F1804F13D0BC4218BFB44219
:103920000FD04C4518BF5C450BD0A4F18040B0F5DA
:10393000A05018BF444504D0BD2258A165A004F092
:1039400025FA6888002818BF102809D020281CBF35
:103950004028602804D0BE2250A164A004F016FACA
:10396000E88800281CBFB0F5807FB0F5007F04D048
:10397000BF224AA169A004F009FA2068544518BF83
:10398000444508D0B4F1804F18BFBC4203D0B442C4
:1039900018BF4C4503D1698820F0700008435C458E
:1039A0001CBFA4F18041B1F5A05103D0E98820F4F7
:1039B000407008432060A888A08528882085544549
:1039C00012BF4445287A20860120A08220685445F1
:1039D00018BF444508D0B4F1804F18BFBC4203D093
:1039E000B44218BF4C4509D1697A002914BF40F48C
:1039F000006020F40060B4F1804F04D0BC421CBFD2
:103A0000B4424C4510D1A97A002914BF40F480502B
:103A100020F48050E97A002914BF40F4005020F4CB
:103A20000050B4F1804F03D0BC4218BFB44206D15D
:103A3000297B002914BF40F4804020F48040544585
:103A400018BF444505D0B4F1804F1CBFBC42B442FE
:103A500006D1697B002914BF40F4004020F40040E7
:103A600020606068B4F1804F18BFB44206D1A97BD2
:103A7000002914BF40F4807020F480706060BDE8BD
:103A8000F09F0000002C0140001000400034014075
:103A9000000C004000040040000800402E2E5C6630
:103AA00069726D776172655C6E3332673435785F49
:103AB0007374645F7065726970685F64726976655B
:103AC000725C7372635C6E3332673435785F74692D
:103AD0006D2E6300497354696D416C6C4D6F647554
:103AE0006C652854494D78290000000049735469D9
:103AF0006D436E744D6F64652854494D5F54696D14
:103B00006542617365496E69745374727563742D8F
:103B10003E436E744D6F646529000000497354691B
:103B20006D436C6B4469762854494D5F54696D65EB
:103B300042617365496E69745374727563742D3E86
:103B4000436C6B446976290010B5054800F0ACFC65
:103B5000C1B204480068BDE81040FDF737BD000061
:103B6000004C00402C00002070B5114D40F2255152
:103B7000284600F04BFA10B10E4C207820B12846B0
:103B8000BDE8704000F090BC284600F08DFC6188D4
:103B9000094A88546088401C6080032000F020FEA1
:103BA000BDE870403221054A032000F023BE00002A
:103BB00000440040B2050020B6050020A1470008DF
:103BC00070B5114D40F22551284600F01FFA10B192
:103BD0000E4C207820B12846BDE8704000F064BC4F
:103BE000284600F061FC6188094A88546088401CBE
:103BF0006080052000F0F4FDBDE870403221054AE8
:103C0000052000F0F7BD00000048004060010020E2
:103C100064010020B14700082DE9F047DFF8FC807F
:103C2000DFF8FC90DFF8FCA016460D460446404540
:103C300018BF4C451AD054451CBFA4F18040B0F5C4
:103C4000984013D0A4F18040B0F5A0401FBFA4F16C
:103C50008040B0F5A830A4F18040B0F5AA3005D07E
:103C600040F27F1230A13FA004F090F840F66A17AE
:103C7000282D1CBFA5F5E060B0F127001BD0A5F5ED
:103C8000C06026381CBFA5F5A060B0F1250012D099
:103C9000A5F5806024381CBFA5F50060B0F1460092
:103CA00009D0BD4218BF602D05D04FF4C0721EA1CF
:103CB00033A004F06BF8002E18BF012E05D040F29F
:103CC000811219A135A004F061F8BD420AD1444522
:103CD0001CBF4C45544505D040F2851212A136A0B8
:103CE00004F054F805F01F010122C5F3421002FA56
:103CF00001F1012808BF04F10C0005D002280CBF17
:103D000004F1100004F11400002E026814BF1143E6
:103D100022EA01010160BDE8F0870000003801409F
:103D200000440040004800402E2E5C6669726D77AA
:103D30006172655C6E3332673435785F7374645FCB
:103D40007065726970685F6472697665725C7372BF
:103D5000635C6E3332673435785F75736172742ECD
:103D60006300000049535F55534152545F414C4C2E
:103D70005F504552495048285553415254782900C4
:103D800049535F55534152545F4346475F494E5430
:103D90002855534152545F494E54290049535F46B8
:103DA000554E4354494F4E414C5F5354415445285E
:103DB000436D64290000000049535F55534152543C
:103DC0005F3132335F504552495048285553415274
:103DD0005478290070B50446A0F180400D46B0F536
:103DE0009C301CBFA4F18040B0F588401DD0A4F1E8
:103DF0008040B0F590401CBFA4F18040B0F59840E1
:103E000013D0A4F18040B0F5A0401FBFA4F18040C2
:103E1000B0F5A830A4F18040B0F5AA3005D040F24A
:103E200059120BA119A003F0B1FF002D04BFA08906
:103E300020F400500AD0012D05D04FF4AD7204A13A
:103E400019A003F0A3FFA08940F40050A08170BD29
:103E50002E2E5C6669726D776172655C6E333267B7
:103E60003435785F7374645F7065726970685F641D
:103E700072697665725C7372635C6E333267343577
:103E8000785F75736172742E6300000049535F554B
:103E9000534152545F414C4C5F5045524950482861
:103EA000555341525478290049535F46554E435467
:103EB000494F4E414C5F535441544528436D64294A
:103EC000000000002DE9F047294F0026DFF8A4800C
:103ED000DFF8A4900C460546B84218BF45451AD0F5
:103EE0004D451CBFA5F18040B0F5984013D0A5F119
:103EF0008040B0F5A0401FBFA5F18040B0F5A830CC
:103F0000A5F18040B0F5AA3005D040F219321BA1CE
:103F100029A003F03BFF012C18BF802C20D0402C9F
:103F200018BF202C1CD0102C18BFB4F5807F17D0E0
:103F3000B4F5007F09D0082C1CBF042C022C0FD034
:103F400040F21A320DA123A008E0BD421CBF454536
:103F50004D4505D040F21E3208A125A003F016FF02
:103F60002888204218BF01263046BDE8F0870000AF
:103F70000038014000440040004800402E2E5C669E
:103F800069726D776172655C6E3332673435785F64
:103F90007374645F7065726970685F647269766576
:103FA000725C7372635C6E3332673435785F75733D
:103FB0006172742E6300000049535F55534152549F
:103FC0005F414C4C5F50455249504828555341522F
:103FD0005478290049535F55534152545F464C4130
:103FE000472855534152545F464C41472900000031
:103FF00049535F55534152545F3132335F504552FC
:104000004950482855534152547829002DE9F0472A
:10401000DFF8F4800026DFF8F490DFF8F4A00C4617
:104020000546404518BF4D451AD055451CBFA5F162
:104030008040B0F5984013D0A5F18040B0F5A04085
:104040001FBFA5F18040B0F5A830A5F18040B0F5C4
:10405000AA3005D040F26B322EA13DA003F096FEAF
:10406000282C34D0A4F5E06040F66A1727381CBF2E
:10407000A4F5C060B0F126001CD0A4F5A0602538DE
:104080001CBFA4F58060B0F1240013D0A4F500603B
:10409000463818BFBC420DD0B4F5587F1CBFB4F5EC
:1040A000187FB4F5B07F12D04FF45B7219A12FA026
:1040B00003F06CFEBC420AD145451CBF4D45554539
:1040C00005D04FF45C7213A12FA003F05FFE04F043
:1040D0001F000122C4F3421102FA00F0012904BFBB
:1040E000A989084004D002290CBF298AA98A08405E
:1040F000210A02FA01F12A88114000281CBF002978
:1041000001263046BDE8F0870038014000440040F9
:10411000004800402E2E5C6669726D776172655CA6
:104120006E3332673435785F7374645F70657269BB
:1041300070685F6472697665725C7372635C6E331B
:1041400032673435785F75736172742E63000000D6
:1041500049535F55534152545F414C4C5F50455257
:1041600049504828555341525478290049535F55C6
:10417000534152545F4745545F494E54285553416B
:1041800052545F494E54290049535F55534152548C
:104190005F3132335F5045524950482855534152A0
:1041A000547829002DE9F047604EDFF88491DFF85C
:1041B00084A1614FDFF8848186B00D460446B04289
:1041C00018BF4C4513D054451CBFA4F18040B0F536
:1041D00098400CD0A4F18040B0F5A0401CBFBC4278
:1041E000444504D0C42256A164A003F0CFFD286842
:1041F0006949401E884204D3C52251A167A003F03B
:10420000C5FDA888002818BFB0F5805F04D0C6227D
:104210004BA16EA003F0BAFDE888002818BFB0F5E6
:10422000805F0AD0B0F5005F18BFB0F5405F04D0E2
:10423000C72243A172A003F0A9FD288900281CBF52
:10424000B0F5806FB0F5C06F04D0C8223CA178A053
:1042500003F09CFD688930F00C0100D120B9C9221F
:1042600037A17EA003F092FDA889002818D0B0F5F0
:10427000807F1CBFB0F5007FB0F5407F06D0CA221A
:104280002FA1804803F082FDA88948B1B4421CBF29
:104290004C45544504D0CE2229A17BA003F076FDE5
:1042A000208A4CF6FF710840E98808432082A089E3
:1042B0004EF6F3110840A9882A8911436A891043F0
:1042C0000843A081A08A4FF6FF410840A98908430E
:1042D000A0826846FEF7D6FAB44218BFBC4203D0AB
:1042E000444518BF029800D103986E4A00EBC00104
:1042F00001EB001029686FF0180C8900B0FBF1F099
:10430000A2FB0031490909010B0903FB0CF300EB87
:104310008300322303EB0010A2FB0020C0F3431004
:104320000843208106B0BDE8F08700000038014056
:10433000004400400048004000500140005401404B
:104340002E2E5C6669726D776172655C6E333267C2
:104350003435785F7374645F7065726970685F6428
:1043600072697665725C7372635C6E333267343582
:10437000785F75736172742E6300000049535F5556
:10438000534152545F414C4C5F504552495048286C
:10439000555341525478290020AA440049535F558F
:1043A000534152545F42415544524154452855535C
:1043B0004152545F496E69745374727563742D3E33
:1043C00042617564526174652900000049535F556C
:1043D000534152545F574F52445F4C454E475448E7
:1043E0002855534152545F496E6974537472756312
:1043F000742D3E576F72644C656E677468290000B7
:1044000049535F55534152545F53544F504249549E
:10441000532855534152545F496E697453747275F1
:1044200063742D3E53746F704269747329000000E9
:1044300049535F55534152545F5041524954592892
:1044400055534152545F496E697453747275637465
:104450002D3E5061726974792900000049535F55FF
:10446000534152545F4D4F44452855534152545F78
:10447000496E69745374727563742D3E4D6F646533
:1044800029000000F809040849535F55534152546C
:104490005F3132335F50455249504828555341529D
:1044A000547829001F85EB5110B50446A0F18040D7
:1044B000B0F59C301CBFA4F18040B0F588401DD001
:1044C000A4F18040B0F590401CBFA4F18040B0F54D
:1044D000984013D0A4F18040B0F5A0401FBFA4F1D4
:1044E0008040B0F5A830A4F18040B0F5AA3005D0E6
:1044F00040F2512203A112A003F048FCA088C0F3AF
:10450000080010BD2E2E5C6669726D776172655C65
:104510006E3332673435785F7374645F70657269C7
:1045200070685F6472697665725C7372635C6E3327
:1045300032673435785F75736172742E63000000E2
:1045400049535F55534152545F414C4C5F50455263
:1045500049504828555341525478290070B50446B3
:10456000A0F180400D46B0F59C301CBFA4F1804006
:10457000B0F588401DD0A4F18040B0F590401CBF3C
:10458000A4F18040B0F5984013D0A4F18040B0F57C
:10459000A0401FBFA4F18040B0F5A830A4F1804036
:1045A000B0F5AA3005D04FF4107208A116A003F0A0
:1045B000EDFBB5F5007F05D340F2412203A119A020
:1045C00003F0E4FBC5F30800A08070BD2E2E5C66EE
:1045D00069726D776172655C6E3332673435785F0E
:1045E0007374645F7065726970685F647269766520
:1045F000725C7372635C6E3332673435785F7573E7
:104600006172742E6300000049535F555341525448
:104610005F414C4C5F5045524950482855534152D8
:104620005478290049535F55534152545F444154D3
:1046300041284461746129002DE9F0410E000546CE
:104640004FF0000414BF094FBDE8F081295D3846E2
:10465000FFF784FF80213846FFF734FC0028F9D0AB
:10466000601C84B2B442F1D3BDE8F0810044004044
:1046700010B5184C002058212278012A18BF10BD0F
:10468000B4F802C0BCF1170F08BFACF1010211D1A0
:104690002318401C1B79C0B2194489B28242F7DC4E
:1046A000C8430D49C0B21CF80110814204BF201D4F
:1046B000FCF7B2F8002062880146002A06D92218C9
:1046C000401C11716288C0B28242F8D861802170AA
:1046D00010BD0000B2050020B50500202DE9F0470F
:1046E0001D4E3078012818BFBDE8F0874FF40061F7
:1046F000DFF868904846FCF7EBFE7588371D00240C
:10470000002D88BFDFF858800DD9395D4046FFF78E
:1047100025FF80214046FFF7D5FB0028F9D0601C1B
:1047200084B2AC42F1D3642005F093FA4FF40061F7
:104730004846FCF763FE002072880146002A06D92D
:104740003218401C11717288C0B28242F8D8718050
:104750003170BDE8F08700006001002000080140D2
:10476000004800402DE9F0410E0005464FF00004DE
:1047700014BF094FBDE8F081295D3846FFF7EEFE12
:1047800080213846FFF79EFB0028F9D0601C84B2D8
:10479000B442F1D3BDE8F081004C0040FEE70000D8
:1047A000024901200870032000F01AB8B205002069
:1047B000024901200870052000F012B860010020B5
:1047C00000200649024601EBC00341F83020401C9E
:1047D000C0B25A600A28F6D3FEF756BF1001002077
:1047E000034A002142F8301002EBC00041607047DC
:1047F00010010020034B43F8301003EBC00042606F
:10480000704700001001002070B50A4D002455F8D3
:10481000340048B1411E05EBC40045F8341040682F
:1048200010B1002908BF8047601CC4B20A2CEED327
:1048300070BD0000100100200FB4054B10B503A996
:10484000044A029800F064F910BC5DF814FB000003
:1048500001D10008F00000200FB4084B10B504A9E6
:1048600002AA039800F054F9044602A9002000F0BF
:104870002BFA204610BC5DF814FB0000C94C000860
:104880000A6802600B7903717047000000487047A6
:10489000FC00002002E008C8121F08C1002AFAD15B
:1048A00070477047002001E001C1121F002AFBD1B0
:1048B0007047000070B514460D46FBB103FB05F1CF
:1048C000142C04BF580800FB051115D0E01F032865
:1048D00012D8072C08BF02200CD0082C08BF0420D7
:1048E00008D0092C08BF102004D00A2C0CBF4FF4AC
:1048F0008070002001EB8001084670BD1146044A1B
:10490000D2F8E420002A0CBF002090470346D5E7E8
:10491000542E00202DE9F04F83B04FF0300ADDE92E
:104920000C64DDE91058DDE90EBC129F17F0020F90
:104930001ED1B8F1000F18BF17F0010F06D007F015
:104940000C0959EA0B0918BFA8F10108AC423EBF97
:10495000202C06F804A0641CF8D317F0010F18BF30
:10496000A04505D9202C3CBF06F804A0641CF4D354
:1049700017F0100F36D017F4806F0CD15CB1AC4239
:1049800018BF444507D1641E05D0BCF1100F08BF05
:10499000641E07D002E0BCF1100F03D0BCF1020F7F
:1049A00013D019E017F0200F07D0202C36D24FF08B
:1049B000580C06F804C0641C0EE0202C2ED24FF0D8
:1049C000780C06F804C0641C06E0202C26D24FF0B8
:1049D000620C06F804C0641C202C3CBF06F804A03E
:1049E000641C1BD2202C19D2BBF1000F05D04FF054
:1049F0002D0C06F804C0641C10E017F0040F05D05D
:104A00004FF02B0C06F804C0641C07E017F0080FE9
:104A100004D04FF0200C06F804C0641CCDE900312E
:104A200015468146AA4617F0030F0CD1A34644450C
:104A300009D22A46DDE900316D1C2020C8470BF160
:104A4000010BC345F5D344B12A466D1C641EDDE954
:104A50000031305DC847002CF6D117F0020F1CBFA3
:104A6000A5EB0A00804509D92A46DDE900316D1C15
:104A70002020C847A5EB0A008045F5D803B028469A
:104A8000BDE8F08F2DE9F04F91B00024DDE91ACA9E
:104A9000DDE91E85DDE91C69BCF1000F08BF25F0CA
:104AA000100515F4806F0DF1200B02D0BCF1000F42
:104AB0001BD0BCFBF6F706FB17C7FFB20A2F38BFA7
:104AC000303708D315F0200F14BF4FF0410E4FF0D0
:104AD000610E77440A3FBCFBF6FC0BF80470641CC3
:104AE000BCF1000F18BF202CE3D3CDF800B0CDE906
:104AF000014ACDE90585CDE90369FFF70BFF11B048
:104B0000BDE8F08F9A4238BF885470477047000064
:104B10002DE9FF4F8BB09A460F460546002606E06A
:104B200025280BD052460D9990476D1C761C28788D
:104B30000028F5D10FB03046BDE8F08F0024A04624
:104B40000122604900E0044315F8013F203B02FACE
:104B500003F00842F7D128782E2817D115F8010F55
:104B600044F004042A280ED06FF02F022878A0F118
:104B7000300109290AD808EB880102EB410100EB5A
:104B800001086D1CF2E757F8048B6D1C2878692822
:104B90003ED006DC0028CDD063280BD0642804D199
:104BA00036E0732810D075284BD052460D999047A7
:104BB000761C85E017F8040B8DF8000000208DF8B6
:104BC0000100E946012003E057F8049B4FF0FF3055
:104BD00061074FF0000401D40AE0641C44450DDA7B
:104BE0008442FADB19F804100029F6D106E0641CAF
:104BF0008442FCDB19F804100029F8D1264404E0B3
:104C000019F8010B52460D999047641EF8D257E0EF
:104C100001CF4FF00A0B002802DA40422D2102E0BA
:104C2000210504D52B218DF82410012103E0E10793
:104C300005D02021F7E70DF1200908910CE00021B3
:104C4000F9E701CF4FF00A0BF9E75946FBF71FFCD4
:104C500001F1300209F8012D0028F6D1ADEB090071
:104C600000F1200B600701D44FF00108D84502DDA8
:104C7000A8EB0B0000E000208046002406E009A815
:104C80005246005D0D999047641C761C089884423A
:104C9000F5DB04E0302052460D999047761CB8F1C0
:104CA0000001A8F10108F5DC05E019F8010B5246F6
:104CB0000D999047761CBBF10001ABF1010BF4DCC0
:104CC0006D1C34E7092801000A68531C0B60107042
:104CD00070472DE9F04182B00E46054604002BD006
:104CE0005EB304F1240025F034FA009018B3D0F834
:104CF0001080616840460EF096FE074631464046F9
:104D000062681FF017FC04F130001FF0C0FA019038
:104D1000A0B1042269461FF00DFC0098042201692D
:104D2000E06A084401A9001F1FF004FC2146384630
:104D300062680EF084FE08E0FEE7FEE704F124005E
:104D4000009925F0CEF9002000900098002804BFBB
:104D500002B0BDE8F081696800690EF064FE0746A4
:104D6000E16B30468847E9680844E86002B038469D
:104D7000BDE8F0812DE9F14F88B00898D0E9017BBA
:104D800090F821A00568C06803900898D0E9064013
:104D900002900898D0E9046004900898406AC1170E
:104DA00000EB517121F00701A0EB0109089890F880
:104DB0002200002846D000200090BBF1000FDCBF8D
:104DC00009B0BDE8F08F002080460190002F29DD5A
:104DD00014F818100598002E61F3174061F30F20A6
:104DE00061F3070004EB4801497800F0B28116F83E
:104DF000082011FB02F101FB0AF1090C61F31F60AD
:104E000005900898059A90F82230019800EB090166
:104E1000284603F087F8019808F10108401C01902A
:104E2000B845D5DB002E1CBF049806440398054402
:104E3000029804440098401C00905845C3DB09B018
:104E4000BDE8F08F002E4BD04FF00001BAF1FD0FFE
:104E50000091C0F01C81BBF1000FDCBF09B0BDE8C0
:104E6000F08F4FF0000AD046002F40F301810AEB8B
:104E70000901C81701EB507005EBE00320F00700B3
:104E8000081A1A78C0F10700059022FA00F000F025
:104E90000100C0EB002000F0FF0C8DF804C004EB13
:104EA000480014F81820407816F808E010FB0EF0BF
:104EB000000A0DD0FD2828BF8DF8042008D2C0F1CB
:104EC000FF0E12FB00F01CFB0E00000A8DF8040020
:104ED0009DF804007F287DD9284630F0F5FDC0E01C
:104EE0004FF00001BAF1FD0F009155D3BBF1000F57
:104EF000DCBF09B0BDE8F08F4FF000084646002F38
:104F00003EDD08EB0901C81701EB507005EBE0032B
:104F100020F007001A78081AC0F1070C22FA0CF0EA
:104F200000F00100C0EB002000F0FF0A8DF804A0A3
:104F300004EB460014F81620407868B1FD2828BF1D
:104F40008DF8042008D2C0F1FF0E12FB00F01AFB0E
:104F50000E00000A8DF804009DF804007F2803D994
:104F6000284630F0B1FD06E01978012000FA0CF077
:104F700021EA00001870761C08F10108BE42C0DB6F
:104F800003980544029804440098401C009058453A
:104F9000B2DB09B0BDE8F08FBBF1000FDCBF09B098
:104FA000BDE8F08F4FF000084646002F45DD08EBC6
:104FB0000901C81701EB507005EBE00320F0070072
:104FC000081A1A78C0F10700049022FA00F000F0E5
:104FD000010000E03DE0C0EB002000F0FF0C8DF888
:104FE00004C004EB460014F81620407810FB0AF0C9
:104FF000000A0DD0FD2828BF8DF8042008D2C0F18A
:10500000FF0E12FB00F01CFB0E00000A8DF80400DE
:105010009DF804007F2803D9284630F055FD07E0AD
:1050200004981A78012101FA00F022EA00001870B1
:10503000761C08F10108BE42B9DB039805440298CA
:1050400004440098401C00905845ABDB09B0BDE813
:10505000F08F05981A78012101FA00F022EA000089
:10506000187008F101080AF1010AB845FFF6FFAE11
:105070000398054402980444049806440098401C90
:1050800000905845FFF6EDAE09B0BDE8F08FBBF1DA
:10509000000FDCBF09B0BDE8F08F00208046019012
:1050A000002F48DD00EB0901C81701EB507005EB3C
:1050B000E002069220F007001278081AC0F10703F8
:1050C00022FA03F000F00100C0EB002000F0FF0C1A
:1050D0008DF814C004EB480014F81820407816F836
:1050E00008E010FB0EF000FB0AF0000C0DD0FD28CC
:1050F00028BF8DF8142008D2C0F1FF0E12FB00F07B
:105100001CFB0E00000A8DF814009DF814007F2887
:1051100003D9284630F0D8FC06E0069801219940D2
:10512000027822EA01010170019808F10108401C8F
:105130000190B845B6DB03980544029804440498EE
:1051400006440098401C00905845A6DB09B0BDE815
:10515000F08F11FB0AF1090A61F31F60059050E618
:105160002DE9F14F84B00498D0E9018B90F821909B
:105170000468C06802900498D0E906600190049821
:10518000D0E904700390049890F82200002850D0D1
:1051900000200090BBF1000FDCBF05B0BDE8F08F30
:1051A0000025AA46B8F1000F40F36D81049A16F865
:1051B0001A10C80892F822208908012A6CD0022A05
:1051C00000F0FF80032A00F01881042A1CBF05B0FC
:1051D000BDE8F08F34F81520C0EBD223002BD8BFE8
:1051E000A0EBD2234FF6FF7C0CEAC32EC2F3451C82
:1051F000ACEB0103002BD8BFA1EB0C030EEB43116A
:105200008BB202F01F02111A0029D8BF811AC818E8
:1052100080B2002F00F00A81B9F1FD0FC0F01E81AD
:105220007A5D34F815100FF011FD24F8150000F028
:1052300024B987B3B9F1FD0F7AD34FF0000ABBF15F
:10524000000FDCBF05B0BDE8F08F0025A946B8F11E
:10525000000F13DD06EB4900795D407810FB01F08B
:10526000020A34F8151016F819000FF0DEFE24F8C3
:1052700015006D1C09F10109A845EBDC02980AF143
:10528000010A04440198DA45064403980744DCDB2C
:1052900005B0BDE8F08F00E076E0B9F1FD0F21D355
:1052A0004FF00009BBF1000FF2DD00252F46B8F1E9
:1052B000000F0EDD06EB470034F81510427816F8A3
:1052C00017000FF0B2FE24F815006D1C7F1CA845D6
:1052D000F0DC029809F1010904440198D94506441B
:1052E000E3DBD5E74FF0000ABBF1000FD0DD00256E
:1052F0002F46B8F1000F11DD06EB4700407810FB98
:1053000009F0020A34F8151016F817000FF08DFE98
:1053100024F815006D1C7F1CA845EDDC02980AF1ED
:10532000010A04440198DA450644E0DBB0E7FFE7F0
:1053300000200090BBF1000FAADD0025AA46B8F1BD
:10534000000F15DD06EB4A00795D407810FB01F097
:1053500000FB09F0020C34F8151016F81A000FF0D3
:1053600064FE24F815006D1C0AF1010AA845E9DC69
:105370000298044401980644039807440098401C8E
:1053800000905845D9DB83E734F8152000EBD22391
:105390001F2B28BF1F234FF6FF7C0CEAC323C2F349
:1053A000451C61443F2928BF3F2103EB411102F016
:1053B0001F02104489B21F2828BF1F20084480B252
:1053C00027E734F81520C0EBD223002BD8BF0023E9
:1053D0004FF6FF7C0CEAC323C2F3451CACEB010182
:1053E0000029D8BF002103EB411102F01F02101A5F
:1053F00089B20028D8BF0020E0E734F81520D30A8E
:1054000013FB00F34FEA531C4FF6FF7303EACC2360
:10541000C2F3451C1CFB01F1890903EB411102F0A9
:105420001F0212FB00F001EB5010F1E6B9F1FD0F85
:1054300006EB4A0107D34A7834F815100FF006FC42
:1054400024F8150019E0497811FB09F10A0A34F82B
:1054500015100FF0FBFB24F815000EE006EB4A02D6
:10546000795D527811FB02F101FB09F10A0C34F865
:1054700015100FF0EBFB24F815006D1C0AF1040A5F
:105480004545FFF693AE0298002F04440198064468
:105490001CBF039807440098401C00905845FFF635
:1054A0007FAEF5E62DE9F14F84B00498D0E9018B89
:1054B00090F821900468C06802900498D0E90660D2
:1054C00001900498D0E904700390049890F82200A9
:1054D000002858D000200090BBF1000FDCBF05B0C1
:1054E000BDE8F08F4146204619F0CFFC0025AA46C2
:1054F000B8F1000F40F3A581049A16F81A10C808F5
:1055000092F822208908012A00F01381022A00F073
:105510002D81032A00F04681042A1CBF05B0BDE896
:10552000F08F34F81520C0EBD223002BD8BFA0EBAE
:10553000D2234FF6FF7C0CEAC32EC2F3451CACEB22
:105540000103002BD8BFA1EB0C030EEB43118BB270
:1055500002F01F02111A0029D8BF811AC81880B2A0
:10556000002F00F03881B9F1FD0FC0F052817A5D53
:1055700034F815100FF06AFB010A41EA002024F804
:10558000150000F058B9BFB3B9F1FD0F7DD34FF04E
:10559000000ABBF1000FDCBF05B0BDE8F08F0025AD
:1055A000A946B8F1000F1ADD34F815007A5D010A3A
:1055B00041EA002081B206EB4900407810FB02F07E
:1055C000020A16F819000FF064FD010A41EA0020F2
:1055D00024F815006D1C09F10109A845E4DC0298C6
:1055E0000AF1010A04440198DA4506440398074485
:1055F000D5DB05B0BDE8F08FFFE7B9F1FD0F2DD386
:105600004FF00009BBF1000FDCBF05B0BDE8F08F23
:1056100000252F46B8F1000F15DD34F81500010AFA
:1056200041EA002081B206EB4700427816F81700E5
:105630000FF02FFD010A41EA002024F815006D1C2F
:105640007F1CA845E9DC029809F10109044401988E
:10565000D9450644DCDB05B0BDE8F08F4FF0000A09
:10566000BBF1000FDCBF05B0BDE8F08F00252F4671
:10567000B8F1000F1ADD34F81500010A41EA0020E4
:1056800081B206EB4700407800E01AE010FB09F019
:10569000020A16F817000FF0FCFC010A41EA00208C
:1056A00024F815006D1C7F1CA845E4DC02980AF163
:1056B000010A04440198DA450644D7DB05B0BDE889
:1056C000F08F00200090BBF1000FDCBF05B0BDE8FB
:1056D000F08F0025AA46B8F1000F1CDD34F8150044
:1056E0007A5D010A41EA002081B206EB4A00407867
:1056F00010FB02F000FB09F0020C16F81A000FF084
:10570000C8FC010A41EA002024F815006D1C0AF1CA
:10571000010AA845E2DC0298044401980644039873
:1057200007440098401C00905845D2DB05B0BDE806
:10573000F08F34F8152000EBD2231F2B28BF1F2336
:105740004FF6FF7C0CEAC323C2F3451C61443F299A
:1057500028BF3F2103EB411102F01F02104489B220
:105760001F2828BF1F20084480B2F9E634F815200E
:10577000C0EBD223002BD8BF00234FF6FF7C0CEAEE
:10578000C323C2F3451CACEB01010029D8BF0021A3
:1057900003EB411102F01F02101A89B20028D8BF92
:1057A0000020E0E734F81520D30A13FB00F34FEA9A
:1057B000531C4FF6FF7303EACC23C2F3451C1CFBBA
:1057C00001F1890903EB411102F01F0212FB00F005
:1057D00001EB5010C3E6B9F1FD0F06EB4A010AD305
:1057E0004A7834F815100FF031FA010A41EA002026
:1057F00024F815001FE0497811FB09F10A0A34F872
:1058000015100FF023FA010A41EA002024F81500D0
:1058100011E006EB4A02795D527811FB02F101FBBF
:1058200009F10A0C34F815100FF010FA010A41EAD8
:10583000002024F815006D1C0AF1040A4545FFF606
:105840005BAE0298002F0444019806441CBF0398E5
:1058500007440098401C00905845FFF643AE05B041
:10586000BDE8F08F10B540201EF0ECFD040005D01F
:10587000402200211EF069FF204610BDFEE7000017
:1058800070B5184C012504F1B00084F8A8501EF042
:10589000D7FC0028D4F8AC0004D0B0B1BDE870400B
:1058A00028F02ABF18B1BDE8704028F013BF94F863
:1058B000AA00002808BF70BD00220B49104610F056
:1058C000C9FA002084F8AA0070BD94F8AA00002844
:1058D00018BF70BD00220449104610F0C5F984F8C5
:1058E000AA5070BD542E0020B15B00082DE9F0478E
:1058F000AE4D95F8A90000280CBF0120002085F8C6
:10590000A90005F1B0001EF09BFC04001ABF4FF087
:1059100000094FF0010ABDE8F087206D28F050FD26
:1059200094F85C1011F0010F22D0606D28F048FD52
:105930000246A06DB0F1FF3F03D0904298BF012115
:1059400000D90021B9B1111A94F85C0020F00100CF
:1059500084F85C00626B1144616395F8A91000291A
:105960000CBF40F0040020F0040084F85C0002E06A
:10597000616B0844606328F037FD206585F8A890C6
:1059800094F85C0010F0010F40F0058195F8A91023
:10599000C0F380028A4200F0FE8061F3820084F846
:1059A0005C0010F0080F6DD1616B0029C0F2EB8034
:1059B00010F0100F09D1A16939B120468847616AFA
:1059C00001446162E16A0844E062D4E90B20616A43
:1059D0000BF027FC2063E26A616AE06B0BF021FCAC
:1059E000E063E26A616AA06B0BF01BFCA063E26AF1
:1059F000616A206C0BF015FC2064E16800291CBF73
:105A00002046884794F85C0040F0080084F85C0069
:105A10006068002804BFA068002833D005F1B000FA
:105A20001EF00EFC06002DD0A64224D0706B00287C
:105A300004DA96F85C0010F0100F1CD03168206872
:105A4000814218D17068B0B16168884213D1314683
:105A500005F1B0001EF0B7FC716900291CBF30468B
:105A6000884730461BF018FDFFF70AFF05F1B0002C
:105A70001EF0E6FB04E0314605F1B0001EF0F4FB39
:105A80000600D1D1676B002F7DDB206B8742C8BF3A
:105A900060632046216AD4F834808847A16A0646AC
:105AA000B1420ED0A662626812B1314620689047BA
:105AB00095F8A800002869D1A26832B13146204685
:105AC000904795F8A800002860D1606B404508BF5A
:105AD0006763D4E90C01814255DB94F85C0010F057
