:020000040800F2
:10000000D8F40020AD010008390F0008890E00085F
:10001000350F000881020008552D0008000000007F
:10002000000000000000000000000000BF01000808
:100030008502000800000000C3010008091700083D
:10004000C7010008C7010008C7010008C701000870
:10005000C7010008C7010008C7010008C701000860
:10006000C7010008C7010008C7010008C701000850
:10007000C7010008C7010008C7010008C701000840
:10008000C7010008C7010008C7010008C701000830
:10009000C7010008C7010008C7010008C701000820
:1000A000C7010008C7010008C7010008C701000810
:1000B000C7010008C7010008C7010008C701000800
:1000C000C7010008C7010008C7010008C7010008F0
:1000D000C70100083D220008C7010008C701000849
:1000E000C7010008C7010008C7010008C7010008D0
:1000F000C7010008C7010008C7010008C7010008C0
:10010000C7010008C7010008C7010008C7010008AF
:10011000C7010008C7010008091A0008C701000844
:10012000C7010008C7010008C7010008C70100088F
:10013000C7010008C7010008C7010008C70100087F
:10014000C7010008C7010008C7010008C70100086F
:10015000C7010008C7010008C7010008C70100085F
:10016000C7010008C7010008C7010008C70100084F
:10017000C7010008C7010008C7010008C70100083F
:10018000C7010008C7010008C7010008C70100082F
:10019000C7010008C7010008DFF80CD000F02EF8F6
:1001A0000048004745320008D8F400200648804740
:1001B00006480047FEE7FEE7FEE7FEE7FEE7FEE74C
:1001C000FEE7FEE7FEE7FEE70D17000899010008CD
:1001D00030B50B46014600202022012409E021FA17
:1001E00002F59D4205D303FA02F5491B04FA02F514
:1001F0002844151EA2F10102F1DC30BD064C074D6A
:1002000006E0E06840F0010394E8070098471034E6
:10021000AC42F6D3FFF7C4FF88330008A8330008C8
:1002200008B54FF48050ADF8000010208DF80300A1
:1002300001208DF802006946044800F009FC4FF4E3
:100240008051024800F040FD08BD00000008014058
:1002500010B502F08BFD00F069F802F053FF02F0D8
:100260009DFFFFF7DDFF00F025FE01F0A7FA01F08A
:10027000F1FA10BD10B500F00BF800F029FE10BD2A
:1002800000BFFEE7704700E0401E0028FCD1704729
:1002900001200149087070470700002010B51E4872
:1002A000007880B11D48007820B101211C4800F081
:1002B0007BFD03E001211A4800F006FD1748007895
:1002C000C0431649087017480088B0F57A7F03DBF1
:1002D00000201449088004E012480088401C11499D
:1002E00008801048008818B900200F4908700BE0FA
:1002F0000C48008840F2E731884205D10A4800786E
:1003000010B9002004490870AFF26F021E210220CC
:1003100002F04AFD10BD00000C0000200D0000207E
:10032000001001400A0000200700002008B501204D
:10033000ADF8000010208DF8030001208DF80200B8
:100340006946044800F084FB034A1E21022002F0A3
:100350002BFD08BD001001409D0200082DE9F0476B
:1003600004460F464FF00008C2460026B14600255D
:10037000012C7DD0022CFCD0042CFAD0082CF8D013
:10038000FE488442F5D0FD4820308442F1D0FC483C
:100390008442EED0FA4880308442EAD0F948844260
:1003A000E7D0F9488442E4D0F8488442E1D0F848E4
:1003B0008442DED0F7488442DBD0B4F5805FD8D0E9
:1003C000B4F5E91FD5D0B4F5EA1FD2D0B4F5EB1FD0
:1003D000CFD0B4F5004FCCD0EF488442C9D0401CF8
:1003E0008442C6D0801C8442C3D0001D8442C0D049
:1003F000E9480F308442BCD0E8488442B9D0E8488C
:100400008442B6D0E7488442B3D0E7488442B0D0B3
:10041000E6488442ADD0E6488442AAD0001D84421A
:10042000A7D0E4488442A4D0E24810308442A0D04F
:10043000E14884429DD0E0488030844299D0DF4832
:10044000844296D0DE48844293D0DE48844290D0E5
:10045000DD4884428DD0DD4884428AD0DC48844225
:1004600087D0DC48844284D0DB48844285D000E0D9
:10047000B2E0DA48844285D0D948844286D0401C14
:10048000844286D0401C844287D0D648844284D09F
:10049000001D844284D0D448844284D0D34884420E
:1004A00084D0D2480830844286D0D148844286D055
:1004B000D048844286D0CF481030844285D0CD4881
:1004C0002030844284D0CC48844284D0CA48403012
:1004D000844286D0C848803084427DD0C748844258
:1004E0007AD0C748844277D0C648844274D0C64880
:1004F000844271D0C54884426ED0C54884426BD0D6
:10050000C448844268D0C448844265D0C348844209
:1005100062D0401C84425FD0401C84425CD0C04802
:10052000844259D0001D844256D0001D844253D0CD
:10053000BC48844250D0BB48203084424CD0BA489A
:10054000844249D0B8488030844245D0B74884427C
:1005500042D0B74884423FD0B64884423CD0B648E7
:10056000844239D0B548844236D0B548844233D02D
:100570004FEAF03084422FD0B24884427DD0B24856
:1005800084427AD0401C844277D0801C844274D04C
:10059000001D844271D0AD4884426ED0AB482030FB
:1005A00084426AD0A8483F30844266D0A6487F3053
:1005B000844262D0A448FF3084425ED0A448844282
:1005C0005BD075487F30844257D06D4840308442BC
:1005D00053D0A048844200E04FE04ED09D484038C0
:1005E00084424AD09B486038844246D0994870384B
:1005F000844242D09748783884423ED0001F8442DB
:100600003BD0801E844238D0401E844235D0924870
:10061000844232D0914884422FD0914884422CD0D9
:10062000B4F1102F29D04FEA7040844225D08D4874
:10063000844222D08C4884421FD08C4884421CD0F3
:100640008A488038844218D08848C038844214D000
:100650008648E038844210D08448F03884420CD078
:100660008248F838844208D0001F844205D0801E9A
:10067000844202D0401E844200D105E040F27A223A
:100680007BA18AA002F0CCFC0FB1012F00D105E0C4
:1006900040F27B2276A18BA002F0C2FC04F0004065
:1006A000B0F1004F02D18E48C66919E004F08040D5
:1006B000B0F1804F02D18A48066A11E004F0005080
:1006C000B0F1005F02D18648466A09E004F080502C
:1006D000B0F1805F02D18248866A01E080484668B6
:1006E000C4F303491FFA84F87E482040B0F5401F48
:1006F00008D126F070667A48406820F0706078492A
:10070000486077E104F48010B0F5801F16D104F43E
:100710000010B0F5001F05D1032000FA09F04FEAE0
:10072000004A02E0032000FA09FA26EA0A0604F069
:10073000E040002801D146F070665BE104F0807073
:10074000B0F1807F17D104F00400042814D104F024
:100750000070B0F1007F10D1C4F34050000108FADE
:1007600000F0864337B15E48456845F0010545F025
:100770007065B9E0BAE0E7E0CEE0BFE01000140039
:1007800040001600000118000002180000031800C5
:1007900000081A00000C1A000100200000013000BF
:1007A000000230000004300000040080010000401E
:1007B0000200114020001440400016400002184082
:1007C0000003184000041A40000C1A4000101C409E
:1007D00000301C4000401E4000801E4000C01E40F3
:1007E000010030400000204104002043000020446C
:1007F00008002046100034404000364000023840D7
:100800000003384000043A40000C3A4000103C40DD
:1008100000303C4000403E4000C03E4001001020FF
:10082000040012201000142040001620000118209F
:10083000000218200003182000041A20000C1A20BF
:100840000010002000800020010020201000342033
:1008500000022020800020100080001000400010C6
:100860000020001000040010000200100001001021
:100870002E2E5C6669726D776172655C6E333267CD
:100880003435785F7374645F7065726970685F6433
:1008900072697665725C7372635C6E33326734358D
:1008A000785F6770696F2E630000000049535F47EF
:1008B00050494F5F52454D415028526D7050696EFE
:1008C0002900000049535F46554E4354494F4E415D
:1008D0004C5F535441544528436D64290000000087
:1008E0000000014000003070456083E057484568D3
:1008F00025F0010545F0706545607BE0C4F340508C
:10090000000108FA00F086435048456825F00105CB
:1009100045F0706545606DE048F00400C4F3405157
:100920000901884086433FB14848456845F00105C4
:1009300045F0706545605DE04448456825F0010577
:1009400045F07065456055E004F08060B0F1806F5F
:1009500045D104F00800082829D104F00070B0F156
:10096000007F16D1C4F34050000108FA00F086431E
:100970003FB13648456845F0080545F0706545606B
:1009800038E03248456825F0080545F07065456057
:1009900030E0C4F34050000108FA00F086432B48D1
:1009A000456825F0080545F07065456022E048F08F
:1009B0000800C4F340510901884086433FB12348F1
:1009C000456845F0080545F07065456012E01F4830
:1009D000456825F0080545F0706545600AE0C4F3F8
:1009E0004050000108FA00F0864304F0E04008B9E6
:1009F00046F070662FB1C4F34050010108FA01F0CF
:100A0000064304F00040B0F1004F02D10F48C66128
:100A100019E004F08040B0F1804F02D10B4806622B
:100A200011E004F00050B0F1005F02D107484662C7
:100A300009E004F08050B0F1805F02D10348866283
:100A400001E002484660BDE8F08700000000014078
:100A50002DE9F05F05460C464FF00009CA46002616
:100A60000027B046B3465C48854211D05B488542BA
:100A70000ED05B4885420BD05A48854208D05A4870
:100A8000854205D05948854202D05948854200D157
:100A900004E0BE2257A166A002F0C2FAE078A0B13D
:100AA000E078042811D0E07828280ED0E078482893
:100AB0000BD0E078142808D0E078102805D0E07832
:100AC0001C2802D0E078182800D104E0BF2249A1F8
:100AD0005EA002F0A5FA002010B9208800B104E061
:100AE000C02244A164A002F09BFAE07800F00F0954
:100AF000E07800F0100098B1A07840B1A07802280A
:100B000005D0A078012802D0A078032800D104E005
:100B1000C72238A161A002F083FAA07840EA09094F
:100B2000207838B3D5F8008000261FE0012000FAB5
:100B300006F7208800EA070ABA4516D1B7000F2049
:100B400000FA07FB28EA0B0809FA07F040EA080850
:100B5000E078282803D10120B040686105E0E07802
:100B6000482802D10120B0402861761C082EDDD330
:100B7000C5F800802088FF282BDDD5F804800026EA
:100B800023E006F10800012101FA00F7208800EABD
:100B9000070ABA4518D1B7000F2000FA07FB28EA68
:100BA0000B0809FA07F040EA0808E078282803D182
:100BB00006F1080081406961E078482804D106F117
:100BC0000800012181402961761C082ED9D3C5F87F
:100BD0000480BDE8F09F000000080140000C0140C7
:100BE000001001400014014000180140001C0140A9
:100BF000002001402E2E5C6669726D776172655C23
:100C00006E3332673435785F7374645F7065726910
:100C100070685F6472697665725C7372635C6E3370
:100C200032673435785F6770696F2E6300000000AB
:100C300049535F4750494F5F414C4C5F50455249C3
:100C40005048284750494F782900000049535F47D2
:100C500050494F5F4D4F4445284750494F5F496EBB
:100C600069745374727563742D3E4750494F5F4DDC
:100C70006F6465290000000049535F4750494F5F8A
:100C800050494E284750494F5F496E6974537472FA
:100C90007563742D3E50696E2900000049535F470B
:100CA00050494F5F5350454544284750494F5F498D
:100CB0006E69745374727563742D3E4750494F5F6B
:100CC000537065656429000070B504460D461448EC
:100CD000844211D0134884420ED0134884420BD072
:100CE0001248844208D01248844205D011488442F8
:100CF00002D01148844200D105E04FF4C5720FA123
:100D00001DA002F08DF9002008B905B105E040F200
:100D10008B120AA11FA002F083F9656170BD00006B
:100D200000080140000C0140001001400014014087
:100D300000180140001C0140002001402E2E5C667E
:100D400069726D776172655C6E3332673435785FD6
:100D50007374645F7065726970685F6472697665E8
:100D6000725C7372635C6E3332673435785F6770C0
:100D7000696F2E630000000049535F4750494F5F81
:100D8000414C4C5F504552495048284750494F7894
:100D90002900000049535F4750494F5F50494E2892
:100DA00050696E290000000070B504460D461448D5
:100DB000844211D0134884420ED0134884420BD091
:100DC0001248844208D01248844205D01148844217
:100DD00002D01148844200D105E040F273120FA105
:100DE0001DA002F01DF9002008B905B105E04FF47F
:100DF000BA720AA11FA002F013F9256170BD0000AC
:100E000000080140000C01400010014000140140A6
:100E100000180140001C0140002001402E2E5C669D
:100E200069726D776172655C6E3332673435785FF5
:100E30007374645F7065726970685F647269766507
:100E4000725C7372635C6E3332673435785F6770DF
:100E5000696F2E630000000049535F4750494F5FA0
:100E6000414C4C5F504552495048284750494F78B3
:100E70002900000049535F4750494F5F50494E28B1
:100E800050696E290000000002E002A001F0B8FFE6
:100E9000FBE70000766F6964204861726446617503
:100EA0006C745F48616E646C657228766F69642942
:100EB0000D0A000008B50120ADF8000048208DF8AB
:100EC000030069460148FFF7C3FD08BD0008014063
:100ED00010B50E480078012817D100200B49087082
:100EE0000B480078401C0A49087008460078012821
:100EF00004D120210748FFF757FF06E000200449EE
:100F0000087020210348FFF7DFFE10BD0600002017
:100F1000080000200008014010B5012004490870B5
:100F2000AFF20B024FF4FA7101F03EFF10BD00006A
:100F30000600002000BFFEE7704708B535208DF899
:100F4000000000208DF801008DF8020001208DF8CE
:100F50000300684600F002F808BD00002DE9F041EA
:100F60000446002500270F26E07810B1E07801281C
:100F700000D104E07D2222A12EA002F051F8607879
:100F8000102800DA04E07E221DA1394802F048F85A
:100F9000A078102800DA04E07F2219A1354802F079
:100FA0003FF8E07800B33448006800F4E060C0F532
:100FB000E060050AC5F10407EE40607800FA07F525
:100FC000A078304005432D012C48227885542078A4
:100FD00000F01F010120884021784911890001F1AA
:100FE000E021C1F8000109E0207800F01F01012094
:100FF000884023492278521141F82200BDE8F0814F
:101000002E2E5C6669726D776172655C6E33326735
:101010003435785F7374645F7065726970685F649B
:1010200072697665725C7372635C6D6973632E635B
:101030000000000049535F46554E4354494F4E410E
:101040004C5F5354415445284E5649435F496E699D
:10105000745374727563742D3E4E5649435F495202
:10106000514368616E6E656C436D64290000000039
:10107000F0320008AC3200080CED00E000E400E0C3
:1010800080E100E010B50446B4F5E06F0BD0B4F594
:10109000C06F08D0B4F5A06F05D0B4F5806F02D052
:1010A000B4F5407F00D104E06C2204A110A001F04F
:1010B000B7FF1A4820431A49086010BD2E2E5C66FF
:1010C00069726D776172655C6E3332673435785F53
:1010D0007374645F7065726970685F647269766565
:1010E000725C7372635C6D6973632E630000000051
:1010F00049535F4E5649435F5052494F52495459E4
:101100005F47524F5550284E5649435F5072696FA2
:101110007269747947726F75702900000000FA05D2
:101120000CED00E070B5044600255CB1B4F5806FAD
:1011300008D0B4F5A06F05D0B4F5C06F02D0B4F5F7
:10114000E06F00D105E040F2C31205A112A001F04A
:1011500067FF1848456825F4E0652543456070BD84
:101160002E2E5C6669726D776172655C6E333267D4
:101170003435785F7374645F7065726970685F643A
:1011800072697665725C7372635C6E333267343594
:10119000785F7263632E630049535F5243435F4835
:1011A000434C4B5F444956285243435F48434C4BA2
:1011B000290000000010024070B504460D46114899
:1011C000204008B904B105E040F2C2320EA11CA0D3
:1011D00001F026FF0DB1012D00D105E040F2C33230
:1011E00009A120A001F01CFF2DB125484069204332
:1011F0002349486104E022484069A04320494861EE
:1012000070BD0000A802FCFF2E2E5C6669726D772F
:101210006172655C6E3332673435785F7374645F16
:101220007065726970685F6472697665725C73720A
:10123000635C6E3332673435785F7263632E6300AC
:1012400049535F5243435F4148425F5045524950C2
:1012500048285243435F414842506572697068298B
:101260000000000049535F46554E4354494F4E41DC
:101270004C5F535441544528436D642900000000DD
:101280000010024070B504460D461148204008B9D0
:1012900004B105E040F2FE320EA11CA001F0C0FE38
:1012A0000DB1012D00D105E040F2FF3209A120A0CF
:1012B00001F0B6FE2DB12548C06920432349C8611D
:1012C00004E02248C069A0432049C86170BD000005
:1012D000003301412E2E5C6669726D776172655C28
:1012E0006E3332673435785F7374645F706572692A
:1012F00070685F6472697665725C7372635C6E338A
:1013000032673435785F7263632E630049535F52EE
:1013100043435F415042315F504552495048285243
:1013200043435F4150423150657269706829000043
:1013300049535F46554E4354494F4E414C5F5354B9
:1013400041544528436D642900000000001002400C
:1013500070B504460D461148204008B904B105E0B7
:1013600040F2DF320EA11CA001F05AFE0DB1012D9A
:1013700000D105E04FF4787209A120A001F050FEE1
:101380002DB12548806920432349886104E0224823
:101390008069A0432049886170BD00000286E0FF9B
:1013A0002E2E5C6669726D776172655C6E33326792
:1013B0003435785F7374645F7065726970685F64F8
:1013C00072697665725C7372635C6E333267343552
:1013D000785F7263632E630049535F5243435F41FA
:1013E0005042325F504552495048285243435F4172
:1013F00050423250657269706829000049535F4657
:10140000554E4354494F4E414C5F53544154452827
:10141000436D64290000000000100240F0B5002177
:1014200000BF002200250024384E7668384F06EAB7
:101430000702364E766806F4803502F000661EB963
:10144000022606EB924204E04FF4F876C6EB924691
:10145000721C1DB92F4E02FB06F30BE02B4E766873
:1014600006F400361EB12B4E02FB06F302E02A4EB4
:1014700002FB06F3254E766806F00C0121B1042923
:1014800005D0082908D105E0234E066007E0224E6A
:10149000066004E0036002E01F4E066000BF00BF6C
:1014A0001A4E766806F0F00109091C4E745C066855
:1014B000E6404660154E766806F4E061090A174E6C
:1014C000745C4668E6408660104E766806F46051AB
:1014D000C90A124E745C4668E640C6600B4EF66A56
:1014E00006F00F010E4E745C4668B6FBF4F64661DA
:1014F000064EF66A06F4F871090901F00F06094F65
:1015000037F81640B3FBF4F60661F0BD0010024058
:1015100000003C0800093D0000127A006C3200080F
:101520007C3200088C32000870B50446002517E0B4
:1015300040210F48FFF7C8FB04F0800020B980214C
:101540000B48FFF7C1FB03E080210948FFF72CFCA3
:101550006006040E40210648FFF726FC681CC5B251
:10156000082DE5DB40210248FFF7AEFB70BD00000F
:10157000000C01400EB50020029001900090394807
:10158000006840F480303749086000BF3548006883
:10159000C0F3404001900098401C00909DF804006A
:1015A00018B90098B0F5004FF0D12E480068C0F38C
:1015B000404001909DF8040018B92B482B49086061
:1015C0000EBD2B48006820F0070029490860084636
:1015D000006840F0030008602248406821494860E4
:1015E0000846406840F4005048600846406840F4AF
:1015F000A0604860084640681E4908401949486094
:10160000084640680290029840F4803002900298A8
:1016100040F400300290029840F00260029002987C
:1016200048600846006840F08070086000BF0D48C0
:10163000006800F000700028F9D00A48406820F0E7
:101640000300084948600846406840F002004860CE
:1016500000BF0448406800F00C000828F9D100BF22
:10166000AEE700000010024000127A0000000020E7
:1016700000200240FFFFC0F710B50446042C01D043
:10168000601D00B904E0CF2207A114A001F0C8FC3E
:10169000042C07D14FF0E020006940F004004FF027
:1016A000E021086110BD00002E2E5C6669726D7726
:1016B0006172655C6E3332673435785F7374645F72
:1016C0007065726970685F6472697665725C737266
:1016D000635C6D6973632E630000000049535F53C0
:1016E00059535449434B5F434C4B5F534F555243FF
:1016F00045285379735469636B5F434C4B536F7543
:1017000072636529000000007047000010B524488E
:10171000006840F47000224908602248006840F0E8
:10172000010020490860084640681F4908401D49DB
:101730004860084600681D4908401A490860084684
:10174000006820F480200860084640681849084076
:10175000144948600020C86208634FF41F00886085
:101760000846C06940F08050C8611248C06840F027
:1017700001001049C8600B48C06920F08050094939
:10178000C8610D48006840F090000B490860FFF701
:10179000F1FE4FF0006002498039086010BD000082
:1017A00088ED00E00010024000C0FFF8FFFFF6FEE9
:1017B000FFFF00F7007000400020024008B54FF422
:1017C0007C70ADF8000010208DF8030003208DF828
:1017D000020069460748FFF73BF901210920FFF79E
:1017E000B7FD01210448FEF7B9FD10210148FFF7BC
:1017F0006BFA08BD000C01400002300010B5044631
:1018000020210848FFF760FA4FF480710548FFF780
:101810005BFA2046FFF788FE20210248FFF7C4FA52
:1018200010BD0000000C014010B5044620210848FE
:10183000FFF74AFA4FF480710548FFF7B5FA2046E2
:10184000FFF772FE20210248FFF7AEFA10BD00003C
:10185000000C014010B54FF400716A48FFF734FAEC
:10186000642001F0F9FB4FF400716648FFF79CFA21
:10187000642001F0F1FB1120FFF7C0FF782001F098
:10188000EBFB3620FFF7BAFFC020FFF7CDFF3A2071
:10189000FFF7B4FF0520FFF7C7FFB220FFF7AEFF49
:1018A0000520FFF7C1FF0520FFF7BEFF0020FFF76F
:1018B000BBFF3320FFF7B8FF3320FFF7B5FFB7209A
:1018C000FFF79CFF3520FFF7AFFFBB20FFF796FF28
:1018D0002120FFF7A9FFC020FFF790FF2C20FFF782
:1018E000A3FFC220FFF78AFF0120FFF79DFFC3205F
:1018F000FFF784FF0B20FFF797FFC420FFF77EFF61
:101900002020FFF791FFC620FFF778FF0F20FFF799
:101910008BFFD020FFF772FFA720FFF785FFA120E4
:10192000FFF782FFD020FFF769FFA420FFF77CFFBD
:10193000A120FFF779FFD620FFF760FFA120FFF776
:1019400073FFE020FFF75AFFD020FFF76DFF042060
:10195000FFF76AFF0820FFF767FF0A20FFF764FF21
:101960000920FFF761FF0520FFF75EFF2D20FFF73D
:101970005BFF4320FFF758FF4920FFF755FF092081
:10198000FFF752FF1620FFF74FFF1520FFF74CFF20
:101990002620FFF749FF2B20FFF746FFE120FFF746
:1019A0002DFFD020FFF740FF0320FFF73DFF092068
:1019B000FFF73AFF0A20FFF737FF0A20FFF734FF4F
:1019C0000620FFF731FF2E20FFF72EFF4420FFF700
:1019D0002BFF4020FFF728FF3A20FFF725FF1520B7
:1019E000FFF722FF1520FFF71FFF2620FFF71CFF40
:1019F0002A20FFF719FF2120FFF700FF0A2001F03E
:101A00002BFB10BD000C014010B50121054800F072
:101A100041FA28B10121034800F006F801F0CEF99F
:101A200010BD00000010004070B504460D46174878
:101A3000844214D0B4F1804F11D0154884420ED0A6
:101A4000144884420BD01448844208D0134884427E
:101A500005D01348844202D01248844200D105E0E8
:101A600040F6224210A11EA001F0DAFA05F47F40F0
:101A700008B905B105E040F623420BA11EA001F014
:101A8000CFFA2069A843206170BD0000002C0140FE
:101A90000004004000080040000C0040001000401E
:101AA00000140040003401402E2E5C6669726D7790
:101AB0006172655C6E3332673435785F7374645F6E
:101AC0007065726970685F6472697665725C737262
:101AD000635C6E3332673435785F74696D2E6300F2
:101AE000497354696D416C6C4D6F64756C65285415
:101AF000494D782900000000497354696D496E749E
:101B00002854494D5F4954290000000070B504462F
:101B10000D4616461E48844214D0B4F1804F11D0B1
:101B20001C4884420ED01C4884420BD01B4884427F
:101B300008D01B48844205D01A48844202D01A4873
:101B4000844200D105E04FF47B7218A125A001F07A
:101B500067FA05F47F4008B905B105E040F2ED32BF
:101B600012A126A001F05CFA0EB1012E00D105E011
:101B700040F2EE320DA126A001F052FA1EB1A0896A
:101B80002843A08102E0A089A843A08170BD000085
:101B9000002C01400004004000080040000C004000
:101BA0000010004000140040003401402E2E5C66FE
:101BB00069726D776172655C6E3332673435785F58
:101BC0007374645F7065726970685F64726976656A
:101BD000725C7372635C6E3332673435785F74693C
:101BE0006D2E6300497354696D416C6C4D6F647563
:101BF0006C652854494D78290000000049735469E8
:101C00006D496E742854494D5F4954290000000005
:101C100049535F46554E4354494F4E414C5F5354D0
:101C200041544528436D64290000000070B5044606
:101C30000E4615461548844214D0B4F1804F11D099
:101C4000134884420ED0134884420BD01248844279
:101C500008D01248844205D01148844202D011486D
:101C6000844200D105E040F219520FA11CA001F0FE
:101C7000D7F90DB1012D00D105E040F21A520AA1A9
:101C80001DA001F0CDF92685A58270BD002C014074
:101C90000004004000080040000C0040001000401C
:101CA00000140040003401402E2E5C6669726D778E
:101CB0006172655C6E3332673435785F7374645F6C
:101CC0007065726970685F6472697665725C737260
:101CD000635C6E3332673435785F74696D2E6300F0
:101CE000497354696D416C6C4D6F64756C65285413
:101CF000494D782900000000497354696D507363A1
:101D000052656C6F61644D6F64652854494D5F5036
:101D1000534352656C6F61644D6F64652900000028
:101D200008B541F63F701A4908804FF4A060FFF7EC
:101D3000F9F901211020FFF7A5FA36208DF80000EF
:101D400003208DF8010000208DF8020001208DF89D
:101D500003006846FFF702F903200E49888004203B
:101D600008800020C88048800B4800F021F901223B
:101D7000074801880848FFF759FF01221146064825
:101D8000FFF7C4FE0121044800F008F808BD000078
:101D900004000020140000200010004070B504462C
:101DA0000D461A48844214D0B4F1804F11D018481F
:101DB00084420ED0174884420BD01748844208D082
:101DC0001648844205D01648844202D01548844201
:101DD00000D105E040F2AF3213A121A001F020F9BB
:101DE0000DB1012D00D105E04FF46C720EA122A0BF
:101DF00001F016F925B1206840F00100206003E0F1
:101E0000206820F00100206070BD0000002C01401F
:101E10000004004000080040000C0040001000409A
:101E200000140040003401402E2E5C6669726D770C
:101E30006172655C6E3332673435785F7374645FEA
:101E40007065726970685F6472697665725C7372DE
:101E5000635C6E3332673435785F74696D2E63006E
:101E6000497354696D416C6C4D6F64756C65285491
:101E7000494D78290000000049535F46554E4354B0
:101E8000494F4E414C5F535441544528436D64299A
:101E9000000000002DE9F04104460D460026002711
:101EA000B0462348844214D0B4F1804F11D0214869
:101EB00084420ED0204884420BD02048844208D06F
:101EC0001F48844205D01F48844202D01E488442E5
:101ED00000D105E040F6FC321CA12AA001F0A0F8D8
:101EE000012D0DD0022D0BD0042D09D0082D07D0C7
:101EF000102D05D0202D03D0402D01D0802D00D1F4
:101F000005E040F6FD3211A124A001F089F8206916
:101F100000EA0507A08900EA050827B1B8F1000F1B
:101F200001D0012600E000263046BDE8F081000027
:101F3000002C01400004004000080040000C00405C
:101F40000010004000140040003401402E2E5C665A
:101F500069726D776172655C6E3332673435785FB4
:101F60007374645F7065726970685F6472697665C6
:101F7000725C7372635C6E3332673435785F746998
:101F80006D2E6300497354696D416C6C4D6F6475BF
:101F90006C652854494D7829000000004973546944
:101FA0006D476574496E742854494D5F4954290042
:101FB00070B504460D4600266E48844214D0B4F134
:101FC000804F11D06C4884420ED06C4884420BD0B4
:101FD0006B48844208D06B48844205D06A488442EA
:101FE00002D06A48844200D104E0BD2268A176A0F4
:101FF00001F016F8688858B16888102808D06888F9
:10200000202805D06888402802D06888602800D140
:1020100004E0BE225EA172A001F002F8E88838B1A7
:10202000E888B0F5807F03D0E888B0F5007F00D164
:1020300004E0BF2256A176A000F0F2FF26684D48CA
:1020400084420ED0514884420BD0B4F1804F08D066
:102050004948844205D04948844202D048488442D5
:1020600003D126F07006688806434648844206D0AD
:102070004548844203D026F44076E888064326602B
:10208000A888A085288820853A48844202D03F4805
:10209000844201D1287A20860120A0822668354812
:1020A00084420ED0394884420BD0B4F1804F08D01E
:1020B0003148844205D03148844202D030488442BD
:1020C00006D1687A10B146F4006601E026F4006695
:1020D000B4F1804F08D02848844205D02748844274
:1020E00002D0274884420DD1A87A10B146F4805618
:1020F00001E026F48056E87A10B146F4005601E07B
:1021000026F40056B4F1804F05D01B48844202D01B
:102110001A48844206D1287B10B146F4804601E07B
:1021200026F48046134884420BD01848844208D0D5
:10213000B4F1804F05D01048844202D00F48844249
:1021400006D1687B10B146F4004601E026F4004653
:1021500026606668B4F1804F02D00848844206D1F8
:10216000A87B10B146F4807601E026F480766660A4
:1021700070BD0000002C0140000400400008004039
:10218000000C0040001000400014004000340140EA
:102190002E2E5C6669726D776172655C6E33326794
:1021A0003435785F7374645F7065726970685F64FA
:1021B00072697665725C7372635C6E333267343554
:1021C000785F74696D2E6300497354696D416C6C5E
:1021D0004D6F64756C652854494D782900000000E6
:1021E000497354696D436E744D6F64652854494D4D
:1021F0005F54696D6542617365496E6974537472A9
:102200007563742D3E436E744D6F64652900000044
:10221000497354696D436C6B4469762854494D5F2A
:1022200054696D6542617365496E69745374727562
:1022300063742D3E436C6B446976290010B540F2FF
:102240002551134800F040FAE8B112480078A8B9C7
:102250000F4800F0B1FCC4B20E484188001D445440
:10226000001F4088401C0B494880042000F092FD6C
:10227000094A3221042000F097FD08E0044800F0EC
:102280009BFCC4B203E0024800F096FCC4B210BD4F
:102290000038014084000020592D00082DE9F04746
:1022A00004460D4617464FF00008C246C1460026B8
:1022B0003D48844211D03D4884420ED03C4884427F
:1022C0000BD03C48844208D03B48844205D03B4870
:1022D000844202D03A48844200D105E040F27F12A5
:1022E00038A147A000F09CFE282D19D040F227709D
:1022F000854215D040F22660854211D040F225502B
:1023000085420DD040F22440854209D040F6460077
:10231000854205D040F66A10854201D0602D00D17B
:1023200005E04FF4C07227A13CA000F079FE0FB188
:10233000012F00D105E040F2811222A13EA000F061
:102340006FFE40F66A1085420FD11748844205D0CF
:102350001648844202D01648844200D105E040F27B
:10236000851218A13BA000F05BFE2646C5F342187B
:1023700005F01F0A012000FA0AF9B8F1010F01D196
:102380000C3605E0B8F1020F01D1103600E014362A
:1023900027B1306840EA0900306003E0306820EA85
:1023A00009003060BDE8F08700380140004400407B
:1023B00000480040004C00400050004000500140E8
:1023C000005401402E2E5C6669726D776172655C07
:1023D0006E3332673435785F7374645F7065726929
:1023E00070685F6472697665725C7372635C6E3389
:1023F00032673435785F75736172742E6300000044
:1024000049535F55534152545F414C4C5F504552C4
:1024100049504828555341525478290049535F5533
:10242000534152545F4346475F494E5428555341E8
:1024300052545F494E54290049535F46554E435408
:10244000494F4E414C5F535441544528436D6429D4
:102450000000000049535F55534152545F313233FD
:102460005F504552495048285553415254782900ED
:1024700070B504460D461948844211D0184884426C
:102480000ED0184884420BD01748844208D0174811
:10249000844205D01648844202D01648844200D1B6
:1024A00005E040F2591214A122A000F0B9FD0DB1CF
:1024B000012D00D105E04FF4AD720FA124A000F072
:1024C000AFFD25B1A08940F40050A08104E0A089AF
:1024D0004DF6FF710840A08170BD0000003801403A
:1024E0000044004000480040004C004000500040C4
:1024F00000500140005401402E2E5C6669726D77D9
:102500006172655C6E3332673435785F7374645F13
:102510007065726970685F6472697665725C737207
:10252000635C6E3332673435785F75736172742E15
:102530006300000049535F55534152545F414C4C76
:102540005F5045524950482855534152547829000C
:1025500049535F46554E4354494F4E414C5F535487
:1025600041544528436D64290000000070B50546BC
:102570000C4600262948854211D0294885420ED0B4
:10258000284885420BD02848854208D027488542F4
:1025900005D02748854202D02648854200D105E073
:1025A00040F2193224A133A000F03AFD012C13D0DF
:1025B000802C11D0402C0FD0202C0DD0102C0BD003
:1025C000B4F5807F08D0B4F5007F05D0082C03D087
:1025D000042C01D0022C00D105E040F21A3216A1E1
:1025E0002BA000F01DFDB4F5007F0FD10B488542F4
:1025F00005D00B48854202D00A48854200D105E04B
:1026000040F21E320CA129A000F00AFD28882040CB
:1026100008B1012600E00026304670BD00380140B8
:102620000044004000480040004C00400050004082
:1026300000500140005401402E2E5C6669726D7797
:102640006172655C6E3332673435785F7374645FD2
:102650007065726970685F6472697665725C7372C6
:10266000635C6E3332673435785F75736172742ED4
:102670006300000049535F55534152545F414C4C35
:102680005F504552495048285553415254782900CB
:1026900049535F55534152545F464C414728555367
:1026A0004152545F464C41472900000049535F5551
:1026B000534152545F3132335F504552495048289C
:1026C00055534152547829002DE9F04704460D46F0
:1026D00000270026B046B1463F48844211D03F480B
:1026E00084420ED03E4884420BD03E48844208D0FB
:1026F0003D48844205D03D48844202D03C48844253
:1027000000D105E040F26B323AA149A000F088FC0C
:10271000282D20D040F2277085421CD040F2266040
:10272000854218D040F22550854214D040F2244012
:10273000854210D040F6460085420CD040F66A1023
:10274000854208D0B5F5587F05D0B5F5187F02D081
:10275000B5F5B07F00D105E04FF45B7225A13BA039
:1027600000F05EFC40F66A1085420FD11A488442A0
:1027700005D01A48844202D01948844200D105E0AD
:102780004FF45C721BA138A000F04AFCC5F342185C
:1027900005F01F06012000FA06F6B8F1010F02D17C
:1027A000A089064007E0B8F1020F02D1208A064056
:1027B00001E0A08A06402F12012000FA07F72088C6
:1027C00007401EB117B14FF0010901E04FF00009B9
:1027D0004846BDE8F0870000003801400044004052
:1027E00000480040004C00400050004000500140B4
:1027F000005401402E2E5C6669726D776172655CD3
:102800006E3332673435785F7374645F70657269F4
:1028100070685F6472697665725C7372635C6E3354
:1028200032673435785F75736172742E630000000F
:1028300049535F55534152545F414C4C5F50455290
:1028400049504828555341525478290049535F55FF
:10285000534152545F4745545F494E5428555341A4
:1028600052545F494E54290049535F5553415254C5
:102870005F3132335F5045524950482855534152D9
:10288000547829002DE9F04786B005460C4600260D
:10289000B24600BF00BF00276748854211D0674895
:1028A00085420ED0664885420BD06648854208D0E6
:1028B0006548854205D06548854202D06448854216
:1028C00000D104E0C42263A171A000F0A9FB20683C
:1028D00020B176492068884200D204E0C5225DA17B
:1028E00073A000F09DFBA08818B1A088B0F5805FB0
:1028F00000D104E0C62257A179A000F091FBE08846
:1029000058B1E088B0F5805F07D0E088B0F5005F8F
:1029100003D0E088B0F5405F00D104E0C7224DA1AC
:102920007CA000F07DFB208938B12089B0F5806F54
:1029300003D02089B0F5C06F00D104E0C82245A1C2
:1029400080A000F06DFB60894FF6F371084010B96C
:10295000608900B104E0C9223EA185A000F060FBBF
:10296000A08958B1A089B0F5807F07D0A089B0F5C3
:10297000007F03D0A089B0F5407F00D104E0CA22D7
:1029800034A1854800F04CFBA08970B12A488542EB
:1029900005D02A48854202D02948854200D104E06A
:1029A000CE222CA17DA000F03BFB2F462E8A4CF6B8
:1029B000FF700640E08806432E82AE894EF6F31083
:1029C0000640A08821890843618908430643AE81F7
:1029D000AE8A4FF6FF400640A0890643AE826846A5
:1029E000FEF71CFD1448874205D01848874202D0E4
:1029F0001748874202D1DDF80CA001E0DDF808A0FD
:102A00000AEBCA0000EB0A1021688900B0FBF1F85C
:102A10006420B8FBF0F006013009642101FB108945
:102A2000322000EB0910B0FBF1F000F00F0006437C
:102A30002E8106B0BDE8F087003801400044004018
:102A400000480040004C0040005000400050014051
:102A5000005401402E2E5C6669726D776172655C70
:102A60006E3332673435785F7374645F7065726992
:102A700070685F6472697665725C7372635C6E33F2
:102A800032673435785F75736172742E63000000AD
:102A900049535F55534152545F414C4C5F5045522E
:102AA00049504828555341525478290021AA4400DE
:102AB00049535F55534152545F424155445241542A
:102AC000452855534152545F496E69745374727569
:102AD00063742D3E42617564526174652900000083
:102AE00049535F55534152545F574F52445F4C45D1
:102AF0004E4754482855534152545F496E697453A8
:102B000074727563742D3E576F72644C656E677492
:102B10006829000049535F55534152545F53544F45
:102B200050424954532855534152545F496E697479
:102B30005374727563742D3E53746F70426974736D
:102B40002900000049535F55534152545F50415290
:102B50004954592855534152545F496E697453740E
:102B6000727563742D3E506172697479290000009A
:102B700049535F55534152545F4D4F444528555377
:102B80004152545F496E69745374727563742D3E7B
:102B90004D6F6465290000004033000849535F55BC
:102BA000534152545F3132335F50455249504828A7
:102BB000555341525478290010B504460F488442B9
:102BC00011D00F4884420ED00E4884420BD00E48DC
:102BD000844208D00D48844205D00D48844202D07A
:102BE0000C48844200D105E040F251220AA119A00C
:102BF00000F016FAA088C0F3080010BD00380140AC
:102C00000044004000480040004C0040005000409C
:102C100000500140005401402E2E5C6669726D77B1
:102C20006172655C6E3332673435785F7374645FEC
:102C30007065726970685F6472697665725C7372E0
:102C4000635C6E3332673435785F75736172742EEE
:102C50006300000049535F55534152545F414C4C4F
:102C60005F504552495048285553415254782900E5
:102C700070B504460D461548844211D0144884426C
:102C80000ED0144884420BD01348844208D0134815
:102C9000844205D01248844202D01248844200D1B6
:102CA00005E04FF4107210A11EA000F0B9F9B5F5BF
:102CB000007F00DA05E040F241220BA120A000F0E5
:102CC000AFF9C5F30800A08070BD000000380140D6
:102CD0000044004000480040004C004000500040CC
:102CE00000500140005401402E2E5C6669726D77E1
:102CF0006172655C6E3332673435785F7374645F1C
:102D00007065726970685F6472697665725C73720F
:102D1000635C6E3332673435785F75736172742E1D
:102D20006300000049535F55534152545F414C4C7E
:102D30005F50455249504828555341525478290014
:102D400049535F55534152545F44415441284461B3
:102D50007461290000BFFEE710B501200249087028
:102D6000042000F017F810BD8400002010B50024E6
:102D700008E00020064941F8340001EBC401486036
:102D8000601CC4B20A2CF4DBFEF7CAFF10BD0000C1
:102D9000340000200021034A42F8301002EBC00248
:102DA0005160704734000020034B43F8301003EBB0
:102DB000C0035A60704700003400002010B50024A2
:102DC00019E00E4850F8340098B10C4850F834001F
:102DD000401E0A4941F83400084600EBC400406830
:102DE00038B1084650F8340018B901EBC4014868FE
:102DF0008047601CC4B20A2CE3DB10BD3400002005
:102E00000FB4054B10B503A9044A029800F02CF842
:102E100010BC5DF814FB00007530000810000020A5
:102E200010B5002804DB0A07130E054A135406E008
:102E30000A07140E034A00F00F031B1FD45410BDE1
:102E400000E400E018ED00E002E008C8121F08C12D
:102E5000002AFAD170477047002001E001C1121F1B
:102E6000002AFBD1704700002DE9FF4F8BB09A4636
:102E70000F460546002606E025280BD052460D9940
:102E800090476D1C761C28780028F5D10FB030468D
:102E9000BDE8F08F0024A0460122604900E0044311
:102EA00015F8013F203B02FA03F00842F7D12878D9
:102EB0002E2817D115F8010F44F004042A280ED04B
:102EC0006FF02F022878A0F1300109290AD808EB09
:102ED000880102EB410100EB01086D1CF2E757F895
:102EE000048B6D1C287869283ED006DC0028CDD0E4
:102EF00063280BD0642804D136E0732810D07528DD
:102F00004BD052460D999047761C85E017F8040B7C
:102F10008DF8000000208DF80100E946012003E053
:102F200057F8049B4FF0FF3061074FF0000401D4C5
:102F30000AE0641C44450DDA8442FADB19F80410F7
:102F40000029F6D106E0641C8442FCDB19F8041069
:102F50000029F8D1264404E019F8010B52460D99D6
:102F60009047641EF8D257E001CF4FF00A0B0028BB
:102F700002DA40422D2102E0210504D52B218DF8F3
:102F80002410012103E0E10705D02021F7E70DF12E
:102F9000200908910CE00021F9E701CF4FF00A0B5E
:102FA000F9E75946FDF714F901F1300209F8012D4E
:102FB0000028F6D1ADEB090000F1200B600701D429
:102FC0004FF00108D84502DDA8EB0B0000E000201F
:102FD0008046002406E009A85246005D0D999047FE
:102FE000641C761C08988442F5DB04E030205246CD
:102FF0000D999047761CB8F10001A8F10108F5DCA5
:1030000005E019F8010B52460D999047761CBBF16B
:103010000001ABF1010BF4DC6D1C34E70928010061
:1030200004460D46164633462A46214602A0FFF7BF
:10303000E7FE00BFFEE70000617373657274696F9D
:103040006E206661696C65643A206025736020615A
:10305000742025733A25640000B50246002300BFA2
:1030600004E046F2A810FDF70EF95B1C9342F8D37A
:1030700000BD000070B504460D46E1B20548FFF7FB
:10308000F7FD00BF40210348FFF770FA0028F9D090
:10309000204670BD0050004010B586B06846FEF76F
:1030A000BDF9012140F2FD10FEF752F9012108049B
:1030B000FEF782F84FF44070FDF7E4FF0420FEF7BE
:1030C000DBFA64210198B0FBF1F4601EB0F1807F5F
:1030D00000D30FE0601E4FF0E02148610F214FF058
:1030E000FF30FFF79DFE00204FF0E02188610720B0
:1030F000086100BF0021481EFFF792FEFDF71DFF8B
:1031000006B010BD10B586B0FDF717FF01213120C4
:10311000FEF71EF901210805FEF7B4F84FF48050C0
:10312000ADF8140018208DF8170003208DF8160054
:1031300005A91748FDF78CFC0420ADF814008DF8A4
:10314000170005A91348FDF783FC4FF4E130019007
:103150000020ADF80800ADF80A00ADF80C00ADF89D
:1031600010000820ADF80E0001A90B48FFF78AFBFC
:10317000012240F225510848FFF790F80121064846
:10318000FFF776F904480088C4B206B010BD00000D
:1031900000100140001401400050004008B52020FC
:1031A000ADF8000010208DF8030001208DF802001A
:1031B00069462048FDF74CFC20211E48FDF7F4FD30
:1031C0001D4A4FF4FA710120FFF7EEFD8020ADF8A3
:1031D000000010208DF8030001208DF802006946E0
:1031E0001448FDF735FC80211248FDF7DDFD102065
:1031F000ADF800008DF8030001208DF8020069464B
:103200000E48FDF725FC10210C48FDF7CDFD0120EF
:10321000ADF8000010208DF8030001208DF80200A9
:1032200069460748FDF714FC01210548FDF7BCFD80
:1032300008BD000000080140190F000800100140FF
:10324000000C0140FFF728FFFDF702F803A0FFF78D
:10325000D7FD01E0FDF70EF8FCE7000068656C6C37
:103260006F20776F726C640D0A0000000000000090
:10327000010203040102030406070809010204060F
:10328000080A0C102020202020202020010002000D
:103290000400060008000A000C0010002000400096
:1032A00080000001000100010001000149535F4E50
:1032B0005649435F5355425F5052494F5249545902
:1032C000284E5649435F496E69745374727563742E
:1032D0002D3E4E5649435F4952514368616E6E65BB
:1032E0006C5375625072696F7269747929000000BD
:1032F00049535F4E5649435F505245454D505449DE
:103300004F4E5F5052494F52495459284E564943E7
:103310005F496E69745374727563742D3E4E5649DD
:10332000435F4952514368616E6E656C50726565CA
:103330006D7074696F6E5072696F7269747929006B
:1033400049535F55534152545F484152445741528B
:10335000455F464C4F575F434F4E54524F4C285594
:10336000534152545F496E69745374727563742D7E
:103370003E4861726477617265466C6F77436F6E29
:1033800074726F6C29000000A83300080000002050
:1033900014000000482E0008BC3300081400002070
:1033A000C4F40000582E000800E1F50500000000FC
:0C33B00000000000010000000000000010
:040000050800019955
:00000001FF
