:020000040800F2
:1000000068690020AD010008D5440008AD2D000846
:10001000B13D00085D1100080581000800000000E6
:10002000000000000000000000000000BF01000808
:100030005F11000800000000C3010008D96000083B
:10004000C7010008C7010008C7010008C701000870
:10005000C7010008C7010008C7010008C701000860
:10006000D1190008C7010008C7010008C70100082E
:10007000C7010008C7010008C7010008C701000840
:10008000C7010008C7010008C7010008C701000830
:10009000C7010008C7010008C7010008C701000820
:1000A000C7010008C7010008C7010008C701000810
:1000B000C7010008C7010008C7010008C701000800
:1000C000C7010008C7010008C7010008C7010008F0
:1000D000C7010008C7010008D1740008297500088D
:1000E000C7010008C7010008C7010008C7010008D0
:1000F000C7010008C7010008C7010008C7010008C0
:10010000C7010008C7010008C7010008C7010008AF
:10011000B1740008C7010008D96B0008C7010008C6
:10012000C7010008C7010008C7010008C70100088F
:10013000C7010008C7010008C7010008C70100087F
:10014000C7010008C7010008C7010008C70100086F
:10015000C7010008C7010008C7010008C70100085F
:10016000C7010008C7010008C7010008C70100084F
:10017000C7010008C7010008C7010008C70100083F
:10018000C7010008C7010008C7010008C70100082F
:10019000C7010008C7010008DFF80CD000F050FBD1
:1001A000004800479D900008686900200648804785
:1001B00006480047FEE7FEE7FEE7FEE7FEE7FEE74C
:1001C000FEE7FEE7FEE7FEE7DD60000899010008B4
:1001D0000649074A0868504343F239021044086050
:1001E000400870470149086070470000E80200209D
:1001F0006D4EC64140EA01039B0703D009E008C9E0
:10020000121F08C0042AFAD203E011F8013B00F8DB
:10021000013B521EF9D27047D2B201E000F8012B27
:10022000491EFBD270470022F6E710B513460A4676
:1002300004461946FFF7F0FF204610BD30B50546CD
:100240002A460B4612F8010B13F8014B08B1A042E5
:10025000F8D01CB1002802D06D1CF1E7284630BD53
:10026000421C10F8011B0029FBD1801A704770B5A1
:10027000064607F0B9FF046805460A220021304609
:1002800000F002F92C6070BD2DE9FE4F81EA0304F5
:1002900004F0004421F0004100944FF0000B23F0E3
:1002A000004350EA01045ED052EA03045BD0C3F37A
:1002B0000A54C1F30A552C44A4F2F3340194A0FB70
:1002C0000254C1F3130141F48011C3F3130343F447
:1002D000801301FB024400FB034E840A970A44EAA0
:1002E000815447EA8357A4FB076802958D0A05FBF2
:1002F00007854FEA932C04FB0C542705029D4FEA17
:10030000065847EA1637B5EB08056EEB070C870E63
:10031000920E47EA811742EA8312A7FB0201B6EB6D
:100320000B0164EB00042B0D43EA0C335E1844EB25
:100330001C50DA465146E7FB0201C5F313044FEAAD
:100340000B3343EA14534FEA0432019C43EA060399
:10035000A4F10C040294009CCDE900B400F0DBF899
:1003600003B0BDE8F08F00200146F9E70EB5C10FDC
:1003700080EAE0700844CA07002140F233438DE868
:100380000E000A460B4600F0C6F803B000BD0EB5DD
:1003900040F2334102910021CDE900110A460B469B
:1003A00000F0B9F803B000BDC1F30A5210B5C1F3B3
:1003B000130140F2FF3341F480119A4201DA002028
:1003C00010BD40F233439A42A2F2334203DC524260
:1003D00000F04AF810BD904010BD30B50B46014604
:1003E00000202022012409E021FA02F59D4205D3D4
:1003F00003FA02F5491B04FA02F52844151EA2F17E
:100400000102F1DC30BD2DE9F05F05460020924687
:100410009B4688460646814640241BE028464146C6
:100420004746224600F020F853465A46C01A9141EA
:1004300010D311461846224600F014FA2D1A67EB25
:1004400001084F4622460120002100F00BFA17EB6D
:1004500000094E41201EA4F10104DFDC484631466C
:100460002A464346BDE8F09F202A04DB203A21FAC1
:1004700002F00021704721FA02F3D040C2F12002BD
:1004800091400843194670472DE9F04791460F46C1
:1004900080460446002614F8015B2DB100F004FAF2
:1004A0000068405DC007F6D12B2D02D02D2D18D04D
:1004B000641E4A463946204600F0FAF927B13968E9
:1004C000A14201D1C7F8008071054FF002040BD59D
:1004D0004042002803DD07F087FE0460A007BDE866
:1004E000F08746F48066E4E70028F8DA07F07CFE3F
:1004F00004606FF00040F2E710B5141E73F10004C1
:1005000008DA401C41F1000192185B411A4301D105
:1005100020F0010010BD2DE9F04D92469B4611B12F
:10052000B1FA81F202E0B0FA80F22032904600F097
:1005300099F904460F4640EA0A0041EA0B01534686
:100540005A46084313D0114653EA010019D0C8F1A6
:1005500040025046FFF788FF05460E465046594672
:10056000424600F07FF9084305D0012004E0204610
:100570003946BDE8F08D0020054346EAE0762C437D
:1005800037430A986305E40AA0EB08000022FD0A3D
:1005900044EA47540A3002D500200146E9E7010544
:1005A00010196941DDE9084500196941BDE8F04DC0
:1005B000A2E72DE9FE4F804681EA0300C00F0C46FA
:1005C000009021F0004123F00045B8EB0200A94162
:1005D00005D24046214690461C460B46024623F073
:1005E0000040104347D0270DC7F30A00C3F30A5158
:1005F0000290401A019040286BDAC3F3130040F4D4
:10060000801B0098924620B10023D2EB030A63EBD3
:100610000B0B01985946C0F14002504600F022F9F8
:1006200006460D4650465946019A00F02AF910EB4D
:1006300008006141002487EA115284EAE7731A43F3
:1006400040D0009A62B3019A012A4FEA075215DCA2
:10065000001B61EB02014FF0004202EA0752CDE9B4
:100660000042001C41F5801132462B46FFF753FF34
:1006700003B0BDE8F08F40462146F9E7001B61EB6F
:100680000201001C41F5801300185B412018A2F5FF
:10069000001747EB030140EAD570B6196D4111E030
:1006A0006D084FEA360645EAC0754FEA0752001B4F
:1006B00061EB0201001C41F5801149084FEA30004E
:1006C0000019514132462B4603B0BDE8F04FFFF709
:1006D00013BF0098012240000023D0EB020263EB1D
:1006E000E073009821464FEAE074B8EB000061EB3C
:1006F0000401E9E783F000435BE781F0004158E73C
:100700002DE9F04D81EA030404F0004B21F000458F
:1007100014464FF0000A23F0004150EA050220D0B1
:1007200054EA01021DD0C5F30A570246C5F313036C
:10073000C1F31300C1F30A5640F4801543F480134B
:10074000A7EB0608101BD64608F2FD3873EB050030
:1007500002D308F1010801E092185B41B8F1000FE3
:1007600003DA00200146BDE8F08D00204FF480112F
:10077000064684460EE0171B73EB050705D3121BD4
:1007800063EB050306434CEA010C49084FEA3000CD
:1007900092185B4150EA0107EDD152EA030012D0F2
:1007A00082EA040083EA0501084305D0101BAB412F
:1007B00006D20122002306E000224FF0004302E0AF
:1007C0006FF0010253101AEB06004CEB085110EBCE
:1007D0000A0041EB0B01BDE8F04DFFF78DBEC1F300
:1007E0000A52C1F3130140F2FF3341F480119A42DF
:1007F00002DA00200146704740F233439A42A2F2E7
:10080000334202DC5242FFF72FBE00F02BB800004B
:1008100030B5041E71F1000404DB4FF00044404287
:1008200064EB0101141E73F1000405DB1C464FF05C
:100830000043524263EB0403994208BF904230BD2B
:10084000064C074D06E0E06840F0010394E807001D
:1008500098471034AC42F6D3FFF7A2FC90BB0008D7
:10086000B0BB0008202A04DB203A00FA02F1002085
:1008700070479140C2F1200320FA03F319439040DE
:100880007047202A06DBCB17203A41FA02F043EAF0
:10089000E07306E041FA02F3D040C2F12002914039
:1008A0000843194670470000004870470CBA00081A
:1008B0002DE9F05F82460078002715468B460AF145
:1008C0000104B946302801D09DB113E014F8010BA2
:1008D0000127782803D0582801D045B10AE00DB18E
:1008E000102D07D10027102514F8010B02E0082570
:1008F00000E00A250026B0460EE005FB080005FBD7
:1009000006F1012701EB10461FFA80F8B6F5803F8B
:1009100000D3B94614F8010B294600F018F8002856
:10092000EBDABBF1000F05D00FB1641E00E05446B6
:10093000CBF80040B9F1000F06D007F055FC0221BA
:100940000160C81EBDE8F09F48EA0640FAE73A2871
:1009500000D2303820F02002412A01D3A2F1370022
:10096000884201D34FF0FF30704770B58C1810F8F3
:10097000015B15F0070301D110F8013B2A1106D1E4
:1009800010F8012B03E010F8016B01F8016B5B1EFE
:10099000F9D12B0705D40023521E0DD401F8013BD9
:1009A000FAE710F8013BCB1A921C03E013F8015B45
:1009B00001F8015B521EF9D5A142D8D3002070BDC9
:1009C000F8B54FF40050ADF8000010250E4E8DF82C
:1009D000035001248DF802406946304601F00CFFB7
:1009E0002103ADF800108DF803508DF802406946E0
:1009F000304601F001FF6103304602F011F9210396
:100A0000304602F00DF9F8BD000C014070B5C0F39E
:100A100007110E2202EAD10200F00F0001F00F01CF
:100A200042F0A00440EA011502F040FB04F0FE0091
:100A300002F0FEFA02F088FB284602F0F9FA02F012
:100A400083FB02F033FB44F0010002F0F1FA02F004
:100A50007BFB002002F06EFA044602F051FB44F6E4
:100A6000206008F0B9F8204670BD70B502460E4609
:100A7000C0F307100E2101EAD00102F00F0200F0CE
:100A80000F0041F0A00442EA001502F00FFB2046DF
:100A900002F0CEFA02F058FB284602F0C9FA02F042
:100AA00053FB304602F0C4FA02F04EFB02F028FB82
:100AB000BDE8704044F6206008F08EB870B51D4C5B
:100AC0000025E07A10B1012813D010E02079401CF5
:100AD000207103F0E9FC0C2117A007F0F7FA64215C
:100AE0006570194A0F2007F039FB0120E0720020E1
:100AF00070BD03F0CDFC002808BF70BD134E3068F8
:100B000004F066F901461248326801F075FA11A145
:100B10000F48FFF793FB00281EBFE572012070BD50
:100B200020790A2898BFE572E1D92571E572022083
:100B300070BD00005400002041542B5149414354E2
:100B40003D310D0A00000000C9440008500000209B
:100B5000201100204F4B00000146064A0978002072
:100B6000135C994208BF7047401CC0B20A28F7D3F3
:100B700070470000E69100082DE9F0014FF0000CED
:100B8000002A88BF154C24D911F81C60002314F8E2
:100B90000380464504BF1D072D0E5B1CDBB2102BE6
:100BA000F5D301EB4C060023767814F80380464514
:100BB00008BF03F00F075B1CDBB2102BF5D345EA2F
:100BC000070300F80C300CF101031FFA83FC944575
:100BD000DAD3BDE8F001500870470000E691000844
:100BE00038B5044600200090042C18BF082C54D0BF
:100BF0000C2C18BF102C50D0142C18BF182C4CD013
:100C00001C2C18BF202C48D0242C18BF282C44D0D2
:100C1000402C18BF442C40D0482C18BF4C2C3CD042
:100C2000502C18BF542C38D0582C18BF5C2C34D002
:100C3000602C18BF642C30D0682C18BF6C2C2CD0C2
:100C4000702C18BF742C28D0782C18BF7C2C24D082
:100C5000802C18BF842C20D0882C18BF8C2C1CD042
:100C6000902C18BF942C18D0982C18BF9C2C14D002
:100C7000A02C18BFA42C10D0A82C18BFAC2C0CD0C2
:100C8000B02C18BFB42C08D0B82C18BFBC2C04D082
:100C9000C62205A112A007F009FF04F1804000F56B
:100CA000D8400090008838BD2E2E5C6669726D7742
:100CB0006172655C6E3332673435785F7374645F7C
:100CC0007065726970685F6472697665725C737270
:100CD000635C6E3332673435785F626B702E63000D
:100CE00049535F424B505F44415428424B505F444C
:100CF0004154290038B5044600200D460090042CCC
:100D000018BF082C54D00C2C18BF102C50D0142C09
:100D100018BF182C4CD01C2C18BF202C48D0242CC9
:100D200018BF282C44D0402C18BF442C40D0482C4D
:100D300018BF4C2C3CD0502C18BF542C38D0582CF9
:100D400018BF5C2C34D0602C18BF642C30D0682CB9
:100D500018BF6C2C2CD0702C18BF742C28D0782C79
:100D600018BF7C2C24D0802C18BF842C20D0882C39
:100D700018BF8C2C1CD0902C18BF942C18D0982CF9
:100D800018BF9C2C14D0A02C18BFA42C10D0A82CB9
:100D900018BFAC2C0CD0B02C18BFB42C08D0B82C79
:100DA00018BFBC2C04D0B32205A113A007F07EFE0F
:100DB00004F1804000F5D8400090056038BD000087
:100DC0002E2E5C6669726D776172655C6E33326778
:100DD0003435785F7374645F7065726970685F64DE
:100DE00072697665725C7372635C6E333267343538
:100DF000785F626B702E630049535F424B505F44D3
:100E0000415428424B505F444154290000000000E7
:100E10002DE9F0415E4C8188A1808179A171B0F803
:100E200001102180C178A170B0F807102181417AAA
:100E3000A1724189A181017BA173B0F80D102182BB
:100E4000C17BA174018AA182817CA175B0F81310C5
:100E50002183407DA0766068FFF799FA9FED4E1BD5
:100E600053EC112BFFF710FAFFF79EFA04F11C0563
:100E700086B22E802068FFF78AFA9FED491B53EC5B
:100E8000112BFFF701FAFFF78FFA07466860E06859
:100E9000B0F5000F03DBC043401CC0F31600FFF7A2
:100EA00065FA9FED411B53EC112BFFF7EDF9FFF7AE
:100EB0007BFA80B200EE100A28813F4BB8EE401A50
:100EC00000EE106AB8EE400AC1EE000A00EE107A99
:100ED000B8EE400A80EE801A9FED350A61EE000AF6
:100EE0009FED340A60EE800AFCEEE00A10EE900AF4
:100EF0002874206959680844586019469A68C96876
:100F0000904203D3821A1144D96006E06FF07F4CFF
:100F1000ACEB020202441144D9600022C3E9012073
:100F20000D291CD300EE901A9FED241AE968F8EE03
:100F3000600A60EE810A20EE800ABCEEC00A10EE64
:100F4000100A0844E860010C0820DA6003F024FA73
:100F5000A88981B2092003F01FFA01F011F829884D
:100F6000042003F019FA16496868A1FB0010C0F3C9
:100F7000CF01052003F010FA2989072003F00CFAAD
:100F8000297CBDE8F041062003F006BA000000000D
:100F9000400C0020000000009FE74A621B81103FC8
:100FA000CD2D44350B4E903F56B7DD7835487A3F0E
:100FB0000000C84200007A4440000020EDF8433AA7
:100FC000CDCCCCCC08B507A00068009006480178CD
:100FD000012918BF08BD002101700221684606F0F2
:100FE000DFFF08BD58AA000040000020084808B5EF
:100FF0000068009007480178012905D1002101709F
:101000000221684606F0CCFFBDE8084006F0E4BFC8
:10101000E40F00084000002038B50220ADF80000C1
:1010200010208DF803000120104C8DF80200694655
:10103000204601F0E1FB0221204601F087FD02215C
:10104000204601F0EDFD4FF4FA7007F0B9FD0221E2
:10105000204601F07BFD40F6B83007F0B1FD044AB0
:1010600040F6B831042007F079F838BD0008014097
:10107000995D000838B507F0D9FD07F055F801244F
:10108000ADF8004010258DF803508DF802406946F8
:10109000224801F0B1FB224A1E21022007F05EF82F
:1010A00003F07EFE07F0B8FE07F0F2FD07F072FED7
:1010B00003F011FA04F0D2FEFFF7AEFF07F098FF3D
:1010C0002003ADF800008DF80350164D8DF8024056
:1010D0006946284601F090FB2103284601F036FDC1
:1010E000ADF8004004218DF803106946284601F050
:1010F00083FB05F093F904F08BFE04F01BF9FFF776
:101100005FFC00F063FE02F003FB07F023FF05F035
:1011100057FDBDE8384004A007F042B80010014078
:10112000691900080008014048656C6C6F20576F12
:10113000726C64210D0A0000074910B50120487047
:1011400002F0A8FBFFF752FF07F050FF06F02EF960
:10115000BDE8104000F045BF2A000020FEE77047C0
:1011600070B584B000254CF2186428B301281CBF68
:1011700004B070BD1026CDE900464FF61F030022D3
:101180000C21E820029505F047FBCDE900464FF61B
:101190001F0301220C21F820029505F03DFBCDE94B
:1011A00000464FF61F0302220C214FF48470029573
:1011B00005F032FB04B070BD1820CDE900400023DB
:1011C00003A20C210295E82005F09EFC04B070BD3E
:1011D000202020200000000070B5002484B02025CD
:1011E0004CF21866E8B101281CBF04B070BD0120A4
:1011F00002F038FB0096CDE901544FF478431422F5
:10120000C021E02005F008FB0096CDE901544FF421
:1012100078430F22C0214FF4807005F0FDFA04B02E
:1012200070BD002002F01EFB0096CDE901544FF482
:10123000FC631522C021E02005F0EEFA0096CDE90E
:1012400001544FF4FC630F22C0214FF4807005F06D
:10125000E3FA04B070BD70B5002484B020254CF2D0
:101260001866E0B101281CBF04B070BD012002F077
:1012700005FB0096CDE901544FF4FC631122402197
:10128000E02005F0C9FA0096CDE9015440214FF461
:10129000FC631322880005F0BFFA04B070BD002083
:1012A00002F0ECFA0096CDE901544FF47843122293
:1012B0004021E02005F0B0FA0096CDE9015440212C
:1012C0004FF478431322880005F0A6FA04B070BDED
:1012D00070B5002484B020254CF21866E0B10128D6
:1012E0001CBF04B070BD012002F002FB0096CDE9E6
:1012F00001544FF4FC630B22C021582005F08CFAF6
:101300000096CDE901544FF4FC630C22C0217820F3
:1013100005F082FA04B070BD002002F0E9FA0096F0
:10132000CDE901544FF478430D22C021582005F037
:1013300073FA0096CDE901544FF478430E22C02190
:10134000782005F069FA04B070BD000000000000CC
:10135000F0B5754A18252DED028B87B05078734F84
:10136000401CC0B20024724950704CF21866072825
:1013700080F0D480DFE800F0D204273845535B00CA
:10138000CDE9004602953A8804230821002005F0A3
:1013900061FBCDE900460295BA78022308213C2082
:1013A00005F058FBCDE900460295FA7802230821A2
:1013B000602005F04FFBCDE900460295012308218E
:1013C000FA79CC2025E0CDE9004602953A7902234E
:1013D0000821842005F03EFBCDE90046029502235A
:1013E00008217A79A82014E0CDE9004602950A8800
:1013F00004234021582005F02DFB07B0BDEC028BE3
:10140000F0BDCDE9004602958888052382B26021AF
:101410000BE005F01FFB07B0BDEC028BF0BDCDE982
:10142000004602950A89062380215820F1E7C86802
:10143000002866D03F49A1FB002149096FF018023E
:10144000514310EB81019FED3C8B24D03C49A1FB23
:101450000021C908494201EB810110EB410135D05F
:10146000FEF795FF53EC182BFEF70EFF41EC100B27
:1014700034A153EC102B03A806F0A2FE0096CDE990
:101480000154002303AAA021642005F03DFB07B00E
:10149000BDEC028BF0BDFEF77AFF53EC182BFEF784
:1014A000F3FE41EC100B29A153EC102B03A806F01E
:1014B00087FE0096CDE90154002303AAA0216420F1
:1014C00005F022FB07B0BDEC028BF0BDFEF75FFF1D
:1014D00053EC182BFEF7D8FE41EC100B1DA153EC7A
:1014E000102B03A806F06CFE0096CDE901540023F2
:1014F00003AAA021642005F007FB07B0BDEC028B16
:10150000F0BD0096CDE90154002314A2A02164206F
:1015100005F0FAFA07B0BDEC028BF0BD547007B0CD
:10152000BDEC028BF0BD00006B00002034000020F9
:101530005C0C00201F85EB51FCA9F1D24D62503F9D
:10154000CDCCCCCC252E336600000000252E316694
:1015500000000000252E3266000000003000000070
:101560002DE9F0412DED028B86B04CF2186400217C
:10157000F0234FF4A0720846009404F028FF4FF4C3
:101580007840302300904FF4A0721946002004F0F8
:10159000BFFE0025DE4FCDE90054182602963A889A
:1015A00004230821284605F055FACDE9004600231A
:1015B000D8A208213020029505F0A6FACDE9005402
:1015C0000296BA78022308213C2005F043FACDE9BF
:1015D00000460023CFA208215420029505F094FA7A
:1015E000CDE900540296FA7802230821602005F024
:1015F00031FACDE9005402963A7902230821842079
:1016000005F028FACDE900460023C3A208219C205A
:10161000029505F079FACDE9005402967A79022311
:101620000821A82005F016FACDE900540296FA79AF
:1016300001230821CC2005F00DFA042002F07AFEE7
:10164000FFF78EFDCDE900460023B4A208214FF438
:101650009170029505F058FA20270023CDE9004744
:101660001A4640211846029505F0D6F8CDE9004704
:101670000023012240212020029505F0CDF8CDE97C
:10168000004640210023A4A20846029505F03CFA3A
:10169000DFF88C82CDE900540296B8F800200423CC
:1016A0004021582005F0D6F9CDE9004600239DA23F
:1016B0004021A020029505F027FACDE900474FF41C
:1016C000784312224021E020029505F0A5F8CDE9EB
:1016D000004740214FF4784313228800029505F01B
:1016E0009BF80023CDE900471A4660211846029571
:1016F00005F092F8CDE90047002302226021202066
:10170000029505F089F8CDE90046002382A2602108
:101710004020029505F0F8F9CDE900540296B8F89A
:101720000400052382B26021582005F093F9CDE929
:10173000004600237CA26021AC20029505F0E4F96C
:10174000CDE900470023032280211846029505F0C9
:1017500063F8CDE900470023042280212020029570
:1017600005F05AF8CDE9004600236BA28021402005
:10177000029505F0C9F9CDE900540296B8F80820A1
:1017800006238021582005F065F9CDE900460023A5
:1017900066A28021D020029505F0B6F9CDE9004778
:1017A00000230722A0211846029505F035F8CDE95F
:1017B000004700230822A0212020029505F02CF8E4
:1017C000CDE90046002354A2A0214020029505F057
:1017D0009BF9D8F80C0000285CD05549A1FB0021EA
:1017E0004909F243514310EB81019FED538B21D006
:1017F0005349A1FB0021C908494201EB810110EBCB
:1018000041012FD0FEF7C3FD53EC182BFEF73CFD32
:1018100041EC100B4BA153EC102B03A806F0D0FCAD
:10182000CDE90046002303AAA0216420029505F01B
:101830006BF938E0FEF7ABFD53EC182BFEF724FDF7
:1018400041EC100B41A153EC102B03A806F0B8FC9F
:10185000CDE90046002303AAA0216420029505F0EB
:1018600053F920E0FEF793FD53EC182BFEF70CFD27
:1018700041EC100B37A153EC102B03A806F0A0FC91
:10188000CDE90046002303AAA0216420029505F0BB
:101890003BF908E0CDE90046002330A2A0216420F6
:1018A000029505F031F9CDE9004600232CA2A021D4
:1018B0004FF48070029505F027F9CDE90047002329
:1018C0000922C0211846029504F0A6FFCDE9004781
:1018D00000230A22C0212020029504F09DFFCDE9BB
:1018E000004600230CA2C0214020029505F00CF90F
:1018F000012002F01FFDFFF7EBFC022002F01AFDB1
:10190000FFF76AFC06B0BDEC028BBDE8F081000079
:10191000340000202F0000003A000000344700008F
:101920005C0C0020560000006D41000057000000D4
:101930001F85EB5100000000FCA9F1D24D62503F21
:10194000CDCCCCCC252E336600000000252E316690
:1019500000000000252E326600000000300000006C
:101960004B572F480000000010B5174CE07868B1C5
:101970002179164800294FF0010102D001F050F9F9
:1019800001E001F0E3F82079C043207120890021B3
:10199000B0F57A7F28BF21810CD2401C0004000CD6
:1019A000208107D0A0F54072E73A02BF6078002896
:1019B000E17000E06170AFF24F021E21BDE81040FF
:1019C000022006F0CBBB00002A00002000100140DE
:1019D00010B5042000F028F8002808BF10BD07F05B
:1019E000B3FABDE810400420AFF3008010B5044600
:1019F000800D00D12CB940F20112034903A007F079
:101A000055F80848046010BDECBA000849535F451A
:101A10005854495F4C494E4528455854495F4C69D4
:101A20006E6529001404014070B5002504460128A4
:101A300018BF022C3AD0042C18BF082C36D0102C1A
:101A400018BF202C32D0402C18BF802C2ED0B4F5DB
:101A5000807F18BFB4F5007F28D0B4F5806F18BF21
:101A6000B4F5006F22D0B4F5805F18BFB4F5005F05
:101A70001CD0B4F5804F18BFB4F5004F16D0B4F5A4
:101A8000803F18BFB4F5003F10D0B4F5802F18BFC9
:101A9000B4F5002F0AD0B4F5801F18BFB4F5001FAD
:101AA00004D0EB22074908A007F000F80D480068B1
:101AB0000D492040096821421CBF00280125284605
:101AC00070BD0000ECBA000849535F4745545F45BC
:101AD0005854495F4C494E4528455854495F4C6914
:101AE0006E652900000401401404014010B504464D
:101AF0000079002818BF042804D073222F4930A091
:101B000006F0D4FF607908281CBF0C28102804D0E8
:101B100074222A4935A006F0C9FF2068810D00D142
:101B200020B9752225493DA006F0C0FFA079002804
:101B300018BF012804D07622204943A006F0B6FF42
:101B4000A1794E48002930D0016822689143016094
:101B5000001D0168226891430160207900F18040F6
:101B600000F5823001682268114301604449086829
:101B70002268904308600A1D10682368984310602B
:101B80006079102808D000F1804000F582300168AB
:101B900022681143016010BD08682368184308607B
:101BA000106821680843106010BD207900F1804062
:101BB00000F58230016822689143EBE7ECBA000837
:101BC00049535F455854495F4D4F44452845585443
:101BD000495F496E69745374727563742D3E45583C
:101BE00054495F4D6F6465290000000049535F450B
:101BF0005854495F5452494747455228455854491B
:101C00005F496E69745374727563742D3E45585400
:101C1000495F5472696767657229000049535F45DF
:101C20005854495F4C494E4528455854495F496EC0
:101C300069745374727563742D3E455854495F4CF2
:101C4000696E65290000000049535F46554E4354B4
:101C5000494F4E414C5F53544154452845585449CF
:101C60005F496E69745374727563742D3E455854A0
:101C7000495F4C696E65436D6429000000040140B2
:101C800008040140001DFEF7F0BE2DE9F0475FEAB1
:101C9000010807464FF000041ABF4FF017094FF034
:101CA000180ABDE8F087E519E8B202F059FB010A0D
:101CB0003E1909EB4600FEF7D8FEE8B202F050FBF1
:101CC000C1B20AEB4600FEF7D0FE601CC4B2A045CC
:101CD000E9D8BDE8F08710B500211720FEF7C5FE52
:101CE00001211820FEF7C1FE00211920FEF7BDFEDC
:101CF00000211A20FEF7B9FE25211B20FEF7B5FEB4
:101D000080211C20FEF7B1FE01211D20FEF7ADFE53
:101D10000E211E20FEF7A9FE00211F20FEF7A5FEC2
:101D2000B4212020FEF7A1FE1F212120FEF79DFEF9
:101D300040212220FEF799FE00212320FEF795FE88
:101D40001E212420FEF791FE00212520FEF78DFEA6
:101D500050212620FEF789FE44212720FEF785FE2C
:101D6000C0212820FEF781FE00212920FEF77DFEFC
:101D70003F212A20FEF779FE00213120FEF775FE73
:101D800002213220FEF771FE00213320FEF76DFEA6
:101D9000FF213420FEF769FE00213520FEF765FEA5
:101DA00000213620FEF761FE00213720FEF75DFEA0
:101DB0007F213820FEF759FE17213920FEF755FE06
:101DC0003B21BDE810403A20FEF74FBEF8B5002495
:101DD0006D462046FEF71AFE2855601CC4B2042C3E
:101DE000F7D39DF8000018251726A12804BF9DF8F9
:101DF0000100582807D19DF80200592804BF9DF81A
:101E00000300A22841D0A1210020FEF72EFE582178
:101E10000120FEF72AFE59210220FEF726FEA2210C
:101E20000320FEF722FE00218F20FEF71EFE002178
:101E30009020FEF71AFE00219120FEF716FE0021E9
:101E40009220FEF712FE00F079F800210420FEF740
:101E50000CFE01210520FEF708FE00210620FEF7FA
:101E600004FE01210720FEF700FE00210820FEF7F6
:101E7000FCFDFFF730FF00F061F80024201DFEF7A5
:101E8000C5FD012833D088B33AE000F057F80024AC
:101E9000201DFEF7BBFD012801D028B108E001217B
:101EA000204602F063FA03E00021204602F05EFAC9
:101EB000601CC4B2052CEBD3012002F03BFA03F006
:101EC00077FF002405EB4400FEF7A0FD074606EB74
:101ED0004400FEF79BFD07EB002081B2204602F094
:101EE00061FA601CC4B2212CECD3F8BD04E00121DE
:101EF000204602F03BFA03E00021204602F036FAC9
:101F0000601CC4B2052CB9D3012002F013FA03F00F
:101F10004FFF002405EB4400FEF778FD074606EB73
:101F20004400FEF773FD07EB002081B2204602F06B
:101F300039FA601CC4B2212CECD3F8BD10B58F2047
:101F4000FEF764FD04069020FEF760FD04EB0044FC
:101F50009120FEF75BFD04EB00249220FEF756FD76
:101F60002044064C010CE060082002F015FAA0891C
:101F7000BDE8104081B2092002F00EBA5C0C0020CE
:101F800010B50C4CE068010E8F20FEF76EFDE06886
:101F9000C0F307419020FEF768FDA089C0F3072138
:101FA0009120FEF762FD217BBDE810409220FEF7F4
:101FB0005CBD00005C0C002010B500218F20FEF7F6
:101FC00054FD00219020FEF750FD00219120FEF7E6
:101FD0004CFD00219220FEF748FDBDE81040FFF7C0
:101FE000ADBF10B502F066FC01F0A6FC02F090FB5C
:101FF000BDE8104002F0FABB0023002998BF7047EB
:10200000F0B40026D2E902C4644508BF34460BD0C0
:102010001468556814F80C400CF1010C9CFBF5F7A2
:1020200005FB17CCC2F808C0C4545B1C8B42E9D333
:10203000F0BC704770B50C46050018BF012D0ED0DE
:10204000022D18BF032D0AD0042D1CBF052D062D0F
:1020500005D040F247321FA12DA006F027FD002C2D
:1020600018BF012C21D0022C18BF032C1DD0042C2A
:1020700018BF052C19D0062C18BF072C15D0082C1A
:1020800018BF092C11D00A2C18BF0B2C0DD00C2C0A
:1020900018BF0D2C09D00E2C18BF0F2C05D04FF4F3
:1020A00052720CA124A006F001FDA007010F0F2021
:1020B00000FA01F224F0030000F1804000F58030C6
:1020C000836823EA02028260826805FA01F1114303
:1020D000816070BD2E2E5C6669726D776172655C81
:1020E0006E3332673435785F7374645F706572691C
:1020F00070685F6472697665725C7372635C6E337C
:1021000032673435785F6770696F2E6300000000B6
:1021100049535F4750494F5F455854495F504F52AC
:10212000545F534F5552434528506F7274536F7527
:10213000726365290000000049535F4750494F5FB3
:1021400050494E5F534F555243452850696E536F67
:10215000757263652900000070B50D4604460128BC
:1021600018BF022C00F0E081042C18BF082C00F0EE
:10217000DB81A4F5A01010381CBFA4F5A010B0F1AD
:10218000300000F0D181A4F5B01040381CBFA4F598
:10219000B010B0F1C00000F0C781A4F5C010B0F5D8
:1021A00080701CBFA4F5C010B0F5007000F0BC81B9
:1021B000A4F5C010B0F540701CBFA4F5C010B0F578
:1021C000023000F0B181A4F5C010B0F5033018BFA3
:1021D000B4F5805F00F0A881B4F5E91F18BFB4F52D
:1021E000EA1F00F0A181B4F5EB1F18BFB4F5004F52
:1021F00000F09A816FF40010C4421CBFA4F50010D7
:10220000B0F1020000F09081A4F50010001F1CBF87
:10221000A4F50010B0F1080000F08681A4F50010CC
:1022200010381CBFA4F54010B0F5807000F07C8120
:10223000A4F54010B0F500701CBFA4F54010B0F537
:10224000806000F07181FB4884421CBF6FF08040C9
:10225000C44200F06981F84884421CBFF7488442B8
:1022600000F06281F64884421CBFF648844200F0C8
:102270005B81F54884421CBFF448844200F05481DD
:10228000F34884421CBFF348844200F04D81F24879
:1022900084421CBFF148844200F04681F0488442E9
:1022A0001CBFF048844200F03F81A4F18040B0F5AB
:1022B000F2101CBFA4F18040B0F5F41000F034819E
:1022C000A4F18040B0F5F6101CBFE748844200F04E
:1022D0002B81E64884421CBFE548844200F02481FB
:1022E000A4F18040B0F190701CBFE248844200F03D
:1022F0001B81E14884421CBFA4F18040B0F184609E
:1023000000F01281DD4884421CBFDD48844200F0A9
:102310000B81DC4884421CBFDB48844200F004810E
:10232000DA4884421CBFDA48844200F0FD80D94874
:1023300084421CBFD848844200F0F680D7488442CB
:102340001CBFD748844200F0EF80D64884421CBFAF
:10235000D548844200F0E880D44884421CBFD44869
:10236000844200F0E180A4F18040B0F579101CBFF8
:10237000A4F18040B0F57B107ED0CE4884421CBFD3
:10238000CD48844278D0CD4884421CBFCC4884429A
:1023900072D0CC4884421CBFCB4884426CD0CB481E
:1023A00084421CBFCA48844266D0CA4884421CBFCB
:1023B000C948844260D0C94884421CBFC84884428E
:1023C0005AD0C84884421CBFC748844254D0C7482A
:1023D00084421CBFA4F10050B0F580504CD0A4F151
:1023E0000050B0F580401CBFA4F10050B0F5004093
:1023F00042D0BF4884421CBFBE4884423CD0BE4845
:1024000084421CBFBD48844236D0BD4884421CBFB4
:10241000BC48844230D0BC4884421CBFBB48844284
:102420002AD0BB4884421CBFBA4884427CD0A4F561
:10243000001080381CBFA4F5B010B0F1800073D03C
:10244000A4F1815080381CBFA4F18150B0F140004C
:102450006AD0A4F1815020381CBFA4F18150B0F1A2
:10246000100061D0A4F1815008381CBFA4F1815044
:10247000B0F1040058D000E056E0A4F18150801E75
:102480001CBF6FF08150C4424ED0A4F18050B0F513
:1024900000401CBFA4F18050B0F5804044D0A4F1AE
:1024A0008050B0F5005018BFB4F1102F3CD0A4F10B
:1024B0008050B0F500601CBFA4F18050B0F5806082
:1024C00032D0A4F18050B0F500701CBFA4F1805050
:1024D000B0F5807028D0A4F1805080381CBFA4F1E2
:1024E0008050B0F140001FD0A4F1805020381CBFB4
:1024F000A4F18050B0F1100016D0A4F1805008383B
:102500001CBFA4F18050B0F104000DD0A4F18050A4
:10251000801E1CBF6FF08050C44205D040F27A226A
:102520007DA18CA006F0C2FA002D18BF012D05D0A8
:1025300040F27B2278A18DA006F0B8FA924A14F0FE
:10254000004F18BFD0691ED090491FFA84FC04EADE
:102550000106C4F340510B01A1B29940B6F5401FEA
:1025600021D014F4801F24D014F4001F4FF0030373
:10257000C4F3034603FA06F318BF1B04984314F090
:10258000E04F52D11EE114F0804F18BF106ADBD12A
:1025900014F0005F18BF506AD6D114F0805F14BFEA
:1025A000906A5068D0E7536820F0706023F0706341
:1025B000FAE014F0807F25D014F0040F1AD014F044
:1025C000007F20EA01000ED035B1536843F00103CB
:1025D00043F070635360F8E0516821F0010141F06D
:1025E00070615160F2E0536823F0010343F07063BF
:1025F0005360E9E04CF0040C0CFA03F39843002D0F
:10260000EAD0E2E714F0806F11D014F0080F0FD079
:1026100014F0007F20EA01000BD03DB1536843F075
:10262000080343F070635360CFE0CDE0B0E0C5E055
:10263000BCE0B4E00004008002001140060011403C
:10264000200014403000144040001640C0001640E6
:10265000000218400003184000041A40000C1A4001
:1026600000101C4000301C4001003040020030408F
:1026700003003040040020410400204308002044AF
:102680000800204610003440200034403000344020
:102690004000364080003640C000364000023840DE
:1026A0000003384000043A40000C3A4000103C401F
:1026B00000303C40010010200200102003001020D8
:1026C00004001220080012200C0012201000142018
:1026D0003000142040001620C000162000011820F1
:1026E000000218200003182000041A20000C1A20F1
:1026F00001002020020020200400202008002020CB
:1027000010003420300034204000202080002020A1
:1027100000012020000220202E2E5C6669726D7759
:102720006172655C6E3332673435785F7374645FF1
:102730007065726970685F6472697665725C7372E5
:10274000635C6E3332673435785F6770696F2E6310
:102750000000000049535F4750494F5F52454D41CB
:102760005028526D7050696E2900000049535F4631
:10277000554E4354494F4E414C5F535441544528A4
:10278000436D64290000000000000140000030702B
:10279000516821F0080141F07061516016E0536802
:1027A00023F0080343F0706353600DE04CF0080C15
:1027B0000CFA03F39843002DEAD02FE7884314F076
:1027C000E04F01D140F0706005B1084314F0004FB4
:1027D0001CBFD06170BD14F0804F1CBF106270BD73
:1027E00014F0005F1CBF506270BD14F0805F14BF16
:1027F0009062506070BD00002DE9F0410446002653
:10280000A0F180400D46B0F584301CBFA4F180409B
:10281000B0F586301CD0A4F18040B0F588301CBFE4
:10282000A4F18040B0F58A3012D0A4F18040B0F518
:102830008C301FBFA4F18040B0F58E30A4F18040F1
:10284000B0F5903004D0BE223FA14EA006F02EF984
:10285000E878002818BF042810D0282818BF482876
:102860000CD0142818BF102808D01C2818BF18280E
:1028700004D0BF2234A14AA006F018F9288820B954
:10288000C02231A151A006F011F9E87800F00F073D
:1028900010F0100F0FD0A878002818BF022808D019
:1028A000012818BF032804D0C72227A150A006F092
:1028B000FDF8A878074328784FF00F0C10F0FF0FB1
:1028C0004FF0010318BF216819D02A8803FA06F0D7
:1028D000024082420FD1B2000CFA02F821EA08014C
:1028E00007FA02F21143EA78282A08BF606102D091
:1028F000482A08BF2061761C082EE6D3216028886C
:10290000FF2886BF62680020BDE8F08100F1080161
:102910002E8803FA01F10E408E420FD186000CFA88
:1029200006F822EA080207FA06F63243EE78282E65
:1029300008BF6161EE78482E08BF2161401C08285D
:10294000E4D36260BDE8F0812E2E5C6669726D771B
:102950006172655C6E3332673435785F7374645FBF
:102960007065726970685F6472697665725C7372B3
:10297000635C6E3332673435785F6770696F2E63DE
:102980000000000049535F4750494F5F414C4C5F86
:10299000504552495048284750494F782900000077
:1029A00049535F4750494F5F4D4F44452847504971
:1029B0004F5F496E69745374727563742D3E47504E
:1029C000494F5F4D6F6465290000000049535F4720
:1029D00050494F5F50494E284750494F5F496E69F3
:1029E000745374727563742D3E50696E2900000033
:1029F00049535F4750494F5F53504545442847501E
:102A0000494F5F496E69745374727563742D3E4704
:102A100050494F5F537065656429000070B50546E5
:102A20000026A0F180400C46B0F584301CBFA5F113
:102A30008040B0F586301DD0A5F18040B0F58830DB
:102A40001CBFA5F18040B0F58A3013D0A5F18040BD
:102A5000B0F58C301FBFA5F18040B0F58E30A5F1E8
:102A60008040B0F5903005D040F229121BA12AA079
:102A700006F01CF8012C18BF022C28D0042C18BF1B
:102A8000082C24D0102C18BF202C20D0402C18BF8C
:102A9000802C1CD0B4F5807F18BFB4F5007F16D011
:102AA000B4F5806F18BFB4F5006F10D0B4F5805F37
:102AB00018BFB4F5005F0AD0B4F5804F18BF052CDD
:102AC00005D04FF4957205A11AA005F0EFFFA86894
:102AD000204218BF0126304670BD00002E2E5C66D5
:102AE00069726D776172655C6E3332673435785F19
:102AF0007374645F7065726970685F64726976652B
:102B0000725C7372635C6E3332673435785F677002
:102B1000696F2E630000000049535F4750494F5FC3
:102B2000414C4C5F504552495048284750494F78D6
:102B30002900000049535F4745545F4750494F5FA4
:102B400050494E2850696E290000000070B50446B7
:102B5000A0F180400D46B0F584301CBFA4F1804048
:102B6000B0F586301DD0A4F18040B0F588301CBF90
:102B7000A4F18040B0F58A3013D0A4F18040B0F5C4
:102B80008C301FBFA4F18040B0F58E30A4F180409E
:102B9000B0F5903005D04FF4C57206A114A005F031
:102BA00085FF2DB940F28B1202A118A005F07EFF1F
:102BB000656170BD2E2E5C6669726D776172655CB1
:102BC0006E3332673435785F7374645F7065726931
:102BD00070685F6472697665725C7372635C6E3391
:102BE00032673435785F6770696F2E6300000000CC
:102BF00049535F4750494F5F414C4C5F50455249E4
:102C00005048284750494F782900000049535F47F2
:102C100050494F5F50494E2850696E29000000000E
:102C200070B50446A0F180400D46B0F584301CBF5D
:102C3000A4F18040B0F586301DD0A4F18040B0F5FD
:102C400088301CBFA4F18040B0F58A3013D0A4F1C5
:102C50008040B0F58C301FBFA4F18040B0F58E30BD
:102C6000A4F18040B0F5903005D040F2731206A177
:102C700014A005F01BFF2DB94FF4BA7202A118A0E1
:102C800005F014FF256170BD2E2E5C6669726D77AC
:102C90006172655C6E3332673435785F7374645F7C
:102CA0007065726970685F6472697665725C737270
:102CB000635C6E3332673435785F6770696F2E639B
:102CC0000000000049535F4750494F5F414C4C5F43
:102CD000504552495048284750494F782900000034
:102CE00049535F4750494F5F50494E2850696E29FC
:102CF0000000000010B582B06946002002F094FD8B
:102D000001A9002002F02AFDDFF898C09DF800001C
:102D10008CF804009DF801008CF805009DF8020075
:102D20008CF806009DF805108CF802109DF806300E
:102D30008CF803309DF80720012902F5FA60ACF801
:102D4000000018BF022904D101F10C00C1B202F247
:102D5000CF704A1C02EB420240F2676412FB04F29D
:102D600003EB410100EB523211444AF2D73202FB2D
:102D7000002201EB9001A1EB92514FF4C872B0FB1D
:102D8000F2F00144084B08460022C3FB01208210E8
:102D9000A2EBE070A0EBC0000844401C8CF80700D8
:102DA00002B010BD340000209324499201A005F028
:102DB000F7F9FBE7766F69642048617264466175D4
:102DC0006C745F48616E646C657228766F69642903
:102DD0000D0A000070B51C4DB4B0A878002804BFDF
:102DE00034B070BD0026AE70184A194927A805F006
:102DF000E7F9184A01A802F11C0105F0E1F901A860
:102E0000FDF72EFA84B227A8FDF72AFA82B201ABA9
:102E100027A90120009403F0D5F82878401CC0B2FF
:102E2000287064283CBF34B070BD2E70BFF34F8F44
:102E300009480168094A01F4E06111430160BFF3E8
:102E40004F8F00BFFDE70000DA02002004000020E1
:102E5000C42E0008D02E00080CED00E00400FA0596
:102E6000044901208870AFF2070242F210710A2073
:102E700005F074B9DA020020024A42F210710A2009
:102E800005F06CB9612E000810B5B4B00C4A0DA164
:102E900027A805F095F90EA214A101A805F090F954
:102EA00001A8FDF7DDF984B227A8FDF7D9F982B2B0
:102EB00001AB27A90120009403F084F834B010BDC1
:102EC000040000207374617475732F257300000073
:102ED0005B7B224F6E223A226F6E222C2276223AA0
:102EE000224E4F524D414C227D5D00002573000063
:102EF00030B40023002A88BFDFF834C011D9C45C85
:102F000001EB43050CEB1414247801F81340C45C66
:102F10005B1C04F00F049BB21CF804406C709A42D6
:102F2000EDD84FF6FF7030BC00EA42007047000059
:102F3000E69100082DE9F84380464FF48057ADF83C
:102F400000700420394E8DF8030000246946304695
:102F5000FFF752FC00254FF400513046FFF7F6FD15
:102F6000022005F039FE4FF400513046FFF758FEBD
:102F70006006040E4FF480513046FFF74FFD0028E5
:102F80001CBF601CC4B2012005F026FE681CC5B23F
:102F9000082DE0D310254FF00109B8F1000F4FF4D0
:102FA0000051304620D0FFF7D1FDADF800708DF80C
:102FB00003508DF8029069463046FFF71DFC290248
:102FC0003046FFF7C3FD022005F006FE69023046D9
:102FD000FFF726FE022005F0FFFD69023046FFF7ED
:102FE000B5FD2046BDE8F883FFF7B0FDADF80070F1
:102FF0008DF803508DF8029069463046FFF7FCFBD0
:103000004FF480513046FFF70BFE022005F0E4FD3F
:103010004FF400513046FFF703FE022005F0DCFDBF
:103020004FF400513046FFF791FDDAE7000C014004
:10303000F8B505464FF48050ADF8000010208DF82B
:1030400003000120184E8DF8020069463046FFF754
:10305000D3FB71143046FFF779FD002415F0800F83
:103060004FF48051304602D0FFF7DAFD01E0FFF760
:103070006DFD6806050E022005F0AEFD4FF400510F
:103080003046FFF7CDFD022005F0A6FD4FF40051BC
:103090003046FFF75BFD022005F09EFD601CC4B2C8
:1030A000082CDBD3F8BD0000000C014038B54FF40C
:1030B0008050ADF8000010208DF8030001200F4C67
:1030C0008DF8020069462046FFF796FBA1142046C2
:1030D000FFF7A6FD61142046FFF7A2FD022005F0D0
:1030E0007BFDA1142046FFF731FD022005F074FDA1
:1030F00061142046BDE83840FFF728BD000C0140B0
:1031000038B54FF48050ADF8000010208DF8030062
:1031100001200C4C8DF8020069462046FFF76CFB3D
:10312000A1142046FFF712FD61142046FFF778FD39
:10313000022005F051FDA1142046BDE83840FFF7FC
:103140006FBD0000000C0140F8B54FF48056ADF89B
:1031500000600420264D8DF80300002469462846AF
:10316000FFF74AFBA9142846FFF75AFD012005F096
:1031700033FD69142846FFF753FD012005F02CFDAF
:10318000A9142846FFF74AFC50B3601CC4B2FA2CBD
:103190001FD9ADF8006010208DF8030001208DF8D4
:1031A000020069462846FFF727FB4FF48051284666
:1031B000FFF7CCFC4FF400512846FFF731FD022009
:1031C00005F00AFD4FF480512846FFF729FD012044
:1031D000F8BD4FF480512846FFF720FC0028D4D1D9
:1031E0004FF400512846FFF7B1FC0020F8BD000065
:1031F000000C014010B4C268D0F804C0531C93FB0B
:10320000FCF40CFB1433D0F808C0634504BF10BCB9
:10321000704703689954C1684268491C91FBF2F3F6
:1032200002FB1311C16010BC704700002DE9F04192
:103230002D4E0025307B10B1012812D04CE0707962
:10324000401C707101F030F90A2128A004F03EFF03
:10325000C8217570284A0F2004F080FF01203073C8
:103260003AE001F015F9002808BFBDE8F081234CD1
:10327000206801F0ADFD014621482268FEF7BCFE42
:1032800020A11F48FCF7DAFF10B320A11C48FCF76F
:10329000D5FFC8B1441C7571801CFDF75DFC20464C
:1032A000FDF75AFC271D3846E41CFDF755FC204667
:1032B000FDF752FC3846FDF74FFC2046FDF74CFC6D
:1032C00035730120BDE8F08170790A2803D106E04A
:1032D00070790A2803D035730020BDE8F08175713C
:1032E00035730220BDE8F0815400002041542B4387
:1032F000434C4B3F0D0A0000C94400085000002019
:10330000201100202B43434C4B3A00002C000000BE
:103310002DE9F047B44E0024DFF8D092B07BADF534
:10332000C56D25464FF001082746092880F05481D5
:10333000DFE800F005121A2C8E96ACFCFB00F0784A
:10334000012807BFF770042086F80E800DF5C56DC3
:1033500018BFBDE8F08794E064217770A44A0F207D
:1033600004F0FCFE02208CE001F092F800286ED000
:1033700001F09AF811219FA004F0A8FE6421777053
:103380009B4A0F2004F0EAFE03207AE001F080F867
:10339000002877D0D9F8000001F01AFD01469A48BC
:1033A000D9F80020FEF728FE98A19748FCF746FFC1
:1033B000002800F0118198A19348FCF73FFF1030DE
:1033C000044601782C2903D010F8011F2C29FBD1C9
:1033D000001BA0F10108C8216846FCF724FF424603
:1033E00021466846FCF706FF04EB08008EA1FCF7B7
:1033F00025FF002800F0F080841C81780DF5C16065
:103400002C2907D014F8011B4155691C8DB2217875
:103410002C29F7D14755FCF72AFF0546C8216846F5
:10342000FCF701FF2A46611C6846FCF7E3FE1A2DF3
:1034300007D0A9B20122684600F0BAFFB77300F0C6
:10344000CBB81A210022684600F0B2FFF6E719E077
:1034500064217770664A0F2004F080FE052010E09A
:1034600001F016F800280DD001F01EF808216FA019
:1034700004F02CFE642177705D4A0F2004F06EFE8C
:103480000620B0730DF5C56DBDE8F08701F000F8BA
:10349000002804BF0DF5C56DBDE8F087D9F8000020
:1034A00001F096FC01465848D9F80020FEF7A4FD2B
:1034B00061A15548FCF7C2FE28B310F8061F2C295D
:1034C00004D010F8011F641C2C29FAD1DFF8708198
:1034D0007125A0EB040A08F52379012C02D0022CF7
:1034E00012D02EE05046FDF737FBA5EB4000C2B2EC
:1034F00054A10DF2DC5004F063FE9DF8DC0588F861
:103500008C0289F801701CE00AF10100FDF724FB30
:1035100004465046FDF720FB00EB800004EB400022
:10352000A5EB4000C2B247A101E041E00CE00DF282
:10353000DC5004F045FEBDF8DC05A8F88C0289F8E3
:1035400002700720B0739DE70E213FA004F0BEFD7E
:10355000318A414804F0BAFD022133A004F0B6FDDF
:1035600006213EA004F0B2FD728A36A10DF5BC60C2
:1035700004F026FE0DF5BC60FCF772FE81B20DF57D
:10358000BC6004F0A3FD022132A004F09FFD718A0B
:10359000344804F09BFD032133A004F097FDF7703D
:1035A000C8217770124A0F2004F0D8FD082068E780
:1035B00000F06EFF00283FF465AFD9F8000001F07D
:1035C00007FC01461048D9F80020FEF715FD27A199
:1035D0000D48FCF733FE08B1B77353E786F8008057
:1035E000B770B7734EE70000540000205000002071
:1035F000C944000841542B4D515454524541443D57
:10360000302C310D0A000000201100202B4D5154A8
:1036100054524541443A00002B4D515454524541B7
:10362000443A20302C302C00222C000041542B43F3
:1036300053510D0A000000002B4353513A20000063
:10364000701400202564000041542B4D51545450F7
:1036500055423D302C220000700C0020302C302CC4
:10366000302C0000380D0020220D0A004F4B0000C6
:103670002DE9F041214C224F0025A07920B10128ED
:103680001FD0022831D02DE01E4EA570306801F009
:103690009FFB01461C483268FEF7AEFC00F004FFB9
:1036A0004FF400413846FFF7BBFA4FF4FA716570EA
:1036B000164A0F2004F052FD0120A0710020BDE841
:1036C000F08100F0E5FE68B14FF400413846FFF7A5
:1036D0003DFA41F2883165700C4A0F2004F03EFD3E
:1036E0000220A0710020BDE8F08100F0D1FE00288A
:1036F0001CBFA5710120BDE8F0810000540000202E
:10370000000801405000002020110020C94400089A
:1037100038B54FF40040ADF8000010208DF80300DC
:103720000120064C8DF8020069462046FFF764F838
:103730004FF400412046FFF773FA38BD00080140FE
:10374000474810B5C07B0B2828BF10BDDFE800F04C
:10375000061826344654620F6C0F7C00FFF788FF72
:10376000002808BF10BD012802D0022804D010BDD7
:103770003B490120C87310BD39490020C87310BDF2
:1037800001F0D6F9002808BF10BD012802D0022898
:10379000F2D010BD32480221C17310BD01F078F99A
:1037A000002808BF10BD012802D00228E4D010BDB7
:1037B0002B490320C87310BD01F01AF9002808BF77
:1037C00010BD012806D0022818BF10BD00212448D2
:1037D000C17310BD22490420C87310BDFFF726FD38
:1037E000002808BF10BD012802D00228C4D010BD97
:1037F0001B490820C87310BD02F08EFB002808BFCB
:1038000010BD012802D00228B6D010BD14490620F0
:10381000C87310BDFDF752F9002808BF10BD01287C
:10382000E6D00228A8D010BD00F0F4F8002808BFA8
:1038300010BD012802D002289ED010BD08480A21E0
:10384000C1730121817010BD05480178012902D1A1
:1038500000210170C173BDE81040FFF759BD0000A1
:1038600054000020010004484FF0100101D0FFF780
:103870006DB9FFF7D5B90000001001400100044800
:103880004FF0800101D0FFF761B9FFF7C9B900001F
:1038900000080140144A10B51078144C01280CD1CE
:1038A000002010709178491CC9B2917001290FD085
:1038B000907020212046FFF749F905F0ABF9002868
:1038C0004FF0800120460AD0BDE81040FFF73EB916
:1038D000FFF710FA20212046FFF7A2F9EDE7BDE837
:1038E0001040FFF79DB900002A00002000080140A9
:1038F000010004484FF0010101D0FFF727B9FFF79D
:103900008FB90000000C0140044901200870AFF29B
:1039100007024FF47A7104F021BC00002A00002055
:1039200010B501210348FFF779F800280CBF0120EA
:10393000002010BD000801402DE9F0410B2000F0EF
:1039400009FD0746092000F00BFD0646012000F0A6
:10395000F1FC2E4C002520B9A5710D2004F0F4FBDC
:103960006570A179A9B1012928D0022918BFBDE845
:10397000F08147F004010B2000F00EFD0121002032
:1039800000F0F4FC16F0020F3CD0FFF7C9FF48B37B
:1039900038E0042000F0DEFC0546042000F0E0FCE6
:1039A000854288BFBDE8F0810120A071BDE8F041EB
:1039B000174A40F6B8310D2004F0D0BB60780128DA
:1039C00018BFBDE8F0816570042000F0C3FC064616
:1039D000042000F0C5FC86429EBF0220A071BDE815
:1039E000F0810FE0002002F0E3F90021012000F057
:1039F000BDFC02210A2000F0CFFC0020FDF768FC8E
:103A000000F012FCA571BDE8F0810000DD0200208D
:103A10009190000810B5AC4896B0407B0A2832D28D
:103A2000DFE800F0051834455FA8C1E3FDFC00F0B5
:103A30003BFD1921A5A004F049FBA34C0020642103
:103A40006070A94A0F2004F089FB0120607316B052
:103A5000002010BD00F01CFD002804BF16B010BDF2
:103A6000A24C206801F0B4F90146A1482268FEF793
:103A7000C3FAA0A19E48FCF7E1FB002800F01D81DD
:103A800091490220487316B0002010BD00F00CFDD3
:103A90001D2199A004F01AFB8B4C0020642160705A
:103AA000914A0F2004F05AFB032000F09CB800F06C
:103AB000EFFC002804BF16B010BD8C4C206801F04C
:103AC00087F901468A482268FEF796FA89A1884854
:103AD000FCF7B4FB002800F0F0807B490420487319
:103AE000D1E700F0E1FC0F218BA004F0EFFAC62132
:103AF000B820CDE90001EA2331228BA102A804F00D
:103B00005FFB02A8FCF7ACFB81B202A804F0DEFA6E
:103B100042F6483288A102A804F052FB02A8FCF742
:103B20009FFB81B202A804F0D1FA022183A004F025
:103B3000CDFAFCF74DFB02467FA10CA804F040FB38
:103B40000CA8FCF78DFB81B20CA804F0BFFA02218F
:103B50007BA004F0BBFA43217A4804F0B7FA5A4C30
:103B600000204FF4FA6160705F4A0F2004F0F6FA0B
:103B7000052038E000F08CFC002804BF16B010BD12
:103B80005A4C206801F024F9014659482268FEF792
:103B900033FA6DA15648FCF751FB00287ED04A4904
:103BA000062048736FE700F07FFC16216CA004F03C
:103BB0008DFA714A71A102A804F002FB02A8FCF779
:103BC0004FFB81B202A804F081FA05216CA004F039
:103BD0007DFA3D4C002041F288316070424A0F204E
:103BE00004F0BCFA072060734DE700F051FC002898
:103BF00004BF16B010BD3D4C206801F0E9F8014645
:103C00003B482268FEF7F8F93AA13948FCF716FB61
:103C100004465DA13648FCF711FB01E029E007E00E
:103C2000002C18BF002848D02749082048732AE7ED
:103C300000F03AFC1B2157A004F048FA4E4A4FA16D
:103C400002A804F0BDFA02A8FCF70AFB81B202A8A0
:103C500004F03CFA05214AA004F038FA1A4C00207E
:103C600041F288316070204A0F2004F077FA092071
:103C7000B9E700F00DFC002804BF16B010BD1B4CC6
:103C8000206801F0A5F8014619482268FEF7B4F94A
:103C900018A11748FCF7D2FA044600E00DE03AA15B
:103CA0001348FCF7CBFA002C18BF002805D00649B2
:103CB0000020487316B0012010BD0349002048734E
:103CC00016B0022010BD00005400002041542B4DBE
:103CD0005154544346473D22636163686564222C16
:103CE000302C310D0A000000C944000850000020AB
:103CF000201100204F4B000041542B4D5154544390
:103D000046473D226B656570616C697665222C3093
:103D10002C36300D0A00000041542B4D51545443B1
:103D20004F4E4E3D302C220025642E25642E2564F6
:103D30002E2564222C000000256400002C220000A7
:103D4000222C00004CBB00082B4D515454555243BB
:103D50003A2022636F6E6E222C302C30000000005F
:103D600041542B4D5154545355423D302C22636FD6
:103D70006E74726F6C2F0000040000202573000029
:103D8000222C300D0A0000002B4D51545453554243
:103D90003A20300041542B4D5154545355423D303C
:103DA0002C227374617475735F7265706C792F0067
:103DB000FEE700002DE9F047FF4E0024DFF8FC830A
:103DC000B0889AB027460228C0F01F82811E404664
:103DD00004F0DAFEB0883278404410F8011C9142B9
:103DE00040F0138210F8020C7178884240F00D8286
:103DF00098F8032098F8023006F1060A02EB032235
:103E000095B298F80010BAF8002098F801008A429C
:103E100040F0FB8108F5FA79052854D00BDC6F4699
:103E2000012810D00522032800F07F81042800F02B
:103E3000B08100F0EAB9062800F00A81102800F0ED
:103E4000308100F0E2B9042D00F2DF8198F80520FE
:103E500098F8043002EB032292B25319052B00F2BA
:103E6000D4818DF800108DF80100D11D01200F299B
:103E700005D312F0070F14BF00EBD200D0088DF865
:103E8000020010F0FF0F1CBF7088E8400AD0E1006C
:103E900020FA01F13A19D170611CCCB29DF80210E0
:103EA000A142F4D89DF80200401DC4B2A11E3846BC
:103EB00004F06AFE3819717800F8021C317800F8B5
:103EC000011C00F063B998F8052098F80430072D1C
:103ED00002EB032294B200F298818DF800108DF865
:103EE0000100280A8DF80200200A8DF804008DF8E0
:103EF00003508DF805400621684604F045FE7078B1
:103F00008DF8060030788DF80700082D28D2DFE8FC
:103F100005F0041751276D27737EB4F57F4F40F0ED
:103F2000358105F015F9BFF34F8FA5480168A54A03
:103F300001F4E06111430160BFF34F8F00BFFDE763
:103F4000022000F0F7F9002840F02081032000F063
:103F5000F1F9012840F01A81B4F57F4F05D0BCB1CA
:103F6000002F40F0528100F011B9002000F0E2F97A
:103F7000002840F00B810121084600F0F7F90121EB
:103F80000846FDF77FFE012001F012FF01200EE040
:103F90000021012000F0EAF900210120FDF772FE66
:103FA0000A20A9F81400002001F002FF0020FDF70C
:103FB0008FF9EBE0B4F57F4F01D04CB110E0012157
:103FC000022000F0D3F901210220FDF75BFE07E09B
:103FD0000021022000F0CAF900210220FDF752FE64
:103FE000022000F0A7F9FDF7F7F8CFE0B4F57F4F16
:103FF00008BFFDF7E1FFC9E0B4F57F4F7DD1002197
:10400000084600F0B3F90020A9F81600BEE0B4F5A8
:104010007F4F01D074B1B9E00121042000F0A6F96E
:1040200001210420FDF72EFE042000F083F9FDF7A6
:1040300097F8ABE00021042000F098F9002104205B
:10404000FDF720FE042000F075F9FDF789F89DE0EA
:1040500098F8052098F80430212D02EB032294B241
:1040600062D88DF800108DF80100280A8DF8020042
:10407000200A8DF80400EFB28DF803708DF805402A
:104080000621684604F080FD70788DF806003078CF
:104090008DF8070000F0C8F82AF8154001213846CD
:1040A00040E098F8052098F80430212D02EB032217
:1040B00092B29CBFAB18222B36D8002A0ED908EB3F
:1040C000440393F808C0DB790CEB032304EB050CE5
:1040D0002AF81C30631CDCB2A242F0D88DF8001024
:1040E0008DF80100280A8DF80200ECB2100A8DF854
:1040F00003408DF80400D5B200E047E08DF805508C
:1041000098F806008DF806000721684604F03CFD8B
:1041100070788DF8070030788DF8080000F084F88A
:1041200029462046FDF7B1FD6FE098F8053098F874
:1041300004C0212D03EB0C239BB29CBF03EB050CA9
:10414000BCF1220F61D88DF800108DF801005800E5
:104150008DF80200281907EB44013AF810004FEAE5
:10416000102C81F803C00871601CC4B29C42F1D9C4
:1041700002EB4300C4B2A11E384604F005FD381915
:10418000717800F8021C317800F8011C00F04CF83E
:104190003BE098F8053098F804C00D2D03EB0C2394
:1041A0009BB29CBF05EB030CBCF10E0F2DD88DF814
:1041B00000108DF8010007E06E0000202617002097
:1041C0000CED00E00400FA0558008DF802002819F3
:1041D00007EB440139F810004FEA102C81F803C0B6
:1041E0000871601CC4B29C42F1D902EB4300C4B216
:1041F000A11E384604F0C8FC3819717800F8021C7A
:10420000317800F8011C00F00FF80020B288014658
:10421000002A05D908F80010401C80B28242F9D863
:10422000B1801AB0BDE8F08770B53C4EADF5C36DF6
:10423000B51F30788DF8F00301208DF8F1038DF86B
:10424000F203A8788DF8F3030421FCA804F09CFC89
:1042500068788DF8F40328788DF8F50330788DF8B8
:10426000F60303208DF8F70344208DF8F8030020AF
:10427000FCAC36F8101004EB40020B0A401C5372E1
:10428000C0B291722228F4D94721A01D04F07CFC11
:1042900068788DF83D0428788DF83E0430788DF8E4
:1042A0003F0404208DF840041C208DF841041C4B71
:1042B000002004EB400233F81010401C4FEA112C90
:1042C00082F852C0C0B282F853100E28F1D91F21D3
:1042D00004F1510004F058FC68788DF85E042878E9
:1042E0008DF85F0470240F4A0FA10DF2E45003F023
:1042F00067FF224602A9FCA8FEF7FAFD04460DF26C
:10430000E450FBF7ADFF82B202AB0DF2E4510120A5
:10431000009401F057FE0DF5C36D70BD74000020D0
:104320001A190020040000207374617475732F251E
:10433000730000000F2884BF00207047012101FA9C
:1043400000F003494988084018BF01207047000069
:104350006E000020014931F8100070471A19002042
:10436000014931F810007047740000200F2888BF01
:104370007047012202FA00F00129064A04BF518861
:10438000084305D0002906BF518821EA0000704784
:10439000508070476E000020014A22F810107047CC
:1043A0001A190020014A22F81010704774000020EA
:1043B0002DE9F04704460025324E9CB00F460120FF
:1043C000AAB1012A1CBF1CB0BDE8F08770700120A3
:1043D000FCF741FF35703A4621462B48FCF7CCFBF1
:1043E0002A490880FFF7E6FC1CB0BDE8F087707032
:1043F0000120FCF730FF3570206802908DF80C50DA
:1044000002A8FBF734FF1FFA80FAB4F80500ADF8F4
:1044100008008DF80A5002A8FBF729FF00F0FF09F9
:104420002089ADF808008DF80A5002A8FBF71FFF9D
:1044300000F0FF08B4F80B00ADF808008DF80A5042
:1044400002A8FBF714FFC7B2E089ADF808008DF8A9
:104450000A5002A8FBF70BFFC6B2B4F81100ADF882
:1044600008008DF80A5002A8FBF701FFC0B2CDE9A1
:1044700000603B4642464946504601F0C9FD1CB02B
:10448000BDE8F087DA020020261700207200002025
:1044900004494878002808BF7047012000224A706C
:1044A00070470000540000200020054A01461154C6
:1044B000401C80B2B0F57A7FF9D302488182704700
:1044C000201100205400002001490120487070474D
:1044D00054000020704738B535208DF800000024C6
:1044E0008DF801408DF8024001258DF80350684693
:1044F00000F032F826208DF800008DF801408DF88C
:1045000002408DF80350684600F026F827208DF809
:1045100000008DF801408DF802408DF80350684688
:1045200000F01AF834208DF8000002208DF8010008
:104530008DF802408DF80350684600F00DF8082011
:104540008DF800008DF801408DF802508DF8035071
:10455000684600F001F838BD70B50446C0780F25F4
:10456000002818BF012804D07D2223A12FA004F029
:104570009DFA6078102804D37E221FA13A4804F0E7
:1045800095FAA078102804D37F221BA1374804F0A5
:104590008DFAE078012210B335480068637800F4A2
:1045A000E060C0F5E060000AC0F1040103FA01F127
:1045B000A37825FA00F0184008432178000101F1A2
:1045C000E02181F80004207800F01F0102FA01F1D7
:1045D0004009800000F1E020C0F8001170BD207893
:1045E00000F01F0102FA01F14009800000F1E02013
:1045F000C0F8801170BD00002E2E5C6669726D7768
:104600006172655C6E3332673435785F7374645FF2
:104610007065726970685F6472697665725C7372E6
:10462000635C6D6973632E630000000049535F464D
:10463000554E4354494F4E414C5F535441544528C5
:104640004E5649435F496E69745374727563742D95
:104650003E4E5649435F4952514368616E6E656CE8
:10466000436D64290000000054BA000810BA000825
:104670000CED00E010B50446B0F5E06F18BFB4F5DE
:10468000C06F0CD0B4F5A06F1CBFB4F5806FB4F54B
:10469000407F04D06C2205A111A004F007FA1B4949
:1046A00044F0FD7040F08060086010BD2E2E5C6606
:1046B00069726D776172655C6E3332673435785F2D
:1046C0007374645F7065726970685F64726976653F
:1046D000725C7372635C6D6973632E63000000002B
:1046E00049535F4E5649435F5052494F52495459BE
:1046F0005F47524F5550284E5649435F5072696F7D
:104700007269747947726F75702900000CED00E0D2
:104710002DE9F0410B20FFF71DFE07460920FFF7AA
:104720001FFE304C0646E17939B3002501293ED001
:10473000022946D0032918BFBDE8F08147F00801DF
:104740000B20FFF729FE01210020FFF70FFE16F0D6
:10475000040F0FD0002001F02BFB00210120FFF7F8
:1047600005FE03210A20FFF717FE0020FCF7B0FD2D
:10477000FFF75AFDE571BDE8F0810520FFF7EAFD7E
:1047800000EB800045000520FFF7EAFD00EB80000C
:10479000B5EB400F38BFBDE8F0810120E071BDE806
:1047A000F041114A4FF4FA610E2003F0D7BCA07813
:1047B000012806BFA5700220BDE8F081E071BDE8C8
:1047C000F0810520FFF7C6FD00EB800046000520C4
:1047D000FFF7C6FD00EB8000B6EB400F28BF0320BB
:1047E000ECD2C7E7DD020020459100082DE9F04139
:1047F0000B20FFF7AFFD07460920FFF7B1FD2B4C5B
:104800000646217A39B30025012939D002293ED044
:10481000032918BFBDE8F08147F040010B20FFF7E6
:10482000BBFD01210020FFF7A1FD16F0100F0FD0F6
:10483000002001F0BDFA00210120FFF797FD0621BD
:104840000A20FFF7A9FD0020FCF742FDFFF7ECFC72
:104850002572BDE8F0810720FFF77CFD05460820A2
:10486000FFF77EFD854238BFBDE8F0810120207250
:10487000BDE8F0410E4A4FF4FA61102003F06EBC1F
:104880002079012804BF25712572BDE8F081072039
:10489000FFF760FD06460820FFF762FD864224BF51
:1048A00003202072D4D3BDE8F0810000DD02002097
:1048B000399100082DE9F0410B20FFF74BFD06462A
:1048C0000920FFF74DFD2B4C0546617939B30027D0
:1048D000012939D0022941D0032918BFBDE8F08150
:1048E00046F002010B20FFF757FD01210020FFF7E2
:1048F0003DFD15F0010F0FD0002001F059FA002105
:104900000120FFF733FD01210A20FFF745FD0020BC
:10491000FCF7DEFCFFF788FC6771BDE8F08104203E
:10492000FFF718FD05460320FFF71AFD854238BF43
:10493000BDE8F08101206071BDE8F0410E4A4FF4FE
:10494000FA610C2003F00ABC2078012806BF27700A
:104950000220BDE8F0816071BDE8F0810420FFF71E
:10496000F9FC05460320FFF7FBFC854228BF032026
:10497000F1D2D1E7DD0200202D91000810B504002E
:1049800018BF012C04D0862203A111A004F08EF8D8
:104990001648046210BD00002E2E5C6669726D77A9
:1049A0006172655C6E3332673435785F7374645F4F
:1049B0007065726970685F6472697665725C737243
:1049C000635C6E3332673435785F7077722E6300C4
:1049D00049535F46554E4354494F4E414C5F5354E3
:1049E00041544528436D64290000000000000E4238
:1049F00070B51D4C0025607A10B1012813D010E06D
:104A00002079401C2071FFF74FFD0B2117A003F008
:104A10005DFB64216570184A0F2003F09FFB0120A5
:104A20006072002070BDFFF733FD002808BF70BD25
:104A3000124E306800F0CCF9014611483268FDF79B
:104A4000DBFA10A10E48FBF7F9FB18B1657225716E
:104A5000012070BD20795A2898BF6572E1D925716F
:104A60006572022070BD00005400002041542B43A9
:104A7000474154543F0D0A00C9440008500000202B
:104A8000201100202B43474154543A2031000000AC
:104A900070B51D4C0025207A10B1012813D010E00C
:104AA0002079401C2071FFF7FFFC0B2117A003F0B9
:104AB0000DFB64216570184A0F2003F04FFB0120A5
:104AC0002072002070BDFFF7E3FC002808BF70BD16
:104AD000124E306800F07CF9014611483268FDF74B
:104AE0008BFA10A10E48FBF7A9FB18B125722571AE
:104AF000012070BD20795A2898BF2572E1D925710F
:104B00002572022070BD00005400002041542B4348
:104B1000455245473F0D0A00C94400085000002097
:104B2000201100202B43455245473A20302C3100BC
:104B3000814810B5C0790A283AD2DFE800F0052193
:104B40003B4850617989B9CA7C4C206800F040F933
:104B500001467B482268FDF74FFAFFF7A5FC0421C8
:104B600078A003F0B3FA744C00204FF4FA6160703F
:104B7000764A0F2003F0F2FA0120E071002010BD08
:104B8000FFF786FC002808BF10BD6C4C206800F0C1
:104B90001FF901466A482268FDF72EFA6CA16848A1
:104BA000FBF74CFB002800F0C28063490220C8716B
:104BB000002010BD604C00204FF4FA616070634A21
:104BC0000F2003F0CBFA0320E071002010BDFFF7A7
:104BD0005FFC0028ECD058490420C871E8E7FFF7D3
:104BE00063FC0A215BA003F071FA534C002064219E
:104BF0006070564A0F2003F0B1FA0520E071D7E744
:104C0000FFF746FC002808BF10BD4C4C206800F0A0
:104C1000DFF801464A482268FDF7EEF950A14848FE
:104C2000FBF70CFB00287DD043490620C871BFE785
:104C3000FFF73AFC0B214EA003F048FA3E4C00204F
:104C400064216070414A0F2003F088FA07203EE09B
:104C5000FFF71EFC002808BF10BD384C206800F08C
:104C6000B7F8014636482268FDF7C6F943A1344833
:104C7000FBF7E4FA00285AD04249D0F80720C1F8DF
:104C80009122D0F80B20C1F89522D0F80F20C1F85E
:104C90009922B0F81320A1F89D22407D81F89F024F
:104CA00001F523710020087523490820C8717FE7AA
:104CB000FFF7FAFB0A2134A003F008FA1E4C00208B
:104CC00064216070214A0F2003F048FA0920E07146
:104CD0006EE7FFF7DDFB002808BF10BD174C20680A
:104CE00000F076F8014616482268FDF785F929A1FB
:104CF0001348FBF7A3FAA8B122498268C1F8A122A0
:104D0000C268C1F8A5220269C1F8A9224269C1F8A6
:104D1000AD228069C1F8B10201F52371002081F84C
:104D2000290000E003E00449C871012010BD0249D8
:104D30000020C871022010BD540000205000002047
:104D40002011002041540D0A00000000C944000851
:104D50004F4B000041542B4350494E3F0D0A000079
:104D60002B4350494E3A205245414459000000001F
:104D700041542B4347534E3D310D0A002B434753BB
:104D80004E3A20007014002041542B4943434944BB
:104D90000D0A00002B49434349443A20000000001B
:104DA00070B5102004F08CF904004FF0000508BF26
:104DB0002C4607D040F2DD50606004F081F9E560D8
:104DC000A56020600148046070BD00005000002014
:104DD0000146D1E90220801A44BF4968084470475F
:104DE00010B504001CBF012C042C05D040F2033286
:104DF0000AA118A003F05AFE1B48002180F82010D9
:104E000080F82010012C08BF012103D0042C0CBF16
:104E1000052110BD80F8201010BD00002E2E5C660C
:104E200069726D776172655C6E3332673435785FB5
:104E30007374645F7065726970685F6472697665C7
:104E4000725C7372635C6E3332673435785F7263A1
:104E5000632E630049535F5243435F4C53452852CE
:104E600043435F4C534529000010024010B5040035
:104E700018BFB4F5806F0DD0B4F5A06F1CBFB4F5AA
:104E8000C06FB4F5E06F05D040F2C31205A113A0C6
:104E900003F00CFE1849486820F4E06020434860A5
:104EA00010BD00002E2E5C6669726D776172655CC4
:104EB0006E3332673435785F7374645F706572691E
:104EC00070685F6472697665725C7372635C6E337E
:104ED00032673435785F7263632E630049535F52E3
:104EE00043435F48434C4B5F444956285243435F1A
:104EF00048434C4B290000000010024010B5044606
:104F0000B0F5807F1CBFB4F5007FB4F5407F05D0BD
:104F100040F2333206A114A003F0C8FD1B48016A19
:104F200021F440710162016A2143016210BD000059
:104F30002E2E5C6669726D776172655C6E333267C6
:104F40003435785F7374645F7065726970685F642C
:104F500072697665725C7372635C6E333267343586
:104F6000785F7263632E630049535F5243435F521D
:104F70005443434C4B5F535243285243435F525474
:104F800043434C4B536F7572636529000010024018
:104F900070B504460E480D46044200D12CB940F2CB
:104FA000FE320CA119A003F081FD214E002D04BF9B
:104FB000F069A04309D0012D05D040F2FF3205A1D0
:104FC0001CA003F073FDF0692043F06170BD000088
:104FD000003301412E2E5C6669726D776172655CEB
:104FE0006E3332673435785F7374645F70657269ED
:104FF00070685F6472697665725C7372635C6E334D
:1050000032673435785F7263632E630049535F52B1
:1050100043435F415042315F504552495048285206
:1050200043435F4150423150657269706829000006
:105030000010024049535F46554E4354494F4E417C
:105040004C5F535441544528436D642900000000CF
:1050500070B504460E480D46044200D12CB940F20A
:10506000DF320CA119A003F021FD214E002D04BF59
:10507000B069A04309D0012D05D04FF4787205A185
:105080001CA003F013FDB0692043B06170BD0000A7
:105090000286E0FF2E2E5C6669726D776172655C38
:1050A0006E3332673435785F7374645F706572692C
:1050B00070685F6472697665725C7372635C6E338C
:1050C00032673435785F7263632E630049535F52F1
:1050D00043435F415042325F504552495048285245
:1050E00043435F4150423250657269706829000045
:1050F0000010024049535F46554E4354494F4E41BC
:105100004C5F535441544528436D6429000000000E
:1051100010B5040018BF012C05D04FF4517203A143
:1051200010A003F0C3FC1648046010BD2E2E5C6670
:1051300069726D776172655C6E3332673435785FA2
:105140007374645F7065726970685F6472697665B4
:10515000725C7372635C6E3332673435785F72638E
:10516000632E630049535F46554E4354494F4E41A9
:105170004C5F535441544528436D6429000000009E
:105180003C044242324B30B45968324A11405A68AA
:1051900011F0006F02F480320CBF4FF0020C6FF47C
:1051A000F77C0CEB9141002A04BF2B4A514306D0F7
:1051B0005A6812F4003F14BF274A284A51435A68DC
:1051C000DFF898C012F00C0218BF042A03D0082A96
:1051D00008BF016001D0C0F800C05A684FF00F0C42
:1051E0001F4D0CEA1212D0F800C0AA5C2CFA02F291
:1051F0004260D3F804C0072404EA1C2C15F80CC044
:1052000022FA0CFCC0F808C0D3F804C004EADC2C75
:1052100015F80CC022FA0CFCC0F80CC0D3F82CC056
:1052200005F110040CF00F0C14F80CC0B2FBFCF2EA
:105230004261DA6A1F2303EA121202F00F0204F13C
:10524000100333F81220B1FBF2F1016130BC70475A
:105250000010024000003C0800093D0000127A00E6
:10526000A691000870B500250446212818BF312CEE
:1052700021D0392C18BF412C1DD0612C18BF732CA4
:1052800019D0742C18BF752C15D0772C18BF792C19
:1052900011D07A2C18BF7B2C0DD07C2C18BF7D2C04
:1052A00009D07E2C18BF7F2C05D040F2E3420CA120
:1052B00019A003F0FBFB60091D49012808BF08681D
:1052C00003D002280CBF086A486A04F01F010122BB
:1052D00002FA01F1014218BF0125284670BD000005
:1052E0002E2E5C6669726D776172655C6E33326713
:1052F0003435785F7374645F7065726970685F6479
:1053000072697665725C7372635C6E3332673435D2
:10531000785F7263632E630049535F5243435F4675
:105320004C4147285243435F464C41472900000007
:105330000010024038B503F0EBFC4FF40060ADF80C
:10534000000010208DF803000120064C8DF80200AB
:1053500069462046FDF750FAE1142046FDF7F6FBBA
:1053600038BD00000008014002F06CBE00210A2890
:1053700005D3491C0A38C0B2C9B20A28F9D20907B4
:1053800040EA11607047000070B50026674D0C467A
:1053900000282AD0012805D04FF4E37264A172A03E
:1053A00003F084FB286810F0400F00F07F80207825
:1053B000010901EB810100F00F0000EB4100C0B2D8
:1053C000401E0B2805D94FF4EE7259A16DA003F0D1
:1053D0006DFBE078002818BF402800F0798040F28B
:1053E000DD1253A16EA000F071B8286810F0400FD4
:1053F00013D02078401E0B2805D94FF4E6724CA13B
:105400006FA003F053FBE078002818BF40280ED0AF
:1054100040F2CD1246A162A007E0E670207817287E
:1054200005D94FF4E97242A16FA003F03FFB607809
:105430003B2805D94FF4EA723DA175A003F036FB75
:10544000A0783B2805D940F2D51239A17AA003F003
:105450002DFB2078FFF78AFF06046078FFF786FFB0
:1054600046EA0026A078FFF781FFE178304340EA62
:1054700001437B4CCA2020605320206000F04CF98F
:1054800070B178487849184008607848016821F080
:1054900080010160286810F0200F08BF00F056FC62
:1054A000FF202060BDE8704000F050BCE67020781E
:1054B000010901EB810100F00F0000EB4100C0B2D7
:1054C000172805D94FF4F17219A169A003F0EEFA7B
:1054D0006078010901EB810100F00F0000EB410051
:1054E000C0B23B2805D94FF4F27211A16EA003F0AF
:1054F000DDFAA078010901EB810100F00F0000EB5B
:105500004100C0B23B2805D940F2E51208A174A0C1
:1055100003F0CCFAA0782178E27840EA0140617883
:10552000090241EA024140EA0103A2E708280040DB
:105530002E2E5C6669726D776172655C6E333267C0
:105540003435785F7374645F7065726970685F6426
:1055500072697665725C7372635C6E333267343580
:10556000785F7274632E630049535F5254435F4601
:105570004F524D4154285254435F466F726D6174CF
:105580002900000049535F5254435F3132484F5560
:105590005228746D707265676973746572290000B2
:1055A00049535F5254435F483132285254435F5449
:1055B000696D655374727563742D3E4831322900EC
:1055C00049535F5254435F3132484F555228525429
:1055D000435F54696D655374727563742D3E486FF3
:1055E000757273290000000049535F5254435F32C3
:1055F00034484F5552285254435F54696D65537473
:10560000727563742D3E486F757273290000000037
:1056100049535F5254435F4D494E555445532852A8
:1056200054435F54696D655374727563742D3E4DB8
:10563000696E75746573290049535F5254435F5313
:1056400045434F4E4453285254435F54696D65534C
:1056500074727563742D3E5365636F6E64732900B5
:10566000242800407F7F7F00002800400C28004055
:1056700049535F5254435F3234484F555228525475
:10568000435F42636432546F4279746528525443D5
:105690005F54696D655374727563742D3E486F7500
:1056A000727329290000000049535F5254435F4D33
:1056B000494E55544553285254435F426364325413
:1056C0006F42797465285254435F54696D65537411
:1056D000727563742D3E4D696E757465732929006A
:1056E00049535F5254435F5345434F4E44532852EE
:1056F00054435F42636432546F4279746528525454
:10570000435F54696D655374727563742D3E5365C0
:10571000636F6E647329290081B00F4900200090E7
:10572000086810F0400F04BF8020086010D108689E
:10573000009A00F04000521C0092B2F5005F01D0C8
:105740000028F4D0086810F0400004BF01B0704792
:10575000012001B0704700000C28004070B50C46D5
:10576000050018BF012D05D04FF4377218A126A0EF
:1057700003F09CF92B48006820F0C00121F07F4124
:105780000B0CC1F30422E37001F03F006270A070C3
:10579000C1F342312170002D18BF70BD190901EB12
:1057A000810103F00F0303EB4101E170110901EBEB
:1057B000810102F00F0202EB41016170010901EB6E
:1057C000810100F00F0000EB4100A07070BD0000EF
:1057D0002E2E5C6669726D776172655C6E3332671E
:1057E0003435785F7374645F7065726970685F6484
:1057F00072697665725C7372635C6E3332673435DE
:10580000785F7274632E630049535F5254435F465E
:105810004F524D4154285254435F466F726D61742C
:10582000290000000428004070B50C46050018BF90
:10583000012D05D040F23D2218A126A003F036F933
:105840002B4800682B494FF0400C0140C1F3054242
:10585000C1F30623227001F07F006370A0700CEA90
:105860001141E170002D18BF70BD110901EB8101DC
:1058700002F00F0202EB41012170190901EB8101D5
:1058800003F00F0202EB41016170010901EB81019C
:1058900000F00F0000EB4100A07070BD2E2E5C6682
:1058A00069726D776172655C6E3332673435785F2B
:1058B0007374645F7065726970685F64726976653D
:1058C000725C7372635C6E3332673435785F727406
:1058D000632E630049535F5254435F464F524D411C
:1058E00054285254435F466F726D61742900000062
:1058F000002800407F7F7F0070B5054600260068C5
:105900003446402818BF002804D0C7221EA12CA06E
:1059100003F0CCF868687F2804D9C8221AA135A002
:1059200003F0C4F8A868B0F5004F04D3C92216A14B
:105930003EA003F0BBF84B4BCA2018605320186000
:10594000FFF7EAFEB0B14848016821F0400101606C
:1059500001682A68114301604448A9680160016830
:10596000AA8841EA02410160001F016821F080011C
:1059700001600126FF20186040F2FF20641C844271
:10598000FCD3304670BD00002E2E5C6669726D77C8
:105990006172655C6E3332673435785F7374645F4F
:1059A0007065726970685F6472697665725C737243
:1059B000635C6E3332673435785F7274632E6300D4
:1059C00049535F5254435F484F55525F464F524DC3
:1059D0004154285254435F496E697453747275631D
:1059E000742D3E5254435F486F7572466F726D61FD
:1059F0007429000049535F5254435F505245444953
:105A0000565F4153594E4348285254435F496E698B
:105A1000745374727563742D3E5254435F417379AD
:105A20006E636850726564697629000049535F525D
:105A300054435F5052454449565F53594E4348289A
:105A40005254435F496E69745374727563742D3E8A
:105A50005254435F53796E63685072656469762966
:105A600000000000242800400828004010280040C2
:105A700070B50C46050000F05F80012D05D040F2A6
:105A8000722256A163A003F011F8E078010901EB3E
:105A9000810100F00F0000EB4100C0B2632805D97E
:105AA0004FF420724DA162A003F000F86078010964
:105AB00001EB810100F00F0000EB4100C0B2401E7D
:105AC0000B2805D940F2822244A166A002F0EEFF25
:105AD000A078010901EB810100F00F0000EB41000B
