:020000040800F2
:1000000018610020AD010008413E0008E926000803
:1000100001370008FD0D000871770008000000009E
:10002000000000000000000000000000BF01000808
:10003000FF0D000800000000C3010008E55700089C
:10004000C7010008C7010008C7010008C701000870
:10005000C7010008C7010008C7010008C701000860
:10006000C5130008C7010008C7010008C701000840
:10007000C7010008C7010008C7010008C701000840
:10008000C7010008C7010008C7010008C701000830
:10009000C7010008C7010008C7010008C701000820
:1000A000C7010008C7010008C7010008C701000810
:1000B000C7010008C7010008C7010008C701000800
:1000C000C7010008C7010008C7010008C7010008F0
:1000D000C7010008C70100083D6B0008956B0008C8
:1000E000C7010008C7010008C7010008C7010008D0
:1000F000C7010008C7010008C7010008C7010008C0
:10010000C7010008C7010008C7010008C7010008AF
:100110001D6B0008C701000849630008C7010008FB
:10012000C7010008C7010008C7010008C70100088F
:10013000C7010008C7010008C7010008C70100087F
:10014000C7010008C7010008C7010008C70100086F
:10015000C7010008C7010008C7010008C70100085F
:10016000C7010008C7010008C7010008C70100084F
:10017000C7010008C7010008C7010008C70100083F
:10018000C7010008C7010008C7010008C70100082F
:10019000C7010008C7010008DFF80CD000F0D0F953
:1001A00000480047FD7F000818610020064880478E
:1001B00006480047FEE7FEE7FEE7FEE7FEE7FEE74C
:1001C000FEE7FEE7FEE7FEE7E957000899010008B1
:1001D00040EA01039B0703D009E008C9121F08C0C9
:1001E000042AFAD203E011F8013B00F8013B521E49
:1001F000F9D27047D2B201E000F8012B491EFBD2C0
:1002000070470022F6E710B513460A460446194621
:10021000FFF7F0FF204610BD30B505462A460B46D5
:1002200012F8010B13F8014B08B1A042F8D01CB131
:10023000002802D06D1CF1E7284630BDCAB2401E2E
:1002400010F8011F8A4202D00029F9D1002070471E
:10025000421C10F8011B0029FBD1801A704770B5B1
:10026000064607F0F7FA046805460A2200213046E0
:1002700000F0D1F82C6070BD2DE9FE4F81EA030437
:1002800004F0004421F0004100944FF0000B23F0F3
:10029000004350EA01045ED052EA03045BD0C3F38A
:1002A0000A54C1F30A552C44A4F2F3340194A0FB80
:1002B0000254C1F3130141F48011C3F3130343F457
:1002C000801301FB024400FB034E840A970A44EAB0
:1002D000815447EA8357A4FB076802958D0A05FB02
:1002E00007854FEA932C04FB0C542705029D4FEA27
:1002F000065847EA1637B5EB08056EEB070C870E74
:10030000920E47EA811742EA8312A7FB0201B6EB7D
:100310000B0164EB00042B0D43EA0C335E1844EB35
:100320001C50DA465146E7FB0201C5F313044FEABD
:100330000B3343EA14534FEA0432019C43EA0603A9
:10034000A4F10C040294009CCDE900B400F0AAF8DA
:1003500003B0BDE8F08F00200146F9E70EB5C10FEC
:1003600080EAE0700844CA07002140F233438DE878
:100370000E000A460B4600F095F803B000BD0EB51E
:1003800040F2334102910021CDE900110A460B46AB
:1003900000F088F803B000BDC1F30A5210B5C1F3F4
:1003A000130140F2FF3341F480119A4201DA002038
:1003B00010BD40F233439A42A2F2334203DC524270
:1003C00000F019F810BD904010BD30B50B46014645
:1003D00000202022012409E021FA02F59D4205D3E4
:1003E00003FA02F5491B04FA02F52844151EA2F18E
:1003F0000102F1DC30BD202A04DB203A21FA02F0B0
:100400000021704721FA02F3D040C2F1200291404E
:100410000843194670472DE9F04791460F4680463C
:100420000446002614F8015B2DB100F0ABF800681B
:10043000405DC007F6D12B2D02D02D2D18D0641EA3
:100440004A463946204600F0A1F827B13968A14252
:1004500001D1C7F8008071054FF002040BD540426E
:10046000002803DD07F0F6F90460A007BDE8F08777
:1004700046F48066E4E70028F8DA07F0EBF9046058
:100480006FF00040F2E710B5141E73F1000408DAB3
:10049000401C41F1000192185B411A4301D120F048
:1004A000010010BD2DE9F04D92469B4611B1B1FA05
:1004B00081F202E0B0FA80F22032904600F052F869
:1004C00004460F4640EA0A0041EA0B0153465A46E9
:1004D000084313D0114653EA010019D0C8F1400275
:1004E0005046FFF788FF05460E465046594642469D
:1004F00000F038F8084305D0012004E020463946D2
:10050000BDE8F08D0020054346EAE0762C433743F2
:100510000A986305E40AA0EB08000022FD0A44EAF9
:1005200047540A3002D500200146E9E701051019B9
:100530006941DDE9084500196941BDE8F04DA2E7D0
:10054000064C074D06E0E06840F0010394E8070020
:1005500098471034AC42F6D3FFF722FE9CAA00085D
:10056000BCAA0008202A04DB203A00FA02F100208D
:1005700070479140C2F1200320FA03F319439040E1
:1005800070470000004870475CA900082DE9F05F43
:1005900082460078002715468B460AF10104B946C9
:1005A000302801D09DB113E014F8010B0127782801
:1005B00003D0582801D045B10AE00DB1102D07D164
:1005C0000027102514F8010B02E0082500E00A2599
:1005D0000026B0460EE005FB080005FB06F10127EA
:1005E00001EB10461FFA80F8B6F5803F00D3B946FC
:1005F00014F8010B294600F018F80028EBDABBF1DB
:10060000000F05D00FB1641E00E05446CBF8004047
:10061000B9F1000F06D007F01DF902210160C81ED4
:10062000BDE8F09F48EA0640FAE73A2800D23038A1
:1006300020F02002412A01D3A2F13700884201D3E1
:100640004FF0FF30704770B58C1810F8015B15F053
:10065000070301D110F8013B2A1106D110F8012B34
:1006600003E010F8016B01F8016B5B1EF9D12B0759
:1006700005D40023521E0DD401F8013BFAE710F80F
:10068000013BCB1A921C03E013F8015B01F8015BFC
:10069000521EF9D5A142D8D3002070BDF8B54FF451
:1006A0000050ADF8000010250E4E8DF803500124C7
:1006B0008DF802406946304601F072FD2103ADF825
:1006C00000108DF803508DF802406946304601F065
:1006D00067FD6103304601F077FF2103304601F0EA
:1006E00073FFF8BD000C014070B5C0F307110E2276
:1006F00002EAD10200F00F0001F00F0142F0A00465
:1007000040EA011502F0ACF904F0FE0002F06AF9CB
:1007100002F0F4F9284602F065F902F0EFF902F070
:100720009FF944F0010002F05DF902F0E7F90020C2
:1007300002F0DAF8044602F0BDF944F6206007F052
:1007400015FA204670BD70B502460E46C0F307107C
:100750000E2101EAD00102F00F0200F00F0041F07B
:10076000A00442EA001502F07BF9204602F03AF9B3
:1007700002F0C4F9284602F035F902F0BFF930461C
:1007800002F030F902F0BAF902F094F9BDE87040D5
:1007900044F6206007F0EAB970B51D4C0025E07AF8
:1007A00010B1012813D010E02079401C207103F013
:1007B00031FB0C2117A006F0BFFF64216570194AB8
:1007C0000C2007F001F80120E072002070BD03F05A
:1007D00015FB002808BF70BD134E306803F07EFE85
:1007E00001461248326801F0DAF811A10F48FFF70C
:1007F00013FD00281EBFE572012070BD20790A2874
:1008000098BFE572E1D92571E572022070BD000044
:100810003C00002041542B51494143543D310D0AC5
:1008200000000000353E000838000020D0100020F5
:100830004F4B00000146064A09780020135C99429C
:1008400008BF7047401CC0B20A28F7D370470000A9
:10085000368100082DE9F0014FF0000C002A88BF16
:10086000154C24D911F81C60002314F80380464568
:1008700004BF1D072D0E5B1CDBB2102BF5D301EB63
:100880004C060023767814F80380464508BF03F031
:100890000F075B1CDBB2102BF5D345EA070300F80A
:1008A0000C300CF101031FFA83FC9445DAD3BDE848
:1008B000F0015008704700003681000838B5044642
:1008C00000200090042C18BF082C54D00C2C18BF0A
:1008D000102C50D0142C18BF182C4CD01C2C18BF26
:1008E000202C48D0242C18BF282C44D0402C18BFD2
:1008F000442C40D0482C18BF4C2C3CD0502C18BF56
:10090000542C38D0582C18BF5C2C34D0602C18BF15
:10091000642C30D0682C18BF6C2C2CD0702C18BFD5
:10092000742C28D0782C18BF7C2C24D0802C18BF95
:10093000842C20D0882C18BF8C2C1CD0902C18BF55
:10094000942C18D0982C18BF9C2C14D0A02C18BF15
:10095000A42C10D0A82C18BFAC2C0CD0B02C18BFD5
:10096000B42C08D0B82C18BFBC2C04D0C62205A1CA
:1009700012A007F065F804F1804000F5D84000901F
:10098000008838BD2E2E5C6669726D776172655C79
:100990006E3332673435785F7374645F7065726983
:1009A00070685F6472697665725C7372635C6E33E3
:1009B00032673435785F626B702E630049535F4253
:1009C0004B505F44415428424B505F4441542900EE
:1009D00038B5044600200D460090042C18BF082CA2
:1009E00054D00C2C18BF102C50D0142C18BF182C1D
:1009F0004CD01C2C18BF202C48D0242C18BF282CDD
:100A000044D0402C18BF442C40D0482C18BF4C2C4C
:100A10003CD0502C18BF542C38D0582C18BF5C2C0C
:100A200034D0602C18BF642C30D0682C18BF6C2CCC
:100A30002CD0702C18BF742C28D0782C18BF7C2C8C
:100A400024D0802C18BF842C20D0882C18BF8C2C4C
:100A50001CD0902C18BF942C18D0982C18BF9C2C0C
:100A600014D0A02C18BFA42C10D0A82C18BFAC2CCC
:100A70000CD0B02C18BFB42C08D0B82C18BFBC2C8C
:100A800004D0B32205A113A006F0DAFF04F18040E0
:100A900000F5D8400090056038BD00002E2E5C6641
:100AA00069726D776172655C6E3332673435785F79
:100AB0007374645F7065726970685F64726976658B
:100AC000725C7372635C6E3332673435785F626B6D
:100AD000702E630049535F424B505F44415428429B
:100AE0004B505F44415429002DE9F0415C4C818812
:100AF000A1808179A171B0F801102180C178A17025
:100B0000B0F807102181417AA1724189A181017B4E
:100B1000A173B0F80D102182C17BA174018AA1825A
:100B2000817CA175B0F813102183407DA0766068A8
:100B3000FFF725FC9FED4C1B53EC112BFFF79CFBA3
:100B4000FFF72AFC04F11C0586B22E802068FFF70F
:100B500016FC9FED471B53EC112BFFF78DFBFFF7A6
:100B60001BFC87B26F80E068B0F5000F03DBC04369
:100B7000401CC0F31600FFF7F1FB9FED3F1B53EC49
:100B8000112BFFF779FBFFF707FC80B200EE100A8C
:100B9000A8803D4BB8EE401A00EE106AB8EE400A4D
:100BA000C1EE000A00EE107AB8EE401A80EE810A1B
:100BB000DFED330A60EE200A9FED320A60EE800A14
:100BC000FCEEE00A10EE900A287320695968084488
:100BD000586019469A68C968904203D3821A114432
:100BE000D96006E06FF07F4CACEB02020244114486
:100BF000D9600022C3E901200D291AD300EE901A12
:100C00009FED221AA968F8EE600A60EE810A20EED4
:100C1000800ABCEEC00A10EE100A0844A860010C5D
:100C20000820DA6003F05EF8288981B2092003F019
:100C300059F82988042003F055F868884CF6CD410E
:100C40004843C10C052003F04DF8A988072003F0A4
:100C500049F8297BBDE8F041062003F043B80000C5
:100C6000F40B0020000000009FE74A621B81103F48
:100C7000CD2D44350B4E903F56B7DD7835487A3F41
:100C80000000C84200007A4428000020EDF8433AF2
:100C900008B507A00068009006480178012918BF30
:100CA00008BD002101700221684606F0AFFC08BDB6
:100CB00058AA000028000020084808B500680090E5
:100CC00007480178012905D10021017002216846F9
:100CD00006F09CFCBDE8084006F0B4BCB00C00086F
:100CE0002800002038B50220ADF8000010208DF853
:100CF00003000120104C8DF802006946204601F0E7
:100D00004FFA0221204601F0F5FB0221204601F0B6
:100D10005BFC4FF4FA7006F01DFF0221204601F043
:100D2000E9FB40F6B83006F015FF044A4FF47A713B
:100D3000042006F049FD38BD00080140A554000814
:100D400038B506F037FF06F025FD03F0AFFB07F0DE
:100D500027F806F061FF06F0E1FF03F072F804F0F7
:100D600003FCFFF7BFFF07F0F9F84FF48050ADF830
:100D7000000010208DF80300144D01248DF802406E
:100D80006946284601F00CFA2103284601F0B2FB1F
:100D9000ADF8004048218DF803106946284601F05F
:100DA000FFF904F09FFE04F0B9FB03F049FEFFF7E2
:100DB00075FC00F005FD02F0C5F907F081F805F0BB
:100DC000B7FABDE8384002A006F020BD0008014097
:100DD00048656C6C6F20576F726C64210D0A0000BF
:100DE000054910B50120487002F076FAFFF764FF5C
:100DF000BDE8104007F0B0B816000020FEE77047CD
:100E000070B584B000254CF2186420B301281CBFD3
:100E100004B070BD1026CDE900464FF61F03002236
:100E20000C21D820029505F04FF8CDE900464FF689
:100E30001F0301220C21E820029505F045F8CDE9B9
:100E400000464FF61F0302220C21F820029505F000
:100E50003BF804B070BD1820CDE90040002304A287
:100E60000C210295D82005F007FA04B070BD0000EF
:100E7000202020200000000070B5002484B0202530
:100E80004CF21866E8B101281CBF04B070BD012007
:100E900002F00AFA0096CDE901544FF47843142287
:100EA000C021E02005F010F80096CDE901544FF480
:100EB00078430F22C0214FF4807005F005F804B08C
:100EC00070BD002002F0F0F90096CDE901544FF416
:100ED000FC631522C021E02004F0F6FF0096CDE966
:100EE00001544FF4FC630F22C0214FF4807004F0D2
:100EF000EBFF04B070BD70B5002484B020254CF227
:100F00001866E0B101281CBF04B070BD012002F0DA
:100F1000D7F90096CDE901544FF4FC63112240212A
:100F2000E02004F0D1FF0096CDE9015440214FF4B8
:100F3000FC631322880004F0C7FF04B070BD0020DA
:100F400002F0BEF90096CDE901544FF47843122225
:100F50004021E02004F0B8FF0096CDE90154402183
:100F60004FF478431322880004F0AEFF04B070BD44
:100F700070B5002484B020254CF21866E0B1012839
:100F80001CBF04B070BD012002F0D4F90096CDE979
:100F900001544FF4FC630B22C021582004F094FF4D
:100FA0000096CDE901544FF4FC630C22C021782057
:100FB00004F08AFF04B070BD002002F0BBF9009677
:100FC000CDE901544FF478430D22C021582004F09C
:100FD0007BFF0096CDE901544FF478430E22C021E7
:100FE000782004F071FF04B070BD0000F0B5364900
:100FF00083B0002448781825401CC0B2334F487095
:101000004CF2186607285BD2DFE800F05A041E2F66
:101010003A454E00CDE9004602953A88042308215E
:10102000002005F0CFF8CDE900460295BA780223FA
:1010300008213C2005F0C6F8CDE9004602950223C0
:101040000821FA78602022E0CDE9004602953A793D
:1010500002230821842005F0B5F8CDE90046029569
:10106000022308217A79A82011E0CDE90046042363
:10107000DC2240215820029505F0A4F803B0F0BD11
:10108000CDE900460423502260215820029505F046
:1010900099F803B0F0BDCDE900460623802144F263
:1010A000C04258200295F2E7CDE9006500230A22EC
:1010B0009FED070AA021582005F024F803B0F0BDE9
:1010C0004C7003B0F0BD0000530000202000002051
:1010D000A379EB4CF0B583B04CF218640021F023F7
:1010E0004FF4A0720846009404F0D5FC4FF4784009
:1010F000302300904FF4A0721946002004F06CFCDD
:101100000025A64FCDE90054182602963A880423FC
:101110000821284605F056F8CDE900460023A0A294
:1011200008213020029505F0A7F8CDE90054029679
:10113000BA78022308213C2005F044F8CDE90046A6
:10114000002397A208215420029505F095F8CDE9D7
:1011500000540296FA7802230821602005F032F844
:10116000CDE9005402963A7902230821842005F043
:1011700029F8CDE9004600238AA208219C20029587
:1011800005F07AF8CDE9005402967A790223082115
:10119000A82005F017F8042002F078FDFFF730FED4
:1011A000CDE90046002380A208214FF491700295FA
:1011B00005F062F820270023CDE900471A464021B8
:1011C0001846029504F080FECDE900470023012275
:1011D00040212020029504F077FECDE90046402111
:1011E000002370A20846029505F046F8CDE90054A8
:1011F0000423DC2240215820029604F0E3FFCDE9CD
:101200000046002369A24021A020029505F034F891
:10121000CDE900474FF4784312224021E0200295A7
:1012200004F052FECDE9004740214FF478431322E9
:101230008800029504F048FE0023CDE900471A46D5
:1012400060211846029504F03FFECDE900470023D7
:10125000022260212020029504F036FECDE90046EE
:10126000002350A260214020029505F005F8CDE949
:1012700000540423502260215820029604F0A2FF5B
:10128000CDE9004600234AA26021A020029504F087
:10129000F3FFCDE900470023032280211846029581
:1012A00004F012FECDE90047002304228021202013
:1012B000029504F009FECDE90046002339A2802101
:1012C0004020029504F0D8FFCDE90054062344F2F3
:1012D000C04280215820029604F074FFCDE90046F8
:1012E000002334A28021D020029504F0C5FFCDE96F
:1012F000004700230722A0211846029504F0E4FDD0
:10130000CDE9004700230822A0212020029504F007
:10131000DBFDCDE90046002322A2A021402002955A
:1013200004F0AAFFCDE9004600230A229FED220A1D
:10133000A021582004F0E6FECDE9004600231FA2BC
:10134000A021F800029504F097FFCDE900470023A3
:101350000922C0211846029504F0B6FDCDE90047E8
:1013600000230A22C0212020029504F0ADFDCDE922
:10137000004600230BA2C0214020029504F07CFF10
:10138000012002F083FCFFF7F3FD022002F07EFC57
:1013900003B0BDE8F040FFF76FBD00002000002063
:1013A0002F0000003A000000344700005600000003
:1013B0004100000057000000A379EB4C4B572F4829
:1013C0000000000010B5042000F028F8002808BF35
:1013D00010BD06F06FFDBDE810400420AFF30080A3
:1013E00010B50446800D00D12CB940F2011203491A
:1013F00003A006F025FB0848046010BD3CAA0008C5
:1014000049535F455854495F4C494E452845585407
:10141000495F4C696E6529001404014070B50025D0
:101420000446012818BF022C3AD0042C18BF082CFF
:1014300036D0102C18BF202C32D0402C18BF802C56
:101440002ED0B4F5807F18BFB4F5007F28D0B4F556
:10145000806F18BFB4F5006F22D0B4F5805F18BF5D
:10146000B4F5005F1CD0B4F5804F18BFB4F5004F41
:1014700016D0B4F5803F18BFB4F5003F10D0B4F5D6
:10148000802F18BFB4F5002F0AD0B4F5801F18BF05
:10149000B4F5001F04D0EB22074908A006F0D0FAEB
:1014A0000D4800680D492040096821421CBF0028F2
:1014B0000125284670BD00003CAA000849535F473B
:1014C00045545F455854495F4C494E45284558544A
:1014D000495F4C696E652900000401401404014015
:1014E00010B504460079002818BF042804D07322E0
:1014F0002F4930A006F0A4FA607908281CBF0C28F8
:10150000102804D074222A4935A006F099FA2068E0
:10151000810D00D120B9752225493DA006F090FA31
:10152000A079002818BF012804D07622204943A0C2
:1015300006F086FAA1794E48002930D00168226869
:1015400091430160001D0168226891430160207988
:1015500000F1804000F5823001682268114301608B
:10156000444908682268904308600A1D106823688F
:10157000984310606079102808D000F1804000F591
:101580008230016822681143016010BD0868236839
:1015900018430860106821680843106010BD207966
:1015A00000F1804000F58230016822689143EBE74A
:1015B0003CAA000849535F455854495F4D4F444584
:1015C00028455854495F496E697453747275637441
:1015D0002D3E455854495F4D6F6465290000000059
:1015E00049535F455854495F54524947474552282B
:1015F000455854495F496E69745374727563742D0C
:101600003E455854495F5472696767657229000006
:1016100049535F455854495F4C494E4528455854F5
:10162000495F496E69745374727563742D3E4558F1
:1016300054495F4C696E65290000000049535F46BC
:10164000554E4354494F4E414C5F535441544528E5
:10165000455854495F496E69745374727563742DAB
:101660003E455854495F4C696E65436D64290000DE
:101670000004014008040140001DFFF764B82DE993
:10168000F0475FEA010807464FF000041ABF4FF029
:1016900017094FF0180ABDE8F087E519E8B202F023
:1016A00005FB010A3E1909EB4600FFF74CF8E8B2CA
:1016B00002F0FCFAC1B20AEB4600FFF744F8601CE6
:1016C000C4B2A045E9D8BDE8F08710B500211720C5
:1016D000FFF739F801211820FFF735F8002119200C
:1016E000FFF731F800211A20FFF72DF825211B20E4
:1016F000FFF729F880211C20FFF725F801211D2084
:10170000FFF721F80E211E20FFF71DF800211F20F2
:10171000FFF719F8B4212020FFF715F81F21212029
:10172000FFF711F840212220FFF70DF800212320B8
:10173000FFF709F81E212420FFF705F800212520D6
:10174000FFF701F850212620FEF7FDFF4421272056
:10175000FEF7F9FFC0212820FEF7F5FF0021292020
:10176000FEF7F1FF3F212A20FEF7EDFF0021312097
:10177000FEF7E9FF02213220FEF7E5FF00213320CA
:10178000FEF7E1FFFF213420FEF7DDFF00213520C9
:10179000FEF7D9FF00213620FEF7D5FF00213720C4
:1017A000FEF7D1FF7F213820FEF7CDFF172139202A
:1017B000FEF7C9FF3B21BDE810403A20FEF7C3BF4A
:1017C000F8B500246D462046FEF78EFF2855601CB4
:1017D000C4B2042CF7D39DF8000018251726A128C1
:1017E00004BF9DF80100582807D19DF80200592830
:1017F00004BF9DF80300A22841D0A1210020FEF7DC
:10180000A2FF58210120FEF79EFF59210220FEF77A
:101810009AFFA2210320FEF796FF00218F20FEF7FA
:1018200092FF00219020FEF78EFF00219120FEF70D
:101830008AFF00219220FEF786FF00F079F8002150
:101840000420FEF780FF01210520FEF77CFF002128
:101850000620FEF778FF01210720FEF774FF002124
:101860000820FEF770FFFFF730FF00F061F800245A
:10187000201DFEF739FF012833D088B33AE000F08D
:1018800057F80024201DFEF72FFF012801D028B1B2
:1018900008E00121204602F00FFA03E00021204673
:1018A00002F00AFA601CC4B2052CEBD3012002F04E
:1018B000EDF903F003FE002405EB4400FEF714FFEE
:1018C000074606EB4400FEF70FFF07EB002081B24E
:1018D000204602F00DFA601CC4B2212CECD3F8BDF6
:1018E00004E00121204602F0E7F903E00021204650
:1018F00002F0E2F9601CC4B2052CB9D3012002F059
:10190000C5F903F0DBFD002405EB4400FEF7ECFE17
:10191000074606EB4400FEF7E7FE07EB002081B226
:10192000204602F0E5F9601CC4B2212CECD3F8BDCE
:1019300010B58F20FEF7D8FE04069020FEF7D4FEE7
:1019400004EB00449120FEF7CFFE04EB002492202C
:10195000FEF7CAFE2044064C010CA060082002F0ED
:10196000C1F92089BDE8104081B2092002F0BAB95E
:10197000100C002010B500218F20FEF7E4FE00219E
:101980009020FEF7E0FE00219120FEF7DCFE002112
:101990009220FEF7D8FEBDE81040FFF7C9BF002334
:1019A000002998BF7047F0B40026D2E902C464450C
:1019B00008BF34460BD01468556814F80C400CF17D
:1019C000010C9CFBF5F705FB17CCC2F808C0C4540A
:1019D0005B1C8B42E9D3F0BC7047000070B50C462D
:1019E000050018BF012D0ED0022D18BF032D0AD0FF
:1019F000042D1CBF052D062D05D040F247321FA136
:101A00002DA006F01DF8002C18BF012C21D0022CAF
:101A100018BF032C1DD0042C18BF052C19D0062C80
:101A200018BF072C15D0082C18BF092C11D00A2C70
:101A300018BF0B2C0DD00C2C18BF0D2C09D00E2C60
:101A400018BF0F2C05D04FF452720CA124A005F042
:101A5000F7FFA007010F0F2000FA01F224F00300A6
:101A600000F1804000F58030836823EA0202826042
:101A7000826805FA01F11143816070BD2E2E5C660B
:101A800069726D776172655C6E3332673435785F89
:101A90007374645F7065726970685F64726976659B
:101AA000725C7372635C6E3332673435785F677073
:101AB000696F2E630000000049535F4750494F5F34
:101AC000455854495F504F52545F534F5552434508
:101AD00028506F7274536F7572636529000000009F
:101AE00049535F4750494F5F50494E5F534F5552DE
:101AF00043452850696E536F757263652900000075
:101B000070B50D460446012818BF022C00F0E08194
:101B1000042C18BF082C00F0DB81A4F5A0101038AD
:101B20001CBFA4F5A010B0F1300000F0D181A4F5E5
:101B3000B01040381CBFA4F5B010B0F1C00000F0E8
:101B4000C781A4F5C010B0F580701CBFA4F5C0100B
:101B5000B0F5007000F0BC81A4F5C010B0F5407085
:101B60001CBFA4F5C010B0F5023000F0B181A4F59F
:101B7000C010B0F5033018BFB4F5805F00F0A88145
:101B8000B4F5E91F18BFB4F5EA1F00F0A181B4F560
:101B9000EB1F18BFB4F5004F00F09A816FF40010EE
:101BA000C4421CBFA4F50010B0F1020000F0908107
:101BB000A4F50010001F1CBFA4F50010B0F1080030
:101BC00000F08681A4F5001010381CBFA4F5401069
:101BD000B0F5807000F07C81A4F54010B0F5007085
:101BE0001CBFA4F54010B0F5806000F07181FB4887
:101BF00084421CBF6FF08040C44200F06981F84805
:101C000084421CBFF748844200F06281F648844257
:101C10001CBFF648844200F05B81F54884421CBF3B
:101C2000F448844200F05481F34884421CBFF348D6
:101C3000844200F04D81F24884421CBFF148844246
:101C400000F04681F04884421CBFF048844200F016
:101C50003F81A4F18040B0F5F2101CBFA4F1804098
:101C6000B0F5F41000F03481A4F18040B0F5F61026
:101C70001CBFE748844200F02B81E64884421CBF29
:101C8000E548844200F02481A4F18040B0F19070D6
:101C90001CBFE248844200F01B81E14884421CBF23
:101CA000A4F18040B0F1846000F01281DD488442EC
:101CB0001CBFDD48844200F00B81DC4884421CBF1D
:101CC000DB48844200F00481DA4884421CBFDA48D1
:101CD000844200F0FD80D94884421CBFD848844229
:101CE00000F0F680D74884421CBFD748844200F0F9
:101CF000EF80D64884421CBFD548844200F0E8807B
:101D0000D44884421CBFD448844200F0E180A4F14E
:101D10008040B0F579101CBFA4F18040B0F57B1075
:101D20007ED0CE4884421CBFCD48844278D0CD4876
:101D300084421CBFCC48844272D0CC4884421CBF31
:101D4000CB4884426CD0CB4884421CBFCA488442F2
:101D500066D0CA4884421CBFC948844260D0C94882
:101D600084421CBFC84884425AD0C84884421CBF21
:101D7000C748844254D0C74884421CBFA4F10050D5
:101D8000B0F580504CD0A4F10050B0F580401CBF9D
:101D9000A4F10050B0F5004042D0BF4884421CBFBF
:101DA000BE4884423CD0BE4884421CBFBD488442E9
:101DB00036D0BD4884421CBFBC48844230D0BC48A9
:101DC00084421CBFBB4884422AD0BB4884421CBF0B
:101DD000BA4884427CD0A4F5001080381CBFA4F51A
:101DE000B010B0F1800073D0A4F1815080381CBFD6
:101DF000A4F18150B0F140006AD0A4F181502038A4
:101E00001CBFA4F18150B0F1100061D0A4F1815049
:101E100008381CBFA4F18150B0F1040058D000E094
:101E200056E0A4F18150801E1CBF6FF08150C44267
:101E30004ED0A4F18050B0F500401CBFA4F18050FA
:101E4000B0F5804044D0A4F18050B0F5005018BFE8
:101E5000B4F1102F3CD0A4F18050B0F500601CBF4D
:101E6000A4F18050B0F5806032D0A4F18050B0F57C
:101E700000701CBFA4F18050B0F5807028D0A4F190
:101E8000805080381CBFA4F18050B0F140001FD0BA
:101E9000A4F1805020381CBFA4F18050B0F1100094
:101EA00016D0A4F1805008381CBFA4F18050B0F1C6
:101EB00004000DD0A4F18050801E1CBF6FF0805034
:101EC000C44205D040F27A227DA18CA005F0B8FD75
:101ED000002D18BF012D05D040F27B2278A18DA0E6
:101EE00005F0AEFD924A14F0004F18BFD0691ED025
:101EF00090491FFA84FC04EA0106C4F340510B0127
:101F0000A1B29940B6F5401F21D014F4801F24D00F
:101F100014F4001F4FF00303C4F3034603FA06F35F
:101F200018BF1B04984314F0E04F52D11EE114F087
:101F3000804F18BF106ADBD114F0005F18BF506AE1
:101F4000D6D114F0805F14BF906A5068D0E7536810
:101F500020F0706023F07063FAE014F0807F25D0E9
:101F600014F0040F1AD014F0007F20EA01000ED004
:101F700035B1536843F0010343F070635360F8E0F8
:101F8000516821F0010141F070615160F2E0536845
:101F900023F0010343F070635360E9E04CF0040C5C
:101FA0000CFA03F39843002DEAD0E2E714F0806FB7
:101FB00011D014F0080F0FD014F0007F20EA0100B8
:101FC0000BD03DB1536843F0080343F07063536096
:101FD000CFE0CDE0B0E0C5E0BCE0B4E000040080BC
:101FE000020011400600114020001440300014404F
:101FF00040001640C0001640000218400003184080
:1020000000041A40000C1A4000101C4000301C4014
:102010000100304002003040030030400400204105
:1020200004002043080020440800204610003440EB
:1020300020003440300034404000364080003640BC
:10204000C0003640000238400003384000043A40E7
:10205000000C3A4000103C4000303C400100102091
:10206000020010200300102004001220080012209B
:102070000C00122010001420300014204000162004
:10208000C0001620000118200002182000031820AC
:1020900000041A20000C1A20010020200200202039
:1020A00004002020080020201000342030003420BC
:1020B000400020208000202000012020000220205D
:1020C0002E2E5C6669726D776172655C6E33326765
:1020D0003435785F7374645F7065726970685F64CB
:1020E00072697665725C7372635C6E333267343525
:1020F000785F6770696F2E630000000049535F4787
:1021000050494F5F52454D415028526D7050696E95
:102110002900000049535F46554E4354494F4E41F4
:102120004C5F535441544528436D6429000000001E
:102130000000014000003070516821F0080141F0BA
:102140007061516016E0536823F0080343F0706338
:1021500053600DE04CF0080C0CFA03F39843002D8B
:10216000EAD02FE7884314F0E04F01D140F07060CF
:1021700005B1084314F0004F1CBFD06170BD14F0CE
:10218000804F1CBF106270BD14F0005F1CBF506216
:1021900070BD14F0805F14BF9062506070BD00008D
:1021A0002DE9F04104460026A0F180400D46B0F52F
:1021B00084301CBFA4F18040B0F586301CD0A4F15F
:1021C0008040B0F588301CBFA4F18040B0F58A3063
:1021D00012D0A4F18040B0F58C301FBFA4F1804034
:1021E000B0F58E30A4F18040B0F5903004D0BE221E
:1021F0003FA14EA005F024FCE878002818BF042871
:1022000010D0282818BF48280CD0142818BF102830
:1022100008D01C2818BF182804D0BF2234A14AA017
:1022200005F00EFC288820B9C02231A151A005F08C
:1022300007FCE87800F00F0710F0100F0FD0A87817
:10224000002818BF022808D0012818BF032804D08E
:10225000C72227A150A005F0F3FBA87807432878F0
:102260004FF00F0C10F0FF0F4FF0010318BF216863
:1022700019D02A8803FA06F0024082420FD1B20038
:102280000CFA02F821EA080107FA02F21143EA788F
:10229000282A08BF606102D0482A08BF2061761C46
:1022A000082EE6D321602888FF2886BF62680020B8
:1022B000BDE8F08100F108012E8803FA01F10E401B
:1022C0008E420FD186000CFA06F822EA080207FABD
:1022D00006F63243EE78282E08BF6161EE78482E6C
:1022E00008BF2161401C0828E4D36260BDE8F0818A
:1022F0002E2E5C6669726D776172655C6E33326733
:102300003435785F7374645F7065726970685F6498
:1023100072697665725C7372635C6E3332673435F2
:10232000785F6770696F2E630000000049535F4754
:1023300050494F5F414C4C5F5045524950482847E7
:1023400050494F782900000049535F4750494F5F7B
:102350004D4F4445284750494F5F496E6974537447
:10236000727563742D3E4750494F5F4D6F64652908
:102370000000000049535F4750494F5F50494E28C5
:102380004750494F5F496E69745374727563742D79
:102390003E50696E2900000049535F4750494F5F26
:1023A0005350454544284750494F5F496E6974531F
:1023B00074727563742D3E4750494F5F5370656565
:1023C0006429000070B505460026A0F180400C4647
:1023D000B0F584301CBFA5F18040B0F586301DD02B
:1023E000A5F18040B0F588301CBFA5F18040B0F564
:1023F0008A3013D0A5F18040B0F58C301FBFA5F115
:102400008040B0F58E30A5F18040B0F5903005D019
:1024100040F229121BA12AA005F012FB012C18BFC3
:10242000022C28D0042C18BF082C24D0102C18BF44
:10243000202C20D0402C18BF802C1CD0B4F5807FDD
:1024400018BFB4F5007F16D0B4F5806F18BFB4F58F
:10245000006F10D0B4F5805F18BFB4F5005F0AD0EC
:10246000B4F5804F18BF052C05D04FF4957205A127
:102470001AA005F0E5FAA868204218BF01263046E8
:1024800070BD00002E2E5C6669726D776172655CAE
:102490006E3332673435785F7374645F7065726968
:1024A00070685F6472697665725C7372635C6E33C8
:1024B00032673435785F6770696F2E630000000003
:1024C00049535F4750494F5F414C4C5F504552491B
:1024D0005048284750494F782900000049535F472A
:1024E00045545F4750494F5F50494E2850696E2907
:1024F0000000000070B50446A0F180400D46B0F524
:1025000084301CBFA4F18040B0F586301DD0A4F10A
:102510008040B0F588301CBFA4F18040B0F58A300F
:1025200013D0A4F18040B0F58C301FBFA4F18040DF
:10253000B0F58E30A4F18040B0F5903005D04FF466
:10254000C57206A114A005F07BFA2DB940F28B12DA
:1025500002A118A005F074FA656170BD2E2E5C66AC
:1025600069726D776172655C6E3332673435785F9E
:102570007374645F7065726970685F6472697665B0
:10258000725C7372635C6E3332673435785F677088
:10259000696F2E630000000049535F4750494F5F49
:1025A000414C4C5F504552495048284750494F785C
:1025B0002900000049535F4750494F5F50494E285A
:1025C00050696E290000000070B50446A0F18040FB
:1025D0000D46B0F584301CBFA4F18040B0F58630C4
:1025E0001DD0A4F18040B0F588301CBFA4F180401C
:1025F000B0F58A3013D0A4F18040B0F58C301FBF05
:10260000A4F18040B0F58E30A4F18040B0F5903058
:1026100005D040F2731206A114A005F011FA2DB9ED
:102620004FF4BA7202A118A005F00AFA256170BD34
:102630002E2E5C6669726D776172655C6E333267EF
:102640003435785F7374645F7065726970685F6455
:1026500072697665725C7372635C6E3332673435AF
:10266000785F6770696F2E630000000049535F4711
:1026700050494F5F414C4C5F5045524950482847A4
:1026800050494F782900000049535F4750494F5F38
:1026900050494E2850696E290000000000B583B0F3
:1026A00001A9002002F046FC6946002002F0DCFB94
:1026B0000C489DF8041001719DF8051041719DF8BA
:1026C000061081719DF8011081709DF80210C17093
:1026D0009DF8031001F5FA6101809DF80010C171A9
:1026E00003B000BD2000002001A005F08FF8FBE73B
:1026F000766F696420486172644661756C745F48E6
:10270000616E646C657228766F6964290D0A000039
:1027100070B51D4DA8B0A878002804BF28B070BDC2
:102720000026AE70194A1AA11AA805F07FF81C48B5
:102730000090431D00F115021AA101A805F076F8DA
:1027400001A8FDF785FD84B21AA8FDF781FD82B2CC
:1027500001AB1AA90120009402F0BAFF2878401CAE
:10276000C0B2287003283CBF28B070BD2E70BFF3E4
:102770004F8F0F4801680F4A01F4E0611143016077
:10278000BFF34F8F00BFFDE7C2020020040000200E
:102790006D6F646275735F696E666F2F25730000DD
:1027A000AC16002025735F25735F257300000000C1
:1027B0000CED00E00400FA05044901208870AFF236
:1027C000070203490A2004F0FFBF0000C2020020F4
:1027D000989F0400024A03490A2004F0F5BF000054
:1027E000B9270008989F040010B5B4B00E4A0FA195
:1027F00027A805F01BF811480090431D00F11502B1
:102800000FA101A805F012F801A8FDF721FD84B27F
:1028100027A8FDF71DFD82B201AB27A90120009476
:1028200002F056FF34B010BD040000206D6F6462EA
:1028300075735F696E666F2F25730000AC160020FC
:1028400025735F25735F2573000000000848C17879
:10285000012918BF704710B50021C17001F048FC74
:10286000002808BF10BDBDE8104001F085B9000088
:10287000C202002004490120C870AFF207020349D8
:102880000B2004F0A1BF0000C2020020C0D4010050
:10289000024A03490B2004F097BF00007528000886
:1028A000C0D4010030B40023002A88BFDFF834C050
:1028B00011D9C45C01EB43050CEB1414247801F826
:1028C0001340C45C5B1C04F00F049BB21CF8044072
:1028D0006C709A42EDD84FF6FF7030BC00EA4200AF
:1028E00070470000368100082DE9F84380464FF418
:1028F0008057ADF800700420394E8DF80300002495
:1029000069463046FFF74CFC00254FF40051304635
:10291000FFF7F0FD022005F029F94FF40051304691
:10292000FFF752FE6006040E4FF480513046FFF769
:1029300049FD00281CBF601CC4B2012005F016F937
:10294000681CC5B2082DE0D310254FF00109B8F17D
:10295000000F4FF40051304620D0FFF7CBFDADF80B
:1029600000708DF803508DF8029069463046FFF7ED
:1029700017FC29023046FFF7BDFD022005F0F6F8EE
:1029800069023046FFF720FE022005F0EFF86902E9
:102990003046FFF7AFFD2046BDE8F883FFF7AAFDFC
:1029A000ADF800708DF803508DF8029069463046FE
:1029B000FFF7F6FB4FF480513046FFF705FE02208B
:1029C00005F0D4F84FF400513046FFF7FDFD02202A
:1029D00005F0CCF84FF400513046FFF78BFDDAE7F5
:1029E000000C0140F8B505464FF48050ADF80000EA
:1029F00010208DF803000120184E8DF80200694662
:102A00003046FFF7CDFB71143046FFF773FD00240D
:102A100015F0800F4FF48051304602D0FFF7D4FDFF
:102A200001E0FFF767FD6806050E022005F09EF83D
:102A30004FF400513046FFF7C7FD022005F096F82D
:102A40004FF400513046FFF755FD022005F08EF897
:102A5000601CC4B2082CDBD3F8BD0000000C0140A0
:102A600038B54FF48050ADF8000010208DF8030009
:102A700001200F4C8DF8020069462046FFF790FBBD
:102A8000A1142046FFF7A0FD61142046FFF79CFD2E
:102A9000022005F06BF8A1142046FFF72BFD022061
:102AA00005F064F861142046BDE83840FFF722BD08
:102AB000000C014038B54FF48050ADF800001020F4
:102AC0008DF8030001200C4C8DF802006946204669
:102AD000FFF766FBA1142046FFF70CFD61142046AA
:102AE000FFF772FD022005F041F8A1142046BDE871
:102AF0003840FFF769BD0000000C0140F8B54FF405
:102B00008056ADF800600420264D8DF803000024A7
:102B100069462846FFF744FBA9142846FFF754FDF1
:102B2000012005F023F869142846FFF74DFD012028
:102B300005F01CF8A9142846FFF744FC50B3601CAC
:102B4000C4B2FA2C1FD9ADF8006010208DF8030034
:102B500001208DF8020069462846FFF721FB4FF45B
:102B600080512846FFF7C6FC4FF400512846FFF776
:102B70002BFD022004F0FAFF4FF480512846FFF7A6
:102B800023FD0120F8BD4FF480512846FFF71AFCC1
:102B90000028D4D14FF400512846FFF7ABFC0020A9
:102BA000F8BD0000000C014010B4C268D0F804C0A9
:102BB000531C93FBFCF40CFB1433D0F808C06345A2
:102BC00004BF10BC704703689954C1684268491C2F
:102BD00091FBF2F302FB1311C16010BC70470000BF
:102BE0002DE9F0434A4F83B04FF00008387B10B115
:102BF000012813D080E07879401C787101F00AF93F
:102C00000A2144A004F098FDC82187F80180444AB5
:102C10000C2004F0D9FD012038736DE001F0EEF8CE
:102C2000002804BF03B0BDE8F0833E4C206801F0EB
:102C300055FC01463C482268FEF7B1FE3BA13A48EC
:102C4000FDF7EAFA5FEA000951D02C213648FDF77A
:102C5000F5FA002847D0451C87F80580801CFDF751
:102C6000E9FD04462846FDF7E5FD00EB800004EB96
:102C70004000C0B210282CBF10380830C4B2281D44
:102C8000ED1CFDF7D7FD06462846FDF7D3FD00EB0A
:102C9000800006EB4000C6B209F10400FDF7CAFD52
:102CA00081462846FDF7C6FD00EB800009EB400099
:102CB000C5B23B2C9CBF3B2E3B2D08D8CDE900650F
:102CC00023461E220C2140F2E97002F027FD2B461C
:102CD0003246214617A004F099FD87F80C8003B016
:102CE0000120BDE8F08378790A2803D108E07879DB
:102CF0000A2805D087F80C8003B00020BDE8F083D7
:102D000087F8058087F80C8003B00220BDE8F083C7
:102D10003C00002041542B43434C4B3F0D0A000024
:102D2000353E000838000020D01000202B43434CD3
:102D30004B3A000025643A25643A25640D0A0000E8
:102D40002DE9F047B54E0024DFF8D492B07BADF505
:102D5000C46D25464FF001082746092880F05681AA
:102D6000DFE800F005121A2C9098AEFDFC00F07818
:102D7000012807BFF770042086F80E800DF5C46D9A
:102D800018BFBDE8F08796E064217770A54A0C2053
:102D900004F01AFD02208EE001F030F8002870D017
:102DA00001F038F81121A0A004F0C6FC642177706E
:102DB0009C4A0C2004F008FD03207CE001F01EF882
:102DC000002879D0D9F8000001F088FB01469B4823
:102DD000D9F80020FEF7E3FD99A19848FDF71CFA09
:102DE000002800F0138199A19448FDF715FA1030DE
:102DF000044601782C2903D010F8011F2C29FBD19F
:102E0000001BA0F10108C8216846FDF7FAF9424607
:102E100021466846FDF7DCF904EB08008FA1FDF7B9
:102E2000FBF9002800F0F280841C81780DF5C16068
:102E30002C2907D014F8011B4155691C8DB221784B
:102E40002C29F7D14755FDF70AFA0546C8216846EF
:102E5000FDF7D7F92A46611C6846FDF7B9F90E2D32
:102E600009D005D9A9B24FF00102684600F046FF2B
:102E7000B77300F0CBB80E210022684600F03EFF89
:102E8000F6E719E064217770664A0C2004F09CFC98
:102E9000052010E000F0B2FF00280DD000F0BAFFCE
:102EA00008216FA004F048FC642177705D4A0C2073
:102EB00004F08AFC0620B0730DF5C46DBDE8F08700
:102EC00000F09CFF002804BF0DF5C46DBDE8F0873D
:102ED000D9F8000001F002FB01465848D9F800205B
:102EE000FEF75DFD61A15548FDF796F928B310F88E
:102EF000061F2C2904D010F8011F641C2C29FAD1BC
:102F0000DFF870817125A0EB040A08F52379012C04
:102F100002D0022C12D02EE05046FDF78BFCA5EB20
:102F20004000C2B254A10DF2DC5004F07FFC9DF8C9
:102F3000DC0588F88C0289F801701CE00AF10100B8
:102F4000FDF778FC04465046FDF774FC00EB80006A
:102F500004EB4000A5EB4000C2B201E042E00DE00E
:102F600045A10DF2DC5004F061FCBDF8DC05A8F8C9
:102F70008C0289F802700720B0739DE70E213FA0F4
:102F800004F0DAFB318A414804F0D6FB022133A079
:102F900004F0D2FB06213EA004F0CEFB728A36A1DB
:102FA0000DF5BC6004F042FC0DF5BC60FDF750F976
:102FB00081B20DF5BC6004F0BFFB022132A004F029
:102FC000BBFB718A344804F0B7FB032133A004F043
:102FD000B3FBF770C8217770124A0C2004F0F4FBA1
:102FE000082068E700F00AFF00283FF465AFD9F831
:102FF000000001F073FA01461048D9F80020FEF7EE
:10300000CEFC27A10D48FDF707F908B1B77353E7C8
:1030100086F80080B770B7734EE700003C000020D0
:1030200038000020353E000841542B4D5154545275
:103030004541443D302C310D0A000000D0100020E5
:103040002B4D515454524541443A00002B4D51549C
:1030500054524541443A20302C302C00222C0000A0
:1030600041542B4353510D0A000000002B43535190
:103070003A200000201400202564000041542B4D0C
:103080005154545055423D302C220000200C002059
:10309000302C302C302C0000E80C0020220D0A00CF
:1030A0004F4B00002DE9F041214C224F0025A07923
:1030B00020B101281FD0022831D02DE01E4EA5706E
:1030C000306801F00BFA01461C483268FEF767FCD5
:1030D00000F0A0FE4FF400413846FFF775FA4FF4B8
:1030E000FA716570164A0C2004F06EFB0120A07185
:1030F0000020BDE8F08100F081FE68B14FF400418E
:103100003846FFF7F7F941F2883165700C4A0C2018
:1031100004F05AFB0220A0710020BDE8F08100F00D
:103120006DFE00281CBFA5710120BDE8F0810000E4
:103130003C0000200008014038000020D010002092
:10314000353E000838B54FF40040ADF800001020BF
:103150008DF803000120064C8DF8020069462046D8
:10316000FFF71EF84FF400412046FFF72DFA38BD57
:10317000000801404B4810B5C07B0B2828BF10BD8C
:10318000DFE800F0061B29374957650D6F0D8400F5
:10319000FFF788FF20B1012807D0022809D010BD11
:1031A000BDE81040002004F075BF3E490120C873FF
:1031B00010BD3C490020C87310BD01F03FF8002845
:1031C00008BF10BD012802D00228F2D010BD35483A
:1031D0000221C17310BD00F0E1FF002808BF10BD3F
:1031E000012802D00228E4D010BD2E490320C87364
:1031F00010BD00F083FF002808BF10BD012806D0D5
:10320000022818BF10BD00212648C17310BD2549F2
:103210000420C87310BDFFF7E3FC002808BF10BDF1
:10322000012802D00228C4D010BD1E490820C8734E
:1032300010BD02F0F7F9002808BF10BD012802D028
:103240000228B6D010BD17490620C87310BDFDF77F
:10325000A3FA002808BF10BD0128E6D00228A8D094
:1032600010BD00F07FF8002808BF10BD012802D073
:1032700002289ED010BD0B480A21C1730121817024
:10328000FFF7B2FABDE81040FFF7AEBA0548017883
:10329000012902D100210170C173BDE81040FFF780
:1032A0004FBD00003C000020010004484FF0100119
:1032B00001D0FFF71FB9FFF787B9000000100140E8
:1032C000010004484FF0800101D0FFF713B9FFF768
:1032D0007BB9000000080140144A10B51078144C66
:1032E00001280CD1002010709178491CC9B291704E
:1032F00001290FD0907020212046FFF7FBF804F041
:1033000053FC00284FF0800120460AD0BDE8104051
:10331000FFF7F0B8FFF7C2F920212046FFF754F974
:10332000EDE7BDE81040FFF74FB9000016000020A0
:1033300000080140010004484FF0010101D0FFF7EF
:10334000D9B8FFF741B90000000C01400449012041
:103350000870AFF207024FF47A7104F035BA00003A
:103360001600002010B5A6488CB0407B0A2832D247
:10337000DFE800F0051834455F9EB7D9FBF900F08F
:1033800049FD19219FA004F0D7F99D4C002064212C
:103390006070A34A0C2004F017FA012060730CB08F
:1033A000002010BD00F02AFD002804BF0CB010BDA5
:1033B0009C4C206801F092F801469B482268FEF779
:1033C000EEFA9AA19848FCF727FF002800F0128136
:1033D0008B49022048730CB0002010BD00F01AFD8C
:1033E0001E2193A004F0A8F9854C00206421607090
:1033F0008B4A0C2004F0E8F9032000F092B800F0AA
:10340000FDFC002804BF0CB010BD864C206801F004
:1034100065F8014684482268FEF7C1FA83A1824814
:10342000FCF7FAFE002800F0E58075490420487397
:10343000D1E700F0EFFC0F2185A004F07DF9C62153
:10344000B820CDE90001EA23312285A102A804F0C9
:10345000EDF902A8FCF7FCFE81B202A804F06CF9B9
:1034600042F6483282A102A804F0E0F902A8FCF773
:10347000EFFE81B202A804F05FF902217DA004F002
:103480005BF910217C4804F057F902217BA004F07D
:1034900053F913217AA004F04FF9594C00204FF44E
:1034A000FA6160705E4A0C2004F08EF9052038E065
:1034B00000F0A4FC002804BF0CB010BD594C2068DB
:1034C00001F00CF8014658482268FEF768FA71A12D
:1034D0005548FCF7A1FE00287ED0494906204873D4
:1034E00079E700F097FC1D2170A004F025F9624AED
:1034F00076A102A804F09AF902A8FCF7A9FE81B20D
:1035000002A804F019F9052171A004F015F93C4C4A
:10351000002041F288316070414A0C2004F054F9D7
:103520000720607357E700F069FC002804BF0CB067
:1035300010BD3C4C206800F0D1FF01463A4822689B
:10354000FEF72DFA39A13848FCF766FE044662A161
:103550003548FCF761FE002C18BF00284AD02849E6
:103560000820487337E721E0FFE700F053FC1A21F9
:103570005CA004F0E1F8404A54A102A804F056F916
:1035800002A8FCF765FE81B202A804F0D5F8052177
:103590004FA004F0D1F81A4C002041F2883160703D
:1035A0001F4A0C2004F010F90920BAE700F026FCAD
:1035B000002804BF0CB010BD1A4C206800F08EFF2C
:1035C000014619482268FEF7EAF918A11648FCF7E7
:1035D00023FE044640A100E00CE01348FCF71CFE6B
:1035E000002C18BF002805D00549002048730CB0F6
:1035F000012010BD0249002048730CB0022010BD0C
:103600003C00002041542B4D5154544346473D2229
:10361000636163686564222C302C310D0A00000060
:10362000353E000838000020D01000204F4B00002D
:1036300041542B4D5154544346473D226B656570B0
:10364000616C697665222C302C3132300D0A000015
:1036500041542B4D515454434F4E4E3D302C22007B
:1036600025642E25642E25642E2564222C0000005E
:10367000256400002C22000004000020222C000001
:103680002275736572222C22302E31323334353656
:10369000220D0A002B4D5154545552433A202263B7
:1036A0006F6E6E222C302C300000000041542B4DE8
:1036B0005154545355423D302C226D6F64627573E2
:1036C0005F636F6E74726F6C2F00000025730000D3
:1036D000222C300D0A0000002B4D515454535542FA
:1036E0003A20300041542B4D5154545355423D30F3
:1036F0002C226D6F646275735F74696D652F0000B5
:10370000FEE700002DE9F047FF4E0024DFF8FC83C0
:10371000B0889AB027460228C0F01F82811E40461A
:1037200004F0FCF9B0883278404410F8011C914252
:1037300040F0138210F8020C7178884240F00D823C
:1037400098F8032098F8023006F1060A02EB0322EB
:1037500095B298F80010BAF8002098F801008A4253
:1037600040F0FB8108F5FA79052854D00BDC6F4650
:10377000012810D00522032800F07F81042800F0E2
:10378000B08100F0EAB9062800F00A81102800F0A4
:10379000308100F0E2B9042D00F2DF8198F80520B5
:1037A00098F8043002EB032292B25319052B00F271
:1037B000D4818DF800108DF80100D11D01200F2952
:1037C00005D312F0070F14BF00EBD200D0088DF81C
:1037D000020010F0FF0F1CBF7088E8400AD0E10023
:1037E00020FA01F13A19D170611CCCB29DF8021097
:1037F000A142F4D89DF80200401DC4B2A11E384673
:1038000004F08CF93819717800F8021C317800F84E
:10381000011C00F063B998F8052098F80430072DD2
:1038200002EB032294B200F298818DF800108DF81B
:103830000100280A8DF80200200A8DF804008DF896
:1038400003508DF805400621684604F067F970784A
:103850008DF8060030788DF80700082D28D2DFE8B3
:1038600005F0041751276D27737EB4F57F4F40F0A4
:10387000358104F015FCBFF34F8FA5480168A54AB8
:1038800001F4E06111430160BFF34F8F00BFFDE71A
:10389000022000F0FBF9002840F02081032000F016
:1038A000F5F9012840F01A81B4F57F4F05D0BCB17D
:1038B000002F40F0528100F011B9002000F0E6F92D
:1038C000002840F00B810121084600F0F5F90121A4
:1038D0000846FDF7D1FE012001F0F0FD01200EE0C9
:1038E0000021012000F0E8F900210120FDF7C4FECD
:1038F0000A20A9F81400002001F0E0FD0020FDF7E7
:1039000037FBEBE0B4F57F4F01D04CB110E0012163
:10391000022000F0D1F901210220FDF7ADFE07E001
:103920000021022000F0C8F900210220FDF7A4FECA
:10393000022000F0ABF9FDF79FFACFE0B4F57F4F1E
:1039400008BFFEF717F8C9E0B4F57F4F7DD100211D
:10395000084600F0B1F90020A9F81600BEE0B4F561
:103960007F4F01D074B1B9E00121042000F0A4F927
:1039700001210420FDF780FE042000F087F9FDF707
:103980003FFAABE00021042000F096F9002104206A
:10399000FDF772FE042000F079F9FDF731FA9DE0A1
:1039A00098F8052098F80430212D02EB032294B2F8
:1039B00062D88DF800108DF80100280A8DF80200F9
:1039C000200A8DF80400EFB28DF803708DF80540E1
:1039D0000621684604F0A2F870788DF80600307869
:1039E0008DF8070000F0C8F82AF815400121384684
:1039F00040E098F8052098F80430212D02EB0322CE
:103A000092B29CBFAB18222B36D8002A0ED908EBF5
:103A1000440393F808C0DB790CEB032304EB050C9B
:103A20002AF81C30631CDCB2A242F0D88DF80010DA
:103A30008DF80100280A8DF80200ECB2100A8DF80A
:103A400003408DF80400D5B200E047E08DF8055042
:103A500098F806008DF806000721684604F05EF825
:103A600070788DF8070030788DF8080000F084F841
:103A700029462046FDF703FE6FE098F8053098F8D8
:103A800004C0212D03EB0C239BB29CBF03EB050C60
:103A9000BCF1220F61D88DF800108DF8010058009C
:103AA0008DF80200281907EB44013AF810004FEA9C
:103AB000102C81F803C00871601CC4B29C42F1D97B
:103AC00002EB4300C4B2A11E384604F027F83819AF
:103AD000717800F8021C317800F8011C00F04CF8F5
:103AE0003BE098F8053098F804C00D2D03EB0C234B
:103AF0009BB29CBF05EB030CBCF10E0F2DD88DF8CB
:103B000000108DF8010007E056000020D6160020B6
:103B10000CED00E00400FA0558008DF802002819A9
:103B200007EB440139F810004FEA102C81F803C06C
:103B30000871601CC4B29C42F1D902EB4300C4B2CC
:103B4000A11E384603F0EAFF3819717800F8021C0C
:103B5000317800F8011C00F00FF80020B28801460F
:103B6000002A05D908F80010401C80B28242F9D81A
:103B7000B1801AB0BDE8F08770B53C4EADF5C36DAD
:103B8000B51F30788DF8F00301208DF8F1038DF822
:103B9000F203A8788DF8F3030421FCA803F0BEFF1C
:103BA00068788DF8F40328788DF8F50330788DF86F
:103BB000F60303208DF8F70344208DF8F803002066
:103BC000FCAC36F8101004EB40020B0A401C537298
:103BD000C0B291722228F4D94721A01D03F09EFFA4
:103BE00068788DF83D0428788DF83E0430788DF89B
:103BF0003F0404208DF840041C208DF841041C4B28
:103C0000002004EB400233F81010401C4FEA112C46
:103C100082F852C0C0B282F853100E28F1D91F2189
:103C200004F1510003F07AFF68788DF85E0428787B
:103C30008DF85F0470240F4A0FA10DF2E45003F0D9
:103C4000F5FD224602A9FCA8FEF72CFE04460DF263
:103C5000E450FCF7FDFA82B202AB0DF2E451012010
:103C6000009401F035FD0DF5C36D70BD5C000020C2
:103C7000CA180020040000206D6F646275735F73C2
:103C800074617475732F2573000000000F2884BFC2
:103C900000207047012101FA00F0034949880840DB
:103CA00018BF01207047000056000020014931F87C
:103CB000100070475C0000200F2888BF7047012269
:103CC00002FA00F00129064A04BF5188084305D0D2
:103CD000002906BF518821EA0000704750807047D4
:103CE00056000020014A22F810107047CA18002020
:103CF000014A22F8101070475C0000202DE9F047BF
:103D000004460025314E9CB00F460120AAB1012A7D
:103D10001CBF1CB0BDE8F08770700120FDF7EBF808
:103D200035703A4621462A48FCF794FD2949088017
:103D3000FFF7E8FC1CB0BDE8F08770700120FDF7CC
:103D4000DAF83570206803908DF8105003A8FCF75E
:103D500086FA1FFA80FAA088ADF80C008DF80E5094
:103D600003A8FCF77CFA00F0FF09E088ADF80C002E
:103D70008DF80E5003A8FCF772FA00F0FF082089B6
:103D8000ADF80C008DF80E5003A8FCF768FAC7B226
:103D90006089ADF80C008DF80E5003A8FCF75FFAAF
:103DA000C6B2A089ADF80C008DF80E5003A8FCF740
:103DB00056FAC0B20097CDE9016043464A465146E3
:103DC00005A003F023FD1CB0BDE8F087C20200206F
:103DD000D61600205A0000204D51545420536574CB
:103DE0002054696D653A25642D25642D25642025B0
:103DF000643A25643A25640D0A00000004494878B5
:103E0000002808BF7047012000224A707047000058
:103E10003C0000200020054A01461154401C80B29D
:103E2000B0F57A7FF9D3024881827047D010002024
:103E30003C00002001490120487070473C000020F0
:103E4000704738B535208DF8000000248DF801400A
:103E50008DF8024001258DF80350684600F032F8D5
:103E600026208DF800008DF801408DF802408DF875
:103E70000350684600F026F827208DF800008DF8E2
:103E800001408DF802408DF80350684600F01AF8A2
:103E900034208DF8000002208DF801008DF80240DA
:103EA0008DF80350684600F00DF808208DF80000EA
:103EB0008DF801408DF802508DF80350684600F0EF
:103EC00001F838BD70B50446C0780F25002818BF2A
:103ED000012804D07D2223A12FA003F0B1FD60783A
:103EE000102804D37E221FA13A4803F0A9FDA07830
:103EF000102804D37F221BA1374803F0A1FDE078EE
:103F0000012210B335480068637800F4E060C0F522
:103F1000E060000AC0F1040103FA01F1A37825FA78
:103F200000F0184008432178000101F1E02181F8F8
:103F30000004207800F01F0102FA01F1400980001E
:103F400000F1E020C0F8001170BD207800F01F01E2
:103F500002FA01F14009800000F1E020C0F8801170
:103F600070BD00002E2E5C6669726D776172655CB3
:103F70006E3332673435785F7374645F706572696D
:103F800070685F6472697665725C7372635C6D6998
:103F900073632E630000000049535F46554E43543F
:103FA000494F4E414C5F5354415445284E56494366
:103FB0005F496E69745374727563742D3E4E564931
:103FC000435F4952514368616E6E656C436D64296D
:103FD00000000000A4A9000860A900080CED00E0A2
:103FE00010B50446B0F5E06F18BFB4F5C06F0CD043
:103FF000B4F5A06F1CBFB4F5806FB4F5407F04D05A
:104000006C2205A111A003F01BFD1B4944F0FD70BB
:1040100040F08060086010BD2E2E5C6669726D777E
:104020006172655C6E3332673435785F7374645FD8
:104030007065726970685F6472697665725C7372CC
:10404000635C6D6973632E630000000049535F4E2B
:104050005649435F5052494F524954595F47524F56
:104060005550284E5649435F5072696F7269747992
:1040700047726F75702900000CED00E010B5040068
:1040800018BF012C04D0862203A111A003F0D8FC94
:104090001648046210BD00002E2E5C6669726D77B2
:1040A0006172655C6E3332673435785F7374645F58
:1040B0007065726970685F6472697665725C73724C
:1040C000635C6E3332673435785F7077722E6300CD
:1040D00049535F46554E4354494F4E414C5F5354EC
:1040E00041544528436D64290000000000000E4241
:1040F00001488078704700003C00002070B51D4CDE
:104100000025607A10B1012813D010E02079401CFE
:104110002071FFF77FFE0B2117A003F00DFB642138
:104120006570184A0C2003F04FFB012060720020DC
:1041300070BDFFF763FE002808BF70BD124E3068E7
:1041400000F0CCF9014611483268FDF728FC10A1B7
:104150000E48FCF761F818B165722571012070BD39
:1041600020795A2898BF6572E1D9257165720220BD
:1041700070BD00003C00002041542B434741545483
:104180003F0D0A00353E000838000020D010002006
:104190002B43474154543A203100000070B51D4C68
:1041A0000025207A10B1012813D010E02079401C9E
:1041B0002071FFF72FFE0B2117A003F0BDFA642139
:1041C0006570184A0C2003F0FFFA012020720020CD
:1041D00070BDFFF713FE002808BF70BD124E306897
:1041E00000F07CF9014611483268FDF7D8FB10A1B8
:1041F0000E48FCF711F818B125722571012070BD29
:1042000020795A2898BF2572E1D92571257202209C
:1042100070BD00003C00002041542B4345524547EF
:104220003F0D0A00353E000838000020D010002065
:104230002B43455245473A20302C3100814810B578
:10424000C0790A283AD2DFE800F005213B485061E6
:104250007989B9CA7C4C206800F040F901467B4856
:104260002268FDF79CFBFFF7D5FD042178A003F041
:1042700063FA744C00204FF4FA616070764A0C20A7
:1042800003F0A2FA0120E071002010BDFFF7B6FD97
:10429000002808BF10BD6C4C206800F01FF90146D3
:1042A0006A482268FDF77BFB6CA16848FBF7B4FF06
:1042B000002800F0C28063490220C871002010BDB0
:1042C000604C00204FF4FA616070634A0C2003F0E8
:1042D0007BFA0320E071002010BDFFF78FFD00285E
:1042E000ECD058490420C871E8E7FFF793FD0A2194
:1042F0005BA003F021FA534C002064216070564A01
:104300000C2003F061FA0520E071D7E7FFF776FD96
:10431000002808BF10BD4C4C206800F0DFF80146B3
:104320004A482268FDF73BFB50A14848FBF774FF61
:1043300000287DD043490620C871BFE7FFF76AFD1A
:104340000B214EA003F0F8F93E4C00206421607070
:10435000414A0C2003F038FA07203EE0FFF74EFDFB
:10436000002808BF10BD384C206800F0B7F801469F
:1043700036482268FDF713FB43A13448FBF74CFF96
:1043800000285AD04249D0F80720C1F89122D0F82D
:104390000B20C1F89522D0F80F20C1F89922B0F86F
:1043A0001320A1F89D22407D81F89F0201F5237121
:1043B0000020087523490820C8717FE7FFF72AFD10
:1043C0000A2134A003F0B8F91E4C0020642160706B
:1043D000214A0C2003F0F8F90920E0716EE7FFF79D
:1043E0000DFD002808BF10BD174C206800F076F8BE
:1043F000014616482268FDF7D2FA29A11348FBF7B7
:104400000BFFA8B122498268C1F8A122C268C1F895
:10441000A5220269C1F8A9224269C1F8AD228069CA
:10442000C1F8B10201F52371002081F8290000E0F4
:1044300003E00449C871012010BD02490020C87181
:10444000022010BD3C00002038000020D0100020C9
:1044500041540D0A00000000353E00084F4B00009B
:1044600041542B4350494E3F0D0A00002B43504905
:104470004E3A2052454144590000000041542B431C
:1044800047534E3D310D0A002B4347534E3A20000F
:104490002014002041542B49434349440D0A000095
:1044A0002B49434349443A200000000070B51020D6
:1044B00003F0BAFD04004FF0000508BF2C4607D0FA
:1044C00040F2DD50606003F0AFFDE560A560206064
:1044D0000148046070BD0000380000200146D1E9A9
:1044E0000220801A44BF49680844704710B5040090
:1044F0001CBF012C042C05D040F203320AA118A0E5
:1045000003F09EFA1B48002180F8201080F820104C
:10451000012C08BF012103D0042C0CBF052110BDC4
:1045200080F8201010BD00002E2E5C6669726D7739
:104530006172655C6E3332673435785F7374645FC3
:104540007065726970685F6472697665725C7372B7
:10455000635C6E3332673435785F7263632E630059
:1045600049535F5243435F4C5345285243435F4C8A
:10457000534529000010024010B5040018BFB4F5DF
:10458000806F0DD0B4F5A06F1CBFB4F5C06FB4F54B
:10459000E06F05D040F2C31205A113A003F050FA5A
:1045A0001849486820F4E0602043486010BD0000CE
:1045B0002E2E5C6669726D776172655C6E33326750
:1045C0003435785F7374645F7065726970685F64B6
:1045D00072697665725C7372635C6E333267343510
:1045E000785F7263632E630049535F5243435F48B1
:1045F000434C4B5F444956285243435F48434C4B1E
:10460000290000000010024010B50446B0F5807F7C
:104610001CBFB4F5007FB4F5407F05D040F23332C3
:1046200006A114A003F00CFA1B48016A21F44071A2
:104630000162016A2143016210BD00002E2E5C66FA
:1046400069726D776172655C6E3332673435785F9D
:104650007374645F7065726970685F6472697665AF
:10466000725C7372635C6E3332673435785F726389
:10467000632E630049535F5243435F525443434C9C
:104680004B5F535243285243435F525443434C4B76
:10469000536F7572636529000010024070B50446BF
:1046A0000E480D46044200D12CB940F2FE320CA156
:1046B00019A003F0C5F9214E002D04BFF069A043F5
:1046C00009D0012D05D040F2FF3205A11CA003F056
:1046D000B7F9F0692043F06170BD0000003301417B
:1046E0002E2E5C6669726D776172655C6E3332671F
:1046F0003435785F7374645F7065726970685F6485
:1047000072697665725C7372635C6E3332673435DE
:10471000785F7263632E630049535F5243435F4186
:104720005042315F504552495048285243435F41FF
:1047300050423150657269706829000000100240D3
:1047400049535F46554E4354494F4E414C5F535475
:1047500041544528436D64290000000070B50446AB
:104760000E480D46044200D12CB940F2DF320CA1B4
:1047700019A003F065F9214E002D04BFB069A043D4
:1047800009D0012D05D04FF4787205A11CA003F0CB
:1047900057F9B0692043B06170BD00000286E0FFA8
:1047A0002E2E5C6669726D776172655C6E3332675E
:1047B0003435785F7374645F7065726970685F64C4
:1047C00072697665725C7372635C6E33326734351E
:1047D000785F7263632E630049535F5243435F41C6
:1047E0005042325F504552495048285243435F413E
:1047F0005042325065726970682900000010024012
:1048000049535F46554E4354494F4E414C5F5354B4
:1048100041544528436D64290000000010B5040090
:1048200018BF012C05D04FF4517203A110A003F062
:1048300007F91648046010BD2E2E5C6669726D770C
:104840006172655C6E3332673435785F7374645FB0
:104850007065726970685F6472697665725C7372A4
:10486000635C6E3332673435785F7263632E630046
:1048700049535F46554E4354494F4E414C5F535444
:1048800041544528436D6429000000003C04424225
:10489000324B30B45968324A11405A6811F0006FF7
:1048A00002F480320CBF4FF0020C6FF4F77C0CEB7B
:1048B0009141002A04BF2B4A514306D05A6812F492
:1048C000003F14BF274A284A51435A68DFF898C06E
:1048D00012F00C0218BF042A03D0082A08BF016096
:1048E00001D0C0F800C05A684FF00F0C1F4D0CEA01
:1048F0001212D0F800C0AA5C2CFA02F24260D3F87F
:1049000004C0072404EA1C2C15F80CC022FA0CFC85
:10491000C0F808C0D3F804C004EADC2C15F80CC0B9
:1049200022FA0CFCC0F80CC0D3F82CC005F110041E
:104930000CF00F0C14F80CC0B2FBFCF24261DA6A06
:104940001F2303EA121202F00F0204F1100333F8DE
:104950001220B1FBF2F1016130BC7047001002403F
:1049600000003C0800093D0000127A00F6800008B3
:1049700070B500250446212818BF312C21D0392CD0
:1049800018BF412C1DD0612C18BF732C19D0742C6A
:1049900018BF752C15D0772C18BF792C11D07A2C14
:1049A00018BF7B2C0DD07C2C18BF7D2C09D07E2C01
:1049B00018BF7F2C05D040F2E3420CA119A003F0F0
:1049C0003FF860091D49012808BF086803D0022884
:1049D0000CBF086A486A04F01F01012202FA01F1C3
:1049E000014218BF0125284670BD00002E2E5C66CE
:1049F00069726D776172655C6E3332673435785FEA
:104A00007374645F7065726970685F6472697665FB
:104A1000725C7372635C6E3332673435785F7263D5
:104A2000632E630049535F5243435F464C4147281E
:104A30005243435F464C41472900000000100240AA
:104A400038B503F029F94FF40060ADF800001020EC
:104A50008DF803000120064C8DF8020069462046BF
:104A6000FDF79EFBE1142046FDF744FD38BD000034
:104A70000008014002F01CBE00210A2805D3491C91
:104A80000A38C0B2C9B20A28F9D2090740EA11604F
:104A90007047000070B50026674D0C4600282AD0EC
:104AA000012805D04FF4E37264A172A002F0C8FFA0
:104AB000286810F0400F00F07F802078010901EB9A
:104AC000810100F00F0000EB4100C0B2401E0B2836
:104AD00005D94FF4EE7259A16DA002F0B1FFE07854
:104AE000002818BF402800F0798040F2DD1253A161
:104AF0006EA000F071B8286810F0400F13D0207835
:104B0000401E0B2805D94FF4E6724CA16FA002F0AD
:104B100097FFE078002818BF40280ED040F2CD1251
:104B200046A162A007E0E6702078172805D94FF467
:104B3000E97242A16FA002F083FF60783B2805D99B
:104B40004FF4EA723DA175A002F07AFFA0783B28ED
:104B500005D940F2D51239A17AA002F071FF207870
:104B6000FFF78AFF06046078FFF786FF46EA002613
:104B7000A078FFF781FFE178304340EA01437B4CA6
:104B8000CA2020605320206000F04CF970B17848B2
:104B90007849184008607848016821F08001016078
:104BA000286810F0200F08BF00F056FCFF2020609E
:104BB000BDE8704000F050BCE6702078010901EBC0
:104BC000810100F00F0000EB4100C0B2172805D9A9
:104BD0004FF4F17219A169A002F032FF6078010967
:104BE00001EB810100F00F0000EB4100C0B23B2857
:104BF00005D94FF4F27211A16EA002F021FFA07846
:104C0000010901EB810100F00F0000EB4100C0B28F
:104C10003B2805D940F2E51208A174A002F010FF6C
:104C2000A0782178E27840EA01406178090241EAFF
:104C3000024140EA0103A2E7082800402E2E5C66EC
:104C400069726D776172655C6E3332673435785F97
:104C50007374645F7065726970685F6472697665A9
:104C6000725C7372635C6E3332673435785F727472
:104C7000632E630049535F5254435F464F524D4188
:104C800054285254435F466F726D617429000000CE
:104C900049535F5254435F3132484F555228746D27
:104CA00070726567697374657229000049535F52B9
:104CB00054435F483132285254435F54696D655301
:104CC00074727563742D3E483132290049535F5226
:104CD00054435F3132484F5552285254435F546910
:104CE0006D655374727563742D3E486F75727329C8
:104CF0000000000049535F5254435F3234484F551F
:104D000052285254435F54696D65537472756374CD
:104D10002D3E486F757273290000000049535F52A1
:104D200054435F4D494E55544553285254435F54A4
:104D3000696D655374727563742D3E4D696E75743B
:104D40006573290049535F5254435F5345434F4EA7
:104D50004453285254435F54696D655374727563AC
:104D6000742D3E5365636F6E6473290024280040E0
:104D70007F7F7F00002800400C28004049535F528D
:104D800054435F3234484F5552285254435F426374
:104D90006432546F42797465285254435F54696D8C
:104DA000655374727563742D3E486F75727329294B
:104DB0000000000049535F5254435F4D494E555423
:104DC0004553285254435F42636432546F427974AE
:104DD00065285254435F54696D65537472756374EA
:104DE0002D3E4D696E7574657329290049535F52D4
:104DF00054435F5345434F4E4453285254435F42FC
:104E0000636432546F42797465285254435F546925
:104E10006D655374727563742D3E5365636F6E6474
:104E20007329290081B00F4900200090086810F014
:104E3000400F04BF8020086010D10868009A00F07D
:104E40004000521C0092B2F5005F01D00028F4D05F
:104E5000086810F0400004BF01B07047012001B0A5
:104E6000704700000C28004070B50C46050018BFC4
:104E7000012D05D04FF4377218A126A002F0E0FDF5
:104E80002B48006820F0C00121F07F410B0CC1F3DA
:104E90000422E37001F03F006270A070C1F3423160
:104EA0002170002D18BF70BD190901EB810103F0BD
:104EB0000F0303EB4101E170110901EB810102F0E5
:104EC0000F0202EB41016170010901EB810100F069
:104ED0000F0000EB4100A07070BD00002E2E5C663C
:104EE00069726D776172655C6E3332673435785FF5
:104EF0007374645F7065726970685F647269766507
:104F0000725C7372635C6E3332673435785F7274CF
:104F1000632E630049535F5254435F464F524D41E5
:104F200054285254435F466F726D6174290000002B
:104F30000428004070B50C46050018BF012D05D0AF
:104F400040F23D2218A126A002F07AFD2B4800680D
:104F50002B494FF0400C0140C1F30542C1F3062339
:104F6000227001F07F006370A0700CEA1141E170C3
:104F7000002D18BF70BD110901EB810102F00F0275
:104F800002EB41012170190901EB810103F00F02CD
:104F900002EB41016170010901EB810100F00F009A
:104FA00000EB4100A07070BD2E2E5C6669726D77BB
:104FB0006172655C6E3332673435785F7374645F39
:104FC0007065726970685F6472697665725C73722D
:104FD000635C6E3332673435785F7274632E6300BE
:104FE00049535F5254435F464F524D4154285254E7
:104FF000435F466F726D6174290000000028004015
:105000007F7F7F0070B50546002600683446402843
:1050100018BF002804D0C7221EA12CA002F010FD4A
:1050200068687F2804D9C8221AA135A002F008FDBB
:10503000A868B0F5004F04D3C92216A13EA002F023
:10504000FFFC4B4BCA20186053201860FFF7EAFEA4
:10505000B0B14848016821F04001016001682A6848
:10506000114301604448A96801600168AA8841EAC7
:1050700002410160001F016821F0800101600126EA
:10508000FF20186040F2FF20641C8442FCD33046AD
:1050900070BD00002E2E5C6669726D776172655C72
:1050A0006E3332673435785F7374645F706572692C
:1050B00070685F6472697665725C7372635C6E338C
:1050C00032673435785F7274632E630049535F52E0
:1050D00054435F484F55525F464F524D41542852FA
:1050E00054435F496E69745374727563742D3E52F4
:1050F00054435F486F7572466F726D61742900008A
:1051000049535F5254435F5052454449565F41539F
:10511000594E4348285254435F496E697453747220
:105120007563742D3E5254435F4173796E636850CA
:10513000726564697629000049535F5254435F5099
:1051400052454449565F53594E4348285254435F91
:10515000496E69745374727563742D3E5254435F83
:1051600053796E63685072656469762900000000A7
:1051700024280040082800401028004070B50C4644
:10518000050000F05F80012D05D040F2722256A18B
:1051900063A002F055FCE078010901EB810100F009
:1051A0000F0000EB4100C0B2632805D94FF4207214
:1051B0004DA162A002F044FC6078010901EB81017D
:1051C00000F00F0000EB4100C0B2401E0B2805D9D3
:1051D00040F2822244A166A002F032FCA0780109CC
:1051E00001EB810100F00F0000EB4100C0B2401E56
:1051F0001E2805D94FF421723BA164A002F020FCC7
:105200002178012918BF02290ED0032918BF0429CB
:105210000AD005291CBF0629072905D040F286229D
:1052200031A161A002F00CFC002D2FD0A078E17814
:10523000227840EA01406178090241EA423140EABD
:10524000010333E0607810F0100F03D020F010005D
:105250000A306070E078632805D940F27A2222A1F2
:105260005BA002F0EDFB6078401E0B2805D940F2F0
:105270007B221DA15FA002F0E3FBA078401E1E2848
:10528000BED94FF41F7218A163A0B7E7E078FFF70B
:10529000F3FB05046078FFF7EFFB45EA0025A078F3
:1052A000FFF7EAFB2178284340EA4133634CCA20E8
:1052B000206053202060FFF7B5FD78B1604823F0EF
:1052C000C00101605F48016821F080010160001F9A
:1052D000006810F0200F08BF00F0BEF8FF2020602B
:1052E000BDE8704000F0B8B82E2E5C6669726D772C
:1052F0006172655C6E3332673435785F7374645FF6
:105300007065726970685F6472697665725C7372E9
:10531000635C6E3332673435785F7274632E63007A
:1053200049535F5254435F464F524D4154285254A3
:10533000435F466F726D61742900000049535F52EC
:1053400054435F59454152285254435F426364328B
:10535000546F42797465285254435F4461746553B5
:1053600074727563742D3E596561722929000000BD
:1053700049535F5254435F4D4F4E544828746D70EB
:1053800072656769737465722900000049535F5242
:1053900054435F4441544528746D70726567697366
:1053A000746572290000000049535F5254435F57EF
:1053B00045454B444159285254435F4461746553F9
:1053C00074727563742D3E5765656B44617929006D
:1053D00049535F5254435F59454152285254435FE9
:1053E000446174655374727563742D3E59656172BE
:1053F0002900000049535F5254435F4D4F4E5448BB
:10540000285254435F446174655374727563742DFC
:105410003E4D6F6E7468290049535F5254435F4498
:10542000415445285254435F446174655374727506
:1054300063742D3E446174652900000024280040F7
:10544000042800400C280040002101607F214160B9
:10545000FF2181607047000081B000200F4B009059
:10546000CA201860532018600D49086820F02000F9
:1054700008600868009A00F02000521C0092B2F503
:10548000004F01D00028F4D0086810F0200018BFA9
:105490000120FF21196001B070470000242800405E
:1054A0000C280040044901200870AFF207024FF4B5
:1054B0007A71042002F088B92800002010B5164C3B
:1054C00010B101280ED01AE04FF400412046FDF73C
:1054D0007BF84FF480412046FDF70CF8142002F0D1
:1054E00039FB0CE04FF480412046FDF76DF84FF496
:1054F00000412046FCF7FEFF142002F02BFB4FF486
:1055000000412046FCF7F6FF2046BDE810404FF46E
:105510008041FCF7EFBF0000000C0140F8B54FF4EC
:105520000040ADF8000010250E4E8DF80350032406
:105530008DF8024069463046FCF732FEE9023046FB
:10554000FDF742F8A902ADF800108DF803508DF870
:10555000024069463046FCF723FEA9023046FDF7BB
:1055600033F8F8BD000C014010B5012186B00807E2
:10557000FFF794F80121C806FFF790F80120FEF725
:105580007DFD0420FBF79AF9A0F5A061053904BF61
:1055900006B010BD4FF48070FFF736F80120FEF71B
:1055A000A5FF4120FFF7E4F90028FAD00120FFF71A
:1055B00035F97F200190FF20002402900094684676
:1055C000FFF742FF6846FFF71DFD014611A002F0FC
:1055D0001DF919208DF8130001208DF811008DF8A8
:1055E000120003208DF80D408DF810008DF80E404C
:1055F0008DF80C4004A90020FFF7C0FD03A900208E
:10560000FFF748FA40F205510420FBF7E1F906B034
:1056100010BD0000525443B3F5CABCBBAF25640DA6
:105620000A00000070B51D4C0025A07A10B10128B9
:1056300013D010E02079401C2071FEF7EBFB1F21F6
:1056400017A002F079F8642165701D4A0C2002F061
:10565000BBF80120A072002070BDFEF7CFFB002830
:1056600008BF70BD174E3068FEF738FF0146164878
:105670003268FCF794F915A11348FAF7CDFD00281C
:105680001EBFA572012070BD20790A2898BFA5729F
:10569000E1D92571A572022070BD00003C000020F8
:1056A00041542B5149435347503D312C312C224317
:1056B0004D4E4554222C22222C22222C310D0A0040
:1056C000353E000838000020D01000204F4B00006D
:1056D0002DE9F0410E4E069D8846F0701F46144697
:1056E0003282C8210B48FAF78CFD22464146094810
:1056F000FAF76EFD2C4675824FF47A710648FAF778
:1057000080FD22463946BDE8F0410348FAF760BD06
:105710003C000020200C0020E80C002070B582B076
:10572000A0F5FA60C0B2DDE906458DF803008DF8FA
:1057300001101E468DF8022002F09AF98DF80460DF
:105740008DF800008DF805408DF806506946002060
:10575000FFF714FD01A90020FFF79CF902B070BD0E
:10576000042808D010F1050F08BF7047CF2205A10B
:1057700011A002F065B94FF0E020016941F0040189
:10578000016170472E2E5C6669726D776172655C8F
:105790006E3332673435785F7374645F7065726935
:1057A00070685F6472697665725C7372635C6D6960
:1057B00073632E630000000049535F5359535449EB
:1057C000434B5F434C4B5F534F55524345285379EE
:1057D000735469636B5F434C4B536F7572636529F8
:1057E00000000000704700004B4883B0016841F49E
:1057F000700101604948016841F00101016042689F
:10580000474911404160016821F4102121F0807165
:105810000160016821F480210160416821F47F0169
:1058200021F0006141600021C16201634FF41F0259
:105830008260C26942F08052C2613A4AD36843F042
:105840000103D360C26922F08052C261364A1368F4
:1058500043F09003136000918DF8041002910168E9
:1058600041F4803101600168C1F340418DF80410BA
:105870000299491C02919DF8041019B90299B1F5D9
:10588000004FF0D10168C1F340418DF804109DF83C
:10589000041000293BD0116821F007011160116844
:1058A00041F00301116041684160416841F40051D9
:1058B0004160416841F4A0614160416821F47C117C
:1058C00021F000614160416841F4803141F40031D0
:1058D00041F0026100914160016841F08071016016
:1058E000016811F0007FFBD0416821F003014160A5
:1058F000416841F002014160416801F00C01082952
:10590000FAD10A494FF00060086003B070470949B6
:1059100007480860F5E7000088ED00E0001002404D
:1059200000C0FFF8007000400020024008ED00E0D9
:1059300000127A00000000202DE9F047DFF8949073
:105940000D4607461C4616464FF02A084FF4807154
:105950004846FCF7CFFD404600F0B4FC4FF48071A0
:105960004846FCF731FE380A00F0ACFCF8B200F013
:10597000A9FC300A00F0A6FCF0B200F0A3FC2B2634
:105980004FF480714846FCF7B5FD304600F09AFCB4
:105990004FF480714846FCF717FE280A00F092FC8D
:1059A000E8B200F08FFC200A00F08CFCE0B200F0BE
:1059B00089FC2C244FF480714846FCF79BFD20465F
:1059C00000F080FC4846BDE8F0474FF48071FCF7DA
:1059D000FBBD0000000C01402DE9F04F0026A2EBBA
:1059E00000085F1A85B0354682468946B8F1000F37
:1059F000C8BF012007DC0FBF00204FF0FF30C8F107
:105A00000008019000D10190002FC8BF012006DCE2
:105A10000FBF00204FF0FF307F42009000D1009078
:105A2000B845CCBF44463C464FF0000B601C039089
:105A30000028DCBF05B0BDE8F08F0E98000A029088
:105A40001FFA8AF01FFA89F1DDF838C00B460246CA
:105A5000CDF810C0FFF770FF029800F033FCDDF8BE
:105A600010C00CF0FF0000F02DFC46443D44A6425F
:105A700002DD0198361B8244A54202DD00982D1BF1
:105A800081440BF101001FFA80FB03988345D7DBAB
:105A900005B0BDE8F08F2DE9F04781469846581EC5
:105AA00083B21746501E82B20D464846089EFFF745
:105AB00043FF454534BF4FEA162ABDE8F0874C4600
:105AC000B94509D2504600F0FDFBF0B200F0FAFBF8
:105AD000601C84B2BC42F5D3681C85B24545EED348
