:020000040100F9
:1000000048080020E50000011D1300011F13000136
:1000100000000000000000000000000000000000E0
:100020000000000000000000000000002313000199
:10003000000000000000000025130001271300014C
:10004000F7000001F7000001F7000001F7000001D0
:10005000F7000001F7000001F7000001F7000001C0
:10006000F7000001F7000001F7000001F7000001B0
:10007000F7000001F7000001F7000001F7000001A0
:10008000F7000001F7000001F7000001F700000190
:10009000F7000001F7000001F7000001F700000180
:1000A000F7000001F7000001F7000001F700000170
:1000B000F7000001F7000001F7000001F700000160
:1000C0000348854601F06EFA00480047C31100015D
:1000D0004808002040BA7047C0BA70470138FDD1C7
:1000E000704700000448804704480047FEE7FEE7E9
:1000F000FEE7FEE7FEE7FEE7D5020001C1000001D2
:10010000F0B5D1B004460D4600BFEFF310800646AF
:1001100004AF0137FF2241329F49684601F000FADF
:10012000012080F3108800BF2A4621460003B8470B
:10013000304680F3108800BF51B0F0BD10B597482D
:100140000069401C002803D094480069002803D1AE
:1001500034219248FFF7D4FF90480069401C0028E2
:1001600003D08E480069002801D1002010BD8B48C3
:10017000FCE710B589480069401C002803D0874877
:100180000069002803D134218448FFF7B9FF834870
:100190000069401C002803D080480069002801D174
:1001A000002010BD7D482430FBE710B57B48006976
:1001B000401C002803D079480069002803D134216D
:1001C0007648FFF79DFF75480069401C002803D062
:1001D00072480069002801D1002010BD6F48293005
:1001E000FBE7F1B588B0002007907D20C0000690A5
:1001F0000124A4020020059004907F200390684809
:1002000000684004450E00260020029065490898C9
:10021000884207D1624800686101884360490860EC
:10022000CC1408E05E4800680121C90308435C491A
:1002300008600324A40200BF594800687F21090216
:100240008843019028020199084355490860052018
:10025000FFF744FF10E00120FFF740FF5048406BDC
:1002600002210840002800D007E00298411C0291BA
:100270000699884200D900E0EDE700BF4848C06B0E
:1002800086B2A64202D9301B059001E0A01B059062
:10029000A64201D3039500E0049503990498401801
:1002A000C005070EAF4200D104E03D46079905980E
:1002B0008842C1D800BF3A484068400840003849E9
:1002C000486000BF36484068042108400028F9D142
:1002D00009B0F0BD10B53248C069012109070843D3
:1002E0002F49C861812000062F4908632F484861C3
:1002F0002F4808622F4800680321890388432D494D
:10030000086034212548FFF7FBFE24480069401CA3
:10031000002803D021480069002817D120484068F0
:100320000121090408431E49486008464068072126
:10033000090288431A49486008464068091508437D
:10034000174948601C48FFF74CFF18E016488069C1
:100350004409640111480078C006C00E04431248E5
:1003600084610F48006A154908400D490862084633
:10037000006A0A49C968090208430949086210BDB0
:1003800008480F490860704710B504466B21614367
:100390000846FFF7A3FE10BDDC1A00011000002084
:1003A000001002400090D003007000400F080000D1
:1003B00018000200001001400048E801FF00F8FFAB
:1003C0000000002010B50446F948844208D10121FC
:1003D000042000F0A7FC0021042000F0A3FC0CE0A6
:1003E000F448844208D10121082000F09BFC002140
:1003F000082000F097FC00E010BD00BFFCE770B5DE
:100400000A460021002334E001248C401440234696
:10041000002B2DD004684E000325B5402C4304600A
:1004200008240C40002C07D0446A4D07EE0E0F251F
:10043000B5402C43446206E0046A4D07EE0E0F25DA
:10044000B5402C430462446801258D40AC434460B0
:10045000C4684E000325B540AC43C46084680125E0
:100460008D402C438460C46A01258D40AC43C46236
:10047000491C1446CC40002CC6D170BD10B50121DA
:10048000084600F04FFC0021012000F04BFC10BD9D
:1004900070B503460A4600210024002076E00126BC
:1004A0008E40156835402C46002C6ED05568022DC4
:1004B00002D05568122D20D108250D40002D0ED0F8
:1004C000586A4D07EE0E0F25B5400646AE4330463E
:1004D0004E07F60E5569B540284358620DE0186A7C
:1004E0004D07EE0E0F25B5400646AE4330464E078B
:1004F000F60E5569B540284318625568012D08D09D
:100500005568112D05D05568022D02D05568122D61
:100510000BD1586801258D400646AE43304615790B
:10052000ED06ED0F8D402843586018684E000325F6
:10053000B5400646AE4330461579AD07AD0F4E00C7
:10054000B54028431860D8684E000325B5400646DC
:10055000AE4330464E009568B5402843D860986851
:1005600001258D400646AE433046D5688D40284370
:100570009860D86A4E000125B5400646AE43304625
:100580004E001569B5402843D862491C1568CD4016
:10059000002D84D170BD884901600F214161002187
:1005A000416081600121C160002101617047024604
:1005B000002013690B40002B01D0012000E0002037
:1005C00070470146086980B27047024600205369AF
:1005D0000B40002B01D0012000E0002070470146B5
:1005E000486980B270478161704781627047002A14
:1005F00001D0816100E081627047416170474269CA
:100600004A40426170470122120413460B431A46C6
:10061000C261C161C261C269C269704700B5002888
:100620004FD10B0001F002F807050C19202D3B43B8
:100630004B00624A526892089200604B5A603FE059
:100640005E4A5268920892005C4B5A601A465268A1
:1006500001231A43594B5A6032E0584A52683023FA
:100660009A43564B5A602BE0544A526830239A43BF
:10067000524B5A601A46526810231A434F4B5A6025
:100680001EE04E4A926803231B029A434B4B9A602A
:100690001A4692685B151A43484B9A6010E0474A25
:1006A000526803231B039A43444B5A6008E0434AB1
:1006B000526803231B029A43404B5A6000E000BF7C
:1006C000B9E00B0000F0B2FF0E081522303E4A5789
:1006D000657C8A9198A5ADB5384A52689208920017
:1006E000364B5A601A46526802231A43334B5A60FB
:1006F000A0E0324A526830239A43304B5A601A467F
:10070000526820231A432D4B5A6093E02B4A5268BB
:1007100003231B029A43294B5A601A4652689B15C1
:100720001A43264B5A6085E0244A526803231B0370
:100730009A43224B5A601A4652689B141A431F4B25
:100740005A6077E01D4A926893089B001B4A9360A9
:10075000926801231A43194B9A606BE0174A92681A
:1007600030239A43154B9A601A46926820231A4305
:10077000124B9A605EE0114A926803231B029A436F
:100780000E4B9A601A4692689B151A430B4B9A605F
:1007900050E00A4A926803231B039A43074B9A606E
:1007A0001A4692689B141A43044B9A6042E0000078
:1007B00000080140000C0140FF3F00000000014024
:1007C0003B4A926803231B039A43394B9A601A46AB
:1007D00092685B141A43364B9A602BE0344A926855
:1007E00093089B00324A936024E0314A9268302398
:1007F0009A432F4B9A601DE02D4A926830239A430A
:100800002B4B9A601A46926810231A43284B9A6021
:1008100010E0274A926803231B029A43244B9A60F4
:1008200008E0234A926803231B039A43204B9A60F3
:1008300000E000BF00BF00BDF0B504461346002530
:100840000020002C01D11B4E00E01B4E3246082632
:100850000E40002E0DD04D076D0F506AAF000F26D1
:10086000BE400746B743384606461E4330465062F0
:100870000CE04D076D0F106AAF000F26BE40074613
:10088000B743384606461E4330461062F0BD0A465E
:100890000021074B1968002A03D00B460343194671
:1008A00002E00B4683431946014B19607047000074
:1008B0000000014000080140000C0140F7480068BA
:1008C00001210843F549086008464068F44908409A
:1008D000F249486008460068F2490840EF4908605C
:1008E00008460068012189048843EC4908600846ED
:1008F0004068ED490840E94948600720C002C862E5
:10090000BF20000488607047E4490968012212048E
:100910009143E24A116001210904411A07D11146AD
:100920000968012212041143DC4A116000E000BF93
:1009300000BF704710B501460022002300204A1175
:10094000012A02D1D54C236806E0022A02D1D34CF9
:10095000236A01E0D14C636ACA06D20E0124944096
:100960001C40002C01D0012000E0002010BD38B553
:10097000002000900024002500BF3120FFF7DAFF9F
:1009800005460098401C00900121490300988842C8
:1009900001D0002DF1D03120FFF7CCFF002801D08D
:1009A000012400E00024204638BDBC4909684908FC
:1009B0004900BA4A1160012806D11146096801228E
:1009C0001143B64A116000E000BF00BF704738B560
:1009D000002000900024002500BF2120FFF7AAFF7F
:1009E00005460098401C00900521090200988842A5
:1009F00001D0002DF1D02120FFF79CFF002801D06D
:100A0000012400E00024204638BD012806D1A34976
:100A1000096801221143A14A116005E09F49096854
:100A2000490849009D4A11607047014600209B4AD1
:100A300050684008400002460A431046974A5060FA
:100A400070479648406804210840704701460020DE
:100A5000924A5068302302469A43104602460A439F
:100A600010468E4A50607047014600208B4A5068FD
:100A700007231B0202469A43104602460A431046C9
:100A8000864A5060704701460020844A5068072318
:100A9000DB0202469A431046CA0010437F4A506068
:100AA0007047002906D07D4A126A03021A437B4B25
:100AB0001A6205E0794A126A03029A43774B1A6276
:100AC000704701460020754AD06A4000400802463F
:100AD0000A431046714AD0627047014600206F4AAF
:100AE000D06A102302469A43104602460A43104633
:100AF0006A4AD062704700280AD1684A126A012304
:100B00009B069A43654B1A621A46126A0A431A6296
:100B1000704701466148006A644A104070470128E6
:100B200006D15E49096AC20611435C4A116206E0B9
:100B30005A49096A0122D2069143584A1162704704
:100B40005649096A14229143544A1162042802D07A
:100B500010280ED106E05149096A042211434F4A78
:100B6000116207E04D49096A142211434B4A116290
:100B700000E000BF00BF7047012806D14749096A5D
:100B800001221143454A116205E04449096A4908B6
:100B90004900424A116270474049096A2022914344
:100BA0003E4A11621146096A0143116270473B488F
:100BB000006A202108407047012806D13749096A98
:100BC00002061143354A116206E03449096A0122DE
:100BD00012069143314A11627047002807D02F490D
:100BE000096A0122520611432C4A116206E02B4980
:100BF000096A012252069143284A1162704710B5D2
:100C000000210022254B5B6804242340194600295B
:100C100002D0042906D102E0254B036005E0254BF4
:100C2000036002E0224B036000BF00BF1B4B5B6808
:100C300030242340194609091F4B5A5C0368D340EE
:100C40004360164B5B680724240223401946090AB7
:100C50001A4B5A5C4368D3408360104B5B68E400D6
:100C600023401946C90A154B5A5C4368D340C360F8
:100C70000A4BDB6A10242340002B02D0104B036187
:100C800002E07D23DB03036110BD00291AD0034A73
:100C900052690243014B5A6119E000000010024002
:100CA0000000FF21FFFFF6FEFFFF00FE2000000412
:100CB0000090D0030048E801241C00011C1C000126
:100CC00000093D004C4A526982434B4B5A617047C0
:100CD000002905D0484A92690243474B9A6104E0D3
:100CE000454A92698243444B9A617047002905D076
:100CF000414AD2690243404BDA6104E03E4AD2697C
:100D000082433D4BDA617047002905D03A4A926A26
:100D10000243394B9A6204E0374A926A8243364B67
:100D20009A627047002905D0334AD2680243324B99
:100D3000DA6004E0304AD26882432F4BDA607047B1
:100D4000002905D02C4A126902432B4B1A6104E09A
:100D5000294A12698243284B1A61704701460020D4
:100D6000254A50680F235B0602469A4310464A06FE
:100D70001043214A506070471F48406A01210843D0
:100D80001D4948620846406A400840004862704772
:100D900001460020184A92680A40002A01D001202A
:100DA00000E000207047144989680143124A9160AD
:100DB0007047012806D110490968020611430E4AFE
:100DC000116006E00C4909680122120691430A4AA3
:100DD00011607047002907D0074A40325268024329
:100DE000054B40335A6006E0034A40325268824362
:100DF000014B40335A6070470010024010B5044662
:100E0000D548844209D101218803FFF78BFF0021D7
:100E100001208003FFF786FF08E001214804FFF767
:100E20008FFF002101204004FFF78AFF10BDF0B5BD
:100E300089B005460E4600240020089000BF00BF80
:100E40000027B089002800D000BF2F462C8AC34855
:100E50000440F08804432C82AC89C1480440B08827
:100E600031890843718908430443AC81AC8ABD4889
:100E70000440B0890443AC8201A8FFF7C0FEB64825
:100E8000874202D10498089001E0039808903268E4
:100E900091001923089A5A43104600F02BFB079043
:100EA0006421079800F026FB0401210964204143D6
:100EB0000798411A069106990901084632306421C3
:100EC00000F018FB0007000F04432C8109B0F0BDAF
:100ED0004B21C901016000218180C18001810C2169
:100EE000418100218181704710B502460020108A9F
:100EF0009D4B18400B884C8823438C882343CC8817
:100F000023431843108210BD00210180418081805D
:100F1000C1807047002905D0828901235B031A43F1
:100F2000828103E08289914B1A4082817047F8B533
:100F30000346002400260096002500208C4EB14276
:100F400000D100BF18460E06740FCE06F60E0096AE
:100F50000127009EB7403D46012C01D10C3004E032
:100F6000022C01D1103000E01430002A03D00668B2
:100F70002E43066002E00668AE430660F8BD002A14
:100F800003D0838A0B43838202E0838A8B4383826C
:100F90007047028A774B1A400282028A0A43028211
:100FA00070478289744B1A40828182890A43828108
:100FB0007047002904D0828902231A43828104E009
:100FC00082896C4B0D331A4082817047028A694BCB
:100FD000113B1A400282028A0A43028270470029AA
:100FE00005D0028A01239B031A43028203E0028A8E
:100FF000624B1A4002827047CA05D20D8280704748
:1010000001468888C005C00D7047818901221143BF
:1010100081817047028BD2B20283028B0B021A438A
:1010200002837047028BFF231B021A400283028B4C
:101030000A4302837047002904D0828A20231A437E
:10104000828204E0828A4B4B113B1A4082827047B5
:10105000002904D0828A10231A43828204E0828A03
:10106000444B5B1E1A4082827047002904D0828A5A
:1010700008231A43828204E0828A3E4BDB1D1A4019
:1010800082827047828A3B4B0B331A408282828A6B
:101090000A4382827047002904D0828A02231A43BD
:1010A000828204E0828A334B0D331A408282704779
:1010B0000246002001235B02994200D100BF138841
:1010C0000B40002B01D0012000E0002070470122DE
:1010D00052020A4001235B029A4200D100BFCA4378
:1010E0000280704770B502460024002300250020CE
:1010F0001F4EB14200D100BF0E06750FCB06DB0EAE
:1011000001269E403346012D02D19689334006E0E8
:10111000022D02D1168A334001E0968A33400C1228
:101120000126A640344616883440002B03D0002CFC
:1011300001D0012000E0002070BD10B50023002286
:101140000B4CA14200D100BF0B1201249C40A2B263
:10115000D443048010BD000000380140FFCF0000E0
:10116000F3E90000FFFC0000FFF00000FFDF0000DB
:101170006A090000F0FF0000FFF70000FFBF000059
:1011800000B587B001210920FFF7A2FD01A8FFF7F4
:1011900002FA2020019002200290002004900420F6
:1011A00006900020039001A93C48FFF771F9032045
:1011B000FFF7D4FD3A4841683AA000F027FA07B09B
:1011C00000BD00F0F6F83CA000F020FAFFF7D8FFD1
:1011D000FFF7D6F83E4801683EA000F017FA7D21DF
:1011E000C9003B48006800F085F904463F48844246
:1011F00000D90EE02002000A401E3D49486103214B
:10120000081F00F013F800203949886107200861A1
:1012100000BF0AE07D21C9003648006800F06AF985
:10122000002902D134A000F0F1F9F3E710B500284D
:1012300019DA384A03071B0F083B9B089B00D2585A
:101240008307DC0EFF23A3409A438B071B0E840702
:10125000E40EA3401A432F4B0407240F083CA408B4
:10126000A4001A5118E02C4A03231B02D218830849
:101270009B00D2588307DC0EFF23A3409A438B07C1
:101280001B0E8407E40EA3401A43234B03242402BD
:101290001B198408A4001A5110BD0000000C014065
:1012A000001002405243432D3E4346473A307825D2
:1012B0003032780D0A000000436F727465782D4D4E
:1012C00030205379735469636B200D0A00000000CD
:1012D0000000002053797374656D436F7265436C31
:1012E0006F636B3A25640D0A00000000FFFFFF00EA
:1012F00000E000E004000020436F727465782D4D1B
:1013000030205379735469636B20495251200D0A80
:10131000000000001CED00E000E100E0704700BFAD
:10132000FEE77047704703480068401C01490860A9
:10133000704700000400002010B501210846FFF7A7
:10134000A4FC01210D20FFF7C3FC01214805FFF794
:10135000CDFC01214805FFF7F3FC002101204005E9
:10136000FFF7EEFC002101204005FFF7BFFC002144
:101370000120FFF7ADFC00210820FFF7A9FC0121A7
:101380004805FFF7DDFC002101204005FFF7D8FCF0
:101390005048FFF717F85048FFF714F8FFF76EF8BA
:1013A00000210D20FFF794FC00210120FFF76DFCC8
:1013B00010BD00B58BB0FFF7BFFF05A8FFF7EBF836
:1013C00001210920FFF784FC01218803FFF780FC3D
:1013D000402005900220069004200A9005A93E486E
:1013E000FFF756F88020059004200A9005A93A4896
:1013F000FFF74EF8E120400201900021684601818C
:101400004181818101820C21C18101A93348FFF70B
:101410000EFD01213148FFF77DFD0BB000BD70B519
:1014200004460D460D2C03D101202D49086017E01C
:101430000A2C12D12A48006800280AD10D21274819
:10144000FFF7DAFD00BF40212448FFF731FE0028F6
:10145000F9D000202249086002E0002020490860FD
:10146000E1B21E48FFF7C8FD00BF40211B48FFF74F
:101470001FFE0028F9D0204670BD70B505460E4607
:10148000002400BF11E0295D16A000F0BFF8002C79
:101490000AD0601CC117090F091809110901411A66
:1014A00002D113A000F0B2F8641CB442EBDB10A030
:1014B00000F0ACF870BD002101E0491C401E00287E
:1014C000FBD1704710B50446642161430846FEF71E
:1014D0005BFF10BD00080140000C014000380140D6
:1014E000080000203078253032782C2000000000E1
:1014F0000A00000030B50B460146002020220124DE
:1015000009E00D46D5409D4205D31D469540491B37
:101510002546954040191546521E002DF1DC30BD80
:1015200003460B439B0703D009E008C9121F08C0FC
:10153000042AFAD203E00B780370401C491C521EA7
:10154000F9D27047F0B51FB40646002082B00546B8
:101550004024019100901BE0019922460F4630463D
:1015600000F042F8049A059B801A994110D3104666
:101570001946224600F028F8361A8F410197224674
:1015800001200021009F00F01FF838184D41009005
:101590002046641E0028DFDC019B00982946324665
:1015A00007B0F0BD064C0125064E05E0E36807CC08
:1015B0002B430C3C98471034B442F7D3FEF784FD1C
:1015C000281C0001481C000110B5202A04DB01463C
:1015D000203A9140002010BD914020239C1A0346E0
:1015E000E3401943904010BD10B5202A04DB0846A3
:1015F000203AD040002110BD0B46D340D0402024DB
:10160000A21A91400843194610BD00000FB410B54E
:1016100003A9044B044A029800F026F810BC08BC49
:1016200004B018471F1400010C00002030B47446A9
:10163000641E2578641CAB4204D3635D5B00E31831
:1016400030BC18471D46F8E702E008C8121F08C161
:10165000002AFAD170477047002001E001C1121F33
:10166000002AFBD170470000FFB591B00F46054638
:10167000002606E025280AD0149A139990476D1C7D
:10168000761C28780028F5D1304615B0F0BD00242E
:1016900000940121F34A029400E004436D1C2B786E
:1016A0000846203B98401042F7D128782A280ED0CF
:1016B000022128780246303A092A15D8009A0A23CE
:1016C0005A43303A80180C436D1C0090F1E701CF6B
:1016D0000090002805DA01204003044300984042AE
:1016E0000090022004436D1C28782E2815D1042078
:1016F000044368786D1C2A280AD101CF6D1C029022
:101700000BE002990A225143303940186D1C0290B7
:101710002878014630390929F3D928786C2810D067
:1017200006DC4C281AD068280ED06A2817D104E0AD
:10173000742813D07A2812D110E001204005044308
:101740000CE00121090501E0032109050C4369783A
:10175000814203D10120000524186D1C6D1C2878DE
:1017600003906E281ED00CDC632831D004DC0028E6
:101770008AD0582811D1B2E064287BD069280CD1D6
:1017800078E073282DD004DC6F2870D0702804D145
:10179000A7E075286CD078286BD0149A13999047DD
:1017A000761C62E06002400F022807D003280AD0AE
:1017B000042838680AD006603F1D56E03868F117E3
:1017C00006604160F8E738680680F5E70670F3E7E1
:1017D0003878694608740020487404A803900120F2
:1017E00003E0386803900020C0433F1D61070FD518
:1017F000002101E00199491C029A0191914213DAFA
:101800008142F7DB019A0399895C0029F2D10BE050
:10181000002101E00199491C01918142FADB019A02
:101820000399895C0029F5D101990098139A401A0F
:1018300000902146149B00F03BF90199801946184D
:1018400007E0039803990078491C0391149A1399AF
:1018500090470198401E0190401CF2D12146149BF4
:10186000139A009800F014F986196D1C09E741E0FD
:1018700033E034E00A200021049005916002410F1A
:10188000022905D001CFC2179446032905D007E0ED
:10189000FF1DFF08FF0003CF06E000B2C217944609
:1018A000042902D140B2C1178C46002261469445FA
:1018B00006DA0A460021404291418C462D2102E081
:1018C000210504D52B216A461176012103E0E107A9
:1018D00001D02021F7E7019154E00A200BE010200D
:1018E00009E0102004900021042004430820059101
:1018F000029003E008200021059104906002410F4E
:10190000022905D001CF00229446032906D006E023
:10191000FF1DFF08FF0003CF8C4603E080B20429BF
:1019200000D1C0B20021019121072BD50399702964
:1019300006D0049A1021059B4A401A4305D00EE0B8
:1019400040216A461176012108E06146014306D034
:1019500030216A4611760399517602210191049A49
:101960000821059B4A401A430CD16146014301D12D
:10197000610707D530216A4611760121019102994C
:10198000491E02910399582904D037A103910FA948
:101990000F910DE039A1F9E76146059B049AFFF725
:1019A000D1FD039B8C469B5C0F9A521E0F921370C5
:1019B00061460143F0D10F9807A9081A203003901F
:1019C000600704D5012000048443029801E001204F
:1019D00002900399884201DD401A00E0002041187E
:1019E0000290019809180098401A0090E00306D46C
:1019F0002146149B139A009800F05AF8861900208B
:101A0000049008E006A9085C149A1399904704987A
:101A1000401C761C049001998842F3DBE0030CD54E
:101A20002146149B139A009800F042F8861904E0AE
:101A3000149A302013999047761C0299481E029000
:101A40000029F5DC08E00F980F990078491C0F91E8
:101A5000149A13999047761C0399481E0390002905
:101A6000F1DCFBE6092801003031323334353637FA
:101A700038396162636465660000000030313233DA
:101A8000343536373839414243444546000000007A
:101A9000F8B5044600251E461746880404D405E020
:101AA00039462020B0476D1C641EF9D52846F8BD84
:101AB000FFB50446002581B01E46C80301D5302776
:101AC00000E02027880404D505E038460399B04794
:101AD0006D1C641EF9D5284605B0F0BD40BA7047AC
:101AE000C0BA70470138FDD170470000F7B5032533
:101AF000AD06286A82B016460C46400840002862AF
:101B0000286A022108432862286A8007FCD46620DC
:101B1000686001272F61A86AC005FCD5992068601C
:101B20002F61A86AC005FCD5FF209130FFF7DAFFCE
:101B3000FF230133AB626846EF60352169602F6196
:101B4000A96AC905FCD5AB62A969EF60C9B20522D3
:101B50006A602F61AA6AD205FCD5AB62AA69090244
:101B6000D2B211430180C80702D0032005B0F0BDF6
:101B7000AB626869FF210831884368616869C91EE2
:101B80000843686102980002483068600820A86035
:101B9000EE602F61A86AC005FCD5FF200130A86265
:101BA0000023F61CB0080ED0B20811480068990056
:101BB0006054060A09194E70060C000E8E705B1CEC
:101BC000C8709A42F1D8FF200130A8626869FF21ED
:101BD000083188436861686938436861286A800809
:101BE00080002862286A38432862002005B0F0BDD2
:101BF0008000000C032080064169FF2208329143D7
:101C00004161426901210A434261026A92089200DD
:101C10000262026A0A43026270470000000000008C
:101C20000102030400000102481C00010000002022
:101C30001000000048160001581C00011000002090
:101C400038080000581600010048E80100000000B4
:081C500000000000000000008C
:04000005010000C135
:00000001FF
