:020000040800F2
:1000000058690020AD010008294600085D2D000850
:10001000013F00084511000865820008000000004B
:10002000000000000000000000000000BF01000808
:100030004711000800000000C301000839620008F1
:10004000C7010008C7010008C7010008C701000870
:10005000C7010008C7010008C7010008C701000860
:10006000B9190008C7010008C7010008C701000846
:10007000C7010008C7010008C7010008C701000840
:10008000C7010008C7010008C7010008C701000830
:10009000C7010008C7010008C7010008C701000820
:1000A000C7010008C7010008C7010008C701000810
:1000B000C7010008C7010008C7010008C701000800
:1000C000C7010008C7010008C7010008C7010008F0
:1000D000C7010008C70100083176000889760008CA
:1000E000C7010008C7010008C7010008C7010008D0
:1000F000C7010008C7010008C7010008C7010008C0
:10010000C7010008C7010008C7010008C7010008AF
:1001100011760008C7010008396D0008C701000802
:10012000C7010008C7010008C7010008C70100088F
:10013000C7010008C7010008C7010008C70100087F
:10014000C7010008C7010008C7010008C70100086F
:10015000C7010008C7010008C7010008C70100085F
:10016000C7010008C7010008C7010008C70100084F
:10017000C7010008C7010008C7010008C70100083F
:10018000C7010008C7010008C7010008C70100082F
:10019000C7010008C7010008DFF80CD000F048FBD9
:1001A00000480047FD910008586900200648804734
:1001B00006480047FEE7FEE7FEE7FEE7FEE7FEE74C
:1001C000FEE7FEE7FEE7FEE73D6200089901000852
:1001D00040EA01039B0703D009E008C9121F08C0C9
:1001E000042AFAD203E011F8013B00F8013B521E49
:1001F000F9D27047D2B201E000F8012B491EFBD2C0
:1002000070470022F6E710B513460A460446194621
:10021000FFF7F0FF204610BD30B505462A460B46D5
:1002200012F8010B13F8014B08B1A042F8D01CB131
:10023000002802D06D1CF1E7284630BDCAB2401E2E
:1002400010F8011F8A4202D00029F9D1002070471E
:10025000421C10F8011B0029FBD1801A704770B5B1
:10026000064608F071F8046805460A220021304667
:1002700000F002F92C6070BD2DE9FE4F81EA030405
:1002800004F0004421F0004100944FF0000B23F0F3
:10029000004350EA01045ED052EA03045BD0C3F38A
:1002A0000A54C1F30A552C44A4F2F3340194A0FB80
:1002B0000254C1F3130141F48011C3F3130343F457
:1002C000801301FB024400FB034E840A970A44EAB0
:1002D000815447EA8357A4FB076802958D0A05FB02
:1002E00007854FEA932C04FB0C542705029D4FEA27
:1002F000065847EA1637B5EB08056EEB070C870E74
:10030000920E47EA811742EA8312A7FB0201B6EB7D
:100310000B0164EB00042B0D43EA0C335E1844EB35
:100320001C50DA465146E7FB0201C5F313044FEABD
:100330000B3343EA14534FEA0432019C43EA0603A9
:10034000A4F10C040294009CCDE900B400F0DBF8A9
:1003500003B0BDE8F08F00200146F9E70EB5C10FEC
:1003600080EAE0700844CA07002140F233438DE878
:100370000E000A460B4600F0C6F803B000BD0EB5ED
:1003800040F2334102910021CDE900110A460B46AB
:1003900000F0B9F803B000BDC1F30A5210B5C1F3C3
:1003A000130140F2FF3341F480119A4201DA002038
:1003B00010BD40F233439A42A2F2334203DC524270
:1003C00000F04AF810BD904010BD30B50B46014614
:1003D00000202022012409E021FA02F59D4205D3E4
:1003E00003FA02F5491B04FA02F52844151EA2F18E
:1003F0000102F1DC30BD2DE9F05F05460020924698
:100400009B4688460646814640241BE028464146D6
:100410004746224600F020F853465A46C01A9141FA
:1004200010D311461846224600F014FA2D1A67EB35
:1004300001084F4622460120002100F00BFA17EB7D
:1004400000094E41201EA4F10104DFDC484631467C
:100450002A464346BDE8F09F202A04DB203A21FAD1
:1004600002F00021704721FA02F3D040C2F12002CD
:1004700091400843194670472DE9F04791460F46D1
:1004800080460446002614F8015B2DB100F004FA02
:100490000068405DC007F6D12B2D02D02D2D18D05D
:1004A000641E4A463946204600F0FAF927B13968F9
:1004B000A14201D1C7F8008071054FF002040BD5AD
:1004C0004042002803DD07F03FFF0460A007BDE8BD
:1004D000F08746F48066E4E70028F8DA07F034FF96
:1004E00004606FF00040F2E710B5141E73F10004D1
:1004F00008DA401C41F1000192185B411A4301D116
:1005000020F0010010BD2DE9F04D92469B4611B13F
:10051000B1FA81F202E0B0FA80F22032904600F0A7
:1005200099F904460F4640EA0A0041EA0B01534696
:100530005A46084313D0114653EA010019D0C8F1B6
:1005400040025046FFF788FF05460E465046594682
:10055000424600F07FF9084305D0012004E0204620
:100560003946BDE8F08D0020054346EAE0762C438D
:1005700037430A986305E40AA0EB08000022FD0A4D
:1005800044EA47540A3002D500200146E9E7010554
:1005900010196941DDE9084500196941BDE8F04DD0
:1005A000A2E72DE9FE4F804681EA0300C00F0C460A
:1005B000009021F0004123F00045B8EB0200A94172
:1005C00005D24046214690461C460B46024623F083
:1005D0000040104347D0270DC7F30A00C3F30A5168
:1005E0000290401A019040286BDAC3F3130040F4E4
:1005F000801B0098924620B10023D2EB030A63EBE4
:100600000B0B01985946C0F14002504600F022F908
:1006100006460D4650465946019A00F02AF910EB5D
:1006200008006141002487EA115284EAE7731A4303
:1006300040D0009A62B3019A012A4FEA075215DCB2
:10064000001B61EB02014FF0004202EA0752CDE9C4
:100650000042001C41F5801132462B46FFF753FF44
:1006600003B0BDE8F08F40462146F9E7001B61EB7F
:100670000201001C41F5801300185B412018A2F50F
:10068000001747EB030140EAD570B6196D4111E040
:100690006D084FEA360645EAC0754FEA0752001B5F
:1006A00061EB0201001C41F5801149084FEA30005E
:1006B0000019514132462B4603B0BDE8F04FFFF719
:1006C00013BF0098012240000023D0EB020263EB2D
:1006D000E073009821464FEAE074B8EB000061EB4C
:1006E0000401E9E783F000435BE781F0004158E74C
:1006F0002DE9F04D81EA030404F0004B21F00045A0
:1007000014464FF0000A23F0004150EA050220D0C1
:1007100054EA01021DD0C5F30A570246C5F313037C
:10072000C1F31300C1F30A5640F4801543F480135B
:10073000A7EB0608101BD64608F2FD3873EB050040
:1007400002D308F1010801E092185B41B8F1000FF3
:1007500003DA00200146BDE8F08D00204FF480113F
:10076000064684460EE0171B73EB050705D3121BE4
:1007700063EB050306434CEA010C49084FEA3000DD
:1007800092185B4150EA0107EDD152EA030012D002
:1007900082EA040083EA0501084305D0101BAB413F
:1007A00006D20122002306E000224FF0004302E0BF
:1007B0006FF0010253101AEB06004CEB085110EBDE
:1007C0000A0041EB0B01BDE8F04DFFF78DBEC1F310
:1007D0000A52C1F3130140F2FF3341F480119A42EF
:1007E00002DA00200146704740F233439A42A2F2F7
:1007F000334202DC5242FFF72FBE00F02BB800005C
:1008000030B5041E71F1000404DB4FF00044404297
:1008100064EB0101141E73F1000405DB1C464FF06C
:100820000043524263EB0403994208BF904230BD3B
:10083000064C074D06E0E06840F0010394E807002D
:1008400098471034AC42F6D3FFF7AAFCC0BC0008AE
:10085000E0BC0008202A04DB203A00FA02F1002064
:1008600070479140C2F1200320FA03F319439040EE
:100870007047202A06DBCB17203A41FA02F043EA00
:10088000E07306E041FA02F3D040C2F12002914049
:1008900008431946704700000048704780BB0008B5
:1008A0002DE9F05F82460078002715468B460AF155
:1008B0000104B946302801D09DB113E014F8010BB2
:1008C0000127782803D0582801D045B10AE00DB19E
:1008D000102D07D10027102514F8010B02E0082580
:1008E00000E00A250026B0460EE005FB080005FBE7
:1008F00006F1012701EB10461FFA80F8B6F5803F9C
:1009000000D3B94614F8010B294600F018F8002866
:10091000EBDABBF1000F05D00FB1641E00E05446C6
:10092000CBF80040B9F1000F06D007F00DFD022111
:100930000160C81EBDE8F09F48EA0640FAE73A2881
:1009400000D2303820F02002412A01D3A2F1370032
:10095000884201D34FF0FF30704770B58C1810F803
:10096000015B15F0070301D110F8013B2A1106D1F4
:1009700010F8012B03E010F8016B01F8016B5B1E0E
:10098000F9D12B0705D40023521E0DD401F8013BE9
:10099000FAE710F8013BCB1A921C03E013F8015B55
:1009A00001F8015B521EF9D5A142D8D3002070BDD9
:1009B000F8B54FF40050ADF8000010250E4E8DF83C
:1009C000035001248DF802406946304601F0ECFEE8
:1009D0002103ADF800108DF803508DF802406946F0
:1009E000304601F0E1FE6103304602F0F1F82103E8
:1009F000304602F0EDF8F8BD000C014070B5C0F3D0
:100A000007110E2202EAD10200F00F0001F00F01DF
:100A100042F0A00440EA011502F05CFB04F0FE0085
:100A200002F01AFB02F0A4FB284602F015FB02F0CC
:100A30009FFB02F04FFB44F0010002F00DFB02F0BF
:100A400097FB002002F08AFA044602F06DFB44F6A0
:100A5000206008F071F9204670BD70B502460E4660
:100A6000C0F307100E2101EAD00102F00F0200F0DE
:100A70000F0041F0A00442EA001502F02BFB2046D3
:100A800002F0EAFA02F074FB284602F0E5FA02F0FE
:100A90006FFB304602F0E0FA02F06AFB02F044FB22
:100AA000BDE8704044F6206008F046B970B51D4CB2
:100AB0000025607B10B1012813D010E02079401C84
:100AC000207103F09BFD0C2117A007F0AFFB642100
:100AD0006570194A0F2007F0F1FB012060730020B8
:100AE00070BD03F07FFD002808BF70BD134E306855
:100AF00004F01EFA01461248326801F055FA11A1BD
:100B00000F48FFF789FB00281EBF6573012070BDE9
:100B100020790A2898BF6573E1D925716573022091
:100B200070BD00004000002041542B514941435406
:100B30003D310D0A000000001D4600083C00002069
:100B40000C1100204F4B00000146064A0978002096
:100B5000135C994208BF7047401CC0B20A28F7D303
:100B6000704700005A9300082DE9F0014FF0000C87
:100B7000002A88BF154C24D911F81C60002314F8F2
:100B80000380464504BF1D072D0E5B1CDBB2102BF6
:100B9000F5D301EB4C060023767814F80380464524
:100BA00008BF03F00F075B1CDBB2102BF5D345EA3F
:100BB000070300F80C300CF101031FFA83FC944585
:100BC000DAD3BDE8F0015008704700005A930008DE
:100BD00038B5044600200090042C18BF082C54D0CF
:100BE0000C2C18BF102C50D0142C18BF182C4CD023
:100BF0001C2C18BF202C48D0242C18BF282C44D0E3
:100C0000402C18BF442C40D0482C18BF4C2C3CD052
:100C1000502C18BF542C38D0582C18BF5C2C34D012
:100C2000602C18BF642C30D0682C18BF6C2C2CD0D2
:100C3000702C18BF742C28D0782C18BF7C2C24D092
:100C4000802C18BF842C20D0882C18BF8C2C1CD052
:100C5000902C18BF942C18D0982C18BF9C2C14D012
:100C6000A02C18BFA42C10D0A82C18BFAC2C0CD0D2
:100C7000B02C18BFB42C08D0B82C18BFBC2C04D092
:100C8000C62205A112A007F0C1FF04F1804000F5C3
:100C9000D8400090008838BD2E2E5C6669726D7752
:100CA0006172655C6E3332673435785F7374645F8C
:100CB0007065726970685F6472697665725C737280
:100CC000635C6E3332673435785F626B702E63001D
:100CD00049535F424B505F44415428424B505F445C
:100CE0004154290038B5044600200D460090042CDC
:100CF00018BF082C54D00C2C18BF102C50D0142C1A
:100D000018BF182C4CD01C2C18BF202C48D0242CD9
:100D100018BF282C44D0402C18BF442C40D0482C5D
:100D200018BF4C2C3CD0502C18BF542C38D0582C09
:100D300018BF5C2C34D0602C18BF642C30D0682CC9
:100D400018BF6C2C2CD0702C18BF742C28D0782C89
:100D500018BF7C2C24D0802C18BF842C20D0882C49
:100D600018BF8C2C1CD0902C18BF942C18D0982C09
:100D700018BF9C2C14D0A02C18BFA42C10D0A82CC9
:100D800018BFAC2C0CD0B02C18BFB42C08D0B82C89
:100D900018BFBC2C04D0B32205A113A007F036FF66
:100DA00004F1804000F5D8400090056038BD000097
:100DB0002E2E5C6669726D776172655C6E33326788
:100DC0003435785F7374645F7065726970685F64EE
:100DD00072697665725C7372635C6E333267343548
:100DE000785F626B702E630049535F424B505F44E3
:100DF000415428424B505F444154290000000000F8
:100E00002DE9F0415C4C8188A1808179A171B0F815
:100E100001102180C178A170B0F807102181417ABA
:100E2000A1724189A181017BA173B0F80D102182CB
:100E3000C17BA174018AA182817CA175B0F81310D5
:100E40002183407DA0766068FFF799FA9FED4C1BE7
:100E500053EC112BFFF710FAFFF79EFA04F11C0573
:100E600086B22E802068FFF78AFA9FED471B53EC6D
:100E7000112BFFF701FAFFF78FFA07466860E06869
:100E8000B0F5000F03DBC043401CC0F31600FFF7B2
:100E900065FA9FED3F1B53EC112BFFF7EDF9FFF7C0
:100EA0007BFA80B200EE100A28813D4BB8EE401A62
:100EB00000EE106AB8EE400AC1EE000A00EE107AA9
:100EC000B8EE400A80EE801A9FED330A61EE000A08
:100ED0009FED320A60EE800AFCEEE00A10EE900A06
:100EE0002874206959680844586019469A68C96886
:100EF000904203D3821A1144D96006E06FF07F4C10
:100F0000ACEB020202441144D9600022C3E9012083
:100F10000D291AD300EE901A9FED221AE968F8EE17
:100F2000600A60EE810A20EE800ABCEEC00A10EE74
:100F3000100A0844E860010C0820DA6003F0D8FACF
:100F4000A88981B2092003F0D3FA2988042003F08C
:100F5000CFFA15496868A1FB0010C0F3CF01052046
:100F600003F0C6FA2989072003F0C2FA297CBDE8FC
:100F7000F041062003F0BCBA2C0C00200000000059
:100F80009FE74A621B81103FCD2D44350B4E903FA9
:100F900056B7DD7835487A3F0000C84200007A44F1
:100FA0002C000020EDF8433ACDCCCCCC08B507A0FE
:100FB0000068009006480178012918BF08BD00218B
:100FC00001700221684607F09BF808BD58AA00008E
:100FD0002C000020084808B50068009007480178F8
:100FE000012905D1002101700221684607F088F827
:100FF000BDE8084007F0A0B8CC0F00082C00002086
:1010000038B50220ADF8000010208DF80300012053
:10101000104C8DF802006946204601F0C5FB022104
:10102000204601F06BFD0221204601F0D1FD4FF476
:10103000FA7007F075FE0221204601F05FFD40F6D0
:10104000B83007F06DFE044A4FF47A71042007F0BF
:1010500035F938BD00080140F95E000838B507F0E1
:1010600095FE07F011F90124ADF8004010258DF828
:1010700003508DF802406946224801F095FB224A50
:101080001E21022007F01AF903F03AFF07F074FF5F
:1010900007F0AEFE07F02EFF03F0C7FA04F08EFF54
:1010A000FFF7AEFF08F054F82003ADF800008DF80C
:1010B0000350164D8DF802406946284601F074FB36
:1010C0002103284601F01AFDADF8004048218DF8B3
:1010D00003106946284601F067FB05F04FFA04F05B
:1010E00047FF04F0D7F9FFF763FC00F063FE02F05E
:1010F000A1FB07F0DFFF05F013FEBDE8384004A0B8
:1011000007F0FEB800100140511900080008014026
:1011100048656C6C6F20576F726C64210D0A00007B
:10112000074910B50120487002F04EFCFFF752FF4E
:1011300008F00CF806F0EAF9BDE8104000F029BF0D
:1011400016000020FEE7704770B584B000254CF211
:10115000186428B301281CBF04B070BD1026CDE967
:1011600000464FF61F0300220C21E820029505F0EF
:1011700003FCCDE900464FF61F0301220C21F820A5
:10118000029505F0F9FBCDE900464FF61F03022258
:101190000C214FF48470029505F0EEFB04B070BD95
:1011A0001820CDE90040002303A20C210295E8207D
:1011B00005F05AFD04B070BD202020200000000082
:1011C00070B5002484B020254CF21866E8B10128DF
:1011D0001CBF04B070BD012002F0DEFB0096CDE91B
:1011E00001544FF478431422C021E02005F0C4FBE1
:1011F0000096CDE901544FF478430F22C0214FF4FB
:10120000807005F0B9FB04B070BD002002F0C4FB93
:101210000096CDE901544FF4FC631522C021E02073
:1012200005F0AAFB0096CDE901544FF4FC630F22B0
:10123000C0214FF4807005F09FFB04B070BD70B505
:10124000002484B020254CF21866E0B101281CBFB0
:1012500004B070BD012002F0ABFB0096CDE9015453
:101260004FF4FC6311224021E02005F085FB00963D
:10127000CDE9015440214FF4FC631322880005F0AE
:101280007BFB04B070BD002002F092FB0096CDE91C
:1012900001544FF4784312224021E02005F06CFB0A
:1012A0000096CDE9015440214FF478431322880081
:1012B00005F062FB04B070BD70B5002484B0202539
:1012C0004CF21866E0B101281CBF04B070BD0120CB
:1012D00002F0A8FB0096CDE901544FF4FC630B2209
:1012E000C021582005F048FB0096CDE901544FF489
:1012F000FC630C22C021782005F03EFB04B070BDD9
:10130000002002F08FFB0096CDE901544FF47843A2
:101310000D22C021582005F02FFB0096CDE9015485
:101320004FF478430E22C021782005F025FB04B04D
:1013300070BD000000000000F0B5754A18252DEDC5
:10134000028B87B05078734F401CC0B200247249A2
:1013500050704CF21866072880F0D480DFE800F067
:10136000D204273845535B00CDE9004602953A8800
:1013700004230821002005F01DFCCDE9004602955C
:10138000BA78022308213C2005F014FCCDE9004680
:101390000295FA7802230821602005F00BFCCDE9C4
:1013A0000046029501230821FA79CC2025E0CDE9F9
:1013B000004602953A7902230821842005F0FAFBC1
:1013C000CDE900460295022308217A79A82014E08D
:1013D000CDE9004602950A8804234021582005F0F3
:1013E000E9FB07B0BDEC028BF0BDCDE900460295EC
:1013F0008888052382B260210BE005F0DBFB07B093
:10140000BDEC028BF0BDCDE9004602950A890623AA
:1014100080215820F1E7C868002866D03F49A1FB29
:10142000002149096FF01802514310EB81019FED33
:101430003C8B24D03C49A1FB0021C908494201EB67
:10144000810110EB410135D0FEF799FF53EC182BC9
:10145000FEF712FF41EC100B34A153EC102B03A844
:1014600006F05EFF0096CDE90154002303AAA021F7
:10147000642005F0F9FB07B0BDEC028BF0BDFEF770
:101480007EFF53EC182BFEF7F7FE41EC100B29A161
:1014900053EC102B03A806F043FF0096CDE901544E
:1014A000002303AAA021642005F0DEFB07B0BDECF9
:1014B000028BF0BDFEF763FF53EC182BFEF7DCFE4A
:1014C00041EC100B1DA153EC102B03A806F028FFD4
:1014D0000096CDE90154002303AAA021642005F061
:1014E000C3FB07B0BDEC028BF0BD0096CDE9015403
:1014F000002314A2A021642005F0B6FB07B0BDECC8
:10150000028BF0BD547007B0BDEC028BF0BD000043
:101510005900002020000020480C00201F85EB51BE
:10152000FCA9F1D24D62503FCDCCCCCC252E3366F8
:1015300000000000252E316600000000252E3266D6
:1015400000000000300000002DE9F0412DED028B7D
:1015500086B04CF218640021F0234FF4A0720846C4
:10156000009404F0E4FF4FF47840302300904FF4EF
:10157000A0721946002004F07BFF0025DE4FCDE964
:101580000054182602963A8804230821284605F0BC
:1015900011FBCDE900460023D8A208213020029596
:1015A00005F062FBCDE900540296BA7802230821C7
:1015B0003C2005F0FFFACDE900460023CFA2082128
:1015C0005420029505F050FBCDE900540296FA78BC
:1015D00002230821602005F0EDFACDE900540296BF
:1015E0003A7902230821842005F0E4FACDE9004687
:1015F0000023C3A208219C20029505F035FBCDE90C
:10160000005402967A7902230821A82005F0D2FA24
:10161000CDE900540296FA7901230821CC2005F087
:10162000C9FA042002F032FFFFF78EFDCDE9004633
:101630000023B4A208214FF49170029505F014FB29
:1016400020270023CDE900471A464021184602957D
:1016500005F092F9CDE90047002301224021202026
:10166000029505F089F9CDE9004640210023A4A2A6
:101670000846029505F0F8FADFF88C82CDE90054AF
:101680000296B8F8002004234021582005F092FA71
:10169000CDE9004600239DA24021A020029505F03F
:1016A000E3FACDE900474FF4784312224021E020CD
:1016B000029505F061F9CDE9004740214FF47843E8
:1016C00013228800029505F057F90023CDE9004761
:1016D0001A4660211846029505F04EF9CDE90047FB
:1016E0000023022260212020029505F045F9CDE972
:1016F0000046002382A260214020029505F0B4FA42
:10170000CDE900540296B8F80400052382B26021A6
:10171000582005F04FFACDE9004600237CA2602155
:10172000AC20029505F0A0FACDE900470023032282
:1017300080211846029505F01FF9CDE900470023E6
:10174000042280212020029505F016F9CDE90046FB
:1017500000236BA280214020029505F085FACDE997
:1017600000540296B8F8082006238021582005F07E
:1017700021FACDE90046002366A28021D0200295FF
:1017800005F072FACDE9004700230722A021184690
:10179000029505F0F1F8CDE9004700230822A021C9
:1017A0002020029505F0E8F8CDE90046002354A278
:1017B000A0214020029505F057FAD8F80C00002827
:1017C0005CD05549A1FB00214909F243514310EB7C
:1017D00081019FED538B21D05349A1FB0021C90802
:1017E000494201EB810110EB41012FD0FEF7C7FD0B
:1017F00053EC182BFEF740FD41EC100B4BA153ECC2
:10180000102B03A806F08CFDCDE90046002303AAA7
:10181000A0216420029505F027FA38E0FEF7AFFD1D
:1018200053EC182BFEF728FD41EC100B41A153ECB3
:10183000102B03A806F074FDCDE90046002303AA8F
:10184000A0216420029505F00FFA20E0FEF797FD35
:1018500053EC182BFEF710FD41EC100B37A153ECA5
:10186000102B03A806F05CFDCDE90046002303AA77
:10187000A0216420029505F0F7F908E0CDE90046C3
:10188000002330A2A0216420029505F0EDF9CDE9F6
:10189000004600232CA2A0214FF48070029505F091
:1018A000E3F9CDE9004700230922C021184602953B
:1018B00005F062F8CDE9004700230A22C02120206C
:1018C000029505F059F8CDE9004600230CA2C0218D
:1018D0004020029505F0C8F9012002F0D7FDFFF77E
:1018E000EBFC022002F0D2FDFFF76AFC06B0BDEC73
:1018F000028BBDE8F0810000200000202F000000D6
:101900003A00000034470000480C00205600000058
:101910006D410000570000001F85EB5100000000E2
:10192000FCA9F1D24D62503FCDCCCCCC252E3366F4
:1019300000000000252E316600000000252E3266D2
:1019400000000000300000004B572F48000000004E
:1019500010B5174CE07868B12179164800294FF08E
:10196000010102D001F034F901E001F0C7F820795B
:10197000C043207120890021B0F57A7F28BF2181E2
:101980000CD2401C0004000C208107D0A0F540724E
:10199000E73A02BF60780028E17000E06170AFF2C2
:1019A0004F021E21BDE81040022006F087BC000057
:1019B000160000200010014010B5042000F028F8A7
:1019C000002808BF10BD07F06FFBBDE810400420E1
:1019D000AFF3008010B50446800D00D12CB940F261
:1019E0000112034903A007F011F90848046010BD73
:1019F00060BC000849535F455854495F4C494E4507
:101A000028455854495F4C696E652900140401400B
:101A100070B500250446012818BF022C3AD0042CCA
:101A200018BF082C36D0102C18BF202C32D0402CD8
:101A300018BF802C2ED0B4F5807F18BFB4F5007F7E
:101A400028D0B4F5806F18BFB4F5006F22D0B4F57C
:101A5000805F18BFB4F5005F1CD0B4F5804F18BF8D
:101A6000B4F5004F16D0B4F5803F18BFB4F5003F71
:101A700010D0B4F5802F18BFB4F5002F0AD0B4F5FC
:101A8000801F18BFB4F5001F04D0EB22074908A03F
:101A900007F0BCF80D4800680D4920400968214254
:101AA0001CBF00280125284670BD000060BC00084E
:101AB00049535F4745545F455854495F4C494E452B
:101AC00028455854495F4C696E652900000401405F
:101AD0001404014010B504460079002818BF0428FA
:101AE00004D073222F4930A007F090F860790828BD
:101AF0001CBF0C28102804D074222A4935A007F0F6
:101B000085F82068810D00D120B9752225493DA0B6
:101B100007F07CF8A079002818BF012804D07622AD
:101B2000204943A007F072F8A1794E48002930D02F
:101B30000168226891430160001D01682268914399
:101B40000160207900F1804000F582300168226850
:101B500011430160444908682268904308600A1DE7
:101B600010682368984310606079102808D000F14D
:101B7000804000F58230016822681143016010BD89
:101B800008682368184308601068216808431060DB
:101B900010BD207900F1804000F582300168226894
:101BA0009143EBE760BC000849535F455854495FD7
:101BB0004D4F444528455854495F496E69745374E4
:101BC000727563742D3E455854495F4D6F646529A5
:101BD0000000000049535F455854495F545249473B
:101BE00047455228455854495F496E697453747289
:101BF0007563742D3E455854495F54726967676533
:101C00007229000049535F455854495F4C494E457D
:101C100028455854495F496E6974537472756374EA
:101C20002D3E455854495F4C696E652900000000FF
:101C300049535F46554E4354494F4E414C5F5354B0
:101C400041544528455854495F496E69745374722C
:101C50007563742D3E455854495F4C696E65436DFC
:101C6000642900000004014008040140001DFEF743
:101C7000F4BE2DE9F0475FEA010807464FF0000483
:101C80001ABF4FF017094FF0180ABDE8F087E519A1
:101C9000E8B202F011FC010A3E1909EB4600FEF71A
:101CA000DCFEE8B202F008FCC1B20AEB4600FEF727
:101CB000D4FE601CC4B2A045E9D8BDE8F08710B5D9
:101CC00000211720FEF7C9FE01211820FEF7C5FEEE
:101CD00000211920FEF7C1FE00211A20FEF7BDFEEB
:101CE00025211B20FEF7B9FE80211C20FEF7B5FE42
:101CF00001211D20FEF7B1FE0E211E20FEF7ADFED4
:101D000000211F20FEF7A9FEB4212020FEF7A5FE2A
:101D10001F212120FEF7A1FE40212220FEF79DFE7B
:101D200000212320FEF799FE1E212420FEF795FEB8
:101D300000212520FEF791FE50212620FEF78DFE82
:101D400044212720FEF789FEC0212820FEF785FECA
:101D500000212920FEF781FE3F212A20FEF77DFE8B
:101D600000213120FEF779FE02213220FEF775FEB8
:101D700000213320FEF771FEFF213420FEF76DFEB7
:101D800000213520FEF769FE00213620FEF765FEB2
:101D900000213720FEF761FE7F213820FEF75DFE2F
:101DA00017213920FEF759FE3B21BDE810403A20AB
:101DB000FEF753BEF8B500246D462046FEF71EFE22
:101DC0002855601CC4B2042CF7D39DF800001825D8
:101DD0001726A12804BF9DF80100582807D19DF8B7
:101DE0000200592804BF9DF80300A22841D0A12178
:101DF0000020FEF732FE58210120FEF72EFE592169
:101E00000220FEF72AFEA2210320FEF726FE002173
:101E10008F20FEF722FE00219020FEF71EFE0021FB
:101E20009120FEF71AFE00219220FEF716FE00F028
:101E300079F800210420FEF710FE01210520FEF7AD
:101E40000CFE00210620FEF708FE01210720FEF708
:101E500004FE00210820FEF700FEFFF730FF00F02F
:101E600061F80024201DFEF7C9FD012833D088B396
:101E70003AE000F057F80024201DFEF7BFFD0128CE
:101E800001D028B108E00121204602F01BFB03E04D
:101E90000021204602F016FB601CC4B2052CEBD3D7
:101EA000012002F0F3FA04F033F8002405EB4400BB
:101EB000FEF7A4FD074606EB4400FEF79FFD07EB87
:101EC000002081B2204602F019FB601CC4B2212C14
:101ED000ECD3F8BD04E00121204602F0F3FA03E060
:101EE0000021204602F0EEFA601CC4B2052CB9D3E2
:101EF000012002F0CBFA04F00BF8002405EB4400BB
:101F0000FEF77CFD074606EB4400FEF777FD07EB86
:101F1000002081B2204602F0F1FA601CC4B2212CEC
:101F2000ECD3F8BD10B58F20FEF768FD04069020B5
:101F3000FEF764FD04EB00449120FEF75FFD04EB27
:101F400000249220FEF75AFD2044064C010CE0606C
:101F5000082002F0CDFAA089BDE8104081B2092026
:101F600002F0C6BA480C002010B500218F20FEF701
:101F700074FD00219020FEF770FD00219120FEF7F6
:101F80006CFD00219220FEF768FDBDE81040FFF7D0
:101F9000C9BF10B502F038FD01F068FD02F062FC27
:101FA000BDE8104002F0CCBC0023002998BF704768
:101FB000F0B40026D2E902C4644508BF34460BD011
:101FC0001468556814F80C400CF1010C9CFBF5F7F3
:101FD00005FB17CCC2F808C0C4545B1C8B42E9D384
:101FE000F0BC704770B50C46050018BF012D0ED02F
:101FF000022D18BF032D0AD0042D1CBF052D062D60
:1020000005D040F247321FA12DA006F0FFFD002CA5
:1020100018BF012C21D0022C18BF032C1DD0042C7A
:1020200018BF052C19D0062C18BF072C15D0082C6A
:1020300018BF092C11D00A2C18BF0B2C0DD00C2C5A
:1020400018BF0D2C09D00E2C18BF0F2C05D04FF443
:1020500052720CA124A006F0D9FDA007010F0F2099
:1020600000FA01F224F0030000F1804000F5803016
:10207000836823EA02028260826805FA01F1114353
:10208000816070BD2E2E5C6669726D776172655CD1
:102090006E3332673435785F7374645F706572696C
:1020A00070685F6472697665725C7372635C6E33CC
:1020B00032673435785F6770696F2E630000000007
:1020C00049535F4750494F5F455854495F504F52FD
:1020D000545F534F5552434528506F7274536F7578
:1020E000726365290000000049535F4750494F5F04
:1020F00050494E5F534F555243452850696E536FB8
:10210000757263652900000070B50D46044601280C
:1021100018BF022C00F0E081042C18BF082C00F03E
:10212000DB81A4F5A01010381CBFA4F5A010B0F1FD
:10213000300000F0D181A4F5B01040381CBFA4F5E8
:10214000B010B0F1C00000F0C781A4F5C010B0F528
:1021500080701CBFA4F5C010B0F5007000F0BC8109
:10216000A4F5C010B0F540701CBFA4F5C010B0F5C8
:10217000023000F0B181A4F5C010B0F5033018BFF3
:10218000B4F5805F00F0A881B4F5E91F18BFB4F57D
:10219000EA1F00F0A181B4F5EB1F18BFB4F5004FA2
:1021A00000F09A816FF40010C4421CBFA4F5001027
:1021B000B0F1020000F09081A4F50010001F1CBFD8
:1021C000A4F50010B0F1080000F08681A4F500101D
:1021D00010381CBFA4F54010B0F5807000F07C8171
:1021E000A4F54010B0F500701CBFA4F54010B0F588
:1021F000806000F07181FB4884421CBF6FF080401A
:10220000C44200F06981F84884421CBFF748844208
:1022100000F06281F64884421CBFF648844200F018
:102220005B81F54884421CBFF448844200F054812D
:10223000F34884421CBFF348844200F04D81F248C9
:1022400084421CBFF148844200F04681F048844239
:102250001CBFF048844200F03F81A4F18040B0F5FB
:10226000F2101CBFA4F18040B0F5F41000F03481EE
:10227000A4F18040B0F5F6101CBFE748844200F09E
:102280002B81E64884421CBFE548844200F024814B
:10229000A4F18040B0F190701CBFE248844200F08D
:1022A0001B81E14884421CBFA4F18040B0F18460EE
:1022B00000F01281DD4884421CBFDD48844200F0FA
:1022C0000B81DC4884421CBFDB48844200F004815F
:1022D000DA4884421CBFDA48844200F0FD80D948C5
:1022E00084421CBFD848844200F0F680D74884421C
:1022F0001CBFD748844200F0EF80D64884421CBF00
:10230000D548844200F0E880D44884421CBFD448B9
:10231000844200F0E180A4F18040B0F579101CBF48
:10232000A4F18040B0F57B107ED0CE4884421CBF23
:10233000CD48844278D0CD4884421CBFCC488442EA
:1023400072D0CC4884421CBFCB4884426CD0CB486E
:1023500084421CBFCA48844266D0CA4884421CBF1B
:10236000C948844260D0C94884421CBFC8488442DE
:102370005AD0C84884421CBFC748844254D0C7487A
:1023800084421CBFA4F10050B0F580504CD0A4F1A1
:102390000050B0F580401CBFA4F10050B0F50040E3
:1023A00042D0BF4884421CBFBE4884423CD0BE4895
:1023B00084421CBFBD48844236D0BD4884421CBF05
:1023C000BC48844230D0BC4884421CBFBB488442D5
:1023D0002AD0BB4884421CBFBA4884427CD0A4F5B2
:1023E000001080381CBFA4F5B010B0F1800073D08D
:1023F000A4F1815080381CBFA4F18150B0F140009D
:102400006AD0A4F1815020381CBFA4F18150B0F1F2
:10241000100061D0A4F1815008381CBFA4F1815094
:10242000B0F1040058D000E056E0A4F18150801EC5
:102430001CBF6FF08150C4424ED0A4F18050B0F563
:1024400000401CBFA4F18050B0F5804044D0A4F1FE
:102450008050B0F5005018BFB4F1102F3CD0A4F15B
:102460008050B0F500601CBFA4F18050B0F58060D2
:1024700032D0A4F18050B0F500701CBFA4F18050A0
:10248000B0F5807028D0A4F1805080381CBFA4F132
:102490008050B0F140001FD0A4F1805020381CBF04
:1024A000A4F18050B0F1100016D0A4F1805008388B
:1024B0001CBFA4F18050B0F104000DD0A4F18050F5
:1024C000801E1CBF6FF08050C44205D040F27A22BB
:1024D0007DA18CA006F09AFB002D18BF012D05D020
:1024E00040F27B2278A18DA006F090FB924A14F076
:1024F000004F18BFD0691ED090491FFA84FC04EA2F
:102500000106C4F340510B01A1B29940B6F5401F3A
:1025100021D014F4801F24D014F4001F4FF00303C3
:10252000C4F3034603FA06F318BF1B04984314F0E0
:10253000E04F52D11EE114F0804F18BF106ADBD17A
:1025400014F0005F18BF506AD6D114F0805F14BF3A
:10255000906A5068D0E7536820F0706023F0706391
:10256000FAE014F0807F25D014F0040F1AD014F094
:10257000007F20EA01000ED035B1536843F001031B
:1025800043F070635360F8E0516821F0010141F0BD
:1025900070615160F2E0536823F0010343F070630F
:1025A0005360E9E04CF0040C0CFA03F39843002D5F
:1025B000EAD0E2E714F0806F11D014F0080F0FD0CA
:1025C00014F0007F20EA01000BD03DB1536843F0C6
:1025D000080343F070635360CFE0CDE0B0E0C5E0A6
:1025E000BCE0B4E00004008002001140060011408D
:1025F000200014403000144040001640C000164037
:10260000000218400003184000041A40000C1A4051
:1026100000101C4000301C400100304002003040DF
:1026200003003040040020410400204308002044FF
:102630000800204610003440200034403000344070
:102640004000364080003640C0003640000238402E
:102650000003384000043A40000C3A4000103C406F
:1026600000303C4001001020020010200300102028
:1026700004001220080012200C0012201000142068
:102680003000142040001620C00016200001182041
:10269000000218200003182000041A20000C1A2041
:1026A000010020200200202004002020080020201B
:1026B00010003420300034204000202080002020F2
:1026C00000012020000220202E2E5C6669726D77AA
:1026D0006172655C6E3332673435785F7374645F42
:1026E0007065726970685F6472697665725C737236
:1026F000635C6E3332673435785F6770696F2E6361
:102700000000000049535F4750494F5F52454D411B
:102710005028526D7050696E2900000049535F4681
:10272000554E4354494F4E414C5F535441544528F4
:10273000436D64290000000000000140000030707B
:10274000516821F0080141F07061516016E0536852
:1027500023F0080343F0706353600DE04CF0080C65
:102760000CFA03F39843002DEAD02FE7884314F0C6
:10277000E04F01D140F0706005B1084314F0004F04
:102780001CBFD06170BD14F0804F1CBF106270BDC3
:1027900014F0005F1CBF506270BD14F0805F14BF66
:1027A0009062506070BD00002DE9F04104460026A3
:1027B000A0F180400D46B0F584301CBFA4F18040EC
:1027C000B0F586301CD0A4F18040B0F588301CBF35
:1027D000A4F18040B0F58A3012D0A4F18040B0F569
:1027E0008C301FBFA4F18040B0F58E30A4F1804042
:1027F000B0F5903004D0BE223FA14EA006F006FAFC
:10280000E878002818BF042810D0282818BF4828C6
:102810000CD0142818BF102808D01C2818BF18285E
:1028200004D0BF2234A14AA006F0F0F9288820B9CC
:10283000C02231A151A006F0E9F9E87800F00F07B5
:1028400010F0100F0FD0A878002818BF022808D069
:10285000012818BF032804D0C72227A150A006F0E2
:10286000D5F9A878074328784FF00F0C10F0FF0F28
:102870004FF0010318BF216819D02A8803FA06F027
:10288000024082420FD1B2000CFA02F821EA08019C
:1028900007FA02F21143EA78282A08BF606102D0E1
:1028A000482A08BF2061761C082EE6D321602888BC
:1028B000FF2886BF62680020BDE8F08100F10801B2
:1028C0002E8803FA01F10E408E420FD186000CFAD9
:1028D00006F822EA080207FA06F63243EE78282EB6
:1028E00008BF6161EE78482E08BF2161401C0828AE
:1028F000E4D36260BDE8F0812E2E5C6669726D776C
:102900006172655C6E3332673435785F7374645F0F
:102910007065726970685F6472697665725C737203
:10292000635C6E3332673435785F6770696F2E632E
:102930000000000049535F4750494F5F414C4C5FD6
:10294000504552495048284750494F7829000000C7
:1029500049535F4750494F5F4D4F444528475049C1
:102960004F5F496E69745374727563742D3E47509E
:10297000494F5F4D6F6465290000000049535F4770
:1029800050494F5F50494E284750494F5F496E6943
:10299000745374727563742D3E50696E2900000083
:1029A00049535F4750494F5F53504545442847506E
:1029B000494F5F496E69745374727563742D3E4755
:1029C00050494F5F537065656429000070B5054636
:1029D0000026A0F180400C46B0F584301CBFA5F164
:1029E0008040B0F586301DD0A5F18040B0F588302C
:1029F0001CBFA5F18040B0F58A3013D0A5F180400E
:102A0000B0F58C301FBFA5F18040B0F58E30A5F138
:102A10008040B0F5903005D040F229121BA12AA0C9
:102A200006F0F4F8012C18BF022C28D0042C18BF93
:102A3000082C24D0102C18BF202C20D0402C18BFDC
:102A4000802C1CD0B4F5807F18BFB4F5007F16D061
:102A5000B4F5806F18BFB4F5006F10D0B4F5805F87
:102A600018BFB4F5005F0AD0B4F5804F18BF052C2D
:102A700005D04FF4957205A11AA006F0C7F8A86812
:102A8000204218BF0126304670BD00002E2E5C6625
:102A900069726D776172655C6E3332673435785F69
:102AA0007374645F7065726970685F64726976657B
:102AB000725C7372635C6E3332673435785F677053
:102AC000696F2E630000000049535F4750494F5F14
:102AD000414C4C5F504552495048284750494F7827
:102AE0002900000049535F4745545F4750494F5FF5
:102AF00050494E2850696E290000000070B5044608
:102B0000A0F180400D46B0F584301CBFA4F1804098
:102B1000B0F586301DD0A4F18040B0F588301CBFE0
:102B2000A4F18040B0F58A3013D0A4F18040B0F514
:102B30008C301FBFA4F18040B0F58E30A4F18040EE
:102B4000B0F5903005D04FF4C57206A114A006F080
:102B50005DF82DB940F28B1202A118A006F056F8CC
:102B6000656170BD2E2E5C6669726D776172655C01
:102B70006E3332673435785F7374645F7065726981
:102B800070685F6472697665725C7372635C6E33E1
:102B900032673435785F6770696F2E63000000001C
:102BA00049535F4750494F5F414C4C5F5045524934
:102BB0005048284750494F782900000049535F4743
:102BC00050494F5F50494E2850696E29000000005F
:102BD00070B50446A0F180400D46B0F584301CBFAE
:102BE000A4F18040B0F586301DD0A4F18040B0F54E
:102BF00088301CBFA4F18040B0F58A3013D0A4F116
:102C00008040B0F58C301FBFA4F18040B0F58E300D
:102C1000A4F18040B0F5903005D040F2731206A1C7
:102C200014A005F0F3FF2DB94FF4BA7202A118A059
:102C300005F0ECFF256170BD2E2E5C6669726D7724
:102C40006172655C6E3332673435785F7374645FCC
:102C50007065726970685F6472697665725C7372C0
:102C6000635C6E3332673435785F6770696F2E63EB
:102C70000000000049535F4750494F5F414C4C5F93
:102C8000504552495048284750494F782900000084
:102C900049535F4750494F5F50494E2850696E294C
:102CA0000000000010B582B06946002002F06CFE02
:102CB00001A9002002F002FEDFF898C09DF8000094
:102CC0008CF804009DF801008CF805009DF80200C6
:102CD0008CF806009DF805108CF802109DF806305F
:102CE0008CF803309DF80720012902F5FA60ACF852
:102CF000000018BF022904D101F10C00C1B202F298
:102D0000CF704A1C02EB420240F2676412FB04F2ED
:102D100003EB410100EB523211444AF2D73202FB7D
:102D2000002201EB9001A1EB92514FF4C872B0FB6D
:102D3000F2F00144084B08460022C3FB0120821038
:102D4000A2EBE070A0EBC0000844401C8CF8070028
:102D500002B010BD200000209324499201A005F08C
:102D6000CFFAFBE7766F696420486172644661754B
:102D70006C745F48616E646C657228766F69642953
:102D80000D0A000070B51D4DA8B0A878002804BF3A
:102D900028B070BD0026AE70194A1AA11AA805F015
:102DA000BFFA1C480090431D00F115021AA101A8AA
:102DB00005F0B6FA01A8FDF74BFA84B21AA8FDF7A0
:102DC00047FA82B201AB1AA90120009403F0AAF9D4
:102DD0002878401CC0B2287003283CBF28B070BDC2
:102DE0002E70BFF34F8F0F4801680F4A01F4E06166
:102DF00011430160BFF34F8F00BFFDE7C802002001
:102E0000040000206D6F646275735F696E666F2FDA
:102E100025730000E816002025735F25735F257376
:102E2000000000000CED00E00400FA050449012058
:102E30008870AFF2070203490A2005F03FBA00008C
:102E4000C8020020989F0400024A03490A2005F0A6
:102E500035BA00002D2E0008989F040010B5B4B0BC
:102E60000E4A0FA127A805F05BFA11480090431DF8
:102E700000F115020FA101A805F052FA01A8FDF713
:102E8000E7F984B227A8FDF7E3F982B201AB27A9DD
:102E90000120009403F046F934B010BD0400002076
:102EA0006D6F646275735F696E666F2F25730000C6
:102EB000E816002025735F25735F2573000000006E
:102EC0000848C178012918BF704710B50021C170AA
:102ED00001F038FE002808BF10BDBDE8104001F029
:102EE0004BBA0000C802002004490120C870AFF2AC
:102EF000070203490B2005F0E1B90000C8020020D9
:102F0000C0D40100024A03490B2005F0D7B90000E4
:102F1000E92E0008C0D4010030B40023002A88BF85
:102F2000DFF834C011D9C45C01EB43050CEB141479
:102F3000247801F81340C45C5B1C04F00F049BB2BE
:102F40001CF804406C709A42EDD84FF6FF7030BC0C
:102F500000EA4200704700005A9300082DE9F84348
:102F600080464FF48057ADF800700420394E8DF83C
:102F70000300002469463046FFF716FC00254FF495
:102F800000513046FFF7BAFD022005F0D5FE4FF4A0
:102F900000513046FFF71CFE6006040E4FF48051CE
:102FA0003046FFF713FD00281CBF601CC4B201208F
:102FB00005F0C2FE681CC5B2082DE0D310254FF005
:102FC0000109B8F1000F4FF40051304620D0FFF74F
:102FD00095FDADF800708DF803508DF802906946AC
:102FE0003046FFF7E1FB29023046FFF787FD02205C
:102FF00005F0A2FE69023046FFF7EAFD022005F067
:103000009BFE69023046FFF779FD2046BDE8F88354
:10301000FFF774FDADF800708DF803508DF8029045
:1030200069463046FFF7C0FB4FF480513046FFF74A
:10303000CFFD022005F080FE4FF400513046FFF72F
:10304000C7FD022005F078FE4FF400513046FFF72F
:1030500055FDDAE7000C0140F8B505464FF4805005
:10306000ADF8000010208DF803000120184E8DF8F7
:10307000020069463046FFF797FB71143046FFF7B0
:103080003DFD002415F0800F4FF48051304602D0F2
:10309000FFF79EFD01E0FFF731FD6806050E0220F7
:1030A00005F04AFE4FF400513046FFF791FD022033
:1030B00005F042FE4FF400513046FFF71FFD02209D
:1030C00005F03AFE601CC4B2082CDBD3F8BD00004A
:1030D000000C014038B54FF48050ADF800001020CE
:1030E0008DF8030001200F4C8DF802006946204640
:1030F000FFF75AFBA1142046FFF76AFD6114204632
:10310000FFF766FD022005F017FEA1142046FFF729
:10311000F5FC022005F010FE61142046BDE83840A1
:10312000FFF7ECBC000C014038B54FF48050ADF80F
:10313000000010208DF8030001200C4C8DF80200D7
:1031400069462046FFF730FBA1142046FFF7D6FC66
:1031500061142046FFF73CFD022005F0EDFDA114AF
:103160002046BDE83840FFF733BD0000000C0140A9
:10317000F8B54FF48056ADF800600420264D8DF868
:103180000300002469462846FFF70EFBA9142846D1
:10319000FFF71EFD012005F0CFFD69142846FFF75B
:1031A00017FD012005F0C8FDA9142846FFF70EFC05
:1031B00050B3601CC4B2FA2C1FD9ADF800601020C7
:1031C0008DF8030001208DF8020069462846FFF7BC
:1031D000EBFA4FF480512846FFF790FC4FF4005172
:1031E0002846FFF7F5FC022005F0A6FD4FF48051BC
:1031F0002846FFF7EDFC0120F8BD4FF4805128462A
:10320000FFF7E4FB0028D4D14FF400512846FFF724
:1032100075FC0020F8BD0000000C014010B4C2682D
:10322000D0F804C0531C93FBFCF40CFB1433D0F80F
:1032300008C0634504BF10BC704703689954C16857
:103240004268491C91FBF2F302FB1311C16010BCF0
:10325000704700002DE9F04F584D83B00026A87B41
:1032600010B1012812D0A2E06879401C687101F009
:10327000C5F90A2152A004F0D9FFC8216E70534A43
:103280000F2005F01BF80120A87390E001F0AAF9C7
:10329000002804BF03B0BDE8F08F4D4C206801F05A
:1032A00047FE01464B482268FEF77EFE4AA1494888
:1032B000FCF7B2FF002876D02C214648FCF7BEFF71
:1032C00000286CD0441C6E71801CFDF73DFC074645
:1032D0002046FDF739FC00EB800007EB4000C0B250
:1032E00010282CBF10380830C7B2201DE41CFDF791
:1032F0002BFC80462046FDF727FC00EB800008EB06
:10330000400000F0FF08201DE41CFDF71DFC814675
:103310002046FDF719FC00EB800009EB400000F0AF
:10332000FF092DA12B48FCF777FF00F108040930B5
:10333000FDF70AFC82462046FDF706FC00EB800004
:103340000AEB400000F5FA600290201DE41CFDF736
:10335000FBFB82462046FDF7F7FB00EB80000AEB03
:10336000400000F0FF0A04F1030B201DFDF7ECFB09
:1033700004465846FDF7E8FB00EB800004EB4000F4
:10338000C2B23B465146CDE90089029802F0F0FEF8
:10339000AE73012003B0BDE8F08F04E0FFE7687969
:1033A0000A2803D105E068790A2802D0AE7300200C
:1033B000F0E76E71AE730220ECE7000040000020E1
:1033C00041542B43434C4B3F0D0A00001D4600085F
:1033D0003C0000200C1100202B43434C4B3A0000D2
:1033E0002DE9F047C54F0024DFF81493387CADF584
:1033F000C46D25464FF001082646092880F07B81E0
:10340000DFE800F005131F31A8B3C9F6F500F8781E
:10341000012807BFFE70042087F810800DF5C46DE9
:1034200018BFBDE8F08700F0B1B8F8796421401CFE
:10343000F8717E70B34A0F2004F040FF022000F0C4
:10344000A5B801F0CFF800287CD001F0D7F8112101
:10345000ADA004F0EBFE64217E70AA4A0F2004F0B8
:103460002DFF032092E001F0BDF800286AD0D9F8C2
:10347000000001F05DFD0146A848D9F80020FEF7E4
:1034800093FDA7A1A548FCF7C7FE00284BD0FE710D
:10349000A6A1A248FCF7C0FE1030044601782C29F2
:1034A00003D010F8011F2C29FBD1001BA0F101084B
:1034B000C8216846FCF7A5FE424621466846FCF74F
:1034C00087FE04EB08009DA1FCF7A6FE002800F093
:1034D0001281841C81780DF5C1602C2906D04155DC
:1034E000691C8DB214F8011F2C29F8D14655FCF740
:1034F000B6FE0546C8216846FCF783FE2A46611CD5
:103500006846FCF765FE0E2D07D018D9A9B24FF01A
:103510000102684600F0F8FF11E00E210022684623
:1035200000F0F2FF0BE086A17C48FCF775FE002856
:1035300018BFFE7140F0DF80F879032803D03E7495
:1035400000F0D9B823E0FE7187F80080BE703E74A9
:1035500000F0D1B8B8796421401CB8717E70694A16
:103560000F2004F0ABFE052010E001F03BF800282E
:103570000DD001F043F8082175A004F057FE642136
:103580007E70604A0F2004F099FE062038740DF515
:10359000C46DBDE8F08701F025F8002804BF0DF5E3
:1035A000C46DBDE8F087D9F8000001F0C1FC014608
:1035B0005A48D9F80020FEF7F7FC68A15748FCF7F5
:1035C0002BFE38B310F8061F2C2904D010F8011F69
:1035D000641C2C29FAD1DFF88C817125A0EB040A38
:1035E00008F52379012C04D0022C14D02DE065E0DD
:1035F0002EE05046FDF7A8FAA5EB4000C2B25AA152
:103600000DF2DC5004F08CFE9DF8DC0588F88C028D
:1036100089F8016019E00AF10100FDF795FA044606
:103620005046FDF791FA00EB800004EB4000A5EB5B
:103630004000C2B24CA10DF2DC5004F071FEBDF8A6
:10364000DC05A8F88C0289F80260072038749EE730
:1036500000F0D4FF0E2145A004F0E8FD798A474828
:1036600004F0E4FD022135A004F0E0FD062144A0B1
:1036700004F0DCFDBA8A3CA10DF5BC6004F050FEFC
:103680000DF5BC60FCF7E4FD81B20DF5BC6004F003
:10369000CDFD022138A004F0C9FDB98A3A4804F0F2
:1036A000C5FD032139A004F0C1FDFE70C8217E7064
:1036B000144A0F2004F002FE082067E700F092FF92
:1036C00000283FF464AFD9F8000001F031FC014656
:1036D0001248D9F80020FEF767FC2DA10F48FCF72F
:1036E0009BFD00280ABFB879BE71032803D1BE71C3
:1036F00087F80080BE703E7449E70000400000205B
:103700003C0000201D46000841542B4D515454529A
:103710004541443D302C310D0A0000000C110020C1
:103720002B4D515454524541443A00002B4D5154B5
:1037300054524541443A20302C302C00222C0000B9
:103740002B434D45204552524F523A2036303100DE
:1037500041542B4353510D0A000000002B43535199
:103760003A2000005C1400202564000041542B4DD9
:103770005154545055423D302C2200005C0C002026
:10378000302C302C302C0000240D0020220D0A009B
:103790004F4B00002DE9F041214C224F0025207AAB
:1037A00020B101281FD0022831D02DE01E4EA57077
:1037B000306801F0BDFB01461C483268FEF7F4FB9F
:1037C00000F01CFF4FF400413846FFF701FA4FF4B8
:1037D000FA716570164A0F2004F070FD0120207206
:1037E0000020BDE8F08100F0FDFE68B14FF400411B
:1037F0003846FFF783F941F2883165700C4A0F2093
:1038000004F05CFD022020720020BDE8F08100F091
:10381000E9FE00281CBF25720120BDE8F0810000F0
:1038200040000020000801403C0000200C11002056
:103830001D46000838B54FF40040ADF800001020D8
:103840008DF803000120064C8DF8020069462046E1
:10385000FEF7AAFF4FF400412046FFF7B9F938BD43
:10386000000801404B4810B5407C0B2828BF10BD14
:10387000DFE800F0061B29374957650D6F0D8400FE
:10388000FFF788FF20B1012807D0022809D010BD1A
:10389000BDE81040002005F009BD3E4901204874F4
:1038A00010BD3C490020487410BD01F0F1F900281A
:1038B00008BF10BD012802D00228F2D010BD354843
:1038C0000221417410BD01F093F9002808BF10BD1A
:1038D000012802D00228E4D010BD2E4903204874EC
:1038E00010BD01F035F9002808BF10BD012806D031
:1038F000022818BF10BD00212648417410BD25497B
:103900000420487410BDFFF7A5FC002808BF10BDB7
:10391000012802D00228C4D010BD1E4908204874D6
:1039200010BD02F0A9FB002808BF10BD012802D07D
:103930000228B6D010BD17490620487410BDFDF707
:10394000B5F8002808BF10BD0128E6D00228A8D08D
:1039500010BD00F0F9F8002808BF10BD012802D002
:1039600002289ED010BD0B480A21417401218170AC
:10397000FFF774FABDE81040FFF770BA0548017808
:10398000012902D1002101704174BDE81040FFF708
:1039900027BD000040000020010004484FF0100146
:1039A00001D0FFF7ABB8FFF713B9000000100140DA
:1039B000010004484FF0800101D0FFF79FB8FFF7E6
:1039C00007B9000000080140144A10B51078144CE3
:1039D00001280CD1002010709178491CC9B2917057
:1039E00001290FD0907020212046FFF787F805F0BD
:1039F000C1F900284FF0800120460AD0BDE81040F0
:103A0000FFF77CB8FFF74EF920212046FFF7E0F8DA
:103A1000EDE7BDE81040FFF7DBB80000160000201E
:103A200000080140010004484FF0010101D0FFF7F8
:103A300065B8FFF7CDB80000000C01400449012033
:103A40000870AFF207024FF47A7104F037BC00003F
:103A50001600002010B501210348FEF7B7FF00282B
:103A60000CBF0120002010BD000801402DE9F041ED
:103A70000B2000F01BFD0746092000F01DFD064647
:103A8000012000F003FD2E4C002520B9A5710D206A
:103A900004F00AFC6570A179A9B1012928D0022996
:103AA00018BFBDE8F08147F004010B2000F020FDB5
:103AB0000121002000F006FD16F0020F3CD0FFF7B8
:103AC000C9FF48B338E0042000F0F0FC05460420AC
:103AD00000F0F2FC854288BFBDE8F0810120A071B2
:103AE000BDE8F041174A40F6B8310D2004F0E6BBBE
:103AF0006078012818BFBDE8F0816570042000F0EF
:103B0000D5FC0646042000F0D7FC86429EBF02206A
:103B1000A071BDE8F0810FE0002002F0F9F900216A
:103B2000012000F0CFFC02210A2000F0E1FC00207F
:103B3000FDF7C2FB00F020FCA571BDE8F08100009C
:103B4000CC020020F191000810B5A9488CB0C07BD0
:103B50000A2833D2DFE800F00519354761A0BDDF40
:103B6000FDFC00F04BFD1921A2A004F05FFBA04C6E
:103B700000204FF496716070A54A0F2004F09EFB60
:103B80000120E0730CB0002010BD00F02BFD0028D8
:103B900004BF0CB010BD9F4C206801F0C9F901466C
:103BA0009D482268FEF700FA9CA19B48FCF734FB75
:103BB000002800F016818E490220C8730CB0002046
:103BC00010BD00F01BFD1E2195A004F02FFB884CBA
:103BD00000204FF4967160708D4A0F2004F06EFB48
:103BE000032000F096B800F0FDFC002804BF0CB0E4
:103BF00010BD884C206801F09BF901468648226878
:103C0000FEF7D2F985A18448FCF706FB002800F0F6
:103C1000E88077490420C873D0E700F0EFFC0F215B
:103C200087A004F003FBC621B820CDE90001EA23F8
:103C3000312287A102A804F073FB02A8FCF708FB5D
:103C400081B202A804F0F2FA42F6483284A102A836
:103C500004F066FB02A8FCF7FBFA81B202A804F0AC
:103C6000E5FA02217FA004F0E1FA10217E4804F079
:103C7000DDFA02217DA004F0D9FA13217CA004F022
:103C8000D5FA5B4C002041F288316070604A0F2009
:103C900004F014FB05203CE000F0A4FC002804BF65
:103CA0000CB010BD5B4C206801F042F901465A4847
:103CB0002268FEF779F973A15748FCF7ADFA18B1FD
:103CC0004B490620C87379E70F2174A004F0AEFABF
:103CD00087E000F093FC1D2174A004F0A7FA624A6B
:103CE0007AA102A804F01CFB02A8FCF7B1FA81B289
:103CF00002A804F09BFA052175A004F097FA3C4C49
:103D0000002041F288316070414A0F2004F0D6FA59
:103D10000720E07352E700F065FC002804BF0CB0F8
:103D200010BD3C4C206801F003F901463A48226876
:103D3000FEF73AF939A13848FCF76EFA044666A155
:103D40003548FCF769FA002C18BF002849D001E07B
:103D500025E003E026490820C8732FE700F04EFC59
:103D60001A2160A004F062FA3F4A58A102A804F0A8
:103D7000D7FA02A8FCF76CFA81B202A804F056FA4E
:103D8000052153A004F052FA194C002041F2883169
:103D900060701F4A0F2004F091FA0920B9E700F083
:103DA00021FC002804BF0CB010BD1A4C206801F0A3
:103DB000BFF8014618482268FEF7F6F817A1164822
:103DC000FCF72AFA044644A11348FCF725FA002C14
:103DD00018BF002805D006490020C8730CB0012088
:103DE00010BD03490020C8730CB0022010BD0000B4
:103DF0004000002041542B4D5154544346473D222E
:103E0000636163686564222C302C310D0A00000068
:103E10001D4600083C0000200C1100204F4B000004
:103E200041542B4D5154544346473D226B656570B8
:103E3000616C697665222C302C3132300D0A00001D
:103E400041542B4D515454434F4E4E3D302C220083
:103E500025642E25642E25642E2564222C00000066
:103E6000256400002C22000004000020222C000009
:103E70002275736572222C22302E3132333435365E
:103E8000220D0A002B4D5154545552433A202263BF
:103E90006F6E6E222C302C300000000041542B4DF0
:103EA000515454444953433D300D0A0041542B4D65
:103EB0005154545355423D302C226D6F64627573DA
:103EC0005F636F6E74726F6C2F00000025730000CB
:103ED000222C300D0A0000002B4D515454535542F2
:103EE0003A20300041542B4D5154545355423D30EB
:103EF0002C226D6F646275735F74696D652F0000AD
:103F0000FEE700002DE9F047FF4E0024DFF8FC83B8
:103F1000B0889AB027460228C0F01F82811E404612
:103F200004F0E2FEB0883278404410F8011C91425F
:103F300040F0138210F8020C7178884240F00D8234
:103F400098F8032098F8023006F1060A02EB0322E3
:103F500095B298F80010BAF8002098F801008A424B
:103F600040F0FB8108F5FA79052854D00BDC6F4648
:103F7000012810D00522032800F07F81042800F0DA
:103F8000B08100F0EAB9062800F00A81102800F09C
:103F9000308100F0E2B9042D00F2DF8198F80520AD
:103FA00098F8043002EB032292B25319052B00F269
:103FB000D4818DF800108DF80100D11D01200F294A
:103FC00005D312F0070F14BF00EBD200D0088DF814
:103FD000020010F0FF0F1CBF7088E8400AD0E1001B
:103FE00020FA01F13A19D170611CCCB29DF802108F
:103FF000A142F4D89DF80200401DC4B2A11E38466B
:1040000004F072FE3819717800F8021C317800F85B
:10401000011C00F063B998F8052098F80430072DCA
:1040200002EB032294B200F298818DF800108DF813
:104030000100280A8DF80200200A8DF804008DF88E
:1040400003508DF805400621684604F04DFE707857
:104050008DF8060030788DF80700082D28D2DFE8AB
:1040600005F0041751276D27737EB4F57F4F40F09C
:10407000358105F027F9BFF34F8FA5480168A54AA0
:1040800001F4E06111430160BFF34F8F00BFFDE712
:10409000022000F0FBF9002840F02081032000F00E
:1040A000F5F9012840F01A81B4F57F4F05D0BCB175
:1040B000002F40F0528100F011B9002000F0E6F925
:1040C000002840F00B810121084600F0FBF9012196
:1040D0000846FDF7CBFD012001F01AFF01200EE09C
:1040E0000021012000F0EEF900210120FDF7BEFDC6
:1040F0000A20A9F81400002001F00AFF0020FDF7B3
:10410000DBF8EBE0B4F57F4F01D04CB110E00121BA
:10411000022000F0D7F901210220FDF7A7FD07E0FA
:104120000021022000F0CEF900210220FDF79EFDC3
:10413000022000F0ABF9FDF743F8CFE0B4F57F4F74
:1041400008BFFDF711FFC9E0B4F57F4F7DD1002115
:10415000084600F0B7F90020A9F81600BEE0B4F553
:104160007F4F01D074B1B9E00121042000F0AAF919
:1041700001210420FDF77AFD042000F087F9FCF707
:10418000E3FFABE00021042000F09CF900210420B3
:10419000FDF76CFD042000F079F9FCF7D5FF9DE0F8
:1041A00098F8052098F80430212D02EB032294B2F0
:1041B00062D88DF800108DF80100280A8DF80200F1
:1041C000200A8DF80400EFB28DF803708DF80540D9
:1041D0000621684604F088FD70788DF80600307876
:1041E0008DF8070000F0C8F82AF81540012138467C
:1041F00040E098F8052098F80430212D02EB0322C6
:1042000092B29CBFAB18222B36D8002A0ED908EBED
:10421000440393F808C0DB790CEB032304EB050C93
:104220002AF81C30631CDCB2A242F0D88DF80010D2
:104230008DF80100280A8DF80200ECB2100A8DF802
:1042400003408DF80400D5B200E047E08DF805503A
:1042500098F806008DF806000721684604F044FD32
:1042600070788DF8070030788DF8080000F084F839
:1042700029462046FDF7FDFC6FE098F8053098F8D8
:1042800004C0212D03EB0C239BB29CBF03EB050C58
:10429000BCF1220F61D88DF800108DF80100580094
:1042A0008DF80200281907EB44013AF810004FEA94
:1042B000102C81F803C00871601CC4B29C42F1D973
:1042C00002EB4300C4B2A11E384604F00DFD3819BC
:1042D000717800F8021C317800F8011C00F04CF8ED
:1042E0003BE098F8053098F804C00D2D03EB0C2343
:1042F0009BB29CBF05EB030CBCF10E0F2DD88DF8C3
:1043000000108DF8010007E05C000020121700206B
:104310000CED00E00400FA0558008DF802002819A1
:1043200007EB440139F810004FEA102C81F803C064
:104330000871601CC4B29C42F1D902EB4300C4B2C4
:10434000A11E384604F0D0FC3819717800F8021C20
:10435000317800F8011C00F00FF80020B288014607
:10436000002A05D908F80010401C80B28242F9D812
:10437000B1801AB0BDE8F08770B53C4EADF5C36DA5
:10438000B51F30788DF8F00301208DF8F1038DF81A
:10439000F203A8788DF8F3030421FCA804F0A4FC30
:1043A00068788DF8F40328788DF8F50330788DF867
:1043B000F60303208DF8F70344208DF8F80300205E
:1043C000FCAC36F8101004EB40020B0A401C537290
:1043D000C0B291722228F4D94721A01D04F084FCB8
:1043E00068788DF83D0428788DF83E0430788DF893
:1043F0003F0404208DF840041C208DF841041C4B20
:10440000002004EB400233F81010401C4FEA112C3E
:1044100082F852C0C0B282F853100E28F1D91F2181
:1044200004F1510004F060FC68788DF85E0428788F
:104430008DF85F0470240F4A0FA10DF2E45003F0D1
:104440006FFF224602A9FCA8FEF766FD04460DF2A6
:10445000E450FBF7FDFE82B202AB0DF2E451012005
:10446000009401F05FFE0DF5C36D70BD6200002089
:1044700006190020040000206D6F646275735F737D
:1044800074617475732F2573000000000F2884BFBA
:1044900000207047012101FA00F0034949880840D3
:1044A00018BF0120704700005C000020014931F86E
:1044B0001000704706190020014931F810007047BC
:1044C000620000200F2888BF7047012202FA00F026
:1044D0000129064A04BF5188084305D0002906BFB8
:1044E000518821EA00007047508070475C0000202E
:1044F000014A22F81010704706190020014A22F8DC
:1045000010107047620000202DE9F0470446002596
:10451000314E9CB00F460120AAB1012A1CBF1CB02D
:10452000BDE8F08770700120FCF789FE35703A46CF
:1045300021462A48FCF718FB29490880FFF7E2FCCE
:104540001CB0BDE8F08770700120FCF778FE357074
:10455000206802908DF80C5002A8FBF780FE1FFA2D
:1045600080FAA088ADF808008DF80A5002A8FBF781
:1045700076FE00F0FF09E088ADF808008DF80A50DB
:1045800002A8FBF76CFE00F0FF082089ADF80800D8
:104590008DF80A5002A8FBF762FEC7B26089ADF839
:1045A00008008DF80A5002A8FBF759FEC6B2A08990
:1045B000ADF808008DF80A5002A8FBF750FEC0B213
:1045C000CDE900603B4642464946504601F0D0FDE9
:1045D0001CB0BDE8F0870000C802002012170020C0
:1045E0006000002004494878002808BF7047012077
:1045F00000224A7070470000400000200020054A59
:1046000001461154401C80B2B0F57A7FF9D30248BC
:10461000C18270470C110020400000200149012098
:104620004870704740000020704738B535208DF83D
:10463000000000248DF801408DF8024001258DF81E
:104640000350684600F032F826208DF800008DF8FF
:1046500001408DF802408DF80350684600F026F8BE
:1046600027208DF800008DF801408DF802408DF86C
:104670000350684600F01AF834208DF8000002203C
:104680008DF801008DF802408DF80350684600F067
:104690000DF808208DF800008DF801408DF80250CB
:1046A0008DF80350684600F001F838BD70B5044637
:1046B000C0780F25002818BF012804D07D2223A12F
:1046C0002FA004F0A3FA6078102804D37E221FA143
:1046D0003A4804F09BFAA078102804D37F221BA14B
:1046E000374804F093FAE078012210B335480068A7
:1046F000637800F4E060C0F5E060000AC0F10401F6
:1047000003FA01F1A37825FA00F018400843217854
:10471000000101F1E02181F80004207800F01F0180
:1047200002FA01F14009800000F1E020C0F8001118
:1047300070BD207800F01F0102FA01F140098000ED
:1047400000F1E020C0F8801170BD00002E2E5C66E4
:1047500069726D776172655C6E3332673435785F8C
:104760007374645F7065726970685F64726976659E
:10477000725C7372635C6D6973632E63000000008A
:1047800049535F46554E4354494F4E414C5F535435
:10479000415445284E5649435F496E6974537472BB
:1047A0007563742D3E4E5649435F495251436861CB
:1047B0006E6E656C436D642900000000C8BB000884
:1047C00084BB00080CED00E010B50446B0F5E06FC6
:1047D00018BFB4F5C06F0CD0B4F5A06F1CBFB4F512
:1047E000806FB4F5407F04D06C2205A111A004F0C5
:1047F0000DFA1B4944F0FD7040F08060086010BD68
:104800002E2E5C6669726D776172655C6E333267FD
:104810003435785F7374645F7065726970685F6463
:1048200072697665725C7372635C6D6973632E6323
:104830000000000049535F4E5649435F5052494FB4
:10484000524954595F47524F5550284E5649435F7D
:104850005072696F7269747947726F7570290000C0
:104860000CED00E02DE9F0410B20FFF71FFE07469D
:104870000920FFF721FE304C0646E17939B30025C7
:1048800001293ED0022946D0032918BFBDE8F08196
:1048900047F008010B20FFF72BFE01210020FFF756
:1048A00011FE16F0040F0FD0002001F031FB0021A3
:1048B0000120FFF707FE03210A20FFF719FE002061
:1048C000FCF7FAFCFFF758FDE571BDE8F081052023
:1048D000FFF7ECFD00EB800045000520FFF7ECFD45
:1048E00000EB8000B5EB400F38BFBDE8F081012040
:1048F000E071BDE8F041114A4FF4FA610E2003F077
:10490000DDBCA078012806BFA5700220BDE8F081BB
:10491000E071BDE8F0810520FFF7C8FD00EB8000E5
:1049200046000520FFF7C8FD00EB8000B6EB400F06
:1049300028BF0320ECD2C7E7CC020020B9920008C0
:104940002DE9F0410B20FFF7B1FD07460920FFF7E5
:10495000B3FD2B4C0646217A39B30025012939D005
:1049600002293ED0032918BFBDE8F08147F040017D
:104970000B20FFF7BDFD01210020FFF7A3FD16F07E
:10498000100F0FD0002001F0C3FA00210120FFF723
:1049900099FD06210A20FFF7ABFD0020FCF78CFCF7
:1049A000FFF7EAFC2572BDE8F0810720FFF77EFDE6
:1049B00005460820FFF780FD854238BFBDE8F0813D
:1049C00001202072BDE8F0410E4A4FF4FA61102038
:1049D00003F074BC2079012804BF25712572BDE85D
:1049E000F0810720FFF762FD06460820FFF764FD0F
:1049F000864224BF03202072D4D3BDE8F08100009A
:104A0000CC020020A19200082DE9F0410B20FFF715
:104A10004DFD06460920FFF74FFD2B4C05466179F9
:104A200039B30027012939D0022941D0032918BF01
:104A3000BDE8F08146F002010B20FFF759FD01218E
:104A40000020FFF73FFD15F0010F0FD0002001F00F
:104A50005FFA00210120FFF735FD01210A20FFF751
:104A600047FD0020FCF728FCFFF786FC6771BDE8D6
:104A7000F0810420FFF71AFD05460320FFF71CFD17
:104A8000854238BFBDE8F08101206071BDE8F0418A
:104A90000E4A4FF4FA610C2003F010BC2078012874
:104AA00006BF27700220BDE8F0816071BDE8F0818B
:104AB0000420FFF7FBFC05460320FFF7FDFC8542C1
:104AC00028BF0320F1D2D1E7CC0200209592000844
:104AD00010B5040018BF012C04D0862203A111A038
:104AE00004F094F81648046210BD00002E2E5C6697
:104AF00069726D776172655C6E3332673435785FE9
:104B00007374645F7065726970685F6472697665FA
:104B1000725C7372635C6E3332673435785F7077C2
:104B2000722E630049535F46554E4354494F4E41E0
:104B30004C5F535441544528436D642900000000E4
:104B400000000E42014880787047000040000020BD
:104B500070B51D4C0025E07A10B1012813D010E08B
:104B60002079401C2071FFF749FD0B2117A003F0AD
:104B70005DFB64216570184A0F2003F09FFB012044
:104B8000E072002070BDFFF72DFD002808BF70BD4A
:104B9000124E306800F0CCF9014611483268FDF73A
:104BA00003FA10A10E48FBF737FB18B1E572257127
:104BB000012070BD20795A2898BFE572E1D925718E
:104BC000E572022070BD00004000002041542B43DC
:104BD000474154543F0D0A001D4600083C00002088
:104BE0000C1100202B43474154543A20310000005F
:104BF00070B51D4C0025A07A10B1012813D010E02B
:104C00002079401C2071FFF7F9FC0B2117A003F05D
:104C10000DFB64216570184A0F2003F04FFB012043
:104C2000A072002070BDFFF7DDFC002808BF70BD3A
:104C3000124E306800F07CF9014611483268FDF7E9
:104C4000B3F910A10E48FBF7E7FA18B1A572257168
:104C5000012070BD20795A2898BFA572E1D925712D
:104C6000A572022070BD00004000002041542B437B
:104C7000455245473F0D0A001D4600083C000020F4
:104C80000C1100202B43455245473A20302C31006F
:104C9000814810B5407A0A283AD2DFE800F00521B1
:104CA0003B4850617989B9CA7C4C206800F040F9D2
:104CB00001467B482268FDF777F9FFF79FFC042146
:104CC00078A003F0B3FA744C00204FF4FA616070DE
:104CD000764A0F2003F0F2FA01206072002010BD26
:104CE000FFF780FC002808BF10BD6C4C206800F066
:104CF0001FF901466A482268FDF756F96CA1684819
:104D0000FBF78AFA002800F0C2806349022048724B
:104D1000002010BD604C00204FF4FA616070634ABF
:104D20000F2003F0CBFA03206072002010BDFFF7C4
:104D300059FC0028ECD0584904204872E8E7FFF7F6
:104D40005DFC0A215BA003F071FA534C0020642142
:104D50006070564A0F2003F0B1FA05206072D7E761
:104D6000FFF740FC002808BF10BD4C4C206800F045
:104D7000DFF801464A482268FDF716F950A1484875
:104D8000FBF74AFA00287DD0434906204872BFE766
:104D9000FFF734FC0B214EA003F048FA3E4C0020F4
:104DA00064216070414A0F2003F088FA07203EE03A
:104DB000FFF718FC002808BF10BD384C206800F031
:104DC000B7F8014636482268FDF7EEF843A13448AB
:104DD000FBF722FA00285AD04249D0F80720C1F840
:104DE0009122D0F80B20C1F89522D0F80F20C1F8FD
:104DF0009922B0F81320A1F89D22407D81F89F02EE
:104E000001F52371002008752349082048727FE7C7
:104E1000FFF7F4FB0A2134A003F008FA1E4C00202F
:104E200064216070214A0F2003F048FA0920607263
:104E30006EE7FFF7D7FB002808BF10BD174C2068AE
:104E400000F076F8014616482268FDF7ADF829A172
:104E50001348FBF7E1F9A8B122498268C1F8A12201
:104E6000C268C1F8A5220269C1F8A9224269C1F845
:104E7000AD228069C1F8B10201F52371002081F8EB
:104E8000290000E003E004494872012010BD0249F6
:104E900000204872022010BD400000203C0000208D
:104EA0000C11002041540D0A000000001D460008AE
:104EB0004F4B000041542B4350494E3F0D0A000018
:104EC0002B4350494E3A20524541445900000000BE
:104ED00041542B4347534E3D310D0A002B4347535A
:104EE0004E3A20005C14002041542B49434349446E
:104EF0000D0A00002B49434349443A2000000000BA
:104F000070B5102004F090F904004FF0000508BFC0
:104F10002C4607D040F2DD50606004F085F9E56072
:104F2000A56020600148046070BD00003C000020C6
:104F30000146D1E90220801A44BF496808447047FD
:104F400010B504001CBF012C042C05D040F2033224
:104F50000AA118A003F05AFE1B48002180F8201077
:104F600080F82010012C08BF012103D0042C0CBFB5
:104F7000052110BD80F8201010BD00002E2E5C66AB
:104F800069726D776172655C6E3332673435785F54
:104F90007374645F7065726970685F647269766566
:104FA000725C7372635C6E3332673435785F726340
:104FB000632E630049535F5243435F4C534528526D
:104FC00043435F4C534529000010024010B50400D4
:104FD00018BFB4F5806F0DD0B4F5A06F1CBFB4F549
:104FE000C06FB4F5E06F05D040F2C31205A113A065
:104FF00003F00CFE1849486820F4E0602043486044
:1050000010BD00002E2E5C6669726D776172655C62
:105010006E3332673435785F7374645F70657269BC
:1050200070685F6472697665725C7372635C6E331C
:1050300032673435785F7263632E630049535F5281
:1050400043435F48434C4B5F444956285243435FB8
:1050500048434C4B290000000010024010B50446A4
:10506000B0F5807F1CBFB4F5007FB4F5407F05D05C
:1050700040F2333206A114A003F0C8FD1B48016AB8
:1050800021F440710162016A2143016210BD0000F8
:105090002E2E5C6669726D776172655C6E33326765
:1050A0003435785F7374645F7065726970685F64CB
:1050B00072697665725C7372635C6E333267343525
:1050C000785F7263632E630049535F5243435F52BC
:1050D0005443434C4B5F535243285243435F525413
:1050E00043434C4B536F75726365290000100240B7
:1050F00070B504460E480D46044200D12CB940F26A
:10510000FE320CA119A003F081FD214E002D04BF39
:10511000F069A04309D0012D05D040F2FF3205A16E
:105120001CA003F073FDF0692043F06170BD000026
:10513000003301412E2E5C6669726D776172655C89
:105140006E3332673435785F7374645F706572698B
:1051500070685F6472697665725C7372635C6E33EB
:1051600032673435785F7263632E630049535F5250
:1051700043435F415042315F5045524950482852A5
:1051800043435F41504231506572697068290000A5
:105190000010024049535F46554E4354494F4E411B
:1051A0004C5F535441544528436D6429000000006E
:1051B00070B504460E480D46044200D12CB940F2A9
:1051C000DF320CA119A003F021FD214E002D04BFF8
:1051D000B069A04309D0012D05D04FF4787205A124
:1051E0001CA003F013FDB0692043B06170BD000046
:1051F0000286E0FF2E2E5C6669726D776172655CD7
:105200006E3332673435785F7374645F70657269CA
:1052100070685F6472697665725C7372635C6E332A
:1052200032673435785F7263632E630049535F528F
:1052300043435F415042325F5045524950482852E3
:1052400043435F41504232506572697068290000E3
:105250000010024049535F46554E4354494F4E415A
:105260004C5F535441544528436D642900000000AD
:1052700010B5040018BF012C05D04FF4517203A1E2
:1052800010A003F0C3FC1648046010BD2E2E5C660F
:1052900069726D776172655C6E3332673435785F41
:1052A0007374645F7065726970685F647269766553
:1052B000725C7372635C6E3332673435785F72632D
:1052C000632E630049535F46554E4354494F4E4148
:1052D0004C5F535441544528436D6429000000003D
:1052E0003C044242324B30B45968324A11405A6849
:1052F00011F0006F02F480320CBF4FF0020C6FF41B
:10530000F77C0CEB9141002A04BF2B4A514306D095
:105310005A6812F4003F14BF274A284A51435A687A
:10532000DFF898C012F00C0218BF042A03D0082A34
:1053300008BF016001D0C0F800C05A684FF00F0CE0
:105340001F4D0CEA1212D0F800C0AA5C2CFA02F22F
:105350004260D3F804C0072404EA1C2C15F80CC0E2
:1053600022FA0CFCC0F808C0D3F804C004EADC2C14
:1053700015F80CC022FA0CFCC0F80CC0D3F82CC0F5
:1053800005F110040CF00F0C14F80CC0B2FBFCF289
:105390004261DA6A1F2303EA121202F00F0204F1DB
:1053A000100333F81220B1FBF2F1016130BC7047F9
:1053B0000010024000003C0800093D0000127A0085
:1053C0001A93000870B500250446212818BF312C17
:1053D00021D0392C18BF412C1DD0612C18BF732C43
:1053E00019D0742C18BF752C15D0772C18BF792CB8
:1053F00011D07A2C18BF7B2C0DD07C2C18BF7D2CA3
:1054000009D07E2C18BF7F2C05D040F2E3420CA1BE
:1054100019A003F0FBFB60091D49012808BF0868BB
:1054200003D002280CBF086A486A04F01F01012259
:1054300002FA01F1014218BF0125284670BD0000A3
:105440002E2E5C6669726D776172655C6E333267B1
:105450003435785F7374645F7065726970685F6417
:1054600072697665725C7372635C6E333267343571
:10547000785F7263632E630049535F5243435F4614
:105480004C4147285243435F464C414729000000A6
:105490000010024038B503F0EBFC4FF40060ADF8AB
:1054A000000010208DF803000120064C8DF802004A
:1054B00069462046FDF778F9E1142046FDF71EFB0A
:1054C00038BD00000008014002F06CBE00210A282F
:1054D00005D3491C0A38C0B2C9B20A28F9D2090753
:1054E00040EA11607047000070B50026674D0C4619
:1054F00000282AD0012805D04FF4E37264A172A0DD
:1055000003F084FB286810F0400F00F07F802078C3
:10551000010901EB810100F00F0000EB4100C0B276
:10552000401E0B2805D94FF4EE7259A16DA003F06F
:105530006DFBE078002818BF402800F0798040F229
:10554000DD1253A16EA000F071B8286810F0400F72
:1055500013D02078401E0B2805D94FF4E6724CA1D9
:105560006FA003F053FBE078002818BF40280ED04E
:1055700040F2CD1246A162A007E0E670207817281D
:1055800005D94FF4E97242A16FA003F03FFB6078A8
:105590003B2805D94FF4EA723DA175A003F036FB14
:1055A000A0783B2805D940F2D51239A17AA003F0A2
:1055B0002DFB2078FFF78AFF06046078FFF786FF4F
:1055C00046EA0026A078FFF781FFE178304340EA01
:1055D00001437B4CCA2020605320206000F04CF92E
:1055E00070B178487849184008607848016821F01F
:1055F00080010160286810F0200F08BF00F056FC01
:10560000FF202060BDE8704000F050BCE6702078BC
:10561000010901EB810100F00F0000EB4100C0B275
:10562000172805D94FF4F17219A169A003F0EEFA19
:105630006078010901EB810100F00F0000EB4100EF
:10564000C0B23B2805D94FF4F27211A16EA003F04D
:10565000DDFAA078010901EB810100F00F0000EBF9
:105660004100C0B23B2805D940F2E51208A174A060
:1056700003F0CCFAA0782178E27840EA0140617822
:10568000090241EA024140EA0103A2E7082800407A
:105690002E2E5C6669726D776172655C6E3332675F
:1056A0003435785F7374645F7065726970685F64C5
:1056B00072697665725C7372635C6E33326734351F
:1056C000785F7274632E630049535F5254435F46A0
:1056D0004F524D4154285254435F466F726D61746E
:1056E0002900000049535F5254435F3132484F55FF
:1056F0005228746D70726567697374657229000051
:1057000049535F5254435F483132285254435F54E7
:10571000696D655374727563742D3E48313229008A
:1057200049535F5254435F3132484F5552285254C7
:10573000435F54696D655374727563742D3E486F91
:10574000757273290000000049535F5254435F3261
:1057500034484F5552285254435F54696D65537411
:10576000727563742D3E486F7572732900000000D6
:1057700049535F5254435F4D494E55544553285247
:1057800054435F54696D655374727563742D3E4D57
:10579000696E75746573290049535F5254435F53B2
:1057A00045434F4E4453285254435F54696D6553EB
:1057B00074727563742D3E5365636F6E6473290054
:1057C000242800407F7F7F00002800400C280040F4
:1057D00049535F5254435F3234484F555228525414
:1057E000435F42636432546F427974652852544374
:1057F0005F54696D655374727563742D3E486F759F
:10580000727329290000000049535F5254435F4DD1
:10581000494E55544553285254435F4263643254B1
:105820006F42797465285254435F54696D655374AF
:10583000727563742D3E4D696E7574657329290008
:1058400049535F5254435F5345434F4E445328528C
:1058500054435F42636432546F42797465285254F2
:10586000435F54696D655374727563742D3E53655F
:10587000636F6E647329290081B00F490020009086
:10588000086810F0400F04BF8020086010D108683D
:10589000009A00F04000521C0092B2F5005F01D067
:1058A0000028F4D0086810F0400004BF01B0704731
:1058B000012001B0704700000C28004070B50C4674
:1058C000050018BF012D05D04FF4377218A126A08E
:1058D00003F09CF92B48006820F0C00121F07F41C3
:1058E0000B0CC1F30422E37001F03F006270A07062
:1058F000C1F342312170002D18BF70BD190901EBB1
:10590000810103F00F0303EB4101E170110901EB89
:10591000810102F00F0202EB41016170010901EB0C
:10592000810100F00F0000EB4100A07070BD00008D
:105930002E2E5C6669726D776172655C6E333267BC
:105940003435785F7374645F7065726970685F6422
:1059500072697665725C7372635C6E33326734357C
:10596000785F7274632E630049535F5254435F46FD
:105970004F524D4154285254435F466F726D6174CB
:10598000290000000428004070B50C46050018BF2F
:10599000012D05D040F23D2218A126A003F036F9D2
:1059A0002B4800682B494FF0400C0140C1F30542E1
:1059B000C1F30623227001F07F006370A0700CEA2F
:1059C0001141E170002D18BF70BD110901EB81017B
:1059D00002F00F0202EB41012170190901EB810174
:1059E00003F00F0202EB41016170010901EB81013B
:1059F00000F00F0000EB4100A07070BD2E2E5C6621
:105A000069726D776172655C6E3332673435785FC9
:105A10007374645F7065726970685F6472697665DB
:105A2000725C7372635C6E3332673435785F7274A4
:105A3000632E630049535F5254435F464F524D41BA
:105A400054285254435F466F726D61742900000000
:105A5000002800407F7F7F0070B505460026006863
:105A60003446402818BF002804D0C7221EA12CA00D
:105A700003F0CCF868687F2804D9C8221AA135A0A1
:105A800003F0C4F8A868B0F5004F04D3C92216A1EA
:105A90003EA003F0BBF84B4BCA201860532018609F
:105AA000FFF7EAFEB0B14848016821F0400101600B
:105AB00001682A68114301604448A96801600168CF
:105AC000AA8841EA02410160001F016821F08001BB
:105AD00001600126FF20186040F2FF20641C844210
