:020000040100F9
:1000000048080020E5000001392700013B270001D6
:1000100000000000000000000000000000000000E0
:100020000000000000000000000000003F27000169
:1000300000000000000000004127000143270001EC
:10004000F7000001F7000001F7000001F7000001D0
:10005000F7000001F7000001F7000001F7000001C0
:10006000F7000001F7000001F7000001F7000001B0
:10007000F7000001F7000001F7000001F7000001A0
:10008000F7000001F7000001F7000001F700000190
:10009000F7000001F7000001F7000001F700000180
:1000A000F7000001F7000001F7000001F700000170
:1000B000F7000001F7000001F7000001F700000160
:1000C0000348854602F096FB00480047B926000128
:1000D0004808002040BA7047C0BA70470138FDD1C7
:1000E000704700000448804704480047FEE7FEE7E9
:1000F000FEE7FEE7FEE7FEE7D5020001C1000001D2
:10010000F0B5D1B004460D4600BFEFF310800646AF
:1001100004AF0137FF2241329F49684602F028FBB5
:10012000012080F3108800BF2A4621460003B8470B
:10013000304680F3108800BF51B0F0BD10B597482D
:100140000069401C002803D094480069002803D1AE
:1001500034219248FFF7D4FF90480069401C0028E2
:1001600003D08E480069002801D1002010BD8B48C3
:10017000FCE710B589480069401C002803D0874877
:100180000069002803D134218448FFF7B9FF834870
:100190000069401C002803D080480069002801D174
:1001A000002010BD7D482430FBE710B57B48006976
:1001B000401C002803D079480069002803D134216D
:1001C0007648FFF79DFF75480069401C002803D062
:1001D00072480069002801D1002010BD6F48293005
:1001E000FBE7F1B588B0002007907D20C0000690A5
:1001F0000124A4020020059004907F200390684809
:1002000000684004450E00260020029065490898C9
:10021000884207D1624800686101884360490860EC
:10022000CC1408E05E4800680121C90308435C491A
:1002300008600324A40200BF594800687F21090216
:100240008843019028020199084355490860052018
:10025000FFF744FF10E00120FFF740FF5048406BDC
:1002600002210840002800D007E00298411C0291BA
:100270000699884200D900E0EDE700BF4848C06B0E
:1002800086B2A64202D9301B059001E0A01B059062
:10029000A64201D3039500E0049503990498401801
:1002A000C005070EAF4200D104E03D46079905980E
:1002B0008842C1D800BF3A484068400840003849E9
:1002C000486000BF36484068042108400028F9D142
:1002D00009B0F0BD10B53248C069012109070843D3
:1002E0002F49C861812000062F4908632F484861C3
:1002F0002F4808622F4800680321890388432D494D
:10030000086034212548FFF7FBFE24480069401CA3
:10031000002803D021480069002817D120484068F0
:100320000121090408431E49486008464068072126
:10033000090288431A49486008464068091508437D
:10034000174948601C48FFF74CFF18E016488069C1
:100350004409640111480078C006C00E04431248E5
:1003600084610F48006A154908400D490862084633
:10037000006A0A49C968090208430949086210BDB0
:1003800008480F490860704710B504466B21614367
:100390000846FFF7A3FE10BD2C2D00010800002029
:1003A000001002400090D003007000400F080000D1
:1003B00018000200001001400048E801FF00F8FFAB
:1003C0000000002010B50446FB48844202D0FB48E0
:1003D000844200D104E06922F949FAA002F0A2F9AE
:1003E000F548844208D10121042001F05FFF00217B
:1003F000042001F05BFF0CE0F048844208D10121A9
:10040000082001F053FF0021082001F04FFF00E019
:1004100010BD00BFFCE7F8B504460E4600250027D6
:10042000E548844202D0E548844200D104E08722B6
:10043000E349E4A002F076F9DF48844207D1700670
:10044000400E002803D07F2030437F280BD0DB48AC
:10045000844209D1B004800C002805D0E048304324
:10046000DF49884200D104E08822D549DDA002F0AE
:1004700059F934E00120A84030400746002F2DD024
:1004800020686A000321914008432060082028402A
:10049000002807D0606A6907CA0E0F2191400843FF
:1004A000606206E0206A6907CA0E0F219140084386
:1004B000206260680121A94088436060E0686A00AA
:1004C000032191408843E060A0680121A9400843CE
:1004D000A060E06A0121A9408843E0626D1C3046BB
:1004E000E8400028C6D1F8BD10B50121084601F04A
:1004F000DDFE0021012001F0D9FE10BDF8B5064651
:100500000C460027002000900025AB48864202D010
:10051000AA48864200D104E0C422A949A9A002F059
:1005200001F9A548864209D120784006400E0028EE
:1005300004D07F21206808437F280CD09F48864242
:100540000AD120888004800C002805D0A4492068A6
:100550000843884200D104E0C5229949AAA002F0CC
:10056000E1F860690F2800D804E0C6229449B3A0DE
:1005700002F0D8F86068002826D06068012823D0EF
:100580006068112820D0606802281DD06068122899
:100590001AD0B5496068884216D0B449606888426C
:1005A00012D0B349606888420ED0B2496068884270
:1005B0000AD0B1496068884206D0B0496068884274
:1005C00002D06068032800D104E0C7227C49ACA0B7
:1005D00002F0A8F8A068002805D0A068012802D081
:1005E000A068022800D104E0C8227549AFA002F03B
:1005F00099F8E068002802D0E068012800D104E002
:10060000C9226F49B4A002F08DF82069112802D0E8
:100610002069002800D104E0CA226949B9A002F08B
:1006200081F880E00121B9402068084000900098DE
:10063000002877D06068022802D06068122829D18B
:1006400060690F2800D804E0D8225D497BA002F041
:1006500069F80820384000280ED0756A7807C10E66
:100660000F208840294681430D467907C90E6069ED
:100670008840054375620DE0356A7807C10E0F208A
:100680008840294681430D467907C90E6069884034
:10069000054335626068012808D06068112805D0DC
:1006A0006068022802D0606812280BD175680120AA
:1006B000B840294681430D462079C006C00FB84096
:1006C00005437560356879000320884029468143D9
:1006D0000D4620798007800F7900884005433560FA
:1006E000F568790003208840294681430D4679004A
:1006F000A06888400543F560B5680120B8402946E8
:1007000081430D46E068B8400543B560F56A79005D
:1007100001208840294681430D46790020698840A0
:100720000543F5627F1C2068F840002800D079E777
:10073000F8BD2B4901600F214161002141608160BA
:100740000121C16000210161704770B504460D466A
:1007500000261948844202D01848844200D105E09E
:10076000FF223032164917A001F0DCFF1248844204
:1007700007D16806400E002803D07F2028437F2839
:100780000BD00E48844209D1A804800C002805D063
:10079000134828431249884200D105E0FF22313234
:1007A000074910A001F0BEFF20692840002801D0B1
:1007B0000126C0E0BEE0000000080140000C01403E
:1007C000782E000149535F4750494F5F414C4C5FC1
:1007D000504552495048284750494F782900000059
:1007E000FF3F000049535F4750494F5F50494E5FFC
:1007F000415641494C41424C45284750494F782C7D
:100800002050696E2900000049535F4750494F5FEF
:1008100050494E5F415641494C41424C4528475052
:10082000494F782C204750494F5F496E6974537483
:10083000727563742D3E50696E29000049535F47FD
:1008400050494F5F4146284750494F5F496E697490
:100850005374727563742D3E4750494F5F416C74F9
:1008600065726E617465290000001110000021108E
:100870000000311000201310000012100000321090
:1008800049535F4750494F5F4D4F444528475049B2
:100890004F5F496E69745374727563742D3E47508F
:1008A000494F5F4D6F6465290000000049535F4761
:1008B00050494F5F50554C4C284750494F5F496E47
:1008C00069745374727563742D3E4750494F5F507D
:1008D000756C6C290000000049535F4750494F5F19
:1008E0005350454544284750494F5F496E697453FA
:1008F00074727563742D3E4750494F5F5370656540
:100900006429000049535F4750494F5F4355525295
:10091000454E54284750494F5F496E69745374726D
:100920007563742D3E4750494F5F43757272656E13
:10093000742900000026304670BD10B50446F94801
:10094000844202D0F848844200D105E0FF224632BA
:10095000F649F74801F0E6FE206980B210BD70B597
:1009600004460D460026EF48844202D0EE488442F9
:1009700000D105E0FF225732EC49ED4801F0D2FEEC
:10098000E848844207D16806400E002803D07F2043
:1009900028437F280BD0E448844209D1A804800C66
:1009A000002805D0E3482843E249884200D106E008
:1009B000FF225832DD49DE48203001F0B3FE606985
:1009C0002840002801D0012600E00026304670BDF6
:1009D00010B50446D348844202D0D348844200D1A3
:1009E00005E0FF226D32D149D14801F09BFE6069DC
:1009F00080B210BD70B504460D46CA48844202D08C
:100A0000C948844200D105E0FF227B32C749C8486B
:100A100001F088FEC348844207D16806400E0028D2
:100A200003D07F2028437F280BD0BF48844209D1C0
:100A3000A804800C002805D0BE482843BD49884240
:100A400000D106E0FF227C32B849B948203001F0DD
:100A500069FEA56170BD70B504460D46B14884427B
:100A600002D0B148844200D105E0FF228A32AF496A
:100A7000AF4801F057FEAB48844207D16806400EEC
:100A8000002803D07F2028437F280BD0A64884422B
:100A900009D1A804800C002805D0A6482843A54900
:100AA000884200D106E0FF228B32A049A0482030C6
:100AB00001F038FEA56270BD70B504460D461646BD
:100AC0009848844202D09848844200D105E0FF2231
:100AD0009D329649964801F025FE9248844207D1FE
:100AE0006806400E002803D07F2028437F280BD0C3
:100AF0008D48844209D1A804800C002805D08D4877
:100B000028438C49884200D106E0FF229E32874963
:100B10008748203001F006FE002E01D0012E00D1C2
:100B200005E0FF229F32814983A001F0FBFD002EEA
:100B300001D0A56100E0A56270BD70B504460D4608
:100B40007848844202D07848844200D105E0FF22F0
:100B5000B3327649764801F0E5FD656170BD70B548
:100B600005460C466F48854207D16006400E0028B6
:100B700003D07F2020437F280BD06B48854209D1CA
:100B8000A004800C002805D06A48204369498842A7
:100B900000D106E0FF22C23264496548203001F0EE
:100BA000C1FD6048854207D16006400E002803D091
:100BB0007F2020437F280BD05B48854209D1A004C9
:100BC000800C002805D05B4820435A49884200D158
:100BD00006E0FF22C33255495548203001F0A2FDFE
:100BE00068696040686170BD70B504460D460126B5
:100BF00036044C48844202D04B48844200D105E080
:100C0000FF22D23249494A4801F08CFD45488442CE
:100C100007D16806400E002803D07F2028437F2894
:100C20000BD04148844209D1A804800C002805D08B
:100C3000404828433F49884200D106E0FF22D33292
:100C40003A493B48203001F06DFD304628430646C6
:100C5000E661E561E661E669E66970BD70B5054685
:100C60000C46002D01D0012D00D105E0FF22EC3211
:100C70002E4938A001F056FD002C19D0012C17D0B8
:100C8000022C15D0032C13D0042C11D0052C0FD01E
:100C9000062C0DD0072C0BD0082C09D0092C07D01E
:100CA0000A2C05D00B2C03D00C2C01D00D2C00D11C
:100CB00005E0FF22ED321D4930A001F033FD002D8B
:100CC0002FD1230001F0DAFD07050C19206C7A8280
:100CD0008A003248406880088000304948607EE0E1
:100CE0002E484068800880002C49486008464068CB
:100CF000012108432949486071E0284840683021B3
:100D00008843264948606AE0244840683021884387
:100D10002249486008464068102108431F4948603E
:100D20005DE05DE000080140000C0140782E00010C
:100D3000C4070001FF3F000049535F4750494F5F20
:100D40004249545F4F5045524154452842697443CB
:100D50006D64290049535F4750494F5F45585449D6
:100D60005F504F52545F534F5552434528506F7256
:100D700074536F75726365290000000049535F4723
:100D800050494F5F50494E5F534F5552434528508D
:100D9000696E536F757263652900000000000140A1
:100DA000B3488068032109028843B1498860084636
:100DB000806849150843AE49886010E0AC48406837
:100DC000032109038843AA49486008E0A84840680D
:100DD000032109028843A649486000E000BFB0E053
:100DE000230001F04BFD0E081522303E4A57657373
:100DF00081888F9CA4AC9E484068800880009C49F4
:100E0000486008464068022108439949486097E0D5
:100E100097484068302188439549486008464068B3
:100E200020210843924948608AE0914840680321A4
:100E3000090288438E49486008464068891508437E
:100E40008B4948607CE08A48406803210903884355
:100E500087494860084640688914084384494860C7
:100E60006EE08348806881088900814881608068DD
:100E7000012108437E49886062E07D488068302116
:100E800088437B4988600846806820210843784968
:100E9000886055E0764880680321090288437449D8
:100EA000886008468068891508437149886047E072
:100EB0006F4880680321090388436D4988600846AC
:100EC0008068891408436A49886039E06848806806
:100ED00003210903884366498860084680684914ED
:100EE0000843634988602BE0614880688108890075
:100EF0005F48816024E05E488068302188435C4917
:100F000088601DE05A4880683021884358498860CD
:100F100008468068102108435549886010E054480D
:100F200080680321090288435149886008E05048DD
:100F300080680321090388434D49886000E000BFB1
:100F400000BF70BDFEB506460C4617460020019056
:100F50000025002E01D0012E00D104E0454A46496B
:100F600046A001F0DFFB002C19D0012C17D0022C79
:100F700015D0032C13D0042C11D0052C0FD0062C27
:100F80000DD0072C0BD0082C09D0092C07D00A2C27
:100F900005D00B2C03D00C2C01D00D2C00D105E07A
:100FA0004B22D20034493F4801F0BCFB0F2F00D840
:100FB00005E0304A921C30493BA001F0B3FB002E03
:100FC00001D1414800E0414800900820204000281D
:100FD00011D06007400F01900098456A0198810088
:100FE0000F208840294681430D4628463843054650
:100FF0000098456210E06007400F01900098056A74
:10100000019881000F208840294681430D462846DB
:101010003843054600980562FEBD70B504460D468E
:1010200000260120C002844202D04010844200D138
:1010300005E0A1229200104925A001F073FB002DCC
:1010400001D0012D00D105E00A4A2E320A4927A01D
:1010500001F068FB06480668002D03D030462043A7
:10106000064602E03046A04306460148066070BDD1
:101070000000014057020000782E000149535F47ED
:1010800050494F5F52454D41505F504F52545F534E
:101090004F5552434528506F7274536F7572636594
:1010A000290000007C0D000149535F4750494F5F04
:1010B000414628416C7465726E61746546756E6355
:1010C00074696F6E2900000000080140000C0140A7
:1010D00049535F4146494F5F53504958284146495B
:1010E0004F5F535049785F4E5353290049535F4136
:1010F00046494F5F5350495F4E5353285370694ED2
:1011000073734D6F6465290010B50446F44884423A
:1011100000D104E07222F349F3A001F003FBF04890
:1011200084420CD1F848006A012109070843F649B6
:1011300008620846006A09048843F349086210BD42
:1011400070B504460D46E648844200D105E0FF2212
:101150008332E449E4A001F0E5FA012080038542EE
:1011600001D0002D00D105E0FF228432DD49E7A047
:1011700001F0D8FA20898004800C2081208928433E
:10118000208170BDF0B58DB005460C4600260020CC
:101190000C900B900A9000BF00BF079000BF059015
:1011A000CF48854200D104E09122CE49CEA001F083
:1011B000B9FA2068002804D0DF492068884200D2AC
:1011C00004E09222C749DDA001F0ACFAA08808280B
:1011D00005D0A088002802D0A088012800D104E012
:1011E0009322C049E1A001F09DFAE088002802D0D6
:1011F000E088022800D104E09422BA49E6A001F078
:1012000091FA2089002808D02089FF2101318842E5
:1012100003D020894900884200D104E09522B149D9
:10122000E7A001F07FFA608900280DD060890121D4
:10123000C902884208D060894910884204D0608978
:1012400003218902884200D104E09622A549EA4898
:1012500001F068FA05952E89E8480640A088E188E3
:101260000843218908436189084306432E819C482D
:10127000059D854203D1002000F06AFE0C900121FB
:1012800089060C98884202D1C0120B900BE0DC4911
:101290000C98884202D1C0120B9004E0684600F01E
:1012A0001CFF02980B9021680B9801F04BFA0A90F2
:1012B0000A980A2805D8012189032846FFF740FF2C
:1012C00003E000212846FFF73BFF0A98002804D0DE
:1012D00099490A98884200D204E0D1228149C9A0E4
:1012E00001F020FA0A98A88121680B9801F02AFAE7
:1012F000CD4841430F463846216801F023FA099052
:101300000026099808900020069018E00898079099
:101310000999079840180890C349089801F012FAF3
:101320000746C149079801F00DFA4740002F03D046
:1013300001200699884006430698401C06900698AE
:101340000828E3D32E750DB0F0BD4B21C901016013
:10135000082181800221C18009020181002141818F
:10136000704770B505460C4600265D48854200D1A1
:1013700005E0FF22E6325B495BA001F0D3F9012CC6
:1013800011D0022C0FD0042C0DD0082C0BD0102C17
:1013900009D0202C07D0402C05D0802C03D0FF2072
:1013A0000130844200D105E0FF22E7324D499FA081
:1013B00001F0B8F928882040002801D0012600E07B
:1013C0000026304670BD10B504464548844200D121
:1013D00004E0FF22434944A001F0A4F9208904213C
:1013E0000843208100BF20212046FFF7BAFF0028D4
:1013F000F9D1208994490840208110BD70B5054677
:101400000C4616463648854200D105E0FF221D32C3
:10141000344935A001F086F9012C16D0FF200330A5
:10142000844212D0400084420FD06120C000844228
:101430000BD041200001844207D029204001844282
:1014400003D00D20C001844200D105E0FF221E32EE
:1014500024497EA001F066F9002E01D0012E00D1B2
:1014600005E0FF221F321F4980A001F05BF9002E2A
:1014700004D02879E1B20843287102E02879A0431A
:10148000287170BD70B504460D4616461448844256
:1014900000D105E0FF223932124913A001F042F9D0
:1014A00079482840002802D1002D00D005E0FF2215
:1014B0003A320C4975A001F035F9002E01D0012E09
:1014C00000D105E0FF223B32064968A001F02AF96D
:1014D000002E03D0208928432081EAE0E6E00000C6
:1014E000004800400C2F000149535F4C50554152B9
:1014F000545F414C4C5F504552495048284C505520
:1015000041525478290000000010024049535F4CBA
:1015100050554152545F53414D504C494E47284C11
:1015200050554152545F53616D706C696E674D65E3
:1015300074686F642900000081841E0049535F4C69
:1015400050554152545F4241554452415445284CF4
:1015500050554152545F496E697453747275637487
:101560002D3E4261756452617465290049535F4C98
:1015700050554152545F504152495459284C50558E
:101580004152545F496E69745374727563742D3E91
:10159000506172697479290049535F4C505541522A
:1015A000545F4D4F4445284C50554152545F496E4D
:1015B00069745374727563742D3E4D6F64652900B0
:1015C00049535F4C50554152545F52545354485202
:1015D0004553484F4C44284C50554152545F496E36
:1015E00069745374727563742D3E527473546872C7
:1015F0006573686F6C642900C42E0001F4700000EC
:101600002000000449535F4C50554152545F424101
:1016100055445241544528696E7465676572646922
:1016200076696465722900001027000049535F4CF9
:1016300050554152545F464C4147284C50554152F9
:10164000545F464C41472900FB7F000049535F4CE3
:1016500050554152545F4346475F494E54284C50C1
:10166000554152545F494E542900000049535F468A
:10167000554E4354494F4E414C5F535441544528B5
:10168000436D6429000000009FFF000049535F4C38
:1016900050554152545F444D41524551284C50558C
:1016A0004152545F444D4152657129002089A8433D
:1016B000208170BD70B504460D469A48844200D121
:1016C00005E0FF2257329849984801F02BF8002D89
:1016D0000AD001200003854206D04000854203D095
:1016E00003200003854200D105E0FF2258328E49D5
:1016F0008FA001F017F820899749084020812089A0
:101700002843208170BD70B504460D46854884424B
:1017100000D105E0FF2268328349844801F002F8D5
:10172000002D01D0012D00D105E0FF2269327E4954
:101730008A4800F0F7FF002D04D02089802108435B
:10174000208103E0208986490840208170BD70B562
:1017500004460D467348844200D105E0FF229432CE
:101760007149724800F0DEFF002D01D0012D00D13B
:1017700005E0FF2295326C49784800F0D3FF002D38
:1017800004D0208910210843208103E02089754975
:101790000840208170BD70B505460C466148854201
:1017A00000D105E0FF22AC325F49604800F0BAFF8B
:1017B000FF2C00DC05E0FF22AD325B496AA000F09F
:1017C000B1FF2C7470BD10B504465648844200D158
:1017D00005E0FF22BC325449544800F0A3FF207CAE
:1017E00010BD70B504460D464E48844200D105E058
:1017F000FF22CB324C494D4800F094FFA56170BDEB
:1018000070B505460C464748854200D104E05C4A65
:101810004549464800F086FF5A482040002802D13A
:10182000002C00D005E0564A521C3F4956A000F05B
:1018300079FF2C8070BDF8B505460C4600270026C0
:10184000002000903748854200D105E04C4A1B3209
:101850003549364800F066FF012C16D0FF200330D2
:10186000844212D0400084420FD06120C0008442E4
:101870000BD041200001844207D02920400184423E
:1018800003D00D20C001844200D105E03C4A1C3247
:10189000254946A000F046FF6004460E0120B040F6
:1018A000064628790640E7B228880740002E04D073
:1018B000002F02D00120009001E00020009000984D
:1018C000F8BD70B505460C4600261648854200D185
:1018D00005E02B4A44321449144800F023FF012C40
:1018E00016D0FF200330844212D0400084420FD033
:1018F0006120C00084420BD041200001844207D007
:1019000029204001844203D00D20C001844200D12F
:1019100005E01B4A453204492CA000F003FFE6B263
:101920002E8070BD004800400C2F0001E81400011B
:1019300049535F4C50554152545F57414B455550A8
:10194000284C50554152545F57616B6555704D6539
:1019500074686F6429000000FF4F00006C160001DE
:101960007F7F0000EFFF000049535F4C505541520C
:10197000545F4441544128446174612900000000CF
:101980000602000040FE000049535F4C5055415292
:10199000545F434C4541525F464C4147284C50559B
:1019A0004152545F464C41472900000049535F4C67
:1019B00050554152545F4745545F494E54284C504E
:1019C000554152545F494E542900000049535F4C21
:1019D00050554152545F434C525F494E54284C502D
:1019E000554152545F494E5429000000FA4800689E
:1019F00001210843F849086008464068F749084053
:101A0000F549486008460068F5490840F249086011
:101A100008460068012189048843EF4908600846A8
:101A20004068F0490840EC4948600720C002C8629D
:101A3000BF2000048860704710B50446002C03D016
:101A400001200004844200D104E08222E649E7A09C
:101A500000F068FEE0480068012109048843DE497F
:101A6000086001200004201A07D1084600680121FF
:101A700009040843D849086000E000BF00BF10BD5A
:101A8000F8B50446002500260027212C0FD0312C64
:101A90000DD0412C0BD0832C09D0842C07D0432CA3
:101AA00005D0852C03D0862C01D0872C00D104E0F2
:101AB000D34ACD49D3A000F035FE6511012D02D1E6
:101AC000C548066806E0022D02D1C348066A01E057
:101AD000C148466AE506ED0E0120A84030400028C6
:101AE00001D0012700E000273846F8BD38B50020B6
:101AF00000900024002500BF3120FFF7C1FF0546FC
:101B00000098401C0090012149030098884201D0B0
:101B1000002DF1D03120FFF7B3FF002801D00124C0
:101B200000E00024204638BD10B50446002C01D04A
:101B3000012C00D104E0BB22AB49B8A000F0F2FDBB
:101B4000A548006840084000A3490860012C06D160
:101B500008460068012108439F49086000E000BF73
:101B600000BF10BD38B5002000900024002500BF44
:101B70002120FFF785FF05460098401C00900521B5
:101B800009020098884201D0002DF1D02120FFF7F2
:101B900077FF002801D0012400E00024204638BD52
:101BA00010B50446002C01D0012C00D104E0F22233
:101BB0008D499FA000F0B6FD012C06D18648006833
:101BC000012108438449086005E083480068400813
:101BD00040008149086010BD70B504460025002C06
:101BE00001D0012C00D105E0FF220D327E4997A0E3
:101BF00000F098FD784845686D086D002846204340
:101C000005467548456070BD73484068042108402A
:101C1000704770B504460025002C03D0202C01D05D
:101C2000302C00D105E0FF2230326F4990A000F047
:101C300079FD69484568302128468843054628468D
:101C4000204305466448456070BD70B504460025D4
:101C5000002C0FD00120800284420BD0052000020E
:101C6000844207D003204002844203D007200002B0
:101C7000844200D105E0FF2249325B4984A000F094
:101C800051FD554845680721090228468843054605
:101C90002846204305465048456070BD70B504464F
:101CA0000025002C0FD00120800284420BD005209B
:101CB0000002844207D003204002844203D0072060
:101CC0000002844200D105E0FF226232464970A042
:101CD00000F028FD404845680721C902284688438E
:101CE0000546E00005433C48456070BD70B50446BC
:101CF0000D46012C05D0022C03D0042C01D0082C59
:101D000000D105E0FF227E32374968A000F00AFDCD
:101D1000002D01D0012D00D105E0FF227F32324994
:101D200043A000F0FFFC002D06D02B48006A2102E2
:101D300008432949086205E02748006A21028843D0
:101D40002549086270BD70B504460025002C03D0FB
:101D50000120C007844200D105E0FF2297322249CA
:101D600057A000F0DFFC1C48C56A6D006D082846CE
:101D7000204305461848C56270BD70B5044600256D
:101D8000002C01D0102C00D105E0FF22AF32164903
:101D900055A000F0C7FC1048C56A102128468843AA
:101DA00005462846204305460B48C56270BD70B500
:101DB00005460C46002D00D105E0FF22C9320A4934
:101DC00052A000F0AFFC002C03D00120800684421A
:101DD00000D1AFE0A8E00000001002400000FF21A9
:101DE000FFFFF6FEFFFF00FE582F000149535F5230
:101DF00043435F485345285243435F4853452900B6
:101E00008E03000049535F5243435F464C414728CD
:101E10005243435F464C41472900000049535F52FB
:101E200043435F485349285243435F48534929007D
:101E300049535F46554E4354494F4E414C5F5354AE
:101E400041544528436D64290000000049535F5206
:101E500043435F535953434C4B5F535243285243C0
:101E6000435F535953434C4B536F7572636529005D
:101E700049535F5243435F535953434C4B5F44496B
:101E800056285243435F535953434C4B290000009B
:101E900049535F5243435F48434C4B5F4449562884
:101EA0005243435F48434C4B2900000049535F5263
:101EB00043435F494E5428526363496E74290000BE
:101EC00049535F5243435F54494D31434C4B535246
:101ED00043285243435F54494D31434C4B536F7534
:101EE000726365290000000049535F5243435F411C
:101EF0004443434C4B535243285243435F41444372
:101F0000434C4B536F7572636529000049535F5210
:101F100043435F4C505541525458285243435F4C01
:101F20005055415254782900FF22CA32F149F2A09B
:101F300000F0F8FB002D0AD1F948006A012189065A
:101F40008843F74908620846006A2043086270BD6A
:101F50000146F348006AF34A1040704710B5044642
:101F6000002C01D0012C00D105E0FF22EF32E14925
:101F7000ED4800F0D7FB012C06D1E948006AE106E4
:101F80000843E749086206E0E548006A0121C906FE
:101F90008843E349086210BD10B50446002C03D005
:101FA000042C01D0102C00D104E0E04AD149E0A07B
:101FB00000F0B8FBDA48006A14218843D849086267
:101FC000042C02D0102C0ED106E0D548006A042162
:101FD0000843D349086207E0D148006A1421084346
:101FE000CF49086200E000BF00BF10BD10B5044635
:101FF000002C01D0012C00D105E089229200BD49BE
:10200000C94800F08FFB012C06D1C548006A0121A8
:102010000843C349086205E0C148006A400840001F
:10202000BF49086210BD10B50446202C01D0002C19
:1020300000D105E0BD4A3632AE49C2A000F072FBC5
:10204000B748006A20218843B54908620846006AFB
:102050002043086210BDB248006A20210840704742
:1020600010B50446002C01D0012C00D105E0AF4A88
:102070005332A049AC4800F055FB012C06D1A848CA
:10208000006A21060843A649086206E0A448006ADF
:10209000012109068843A249086210BD10B5044613
:1020A000002C01D0012C00D105E0A04A6A329149F0
:1020B0009D4800F037FB002C07D09948006A0121A9
:1020C000490608439649086206E09548006A0121DE
:1020D000490688439249086210BD10B500210022CC
:1020E0008F4B5B68042423401946002902D0042941
:1020F00006D102E09C4B036005E09C4B036002E0CC
:10210000994B036000BF00BF854B5B6830242340C0
:1021100019460909964B5A5C0368D3404360804BCB
:102120005B680724240223401946090A914B5A5C34
:102130004368D34083607A4B5B68E40023401946D0
:10214000C90A8C4B5A5C4368D340C360744BDB6A4A
:1021500010242340002B02D0874B036102E07D2333
:10216000DB03036110BD70B504460D468348204073
:10217000002802D1002C00D005E06C4AC4325D4931
:102180007FA000F0CFFA002D01D0012D00D105E095
:10219000B32292005749644800F0C4FA002D05D0DC
:1021A0005F48406920435E49486104E05C484069FB
:1021B000A0435B49486170BD70B504460D4679483F
:1021C0002040002802D1002C00D005E0574ADF3221
:1021D000484975A000F0A6FA002D01D0012D00D1CC
:1021E00005E0524AE03243494F4800F09BFA002D87
:1021F00005D04B48806920434949886104E048483C
:102200008069A0434649886170BD70B504460D469B
:102210006E482040002802D1002C00D005E0434A3F
:10222000FB3234496AA000F07DFA002D01D0012D67
:1022300000D105E03D4AFC322E493B4800F072FADD
:10224000002D05D03648C06920433549C86104E0F7
:102250003348C069A0433249C86170BD70B50446B7
:102260000D4646482040002802D1002C00D004E052
:10227000604A204960A000F055FA002D01D0012DE0
:1022800000D105E05B4A521C1A49274800F04AFA7F
:10229000002D05D02248806A20432149886204E04D
:1022A0001F48806AA0431E49886270BD70B504460D
:1022B0000D463C482040002802D1002C00D005E00B
:1022C0004C4A1A320B4938A000F02CFA002D01D0EC
:1022D000012D00D105E0CD2292000649124800F000
:1022E00021FA002D05D00E48C06820430C49C86073
:1022F0009BE095E0582F000149535F5243435F4CE8
:1023000050554152545F434C4B285243435F4C500D
:1023100055415254434C4B536F757263652900000D
:102320000010024020000004301E000107020000DF
:1023300049535F5243435F4C5345285243435F4CDC
:102340005345290049535F5243435F525443434C22
:102350004B5F535243285243435F4C535F536F7557
:1023600072636529000000000090D0030048E80176
:10237000742E00016C2E000100093D008AAFFFFFA2
:1023800049535F5243435F4148425F504552495071
:1023900048285243435F414842506572697068293A
:1023A00000000000F2A9FFFF49535F5243435F4121
:1023B0005042325F504552495048285243435F4192
:1023C000504232506572697068290000EDF7DDEF08
:1023D00049535F5243435F415042315F5045524938
:1023E0005048285243435F415042315065726970F2
:1023F000682900001903000049535F5243435F41BD
:1024000048425F5045524950485F52455345542811
:102410005243435F41484250657269706829000029
:102420006348C068A0436249C86070BD70B5044687
:102430000D4660482040002802D1002C00D004E066
:102440005D4A5E495EA000F06DF9002D01D0012DBE
:1024500000D105E0584A521C5849644800F062F91E
:10246000002D05D05248006920435149086104E01D
:102470004F480069A0434E49086170BD70B50446DD
:102480000025002C0CD0012C0AD0022C08D0032CE3
:1024900006D0042C04D0052C02D0062C00D000D18C
:1024A00005E0454A1D32454951A000F03BF940483E
:1024B00045680F21490628468843054660060543BE
:1024C0003B48456070BD3A48406A0121084338499D
:1024D00048620846406A400840004862704770B54C
:1024E00004460025012C05D0022C03D0042C01D079
:1024F000082C00D105E0F3229200304941A000F001
:1025000011F92B4880682040002801D0012500E007
:102510000025284670BD10B5044601200004844201
:1025200008D04000844205D04000844202D04000E0
:10253000844200D105E0204A9C32204937A000F0B7
:10254000F1F81B48806820431949886010BD10B518
:102550000446002C01D0012C00D105E0164AA83217
:102560001649224800F0DEF8012C06D11048006818
:10257000210608430E49086006E00D480068012165
:10258000090688430A49086010BD002907D0084A97
:10259000403252680243064B40335A6006E0044A18
:1025A000403252688243024B40335A607047000009
:1025B00000100240EDF7DDEF4E030000582F000140
:1025C00049535F5243435F415042315F5045524946
:1025D00050485F5245534554285243435F4150424F
:1025E000315065726970682900000000301E0001DA
:1025F00049535F5243435F4D434F285243435F4D1E
:10260000434F290049535F5243435F4745545F4955
:102610004E5428526363496E7429000049535F5237
:1026200043435F434C525F494E54462852636343D1
:102630006C72496E7429000000B587B00121092031
:10264000FFF7BAFD01A8FEF774F80220019002908E
:102650000420069001A93448FDF750FF04200190A2
:10266000012003900420069001A92F48FDF746FFA2
:1026700007B000BD10B504463F2080062018002892
:1026800010D1FFF7D0FC0120FFF7B0FC00BF4120C4
:10269000FFF7F6F90028FAD0012189060020FFF79C
:1026A00086FB04E000210846FFF781FB00BF00BF66
:1026B0000120FFF753FC10BD0020FFF7DBFFFFF701
:1026C000BBFF1A48FEF720FD4B20C00118490860E7
:1026D0000820888080010881002048810220C8806D
:1026E0001248FEF74FFD0020FFF732FC0446224659
:1026F0000021104800F0B2F800BFFEE770B50446B4
:102700000D46E1B20948FFF746F800BF022107482D
:10271000FEF727FE0028F9D002210448FFF770F8E1
:10272000204670BD00BFFEE7000C0140004800409D
:102730003C000020A42F0001704700BFFEE7704757
:102740007047704730B50B46014600202022012417
:1027500009E00D46D5409D4205D31D469540491BD5
:102760002546954040191546521E002DF1DC30BD1E
:1027700003460B439B0703D009E008C9121F08C09A
:10278000042AFAD203E00B780370401C491C521E45
:10279000F9D27047F0B51FB40646002082B0054656
:1027A0004024019100901BE0019922460F463046DB
:1027B00000F042F8049A059B801A994110D3104604
:1027C0001946224600F028F8361A8F410197224612
:1027D00001200021009F00F01FF838184D410090A3
:1027E0002046641E0028DFDC019B00982946324603
:1027F00007B0F0BD064C0125064E05E0E36807CCA6
:102800002B430C3C98471034B442F7D3FDF75CFCE3
:10281000083000012830000110B5202A04DB0146F1
:10282000203A9140002010BD914020239C1A03467D
:10283000E3401943904010BD10B5202A04DB084640
:10284000203AD040002110BD0B46D340D040202478
:10285000A21A91400843194610BD00000FB410B5EC
:1028600003A9044B044A029800F026F810BC08BCE7
:1028700004B01847FD2600010400002030B474465F
:10288000641E2578641CAB4204D3635D5B00E318CF
:1028900030BC18471D46F8E702E008C8121F08C1FF
:1028A000002AFAD170477047002001E001C1121FD1
:1028B000002AFBD170470000FFB591B00F460546D6
:1028C000002606E025280AD0149A139990476D1C1B
:1028D000761C28780028F5D1304615B0F0BD0024CC
:1028E00000940121F34A029400E004436D1C2B780C
:1028F0000846203B98401042F7D128782A280ED06D
:10290000022128780246303A092A15D8009A0A236B
:102910005A43303A80180C436D1C0090F1E701CF08
:102920000090002805DA012040030443009840424B
:102930000090022004436D1C28782E2815D1042015
:10294000044368786D1C2A280AD101CF6D1C0290BF
:102950000BE002990A225143303940186D1C029055
:102960002878014630390929F3D928786C2810D005
:1029700006DC4C281AD068280ED06A2817D104E04B
:10298000742813D07A2812D110E0012040050443A6
:102990000CE00121090501E0032109050C436978D8
:1029A000814203D10120000524186D1C6D1C28787C
:1029B00003906E281ED00CDC632831D004DC002884
:1029C0008AD0582811D1B2E064287BD069280CD174
:1029D00078E073282DD004DC6F2870D0702804D1E3
:1029E000A7E075286CD078286BD0149A139990477B
:1029F000761C62E06002400F022807D003280AD04C
:102A0000042838680AD006603F1D56E03868F11780
:102A100006604160F8E738680680F5E70670F3E77E
:102A20003878694608740020487404A8039001208F
:102A300003E0386803900020C0433F1D61070FD5B5
:102A4000002101E00199491C029A0191914213DA97
:102A50008142F7DB019A0399895C0029F2D10BE0EE
:102A6000002101E00199491C01918142FADB019AA0
:102A70000399895C0029F5D101990098139A401AAD
:102A800000902146149B00F03BF9019980194618EB
:102A900007E0039803990078491C0391149A13994D
:102AA00090470198401E0190401CF2D12146149B92
:102AB000139A009800F014F986196D1C09E741E09B
:102AC00033E034E00A200021049005916002410FB8
:102AD000022905D001CFC2179446032905D007E08B
:102AE000FF1DFF08FF0003CF06E000B2C2179446A7
:102AF000042902D140B2C1178C4600226146944598
:102B000006DA0A460021404291418C462D2102E01E
:102B1000210504D52B216A461176012103E0E10746
:102B200001D02021F7E7019154E00A200BE01020AA
:102B300009E010200490002104200443082005919E
:102B4000029003E008200021059104906002410FEB
:102B5000022905D001CF00229446032906D006E0C1
:102B6000FF1DFF08FF0003CF8C4603E080B204295D
:102B700000D1C0B20021019121072BD50399702902
:102B800006D0049A1021059B4A401A4305D00EE056
:102B900040216A461176012108E06146014306D0D2
:102BA00030216A4611760399517602210191049AE7
:102BB0000821059B4A401A430CD16146014301D1CB
:102BC000610707D530216A461176012101910299EA
:102BD000491E02910399582904D037A103910FA9E6
:102BE0000F910DE039A1F9E76146059B049AFFF7C3
:102BF000D1FD039B8C469B5C0F9A521E0F92137063
:102C000061460143F0D10F9807A9081A20300390BC
:102C1000600704D5012000048443029801E00120EC
:102C200002900399884201DD401A00E0002041181B
:102C30000290019809180098401A0090E00306D409
:102C40002146149B139A009800F05AF88619002028
:102C5000049008E006A9085C149A13999047049818
:102C6000401C761C049001998842F3DBE0030CD5EC
:102C70002146149B139A009800F042F8861904E04C
:102C8000149A302013999047761C0299481E02909E
:102C90000029F5DC08E00F980F990078491C0F9186
:102CA000149A13999047761C0399481E03900029A3
:102CB000F1DCFBE609280100303132333435363798
:102CC0003839616263646566000000003031323378
:102CD0003435363738394142434445460000000018
:102CE000F8B5044600251E461746880404D405E0BE
:102CF00039462020B0476D1C641EF9D52846F8BD22
:102D0000FFB50446002581B01E46C80301D5302713
:102D100000E02027880404D505E038460399B04731
:102D20006D1C641EF9D5284605B0F0BD40BA704749
:102D3000C0BA70470138FDD170470000F7B50325D0
:102D4000AD06286A82B016460C464008400028624C
:102D5000286A022108432862286A8007FCD466207A
:102D6000686001272F61A86AC005FCD599206860BA
:102D70002F61A86AC005FCD5FF209130FFF7DAFF6C
:102D8000FF230133AB626846EF60352169602F6134
:102D9000A96AC905FCD5AB62A969EF60C9B2052271
:102DA0006A602F61AA6AD205FCD5AB62AA690902E2
:102DB000D2B211430180C80702D0032005B0F0BD94
:102DC000AB626869FF210831884368616869C91E80
:102DD0000843686102980002483068600820A860D3
:102DE000EE602F61A86AC005FCD5FF200130A86203
:102DF0000023F61CB0080ED0B208114800689900F4
:102E00006054060A09194E70060C000E8E705B1C89
:102E1000C8709A42F1D8FF200130A8626869FF218A
:102E2000083188436861686938436861286A8008A6
:102E300080002862286A38432862002005B0F0BD6F
:102E40008000000C032080064169FF220832914374
:102E50004161426901210A434261026A920892007B
:102E60000262026A0A43026270470000000000002A
:102E700001020304000001022E2E5C2E2E5C2E2E79
:102E80005C2E2E5C2E2E5C2E2E5C6669726D776138
:102E900072655C6E333277623033785F7374645F6F
:102EA0007065726970685F6472697665725C73726E
:102EB000635C6E333277623033785F6770696F2E90
:102EC0006300000049535F4C50554152545F4841E4
:102ED0005244574152455F464C4F575F434F4E5403
:102EE000524F4C284C50554152545F496E697453AF
:102EF00074727563742D3E486172647761726546C1
:102F00006C6F77436F6E74726F6C29002E2E5C2E7F
:102F10002E5C2E2E5C2E2E5C2E2E5C2E2E5C666978
:102F2000726D776172655C6E333277623033785FD1
:102F30007374645F7065726970685F6472697665E6
:102F4000725C7372635C6E333277623033785F6CBD
:102F500070756172742E63002E2E5C2E2E5C2E2EE8
:102F60005C2E2E5C2E2E5C2E2E5C6669726D776157
:102F700072655C6E333277623033785F7374645F8E
:102F80007065726970685F6472697665725C73728D
:102F9000635C6E333277623033785F7263632E63C3
:102FA000000000000A0D4C505541525420507269E7
:102FB0006E7466204578616D706C653A2072657438
:102FC0006172676574207468652043206C69627261
:102FD000617279207072696E74662066756E6374B2
:102FE000696F6E20746F20746865204C5055415293
:102FF00054206D6F64653A25642C207372633A30F7
:1030000078253038780A0D002830000100000020B3
:10301000080000009828000130300001080000205E
:1030200040080000A82800010048E8010000000056
:04000005010000C135
:00000001FF
