:020000040800F2
:10000000C8F40020AD010008070D0008650C0008C9
:10001000050D000889020008C12B0008000000003F
:10002000000000000000000000000000BF01000808
:100030008B02000800000000C301000879140008CA
:10004000C7010008C7010008C7010008C701000870
:10005000C7010008C7010008C7010008C701000860
:10006000C7010008C7010008C7010008C701000850
:10007000C7010008C7010008C7010008C701000840
:10008000C7010008C7010008C7010008C701000830
:10009000C7010008C7010008C7010008C701000820
:1000A000C7010008C7010008C7010008C701000810
:1000B000C7010008C7010008C7010008C701000800
:1000C000C7010008C7010008C7010008C7010008F0
:1000D000C701000851210008C7010008C701000836
:1000E000C7010008C7010008C7010008C7010008D0
:1000F000C7010008C7010008C7010008C7010008C0
:10010000C7010008C7010008C7010008C7010008AF
:10011000C7010008C70100088D190008C7010008C1
:10012000C7010008C7010008C7010008C70100088F
:10013000C7010008C7010008C7010008C70100087F
:10014000C7010008C7010008C7010008C70100086F
:10015000C7010008C7010008C7010008C70100085F
:10016000C7010008C7010008C7010008C70100084F
:10017000C7010008C7010008C7010008C70100083F
:10018000C7010008C7010008C7010008C70100082F
:10019000C7010008C7010008DFF80CD000F02EF8F6
:1001A0000048004765300008C8F400200648804732
:1001B00006480047FEE7FEE7FEE7FEE7FEE7FEE74C
:1001C000FEE7FEE7FEE7FEE77D1400089901000860
:1001D00030B50B46014600202022012409E021FA17
:1001E00002F59D4205D303FA02F5491B04FA02F514
:1001F0002844151EA2F10102F1DC30BD064C074D6A
:1002000006E0E06840F0010394E8070098471034E6
:10021000AC42F6D3FFF7C4FF104E0008304E000882
:1002200038B54FF48054ADF8004010208DF803002D
:100230000120064D8DF802006946284600F02CFB8F
:100240002146284600F036FC38BD00000008014079
:1002500010B502F0BFFC00F04DF802F069FE02F0AC
:10026000B1FEFFF7DDFF00F011FD01F099F9BDE8E7
:10027000104001F033B8000002490120487000F03E
:1002800013BD000004000020FEE7704710B5174CB6
:10029000E07868B12179164800294FF0010102D0B9
:1002A00000F074FC01E000F005FC2079C0432071EF
:1002B00020890021B0F57A7F01D321810BE0401C19
:1002C0000004000C208106D0A0F54072E73A05D169
:1002D000607810B102E0617000E0E170AFF25302AB
:1002E0001E21BDE81040022002F08EBC0400002058
:1002F0000010014008B50120ADF8000010218DF874
:1003000003108DF802006946044800F0C5FA044A5B
:100310001E21022002F078FC08BD00000010014000
:100320008D0200082DE9F0410D46044601287DD0DC
:10033000022CFCD0042CFAD0082CF8D0A4F5A01084
:100340001038F4D02038F2D0A4F5B0104038EED0F8
:100350008038ECD0F7488442E9D0F7488442E6D0B0
:10036000F6488442E3D0F6488442E0D0F54884421F
:10037000DDD0B4F5805FDAD0B4F5E91FD7D0B4F59D
:10038000EA1FD4D0B4F5EB1FD1D0B4F5004FCED0D6
:100390006FF40010C442CAD0A4F50010801EC6D06D
:1003A000801EC4D0001FC2D00838C0D0E6488442A6
:1003B000BDD0E6488442BAD0E5488442B7D0E5488B
:1003C0008442B4D06FF08040C442B0D0E24884424E
:1003D000ADD0001D8442AAD0E0488442A7D0DF48B7
:1003E00010308442A3D0DE488442A0D0DC48803064
:1003F00084429CD0DB48844299D0DB48844296D02A
:10040000DA48844293D0DA48844290D0D948844272
:100410008DD0D94884428AD0D848844287D0D848E1
:10042000844284D0D748844285D000E08CE0D6480E
:10043000844286D0401C844285D0401C844286D0B1
:10044000D248844285D0001D84427DD0D048844269
:100450007AD0D048844277D0CE480830844273D0D6
:10046000CD48844270D0CD4884426DD0CB48103006
:10047000844269D0C9482030844265D0C84884424B
:1004800062D0C748403084425ED0C5488030844244
:100490005AD0C448844257D0C348844254D0C34839
:1004A000844251D0C24884424ED0C24884424BD08C
:1004B000C148844248D0C148844245D0C0488442A3
:1004C00042D0C04884423FD0401C84423CD0401CB3
:1004D000844239D0BC48844236D0001D844233D097
:1004E000001D844230D0B94884422DD0B748203016
:1004F000844229D0B648844226D0B5488030844210
:1005000022D0B44884421FD0B34884421CD0B348A0
:10051000844219D0B24884427ED0B24884427BD013
:10052000B148844278D04FEAF030844274D0AF486A
:10053000844271D0AE4884426ED0401C84426BD05D
:10054000801C844268D000E066E0001D844263D0D5
:10055000A848844260D0A748203084425CD0A44898
:100560003F30844258D0A2487F30844254D0A048C3
:10057000FF30844250D0A04884424DD0A4F50010F2
:10058000803849D010F5202046D0A4F18150803821
:1005900042D0403040D020303ED010303CD00830E7
:1005A0003AD0001D38D0801C36D06FF08150C44244
:1005B00032D0924884422FD0914884422CD0914826
:1005C000844229D0B4F1102F26D04FEA70408442E3
:1005D00022D08D4884421FD08C4884421CD08C4845
:1005E000844219D0A4F18050803815D0403013D007
:1005F000203011D010300FD008300DD0001D0BD09E
:10060000801C09D06FF08050C44205D040F27A229D
:1006100080A18FA002F024FC3DB1012D05D040F255
:100620007B227CA190A002F01BFC9649002C01DAF1
:10063000C8690CE0600001D5086A08E0A00001D597
:10064000486A04E0E00001D5886A00E048688E4A04
:10065000A6B204EA0207C4F340521301A2B29A40C0
:10066000B7F5401F0CD0E70210D5A6024FF00303E8
:10067000C4F3034703FA07F300D51B04984344E08F
:100680004B6820F0706023F0706332E0E70117D50B
:10069000670710D5A30120EA020008D51DB14B68F9
:1006A00043F0010318E04A6822F0010218E04B68A9
:1006B00023F001031BE046F004069E40B043EDE743
:1006C000670121D5270716D5A30120EA02000BD523
:1006D000B5B14B6843F0080343F070634B601AE018
:1006E00042F070624A6017E04B6823F0080343F061
:1006F00070634B600EE046F008069E40B043E7E7AB
:100700004A6822F00802EBE7904314F0E04F01D171
:1007100040F0706005B11043002C02DAC861BDE8FA
:10072000F081620001D50862F9E7A20001D54862B4
:10073000F5E7ABE000011800000218000003180004
:1007400000081A00000C1A000001300000023000FE
:10075000000430000004008002001140200014401A
:1007600040001640000218400003184000041A40E0
:10077000000C1A4000101C4000301C4000401E407D
:1007800000801E4000C01E4001003040000020419B
:10079000040020430000204408002046100034409C
:1007A00040003640000238400003384000043A4020
:1007B000000C3A4000103C4000303C4000403E40BD
:1007C00000C03E4001001020040012201000142040
:1007D00040001620000118200002182000031820F5
:1007E00000041A20000C1A200010002000800020B5
:1007F0000100202010003420000220200080001082
:100800000040001000200010000400100002001042
:10081000000100102E2E5C6669726D776172655C56
:100820006E3332673435785F7374645F70657269F4
:1008300070685F6472697665725C7372635C6E3354
:1008400032673435785F6770696F2E63000000008F
:1008500049535F4750494F5F52454D415028526DB3
:100860007050696E2900000049535F46554E43544D
:10087000494F4E414C5F535441544528436D6429C0
:10088000000000000000014000003070E20001D5CF
:10089000886244E7486042E72DE9F0410446494850
:1008A00000260D46844216D04748844213D047485C
:1008B000844210D0464884420DD0464884420AD033
:1008C0004548844207D04548844204D0BE2244A112
:1008D00052A002F0C5FAE87890B1042810D0282878
:1008E0000ED048280CD014280AD0102808D01C2874
:1008F00006D0182804D0BF2239A14FA002F0B0FAC8
:10090000288820B9C02236A156A002F0A9FAE878BA
:1009100000F00F07C0060ED5A87850B1022808D005
:10092000012806D0032804D0C7222DA156A002F02A
:1009300097FAA878074328784FF00F0C10F0FF0FB4
:100940004FF0010E1BD021682A880EFA06F00240F3
:10095000824210D1B2000CFA02F321EA030307FA33
:1009600002F1EA781943282A02D0482A02D002E08C
:10097000606100E02061761C082EE5D321602888A4
:10098000FF281CD96168002000F108030EFA03F269
:100990002B88134093420ED183000CFA03F6B14327
:1009A00007FA03F6EB783143282B00D16261EB782C
:1009B000482B00D12261401C0828E5D36160BDE8C6
:1009C000F081000000080140000C014000100140CF
:1009D0000014014000180140001C014000200140AB
:1009E0002E2E5C6669726D776172655C6E3332675C
:1009F0003435785F7374645F7065726970685F64C2
:100A000072697665725C7372635C6E33326734351B
:100A1000785F6770696F2E630000000049535F477D
:100A200050494F5F414C4C5F504552495048284710
:100A300050494F782900000049535F4750494F5FA4
:100A40004D4F4445284750494F5F496E6974537470
:100A5000727563742D3E4750494F5F4D6F64652931
:100A60000000000049535F4750494F5F50494E28EE
:100A70004750494F5F496E69745374727563742DA2
:100A80003E50696E2900000049535F4750494F5F4F
:100A90005350454544284750494F5F496E69745348
:100AA00074727563742D3E4750494F5F537065658E
:100AB0006429000070B5044612480D46844217D0E0
:100AC0001148844214D01148844211D01048844205
:100AD0000ED0104884420BD00F48844208D00F48F3
:100AE000844205D04FF4C5720DA11CA002F0B8F9E4
:100AF0002DB940F28B120AA11FA002F0B1F9656175
:100B000070BD000000080140000C014000100140D1
:100B10000014014000180140001C01400020014069
:100B20002E2E5C6669726D776172655C6E3332671A
:100B30003435785F7374645F7065726970685F6480
:100B400072697665725C7372635C6E3332673435DA
:100B5000785F6770696F2E630000000049535F473C
:100B600050494F5F414C4C5F5045524950482847CF
:100B700050494F782900000049535F4750494F5F63
:100B800050494E2850696E290000000070B5044697
:100B900012480D46844217D01148844214D011489F
:100BA000844211D0104884420ED0104884420BD0A9
:100BB0000F48844208D00F48844205D040F2731297
:100BC0000DA11CA002F04CF92DB94FF4BA720AA184
:100BD0001FA002F045F9256170BD0000000801402A
:100BE000000C0140001001400014014000180140B9
:100BF000001C0140002001402E2E5C6669726D775A
:100C00006172655C6E3332673435785F7374645F2C
:100C10007065726970685F6472697665725C737220
:100C2000635C6E3332673435785F6770696F2E634B
:100C30000000000049535F4750494F5F414C4C5FF3
:100C4000504552495048284750494F7829000000E4
:100C500049535F4750494F5F50494E2850696E29AC
:100C60000000000001A001F0EFFFFBE7766F696470
:100C700020486172644661756C745F48616E646C93
:100C8000657228766F6964290D0A000008B5012095
:100C9000ADF8000048208DF8030069460148FFF7D1
:100CA000FBFD08BD000801400E4A10B51078012870
:100CB00016D1002313709078401CC1B20A4891707D
:100CC000012908D093702021FFF7F4FE0120BDE830
:100CD000104000F0C1BA2021FFF758FF0020F6E7CE
:100CE00010BD00000400002000080140044901205C
:100CF0000870AFF207024FF4FA7101F085BF0000EF
:100D000004000020FEE7704708B535208DF800008C
:100D100000208DF801008DF8020001208DF80300FD
:100D2000684600F001F808BD70B50446C0780F258C
:100D300030B1012804D07D2220A12DA002F090F82E
:100D40006078102804D37E221CA1384802F088F86D
:100D5000A078102804D37F2218A1354802F080F82B
:100D6000E0780122F8B133480068617800F4E0606F
:100D7000C0F5E060000AC0F10403C540A0789940C6
:100D8000284008432178000101F1E02181F80004A6
:100D9000207800F01F018A404009800000F1E02027
:100DA000C0F8002170BD207800F01F018A40400982
:100DB000800000F1E020C0F8802170BD2E2E5C661E
:100DC00069726D776172655C6E3332673435785F56
:100DD0007374645F7065726970685F647269766568
:100DE000725C7372635C6D6973632E630000000054
:100DF00049535F46554E4354494F4E414C5F5354FF
:100E0000415445284E5649435F496E697453747284
:100E10007563742D3E4E5649435F49525143686194
:100E20006E6E656C436D642900000000784D00080B
:100E3000344D00080CED00E010B50446B0F5E06F4D
:100E400010D0B4F5C06F0DD0B4F5A06F0AD0B4F5D2
:100E5000806F07D0B4F5407F04D06C2204A111A0AC
:100E600001F0FEFF1A4804431A48046010BD000058
:100E70002E2E5C6669726D776172655C6E333267C7
:100E80003435785F7374645F7065726970685F642D
:100E900072697665725C7372635C6D6973632E63ED
:100EA0000000000049535F4E5649435F5052494F7E
:100EB000524954595F47524F5550284E5649435F47
:100EC0005072696F7269747947726F75702900008A
:100ED0000000FA050CED00E010B5040011D0B4F5E7
:100EE000806F0ED0B4F5A06F0BD0B4F5C06F08D0F2
:100EF000B4F5E06F05D040F2C31205A112A001F0D5
:100F0000AFFF1849486820F4E0602043486010BDF6
:100F10002E2E5C6669726D776172655C6E33326726
:100F20003435785F7374645F7065726970685F648C
:100F300072697665725C7372635C6E3332673435E6
:100F4000785F7263632E630049535F5243435F4887
:100F5000434C4B5F444956285243435F48434C4BF4
:100F6000290000000010024070B504460D480D46EF
:100F7000044200D12CB940F2C2320BA118A001F0FA
:100F80006FFF204E55B1012D05D040F2C33206A1AE
:100F90001DA001F065FF7069204301E07069A04366
:100FA000706170BDA802FCFF2E2E5C6669726D77C1
:100FB0006172655C6E3332673435785F7374645F79
:100FC0007065726970685F6472697665725C73726D
:100FD000635C6E3332673435785F7263632E63000F
:100FE00049535F5243435F4148425F504552495025
:100FF00048285243435F41484250657269706829EE
:10100000000000000010024049535F46554E435413
:10101000494F4E414C5F535441544528436D642918
:101020000000000070B504460D480D46044200D192
:101030002CB940F2FE320BA118A001F011FF204E96
:1010400055B1012D05D040F2FF3206A11DA001F0DF
:1010500007FFF069204301E0F069A043F06170BD33
:10106000003301412E2E5C6669726D776172655C9A
:101070006E3332673435785F7374645F706572699C
:1010800070685F6472697665725C7372635C6E33FC
:1010900032673435785F7263632E630049535F5261
:1010A00043435F415042315F5045524950482852B6
:1010B00043435F41504231506572697068290000B6
:1010C0000010024049535F46554E4354494F4E412C
:1010D0004C5F535441544528436D6429000000007F
:1010E00070B504460D480D46044200D12CB940F2BB
:1010F000DF320BA118A001F0B3FE204E55B1012D37
:1011000005D04FF4787206A11DA001F0A9FEB069C8
:10111000204301E0B069A043B06170BD0286E0FFEA
:101120002E2E5C6669726D776172655C6E33326714
:101130003435785F7374645F7065726970685F647A
:1011400072697665725C7372635C6E3332673435D4
:10115000785F7263632E630049535F5243435F417C
:101160005042325F504552495048285243435F41F4
:1011700050423250657269706829000000100240C8
:1011800049535F46554E4354494F4E414C5F53546B
:1011900041544528436D64290000000070B5294B77
:1011A0005968294A11405A680C0102F4803201D46E
:1011B000022401E06FF4F77404EB914112B15A6814
:1011C000920301D5214A00E0214A51435A68204C3C
:1011D00012F00C0203D0042A01D0082A01D00460C6
:1011E00000E001605A680F2404EA1212194CA55C51
:1011F0000268EA4042605D68072606EA1525655DDB
:1012000022FA05F585605D6806EAD525645D22FA57
:1012100004F4C460DC6A0F4D04F00F0410352C5D3B
:10122000B2FBF4F24261DA6A1F2303EA121202F0FF
:101230000F0205F1100333F81220B1FBF2F1016146
:1012400070BD00000010024000003C0800093D0095
:1012500000127A00C030000870B54FF400451E4CF3
:101260006E1038B101281ED029462046FFF722FC17
:10127000314613E029462046FFF788FC31462046D8
:10128000FFF718FC142001F003FE29462046FFF763
:1012900011FC31462046FFF70DFC01212046BDE838
:1012A0007040FFF707BC31462046FFF76FFC294628
:1012B0002046FFF7FFFB142001F0EAFD29462046F7
:1012C000FFF7F8FB31462046FFF7F4FB2046BDE868
:1012D00070400121FFF75ABC000C0140F8B54FF4F3
:1012E0000044ADF8004010250E4F8DF80350032642
:1012F0008DF8026069463846FFF7CEFA2146384637
:10130000FFF744FC6410ADF800408DF803508DF8F1
:10131000026069463846FFF7BFFA21463846FFF7B4
:1013200035FCF8BD000C01400EB5002000908DF892
:10133000040002902B48016841F4803101604FF4B1
:1013400000420168C1F340418DF804100299491C24
:1013500002919DF8041011B902999142F1D10168EE
:10136000C1F340418DF804109DF80410A1B31E494B
:101370000A6822F007020A600A6842F003020A6063
:1013800041684160416841F400514160416841F465
:10139000A06141604168154A11404160416841F4D3
:1013A000803141F4003141F00261009141600168F7
:1013B00041F08071016001688901FCD5416821F02C
:1013C00003014160416841F0020141604168C1F39D
:1013D00081010229FAD10EBDFFE7064904480860E1
:1013E000F9E700000010024000200240FFFFC0F7B4
:1013F00000127A0000000020042806D0401D0AD008
:10140000CF2205A111A001F02BBD4FF0E020016912
:1014100041F00401016170472E2E5C6669726D77A0
:101420006172655C6E3332673435785F7374645F04
:101430007065726970685F6472697665725C7372F8
:10144000635C6D6973632E630000000049535F5352
:1014500059535449434B5F434C4B5F534F55524391
:1014600045285379735469636B5F434C4B536F75D5
:101470007263652900000000704700001D4810B528
:10148000016841F4700101601B48016841F00101ED
:1014900001604168194A114041600168184A1140D1
:1014A0000160016821F4802101604168154A114002
:1014B00041600021C16201634FF41F018160C16975
:1014C00041F08051C1611049CA6842F00102CA600E
:1014D000C16921F08051C1610C48016841F090015F
:1014E0000160FFF721FF03494FF000608039086079
:1014F00010BD000088ED00E00010024000C0FFF8C1
:10150000FFFFF6FEFFFF00F70070004000200240E2
:101510002DE9F04104461D4616460F462A2000F0EC
:10152000DDF9204600F0CFF9304600F0CCF92B2051
:1015300000F0D4F9384600F0C6F9284600F0C3F9A7
:10154000BDE8F0412C2000F0C9B910B514460B4697
:101550000246FFF7DDFF2046BDE8104000F0B3B9BA
:101560002DE9F04780461F46581E83B21646501E8E
:1015700082B20D464046DDF82090FFF7C9FF0AE031
:10158000444604E0484600F09EF9641CA4B2B4420C
:10159000F8D36D1CADB2BD42F2D3BDE8F0870000B8
:1015A00070B5002400F0D6F9794E4FF40075294645
:1015B0003046FFF77FFA642001F06AFC2946304686
:1015C000FFF7E4FA642001F063FC10213046FFF7D6
:1015D00071FA642001F05CFC362000F07FF9602095
:1015E00000F090F93A2000F079F9052000F08AF92E
:1015F000B22000F073F90C2000F084F90C2000F008
:1016000081F9002000F07EF9332000F07BF93320CF
:1016100000F078F9B72000F061F9352000F072F998
:10162000BB2000F05BF9192000F06CF9C02000F03D
:1016300055F92C2000F066F9C22000F04FF9012086
:1016400000F060F9C32000F049F9122000F05AF9C7
:10165000C42000F043F9202000F054F9C62000F027
:101660003DF90F2000F04EF9D02000F037F9A4200A
:1016700000F048F9A12000F045F9E02000F02EF933
:10168000D02000F03FF9042000F03CF90D2000F0DC
:1016900039F9112000F036F9132000F033F92B202E
:1016A00000F030F93F2000F02DF9542000F02AF925
:1016B0004C2000F027F9182000F024F90D2000F04C
:1016C00021F90B2000F01EF91F2000F01BF9232048
:1016D00000F018F9E12000F001F9D02000F012F933
:1016E000042000F00FF90C2000F00CF9112000F09C
:1016F00009F9132000F006F92C2000F003F93F202F
:1017000000F000F9442000F0FDF8512000F0FAF854
:101710002F2000F0F7F81F2000F0F4F81F2000F051
:10172000F1F8202000F0EEF8232000F0EBF8212063
:1017300000F0D4F8112000F0D1F8292000F0CEF804
:101740002A2000F0CBF8002000F0DCF8002000F0A8
:10175000D9F8002000F0D6F8EF2000F0D3F82B20C5
:1017600000F0BCF8002000F0CDF8002000F0CAF82E
:10177000002000F0C7F8C52000F0C4F82C2000F0CD
:10178000ADF8641CE4B2022CFFF426AF70BD00007B
:10179000000C01402DE9FF4F83B00546DDF844A061
:1017A00000274FEA5A0900905FEA497000D00120F3
:1017B00000EBD90000FB0AF001900498203A504455
:1017C000401E83B205EB090002F0FF0B401E82B2FF
:1017D00028460499FFF79CFE002648E0BAF10C0F5A
:1017E00028D0BAF1100F2BD0BAF1180F42D12449EA
:1017F0000BEB4B0001EB0010002410F80680129850
:1018000000284FF0010000FA04F000EA08001BD0A5
:1018100020B12846069A0499FFF797FE6D1C0098A0
:10182000ADB2291A49451CD10498009D401C80B2D4
:1018300004901AE013490BEB4B0001EB8000DBE74F
:10184000114901EB0B10D7E708B1069800E010989A
:1018500000F039F87F1CFFB2B7FBF9F109FB1170FA
:1018600058B1641CE4B2082CC9D3761CB6B20198F6
:101870008642B3D307B0BDE8F08F0027F5E700003C
:10188000643B000800310008743500082DE9FE4F64
:101890009946DDE90D6714468A460546DDF8308035
:1018A0000CE0CDF800804B4651462846CDE9016753
:1018B000FFF770FF05EB560085B2641C2278002A02
:1018C000EFD1BDE8FE8F10B50446000A00F01AF80B
:1018D000E0B2BDE8104000F015B8000070B5084D4A
:1018E00006464FF4807421462846FFF7E3F8304659
:1018F00000F008F821462846BDE87040FFF746B9D9
:10190000000C014070B5124E054620213046FFF70D
:10191000D1F8002440213046FFF7CCF828064FF0DC
:101920008001304602D5FFF731F901E0FFF7C2F838
:1019300040213046FFF72AF96806641C050EE4B220
:10194000082CE7D33046BDE870402021FFF71EB9D0
:10195000000C014008B54FF47C70ADF80000102079
:101960008DF8030003208DF8020069460548FEF754
:1019700093FF01210920FFF7B3FB01210248FEF785
:10198000D1FC08BD000C01400002300010B5084C2D
:101990000121204600F034FA002807D0012120461A
:1019A00000F008F8BDE8104001F038B910BD0000A3
:1019B0000010004070B5044616480D4684421AD007
:1019C000B4F1804F17D01448844214D01348844295
:1019D00011D0134884420ED0124884420BD01248D2
:1019E000844208D01148844205D040F6224210A11A
:1019F0001DA001F035FA15F47F4F00D12DB940F646
:101A000023420BA11EA001F02BFA2069A8432061FC
:101A100070BD0000002C01400004004000080040A0
:101A2000000C004000100040001400400034014051
:101A30002E2E5C6669726D776172655C6E333267FB
:101A40003435785F7374645F7065726970685F6461
:101A500072697665725C7372635C6E3332673435BB
:101A6000785F74696D2E6300497354696D416C6CC5
:101A70004D6F64756C652854494D7829000000004D
:101A8000497354696D496E742854494D5F4954290E
:101A90000000000070B504461C4816460D468442FE
:101AA0001AD0B4F1804F17D01948844214D0194885
:101AB000844211D0184884420ED0184884420BD07A
:101AC0001748844208D01748844205D04FF47B72EF
:101AD00015A123A001F0C4F9280A00D12DB940F2C4
:101AE000ED3211A124A001F0BBF956B1012E05D0B1
:101AF00040F2EE320CA125A001F0B2F9A0892843F2
:101B000001E0A089A843A08170BD0000002C014025
:101B10000004004000080040000C0040001000409D
:101B200000140040003401402E2E5C6669726D770F
:101B30006172655C6E3332673435785F7374645FED
:101B40007065726970685F6472697665725C7372E1
:101B5000635C6E3332673435785F74696D2E630071
:101B6000497354696D416C6C4D6F64756C65285494
:101B7000494D782900000000497354696D496E741D
:101B80002854494D5F4954290000000049535F46DD
:101B9000554E4354494F4E414C5F53544154452890
:101BA000436D64290000000070B5044615481546D1
:101BB0000E4684421AD0B4F1804F17D012488442A6
:101BC00014D01248844211D0114884420ED01148DA
:101BD00084420BD01048844208D01048844205D07B
:101BE00040F219520EA11CA001F03AF93DB1012DAD
:101BF00005D040F21A520AA11DA001F031F9268544
:101C0000A58270BD002C0140000400400008004087
:101C1000000C00400010004000140040003401405F
:101C20002E2E5C6669726D776172655C6E33326709
:101C30003435785F7374645F7065726970685F646F
:101C400072697665725C7372635C6E3332673435C9
:101C5000785F74696D2E6300497354696D416C6CD3
:101C60004D6F64756C652854494D7829000000005B
:101C7000497354696D50736352656C6F61644D6F45
:101C800064652854494D5F50534352656C6F6164DD
:101C90004D6F646529000000F8B51A4E41F63F709B
:101CA000F0804FF4A060FFF717F901211020FFF733
:101CB000B9F936208DF8000003258DF80150002475
:101CC0008DF8024001208DF803006846FFF72CF8DC
:101CD0000D48042185800180C48044800B4C01465E
:101CE000204600F00FF90122F1882046FFF75CFF43
:101CF000012211462046FFF7CDFE0121204600F0CB
:101D000007F8F8BD04000020140000200010004077
:101D100070B5044618480D4684421AD0B4F1804F7D
:101D200017D01648844214D01548844211D0154863
:101D300084420ED0144884420BD01448844208D008
:101D40001348844205D040F2AF3212A11FA001F027
:101D500087F85DB1012D05D04FF46C720DA121A063
:101D600001F07EF8206840F0010002E0206820F0D9
:101D70000100206070BD0000002C01400004004004
:101D800000080040000C004000100040001400401B
:101D9000003401402E2E5C6669726D776172655C5D
:101DA0006E3332673435785F7374645F706572695F
:101DB00070685F6472697665725C7372635C6E33BF
:101DC00032673435785F74696D2E630049735469E6
:101DD0006D416C6C4D6F64756C652854494D782964
:101DE0000000000049535F46554E4354494F4E4151
:101DF0004C5F535441544528436D64290000000052
:101E000070B505461F4800260C4685421AD0B5F12C
:101E1000804F17D01C48854214D01C48854211D0F1
:101E20001B4885420ED01B4885420BD01A4885427C
:101E300008D01A48854205D040F6FC3218A126A0E9
:101E400001F00EF8012C13D0022C11D0042C0FD06D
:101E5000082C0DD0102C0BD0202C09D0402C07D0F2
:101E6000802C05D040F6FD320DA121A000F0F8FF36
:101E70002969A889214200EA040001D000B10126A5
:101E8000304670BD002C01400004004000080040B6
:101E9000000C0040001000400014004000340140DD
:101EA0002E2E5C6669726D776172655C6E33326787
:101EB0003435785F7374645F7065726970685F64ED
:101EC00072697665725C7372635C6E333267343547
:101ED000785F74696D2E6300497354696D416C6C51
:101EE0004D6F64756C652854494D782900000000D9
:101EF000497354696D476574496E742854494D5F40
:101F0000495429002DE9F05FDFF87CB1DFF87C91BE
:101F1000DFF87CA15F4F604E0D4604464FF08048CD
:101F2000584514D0444512D0BC4210D0B4420ED013
:101F300054450CD05948844209D05948844206D0AF
:101F40004C4504D0BD2257A164A000F089FF6888E9
:101F500060B110280AD0202808D0402806D0602878
:101F600004D0BE224FA163A000F07AFFE88850B1F0
:101F7000B0F5807F07D0B0F5007F04D0BF2249A123
:101F800068A000F06DFF20685A46944209D04C4585
:101F900007D0444505D0BC4203D0B44201D05445DB
:101FA00003D120F07001688808433C498C4206D078
:101FB0003B498C4203D020F44071E88808432060FC
:101FC000A888A08528882085944201D04C4501D15D
:101FD000287A20860120A0822068944209D04C45AE
:101FE00007D0444505D0BC4203D0B44201D054458B
:101FF00008D1697A11B140F4006001E020F400607A
:10200000444505D0BC4203D0B44201D054450FD161
:10201000A97A11B140F4805001E020F48050E97AAF
:1020200011B140F4005001E020F40050444503D0C9
:10203000BC4201D0B44206D1297B11B140F48040AA
:1020400001E020F480405C4507D04C4505D0444574
:1020500003D0BC4201D0B44206D1697B11B140F437
:10206000004001E020F4004020606068444501D059
:10207000B44206D1A97B11B140F4807001E020F494
:1020800080706060BDE8F09F002C0140003401408A
:10209000000C004000040040000800400010004018
:1020A000001400402E2E5C6669726D776172655C6B
:1020B0006E3332673435785F7374645F706572694C
:1020C00070685F6472697665725C7372635C6E33AC
:1020D00032673435785F74696D2E630049735469D3
:1020E0006D416C6C4D6F64756C652854494D782951
:1020F00000000000497354696D436E744D6F646550
:102100002854494D5F54696D6542617365496E6934
:10211000745374727563742D3E436E744D6F6465B1
:1021200029000000497354696D436C6B446976283B
:1021300054494D5F54696D6542617365496E6974B8
:102140005374727563742D3E436C6B446976290039
:1021500070B5114D40F22551284600F019FA10B122
:102160000E4C207820B12846BDE8704000F05CBCE1
:10217000284600F059FC09496288091D50546088BE
:10218000401C6080042000F035FDBDE87040322125
:10219000034A042000F038BD0038014074000020DC
:1021A000C52B00082DE9F047DFF8E080DFF8E0906C
:1021B000DFF8E0A016460D460446404515D04C45D4
:1021C00013D0544511D0344884420ED03348844251
:1021D0000BD03348844208D03248844205D040F2C4
:1021E0007F1231A13FA000F03BFE40F66A17282D78
:1021F0001DD0A5F5E060273819D0A5F5C0602638B8
:1022000015D0A5F5A060253811D0A5F5806024383B
:102210000DD0A5F50060463809D0BD4207D0602D2D
:1022200005D04FF4C07220A135A000F019FE3EB1D8
:10223000012E05D040F281121BA138A000F010FE43
:10224000BD420BD1444509D04C4507D0544505D07B
:1022500040F2851214A138A000F002FE05F01F0222
:102260000120C5F342119040012906D0022906D071
:10227000143421682EB1014304E00C34F9E7103422
:10228000F7E781432160BDE8F08700000038014096
:102290000044004000480040004C00400050004016
:1022A00000500140005401402E2E5C6669726D772B
:1022B0006172655C6E3332673435785F7374645F66
:1022C0007065726970685F6472697665725C73725A
:1022D000635C6E3332673435785F75736172742E68
:1022E0006300000049535F55534152545F414C4CC9
:1022F0005F5045524950482855534152547829005F
:1023000049535F55534152545F4346475F494E54CA
:102310002855534152545F494E54290049535F4652
:10232000554E4354494F4E414C5F535441544528F8
:10233000436D64290000000049535F5553415254D6
:102340005F3132335F50455249504828555341520E
:102350005478290070B5044616480D46844217D0BB
:102360001548844214D01548844211D01448844240
:102370000ED0144884420BD01348844208D013482E
:10238000844205D040F2591211A120A000F068FD4E
:102390005DB1012D05D04FF4AD720DA122A000F06A
:1023A0005FFDA08940F4005002E0A08920F40050B5
:1023B000A08170BD0038014000440040004800404A
:1023C000004C0040005000400050014000540140CB
:1023D0002E2E5C6669726D776172655C6E33326752
:1023E0003435785F7374645F7065726970685F64B8
:1023F00072697665725C7372635C6E333267343512
:10240000785F75736172742E6300000049535F55E5
:10241000534152545F414C4C5F50455249504828FB
:10242000555341525478290049535F46554E435401
:10243000494F4E414C5F535441544528436D6429E4
:10244000000000002DE9F047264F0026DFF89880B5
:10245000DFF898900C460546B84215D0454513D094
:102460004D4511D0224885420ED0224885420BD0DE
:102470002148854208D02148854205D040F21932D2
:102480001FA12EA000F0ECFC012C24D0802C22D027
:10249000402C20D0202C1ED0102C1CD0B4F5807FD6
:1024A00019D0B4F5007F0AD0082C14D0042C12D017
:1024B000022C10D040F21A3211A127A009E0BD422F
:1024C00009D0454507D04D4505D040F21E320CA13C
:1024D00028A000F0C5FC2888204200D00126304604
:1024E000BDE8F0870038014000440040004800404B
:1024F000004C00400050004000500140005401409A
:102500002E2E5C6669726D776172655C6E33326720
:102510003435785F7374645F7065726970685F6486
:1025200072697665725C7372635C6E3332673435E0
:10253000785F75736172742E6300000049535F55B4
:10254000534152545F414C4C5F50455249504828CA
:10255000555341525478290049535F5553415254C1
:102560005F464C41472855534152545F464C4147C2
:102570002900000049535F55534152545F313233B3
:102580005F504552495048285553415254782900CC
:102590002DE9F047DFF8E8800026DFF8E890DFF863
:1025A000E8A00C460546404515D04D4513D055458D
:1025B00011D0364885420ED0354885420BD035487B
:1025C000854208D03448854205D040F26B3233A1B1
:1025D00041A000F045FC282C34D0A4F5E06040F682
:1025E0006A17273820D0A4F5C06026381CD0A4F57F
:1025F000A060253818D0A4F58060243814D0A4F544
:102600000060463810D0BC420ED0B4F5587F19D0C7
:10261000B4F5187F16D0B4F5B07F13D04FF45B72C9
:102620001EA134A000F01CFCBC420BD1454509D0D2
:102630004D4507D0554505D04FF45C7217A134A025
:1026400000F00EFC04F01F020123C4F3421103FA50
:1026500002F0012910D0022910D0A98A4FEA1422D1
:1026600003FA02F32A88014202EA030201D002B10E
:1026700001263046BDE8F087A989EFE7298AEDE712
:10268000003801400044004000480040004C004039
:102690000050004000500140005401402E2E5C6666
:1026A00069726D776172655C6E3332673435785F5D
:1026B0007374645F7065726970685F64726976656F
:1026C000725C7372635C6E3332673435785F757336
:1026D0006172742E6300000049535F555341525498
:1026E0005F414C4C5F504552495048285553415228
:1026F0005478290049535F55534152545F4745541C
:102700005F494E542855534152545F494E54290055
:1027100049535F55534152545F3132335F504552F4
:102720004950482855534152547829002DE9F04F1B
:102730005D4E5E4FDFF87881DFF87891DFF878A1A1
:1027400087B00D460446B04212D0BC4210D044457A
:102750000ED05A4884420BD05948844208D04C4588
:1027600006D0544504D0C42256A165A000F078FBE1
:1027700028686A49401E884204D3C52251A168A036
:1027800000F06EFBA8884FF4805B30B1584504D050
:10279000C6224CA16EA000F063FBE88860B15845EA
:1027A0000AD0B0F5005F07D0B0F5405F04D0C72273
:1027B00044A174A000F054FB288950B1B0F5806F9B
:1027C00007D0B0F5C06F04D0C8223EA179A000F0B8
:1027D00047FB688930F00C0100D120B9C92239A12A
:1027E0007FA000F03DFBA88900281AD0B0F5807FBB
:1027F0000CD0B0F5007F09D0B0F5407F06D0CA22DA
:1028000030A1814800F02CFBA88950B1B44208D017
:10281000BC4206D0444504D0CE222AA17BA000F0C1
:102820001FFB208A4CF6FF710840E9880143218292
:10283000A1894EF6F3100140A8882A8910436A89BD
:102840000A431043A081A08A4FF6FF410840A9899E
:102850000143A1826846FEF7A1FCB44203D04C4577
:1028600001D0544501D1039800E00298642200EBA6
:10287000C00101EB001029686FF018058900B0FB5A
:10288000F1F1B1FBF2F0000103096B4301EB8301AD
:10289000322303EB0111B1FBF2F101F00F0101430F
:1028A000218107B0BDE8F08F0038014000440040AE
:1028B000004800400050014000540140004C0040DE
:1028C000005000402E2E5C6669726D776172655C07
:1028D0006E3332673435785F7374645F7065726924
:1028E00070685F6472697665725C7372635C6E3384
:1028F00032673435785F75736172742E630000003F
:1029000049535F55534152545F414C4C5F504552BF
:1029100049504828555341525478290020AA440070
:1029200049535F55534152545F42415544524154BB
:10293000452855534152545F496E697453747275FA
:1029400063742D3E42617564526174652900000014
:1029500049535F55534152545F574F52445F4C4562
:102960004E4754482855534152545F496E69745339
:1029700074727563742D3E576F72644C656E677424
:102980006829000049535F55534152545F53544FD7
:1029900050424954532855534152545F496E69740B
:1029A0005374727563742D3E53746F7042697473FF
:1029B0002900000049535F55534152545F50415222
:1029C0004954592855534152545F496E69745374A0
:1029D000727563742D3E506172697479290000002C
:1029E00049535F55534152545F4D4F444528555309
:1029F0004152545F496E69745374727563742D3E0D
:102A00004D6F646529000000C84D000849535F55AB
:102A1000534152545F3132335F5045524950482838
:102A2000555341525478290010B504460F4884424A
:102A300017D00F48844214D00E48844211D00E485B
:102A400084420ED00D4884420BD00D48844208D0F9
:102A50000C48844205D040F251220BA119A000F08D
:102A6000FFF9A088C0F3080010BD00000038014045
:102A70000044004000480040004C0040005000402E
:102A800000500140005401402E2E5C6669726D7743
:102A90006172655C6E3332673435785F7374645F7E
:102AA0007065726970685F6472697665725C737272
:102AB000635C6E3332673435785F75736172742E80
:102AC0006300000049535F55534152545F414C4CE1
:102AD0005F50455249504828555341525478290077
:102AE00070B5044614480D46844217D013488442FA
:102AF00014D01348844211D0124884420ED0124898
:102B000084420BD01148844208D01148844205D039
:102B10004FF410720FA11EA000F0A2F9B5F5007FCE
:102B200005D340F241220BA120A000F099F9C5F392
:102B30000800A08070BD0000003801400044004043
:102B400000480040004C0040005000400050014050
:102B5000005401402E2E5C6669726D776172655C6F
:102B60006E3332673435785F7374645F7065726991
:102B700070685F6472697665725C7372635C6E33F1
:102B800032673435785F75736172742E63000000AC
:102B900049535F55534152545F414C4C5F5045522D
:102BA00049504828555341525478290049535F559C
:102BB000534152545F444154412844617461290097
:102BC000FEE70000024901200870042000F012B85E
:102BD0007400002000200649024601EBC00341F8C2
:102BE0003020401CC0B25A600A28F6D3FFF754B810
:102BF00024000020034A002142F8301002EBC000FC
:102C00004160704724000020034B43F8301003EB71
:102C1000C0004260704700002400002070B5094DDC
:102C2000002455F8340040B1401E05EBC40145F8BE
:102C30003400496809B100B98847641CE4B20A2C21
:102C4000EFD370BD240000200FB4054B10B503A9CD
:102C5000044A029800F028F810BC5DF814FB00004C
:102C6000A92E0008100000200907090E002804DB27
:102C700000F1E02080F80014704700F00F0000F130
:102C8000E02080F8141D704702E008C8121F08C138
:102C9000002AFAD170477047002001E001C1121FDD
:102CA000002AFBD1704700002DE9FF4F8BB09A46F8
:102CB0000F460546002606E025280BD052460D9902
:102CC00090476D1C761C28780028F5D10FB030464F
:102CD000BDE8F08F0024A0460122604900E00443D3
:102CE00015F8013F203B02FA03F00842F7D128789B
:102CF0002E2817D115F8010F44F004042A280ED00D
:102D00006FF02F022878A0F1300109290AD808EBCA
:102D1000880102EB410100EB01086D1CF2E757F856
:102D2000048B6D1C287869283ED006DC0028CDD0A5
:102D300063280BD0642804D136E0732810D075289E
:102D40004BD052460D999047761C85E017F8040B3E
:102D50008DF8000000208DF80100E946012003E015
:102D600057F8049B4FF0FF3061074FF0000401D487
:102D70000AE0641C44450DDA8442FADB19F80410B9
:102D80000029F6D106E0641C8442FCDB19F804102B
:102D90000029F8D1264404E019F8010B52460D9998
:102DA0009047641EF8D257E001CF4FF00A0B00287D
:102DB00002DA40422D2102E0210504D52B218DF8B5
:102DC0002410012103E0E10705D02021F7E70DF1F0
:102DD000200908910CE00021F9E701CF4FF00A0B20
:102DE000F9E75946FDF7F4F901F1300209F8012D30
:102DF0000028F6D1ADEB090000F1200B600701D4EB
:102E00004FF00108D84502DDA8EB0B0000E00020E0
:102E10008046002406E009A85246005D0D999047BF
:102E2000641C761C08988442F5DB04E0302052468E
:102E30000D999047761CB8F10001A8F10108F5DC66
:102E400005E019F8010B52460D999047761CBBF12D
:102E50000001ABF1010BF4DC6D1C34E70928010023
:102E600013460A46014602A0FFF7EEFEFEE7000009
:102E7000617373657274696F6E206661696C6564F5
:102E80003A20602573602061742025733A25640020
:102E9000002246F2A81303E01946491EFDD1521C38
:102EA0008242F9D37047000070B5074D0446C1B2A5
:102EB0002846FFF715FE40212846FFF7C3FA0028F1
:102EC000F9D0204670BD00000050004030B587B0FA
:102ED0006846FEF763F9012140F2FD10FEF700F9A4
:102EE00001210804FEF740F84FF44070FDF7A4FFFD
:102EF0000420FEF781FA01986421B0FBF1F1491E2C
:102F00004FF0FF35B1F1807F0AD24FF0E0246161CC
:102F10000F212846FFF7A8FE0020A06107202061AE
:102F200000212846FFF7A0FEFDF7EEFE07B030BDFA
:102F300010B586B0FDF7E8FE01213120FEF7D0F88C
:102F400001210805FEF76EF84FF48050ADF810002F
:102F500018208DF8130003208DF8120004A91648DC
:102F6000FDF79AFC0420ADF810008DF8130004A9B9
:102F70001248FDF791FC4FF4E13000900020ADF8CD
:102F80000400ADF80600ADF80800ADF80C0008200C
:102F90000B4CADF80A0069462046FFF7C7FB01223B
:102FA00040F225512046FFF7FDF801212046FFF7AA
:102FB000D1F9208806B010BD001001400014014076
:102FC00000500040F8B52020ADF800001025214E3B
:102FD0008DF8035001248DF8024069463046FDF714
:102FE0005BFC20213046FDF7D1FD1B4A4FF4FA71FE
:102FF0000120FFF709FE8020ADF800008DF8035096
:103000008DF8024069463046FDF746FC8021304687
:10301000FDF7BCFDADF80050104E8DF803508DF853
:10302000024069463046FDF737FC10213046FDF777
:10303000ADFDADF800408DF803508DF80240084C0E
:1030400069462046FDF728FC01212046FDF79EFD3C
:10305000F8BD000000080140ED0C00080010014020
:10306000000C01400EB5FFF731FFFDF7F1F80DA0A0
:10307000FFF7EAFD4FF6FF740021F0234FF4A07232
:1030800008460094FEF76CFA002010210094CDE968
:1030900001104FF4784307A20146FEF7F7FBFDF756
:1030A000EBF8FCE768656C6C6F20776F726C640DF1
:1030B0000A00000069206D69737320796F75000044
:1030C00000000000010203040102030406070809CE
:1030D00001020406080A0C102020202020202020B5
:1030E000010002000400060008000A000C001000A5
:1030F00020004000800000010001000100010001EB
:1031000000000000000000000000000000000404B7
:10311000040404000004000014140A00000000006D
:103120000000000000000A0A1F0A0A1F0A0A000025
:1031300000040E1505060C14150E040000001215EF
:103140000D152E2C2A1200000000040A0A3615154F
:10315000291600000202010000000000000000002B
:1031600010080804040404040808100002040408F9
:10317000080808080404020000000004150E0E15DB
:103180000400000000000008083E080800000000DD
:10319000000000000000000002020100000000002A
:1031A000003F0000000000000000000000000000E0
:1031B00000020000002010100808040402020100B0
:1031C00000000E1111111111110E00000000040673
:1031D00004040404040E000000000E11110804028F
:1031E000011F000000000E11100C1010110E000045
:1031F0000000080C0C0A091F081C000000001F0139
:10320000010F1110110E000000000C12010D13111E
:10321000110E000000001E10080804040404000041
:1032200000000E11110E1111110E000000000E1100
:10323000111916100906000000000000040000002B
:10324000000400000000000000040000000404006E
:103250000000100804020204081000000000000032
:103260003F003F00000000000000020408101008AA
:103270000402000000000E11110804040004000004
:1032800000001C22292D2D1D221C0000000004041A
:103290000C0A0A1E1233000000000F12120E121246
:1032A000120F000000001E1101010101110E0000AB
:1032B00000000F1212121212120F000000001F1253
:1032C0000A0E0A02121F000000001F120A0E0A0254
:1032D0000207000000001C1201013911120C00004D
:1032E00000003312121E12121233000000001F04DD
:1032F00004040404041F000000003E080808080835
:1033000008080907000037120A060A1212370000DF
:103310000000070202020202223F000000003B1BE5
:103320001B1B15151535000000003B1216161A1A46
:103330001217000000000E1111111111110E0000E2
:1033400000000F12120E02020207000000000E1110
:1033500011111117190E180000000F12120E0A1287
:103360001237000000001E1101060810110F0000A6
:1033700000001F1504040404040E000000003312B2
:1033800012121212120C000000003312120A0A0C60
:10339000040400000000151515150E0A0A0A0000A5
:1033A00000001B0A0A04040A0A1B000000001B0A92
:1033B0000A0A0404040E000000001F0908040402A5
:1033C000121F00001C0404040404040404041C0070
:1033D0000002020404040808081010000E0808087F
:1033E0000808080808080E00040A00000000000091
:1033F0000000000000000000000000000000003F8E
:1034000002040000000000000000000000000000B6
:10341000000C121C123C000000030202020E1212E9
:10342000120E000000000000001C1202120C00002E
:1034300000181010101C1212123C000000000000B6
:10344000000C121E021C000000182404041E0404B8
:10345000041E000000000000003C120C021C221C94
:1034600000030202020E12121237000000040400D0
:1034700000060404040E000000080800000C080800
:103480000808080700030202021A0A060A130000CD
:103490000007040404040404041F000000000000EA
:1034A000000F15151515000000000000000F121286
:1034B0001237000000000000000C1212120C000075
:1034C00000000000000F1212120E020700000000A0
:1034D000001C1212121C103800000000001B060213
:1034E0000207000000000000001E020C101E000079
:1034F00000000004041E0404041C0000000000007E
:10350000001B1212123C000000000000001B0A0AFF
:1035100004040000000000000015150E0A0A000057
:1035200000000000001B0A040A1B0000000000004D
:10353000003312120C08040300000000001E0804EF
:10354000041E000018080808080C080808081800DD
:1035500008080808080808080808080806040404F9
:10356000040804040404060016090000000000001A
:10357000000000000000000000000000000000004B
:103580000000000000000008080808080808000003
:103590001818000000486C24120000000000000011
:1035A000000000000000002424247F1212127F1269
:1035B000121200000000081C2A2A0A0C1828282AC7
:1035C0002A1C080800000022251515152A585454F5
:1035D000542200000000000C1212120A7625291154
:1035E000916E0000000606040300000000000000C9
:1035F000000000000040201010080808080808100B
:1036000010204000000204080810101010101008CC
:10361000080402000000000008086B1C1C6B08086E
:103620000000000000000000080808087F080808E3
:103630000800000000000000000000000000000082
:10364000060604030000000000000000FE00000069
:10365000000000000000000000000000000000006A
:1036600006060000000080404020201010080804DA
:103670000402020000000018244242424242424238
:1036800024180000000000080E08080808080808B0
:10369000083E00000000003C424242202010080486
:1036A000427E00000000003C424220182040404280
:1036B000221C0000000000203028242422227E202A
:1036C000207800000000007E0202021A26404042DC
:1036D000221C0000000000382402021A2642424246
:1036E000241800000000007E22221010080808089C
:1036F000080800000000003C4242422418244242D4
:10370000423C0000000000182442424264584040FD
:10371000241C000000000000000018180000000039
:103720001818000000000000000000080000000061
:1037300000080804000000402010080402040810DB
:10374000204000000000000000007F0000007F001B
:1037500000000000000000020408102040201008B3
:10376000040200000000003C4242464020101000CD
:10377000181800000000001C225A555555552D42BE
:10378000221C00000000000808181414243C2242E7
:1037900042E700000000001F2222221E2242424275
:1037A000221F00000000007C424201010101014291
:1037B000221C00000000001F2242424242424242BC
:1037C000221F00000000003F4212121E121202428D
:1037D000423F00000000003F4212121E121202027D
:1037E000020700000000003C222201010171212299
:1037F000221C0000000000E7424242427E42424258
:1038000042E700000000003E080808080808080811
:10381000083E00000000007C101010101010101066
:103820001010110F0000007722120A0E0A12122245
:1038300022770000000000070202020202020202D8
:10384000427F000000000077363636362A2A2A2AC0
:103850002A6B0000000000E346464A4A5252526278
:10386000624700000000001C2241414141414141AA
:10387000221C00000000003F424242423E0202027F
:10388000020700000000001C2241414141414D530C
:10389000321C60000000003F4242423E12122222CF
:1038A00042C700000000007C42420204182040424F
:1038B000423E00000000007F490808080808080888
:1038C000081C0000000000E74242424242424242DD
:1038D000423C0000000000E7424222242414141855
:1038E000080800000000006B494949495555362237
:1038F00022220000000000E7422424181818242483
:1039000042E700000000007722221414080808088B
:10391000081C00000000007E212010100804044252
:10392000423F00000078080808080808080808084E
:10393000080878000000020204040808081010209B
:1039400020204040001E10101010101010101010F9
:1039500010101E00003844000000000000000000AD
:103960000000000000000000000000000000000057
:10397000000000FF0006080000000000000000003A
:1039800000000000000000000000003C42784442BB
:1039900042FC0000000000030202021A26424242DA
:1039A000261A000000000000000000384402020255
:1039B00044380000000000604040407844424242E9
:1039C00064D80000000000000000003C427E0202BB
:1039D000423C0000000000F08808087E0808080843
:1039E000083E0000000000000000007C22221C02B3
:1039F0003C42423C000000030202023A464242427C
:103A000042E700000000000C0C00000E0808080847
:103A1000083E000000000030300000382020202048
:103A20002020221E0000000302020272120A161257
:103A3000227700000000000E08080808080808089F
:103A4000083E0000000000000000007F9292929269
:103A500092B70000000000000000003B46424242D6
:103A600042E70000000000000000003C42424242E9
:103A7000423C0000000000000000001B26424242C1
:103A8000221E02070000000000000078444242426B
:103A9000447840E000000000000000774C0404047B
:103AA000041F0000000000000000007C42023C40B7
:103AB000423E0000000000000008083E0808080818
:103AC0000830000000000000000000634242424253
:103AD00062DC000000000000000000E74224241423
:103AE0000808000000000000000000EB494955559F
:103AF00022220000000000000000007624181818A0
:103B0000246E000000000000000000E7422424149E
:103B100018080807000000000000007E22100808B6
:103B2000447E000000C020202020201020202020E3
:103B30002020C000101010101010101010101010C5
:103B400010101010000608080808081008080808D7
:103B5000080806000C32C20000000000000000004F
:103B60000000000000000000000000000000000055
:103B70000000000000000000000000000000000045
:103B80000000000000000000000000000000000035
:103B90000000000000000000000000006000600065
:103BA00060006000600060006000400020002000B5
:103BB00020000000000000006000600060000000C5
:103BC000000000000000000060066006300398015D
:103BD0008800440000000000000000000000000019
:103BE00000000000000000000000000000000000D5
:103BF00000000000000000000000000010021002A1
:103C000010021002FE07FE07080208010801080161
:103C10000801FE07FE07040104010401040100007D
:103C20000000000000000000000040004000F00123
:103C300058034C03CC034C0058007000E000C00156
:103C4000C00140034C035C034C034801F0004000FA
:103C50004000000000000000000000000E010A010A
:103C6000910091009100510051003A00AE03A00272
:103C700050045004480448044804840284030000AB
:103C800000000000000000000000000038006C0090
:103C90006C006C006C006C002C0098071C011A0171
:103CA000330133016301E300C308C6093C07000088
:103CB00000000000000000000C001C0010001000BC
:103CC00008000400000000000000000000000000E8
:103CD00000000000000000000000000000000000E4
:103CE000000000000000000000040002000180004D
:103CF0008000400040002000200020002000200024
:103D000020002000400040008000800000010002F0
:103D10000004000000000000020004000800100081
:103D20001000200020004000400040004000400003
:103D30004000400020002000100010000800040097
:103D40000200000000000000000000000000000071
:103D50004000C0004000460C4E0FD001F0015E0F45
:103D6000460C400040004000000000000000000041
:103D70000000000000000000000000000000000043
:103D8000000040004000400040004000FE0F4000A6
:103D90004000400040004000000000000000000023
:103DA0000000000000000000000000000000000013
:103DB0000000000000000000000000000000000003
:103DC00000000000000000000C001C0010001000AB
:103DD00008000400000000000000000000000000D7
:103DE000000000000000000000000000FE070000CE
:103DF00000000000000000000000000000000000C3
:103E000000000000000000000000000000000000B2
:103E100000000000000000000000000000000000A2
:103E200000000000000000001C001C001C0000003E
:103E30000000000000000000000400060002000373
:103E40000001000180008000400040006000200070
:103E5000200010001000080008000C0004000600FC
:103E60000200000000000000000000000000F00060
:103E700098010C030C03060606060606060606064F
:103E80000606060606060C030C039801F000000067
:103E900000000000000000000000000000004000E2
:103EA0007C006000600060006000600060006000F6
:103EB000600060006000600060006000FC030000C3
:103EC0000000000000000000000000000000F800FA
:103ED0008401020306030603000300018001C00001
:103EE000600020001000080204020602FE03000029
:103EF000000000000000000000000000000078004A
:103F0000C6008601860180018001C000700080012A
:103F1000000100030003060306038601F800000009
:103F20000000000000000000000000000000800110
:103F30008001C001A001A0019001880188018401D5
:103F40008201FE0F8001800180018001E0070000F6
:103F50000000000000000000000000000000FC0362
:103F600004000400040004000400F4008C010403B5
:103F7000000300030603060382018401F800000029
:103F80000000000000000000000000000000E00150
:103F900018030C030C0004000600E60116030E06CD
:103FA00006060606060604060C021803F0000000CA
:103FB0000000000000000000000000000000F80702
:103FC0000C06040204010001000180008000400092
:103FD0004000400060006000600060006000000081
:103FE0000000000000000000000000000000F801D8
:103FF0000C030606060606060C021C03F000C801A8
:104000000C0306060606060606060C03F001000071
:104010000000000000000000000000000000F000B0
:104020000C010C03060206060606060606078C06A9
:1040300078060006000300030C018C0178000000E4
:104040000000000000000000000000000000000070
:104050000000000000000000E000E000E0000000C0
:104060000000000000000000E000E000E0000000B0
:104070000000000000000000000000000000000040
:104080000000000000000000600060000000000070
:104090000000000000000000000060006000400020
:1040A00020002000000000000000000000040002CA
:1040B00000018000400020001000080004000800FB
:1040C00010002000400080000001000200040000F9
:1040D00000000000000000000000000000000000E0
:1040E0000000000000000000FE07000000000000CB
:1040F000FE070000000000000000000000000000BB
:1041000000000000000000000000000004000800A3
:1041100010002000400080000001000200040002A6
:104120000001800040002000100008000400000092
:104130000000000000000000000000000000E0039C
:104140001806040C040C0C0C0C0C00078001400039
:104150004000400000000000E000E000E00000003F
:10416000000000000000000000000000E000180354
:104170000C02CC0564056605A605B604B604B604B3
:10418000B604B602E4010C040C021803F0000000AF
:1041900000000000000000000000000000006000BF
:1041A00060005000D0009000900088008801080155
:1041B000F801040304030402020202060F0F0000C8
:1041C0000000000000000000000000000000FE00F1
:1041D0008C030C030C030C030C038C01FC000C037C
:1041E0000C020C060C060C060C060C03FE0100006B
:1041F0000000000000000000000000000000E003DC
:1042000018030C060C040404060006000600060051
:104210000600060006040C040C021803F00000005F
:1042200000000000000000000000000000007F000F
:104230008C010C030C030C060C060C060C060C0679
:104240000C060C060C060C030C038C017F0000000E
:104250000000000000000000000000000000FF035C
:10426000060306040604060086008600FE0086009B
:10427000860086000600060406040602FF0300000E
:104280000000000000000000000000000000FF032C
:10429000060306040604060086008600FE0086006B
:1042A0008600860006000600060006001F000000CB
:1042B0000000000000000000000000000000F0000E
:1042C00018010C020C02040206000600060006009B
:1042D000C60F060306030C030C031803F0000000CE
:1042E00000000000000000000000000000000F0FB0
:1042F000060606060606060606060606FE07060665
:104300000606060606060606060606060F0F000047
:104310000000000000000000000000000000FC039E
:10432000600060006000600060006000600060008D
:10433000600060006000600060006000FC0300003E
:104340000000000000000000000000000000F8076E
:10435000C000C000C000C000C000C000C000C0005D
:10436000C000C000C000C000C000C000C000C60047
:1043700066003C0000000000000000000000CF03C9
:104380008601C60046002600160036002E006E008C
:104390004600C60086008601060106038F0700005E
:1043A00000000000000000000000000000001F00EE
:1043B00006000600060006000600060006000600CD
:1043C000060006000600060406040602FF030000BD
:1043D00000000000000000000000000000000707CF
:1043E000860386038E038E034E034E034A035A034D
:1043F0005A033A03320332033203120387070000E1
:1044000000000000000000000000000000008E0F0F
:104410000C021C021C0234023402640264024402D4
:10442000C402840284038403040304031F02000003
:104430000000000000000000000000000000F0008C
:1044400098010C030C02060606060606060606067A
:104450000606060606060C020C039801F000000092
:104460000000000000000000000000000000FF004D
:104470000603060606060606060606068603FE0070
:104480000600060006000600060006001F000000E9
:104490000000000000000000000000000000F0002C
:1044A00098010C030C02060606060606060606061A
:1044B0000606060676064C02CC039801F00080073B
:1044C0000003000000000000000000000000FF01E9
:1044D000060306060606060606060603FE00460056
:1044E000C600860086010603060306060F0E0000BE
:1044F0000000000000000000000000000000F802C2
:104500000C030602060206000E003C00F800E00361
:10451000800300070206020606060C03F0010000F5
:104520000000000000000000000000000000FE0786
:104530006204610861086000600060006000600063
:10454000600060006000600060006000F801000032
:1045500000000000000000000000000000001E0736
:104560000C020C020C020C020C020C020C020C02DB
:104570000C020C020C020C020C021801F0000000EC
:1045800000000000000000000000000000000F0715
:104590000602040104010C010C0188008800980047
:1045A00098005000500070003000200020000000F3
:1045B0000000000000000000000000000000F70EF6
:1045C000620442044604460464026402E402E40213
:1045D0009C029C01980198018801880088000000D5
:1045E00000000000000000000000000000009E0726
:1045F0000C01080118019000B0006000200060006C
:104600006000D00090008801080104038E070000BC
:1046100000000000000000000000000000000F0F7C
:10462000060404020C0208011801B800B000700072
:10463000600060006000600060006000F801000041
:104640000000000000000000000000000000FC0767
:104650000C0206030201800180004000400020009F
:1046600020001000180008040C040402FE030000DF
:104670000000000000000000E003200020002000F7
:10468000200020002000200020002000200020002A
:10469000200020002000200020002000200020001A
:1046A000E00300000000000000000000040004001F
:1046B000080008001000100010002000200040003A
:1046C0004000C000800080000001000100020002E4
:1046D00000020004000000007C0040004000400098
:1046E00040004000400040004000400040004000CA
:1046F00040004000400040004000400040004000BA
:104700007C00000000006000900008010000000034
:104710000000000000000000000000000000000099
:104720000000000000000000000000000000000089
:104730000000000000000000000000000000000079
:104740000000000000000000000000000000000069
:104750000000000000000000000000000000000059
:104760000000FF0F000000001800600000000000C3
:104770000000000000000000000000000000000039
:104780000000000000000000000000000000000029
:104790000000000000000000000000000000000019
:1047A0000000000000000000F0010C030C030003F7
:1047B000E0031C030E03060306038E0B7C0E0000B1
:1047C00000000000000000000000000008000E00D3
:1047D0000C000C000C000C00CC013C031C060C0669
:1047E0000C060C060C060C060C021C03E40100006F
:1047F00000000000000000000000000000000000B9
:104800000000000000000000F0008C018C01860117
:1048100006000600060006020C020C01F000000073
:104820000000000000000000000000000002C003C3
:10483000000300030003000378038C030C0306034A
:10484000060306030603060304038C077801000031
:104850000000000000000000000000000000000058
:104860000000000000000000E001180308020C0630
:104870000C06FC070C000C0018041802E0010000F4
:104880000000000000000000000000000000C00365
:104890006006300630003000FE013000300030008D
:1048A000300030003000300030003000FC010000EB
:1048B00000000000000000000000000000000000F8
:1048C0000000000000000000F007D8068C018C01F9
:1048D0008C019801F8000C00FC00CC0306030603D1
:1048E0008E03F800000000000000000008000E0029
:1048F0000C000C000C000C00EC011C030C030C035E
:104900000C030C030C030C030C030C039E070000A8
:104910000000000000000000000000000000600037
:1049200060000000000040007C006000600060004B
:10493000600060006000600060006000FC03000038
:104940000000000000000000000000000000C001A6
:10495000C001000000000001F00180018001800121
:10496000800180018001800180018001800180013F
:10497000CC007C00000000000000000008000E00D9
:104980000C000C000C000C008C038C008C004C0004
:104990006C005C008C008C010C010C039E07000075
:1049A00000000000000000000000000040007C004B
:1049B00060006000600060006000600060006000F7
:1049C000600060006000600060006000FC030000A8
:1049D00000000000000000000000000000000000D7
:1049E00000000000000000003707EE0666066606BD
:1049F000660666066606660666066606FF0F000021
:104A000000000000000000000000000000000000A6
:104A10000000000000000000EE011C030C030C036A
:104A20000C030C030C030C030C030C039E07000087
:104A30000000000000000000000000000000000076
:104A40000000000000000000F00098010C030606C2
:104A500006060606060606060C030C03F000000018
:104A60000000000000000000000000000000000046
:104A70000000000000000000EE011C030C060C0604
:104A80000C060C060C060C060C031C03EC010C00B7
:104A90000C003E00000000000000000000000000CC
:104AA000000000000000000078028C030C030603E5
:104AB000060306030603060304038C0378030003BE
:104AC0000003C0070000000000000000000000001C
:104AD00000000000000000009F0358063806180080
:104AE000180018001800180018001800FF00000037
:104AF00000000000000000000000000000000000B6
:104B00000000000000000000F0031C030C020C0277
:104B10003800F000C003040304038C03FC01000010
:104B20000000000000000000000000000000000085
:104B30002000200030003000FE0130003000300046
:104B4000300030003000300030023002E001000060
:104B50000000000000000000000000000000000055
:104B600000000000000008028E030C030C030C037D
:104B70000C030C030C030C030C039C0778010000CE
:104B80000000000000000000000000000000000025
:104B900000000000000000001E070C0208010801D0
:104BA00018019000B000B00060006000200000001C
:104BB00000000000000000000000000000000000F5
:104BC0000000000000000000F70E620446046402CA
:104BD0006402EC029C019801980198010800000011
:104BE00000000000000000000000000000000000C5
:104BF0000000000000000000BC0718011001B00018
:104C000060006000E0009000080108039E070000BB
:104C10000000000000000000000000000000000094
:104C200000000000000000009E07080108010801C4
:104C300090009000B0006000600060002000200044
:104C400024001C0000000000000000000000000024
:104C50000000000000000000FC018401C4004400CA
:104C6000600020003000180208020C03FC01000064
:104C700000000000000000000003800080008000B1
:104C80008000800080008000800040002000400004
:104C90008000800080008000800080008000800014
:104CA0000003000040004000400040004000400081
:104CB00040004000400040004000400040004000F4
:104CC00040004000400040004000400040004000E4
:104CD00040004000000000000C0010001000100018
:104CE00010001000100010001000200040002000F4
:104CF0001000100010001000100010001000100034
:104D00000C00000000001C002204C204800300000C
:104D10000000000000000000000000000000000093
:104D20000000000000000000000000000000000083
:104D30000000000049535F4E5649435F5355425FA0
:104D40005052494F52495459284E5649435F496E73
:104D500069745374727563742D3E4E5649435F49AE
:104D600052514368616E6E656C5375625072696F23
:104D7000726974792900000049535F4E5649435FB8
:104D8000505245454D5054494F4E5F5052494F5235
:104D9000495459284E5649435F496E697453747299
:104DA0007563742D3E4E5649435F495251436861C5
:104DB0006E6E656C507265656D7074696F6E507261
:104DC000696F72697479290049535F555341525490
:104DD0005F48415244574152455F464C4F575F43ED
:104DE0004F4E54524F4C2855534152545F496E69AF
:104DF000745374727563742D3E4861726477617286
:104E000065466C6F77436F6E74726F6C290000009B
:104E1000304E00080000002014000000882C00081C
:104E2000444E000814000020B4F40000982C000840
:104E300000E1F50500000001000000000000000096
:044E4000000000006E
:040000050800019955
:00000001FF
