:020000040100F9
:10000000684E0020E5000001490700014B07000190
:1000100000000000000000000000000000000000E0
:100020000000000000000000000000004F07000179
:10003000000000000000000051070001530700010C
:10004000F7000001F7000001F7000001F7000001D0
:10005000F7000001F7000001F3300001F700000194
:10006000F7000001F7000001F7000001F7000001B0
:10007000F7000001F7000001F7000001F7000001A0
:100080009F320001F7000001F7000001F7000001B6
:10009000F7000001F7000001F7000001F700000180
:1000A000F7000001F7000001F7000001F700000170
:1000B0006F3500017135000193330001F700000135
:1000C0000348854607F04CF900480047B12E00016F
:1000D000684E002040BA7047C0BA70470138FDD161
:1000E000704700000448804704480047FEE7FEE7E9
:1000F000FEE7FEE7FEE7FEE7D5020001C1000001D2
:10010000F0B5D1B004460D4600BFEFF310800646AF
:1001100004AF0137FF2241329F49684606F070FE66
:10012000012080F3108800BF2A4621460003B8470B
:10013000304680F3108800BF51B0F0BD10B597482D
:100140000069401C002803D094480069002803D1AE
:1001500034219248FFF7D4FF90480069401C0028E2
:1001600003D08E480069002801D1002010BD8B48C3
:10017000FCE710B589480069401C002803D0874877
:100180000069002803D134218448FFF7B9FF834870
:100190000069401C002803D080480069002801D174
:1001A000002010BD7D482430FBE710B57B48006976
:1001B000401C002803D079480069002803D134216D
:1001C0007648FFF79DFF75480069401C002803D062
:1001D00072480069002801D1002010BD6F48293005
:1001E000FBE7F1B588B0002007907D20C0000690A5
:1001F0000124A4020020059004907F200390684809
:1002000000684004450E00260020029065490898C9
:10021000884207D1624800686101884360490860EC
:10022000CC1408E05E4800680121C90308435C491A
:1002300008600324A40200BF594800687F21090216
:100240008843019028020199084355490860052018
:10025000FFF744FF10E00120FFF740FF5048406BDC
:1002600002210840002800D007E00298411C0291BA
:100270000699884200D900E0EDE700BF4848C06B0E
:1002800086B2A64202D9301B059001E0A01B059062
:10029000A64201D3039500E0049503990498401801
:1002A000C005070EAF4200D104E03D46079905980E
:1002B0008842C1D800BF3A484068400840003849E9
:1002C000486000BF36484068042108400028F9D142
:1002D00009B0F0BD10B53248C069012109070843D3
:1002E0002F49C861812000062F4908632F484861C3
:1002F0002F4808622F4800680321890388432D494D
:10030000086034212548FFF7FBFE24480069401CA3
:10031000002803D021480069002817D120484068F0
:100320000121090408431E49486008464068072126
:10033000090288431A49486008464068091508437D
:10034000174948601C48FFF74CFF18E016488069C1
:100350004409640111480078C006C00E04431248E5
:1003600084610F48006A154908400D490862084633
:10037000006A0A49C968090208430949086210BDB0
:1003800008480F490860704710B504466B21614367
:100390000846FFF7A3FE10BD2C790001580D002080
:1003A000001002400090D003007000400F080000D1
:1003B00018000200001001400048E801FF00F8FFAB
:1003C0000000002010B50446D548844209D101211F
:1003D000880300F071FE00210120800300F06CFE14
:1003E00008E00121480400F075FE002101204004CE
:1003F00000F070FE10BDF0B589B005460E46002431
:100400000020089000BF00BF0027B089002800D05E
:1004100000BF2F462C8AC3480440F08804432C8236
:10042000AC89C1480440B0883189084371890843C8
:100430000443AC81AC8ABD480440B0890443AC821B
:1004400001A800F0A6FDB648874202D104980890A2
:1004500001E003980890326891001923089A5A43E2
:10046000104606F0A3FC07906421079806F09EFC56
:1004700004012109642041430798411A0691069915
:10048000090108463230642106F090FC0007000F95
:1004900004432C8109B0F0BD4B21C901016000214A
:1004A0008180C18001810C214181002181817047BF
:1004B00010B502460020108A9D4B18400B884C88CE
:1004C00023438C882343CC8823431843108210BDD8
:1004D0000021018041808180C1807047002905D0C2
:1004E000828901235B031A43828103E08289914B55
:1004F0001A4082817047F8B5034600240026009612
:10050000002500208C4EB14200D100BF18460E06D7
:10051000740FCE06F60E00960127009EB7403D46AA
:10052000012C01D10C3004E0022C01D1103000E08C
:100530001430002A03D006682E43066002E00668E5
:10054000AE430660F8BD002A03D0838A0B43838242
:1005500002E0838A8B4383827047028A774B1A407A
:100560000282028A0A43028270478289744B1A40CF
:10057000828182890A4382817047002904D082895E
:1005800002231A43828104E082896C4B0D331A40A6
:1005900082817047028A694B113B1A400282028AAB
:1005A0000A4302827047002905D0028A01239B0377
:1005B0001A43028203E0028A624B1A4002827047A9
:1005C000CA05D20D8280704701468888C005C00DDB
:1005D000704781890122114381817047028BD2B219
:1005E0000283028B0B021A4302837047028BFF23A4
:1005F0001B021A400283028B0A43028370470029C0
:1006000004D0828A20231A43828204E0828A4B4BE0
:10061000113B1A4082827047002904D0828A10233D
:100620001A43828204E0828A444B5B1E1A40828213
:100630007047002904D0828A08231A43828204E08A
:10064000828A3E4BDB1D1A4082827047828A3B4B76
:100650000B331A408282828A0A43828270470029C1
:1006600004D0828A02231A43828204E0828A334BB6
:100670000D331A40828270470246002001235B023C
:10068000994200D100BF13880B40002B01D00120FC
:1006900000E000207047012252020A4001235B0261
:1006A0009A4200D100BFCA430280704770B502462B
:1006B00000240023002500201F4EB14200D100BFBE
:1006C0000E06750FCB06DB0E01269E403346012D2C
:1006D00002D19689334006E0022D02D1168A3340BA
:1006E00001E0968A33400C120126A6403446168853
:1006F0003440002B03D0002C01D0012000E000206A
:1007000070BD10B5002300220B4CA14200D100BFE8
:100710000B1201249C40A2B2D443048010BD0000FF
:1007200000380140FFCF0000F3E90000FFFC0000AB
:10073000FFF00000FFDF00006A090000F0FF00008A
:10074000FFF70000FFBF0000704700BFFEE77047E3
:10075000704770477047000010B50446F94884425E
:1007600008D10121042000F0A7FC0021042000F0A2
:10077000A3FC0CE0F448844208D10121082000F0D9
:100780009BFC0021082000F097FC00E010BD00BF9A
:10079000FCE770B50A460021002334E001248C40B8
:1007A00014402346002B2DD004684E000325B5408D
:1007B0002C43046008240C40002C07D0446A4D07E9
:1007C000EE0E0F25B5402C43446206E0046A4D0747
:1007D000EE0E0F25B5402C430462446801258D4080
:1007E000AC434460C4684E000325B540AC43C460CC
:1007F000846801258D402C438460C46A01258D40A6
:10080000AC43C462491C1446CC40002CC6D170BD18
:1008100010B50121084600F04FFC0021012000F036
:100820004BFC10BD70B503460A4600210024002091
:1008300076E001268E40156835402C46002C6ED09F
:100840005568022D02D05568122D20D108250D4083
:10085000002D0ED0586A4D07EE0E0F25B540064606
:10086000AE4330464E07F60E5569B54028435862F0
:100870000DE0186A4D07EE0E0F25B5400646AE4353
:1008800030464E07F60E5569B54028431862556844
:10089000012D08D05568112D05D05568022D02D0C4
:1008A0005568122D0BD1586801258D400646AE4380
:1008B00030461579ED06ED0F8D40284358601868D5
:1008C0004E000325B5400646AE4330461579AD07C8
:1008D000AD0F4E00B54028431860D8684E00032580
:1008E000B5400646AE4330464E009568B5402843B5
:1008F000D860986801258D400646AE433046D568DD
:100900008D4028439860D86A4E000125B5400646C0
:10091000AE4330464E001569B5402843D862491CA5
:100920001568CD40002D84D170BD884901600F212C
:1009300041610021416081600121C16000210161AC
:1009400070470246002013690B40002B01D00120A4
:1009500000E0002070470146086980B270470246F7
:10096000002053690B40002B01D0012000E0002043
:1009700070470146486980B2704781617047816263
:100980007047002A01D0816100E0816270474161B7
:10099000704742694A40426170470122120413467F
:1009A0000B431A46C261C161C261C269C269704724
:1009B00000B500284FD10B0006F0C1FD07050C194A
:1009C000202D3B434B00624A526892089200604BD4
:1009D0005A603FE05E4A5268920892005C4B5A604F
:1009E0001A46526801231A43594B5A6032E0584A5A
:1009F000526830239A43564B5A602BE0544A52684F
:100A000030239A43524B5A601A46526810231A43B5
:100A10004F4B5A601EE04E4A926803231B029A43D2
:100A20004B4B9A601A4692685B151A43484B9A6082
:100A300010E0474A526803231B039A43444B5A6011
:100A400008E0434A526803231B029A43404B5A6012
:100A500000E000BFB9E00B0006F071FD0E081522A2
:100A6000303E4A57657C8A9198A5ADB5384A5268A0
:100A700092089200364B5A601A46526802231A4373
:100A8000334B5A60A0E0324A526830239A43304BCD
:100A90005A601A46526820231A432D4B5A6093E03D
:100AA0002B4A526803231B029A43294B5A601A4669
:100AB00052689B151A43264B5A6085E0244A5268B7
:100AC00003231B039A43224B5A601A4652689B1415
:100AD0001A431F4B5A6077E01D4A926893089B00A7
:100AE0001B4A9360926801231A43194B9A606BE08A
:100AF000174A926830239A43154B9A601A469268B7
:100B000020231A43124B9A605EE0114A9268032335
:100B10001B029A430E4B9A601A4692689B151A4321
:100B20000B4B9A6050E00A4A926803231B039A43D6
:100B3000074B9A601A4692689B141A43044B9A60BA
:100B400042E0000000080140000C0140FF3F0000AF
:100B5000000001403B4A926803231B039A43394B30
:100B60009A601A4692685B141A43364B9A602BE0DF
:100B7000344A926893089B00324A936024E0314AD9
:100B8000926830239A432F4B9A601DE02D4A926859
:100B900030239A432B4B9A601A46926810231A43CB
:100BA000284B9A6010E0274A926803231B029A435D
:100BB000244B9A6008E0234A926803231B039A435C
:100BC000204B9A6000E000BF00BF00BDF0B50446B6
:100BD000134600250020002C01D11B4E00E01B4EC7
:100BE000324608260E40002E0DD04D076D0F506A7C
:100BF000AF000F26BE400746B743384606461E43A1
:100C0000304650620CE04D076D0F106AAF000F26A2
:100C1000BE400746B743384606461E43304610627C
:100C2000F0BD0A460021074B1968002A03D00B4685
:100C30000343194602E00B4683431946014B1960F2
:100C4000704700000000014000080140000C014016
:100C5000F748006801210843F549086008464068E4
:100C6000F4490840F249486008460068F2490840E3
:100C7000EF49086008460068012189048843EC496F
:100C8000086008464068ED490840E9494860072087
:100C9000C002C862BF20000488607047E449096848
:100CA000012212049143E24A116001210904411A10
:100CB00007D111460968012212041143DC4A116070
:100CC00000E000BF00BF704710B5014600220023BE
:100CD00000204A11012A02D1D54C236806E0022ADD
:100CE00002D1D34C236A01E0D14C636ACA06D20E0A
:100CF000012494401C40002C01D0012000E0002081
:100D000010BD38B5002000900024002500BF312020
:100D1000FFF7DAFF05460098401C009001214903C7
:100D20000098884201D0002DF1D03120FFF7CCFF90
:100D3000002801D0012400E00024204638BDBC4931
:100D4000096849084900BA4A1160012806D11146CC
:100D5000096801221143B64A116000E000BF00BFDC
:100D6000704738B5002000900024002500BF2120E6
:100D7000FFF7AAFF05460098401C009005210902D4
:100D80000098884201D0002DF1D02120FFF79CFF70
:100D9000002801D0012400E00024204638BD0128AD
:100DA00006D1A349096801221143A14A116005E057
:100DB0009F490968490849009D4A116070470146EA
:100DC00000209B4A50684008400002460A431046F3
:100DD000974A506070479648406804210840704721
:100DE00001460020924A5068302302469A4310463A
:100DF00002460A4310468E4A506070470146002062
:100E00008B4A506807231B0202469A43104602464B
:100E10000A431046864A5060704701460020844AC3
:100E200050680723DB0202469A431046CA0010436B
:100E30007F4A50607047002906D07D4A126A03023B
:100E40001A437B4B1A6205E0794A126A03029A43FD
:100E5000774B1A62704701460020754AD06A4000FD
:100E6000400802460A431046714AD0627047014664
:100E700000206F4AD06A102302469A431046024669
:100E80000A4310466A4AD062704700280AD1684A6D
:100E9000126A01239B069A43654B1A621A46126A2C
:100EA0000A431A62704701466148006A644A10406A
:100EB0007047012806D15E49096AC20611435C4A9F
:100EC000116206E05A49096A0122D2069143584A42
:100ED000116270475649096A14229143544A1162BB
:100EE000042802D010280ED106E05149096A0422D4
:100EF00011434F4A116207E04D49096A1422114318
:100F00004B4A116200E000BF00BF7047012806D1C4
:100F10004749096A01221143454A116205E04449E3
:100F2000096A49084900424A116270474049096A02
:100F3000202291433E4A11621146096A014311621F
:100F400070473B48006A202108407047012806D1BD
:100F50003749096A02061143354A116206E03449ED
:100F6000096A012212069143314A11627047002832
:100F700007D02F49096A0122520611432C4A1162F7
:100F800006E02B49096A012252069143284A116260
:100F9000704710B500210022254B5B6804242340D4
:100FA0001946002902D0042906D102E0254B03602E
:100FB00005E0254B036002E0224B036000BF00BF49
:100FC0001B4B5B6830242340194609091F4B5A5CB0
:100FD0000368D3404360164B5B6807242402234018
:100FE0001946090A1A4B5A5C4368D3408360104B78
:100FF0005B68E40023401946C90A154B5A5C4368F4
:10100000D340C3600A4BDB6A10242340002B02D07C
:10101000104B036102E07D23DB03036110BD002957
:101020001AD0034A52690243014B5A6119E0000089
:10103000001002400000FF21FFFFF6FEFFFF00FE50
:10104000200000040090D0030048E801747A0001F9
:101050006C7A000100093D004C4A526982434B4BB7
:101060005A617047002905D0484A92690243474BAC
:101070009A6104E0454A92698243444B9A61704701
:10108000002905D0414AD2690243404BDA6104E0AD
:101090003E4AD26982433D4BDA617047002905D050
:1010A0003A4A926A0243394B9A6204E0374A926A9A
:1010B0008243364B9A627047002905D0334AD26882
:1010C0000243324BDA6004E0304AD26882432F4B4D
:1010D000DA607047002905D02C4A126902432B4B75
:1010E0001A6104E0294A12698243284B1A61704749
:1010F00001460020254A50680F235B0602469A43AA
:1011000010464A061043214A506070471F48406A03
:10111000012108431D4948620846406A40084000D2
:101120004862704701460020184A92680A40002A27
:1011300001D0012000E00020704714498968014374
:10114000124A91607047012806D1104909680206C9
:1011500011430E4A116006E00C490968012212068B
:1011600091430A4A11607047002907D0074A40326C
:1011700052680243054B40335A6006E0034A40324E
:1011800052688243014B40335A607047001002405E
:1011900010B50446F948844208D101218014FFF7B4
:1011A0008BFF0021A014FFF787FF16E0F44884426C
:1011B00008D101210220FFF78DFF00210220FFF757
:1011C00089FF0AE0EF48844207D101211020FFF790
:1011D00081FF00211020FFF77DFF10BD10B50A46EA
:1011E00000210168E54B984202D0E54B984205D1B9
:1011F00070240B46A343194653881943E14B984288
:1012000006D0032424020B46A3431946D38819436E
:1012100001609388838513880385D84B984201D158
:10122000137A0386012383820168D44B984202D04B
:10123000D34B98420BD1537A002B03D00123DB020E
:10124000194304E00124E4020B46A3431946CC4BA6
:10125000984216D1937A002B02D08314194304E0EC
:10126000012424030B46A3431946D37A002B03D051
:1012700001235B03194304E0012464030B46A343E9
:101280001946BE4B984202D0BD4B98420BD1137BFE
:10129000002B03D00123DB03194304E00124E40302
:1012A0000B46A343194601604168416010BD70B50B
:1012B000002400220023056A6D086D000562026AA1
:1012C0004368048BB04D2C40AF4D6D352C400D88DC
:1012D0002C4302261546B5432A460D892A434D88DC
:1012E0002A43A64DA84217D108261546B5432A46DB
:1012F0004D892A4304261546B5432A468D882A433C
:1013000086151D46B5432B4646151D46B5432B464F
:101310008D892B43CD892B4343600483CD888586FB
:10132000026270BD70B5002400220023056A1026F9
:10133000B5430562026A4368048B944D2C40944D7A
:101340002C400D782D062D0C2C4320261546B54338
:101350002A460D892D012A434D882D012A43874DA8
:10136000A8421BD180261546B5432A464D892D013A
:101370002A4340261546B5432A468D882D012A4327
:1013800006151D46B5432B46C6141D46B5432B46D0
:101390008D89AD002B43CD89AD002B434360048381
:1013A000CD880587026270BD70B50024002200233D
:1013B000056AFF260136B5430562026A4368848BDD
:1013C000714D2C40704D6D352C400D882C437600AE
:1013D0001546B5432A460D892D022A434D882D0214
:1013E0002A43664DA8421BD1C6141546B5432A466A
:1013F0004D892D022A4306151546B5432A468D8888
:101400002D022A4386141D46B5432B4646141D461D
:10141000B5432B468D892D012B43CD892D012B43BF
:1014200043608483CD888587026270BD70B50022D9
:1014300000230024056A01263603B5430562036ACA
:101440004468828B514D2A40514D2A400D782D061B
:101450002D0C2A4376001D46B5432B460D892D03DE
:101460002B434D882D032B43444DA84206D17600D3
:101470002546B5432C468D89AD012C4344608283BB
:10148000CE8840252E52036270BD828B414B1A409C
:101490008283828B0B061B0C1A4382837047F8B53C
:1014A0000C460025002100260096066A01273F030E
:1014B000BE430662858B016A26030096364E354090
:1014C0001606360C35431E07360C35432B4EB042FC
:1014D00002D02B4EB0420AD1012676030F46B74305
:1014E000394601273F03009E3E43314307E0012672
:1014F00076030F46B743394676102643314385833A
:101500000162F8BD828B204B64331A408283828B48
:101510000A4382837047F8B50C4600250021002657
:101520000096066AFF270137BE430662858B016A73
:1015300026020096144E833E35401E05360C164397
:1015400035430E4EB04202D00D4EB0420AD10126B4
:1015500076020F46B7433946FF270137009E3E43C8
:10156000314308E0052676020F46B7433946FF2689
:1015700001362643314385830162F8BD002C0140CA
:1015800000040040001000408FFF0000FF8F0000AB
:10159000FFFC0000FFF30000FF0C0000028BF84B83
:1015A0001A400283028B0B061B0C1A4302837047FE
:1015B000F8B50C460025002100260096066A102783
:1015C000BE430662058B016A26010096ED4E35404A
:1015D0001E07360C35431606360C3543EA4EB0422C
:1015E00002D0EA4EB04208D120260F46B743394612
:1015F0001027009E3E43314306E0A0260F46B74326
:10160000394610262643314305830162F8BD028B1B
:10161000DF4B1A400283028B0A4302837047F0B506
:101620000C4600250021066A760876000662058BC6
:10163000016AD74EE73E35401E05360C164335434A
:10164000D14EB04202D0D14EB04207D102260F4651
:10165000B743394601262643314306E00A260F46A2
:10166000B743394601262643314305830162F0BD65
:1016700070B505460C46C448854202D0C348854231
:1016800000D100E000BF208800280AD12389A28869
:1016900061882846FFF7C3FFE1882846FFF7B7FFB8
:1016A00025E0208804280AD12389A2886188284659
:1016B000FFF77EFFE1882846FFF770FF17E02088DC
:1016C00008280AD12389A28861882846FFF723FFCA
:1016D000E1882846FFF716FF09E02389A288618880
:1016E0002846FFF7DCFEE1882846FFF7CEFE70BDF6
:1016F000F8B505460C46002601276088002801D170
:10170000022600E00026A088012801D1022700E07F
:1017100001272088002814D12389A28861882846BF
:10172000FFF77DFFE1882846FFF771FF23893A46DE
:1017300031462846FFF73CFFE1882846FFF72EFF99
:1017400013E02389A28861882846FFF731FFE188EA
:101750002846FFF723FF23893A4631462846FFF7FC
:101760005EFFE1882846FFF752FFF8BD10B502463C
:101770000B884C8823438C882343CC8823430C89D3
:1017800023434C8923438C8923434424A352106868
:101790008B7B002B05D00124A4020346A3431846EB
:1017A00002E001239B021843CB7B002B03D00123D3
:1017B0001B04184304E0012424040346A3431846F1
:1017C0000B7C002B03D001235B04184304E00124AD
:1017D00064040346A3431846106010BD0021C943AA
:1017E000818000210180C18041800172417281723B
:1017F000C172017341737047002101804180818073
:10180000C180018141818181C181704700210180B6
:101810004180012181800021C18001817047002128
:10182000018041808180C180018141818181704737
:10183000002904D0026801231A43026003E0026811
:101840005208520002607047002907D04422125A01
:101850000123DB031A4344231A5205E04422125A9F
:1018600053045B0C442213527047002A03D083892F
:101870000B43838102E083898B438381704781829C
:10188000704710B50B4613434824235210BD002A5D
:1018900003D083890B43838102E083898B43838157
:1018A000704701893A4A521D1140018170470A462A
:1018B00000210189364B643B19400B4613431946FE
:1018C0000181704730B504460D4629462046FFF792
:1018D000EEFF208907210843208130BDF8B504467A
:1018E0000D4616461F46602D06D13B460122314665
:1018F0002046FFF75DFE05E03B46012231462046CB
:10190000FFF78DFE29462046FFF7D1FF20890721EA
:1019100008432081F8BD30B50C4600210189C9B2C9
:101920001D062D0C154325432943018130BDFFB50C
:1019300005460E46174600243A4631462846039B84
:10194000FFF7E9FF2C891248401D0440072004439B
:101950000F4864380440702004432C81FFBDF0B56B
:1019600004460D4616461F463B463246294620464B
:10197000FFF7D1FF20890121890308432081F0BDB1
:10198000FFF30000FF0C0000002C014000040040A9
:10199000F3FF000001858282704710B50A460021DE
:1019A000016870240B46A34319460B46134319469E
:1019B000016010BDFFB50C46154600210022002332
:1019C0000189028B036AF74E31400E4626433146A9
:1019D000F54E3240FF260236324322261F46B743D9
:1019E0003B46039E3605360C2E433343018102836A
:1019F0000362FFBD0A460021018BEA4B693B194097
:101A00000B4613431946018370470A460021018B98
:101A1000E64B194013061B0C1943018370470A4615
:101A20000021818BDF4B693B19400B46134319465C
:101A3000818370470A460021818BDC4B19401306D5
:101A40001B0C194381837047002904D0026880234E
:101A50001A43026003E0026880239A4302607047E1
:101A6000002904D0426804231A43426003E042681C
:101A700004239A4342607047002904D04268082337
:101A80001A43426003E0426808239A434260704769
:101A9000002904D0426801231A43426003E04268EF
:101AA00052085200426070470A460021018BBD4B2C
:101AB0005B1E19400B4613431946018370470A46C3
:101AC0000021018BBA4B194013061B0C19430183EB
:101AD00070470A460021818BB24B5B1E19400B46B2
:101AE00013431946818370470A460021818BB04B0E
:101AF000194013061B0C1943818370470A460021C5
:101B0000018BA84BDB1C19400B461343194601837C
:101B100070470A460021018BA34BFD3B1940130679
:101B20001B0C1943018370470A460021818B9D4B92
:101B3000DB1C19400B4613431946818370470A4644
:101B40000021818B984BFD3B194013061B0C194358
:101B5000818370470A460021018B924B793B1940E3
:101B60000B4613431946018370470A460021018B37
:101B70004904490C13061B0C1943018370470A469C
:101B80000021818B874B793B19400B461343194643
:101B9000818370470A460021818B4904490C130652
:101BA0001B0C19438183704710B50A460021016A56
:101BB00002240B46A34319460B4613431946016200
:101BC00010BD10B50A460021016A08240B46A34344
:101BD00019460B4613431946016210BD10B50A465B
:101BE0000021016A20240B46A3431946130119431F
:101BF000016210BD10B50A460021016A80240B461F
:101C0000A343194613011943016210BD10B50A46DA
:101C10000021016A012464020B46A3431946130202
:101C20001943016210BD10B50A460021016A012462
:101C3000E4020B46A343194613021943016210BD87
:101C400010B50A460021016A012464030B46A34330
:101C5000194613031943016210BD30B50023012456
:101C60008C40A3B2046A9C430462046A15468D400A
:101C70002C43046230BD30B5002304248C40A3B251
:101C8000046A9C430462046A15468D402C43046236
:101C900030BD70B5034600200024184618300125D9
:101CA0008D40ACB21D6AE643B6B235401D620029D4
:101CB00001D0082909D14D10281805687026B543B0
:101CC00005600568154305600DE00D1F2D046D0CC2
:101CD0002818056807263603B5430560056816060B
:101CE000360C3543056070BD002904D0026802231C
:101CF0001A43026003E0026802239A4302607047BD
:101D0000002904D0026804231A43026003E0026839
:101D100004239A4302607047002904D0426880235C
:101D20001A43426003E0426880239A43426070474E
:101D3000026808239A43026002680A4302607047FF
:101D4000426870239A43426042680A434260704787
:101D50000289144B1A40028102890A4302817047AA
:101D60000289104B793B1A40028102890A430281A1
:101D700070478184704781857047818670470187ED
:101D800070478187704740221152704702680323D1
:101D90001B029A43026002680A43026070470146D0
:101DA000888E7047F8FF0000FCFC0000FF8F0000E9
:101DB000FFF700000146088F70470146888F704783
:101DC00001464020405A70470146888C70470146C2
:101DD000088D70470246002013690B40002B01D08C
:101DE000012000E00020704702698A4302617047C9
:101DF00030B5024600200023002415690D402B4613
:101E000095890D402C46002B03D0002C01D00120D9
:101E100000E0002030BD02698A4302617047000083
:101E200010B5044661780020205600F029F8A0780B
:101E3000002809D000202056C206D20E0121914070
:101E40002B4A116000BF0AE000202056C206D20EC5
:101E500001219140264A8032116000BF00BF10BDB1
:101E6000042806D12349096904221143214A11613A
:101E700005E020490969042291431E4A1161704717
:101E800010B5002819DA1C4A03071B0F083B9B08F2
:101E90009B00D2588307DC0EFF23A3409A438B0795
:101EA0001B0E8407E40EA3401A43134B0407240FB0
:101EB000083CA408A4001A5118E00D4A03231B0291
:101EC000D21883089B00D2588307DC0EFF23A3405F
:101ED0009A438B071B0E8407E40EA3401A43044B5E
:101EE000032424021B198408A4001A5110BD000009
:101EF00000E100E000E000E01CED00E000203D49D2
:101F0000086048608860C8603B48486170470021AD
:101F100038498279002A35D00A46126803689A4304
:101F20000B461A600A46526803689A430B465A6089
:101F3000027951180A6803681A430A602D4A9268A8
:101F400003689A432B4B9A601A46D26803689A43F7
:101F5000284BDA604279102A0CD11A46926803683D
:101F60001A43244B9A601A46D26803681A43214BDD
:101F7000DA600DE01F49427951180A6803681A4374
:101F80000A6005E0027951180A6803689A430A60FA
:101F900070470021016001710C21417100218171A4
:101FA0007047144909690143124A1161704701469B
:101FB0000020104A52690A40002A01D0012000E0A6
:101FC000002070470B4948617047014600200022FD
:101FD000084B1B680B401A46064B5B690B40002BF5
:101FE00003D0002A01D0012000E000207047014901
:101FF0004861704700040140FFFFFF008B498842A1
:102000000CD18B49096A012212071143884A1162D7
:102010001146096A12049143854A11627047028988
:102020009204920C028102890A4302817047F0B542
:102030008DB005460C46002600200C900B900A90AF
:1020400000BF00BF079000BF059005952E89794815
:102050000640A088E1880843218908436189084334
:1020600006432E817148059D854203D10020FEF76D
:102070001AFF0C90012189060C98884202D1C012E7
:102080000B900BE06C490C98884202D1C0120B9067
:1020900004E06846FEF77DFF02980B9021680B98DC
:1020A00004F084FE0A900A980A2805D801218903C1
:1020B0002846FFF7B4FF03E000212846FFF7AFFFF3
:1020C0000A98A88121680B9804F070FE5B48414390
:1020D0000F463846216804F069FE099000260998E9
:1020E00008900020069018E0089807900999079832
:1020F000401808905149089804F058FE07464F4987
:10210000079804F053FE4740002F03D001200699A2
:10211000884006430698401C069006980828E3D39A
:102120002E750DB0F0BD4B21C901016008218180E1
:102130000221C180090201810021418170470246CC
:10214000002013880B40002B01D0012000E000206C
:10215000704710B50446208904210843208100BF40
:1021600020212046FFF7EBFF0028F9D120893449D0
:102170000840208110BD10B5002A04D00379CCB2EC
:102180002343037102E003798B43037110BD002ADE
:1021900003D003890B43038102E003898B4303814E
:1021A00070470289274B1A40028102890A43028143
:1021B0007047002904D0028980231A43028104E079
:1021C00002891F4B7C3B1A4002817047002904D0D2
:1021D000028910231A43028103E002891A4B1A4034
:1021E00002817047017470470146087C7047816125
:1021F00070470180704730B502460024002300205C
:102200004D046B0E01259D402B4615792B40CCB219
:1022100015882C40002B03D0002C01D0012000E0B9
:10222000002030BD0022CAB2028070470048004042
:1022300000100240F470000020000004102700008D
:10224000FB7F0000FF4F0000EFFF0000002806D0DA
:10225000FE49896880229143FC4A91600AE0CA21C4
:10226000FA4A516253215162114689688022114312
:10227000F64A9160704718B50020009000230024B2
:10228000FFF7E4FFF148C06820218843EF49C860A8
:1022900000BFEE48C0682021084004460098401C5A
:1022A000009089020098884201D0002CF1D0E748C4
:1022B000C06820210840002801D0012300E000234D
:1022C0000120FFF7C3FF184618BDE048C068802111
:1022D0008843DE49C860704708B50022009200209C
:1022E0000021DA4AD26840231A40002A1ED1D74A78
:1022F000D26880231A43D54BDA6000BFD34AD26834
:1023000040231A401146009A521C0092DB01009AA9
:102310009A4201D00029F1D0CC4AD26840231A4019
:10232000002A01D0012002E0002000E0012008BDC9
:1023300038B50020009000240025FFF787FFFFF745
:10234000CBFF002800D140E00020C0490860C04811
:1023500048600846806887210840BC49886000BF03
:10236000BA48C0680421084004460098401C009008
:10237000C9020098884201D0002CF1D0B348C0684F
:1023800004210840002801D100251EE0AF488068E4
:1023900080210840AD498860AE484861AE48086178
:1023A0000020C861C862C863A84940314860A74896
:1023B000C068C0B2A549C860FFF787FFFFF75BFFA1
:1023C000002801D1002500E001250120FFF73EFF94
:1023D000284638BD30B5044600250020FFF736FFFB
:1023E000FFF77AFF002800D117E098488068402165
:1023F0008843964988600846806821680843934965
:102400008860A068086108460069A188090408433B
:102410008E490861FFF759FF01250120FFF716FFDC
:10242000284630BD002101607F214160FF2181608D
:10243000704700B503460020FFF708FF002B06D0C9
:1024400082488068202108438049886005E07F48F1
:102450008068DF2108407D4988600120FFF7F6FE93
:1024600000BD0146002204E0501CC2B208460A38F2
:10247000C1B20A29F8DA1007000E08437047014676
:1024800000BFF020084000110A2358430246080705
:10249000000F8018C0B27047F8B505460C460026FC
:1024A00000200090002D0AD1684880684021084033
:1024B000002800D002E00020E07000BF0EE063487A
:1024C000806840210840002804D02078FFF7D7FF1B
:1024D000064602E00020E07000BF00BF002D0BD0D8
:1024E00020780004617809020843A1780843E17864
:1024F00009040843064610E02078FFF7B2FF0704FE
:102500006078FFF7AEFF00020743A078FFF7A9FF4E
:102510000743E078000407433E460020FFF796FE9D
:10252000FFF7DAFE002801D1009016E04B4830405A
:1025300046490860FFF7C9FE4448806820210840EA
:10254000002808D1FFF797FE002801D1009004E091
:102550000120009001E0012000900120FFF776FEAD
:102560000098F8BD0021C170017041708170704702
:1025700070B506460C4600253448006837490840C7
:1025800005463F2000042840000C20707F200002F8
:102590002840000A60706806400EA0700120800587
:1025A0002840000CE070002E0BD12078FFF767FF69
:1025B00020706078FFF763FF6070A078FFF75FFF1F
:1025C000A07070BD00202149886A49687047F8B53D
:1025D00005460C46002600200090002D08D16078AA
:1025E00010210840102803D1607888430A306070B9
:1025F000002D00D108E06078FFF741FF0646A07883
:10260000FFF73DFF064600BF002D0BD0E078000429
:10261000617809020843A1780843217849030843F7
:10262000064610E0E078FFF71CFF07046078FFF72C
:1026300018FF00020743A078FFF713FF0743207835
:10264000400307433E4600200AE000000028004007
:1026500001210000FFFF0000FF007F007F7F7F005F
:10266000FFF7F4FDFFF738FE002801D1009016E0D7
:10267000FD483040FD494860FFF727FEFB48806871
:1026800020210840002808D1FFF7F5FD002801D1DE
:10269000009004E00120009001E001200090012062
:1026A000FFF7D4FD0098F8BD0121017081704170E1
:1026B0000021C170704770B506460C460025EB48F6
:1026C0004068E94908400546FF2000042840000C06
:1026D000E0701F2000022840000A6070A806800EEB
:1026E000A070072040032840400B2070002E0BD123
:1026F000E078FFF7C4FEE0706078FFF7C0FE60701E
:10270000A078FFF7BCFEA07070BDF8B505460E4678
:10271000144600200090002D0ED1D448806840213E
:102720000840002800D002E00020E07000BFA06850
:10273000002800D11BE01AE0CC4880684021084006
:10274000002804D02078FFF79AFE009002E00020D5
:10275000E07000BFA068002804D1207BFFF78FFE47
:10276000009004E0207BFFF78AFE009000BF002D60
:1027700012D020780004617809020843A178084348
:10278000E17809040843217B09060843A16808434E
:1027900061680843009019E02078FFF762FE0704A3
:1027A0006078FFF75EFE00020743A078FFF759FE4E
:1027B0000743E07800040743207BFFF752FE000642
:1027C0000743A06807436068074300970020FFF7AE
:1027D0003DFDFF200130864202D1A4490098C86126
:1027E0000120FFF733FDF8BD0021C1700170417079
:1027F0008170816001210173002141607047F8B54B
:1028000006460F4614460025FF200130874201D1BD
:102810009648C5693F2000042840000C20707F20A6
:1028200000022840000A60706806400EA070012077
:1028300080052840000CE0703F2000062840000E74
:102840002073012080072840A060894828406060EC
:10285000002E0FD12078FFF712FE20706078FFF76E
:102860000EFE6070A078FFF70AFEA070207BFFF7D5
:1028700006FE2073F8BD78B503460C460020009094
:1028800000250026FFF7E2FC002C06D07748806880
:1028900018437649886001261DE074488068984393
:1028A0007249886000BF7148C068190A084005462F
:1028B0000098401C0090012149030098884201D0F3
:1028C000002DF0D06948C068190A0840002801D1DD
:1028D000002600E001260120FFF7B8FC304678BD55
:1028E00070B503460C46154600260020FFF7AEFCE7
:1028F000204628430646FF200130834202D15B4830
:10290000403046600120FFF7A1FC70BD0146002069
:10291000FF220132914204D1544A4032526850049D
:10292000400C704700B503460020FFF78FFC4F486E
:102930008068C008C0004D49886008468068184318
:1029400088600120FFF782FC00BD00B5034600202F
:10295000FFF77CFC454843610120FFF777FC00BD91
:102960004248406980B2704738B503460020009065
:1029700000240025FFF76AFC002B08D03B48806844
:102980000121890208433949886001251EE0374842
:1029900080680121890288433449886000BF334838
:1029A000C0680421084004460098401C0090C902F9
:1029B0000098884201D0002CF1D02C48C068042136
:1029C0000840002801D1002500E001250120FFF783
:1029D0003DFC284638BD10B504460B460020FFF7E5
:1029E00035FC224880680121890488431F4988609A
:1029F000084680682146194308431C498860012025
:102A0000FFF724FC10BD19488068012189040840A3
:102A10007047F0B503460C461546002700260020F7
:102A2000FFF714FC1148C068012109040840002880
:102A30000BD000E0761C0D48C06801210904084055
:102A4000002802D008118642F4D10848C06801214C
:102A50000904084000280DD11846204328430349A3
:102A6000C863012707E000003FFFFF000028004087
:102A70008080808000270120FFF7E8FB3846F0BD0A
:102A8000F0B504460D46002700260020FFF7DEFBC8
:102A90004148C0680821084000280AD000E0761CA0
:102AA0003D48C06808210840002802D088028642BC
:102AB000F5D13948C0680821084000280BD12846C4
:102AC00020433549C862FFF7D6FB002801D1002713
:102AD00002E0012700E000270120FFF7B7FB38469E
:102AE000F0BD10B503460C460020FFF7AFFB002CED
:102AF00005D02948806818432749886004E02648A3
:102B000080689843244988600120FFF79FFB10BD2F
:102B100010B50146002000221F4BDB681F4C2340EC
:102B20001A4613460B40002B01D0012000E0002084
:102B300010BD80210143C903C90BC943164AD2689D
:102B400080231A401143144AD160704730B50146C2
:102B5000002000220023104CA4680C4023460E4C99
:102B6000E4680D092C402246002B04D094B2002CBE
:102B700001D0012000E0002030BD10B50021010986
:102B800080220A4392B2D243034BDB688024234065
:102B90001A43014BDA6010BD002800407D0501009A
:102BA00010B5BA48BA4908609430BA490860FF388D
:102BB0002D38B9490860C9229200B849093804F093
:102BC0001FF910BD70B50446002500BF00F058F98C
:102BD0000546012000F057F900BF01200006241A25
:102BE0002046AB4909688847064600BF284600F0E2
:102BF0004AF900BF304670BDF8B504460D4616468A
:102C0000002700BF00F03CF90746012000F03BF927
:102C100000BF01200006241A3246294620469D4B5B
:102C20001B689847009000BF384600F02CF900BFA1
:102C30000098F8BDF8B504460D461646002700BFBB
:102C400000F01EF90746012000F01DF900BF012029
:102C50000006241A3246294620468F4B1B689847A7
:102C6000009000BF384600F00EF900BF0098F8BD94
:102C7000F0B5D3B004460D4616460520529000200C
:102C8000519000BF00F0FCF85190012000F0FBF8DB
:102C900000BF01200003844203D309204002844284
:102CA0000FD301204003844203D311204002844209
:102CB00007D303200003844211D319204002844229
:102CC0000DD204AF0137FF2241327549684604F046
:102CD00097F8324629462046B847529000BF00BFB9
:102CE000519800F0D0F800BF529853B0F0BDF7B53E
:102CF000FFB085B0044615460520839000208290E1
:102D000000BF00F0BDF88290012000F0BCF800BFC9
:102D100001200003844203D30920400284420FD3E0
:102D200001204003844203D311204002844207D390
:102D30000320000384422AD319204002844226D271
:102D400005AF013701225202564901A804F058F894
:102D5000FF200130854201D82E4601E0FF260136D2
:102D6000324620468599B84783908398002803D03F
:102D700083987FB008B0F0BDFF200130854205D9AF
:102D80002A1A859909182018B847839000BF00BFF8
:102D9000829800F078F800BF8398EAE7F0B5E1B0D8
:102DA00004460525002600BF00F06AF8064601200B
:102DB00000F069F800BF01200003844203D309201A
:102DC000400284420FD301204003844203D31120E8
:102DD0004002844207D30320000384420FD319200A
:102DE000400284420BD204AF0137FF2281322E49C8
:102DF000684604F005F82046B847054600BF00BF06
:102E0000304600F040F800BF284661B0F0BDF0B594
:102E1000D1B004460525002600BF00F031F8064673
:102E2000012000F030F800BF01200003844203D3EA
:102E30000920400284420FD301204003844203D37F
:102E400011204002844207D30320000384420FD3A1
:102E50001920400284420BD212AF0137FF224132C7
:102E60001249684603F0CCFF2046B847054600BF2C
:102E700000BF304600F007F800BF284651B0F0BD53
:102E8000EFF31080704780F3108870472D0E0020FC
:102E900004000020080000200C000020787A0001C7
:102EA0002C7900019C7D00019C7F00011C810001A8
:102EB00000F066F902F03DFE02F0B5FF03F023F8E2
:102EC0000BE000F07FF900F0D5FD01F094FE02F078
:102ED000B1FF03F01FF803F06EFEF2E710B501201A
:102EE0000004FDF7DBFE00BFFDF70BFF0028FBD061
:102EF0000120FDF764FF0121CC48FEF7B3F8012162
:102F00004804FEF7BDF800210846FDF7BEFF01208A
:102F1000FDF7CFFF10BD08B51021684601700121F3
:102F200041708170FEF77CFF1E216846017002210E
:102F3000417001218170FEF773FF1D216846017009
:102F40000421417001218170FEF76AFF0621684665
:102F500001700321417001218170FEF761FF08BDFE
:102F600010B50120B249087002F050FF4000032163
:102F7000081AFA2148430446AE4A2146002000F0D0
:102F80002DFB10BD10B5AA48007800281AD00020EB
:102F9000A7490870A8480078401CA749087008464F
:102FA0000078012803D14021A448FDF7E8FCA2489D
:102FB0000078022806DB00209F49087040219F48C6
:102FC000FDF7DBFC10BD00B587B04020019001206B
:102FD000029001A99948FDF725FC0120019002907B
:102FE00001A99748FDF71EFC40219448FDF7C5FC58
:102FF00001219348FDF7C1FC8E4AFF21F5310020E5
:1030000000F0ECFA07B000BD10B58E48007800283B
:1030100011D08D480078002804D002218748FDF7A0
:10302000AEFC03E002218548FDF7A7FC8648007846
:10303000C04385490870854800887D21C9008842C1
:1030400003DB00208149088004E080480088401CA0
:103050007E4908807D480088002802D17C4908709C
:103060000AE07A4800887B49884205D17848007890
:10307000002801D173490870774A1E21012000F011
:10308000ADFA10BD00B587B002200190012002907A
:1030900001A96A48FDF7C6FB6F4A1E21012000F016
:1030A0009DFA07B000BD012069490870704700B55E
:1030B00089B004200390002004900120059003A90A
:1030C0005E48FDF7AFFB02210020FDF771FC0220F6
:1030D00001900021684601720C2141720121817228
:1030E00001A8FEF714FF0220FEF781FF09B000BD22
:1030F000704710B50220FEF768FF00282BD0022091
:10310000FEF775FF022001F0AEFF002823D1002159
:10311000042001F093FF012001F0A5FF01280FD149
:10312000002000F0C6FA0021012001F087FF0921EC
:103130000A2001F0B0FF02F01DFD01F0B5FF0AE02A
:10314000012000F0B6FA0121084601F077FF02F0F5
:1031500011FD01F0A9FF10BD10B5022001F083FFA1
:10316000012803D101213648FDF709FC022001F0B6
:103170007AFF002803D101213148FDF7FEFB10BD85
:1031800010B5FFF7ABFEFFF7C6FE00F067F800F0E2
:1031900017FA01F0B2FE00F095F900F062F900F0C4
:1031A000A7F8FFF710FF00F06EFA00F04FFDFFF7F1
:1031B00069FFFFF77CFF00F0EBFA02F079FB03F008
:1031C00055FC10BD10B5FFF76EFFFFF7DBFE00F0FA
:1031D00051FC02F08DFBFFF7BFFF03F08BF910BD30
:1031E000002107E0002200E0521C1923DB019A4273
:1031F000FADD491C8142F5D3704770B504460025BD
:1032000004E03220FDF7C0F8681C85B2A542F8DB67
:1032100070BD70B50446002504E00520FDF7B4F844
:10322000681C85B2A542F8DB70BD00000D400000AF
:1032300021000020612F0001230000200008014030
:10324000000C014026000020270000202400002060
:1032500022000020E7030000093000011FB5684686
:10326000FEF7BCFA01210220FDF70AFF00216846A3
:10327000C18041807D21C90081801F210180002102
:10328000017269460D48FDF7A9FF012211460B485E
:10329000FEF7EBFA01210948FEF7CAFA1FBD10B587
:1032A00001210648FEF7A4FD012805D101210348AC
:1032B000FEF7B1FD00F0ACF910BD000000040040C5
:1032C0000246704700B587B010200190022002909E
:1032D0000320069001A9AF48FDF7A4FA2020019031
:1032E0000320069001A9AB48FDF79CFA07B000BD8A
:1032F0001FB5FFF7E7FF4B20C00100900021684693
:103300008180C180018181810C2141816946A2486F
:10331000FDF771F80122A1499F48FDF7ECF8012162
:103320009D48FDF7DBF81FBD10B501209C490875CD
:10333000022000F05BF910BD002004E00021994A52
:103340001154411C88B29649098A8142F6DC002159
:10335000934A1182117570479148007D012800D170
:1033600070470020FCE770B505460E46002400BFFC
:103370000CE0295D8848FDF723F900BF80218648CD
:10338000FDF77AF90028F9D0601C84B2B442F0DB72
:1033900070BD10B581498048FDF788F900281DD01F
:1033A0007F48007D002815D17B48FDF70DF9C4B298
:1033B0007B48008A7B490C547948008A401C784934
:1033C0000882022000F012F9774A3221022000F030
:1033D00005F903E07048FDF7F7F8C4B210BD70B509
:1033E0000025002600245825FFF7B6FF00281ED030
:1033F0006B48008A172818D100BF05E06948005DB6
:10340000401985B2601CC4B26548008A401EA042C3
:10341000F4DCE843C6B26248008A401E6149085C99
:10342000B04202D1084600F00EFAFFF785FF70BDEA
:1034300000B587B0012000030190022002900690A1
:1034400001A95448FDF7EEF90120C00201900120C6
:1034500003900220069001A94E48FDF7E3F907B05A
:1034600000BD0EB5FFF7E4FFE12040020090082107
:103470006846818089010181002141810221C1804A
:1034800069464A48FEF7D3FD012244494748FEF702
:1034900072FE0EBD00B587B0402001900220029060
:1034A0000420069001A93B48FDF7BCF9802001905B
:1034B000022002900420069001A93648FDF7B2F9D7
:1034C00007B000BD1FB5FFF7E5FFE1204002009007
:1034D000002168468180C180018181810C21418168
:1034E00069463348FCF787FF01222C493048FDF735
:1034F00002F801212E48FCF7F1FF1FBD10B5012095
:103500002C490875042000F071F810BD002004E07B
:103510000021294A1154411C88B22649098A814256
:10352000F6DC0021234A1182117570472148007D85
:10353000012800D170470020FCE770B505460E4613
:10354000002400BF10E0295D1848FEF74BFE00BFC5
:1035500002211648FEF7F3FD0028F9D00221134896
:10356000FEF747FE601C84B2B442ECDB70BD7047CE
:1035700010B5292149010D48FEF73DFE002808D06D
:103580000A48FEF731FE044621460C48006801F067
:103590004EFC10BD000C0140004400402505000019
:1035A00074180020B41000202933000100480040A6
:1035B000003801404A2000208A18002054000020D2
:1035C000002008E00021C200224B9950C200D2180E
:1035D0005160411CC8B21228F4DB704710B5C3001B
:1035E0001C4CE150C3001B195A6010BD0021C200E1
:1035F000184B9950C200D218516070470146C8005C
:10360000144A1058002801D1012070470020FCE71F
:1036100010B500241AE0E0000E490858002813D025
:10362000E0000858401EE1000A4A5050E0001146F0
:1036300040184068002807D0E0000858002803D14F
:10364000E100891848688047601CC4B2122CE2DB94
:1036500010BD000060200020002101E0491C401E38
:103660000028FBD1704700B587B0082001900120E9
:10367000029001A93548FDF7D5F808213348FDF738
:103680007CF907B000BD00B587B00620019001208D
:10369000029001A92E48FDF7C5F804212C48FDF73A
:1036A0006EF902212A48FDF76AF9FFF7DCFF07B03F
:1036B00000BD10B50446002C02D0012C30D117E01B
:1036C00004212348FDF759F902212148FDF757F954
:1036D0001420FFF792FD04211D48FDF750F9022147
:1036E0001B48FDF74CF908211848FDF746F920E082
:1036F00002211748FDF741F904211548FDF73FF96C
:103700001420FFF77AFD04211148FDF738F9022152
:103710000F48FDF734F908210C48FDF730F908E0AF
:1037200004210B48FDF72BF902210948FDF727F981
:1037300000BF00BF10BD10B5012001F094FC0028AF
:1037400001D0012010BD0020FCE70000000801406E
:10375000000C014010B50120C9490870C94A7D21FB
:10376000C9000320FFF73AFF10BD10B5C6A003F053
:10377000ABFE10BD10B50821C848FDF7FEF8FF20CC
:10378000F530FFF73AFD0821C448FDF7F8F810BD01
:1037900000B587B0082001900120029001A9BF4820
:1037A000FDF740F8FFF7E6FFBD48FFF726FDFFF7FE
:1037B000DCFFB44A7D21C9000320FFF70FFF07B0EB
:1037C00000BD33B583B000240025A82168460171EF
:1037D000017B4171032204A9801D03F011FB00BF8E
:1037E00005E001A8005D4019C5B2601CC4B2052CFB
:1037F000F7DBE843C1B268464172417AA9A003F001
:1038000063FE062101A8FFF7AEFD05B030BD01B58E
:1038100082B0582168460171017A4171022101A8E4
:10382000FFF7A1FD0EBD08B5A3A000680090944865
:103830000078012806D100209149087002216846CD
:10384000FFF791FD08BDF0B587B004460020069053
:10385000002600250322211D984803F0D1FA0322F7
:10386000611C9648001F03F0CBFA0322E11D934828
:10387000001D03F0C5FA032221460A318F480830A3
:1038800003F0BEFA032221460D318C480C3003F0C0
:10389000B7FA0322214610318848103003F0B0FAFD
:1038A0000322214613318548143003F0A9FA8349D5
:1038B000091F486803F0FAFB814A824B039102908A
:1038C00003F070FB0591049003F012FC7E49088020
:1038D0007A49091F086803F0E9FB7C4A7C4B039195
:1038E000029003F05FFB0591049003F001FC764920
:1038F00048807248001FC5687648854203DD054050
:10390000ED436D1C0540284603F0BCFB724A734B27
:103910000391029003F046FB0591049003F0E8FB4D
:1039200069498880488803F0A5FB674903900888A7
:1039300003F0A0FB64490190888803F09BFB009092
:10394000019903F0F0FA0290039903F0ECFA64494C
:10395000049003F0ABFA6349059003F0A7FA074619
:1039600003F0B2FB584908735448001F00695E49D0
:10397000096840185C490860084600685B490968A6
:1039800088420AD35848006858490968401A58497B
:1039900009684018564908600BE0544800685549CA
:1039A000081A514909684018514909684018504996
:1039B00008604D4800684D49086000204A49086089
:1039C0004B4800680D2826D34948006803F052FB95
:1039D0004949049003F06AFA4249059003F066FAF7
:1039E000074603F071FB069037488668069836183C
:1039F0003548866000203E49086033488068010CE5
:103A0000082001F048FB3048008981B2092001F00C
:103A100042FB02F0CBF82C48018838A003F054FD9B
:103A2000294841883DA003F04FFD2748818844A0E4
:103A300003F04AFD2448017B49A003F045FD2248DC
:103A40000188042001F027FB1F4948880A2103F060
:103A5000C3F987B23946052001F01DFB1A48818859
:103A6000072001F018FB1848017B062001F013FB2A
:103A700007B0F0BD10B5FFF7D6FEFFF7B0FC10BDE4
:103A80002800002055370001424C30393432205292
:103A9000656720496E69740D0A000000000C014042
:103AA000B80B0000636865636B73756D203D3D2046
:103AB000307825780D0A000058AA0000F420002074
:103AC0009FE74A621B81103F0C210020CD2D443519
:103AD0000B4E903FFFFF7F0056B7DD7835487A3FA9
:103AE0000000C84200007A442C0000203000002072
:103AF00034000020FFFFFF00EDF8433A424C30391C
:103B000034325F456C65446174612E766F6C203D84
:103B10003D2025642056200D0A000000424C30391B
:103B200034325F456C65446174612E6375727265F1
:103B30006E74203D3D202564206D41200D0A00005B
:103B4000424C303934325F456C65446174612E708B
:103B50006F776572203D3D2025642057200D0A00B7
:103B6000424C303934325F456C65446174612E6675
:103B7000726571203D3D20256420200D0A00000063
:103B8000FC4800787047FC480078002801D00120EC
:103B900070470020FCE7FFB581B0044615461E467D
:103BA0000A9FF5480470F5480580C821F44803F0E1
:103BB00040F9F2480288F248029903F021F9F148ED
:103BC00007807D21C900F04803F033F9ED480288F1
:103BD0003146ED4803F014F905B0F0BD0120EB4982
:103BE00008707047E9490978002904D001200021B4
:103BF000E64A117000E00020704710B5044600202E
:103C0000E2490870E24A21460C20FFF7E7FC10BDAC
:103C100010B50020DD4908700C20FFF7E7FC10BD4F
:103C2000002004E00021DB4A1154411C88B27D21B0
:103C3000C9008842F6DB0021D74A11807047012075
:103C4000D64908700020CB490870704700B587B08E
:103C50000120800201900120029001A9D048FCF7C8
:103C6000E1FD01218902CE48FCF787FE07B000BDC7
:103C700010B5CC480078002804D0012820D00228B4
:103C80003AD12EE00020BB490870C748006801F017
:103C9000F7F80446C44821460268BE4801F00FF90F
:103CA000FFF7BEFF01218902BD48FCF766FEFF2039
:103CB000F530FFF7A2FF0120BA490870002010BDBF
:103CC000FFF790FF00280AD001218902B448FCF7D1
:103CD00056FEB648FFF791FF0220B2490870002057
:103CE000EDE7FFF77FFF002804D00020AD49087002
:103CF0000120E4E70020E2E70020E0E770B50024BF
:103D0000AB480078030003F01AFC0A0620424B542B
:103D1000628492BDCBF9A448006801F0B1F8054671
:103D2000A148294602689B4801F0C9F8FFF778FFCF
:103D30000421A0A0FFF701FC7D200001FFF75DFF3B
:103D400001209B490870002070BDFFF74BFF002841
:103D50001BD09548006801F093F805469248294623
:103D600002688C4801F0ABF894A18A4803F06CF823
:103D70000446002C04D002208D4908700020E3E79F
:103D800000208B4908700220DEE70020DCE77D2060
:103D90000001FFF732FF0320854908700020D3E7B8
:103DA000FFF720FF002802D004208149087000207E
:103DB000CAE7FFF735FF0A2181A0FFF7BEFB6420A9
:103DC000FFF71BFF05207A4908700020BCE7FFF7CA
:103DD00009FF00281BD07448006801F051F805461F
:103DE0007148294602686B4801F069F877A1694873
:103DF00003F02AF80446002C04D006206C49087011
:103E00000020A1E700206A49087002209CE70020FA
:103E10009AE7FFF705FF0B2170A0FFF78EFB6420E8
:103E2000FFF7EBFE07206249087000208CE7FFF7E0
:103E3000D9FE002824D05C48006801F021F805462E
:103E4000594829460268534801F039F866A151489B
:103E500002F0FAFF0446002C0DD00F22E11D644849
:103E600002F0CEFF00216248401F01750820504932
:103E70000870002068E700204D490870022063E7C1
:103E8000002061E7FFF7CCFE0A215AA0FFF755FB9F
:103E90006420FFF7B2FE092045490870002053E76F
:103EA000FFF7A0FE002827D03F48006800F0E8FF99
:103EB00005463D4829460268364801F000F850A101
:103EC000344802F0C1FF0446002C10D014222146D1
:103ED00008314748103002F093FF00214448103069
:103EE000017500203249087001202DE706E000200E
:103EF0002F490870022027E7002025E7002023E74C
:103F000070B5002441480078002802D0012830D143
:103F100012E03F480078401C3D490870FFF780FEE2
:103F20000B213CA0FFF709FB6420FFF766FE012090
:103F300036490870002070BDFFF754FE002875D088
:103F40001948006800F09CFF05461748294602689A
:103F5000104800F0B4FF32A10E4802F075FF04468D
:103F6000002C64D0002029490870294908700120DC
:103F7000E1E76DE043000020440000203C00002009
:103F8000232700203E000020EB27002041000020D6
:103F9000DD3B00011C210020380000203A000020F9
:103FA000000C01404800002054000020881300004D
:103FB0004900002041540D0A000000004F4B000052
:103FC00041542B4350494E3F0D0A00002B435049AA
:103FD0004E3A2052454144590000000041542B43C1
:103FE00047534E3D310D0A002B4347534E3A2000B4
:103FF000FD26002041542B49434349440D0A00004B
:104000002B49434349443A20000000004A00002065
:104010004500002041542B43455245473F0D0A00BF
:104020002B43455245473A20302C31000EE0FC48E6
:1040300000785A2803DC0020FA4908707BE700204A
:10404000F7490870F7490870022074E7002072E70A
:10405000002070E770B50024F3480078002802D0F3
:10406000012841D112E0EE480078401CEC4908706C
:10407000FFF7D6FD0B21EDA0FFF75FFA6420FFF7F5
:10408000BCFD0120E8490870002070BDFFF7AAFDC3
:10409000002827D0E848006800F0F2FE0546E64810
:1040A00029460268E54800F00AFFE5A1E34802F06E
:1040B000CBFE0446002C06D00020DB490870D8490E
:1040C00008700120E1E7D64800785A2803DC002078
:1040D000D5490870D9E70020D1490870D249087045
:1040E0000220D2E70020D0E70020CEE770B5002400
:1040F000D6480078002802D001283FD112E0C848F5
:104100000078401CC6490870FFF78AFD1F21D0A027
:10411000FFF713FA6420FFF770FD0120CB49087008
:10412000002070BDFFF75EFD002825D0C248006862
:1041300000F0A6FE0546C04829460268BF4800F0C8
:10414000BEFECBA1BD4802F07FFE0446002C04D089
:104150000020BE4908700120E3E7B14800780A2832
:1041600003DC0020B9490870DBE70020AC49087087
:10417000B64908700220D4E70020D2E70020D0E73B
:1041800070B50024BB480078002802D001283FD138
:1041900012E0A3480078401CA1490870FFF740FDD9
:1041A0000C21B5A0FFF7C9F96420FFF726FD012017
:1041B000B0490870002070BDFFF714FD002825D01D
:1041C0009D48006800F05CFE05469B482946026851
:1041D0009A4800F074FEA6A1984802F035FE044605
:1041E000002C04D00020A34908700120E3E78C488C
:1041F00000780A2803DC00209E490870DBE70020D5
:10420000874908709B4908700220D4E70020D2E754
:104210000020D0E7F0B58BB000200A9000240025E4
:1042200099480078002802D001287DD113E09748F2
:104230000078401C95490870FFF7F2FC0A2194A011
:10424000FFF77BF9C820FFF7D8FC01208E490870E2
:1042500000200BB0F0BDFFF7C5FC00287DD07648EC
:10426000006800F00DFE074673483946026873483F
:1042700000F025FE89A1714802F0E6FD0A900A9837
:1042800000286BD02C216D4802F0F2FD0446002C72
:1042900065D000207D490870641C601C0990204690
:1042A00000F0A3FE0A2107464F43099800F09DFE47
:1042B0003818C6B2102E03DA30460830C6B202E013
:1042C00030461038C6B2E41C601C0990204600F04D
:1042D0008CFE0A2107464F43099800F086FE3818E5
:1042E000C1B20591E41C601C0990204600F07DFEDF
:1042F0000A2107464F43099800F077FE3818C0B2EC
:10430000049066A14D4802F09FFD05460835681CE3
:104310000990284600F069FE0A2107464F43099894
:1043200000F063FE381800E05AE07D2109014018D2
:104330000890ED1C681C0990284600F056FE0A21E2
:1043400007464F43099800F050FE3818C0B2079056
:10435000ED1C681C0990284602E03FE02FE01FE0BA
:1043600000F043FE0A2107464F43099800F03DFE46
:104370003818C0B206903046049A059901F0ADFA9B
:104380000599049800960191029046A0069B079A11
:10439000089903F099F800203B490870012058E77C
:1043A0003A4800780A2806D1002038490870364972
:1043B000087002204DE700203349087049E7334870
:1043C00000780A2806D10020304908702E4908706C
:1043D00002203EE700202C4908703AE7002038E729
:1043E000002036E770B58CB00024002536480078F0
:1043F000030003F0A4F80A06799CAACCFDFCFBFAA2
:10440000F9F8FFF70DFC192130A0FFF796F86420AA
:10441000FFF7F3FB01202C49087000200CB070BDA1
:10442000450000204A0000204B00002041542B434F
:10443000474154543F0D0A00540000201C21002025
:104440002B43474154543A20310000004C000020D7
:1044500041542B5149435347503D312C312C224379
:104460004D4E4554222C22222C22222C310D0A00A2
:104470004F4B00004D00002041542B514941435403
:104480003D310D0A000000004E00002046000020D3
:1044900041542B43434C4B3F0D0A00002B43434CEC
:1044A0004B3A00004D4C3330375220536574205442
:1044B000696D653A25642D25642D25642025643AAF
:1044C00025643A25640D0A004F00002041542B4D0D
:1044D0005154544346473D22636163686564222C0E
:1044E000302C310D0A000000FFF77CFB00281CD0A7
:1044F000FE48006800F0C4FC0646FC4831460268ED
:10450000FB4800F0DCFCFBA1F94802F09DFC0446EE
:10451000002C05D00220F849087000200CB070BDB6
:104520000020F54908700220F8E70020F6E7FFF7C1
:1045300077FB1E21F1A0FFF700F86420FFF75DFB79
:104540000320ED4908700020E8E7FFF74BFB002847
:104550001BD0E648006800F093FC0646E34831466D
:104560000268E34800F0ABFCE2A1E14802F06CFC19
:104570000446002C04D00420DF4908700020CDE759
:104580000020DD4908700220C8E70020C6E7FFF7D9
:1045900047FB0F21E1A0FEF7D0FFC620B821EA2398
:1045A000312200910190E1A102A802F09DFF02A832
:1045B00002F068FC86B2314602A8FEF7BEFFDF4A71
:1045C000DFA102A802F090FF02A802F05BFC86B215
:1045D000314602A8FEF7B1FF0221DAA0FEF7ADFFD7
:1045E0001021D94805E0C9E09FE07FE055E035E0C3
:1045F00012E0FEF7A2FF0221D4A0FEF79EFF1321D6
:10460000D3A0FEF79AFF7D200001FFF7F6FA052000
:10461000B9490870002081E7FFF7E4FA00281BD0B1
:10462000B248006800F02CFC0646B04831460268EB
:10463000AF4800F044FCCBA1AD4802F005FC0446B5
:10464000002C04D00620AC490870002066E700204A
:10465000A9490870022061E700205FE7FFF7E0FA50
:104660001D21C6A0FEF769FFB74ACCA102A802F03F
:104670003BFF02A802F006FC86B2314602A8FEF714
:104680005CFF0521C6A0FEF758FFC748FFF7B5FA43
:10469000072099490870002040E7FFF7A3FA002897
:1046A00022D09248006800F0EBFB06468F48314666
:1046B00002688F4800F003FC8EA18D4802F0C4FB15
:1046C0000446BAA18A4802F0BFFB0546002C06D07A
:1046D000002D04D008208849087000201EE7002023
:1046E00085490870022019E7002017E7FFF798FABC
:1046F0001A21B1A0FEF721FF934AA8A102A802F057
:10470000F3FE02A802F0BEFB86B2314602A8FEF715
:1047100014FF0521A2A0FEF710FFA348FFF76DFAD2
:104720000920754908700020F8E6FFF75BFA0028B9
:1047300022D06E48006800F0A3FB06466B48314665
:1047400002686B4800F0BBFB6AA1694802F07CFB81
:10475000044696A1664802F077FB0546002C06D079
:10476000002D04D00020644908700120D6E6002006
:10477000614908700220D1E60020CFE60020CDE696
:10478000F0B5944B9D440021934868440163002593
:10479000C1620026816200240391904800780300E2
:1047A00002F0CDFE0906151C2DA3A2A1A09F9E001C
:1047B0008B480078012806D1002089490870042020
:1047C0008649087002E00120844908700EE26420E6
:1047D000FFF713FA02208149087007E2FFF702FA97
:1047E00000280BD0FFF71CFA11217EA0FEF7A5FED2
:1047F0006420FFF702FA032078490870F6E1FFF71A
:10480000F1F900286AD03948006800F039FB074602
:10481000364839460268364800F051FB76A13448E4
:1048200002F012FB0546002D59D076A1304802F067
:104830000BFB69496944C8620846C06A01461031E9
:1048400065486844C162C06A63496944886204E09B
:1048500061496944C86A401CC8625F486844C06ACC
:1048600000782C28F4D15C486844C16A806A091A2F
:104870004C1EC82113A802F0DCFA224656486844B0
:10488000816A13A802F0BCFA53486844806A01198F
:104890005148684481622DA1806A02F0D5FA06462B
:1048A000002E1CD0B61C08E031780EAA03981154D3
:1048B0000398401C81B20391761C30782C28F3D1E8
:1048C00000210EAA039811540EA802F0E2FA044641
:1048D000C82113A802F0ADFA22469BE0B2E0AEE098
:1048E00080E15BE124E1C6E0B4E0ACE054000020EC
:1048F0001C2100204F4B00004F00002041542B4D45
:104900005154544346473D226B656570616C69762E
:1049100065222C302C3132300D0A000041542B4DD1
:10492000515454434F4E4E3D302C220025642E25C9
:10493000642E25642E2564222C000000482B0000E4
:10494000256400002C22000010000020222C000012
:104950002275736572222C22302E31323334353673
:10496000220D0A002B4D5154545552433A202263D4
:104970006F6E6E222C302C300000000041542B4D05
:104980005154545355423D302C226D6F64627573FF
:104990005F636F6E74726F6C2F00000025730000F0
:1049A000222C300D0A000000881300002B4D5154BA
:1049B000545355423A20300041542B4D51545453D6
:1049C00055423D302C226D6F646275735F74696D62
:1049D000652F0000CCF9FFFF00060000500000200A
:1049E0004400002041542B4D515454524541443D04
:1049F000302C310D0A0000002B4D515454524541CA
:104A0000443A00002B4D515454524541443A203011
:104A10002C302C00711C13A802F0F2F90E2C04D1DA
:104A2000A1B2002213A801F084FA0E2C04D9A1B27D
:104A3000012213A801F07DFA0020D049087000205F
:104A4000CE490870D2E06420FFF7D7F80520CB49A3
:104A50000870CBE0FFF7C6F800280BD0FFF7E0F8AE
:104A60000821C7A0FEF769FD6420FFF7C6F80620FD
:104A7000C2490870BAE0FFF7B5F8002857D0C3481C
:104A8000006800F0FDF90746C04839460268C04892
:104A900000F015FABFA1BE4802F0D6F90546002D78
:104AA00042D0AD1D01E0641C6D1C28782C28FAD181
:104AB0002D1B00210291012C14D1284600F095FAFB
:104AC0000290029840007121081AC1B20291B3A16C
:104AD00001A8029A02F008FDB14968460079087001
:104AE00000204870022C1ED1284600F07EFA0A21D0
:104AF00007464F43681C00F078FA39180291029873
:104B000040007121081AC1B20291A4A101A8029A21
:104B100002F0EAFCA24968460079087068464079CC
:104B200048700020887000BF0720944908705DE03D
:104B30000E219CA0FEF701FD9E4801889E48FEF7CD
:104B4000FCFC02219DA0FEF7F8FC06219CA0FEF7CC
:104B5000F4FC9D48028891A104A802F0C5FC04A8B9
:104B600002F090F987B2394604A8FEF7E6FC02216C
:104B70008FA0FEF7E2FC944801889448FEF7DDFC24
:104B800003219348FEF7D9FC002092490870C82001
:104B9000FFF733F808207949087027E0FFF722F87B
:104BA00000281ED07948006800F06AF90746774867
:104BB00039460268764800F082F987A1744802F00D
:104BC00043F90146854868440163006B002803D01F
:104BD00000206A49087004E0FFF731F800206749B7
:104BE000087003E000206549087000BF00BF7B4BE0
:104BF00034339D44F0BD10B579480078030002F0CD
:104C00009EFC0B071B2F43576B7FBA93BAAEBA00BB
:104C1000FFF72EF8002804D0012803D0022809D17C
:104C200004E007E001206E49087003E000206C49B1
:104C3000087000BF00BF9FE0FFF760F8002804D0B5
:104C4000012803D0022809D104E007E002206449CA
:104C5000087003E000206249087000BF00BF8BE0CD
:104C6000FFF74EF9002804D0012803D0022809D10B
:104C700004E007E003205A49087003E00020584987
:104C8000087000BF00BF77E0FFF7E4F9002804D008
:104C9000012803D0022809D104E007E0042050498C
:104CA000087003E000204E49087000BF00BF63E0B9
:104CB000FFF7B0FA002804D0012803D0022809D158
:104CC00004E007E008204649087003E0002044495A
:104CD000087000BF00BF4FE0FFF708FA002804D0BB
:104CE000012803D0022809D104E007E006203C494E
:104CF000087003E000203A49087000BF00BF3BE0A5
:104D0000FFF73EFA002804D0012803D0022809D179
:104D100004E007E008203249087003E00020304931
:104D2000087000BF00BF27E0FFF75CFB002804D03D
:104D3000012803D0022810D10BE00EE00A202849F8
:104D4000087001202749087001F0B2F801F0B0F8AE
:104D500003E000202249087000BF00BF0CE0224899
:104D60000078012804D100201F4908701C490870F0
:104D7000FFF706FD00E000BF00BF10BD500000209F
:104D800041542B4353510D0A0000000054000020F1
:104D90001C2100202B4353513A20000025640000C1
:104DA000F826002041542B4D5154545055423D306B
:104DB0002C2200003C00002023270020222C000091
:104DC000302C302C302C00003E000020EB2700203F
:104DD00060490001440000204F4B00000006000025
:104DE00051000020430000203A00002070B5054625
:104DF000102002F065FD0446002C0AD0681C60609B
:104E0000606802F05DFD20600020E060A060204648
:104E100070BD0020FCE710B50446206802F026FDB6
:104E200000202060204602F021FD002410BD70B556
:104E300004460D46E268501C616801F0CDFFA06891
:104E4000814208D0E16820684554E268501C6168DE
:104E500001F0C2FFE16070BD70B504460025A16895
:104E6000E068884201D1002070BDA1682068455CDF
:104E7000A268501C616801F0AFFFA1602846F3E70B
:104E800001468B68CA68D01A002801DB024601E09F
:104E90004A6812181046704701468B68CA68D01AD3
:104EA000002801DB024601E04A68121810464A68F1
:104EB000121A501E704701464868401E7047F8B5E8
:104EC00005460E461746002400BF04E03846FFF7AB
:104ED000C3FF2855641CB442F8D3F8BDF8B50546A5
:104EE0000E461746002400BF04E0295D3846FFF750
:104EF0009EFF641CB442F8D3F8BD10B50248FFF71A
:104F000075FF0249086010BDDC0500005400002058
:104F1000F7B503461C460020054601461BE0665CCB
:104F20003011092802DD0646573601E006463036C4
:104F3000F0B22E466D1C9055665C3007000F0928B4
:104F400002DD0646573601E006463036F0B22E4600
:104F50006D1C9055491C01988142E0D3FEBD30B5CF
:104F600003460C4600210FE0585C0011264D285CDA
:104F70004D006055585C0007000F234D285C4D0024
:104F80002D196870481C81B29142EDDB5004000C71
:104F900030BDF7B50B461446002222E0002109E09F
:104FA0005000185C184F7F5CB84201D10807060E0C
:104FB000481CC1B21029F3DB00210AE05000C018E0
:104FC0004078114F7F5CB84201D10D072D0F481C6E
:104FD000C1B21029F2DB30462843009FB854501C60
:104FE00082B2A242DADB6010FEBD0146002007E07B
:104FF0000A78054B1B5C9A4200D103E0421CD0B2F8
:105000000A28F5DB00BF70475C82000170B50A46D4
:10501000FF23FF2408E00178401C5940FE4D6D5CE1
:1050200065402B46FD4D6C5C1546561EB2B2002DF8
:10503000F1D1FB4D2C70FB4D2B7070BD0F2811DC96
:10504000012906D101228240F74B1B881A43F64BF7
:105050001A80002906D101228240F34B1B8893431A
:10506000F14A1380704701460F2909DC012088406E
:10507000ED4A12881040002800D170470120FCE75B
:105080000020FAE701464800E84A105A70474200FB
:10509000E64B995270474200E54B995270470146E2
:1050A0004800E34A105A7047F0B5E24B9D44002691
:1050B000DE480178FFA82430017001214170817021
:1050C000D9480178FFA82430C1700421FFF79EFF62
:1050D000D4480178FFA824300171D1480178FFA895
:1050E00024304171D1480178FFA824308171032117
:1050F000C17144210172002410E06000CB49085ABC
:10510000011260000930FFAA243211546000C7491F
:10511000095C60000A301154601CC4B2222CECDD22
:105120004721FFA82A30FFF771FFBE480178FFA88A
:1051300064304173BA480178FFA864308173BB487A
:105140000178FFA86430C173042101741C214174EB
:10515000002410E06000B649085A01126000523085
:10516000FFAA243211546000B149095C6000533039
:105170001154601CC4B20E2CECDD1F21FFA8753049
:10518000FFF744FFA7480178FFA884308173A44843
:105190000178FFA88430C1737026A74AA7A1FBA895
:1051A00002F0A2F9324601A9FFA82430FFF7D7FE8A
:1051B0000546FBA801F066FE87B201AB3A46FBA9A3
:1051C00001200095FEF7E7FC9A4B5B429D44F0BD41
:1051D000002000BF04E000219D4A1154411C88B208
:1051E0009C4909888842F6DB00219A4A1180704761
:1051F000F0B59DB000201C901B90002500240026D7
:10520000002701909348008802286FDB91480088AE
:10521000801E81B28E48FFF7F9FE8E480088401E3E
:105220008B49085C7E49097888427DD1894800888D
:10523000801E8749085C7B4909788842F5D18448FB
:1052400000781C90824840781B908148807800024A
:105250007F49C978401885B2744801881C988142FA
:10526000E3D11B98052868D006DC012809D0032863
:105270007DD004287CD1F8E106287AD01028F9D115
:105280006EE1042D58DC72480079000270494979BA
:10529000401884B2601905284EDC69461C980872D3
:1052A0001B984872E117490F0919C910002903D149
:1052B00001206946887217E02046E117490F091856
:1052C000C910C900611A07D1E117490F091849052A
:1052D000090E6A46917207E02046E117490F091846
:1052E000C910491C6A46917200260BE001E24E4843
:1052F00000882841F1000841C1B2F01C02AA1154F3
:10530000701CC6B26846807AB042F0DC6846807A8B
:10531000401DC7B2B81E81B202A8FFF777FE414810
:105320000178B81E02AA00E0E1E111543C4801787E
:10533000781E1154FFF7B8FED8E145480079000205
:1053400043494979401884B2072D63DC69461C98AB
:10535000087268461B99417229128172C572211226
:10536000017344730827B81E81B202A802E03CE131
:10537000BBE1C9E0FFF74AFE2A480178B81E02AA3D
:10538000115427480178781E11542B0002F0D7F8E9
:1053900008051774AF878E8F9CAFFF2000028442F0
:1053A0000CD100F02BFD00BFBFF34F8F2A482B49D3
:1053B000C860BFF34F8F00BF00BFFEE798E0022038
:1053C000FFF751FE002856D10320FFF74CFE0128BD
:1053D00051D100210420FFF731FEFF20000284425A
:1053E0000FD10020FFF73FFE00280AD10121084617
:1053F000FFF724FE01200190FFF756FE0120FEF783
:1054000058F9002C35D100210120FFF717FE0A21A1
:10541000084625E077E00000C3000020C30100201B
:10542000C1000020C2000020580000205A000020C7
:10543000D42B0020ECF9FFFF100000206D6F646298
:1054400075735F7374617475732F257300000000AA
:10545000742C0020DE0200200400FA0500ED00E0BC
:10546000FFF719FE01200190FFF71EFE0020FEF756
:1054700020F900F07FFB3BE0FF200002844205D1D1
:1054800001210220FFF7DAFD00F074FB002C05D1AA
:1054900000210220FFF7D2FD00F06CFB28E0FF2086
:1054A0000002844201D100F014FC21E020E0FF2042
:1054B0000002844207D100210846FFF7BFFD00210A
:1054C0000B20FFF7E8FD13E0FF200002844205D126
:1054D00001210420FFF7B2FD00F04CFB002C05D1A8
:1054E00000210420FFF7AAFD00F044FB00E000BF0C
:1054F00000BF0198002801D1FFF7D6FD01980128CF
:1055000001D100200190F1E07B48007900027A4946
:105510004979401884B2212D21DC69461C98087213
:1055200068461B99417229128172C572211201735A
:1055300044730827B81E81B202A8FFF767FD6F48C1
:105540000178B81E02AA11546D480178781E1154D2
:10555000FFF7AAFD68006B490C5200F027FBC5E07D
:1055600065480079000264494979401884B2212DC8
:105570003ADC2819222837DC00260FE07000C01D15
:105580005D49085C0102700008305B4A105C081835
:10559000711949005B4A5052701CC6B2A642EDDB3D
:1055A00069461C98087268461B99417229128172DB
:1055B000C5722112017344734F4881796846817323
:1055C0000927B81E81B202A8FFF720FD4B480178D9
:1055D000B81E02AA11544A480178781E1154FFF7E8
:1055E00063FD00F0E3FA00BF80E043480079000269
:1055F00041494979401884B2212D35DC60192228AF
:1056000032DC69461C98087268461B994172600634
:10561000010E68468172002611E0A8194000394940
:10562000085A01127000C01C02AA1154A8194000A7
:105630003449095C7000001D1154701CC6B2A642AA
:10564000EBDD6000401DC7B2B81E81B202A8FFF7B3
:10565000DDFC2A480178B81E02AA115428480178B6
:10566000781E1154FFF720FD40E023480079000226
:1056700021494979401884B20D2D35DC28190E28AE
:1056800032DC69461C98087268461B9941726006B4
:10569000010E68468172002611E0A81940001A49DF
:1056A000085A01127000C01C02AA1154A819400027
:1056B0001549095C7000001D1154701CC6B2A64249
:1056C000EBDD6000401DC7B2B81E81B202A8FFF733
:1056D0009DFC0A480178B81E02AA115408480178B6
:1056E000781E1154FFF7E0FC00E000BF00BFFFF799
:1056F0006FFD1DB0F0BD0000742C0020C200002022
:10570000C10000205A000020D42B002010B5814990
:105710000020FCF7D0FF10BD10B57F490020FCF73A
:1057200027FF7E48406810BD03207D490870142083
:1057300088700B2048701320C87000207949C87009
:10574000092008703320487000208870704770B5B9
:10575000FF24FF25FF2672480478FF2C01D100208A
:1057600070BD6C490C70FF246D488478FF2C01D10A
:105770000020F5E767498C7069484578FF2D01D115
:105780000020EDE763494D706548C678FF2E01D1D2
:105790000020E5E75F49CE700020FCF718FF0028E5
:1057A00000D1DDE7FFF7B2FF0120D9E770B5FF2494
:1057B000FF25FF265B48C0785749C87059480478D0
:1057C000FF2C01D1002070BD53490C70554845781D
:1057D000FF2D01D10020F6E74F494D7051488678E2
:1057E000FF2E01D10020EEE74B498E700020FCF720
:1057F00053FE002800D1E6E7FFF78EFF0120E2E725
:1058000010B54948006849494860494800688860BF
:10581000002008600846FCF7DDFD10BD10B5044609
:1058200001210807FBF72CFC01210846FBF71AFCB5
:105830000020FBF78BFB012C15D10420FBF74AFB62
:1058400000BF4320FBF740FA0028FAD02020FBF7E6
:105850006DFB0020FBF75AFBFF20354908607F20D5
:105860003149086013E0022C11D10120FBF74EFBF7
:1058700000BF4120FBF728FA0028FAD00020FBF7F0
:1058800055FBFF202A4908607F2027490860012036
:10589000FBF75CFBFCF7EFFC10BD10B501202549C0
:1058A0000870254AFF21F5310520FDF797FE10BD50
:1058B00010B50220FFF7B2FFFFF7A2FF0021012081
:1058C0008003FDF70EF90020FDF74EF81A4AFF217C
:1058D000F5310520FDF782FE10BD70B506460C4679
:1058E00015461048067044708570FFF75FFF70BD65
:1058F00010B510480078012804D100200D49087027
:10590000FFF70AFF10BD01210C4A117070470B48C8
:1059100000787047C4020020CC020020002800401C
:10592000C8020020D0020020D8020020242C002031
:10593000D4020020DC0200209B580001DD02002080
:1059400000B58DB0A12168460170582141705921E0
:105950008170A221C17001210171002141710121D9
:1059600081710E21C17100210172B42141721F2188
:1059700081724021C1721E21017350214173442163
:105980008173C021C1730F21017402214174FF2171
:1059900081740021C17401757F21417517218175C2
:1059A0003B21C175FE488068010E08A80174FC48BF
:1059B00080680002010E08A84174F94800890004BB
:1059C000010E08A88174F648017A08A8C1748120E4
:1059D0004004FDF7F7F83422694681204004FDF7C2
:1059E0000BF90DB000BD70B500243422ED498120C3
:1059F0004004FDF71FF901210020FFF748FBE948AB
:105A000080790002E74AD279801881B20320FFF73B
:105A10003EFBE448007A0002E24A527A801881B2E2
:105A20000420FFF734FBDF48807A0002DD4AD27A97
:105A3000801881B20520FFF72AFBDA48017B062097
:105A4000FFF725FBD748417B0720FFF720FBD54810
:105A5000807B0002D34AD27B801881B20820FFF7F6
:105A600016FBD048017C0920FFF711FBCD48417C93
:105A70000D20FFF70CFB00BF1DE06200A2181232E0
:105A8000C84B995C62000E32D0B2FFF700FB620097
:105A9000A2181332C34B9A5C13026200A21814328C
:105AA000C04DAA5C9A1891B262000F32D0B2FFF7D3
:105AB000EEFA601CC4B20A2CDFDBBA482030007C4E
:105AC0000106B8482030407C00040918B548203051
:105AD000807C00020918B3482030C07C0818B04907
