:020000040800F2
:10000000405C0020AD010008991F0008DD140008C5
:10001000511F0008310A0008514600080000000086
:10002000000000000000000000000000BF01000808
:10003000330A000800000000C3010008692A000814
:10004000C7010008C7010008C7010008C701000870
:10005000C7010008C7010008C7010008C701000860
:10006000C7010008C7010008C7010008C701000850
:10007000C7010008C7010008C7010008C701000840
:10008000C7010008C7010008C7010008C701000830
:10009000C7010008C7010008C7010008C701000820
:1000A000C7010008C7010008C7010008C701000810
:1000B000C7010008C7010008C7010008C701000800
:1000C000C7010008C7010008C7010008C7010008F0
:1000D000C7010008C70100081D3A0008753A00086A
:1000E000C7010008C7010008C7010008C7010008D0
:1000F000C7010008C7010008C7010008C7010008C0
:10010000C7010008C7010008C7010008C7010008AF
:10011000FD390008C701000829320008C70100089E
:10012000C7010008C7010008C7010008C70100088F
:10013000C7010008C7010008C7010008C70100087F
:10014000C7010008C7010008C7010008C70100086F
:10015000C7010008C7010008C7010008C70100085F
:10016000C7010008C7010008C7010008C70100084F
:10017000C7010008C7010008C7010008C70100083F
:10018000C7010008C7010008C7010008C70100082F
:10019000C7010008C7010008DFF80CD000F0D0F953
:1001A00000480047194D0008405C00200648804781
:1001B00006480047FEE7FEE7FEE7FEE7FEE7FEE74C
:1001C000FEE7FEE7FEE7FEE76D2A0008990100085A
:1001D00040EA01039B0703D009E008C9121F08C0C9
:1001E000042AFAD203E011F8013B00F8013B521E49
:1001F000F9D27047D2B201E000F8012B491EFBD2C0
:1002000070470022F6E710B513460A460446194621
:10021000FFF7F0FF204610BD30B505462A460B46D5
:1002200012F8010B13F8014B08B1A042F8D01CB131
:10023000002802D06D1CF1E7284630BDCAB2401E2E
:1002400010F8011F8A4202D00029F9D1002070471E
:10025000421C10F8011B0029FBD1801A704770B5B1
:10026000064604F067FA046805460A220021304673
:1002700000F0D1F82C6070BD2DE9FE4F81EA030437
:1002800004F0004421F0004100944FF0000B23F0F3
:10029000004350EA01045ED052EA03045BD0C3F38A
:1002A0000A54C1F30A552C44A4F2F3340194A0FB80
:1002B0000254C1F3130141F48011C3F3130343F457
:1002C000801301FB024400FB034E840A970A44EAB0
:1002D000815447EA8357A4FB076802958D0A05FB02
:1002E00007854FEA932C04FB0C542705029D4FEA27
:1002F000065847EA1637B5EB08056EEB070C870E74
:10030000920E47EA811742EA8312A7FB0201B6EB7D
:100310000B0164EB00042B0D43EA0C335E1844EB35
:100320001C50DA465146E7FB0201C5F313044FEABD
:100330000B3343EA14534FEA0432019C43EA0603A9
:10034000A4F10C040294009CCDE900B400F0AAF8DA
:1003500003B0BDE8F08F00200146F9E70EB5C10FEC
:1003600080EAE0700844CA07002140F233438DE878
:100370000E000A460B4600F095F803B000BD0EB51E
:1003800040F2334102910021CDE900110A460B46AB
:1003900000F088F803B000BDC1F30A5210B5C1F3F4
:1003A000130140F2FF3341F480119A4201DA002038
:1003B00010BD40F233439A42A2F2334203DC524270
:1003C00000F019F810BD904010BD30B50B46014645
:1003D00000202022012409E021FA02F59D4205D3E4
:1003E00003FA02F5491B04FA02F52844151EA2F18E
:1003F0000102F1DC30BD202A04DB203A21FA02F0B0
:100400000021704721FA02F3D040C2F1200291404E
:100410000843194670472DE9F04791460F4680463C
:100420000446002614F8015B2DB100F0ABF800681B
:10043000405DC007F6D12B2D02D02D2D18D0641EA3
:100440004A463946204600F0A1F827B13968A14252
:1004500001D1C7F8008071054FF002040BD540426E
:10046000002803DD04F066F90460A007BDE8F0870A
:1004700046F48066E4E70028F8DA04F05BF90460EB
:100480006FF00040F2E710B5141E73F1000408DAB3
:10049000401C41F1000192185B411A4301D120F048
:1004A000010010BD2DE9F04D92469B4611B1B1FA05
:1004B00081F202E0B0FA80F22032904600F052F869
:1004C00004460F4640EA0A0041EA0B0153465A46E9
:1004D000084313D0114653EA010019D0C8F1400275
:1004E0005046FFF788FF05460E465046594642469D
:1004F00000F038F8084305D0012004E020463946D2
:10050000BDE8F08D0020054346EAE0762C433743F2
:100510000A986305E40AA0EB08000022FD0A44EAF9
:1005200047540A3002D500200146E9E701051019B9
:100530006941DDE9084500196941BDE8F04DA2E7D0
:10054000064C074D06E0E06840F0010394E8070020
:1005500098471034AC42F6D3FFF722FECC6B00086C
:10056000EC6B0008202A04DB203A00FA02F100209C
:1005700070479140C2F1200320FA03F319439040E1
:100580007047000000487047EC6A00082DE9F05FF2
:1005900082460078002715468B460AF10104B946C9
:1005A000302801D09DB113E014F8010B0127782801
:1005B00003D0582801D045B10AE00DB1102D07D164
:1005C0000027102514F8010B02E0082500E00A2599
:1005D0000026B0460EE005FB080005FB06F10127EA
:1005E00001EB10461FFA80F8B6F5803F00D3B946FC
:1005F00014F8010B294600F018F80028EBDABBF1DB
:10060000000F05D00FB1641E00E05446CBF8004047
:10061000B9F1000F06D004F08DF802210160C81E68
:10062000BDE8F09F48EA0640FAE73A2800D23038A1
:1006300020F02002412A01D3A2F13700884201D3E1
:100640004FF0FF3070470000F8B54FF40050ADF8A0
:10065000000010250E4E8DF8035001248DF8024045
:100660006946304600F054FD2103ADF800108DF8C6
:1006700003508DF802406946304600F049FD6103A1
:10068000304600F0C1FE2103304600F0BDFEF8BD4B
:10069000000C014070B51D4C0025E07A10B1012816
:1006A00013D010E02079401C207101F05FFC0C2178
:1006B00017A003F0B1FF64216570194A092003F007
:1006C000F3FF0120E072002070BD01F043FC002820
:1006D00008BF70BD134E306801F060FF014612483C
:1006E000326800F0A7F911A10F48FFF795FD002827
:1006F0001EBFE572012070BD20790A2898BFE572FF
:10070000E1D92571E572022070BD000030000020A3
:1007100041542B51494143543D310D0A0000000022
:100720008D1F00082C000020380E00204F4B0000C9
:100730000146064A09780020135C994208BF7047B9
:10074000401CC0B20A28F7D370470000244E0008AE
:100750002DE9F0414E4C8188A1808179A171B0F8DA
:1007600001102180C178A170B0F807102181417A71
:10077000A1724189A181017BA173B0F80D10218282
:10078000C17BA174018AA182817CA175B0F813108C
:100790002183407DA0766068FFF7F1FD9FED3E1B51
:1007A00053EC112BFFF768FDFFF7F6FD04F11C0673
:1007B00085B235802068FFF7E2FD9FED391B53ECD1
:1007C000112BFFF759FDFFF7E7FD87B27780E0684F
:1007D000B0F5000F03DBC043401CC0F31600FFF769
:1007E000BDFD9FED311B53EC112BFFF745FDFFF7CE
:1007F000D3FD80B200EE100AB0802F4BB8EE401A45
:1008000000EE105AB8EE400AC1EE000A00EE107A6F
:10081000B8EE401A80EE810ADFED250A60EE200A6C
:100820009FED240A60EE800AFCEEE00A10EE900ACA
:100830003073206959680844586019469A68C96835
:10084000904203D3821A1144D96006E06FF07F4CC6
:10085000ACEB020202441144D9600022C3E901203A
:100860000D2938BFBDE8F08100EE901AB1689FED08
:10087000131AF8EE600A60EE810A20EE800ABCEEE0
:10088000C00A10EE100A0844B060DA60BDE8F081DA
:100890005C090020000000009FE74A621B81103FB6
:1008A000CD2D44350B4E903F56B7DD7835487A3F15
:1008B0000000C84200007A441C000020EDF8433AD2
:1008C00008B507A00068009006480178012918BF04
:1008D00008BD002101700221684603F007FE08BD33
:1008E00058AA00001C000020084808B500680090C5
:1008F00007480178012905D10021017002216846CD
:1009000003F0F4FDBDE8084003F00CBEE008000869
:100910001C00002038B50220ADF8000010208DF832
:1009200003000120104C8DF802006946204600F0BB
:10093000EFFB0221204600F0FDFC0221204600F0E2
:1009400063FD4FF4FA7004F003F80221204600F032
:10095000F1FC40F6B83003F0FBFF044A4FF47A7123
:10096000042003F0A1FE38BD00080140D52800088E
:1009700038B503F07FFE01F0F9FD04F0FDF804F056
:1009800037F804F0B7F801F008FBFFF7C3FF04F0F5
:1009900073F94FF48050ADF8000010208DF803007B
:1009A000114D01248DF802406946284600F0B0FB45
:1009B0002103284600F0BEFCADF8004048218DF828
:1009C00003106946284600F0A3FB02F045F901F048
:1009D0008DFF01F063FFFFF737FE01F035F8BDE84A
:1009E000384004F011B90000000801400E4A10B56B
:1009F00001205070107801280CD1002313709078DA
:100A0000401CC1B209489170012909D0937020217E
:100A100000F090FCFFF768FFBDE8104001F02CB833
:100A2000202100F0F1FCF5E7120000200008014051
:100A3000FEE770470023002998BF7047F0B40026F6
:100A4000D2E902C4644508BF34460BD01468556827
:100A500014F80C400CF1010C9CFBF5F705FB17CCCE
:100A6000C2F808C0C4545B1C8B42E9D3F0BC704789
:100A700070B50D460446012818BF022C00F0E08135
:100A8000042C18BF082C00F0DB81A4F5A01010384E
:100A90001CBFA4F5A010B0F1300000F0D181A4F586
:100AA000B01040381CBFA4F5B010B0F1C00000F089
:100AB000C781A4F5C010B0F580701CBFA4F5C010AC
:100AC000B0F5007000F0BC81A4F5C010B0F5407026
:100AD0001CBFA4F5C010B0F5023000F0B181A4F540
:100AE000C010B0F5033018BFB4F5805F00F0A881E6
:100AF000B4F5E91F18BFB4F5EA1F00F0A181B4F501
:100B0000EB1F18BFB4F5004F00F09A816FF400108E
:100B1000C4421CBFA4F50010B0F1020000F09081A7
:100B2000A4F50010001F1CBFA4F50010B0F10800D0
:100B300000F08681A4F5001010381CBFA4F5401009
:100B4000B0F5807000F07C81A4F54010B0F5007025
:100B50001CBFA4F54010B0F5806000F07181FB4827
:100B600084421CBF6FF08040C44200F06981F848A5
:100B700084421CBFF748844200F06281F6488442F8
:100B80001CBFF648844200F05B81F54884421CBFDC
:100B9000F448844200F05481F34884421CBFF34877
:100BA000844200F04D81F24884421CBFF1488442E7
:100BB00000F04681F04884421CBFF048844200F0B7
:100BC0003F81A4F18040B0F5F2101CBFA4F1804039
:100BD000B0F5F41000F03481A4F18040B0F5F610C7
:100BE0001CBFE748844200F02B81E64884421CBFCA
:100BF000E548844200F02481A4F18040B0F1907077
:100C00001CBFE248844200F01B81E14884421CBFC3
:100C1000A4F18040B0F1846000F01281DD4884428C
:100C20001CBFDD48844200F00B81DC4884421CBFBD
:100C3000DB48844200F00481DA4884421CBFDA4871
:100C4000844200F0FD80D94884421CBFD8488442C9
:100C500000F0F680D74884421CBFD748844200F099
:100C6000EF80D64884421CBFD548844200F0E8801B
:100C7000D44884421CBFD448844200F0E180A4F1EF
:100C80008040B0F579101CBFA4F18040B0F57B1016
:100C90007ED0CE4884421CBFCD48844278D0CD4817
:100CA00084421CBFCC48844272D0CC4884421CBFD2
:100CB000CB4884426CD0CB4884421CBFCA48844293
:100CC00066D0CA4884421CBFC948844260D0C94823
:100CD00084421CBFC84884425AD0C84884421CBFC2
:100CE000C748844254D0C74884421CBFA4F1005076
:100CF000B0F580504CD0A4F10050B0F580401CBF3E
:100D0000A4F10050B0F5004042D0BF4884421CBF5F
:100D1000BE4884423CD0BE4884421CBFBD48844289
:100D200036D0BD4884421CBFBC48844230D0BC4849
:100D300084421CBFBB4884422AD0BB4884421CBFAB
:100D4000BA4884427CD0A4F5001080381CBFA4F5BA
:100D5000B010B0F1800073D0A4F1815080381CBF76
:100D6000A4F18150B0F140006AD0A4F18150203844
:100D70001CBFA4F18150B0F1100061D0A4F18150EA
:100D800008381CBFA4F18150B0F1040058D000E035
:100D900056E0A4F18150801E1CBF6FF08150C44208
:100DA0004ED0A4F18050B0F500401CBFA4F180509B
:100DB000B0F5804044D0A4F18050B0F5005018BF89
:100DC000B4F1102F3CD0A4F18050B0F500601CBFEE
:100DD000A4F18050B0F5806032D0A4F18050B0F51D
:100DE00000701CBFA4F18050B0F5807028D0A4F131
:100DF000805080381CBFA4F18050B0F140001FD05B
:100E0000A4F1805020381CBFA4F18050B0F1100034
:100E100016D0A4F1805008381CBFA4F18050B0F166
:100E200004000DD0A4F18050801E1CBF6FF08050D4
:100E3000C44205D040F27A227DA18CA003F070FD5F
:100E4000002D18BF012D05D040F27B2278A18DA086
:100E500003F066FD924A14F0004F18BFD0691ED00F
:100E600090491FFA84FC04EA0106C4F340510B01C7
:100E7000A1B29940B6F5401F21D014F4801F24D0B0
:100E800014F4001F4FF00303C4F3034603FA06F300
:100E900018BF1B04984314F0E04F52D11EE114F028
:100EA000804F18BF106ADBD114F0005F18BF506A82
:100EB000D6D114F0805F14BF906A5068D0E75368B1
:100EC00020F0706023F07063FAE014F0807F25D08A
:100ED00014F0040F1AD014F0007F20EA01000ED0A5
:100EE00035B1536843F0010343F070635360F8E099
:100EF000516821F0010141F070615160F2E05368E6
:100F000023F0010343F070635360E9E04CF0040CFC
:100F10000CFA03F39843002DEAD0E2E714F0806F57
:100F200011D014F0080F0FD014F0007F20EA010058
:100F30000BD03DB1536843F0080343F07063536036
:100F4000CFE0CDE0B0E0C5E0BCE0B4E0000400805C
:100F500002001140060011402000144030001440EF
:100F600040001640C0001640000218400003184020
:100F700000041A40000C1A4000101C4000301C40B5
:100F800001003040020030400300304004002041A6
:100F9000040020430800204408002046100034408C
:100FA000200034403000344040003640800036405D
:100FB000C0003640000238400003384000043A4088
:100FC000000C3A4000103C4000303C400100102032
:100FD000020010200300102004001220080012203C
:100FE0000C001220100014203000142040001620A5
:100FF000C00016200001182000021820000318204D
:1010000000041A20000C1A200100202002002020D9
:10101000040020200800202010003420300034205C
:1010200040002020800020200001202000022020FD
:101030002E2E5C6669726D776172655C6E33326705
:101040003435785F7374645F7065726970685F646B
:1010500072697665725C7372635C6E3332673435C5
:10106000785F6770696F2E630000000049535F4727
:1010700050494F5F52454D415028526D7050696E36
:101080002900000049535F46554E4354494F4E4195
:101090004C5F535441544528436D642900000000BF
:1010A0000000014000003070516821F0080141F05B
:1010B0007061516016E0536823F0080343F07063D9
:1010C00053600DE04CF0080C0CFA03F39843002D2C
:1010D000EAD02FE7884314F0E04F01D140F0706070
:1010E00005B1084314F0004F1CBFD06170BD14F06F
:1010F000804F1CBF106270BD14F0005F1CBF5062B7
:1011000070BD14F0805F14BF9062506070BD00002D
:101110002DE9F04104460026A0F180400D46B0F5CF
:1011200084301CBFA4F18040B0F586301CD0A4F1FF
:101130008040B0F588301CBFA4F18040B0F58A3003
:1011400012D0A4F18040B0F58C301FBFA4F18040D4
:10115000B0F58E30A4F18040B0F5903004D0BE22BE
:101160003FA14EA003F0DCFBE878002818BF04285C
:1011700010D0282818BF48280CD0142818BF1028D1
:1011800008D01C2818BF182804D0BF2234A14AA0B8
:1011900003F0C6FB288820B9C02231A151A003F07A
:1011A000BFFBE87800F00F0710F0100F0FD0A87801
:1011B000002818BF022808D0012818BF032804D02F
:1011C000C72227A150A003F0ABFBA87807432878DB
:1011D0004FF00F0C10F0FF0F4FF0010318BF216804
:1011E00019D02A8803FA06F0024082420FD1B200D9
:1011F0000CFA02F821EA080107FA02F21143EA7830
:10120000282A08BF606102D0482A08BF2061761CE6
:10121000082EE6D321602888FF2886BF6268002058
:10122000BDE8F08100F108012E8803FA01F10E40BB
:101230008E420FD186000CFA06F822EA080207FA5D
:1012400006F63243EE78282E08BF6161EE78482E0C
:1012500008BF2161401C0828E4D36260BDE8F0812A
:101260002E2E5C6669726D776172655C6E333267D3
:101270003435785F7374645F7065726970685F6439
:1012800072697665725C7372635C6E333267343593
:10129000785F6770696F2E630000000049535F47F5
:1012A00050494F5F414C4C5F504552495048284788
:1012B00050494F782900000049535F4750494F5F1C
:1012C0004D4F4445284750494F5F496E69745374E8
:1012D000727563742D3E4750494F5F4D6F646529A9
:1012E0000000000049535F4750494F5F50494E2866
:1012F0004750494F5F496E69745374727563742D1A
:101300003E50696E2900000049535F4750494F5FC6
:101310005350454544284750494F5F496E697453BF
:1013200074727563742D3E4750494F5F5370656505
:101330006429000070B50446A0F180400D46B0F568
:1013400084301CBFA4F18040B0F586301DD0A4F1DC
:101350008040B0F588301CBFA4F18040B0F58A30E1
:1013600013D0A4F18040B0F58C301FBFA4F18040B1
:10137000B0F58E30A4F18040B0F5903005D04FF438
:10138000C57206A114A003F0CBFA2DB940F28B125E
:1013900002A118A003F0C4FA656170BD2E2E5C6630
:1013A00069726D776172655C6E3332673435785F70
:1013B0007374645F7065726970685F647269766582
:1013C000725C7372635C6E3332673435785F67705A
:1013D000696F2E630000000049535F4750494F5F1B
:1013E000414C4C5F504552495048284750494F782E
:1013F0002900000049535F4750494F5F50494E282C
:1014000050696E290000000070B50446A0F18040CC
:101410000D46B0F584301CBFA4F18040B0F5863095
:101420001DD0A4F18040B0F588301CBFA4F18040ED
:10143000B0F58A3013D0A4F18040B0F58C301FBFD6
:10144000A4F18040B0F58E30A4F18040B0F590302A
:1014500005D040F2731206A114A003F061FA2DB971
:101460004FF4BA7202A118A003F05AFA256170BDB8
:101470002E2E5C6669726D776172655C6E333267C1
:101480003435785F7374645F7065726970685F6427
:1014900072697665725C7372635C6E333267343581
:1014A000785F6770696F2E630000000049535F47E3
:1014B00050494F5F414C4C5F504552495048284776
:1014C00050494F782900000049535F4750494F5F0A
:1014D00050494E2850696E290000000001A003F019
:1014E00005F9FBE7766F69642048617264466175AF
:1014F0006C745F48616E646C657228766F696429EC
:101500000D0A000010B4C268D0F804C0531C93FB4D
:10151000FCF40CFB1433D0F808C0634504BF10BCC6
:10152000704703689954C1684268491C91FBF2F303
:1015300002FB1311C16010BC704700002DE9F04799
:101540003D4E0025307B10B1012812D06BE0707940
:10155000401C707100F00AFD0A2138A003F05CF80D
:10156000C8217570384A092003F09EF801203073B5
:1015700059E000F0EFFC002808BFBDE8F087334CCD
:10158000206801F00BF8014631482268FFF752FA53
:1015900030A12F48FEF740FE070040D02C212C48F8
:1015A000FEF74CFE002836D0441C7571801CFFF7F6
:1015B000BFF880462046FFF7BBF800EB800008EB41
:1015C0004000C0B210282CBF1038083000F0FF08CF
:1015D000201DE41CFFF7ACF881462046FFF7A8F871
:1015E00000EB800009EB400000F0FF09381DFFF719
:1015F0009FF807462046FFF79BF800EB800007EBBB
:101600004000C3B24A46414614A003F06FF8357358
:101610000120BDE8F08770790A2803D106E07079CF
:101620000A2803D035730020BDE8F0877571357343
:101630000220BDE8F08700003000002041542B4319
:10164000434C4B3F0D0A00008D1F00082C0000206A
:10165000380E00202B43434C4B3A000025643A25BA
:10166000643A25640D0A00002DE9F047AC4E0024D1
:10167000DFF8B082B07BADF5C46D25464FF00109AF
:101680002746092880F04481DFE800F005121A2C73
:101690007F879DFAF800F078012807BFF7700420D3
:1016A00086F80E900DF5C46D18BFBDE8F08785E093
:1016B000642177709C4A092002F0F6FF02207DE049
:1016C00000F048FC00287AD000F050FC112197A0CF
:1016D00002F0A2FF64217770934A092002F0E4FF30
:1016E00003206BE000F036FC002868D0D8F800003A
:1016F00000F054FF01469248D8F80020FFF79AF90D
:1017000090A18F48FEF788FD002800F0018190A18C
:101710008B48FEF781FD1030044601782C2903D058
:1017200010F8011F2C29FBD1001BA0F10108C821D2
:101730006846FEF766FD424621466846FEF748FDCC
:1017400004EB080086A1FEF767FD002800F0E080AA
:10175000841C81780DF5C1602C2906D04155691C87
:101760008DB214F8011F2C29F8D14755FEF777FDEB
:101770000546C8216846FEF744FD2A46611C6846B6
:10178000FEF726FDB77300F0C3B864217770664A90
:10179000092002F089FF052010E000F0DBFB0028A3
:1017A0000DD000F0E3FB08216EA002F035FF6421AC
:1017B00077705D4A092002F077FF0620B0730DF5BF
:1017C000C46DBDE8F08700F0C5FB002804BF0DF52F
:1017D000C46DBDE8F087D8F8000000F0DFFE0146D8
:1017E0005748D8F80020FFF725F961A15448FEF7C3
:1017F00013FD28B310F8061F2C2904D010F8011F80
:10180000641C2C29FAD1DFF870817125A0EB040A41
:1018100008F52379012C02D0022C12D02BE050467F
:10182000FEF786FFA5EB4000C2B254A10DF2DC50DA
:1018300002F06CFF9DF8DC0588F88C0289F80170D5
:1018400019E00AF10100FEF773FF04465046FEF767
:101850006FFF00EB800004EB4000A5EB4000C2B23C
:1018600046A10DF2DC5002F051FFBDF8DC05A8F8EE
:101870008C0289F802700720B073A0E734E0FFE71C
:101880000E213FA002F0C8FE318A414802F0C4FE9A
:10189000022133A002F0C0FE06213EA002F0BCFEF1
:1018A000728A36A10DF5BC6002F030FF0DF5BC6008
:1018B000FEF7CEFC81B20DF5BC6002F0ADFE022158
:1018C00032A002F0A9FE718A344802F0A5FE03217D
:1018D00033A002F0A1FEF770C8217770124A0920E8
:1018E00002F0E2FE082069E700F034FB00283FF434
:1018F00066AFD8F8000000F051FE01461048D8F855
:101900000020FFF797F827A10D48FEF785FC08B1E6
:10191000B77354E786F80090B770B7734FE70000CD
:10192000300000202C0000208D1F000841542B4D5A
:10193000515454524541443D302C310D0A000000B1
:10194000380E00202B4D515454524541443A00006A
:101950002B4D515454524541443A20302C302C00E8
:10196000222C000041542B4353510D0A000000006B
:101970002B4353513A2000008811002025640000B9
:1019800041542B4D5154545055423D302C220000AF
:1019900088090020302C302C302C0000500A002008
:1019A000220D0A004F4B00002DE9F041214C224F3F
:1019B0000025A07920B101281FD0022831D02DE0C8
:1019C0001E4EA570306800F0E9FD01461C483268E3
:1019D000FFF730F800F0CAFA4FF400413846FFF73D
:1019E00013FD4FF4FA716570164A092002F05CFE8F
:1019F0000120A0710020BDE8F08100F0ABFA68B1D1
:101A00004FF400413846FFF795FC41F2883165708C
:101A10000C4A092002F048FE0220A0710020BDE817
:101A2000F08100F097FA00281CBFA5710120BDE8E5
:101A3000F081000030000020000801402C00002050
:101A4000380E00208D1F000838B54FF40040ADF867
:101A5000000010208DF803000120064C8DF80200D4
:101A600069462046FFF754FB4FF400412046FFF73C
:101A7000CBFC38BD00080140474810B5C07B0B289F
:101A800028BF10BDDFE800F0061826344654620F68
:101A90006C0F7C00FFF788FF002808BF10BD0128ED
:101AA00002D0022804D010BD3B490120C87310BDEC
:101AB00039490020C87310BD00F020FC002808BF81
:101AC00010BD012802D00228F2D010BD32480221F8
:101AD000C17310BD00F0C2FB002808BF10BD012873
:101AE00002D00228E4D010BD2B490320C87310BDDA
:101AF00000F064FB002808BF10BD012806D00228B2
:101B000018BF10BD00212448C17310BD2249042014
:101B1000C87310BDFFF712FD002808BF10BD0128D3
:101B200002D00228C4D010BD1B490820C87310BDC4
:101B300000F002FF002808BF10BD012802D00228D3
:101B4000B6D010BD14490620C87310BDFEF7A2FD23
:101B5000002808BF10BD0128E6D00228A8D010BD7B
:101B600000F028F8002808BF10BD012802D0022884
:101B70009ED010BD08480A21C1730121817010BD9B
:101B800005480178012902D100210170C173BDE827
:101B90001040FFF769BD000030000020044901201B
:101BA0000870AFF207024FF47A7102F07DBD0000B9
:101BB0001200002010B5A6488CB0407B0A2832D213
:101BC000DFE800F0051834455F9EB7D9FBF900F057
:101BD000CDF919219FA002F01FFD9D4C002064212A
:101BE0006070A34A092002F05FFD012060730CB011
:101BF000002010BD00F0AEF9002804BF0CB010BDED
:101C00009C4C206800F0CAFC01469B482268FEF705
:101C100011FF9AA19848FEF7FFFA002800F0128100
:101C20008B49022048730CB0002010BD00F09EF9D3
:101C30001E2193A002F0F0FC854C0020642160700E
:101C40008B4A092002F030FD032000F092B800F02A
:101C500081F9002804BF0CB010BD864C206800F04C
:101C60009DFC014684482268FEF7E4FE83A1824879
:101C7000FEF7D2FA002800F0E58075490420487389
:101C8000D1E700F073F90F2185A002F0C5FCC62151
:101C9000B820CDE90001EA23312285A102A802F093
:101CA00035FD02A8FEF7D4FA81B202A802F0B4FC16
:101CB00042F6483282A102A802F028FD02A8FEF7EF
:101CC000C7FA81B202A802F0A7FC02217DA002F0AF
:101CD000A3FC10217C4802F09FFC02217BA002F0B3
:101CE0009BFC13217AA002F097FC594C00204FF482
:101CF000FA6160705E4A092002F0D6FC052038E0E7
:101D000000F028F9002804BF0CB010BD594C206821
:101D100000F044FC014658482268FEF78BFE71A192
:101D20005548FEF779FA00287ED0494906204873C5
:101D300079E700F01BF91D2170A002F06DFC624AEA
:101D400076A102A802F0E2FC02A8FEF781FA81B2B5
:101D500002A802F061FC052171A002F05DFC3C4C80
:101D6000002041F288316070414A092002F09CFC59
:101D70000720607357E700F0EDF8002804BF0CB0AF
:101D800010BD3C4C206800F009FC01463A4822682E
:101D9000FEF750FE39A13848FEF73EFA044662A12C
:101DA0003548FEF739FA002C18BF00284AD02849D8
:101DB0000820487337E721E0FFE700F0D7F81A2141
:101DC0005CA002F029FC404A54A102A802F09EFC4B
:101DD00002A8FEF73DFA81B202A802F01DFC05211F
:101DE0004FA002F019FC1A4C002041F288316070BB
:101DF0001F4A092002F058FC0920BAE700F0AAF8AF
:101E0000002804BF0CB010BD1A4C206800F0C6FBBF
:101E1000014619482268FEF70DFE18A11648FEF784
:101E2000FBF9044640A100E00CE01348FEF7F4F98A
:101E3000002C18BF002805D00549002048730CB0BD
:101E4000012010BD0249002048730CB0022010BDD3
:101E50003000002041542B4D5154544346473D22FD
:101E6000636163686564222C302C310D0A00000028
:101E70008D1F00082C000020380E00204F4B000062
:101E800041542B4D5154544346473D226B65657078
:101E9000616C697665222C302C3132300D0A0000DD
:101EA00041542B4D515454434F4E4E3D302C220043
:101EB00025642E25642E25642E2564222C00000026
:101EC000256400002C22000000000020222C0000CD
:101ED0002275736572222C22302E3132333435361E
:101EE000220D0A002B4D5154545552433A2022637F
:101EF0006F6E6E222C302C300000000041542B4DB0
:101F00005154545355423D302C226D6F64627573A9
:101F10005F636F6E74726F6C2F000000257300009A
:101F2000222C300D0A0000002B4D515454535542C1
:101F30003A20300041542B4D5154545355423D30BA
:101F40002C226D6F646275735F74696D652F00007C
:101F5000FEE7000004494878002808BF70470120C8
:101F600000224A7070470000300000200020054A1F
:101F700001461154401C80B2B0F57A7FF9D3024873
:101F800081827047380E0020300000200149012076
:101F90004870704730000020704738B535208DF804
:101FA000000000248DF801408DF8024001258DF8D5
:101FB0000350684600F026F826208DF800008DF8C2
:101FC00001408DF802408DF80350684600F01AF881
:101FD00027208DF800008DF801408DF802408DF823
:101FE0000350684600F00EF834208DF800000220FF
:101FF0008DF801008DF802408DF80350684600F01E
:1020000001F838BD70B50446C0780F25002818BF08
:10201000012804D07D2223A12FA002F081FC60784A
:10202000102804D37E221FA13A4802F079FCA07840
:10203000102804D37F221BA1374802F071FCE078FE
:10204000012210B335480068637800F4E060C0F501
:10205000E060000AC0F1040103FA01F1A37825FA57
:1020600000F0184008432178000101F1E02181F8D7
:102070000004207800F01F0102FA01F140098000FD
:1020800000F1E020C0F8001170BD207800F01F01C1
:1020900002FA01F14009800000F1E020C0F880114F
:1020A00070BD00002E2E5C6669726D776172655C92
:1020B0006E3332673435785F7374645F706572694C
:1020C00070685F6472697665725C7372635C6D6977
:1020D00073632E630000000049535F46554E43541E
:1020E000494F4E414C5F5354415445284E56494345
:1020F0005F496E69745374727563742D3E4E564910
:10210000435F4952514368616E6E656C436D64294B
:1021100000000000346B0008F06A00080CED00E0DD
:1021200010B50446B0F5E06F18BFB4F5C06F0CD021
:10213000B4F5A06F1CBFB4F5806FB4F5407F04D038
:102140006C2205A111A002F0EBFB1B4944F0FD70CD
:1021500040F08060086010BD2E2E5C6669726D775D
:102160006172655C6E3332673435785F7374645FB7
:102170007065726970685F6472697665725C7372AB
:10218000635C6D6973632E630000000049535F4E0A
:102190005649435F5052494F524954595F47524F35
:1021A0005550284E5649435F5072696F7269747971
:1021B00047726F75702900000CED00E070B51D4C82
:1021C0000025607A10B1012813D010E02079401C5E
:1021D0002071FFF7CBFE0B2117A002F01DFA64213E
:1021E0006570184A092002F05FFA01206072002031
:1021F00070BDFFF7AFFE002808BF70BD124E3068FB
:1022000000F0CCF9014611483268FEF713FC10A12A
:102210000E48FEF701F818B165722571012070BDF6
:1022200020795A2898BF6572E1D92571657202201C
:1022300070BD00003000002041542B4347415454EE
:102240003F0D0A008D1F00082C000020380E0020D2
:102250002B43474154543A203100000070B51D4CC7
:102260000025207A10B1012813D010E02079401CFD
:102270002071FFF77BFE0B2117A002F0CDF964213E
:102280006570184A092002F00FFA01202072002020
:1022900070BDFFF75FFE002808BF70BD124E3068AA
:1022A00000F07CF9014611483268FEF7C3FB10A12B
:1022B0000E48FDF7B1FF18B125722571012070BDE0
:1022C00020795A2898BF2572E1D9257125720220FC
:1022D00070BD00003000002041542B43455245475B
:1022E0003F0D0A008D1F00082C000020380E002032
:1022F0002B43455245473A20302C3100814810B5D8
:10230000C0790A283AD2DFE800F005213B48506145
:102310007989B9CA7C4C206800F040F901467B48B5
:102320002268FEF787FBFFF721FE042178A002F068
:1023300073F9744C00204FF4FA616070764A0920FA
:1023400002F0B2F90120E071002010BDFFF702FE9B
:10235000002808BF10BD6C4C206800F01FF9014632
:102360006A482268FEF766FB6CA16848FDF754FFD7
:10237000002800F0C28063490220C871002010BD0F
:10238000604C00204FF4FA616070634A092002F04B
:102390008BF90320E071002010BDFFF7DBFD002862
:1023A000ECD058490420C871E8E7FFF7DFFD0A21A7
:1023B0005BA002F031F9534C002064216070564A52
:1023C000092002F071F90520E071D7E7FFF7C2FD9F
:1023D000002808BF10BD4C4C206800F0DFF8014613
:1023E0004A482268FEF726FB50A14848FDF714FF33
:1023F00000287DD043490620C871BFE7FFF7B6FD2E
:102400000B214EA002F008F93E4C002064216070C0
:10241000414A092002F048F907203EE0FFF79AFD03
:10242000002808BF10BD384C206800F0B7F80146FE
:1024300036482268FEF7FEFA43A13448FDF7ECFE69
:1024400000285AD04249D0F80720C1F89122D0F88C
:102450000B20C1F89522D0F80F20C1F89922B0F8CE
:102460001320A1F89D22407D81F89F0201F5237180
:102470000020087523490820C8717FE7FFF776FD23
:102480000A2134A002F0C8F81E4C002064216070BC
:10249000214A092002F008F90920E0716EE7FFF7F0
:1024A00059FD002808BF10BD174C206800F076F8D1
:1024B000014616482268FEF7BDFA29A11348FDF728
:1024C000ABFEA8B122498268C1F8A122C268C1F856
:1024D000A5220269C1F8A9224269C1F8AD2280692A
:1024E000C1F8B10201F52371002081F8290000E054
:1024F00003E00449C871012010BD02490020C871E1
:10250000022010BD300000202C000020380E0020DA
:1025100041540D0A000000008D1F00084F4B0000C1
:1025200041542B4350494E3F0D0A00002B43504964
:102530004E3A2052454144590000000041542B437B
:1025400047534E3D310D0A002B4347534E3A20006E
:102550008811002041542B49434349440D0A00008F
:102560002B49434349443A200000000070B5102035
:1025700002F002FC04004FF0000508BF2C4607D013
:1025800040F2DD50606002F0F7FBE560A56020607E
:102590000148046070BD00002C0000200146D1E914
:1025A0000220801A44BF49680844704710B50400EF
:1025B00018BFB4F5806F0DD0B4F5A06F1CBFB4F593
:1025C000C06FB4F5E06F05D040F2C31205A113A0AF
:1025D00002F0A6F91849486820F4E06020434860FA
:1025E00010BD00002E2E5C6669726D776172655CAD
:1025F0006E3332673435785F7374645F7065726907
:1026000070685F6472697665725C7372635C6E3366
:1026100032673435785F7263632E630049535F52CB
:1026200043435F48434C4B5F444956285243435F02
:1026300048434C4B290000000010024070B504468E
:102640000E480D46044200D12CB940F2FE320CA1D6
:1026500019A002F065F9214E002D04BFF069A043D6
:1026600009D0012D05D040F2FF3205A11CA002F0D7
:1026700057F9F0692043F06170BD0000003301415B
:102680002E2E5C6669726D776172655C6E3332679F
:102690003435785F7374645F7065726970685F6405
:1026A00072697665725C7372635C6E33326734355F
:1026B000785F7263632E630049535F5243435F4107
:1026C0005042315F504552495048285243435F4180
:1026D0005042315065726970682900000010024054
:1026E00049535F46554E4354494F4E414C5F5354F6
:1026F00041544528436D64290000000070B504462C
:102700000E480D46044200D12CB940F2DF320CA134
:1027100019A002F005F9214E002D04BFB069A043B5
:1027200009D0012D05D04FF4787205A11CA002F04C
:10273000F7F8B0692043B06170BD00000286E0FF89
:102740002E2E5C6669726D776172655C6E333267DE
:102750003435785F7374645F7065726970685F6444
:1027600072697665725C7372635C6E33326734359E
:10277000785F7263632E630049535F5243435F4146
:102780005042325F504552495048285243435F41BE
:102790005042325065726970682900000010024092
:1027A00049535F46554E4354494F4E414C5F535435
:1027B00041544528436D642900000000324B30B479
:1027C0005968324A11405A6811F0006F02F48032A1
:1027D0000CBF4FF0020C6FF4F77C0CEB9141002A18
:1027E00004BF2B4A514306D05A6812F4003F14BF6D
:1027F000274A284A51435A68DFF898C012F00C0261
:1028000018BF042A03D0082A08BF016001D0C0F80D
:1028100000C05A684FF00F0C1F4D0CEA1212D0F88E
:1028200000C0AA5C2CFA02F24260D3F804C007246C
:1028300004EA1C2C15F80CC022FA0CFCC0F808C0E5
:10284000D3F804C004EADC2C15F80CC022FA0CFC06
:10285000C0F80CC0D3F82CC005F110040CF00F0C1C
:1028600014F80CC0B2FBFCF24261DA6A1F2303EADF
:10287000121202F00F0204F1100333F81220B1FB20
:10288000F2F1016130BC70470010024000003C08CA
:1028900000093D0000127A00E44D000838B502F04E
:1028A000E7F84FF40060ADF8000010208DF8030049
:1028B0000120064C8DF8020069462046FEF728FCF0
:1028C000E1142046FEF736FD38BD00000008014047
:1028D00001F05EBE044901200870AFF207024FF418
:1028E0007A71042001F0E0BE1C000020F8B54FF41E
:1028F0000040ADF8000010250E4E8DF80350032463
:102900008DF8024069463046FEF702FCE902304687
:10291000FEF77AFDA902ADF800108DF803508DF88E
:10292000024069463046FEF7F3FBA9023046FEF747
:102930006BFDF8BD000C014070B51D4C0025A07A60
:1029400010B1012813D010E02079401C2071FFF74E
:102950000DFB1F2117A001F05FFE642165701D4A69
:10296000092001F0A1FE0120A072002070BDFFF738
:10297000F1FA002808BF70BD174E3068FFF70EFE51
:10298000014616483268FEF755F815A11348FDF7C1
:1029900043FC00281EBFA572012070BD20790A28C3
:1029A00098BFA572E1D92571A572022070BD000003
:1029B0003000002041542B5149435347503D312CA6
:1029C000312C22434D4E4554222C22222C22222CE3
:1029D000310D0A008D1F00082C000020380E002049
:1029E0004F4B0000042808D010F1050F08BF7047B6
:1029F000CF2205A111A001F093BF4FF0E0200169A3
:102A000041F00401016170472E2E5C6669726D779A
:102A10006172655C6E3332673435785F7374645FFE
:102A20007065726970685F6472697665725C7372F2
:102A3000635C6D6973632E630000000049535F534C
:102A400059535449434B5F434C4B5F534F5552438B
:102A500045285379735469636B5F434C4B536F75CF
:102A6000726365290000000070470000384882B09A
:102A7000016841F4700101603648016841F00101CC
:102A800001604168344A11404160016821F410211D
:102A900021F080710160016821F4802101604168AA
:102AA00021F47F0121F0006141600022C2620263D3
:102AB0004FF41F018160C16941F08051C161274914
:102AC000CB6843F00103CB60C16921F08051C16143
:102AD00023490B6843F090030B608DF800200192AE
:102AE0000A6822F007020A600A6842F003020A60DC
:102AF00041684160416841F400514160416841F4DE
:102B0000A0614160416821F47C1121F000614160C5
:102B1000416841F0026100914160016841F08071BB
:102B20000160016811F0007FFBD0416821F00301D2
:102B30004160416841F002014160416801F00C01CF
:102B40000829FAD108060749086002B0704700005A
:102B500088ED00E00010024000C0FFF80070004067
:102B60000020024008ED00E02DE9F047DFF89490E6
:102B70000D4607461C4616464FF02A084FF4807152
:102B80004846FEF7D7FB404600F024FB4FF4807127
:102B90004846FEF739FC380A00F01CFBF8B200F09A
:102BA00019FB300A00F016FBF0B200F013FB2B26E5
:102BB0004FF480714846FEF7BDFB304600F00AFB3B
:102BC0004FF480714846FEF71FFC280A00F002FB14
:102BD000E8B200F0FFFA200A00F0FCFAE0B200F0E0
:102BE000F9FA2C244FF480714846FEF7A3FB2046E7
:102BF00000F0F0FA4846BDE8F0474FF48071FEF768
:102C000003BC0000000C01402DE9F04781469846C6
:102C1000581E83B21746501E82B20D464846089E83
:102C2000FFF7A2FF454534BF4FEA162ABDE8F087FB
:102C30004C46B94509D2504600F0CCFAF0B200F04B
:102C4000C9FA601C84B2BC42F5D3681C85B2454504
:102C5000EED3BDE8F0870000F8B54FF47C70ADF816
:102C6000000010208DF803000320F24E8DF80200C2
:102C700069463046FEF74CFA01210920FFF73EFD78
:102C80000121ED48FDF7F4FE71153046FEF752FBC9
:102C90006423002246F2A811491EFDD1521C9A421B
:102CA000F8D34FF400713046FEF7AEFB64230022E8
:102CB00046F2A811491EFDD1521C9A42F8D31021A8
:102CC0003046FEF737FB6423002246F2A811491E66
:102CD000FDD1521C9A42F8D3002436254FF480715E
:102CE0003046FEF727FB284600F074FA4FF4807157
:102CF0003046FEF789FB602000F06CFA3A254FF46D
:102D000080713046FEF716FB284600F063FA4FF458
:102D100080713046FEF778FB052000F05BFAB225A3
:102D20004FF480713046FEF705FB284600F052FA5A
:102D30004FF480713046FEF767FB0C2000F04AFA32
:102D40000C2000F047FA002000F044FA332000F095
:102D500041FA332000F03EFAB7254FF48071304637
:102D6000FEF7E8FA284600F035FA4FF48071304655
:102D7000FEF74AFB352000F02DFABB254FF4807199
:102D80003046FEF7D7FA284600F024FA4FF4807157
:102D90003046FEF739FB192000F01CFAC0254FF42D
:102DA00080713046FEF7C6FA284600F013FA4FF459
:102DB00080713046FEF728FB2C2000F00BFAC2256C
:102DC0004FF480713046FEF7B5FA284600F002FA5B
:102DD0004FF480713046FEF717FB012000F0FAF93E
:102DE000C3254FF480713046FEF7A4FA284600F060
:102DF000F1F94FF480713046FEF706FB122000F027
:102E0000E9F9C4254FF480713046FEF793FA28465D
:102E100000F0E0F94FF480713046FEF7F5FA20201B
:102E200000F0D8F9C6254FF480713046FEF782FADB
:102E3000284600F0CFF94FF480713046FEF7E4FAEF
:102E40000F2000F0C7F9D0254FF480713046FEF70F
:102E500071FA284600F0BEF94FF480713046FEF753
:102E6000D3FAA42000F0B6F9A12000F0B3F9E025D0
:102E70004FF480713046FEF75DFA284600F0AAF95B
:102E80004FF480713046FEF7BFFAD02000F0A2F96F
:102E9000042000F09FF90D2000F09CF9112000F0B3
:102EA00099F9132000F096F92B2000F093F93F20B8
:102EB00000F090F9542000F08DF94C2000F08AF9D0
:102EC000182000F087F90D2000F084F90B2000F0A5
:102ED00081F91F2000F07EF9232000F07BF9E12525
:102EE0004FF480713046FEF725FA284600F072F95B
:102EF0004FF480713046FEF787FAD02000F06AF96F
:102F0000042000F067F90C2000F064F9112000F0B3
:102F100061F9132000F05EF92C2000F05BF93F20EE
:102F200000F058F9442000F055F9512000F052F912
:102F30002F2000F04FF91F2000F04CF91F2000F067
:102F400049F9202000F046F9232000F043F921251B
:102F50004FF480713046FEF7EDF9284600F03AF95B
:102F60004FF480713046FEF74FFA11254FF480710F
:102F70003046FEF7DFF9284600F02CF94FF4807157
:102F80003046FEF741FA29254FF480713046FEF7AE
:102F9000D1F9284600F01EF94FF480713046FEF753
:102FA00033FA2A254FF480713046FEF7C3F92846DC
:102FB00000F010F94FF480713046FEF725FA00203A
:102FC00000F008F9002000F005F9002000F002F9F7
:102FD000EF2000F0FFF82B254FF480713046FEF70C
:102FE000A9F9284600F0F6F84FF480713046FEF754
:102FF0000BFA002000F0EEF8002000F0EBF80020C3
:1030000000F0E8F8C52000F0E5F82C254FF48071B9
:103010003046FEF78FF9284600F0DCF84FF4807157
:103020003046FEF7F1F9601CC4B2022CFFF455AE35
:10303000F8BD0000000C0140000230002DE9FF4FF8
:1030400089B00546DDF85CA000264FEA5A090190D8
:103050009B4619F0070018BF012000EBD90000FBC8
:103060000AF00290A2F12000C4B20A980A995044D2
:10307000401E83B205EB0900401E82B22846FFF7CE
:1030800073FD02984FF0000800289CBF0DB0BDE80A
:10309000F08F3A4904EB440001EB80010791384975
:1030A00001EB04110691374901EB001005901698C9
:1030B000000A04904FEA1B200090BAF10C0F04BFE5
:1030C000079810F808700DD0BAF1100F08BF0698D5
:1030D00006D0BAF1180F0EBF05980DB0BDE8F08FFD
:1030E00010F808700024189800284FF0010000FA2A
:1030F00004F000EA070019D060B10A992A460B468D
:103100001046FFF731FD009800F064F80BF0FF0067
:1031100000F060F8681C85B20198281A48451FD154
:103120000A98019D401C80B20A901DE028B10098C9
:1031300000F050F80BF0FF0006E01698039004989A
:1031400000F048F80398C0B200F044F8701CC6B212
:10315000B6FBF9F009FB1060002808BF002603D079
:10316000601CC4B2082CBED308F101001FFA80F81D
:1031700002988045A1D30DB0BDE8F08F344E000811
:10318000A8520008985800082DE9F04784B0064678
:10319000DDE90D571078DDF83080994614468A46EF
:1031A000002804BF04B0BDE8F087CDF80080CDE969
:1031B000015722784B4651463046FFF73FFF06EB5A
:1031C000550086B214F8010F0028EED104B0BDE816
:1031D000F087000070B5134E054620213046FEF7FB
:1031E000A9F8002440213046FEF7A4F815F0800F1E
:1031F0004FF08001304602D0FEF706F901E0FEF7FD
:1032000099F840213046FEF7FFF86806050E601C6D
:10321000C4B2082CE6D33046BDE870402021FEF74A
:10322000F3B80000000C014010B5084C0121204605
:1032300000F038FA002808BF10BD0121204600F038
:1032400007F8BDE8104001F039BA00000010004056
:1032500070B50446A0F180400D46B0F5963018BF19
:10326000B4F1804F23D0A4F18040B0F580601CBF42
:10327000A4F18040B0F5006019D0A4F18040B0F511
:1032800040601CBFA4F18040B0F580500FD0A4F185
:103290008040B0F5A0501CBFA4F18040B0F59A303A
:1032A00005D040F6224209A116A001F039FB15F421
:1032B0007F4F00D12DB940F6234204A117A001F0A1
:1032C0002FFB2069A843206170BD00002E2E5C6694
:1032D00069726D776172655C6E3332673435785F21
:1032E0007374645F7065726970685F647269766533
:1032F000725C7372635C6E3332673435785F746905
:103300006D2E6300497354696D416C6C4D6F64752B
:103310006C652854494D78290000000049735469B0
:103320006D496E742854494D5F49542900000000CE
:1033300070B50446A0F1804016460D46B0F59630B3
:1033400018BFB4F1804F23D0A4F18040B0F5806065
:103350001CBFA4F18040B0F5006019D0A4F18040FA
:10336000B0F540601CBFA4F18040B0F580500FD094
:10337000A4F18040B0F5A0501CBFA4F18040B0F58E
:103380009A3005D04FF47B720FA11DA001F0C8FA4E
:1033900015F47F4F00D12DB940F2ED320AA11EA0E5
:1033A00001F0BEFA002E04BFA089A84309D0012E67
:1033B00005D040F2EE3204A11CA001F0B1FAA089C0
:1033C0002843A08170BD00002E2E5C6669726D7767
:1033D0006172655C6E3332673435785F7374645F35
:1033E0007065726970685F6472697665725C737229
:1033F000635C6E3332673435785F74696D2E6300B9
:10340000497354696D416C6C4D6F64756C652854DB
:10341000494D782900000000497354696D496E7464
:103420002854494D5F4954290000000049535F4624
:10343000554E4354494F4E414C5F535441544528D7
:10344000436D64290000000070B50446A0F180407F
:1034500015460E46B0F5963018BFB4F1804F23D014
:10346000A4F18040B0F580601CBFA4F18040B0F5AD
:10347000006019D0A4F18040B0F540601CBFA4F1F9
:103480008040B0F580500FD0A4F18040B0F5A0503E
:103490001CBFA4F18040B0F59A3005D040F219521B
:1034A00008A116A001F03CFA002D18BF012D05D08F
:1034B00040F21A5203A117A001F032FA2685A58224
:1034C00070BD00002E2E5C6669726D776172655C5E
:1034D0006E3332673435785F7374645F7065726918
:1034E00070685F6472697665725C7372635C6E3378
:1034F00032673435785F74696D2E6300497354699F
:103500006D416C6C4D6F64756C652854494D78291C
:1035100000000000497354696D50736352656C6F0D
:1035200061644D6F64652854494D5F505343526543
:103530006C6F61644D6F646529000000F8B51A4E28
:1035400041F63F70F0804FF4A060FFF72FF80121A3
:103550001020FFF773F836208DF8000003258DF852
:10356000015000248DF8024001208DF803006846C8
:10357000FEF748FD0D48042185800180C480448009
:103580000B4C0146204600F00FF90122F18820463D
:10359000FFF75AFF012211462046FFF7C9FE01211D
:1035A000204600F007F8F8BD120000205800002067
:1035B0000010004070B50446A0F180400D46B0F503
:1035C000963018BFB4F1804F23D0A4F18040B0F5FD
:1035D00080601CBFA4F18040B0F5006019D0A4F158
:1035E0008040B0F540601CBFA4F18040B0F5805031
:1035F0000FD0A4F18040B0F5A0501CBFA4F18040D2
:10360000B0F59A3005D040F2AF320BA118A001F00E
:1036100087F9002D04BF206820F001000AD0012D99
:1036200005D04FF46C7204A117A001F079F920685D
:1036300040F00100206070BD2E2E5C6669726D77CF
:103640006172655C6E3332673435785F7374645FC2
:103650007065726970685F6472697665725C7372B6
:10366000635C6E3332673435785F74696D2E630046
:10367000497354696D416C6C4D6F64756C65285469
:10368000494D78290000000049535F46554E435488
:10369000494F4E414C5F535441544528436D642972
:1036A0000000000070B505460026A0F180400C46E1
:1036B000B0F5963018BFB5F1804F23D0A5F180400A
:1036C000B0F580601CBFA5F18040B0F5006019D056
:1036D000A5F18040B0F540601CBFA5F18040B0F579
:1036E00080500FD0A5F18040B0F5A0501CBFA5F1CF
:1036F0008040B0F59A3005D040F6FC3211A11FA0F1
:1037000001F00EF9012C18BF022C11D0042C18BFA7
:10371000082C0DD0102C18BF202C09D0402C18BF1D
:10372000802C05D040F6FD3206A11AA001F0F8F871
:103730002869A989204201EA04011CBF0029012649
:10374000304670BD2E2E5C6669726D776172655C65
:103750006E3332673435785F7374645F7065726995
:1037600070685F6472697665725C7372635C6E33F5
:1037700032673435785F74696D2E6300497354691C
:103780006D416C6C4D6F64756C652854494D78299A
:1037900000000000497354696D476574496E7428D0
:1037A00054494D5F495429002DE9F05FDFF888A1A5
:1037B000DFF888B1DFF88881DFF88891624F634EC7
:1037C0000D460446504518BFB4F1804F13D0BC429B
:1037D00018BFB4420FD04C4518BF5C450BD0A4F1C4
:1037E0008040B0F5A05018BF444504D0BD2258A178
:1037F00065A001F095F86888002818BF102809D046
:1038000020281CBF4028602804D0BE2250A164A0FC
:1038100001F086F8E88800281CBFB0F5807FB0F57D
:10382000007F04D0BF224AA169A001F079F8206886
:10383000544518BF444508D0B4F1804F18BFBC426E
:1038400003D0B44218BF4C4503D1698820F0700002
:1038500008435C451CBFA4F18041B1F5A05103D0E1
:10386000E98820F4407008432060A888A085288853
:103870002085544512BF4445287A20860120A08225
:103880002068544518BF444508D0B4F1804F18BF94
:10389000BC4203D0B44218BF4C4509D1697A002913
:1038A00014BF40F4006020F40060B4F1804F04D0F5
:1038B000BC421CBFB4424C4510D1A97A002914BFA8
:1038C00040F4805020F48050E97A002914BF40F47D
:1038D000005020F40050B4F1804F03D0BC4218BF18
:1038E000B44206D1297B002914BF40F4804020F463
:1038F0008040544518BF444505D0B4F1804F1CBFEB
:10390000BC42B44206D1697B002914BF40F4004098
:1039100020F4004020606068B4F1804F18BFB442CA
:1039200006D1A97B002914BF40F4807020F4807078
:103930006060BDE8F09F0000002C014000100040D6
:1039400000340140000C004000040040000800402A
:103950002E2E5C6669726D776172655C6E333267BC
:103960003435785F7374645F7065726970685F6422
:1039700072697665725C7372635C6E33326734357C
:10398000785F74696D2E6300497354696D416C6C86
:103990004D6F64756C652854494D7829000000000E
:1039A000497354696D436E744D6F64652854494D75
:1039B0005F54696D6542617365496E6974537472D1
:1039C0007563742D3E436E744D6F6465290000006D
:1039D000497354696D436C6B4469762854494D5F53
:1039E00054696D6542617365496E6974537472758B
:1039F00063742D3E436C6B446976290010B505480D
:103A000000F0ACFCC1B204480068BDE81040FDF70E
:103A100079BD0000004C00402C00002070B5114D15
:103A200040F22551284600F04BFA10B10E4C207898
:103A300020B12846BDE8704000F090BC284600F058
:103A40008DFC6188094A88546088401C608003208E
:103A500000F020FEBDE870403221054A032000F04E
:103A600023BE0000004400400A0500200E0500208F
:103A70005546000870B5114D40F22551284600F01A
:103A80001FFA10B10E4C207820B12846BDE87040D6
:103A900000F064BC284600F061FC6188094A885443
:103AA0006088401C6080052000F0F4FDBDE8704097
:103AB0003221054A052000F0F7BD00000048004013
:103AC000B8000020BC000020654600082DE9F04742
:103AD000DFF8FC80DFF8FC90DFF8FCA016460D460E
:103AE0000446404518BF4C451AD054451CBFA4F1AC
:103AF0008040B0F5984013D0A4F18040B0F5A040CC
:103B00001FBFA4F18040B0F5A830A4F18040B0F50B
:103B1000AA3005D040F27F1230A13FA000F000FF94
:103B200040F66A17282D1CBFA5F5E060B0F127000C
:103B30001BD0A5F5C06026381CBFA5F5A060B0F16C
:103B4000250012D0A5F5806024381CBFA5F50060C3
:103B5000B0F1460009D0BD4218BF602D05D04FF42A
:103B6000C0721EA133A000F0DBFE002E18BF012E94
:103B700005D040F2811219A135A000F0D1FEBD425E
:103B80000AD144451CBF4C45544505D040F285122E
:103B900012A136A000F0C4FE05F01F010122C5F3FA
:103BA000421002FA01F1012808BF04F10C0005D00F
:103BB00002280CBF04F1100004F11400002E02686A
:103BC00014BF114322EA01010160BDE8F087000043
:103BD0000038014000440040004800402E2E5C6642
:103BE00069726D776172655C6E3332673435785F08
:103BF0007374645F7065726970685F64726976651A
:103C0000725C7372635C6E3332673435785F7573E0
:103C10006172742E6300000049535F555341525442
:103C20005F414C4C5F5045524950482855534152D2
:103C30005478290049535F55534152545F434647D6
:103C40005F494E542855534152545F494E54290000
:103C500049535F46554E4354494F4E414C5F535470
:103C600041544528436D64290000000049535F55C5
:103C7000534152545F3132335F50455249504828C6
:103C8000555341525478290070B50446A0F1804044
:103C90000D46B0F59C301CBFA4F18040B0F58840C3
:103CA0001DD0A4F18040B0F590401CBFA4F180402D
:103CB000B0F5984013D0A4F18040B0F5A0401FBFEC
:103CC000A4F18040B0F5A830A4F18040B0F5AA304E
:103CD00005D040F259120BA119A000F021FE002DD1
:103CE00004BFA08920F400500AD0012D05D04FF464
:103CF000AD7204A119A000F013FEA08940F4005099
:103D0000A08170BD2E2E5C6669726D776172655CF4
:103D10006E3332673435785F7374645F70657269CF
:103D200070685F6472697665725C7372635C6E332F
:103D300032673435785F75736172742E63000000EA
:103D400049535F55534152545F414C4C5F5045526B
:103D500049504828555341525478290049535F46E9
:103D6000554E4354494F4E414C5F5354415445289E
:103D7000436D6429000000002DE9F047294F00261B
:103D8000DFF8A480DFF8A4900C460546B84218BFBF
:103D900045451AD04D451CBFA5F18040B0F598406F
:103DA00013D0A5F18040B0F5A0401FBFA5F1804021
:103DB000B0F5A830A5F18040B0F5AA3005D040F2AA
:103DC00019321BA129A000F0ABFD012C18BF802CDB
:103DD00020D0402C18BF202C1CD0102C18BFB4F5BC
:103DE000807F17D0B4F5007F09D0082C1CBF042CAD
:103DF000022C0FD040F21A320DA123A008E0BD42E0
:103E00001CBF45454D4505D040F21E3208A125A0F6
:103E100000F086FD2888204218BF01263046BDE804
:103E2000F087000000380140004400400048004096
:103E30002E2E5C6669726D776172655C6E333267D7
:103E40003435785F7374645F7065726970685F643D
:103E500072697665725C7372635C6E333267343597
:103E6000785F75736172742E6300000049535F556B
:103E7000534152545F414C4C5F5045524950482881
:103E8000555341525478290049535F555341525478
:103E90005F464C41472855534152545F464C414779
:103EA0002900000049535F55534152545F3132336A
:103EB0005F50455249504828555341525478290083
:103EC0002DE9F047DFF8F4800026DFF8F490DFF802
:103ED000F4A00C460546404518BF4D451AD055453F
:103EE0001CBFA5F18040B0F5984013D0A5F18040EB
:103EF000B0F5A0401FBFA5F18040B0F5A830A5F1F6
:103F00008040B0F5AA3005D040F26B322EA13DA022
:103F100000F006FD282C34D0A4F5E06040F66A17C6
:103F200027381CBFA4F5C060B0F126001CD0A4F552
:103F3000A06025381CBFA4F58060B0F1240013D028
:103F4000A4F50060463818BFBC420DD0B4F5587FC8
:103F50001CBFB4F5187FB4F5B07F12D04FF45B727C
:103F600019A12FA000F0DCFCBC420AD145451CBFC2
:103F70004D45554505D04FF45C7213A12FA000F0BC
:103F8000CFFC04F01F000122C4F3421102FA00F03A
:103F9000012904BFA989084004D002290CBF298A3D
:103FA000A98A0840210A02FA01F12A881140002852
:103FB0001CBF002901263046BDE8F08700380140CB
:103FC00000440040004800402E2E5C6669726D7708
:103FD0006172655C6E3332673435785F7374645F29
:103FE0007065726970685F6472697665725C73721D
:103FF000635C6E3332673435785F75736172742E2B
:104000006300000049535F55534152545F414C4C8B
:104010005F50455249504828555341525478290021
:1040200049535F55534152545F4745545F494E547D
:104030002855534152545F494E54290049535F5506
:10404000534152545F3132335F50455249504828F2
:1040500055534152547829002DE9F047604EDFF85E
:104060008491DFF884A1614FDFF8848186B00D462A
:104070000446B04218BF4C4513D054451CBFA4F1B0
:104080008040B0F598400CD0A4F18040B0F5A0403D
:104090001CBFBC42444504D0C42256A164A000F019
:1040A0003FFC28686949401E884204D3C52251A1BB
:1040B00067A000F035FCA888002818BFB0F5805F25
:1040C00004D0C6224BA16EA000F02AFCE88800288C
:1040D00018BFB0F5805F0AD0B0F5005F18BFB0F52B
:1040E000405F04D0C72243A172A000F019FC2889C8
:1040F00000281CBFB0F5806FB0F5C06F04D0C82297
:104100003CA178A000F00CFC688930F00C0100D1D3
:1041100020B9C92237A17EA000F002FCA88900289E
:1041200018D0B0F5807F1CBFB0F5007FB0F5407FA0
:1041300006D0CA222FA1804800F0F2FBA88948B11E
:10414000B4421CBF4C45544504D0CE2229A17BA0CB
:1041500000F0E6FB208A4CF6FF710840E98808432E
:104160002082A0894EF6F3110840A9882A891143BC
:104170006A8910430843A081A08A4FF6FF41084096
:10418000A9890843A0826846FEF718FBB44218BF0D
:10419000BC4203D0444518BF029800D103986E4A30
:1041A00000EBC00101EB001029686FF0180C8900CA
:1041B000B0FBF1F0A2FB0031490909010B0903FB37
:1041C0000CF300EB8300322303EB0010A2FB002072
:1041D000C0F343100843208106B0BDE8F08700001B
:1041E00000380140004400400048004000500140B9
:1041F000005401402E2E5C6669726D776172655CB9
:104200006E3332673435785F7374645F70657269DA
:1042100070685F6472697665725C7372635C6E333A
:1042200032673435785F75736172742E63000000F5
:1042300049535F55534152545F414C4C5F50455276
:1042400049504828555341525478290020AA440027
:1042500049535F55534152545F4241554452415472
:10426000452855534152545F496E697453747275B1
:1042700063742D3E426175645261746529000000CB
:1042800049535F55534152545F574F52445F4C4519
:104290004E4754482855534152545F496E697453F0
:1042A00074727563742D3E576F72644C656E6774DB
:1042B0006829000049535F55534152545F53544F8E
:1042C00050424954532855534152545F496E6974C2
:1042D0005374727563742D3E53746F7042697473B6
:1042E0002900000049535F55534152545F504152D9
:1042F0004954592855534152545F496E6974537457
:10430000727563742D3E50617269747929000000E2
:1043100049535F55534152545F4D4F4445285553BF
:104320004152545F496E69745374727563742D3EC3
:104330004D6F646529000000846B000849535F5588
:10434000534152545F3132335F50455249504828EF
:1043500055534152547829001F85EB5110B504463E
:10436000A0F18040B0F59C301CBFA4F18040B0F5B6
:1043700088401DD0A4F18040B0F590401CBFA4F14E
:104380008040B0F5984013D0A4F18040B0F5A04033
:104390001FBFA4F18040B0F5A830A4F18040B0F573
:1043A000AA3005D040F2512203A112A000F0B8FAC1
:1043B000A088C0F3080010BD2E2E5C6669726D7770
:1043C0006172655C6E3332673435785F7374645F35
:1043D0007065726970685F6472697665725C737229
:1043E000635C6E3332673435785F75736172742E37
:1043F0006300000049535F55534152545F414C4C98
:104400005F5045524950482855534152547829002D
:1044100070B50446A0F180400D46B0F59C301CBF3D
:10442000A4F18040B0F588401DD0A4F18040B0F5E3
:1044300090401CBFA4F18040B0F5984013D0A4F187
:104440008040B0F5A0401FBFA4F18040B0F5A83077
:10445000A4F18040B0F5AA3005D04FF4107208A145
:1044600016A000F05DFAB5F5007F05D340F24122B9
:1044700003A119A000F054FAC5F30800A08070BD94
:104480002E2E5C6669726D776172655C6E33326781
:104490003435785F7374645F7065726970685F64E7
:1044A00072697665725C7372635C6E333267343541
:1044B000785F75736172742E6300000049535F5515
:1044C000534152545F414C4C5F504552495048282B
:1044D000555341525478290049535F555341525422
:1044E0005F44415441284461746129002DE9F04141
:1044F0000E0005464FF0000414BF094FBDE8F081DF
:10450000295D3846FFF784FF80213846FFF734FCE9
:104510000028F9D0601C84B2B442F1D3BDE8F08128
:104520000044004010B5184C002058212278012A80
:1045300018BF10BDB4F802C0BCF1170F08BFACF132
:10454000010211D12318401C1B79C0B2194489B251
:104550008242F7DCC8430D49C0B21CF80110814209
:1045600004BF201DFCF7F4F8002062880146002AF1
:1045700006D92218401C11716288C0B28242F8D854
:104580006180217010BD00000A0500200D0500208B
:104590002DE9F0471D4E3078012818BFBDE8F0879F
:1045A0004FF40061DFF868904846FCF72DFF7588EE
:1045B000371D0024002D88BFDFF858800DD9395DE4
:1045C0004046FFF725FF80214046FFF7D5FB002836
:1045D000F9D0601C84B2AC42F1D3642000F0B8F989
:1045E0004FF400614846FCF7A5FE002072880146A2
:1045F000002A06D93218401C11717288C0B282425A
:10460000F8D871803170BDE8F0870000B800002054
:1046100000080140004800402DE9F0410E00054629
:104620004FF0000414BF094FBDE8F081295D384602
:10463000FFF7EEFE80213846FFF79EFB0028F9D0F9
:10464000601C84B2B442F1D3BDE8F081004C00405C
:10465000FEE70000024901200870032000F01AB8AC
:104660000A050020024901200870052000F012B858
:10467000B800002000200649024601EBC00341F8C3
:104680003020401CC0B25A600A28F6D3FEF756BF4D
:1046900068000020034A002142F8301002EBC000FD
:1046A0004160704768000020034B43F8301003EB73
:1046B000C0004260704700006800002070B50A4DDD
:1046C000002455F8340048B1411E05EBC40045F8FC
:1046D0003410406810B1002908BF8047601CC4B284
:1046E0000A2CEED370BD0000680000200FB4054B0B
:1046F00010B503A9044A029800F030F810BC5DF828
:1047000014FB000069490008480000200FB4084B62
:1047100010B504A902AA039800F020F8044602A9E3
:10472000002000F0F7F8204610BC5DF814FB0000F4
:1047300015490008004870475400002002E008C8EE
:10474000121F08C1002AFAD170477047002001E00B
:1047500001C1121F002AFBD1704700002DE9FF4F55
:104760008BB09A460F460546002606E025280BD05A
:1047700052460D9990476D1C761C28780028F5D17B
:104780000FB03046BDE8F08F0024A04601226049FA
:1047900000E0044315F8013F203B02FA03F0084211
:1047A000F7D128782E2817D115F8010F44F004040A
:1047B0002A280ED06FF02F022878A0F130010929A5
:1047C0000AD808EB880102EB410100EB01086D1CDF
:1047D000F2E757F8048B6D1C287869283ED006DC78
:1047E0000028CDD063280BD0642804D136E073288C
:1047F00010D075284BD052460D999047761C85E015
:1048000017F8040B8DF8000000208DF80100E94630
:10481000012003E057F8049B4FF0FF3061074FF091
:10482000000401D40AE0641C44450DDA8442FADB3A
:1048300019F804100029F6D106E0641C8442FCDB60
:1048400019F804100029F8D1264404E019F8010BE6
:1048500052460D999047641EF8D257E001CF4FF0B1
:104860000A0B002802DA40422D2102E0210504D57E
:104870002B218DF82410012103E0E10705D0202130
:10488000F7E70DF1200908910CE00021F9E701CFCD
:104890004FF00A0BF9E75946FBF797FD01F130029B
:1048A00009F8012D0028F6D1ADEB090000F1200B2D
:1048B000600701D44FF00108D84502DDA8EB0B00DA
:1048C00000E000208046002406E009A85246005D72
:1048D0000D999047641C761C08988442F5DB04E02F
:1048E000302052460D999047761CB8F10001A8F18E
:1048F0000108F5DC05E019F8010B52460D999047C7
:10490000761CBBF10001ABF1010BF4DC6D1C34E74C
:10491000092801000A68531C0B60107070470000E2
:1049200013460A46014602A0FFF7E0FEFEE700003C
:10493000617373657274696F6E206661696C65641A
:104940003A20602573602061742025733A25640045
:104950000022002898BF704746F2A811491EFDD1D9
:10496000521C8242F8D3704770B5074D0446C1B25D
:104970002846FFF74DFD80212846FFF7FDF9002866
:10498000F9D0204670BD00000050004000B587B04F
:104990006846FDF713FF012140F2FD10FDF7AEFE62
:1049A00001214FF46020FDF749FE4FF44070FDF700
:1049B000B7FB0420FEF716F80B4901980B4BA1FB3F
:1049C000001040090022401EB0F1807F08D24FF055
:1049D000E0214861F02083F8140D8A610720086106
:1049E00083F8142D07B000BD1F85EB510FE000E0E8
:1049F00030B585B00424ADF8104018208DF81300B0
:104A00000320194D8DF8120004A92846FCF780FBFD
:104A10000821ADF8101001218DF812108DF8134007
:104A200004A92846FCF774FB4FF4165000900020B0
:104A3000ADF80400ADF80600ADF80800ADF80C00C4
:104A40000C200A4CADF80A0069462046FFF704FB2B
:104A5000012240F225512046FFF738F80121204677
:104A6000FFF712F905B030BD0008014000440040D6
:104A700010B586B04FF48060ADF8100018208DF8A6
:104A800013000320194C8DF8120004A92046FCF7EE
:104A90003FFBE114ADF8101001218DF81210042134
:104AA0008DF8131004A92046FCF732FB4FF4165082
:104AB00000900020ADF80400ADF80600ADF8080045
:104AC000ADF80C000C200A4CADF80A0069462046EF
:104AD000FFF7C2FA012240F225512046FEF7F6FF09
:104AE00001212046FFF7D0F806B010BD000C0140B0
:104AF0000048004010B586B04FF48060ADF810005B
:104B000018208DF813000320194C8DF8120004A909
:104B10002046FCF7FDFAE114ADF8101001218DF8E4
:104B2000121004218DF8131004A92046FCF7F0FAA6
:104B30004FF4E13000900020ADF80400ADF806001D
:104B4000ADF80800ADF80C000C200A4CADF80A00D6
:104B500069462046FFF780FA012240F2255120469F
:104B6000FEF7B4FF01212046FFF78EF806B010BD16
:104B700000100140004C004010B586B001213120EA
:104B8000FDF7BCFD01210805FDF758FD4FF48050ED
:104B9000ADF8100018208DF8130003208DF81200D6
:104BA00004A91648FCF7B4FA0420ADF810008DF8FB
:104BB000130004A91248FCF7ABFA4FF4E13000905F
:104BC0000020ADF80400ADF80600ADF80800ADF81F
:104BD0000C0008200B4CADF80A0069462046FFF790
:104BE0003BFA012240F225512046FEF76FFF0121DA
:104BF0002046FFF749F8208806B010BD001001409C
:104C00000014014000500040F8B50420ADF8000049
:104C1000164D48248DF8034069462846FCF778FA7B
:104C20001021ADF80010124E8DF803406946304651
:104C3000FCF76EFA4021ADF800108DF8034069468C
:104C40003046FCF765FA2020ADF800008DF80340EF
:104C500069460848FCF75CFA0220ADF800008DF8C0
:104C6000034069462846FCF753FAF8BD000C0140A2
:104C70000008014000100140F8B52020ADF8000008
:104C80001025214E8DF8035001248DF8024069460D
:104C90003046FCF73DFA20213046FCF7B5FB1B4AB5
:104CA0004FF4FA710120FFF7FFFC8021ADF80010EE
:104CB0008DF803508DF8024069463046FCF728FA1B
:104CC00080213046FCF7A0FBADF80050104E8DF867
:104CD00003508DF8024069463046FCF719FA10215E
:104CE0003046FCF791FBADF800408DF803508DF88D
:104CF0000240084C69462046FCF70AFA012120468A
:104D0000FCF782FBF8BD0000000801409D1B000875
:104D100000100140000C014084B0FFF737FEFBF7A4
:104D200027FE4FF6FF740021F0234FF4A0720846CF
:104D30000094FDF769FF002010210094CDE90110D7
:104D40004FF4784305A20146FEF71EFA06A0FFF7CE
:104D5000CDFCFBF74BFEFDF7BBFDFAE769206D6963
:104D6000737320796F75000068656C6C6F20776FC6
:104D7000726C640D0A000000F0B50B30154D20F088
:104D800007010024144A0FE003688B420BD38B42C7
:104D900005D95E1A43184768C3E9006700E0436815
:104DA000136002C004E0021D10680028ECD1204608
:104DB000002802D1286808B10020F0BD064A074843
:104DC0001060074A121A22F00702C0E900240120ED
:104DD0002860D7E7500000204C0000204414002039
:104DE000401C002000000000010203040102030433
:104DF0000607080901020406080A0C1020202020DA
:104E000020202020010002000400060008000A0003
:104E10000C00100020004000800000010001000193
:104E200000010001303132333435363738394142F0
:104E30004344454600000000000000000000000060
:104E400000000404040404000004000014140A0018
:104E5000000000000000000000000A0A1F0A0A1FEC
:104E60000A0A000000040E1505060C14150E0400B5
:104E7000000012150D152E2C2A1200000000040A45
:104E80000A36151529160000020201000000000074
:104E900000000000100808040404040408081000BE
:104EA00002040408080808080404020000000004C2
:104EB000150E0E150400000000000008083E08084A
:104EC00000000000000000000000000002020100DD
:104ED00000000000003F0000000000000000000093
:104EE0000000000000020000002010100808040468
:104EF0000202010000000E1111111111110E00002B
:104F00000000040604040404040E000000000E1156
:104F100011080402011F000000000E11100C1010F7
:104F2000110E00000000080C0C0A091F081C0000EC
:104F300000001F01010F1110110E000000000C12E3
:104F4000010D1311110E000000001E1008080404CA
:104F50000404000000000E11110E1111110E0000CA
:104F600000000E11111916100906000000000000C3
:104F70000400000000040000000000000004000025
:104F800000040400000010080402020408100000DD
:104F9000000000003F003F0000000000000002048D
:104FA000081010080402000000000E11110804048B
:104FB0000004000000001C22292D2D1D221C0000D1
:104FC000000004040C0A0A1E1233000000000F1235
:104FD000120E1212120F000000001E110101010139
:104FE000110E000000000F1212121212120F000018
:104FF00000001F120A0E0A02121F000000001F12FA
:105000000A0E0A020207000000001C1201013911F9
:10501000120C000000003312121E12121233000094
:1050200000001F0404040404041F000000003E08E4
:105030000808080808080907000037120A060A12BB
:10504000123700000000070202020202223F0000A5
:1050500000003B1B1B1B15151535000000003B1203
:1050600016161A1A1217000000000E111111111154
:10507000110E000000000F12120E020202070000C3
:1050800000000E1111111117190E180000000F1257
:10509000120E0A121237000000001E11010608103D
:1050A000110F000000001F1504040404040E00008A
:1050B0000000331212121212120C00000000331200
:1050C000120A0A0C040400000000151515150E0A3A
:1050D0000A0A000000001B0A0A04040A0A1B000056
:1050E00000001B0A0A0A0404040E000000001F0945
:1050F00008040402121F00001C0404040404040435
:1051000004041C0000020204040408080810100033
:105110000E0808080808080808080E00040A00001D
:10512000000000000000000000000000000000007F
:105130000000003F0204000000000000000000002A
:1051400000000000000C121C123C000000030202D0
:10515000020E1212120E000000000000001C1202CB
:10516000120C000000181010101C1212123C00004B
:1051700000000000000C121E021C00000018240495
:10518000041E0404041E000000000000003C120C79
:10519000021C221C00030202020E1212123700002F
:1051A0000004040000060404040E000000080800C7
:1051B000000C08080808080700030202021A0A0681
:1051C0000A1300000007040404040404041F000080
:1051D00000000000000F151515150000000000006C
:1051E000000F12121237000000000000000C121213
:1051F000120C000000000000000F1212120E020735
:1052000000000000001C1212121C103800000000E8
:10521000001B06020207000000000000001E020C36
:10522000101E000000000004041E0404041C000002
:1052300000000000001B1212123C000000000000E1
:10524000001B0A0A04040000000000000015150EEF
:105250000A0A000000000000001B0A040A1B0000EC
:1052600000000000003312120C08040300000000CC
:10527000001E0804041E000018080808080C08088E
:105280000808180008080808080808080808080896
:1052900006040404040804040404060016090000BB
:1052A00000000000000000000000000000000000FE
:1052B00000000000000000000000000808080808C6
:1052C000080800001818000000486C2412000000B4
:1052D00000000000000000000000002424247F12D1
:1052E00012127F12121200000000081C2A2A0A0C57
:1052F0001828282A2A1C0808000000222515151540
:105300002A585454542200000000000C1212120AB1
:1053100076252911916E00000006060403000000A6
:1053200000000000000000000040201010080808E5
:10533000080808101020400000020408081010108F
:1053400010101008080402000000000008086B1C80
:105350001C6B080800000000000000000808080896
:105360007F0808080800000000000000000000009E
:10537000000000000606040300000000000000001A
:10538000FE0000000000000000000000000000001F
:1053900000000000060600000000804040202010B1
:1053A00010080804040202000000001824424242CF
:1053B0004242424224180000000000080E0808087B
:1053C00008080808083E00000000003C4242422055
:1053D00020100804427E00000000003C42422018D9
:1053E00020404042221C00000000002030282424DD
:1053F00022227E20207800000000007E0202021A95
:1054000026404042221C0000000000382402021AFC
:1054100026424242241800000000007E2222101082
:1054200008080808080800000000003C4242422426
:1054300018244242423C000000000018244242422C
:1054400064584040241C00000000000000001818B0
:105450000000000018180000000000000000000814
:1054600000000000000808040000004020100804AC
:1054700002040810204000000000000000007F002F
:1054800000007F000000000000000002040810205F
:1054900040201008040200000000003C4242464048
:1054A00020101000181800000000001C225A55554A
:1054B00055552D42221C0000000000080818141445
:1054C000243C224242E700000000001F2222221E4C
:1054D00022424242221F00000000007C42420101A1
:1054E00001010142221C00000000001F2242424232
:1054F00042424242221F00000000003F4212121EA0
:1055000012120242423F00000000003F4212121EEF
:1055100012120202020700000000003C22220101D8
:1055200001712122221C0000000000E74242424299
:105530007E42424242E700000000003E08080808A0
:1055400008080808083E00000000007C1010101039
:10555000101010101010110F0000007722120A0E08
:105560000A12122222770000000000070202020243
:1055700002020202427F0000000000773636363613
:105580002A2A2A2A2A6B0000000000E346464A4ADB
:1055900052525262624700000000001C2241414109
:1055A00041414141221C00000000003F4242424272
:1055B0003E020202020700000000001C224141419D
:1055C00041414D53321C60000000003F4242423EC8
:1055D0001212222242C700000000007C4242020454
:1055E00018204042423E00000000007F49080808A1
:1055F00008080808081C0000000000E74242424278
:1056000042424242423C0000000000E74242222463
:1056100024141418080800000000006B4949494987
:105620005555362222220000000000E742242418AB
:105630001818242442E700000000007722221414E6
:1056400008080808081C00000000007E2120101037
:1056500008040442423F00000078080808080808CF
:105660000808080808087800000002020404080876
:105670000810102020204040001E101010101010A4
:105680001010101010101E00003844000000000020
:10569000000000000000000000000000000000000A
:1056A00000000000000000FF0006080000000000ED
:1056B0000000000000000000000000000000003CAE
:1056C0004278444242FC0000000000030202021A39
:1056D00026424242261A0000000000000000003866
:1056E000440202024438000000000060404040785C
:1056F0004442424264D80000000000000000003C28
:10570000427E0202423C0000000000F08808087E51
:1057100008080808083E0000000000000000007CA7
:1057200022221C023C42423C000000030202023AD8
:105730004642424242E700000000000C0C00000E0E
:1057400008080808083E000000000030300000385B
:10575000202020202020221E0000000302020272CE
:10576000120A1612227700000000000E080808082E
:1057700008080808083E0000000000000000007F44
:105780009292929292B70000000000000000003B4D
:105790004642424242E70000000000000000003C98
:1057A00042424242423C0000000000000000001B58
:1057B00026424242221E020700000000000000783C
:1057C00044424242447840E000000000000000777C
:1057D0004C040404041F0000000000000000007CD2
:1057E00042023C40423E0000000000000008083E2B
:1057F00008080808083000000000000000000063EE
:105800004242424262DC000000000000000000E76B
:10581000422424140808000000000000000000EBEF
:105820004949555522220000000000000000007682
:1058300024181818246E000000000000000000E783
:105840004224241418080807000000000000007E0D
:1058500022100808447E000000C0202020202010D4
:10586000202020202020C000101010101010101038
:10587000101010101010101000060808080808106A
:1058800008080808080806000C32C20000000000E2
:105890000000000000000000000000000000000008
:1058A00000000000000000000000000000000000F8
:1058B00000000000000000000000000000000000E8
:1058C00000000000000000000000000000000000D8
:1058D00060006000600060006000600060004000E8
:1058E0002000200020000000000000006000600098
:1058F000600000000000000000000000600660067C
:1059000030039801880044000000000000000000FF
:105910000000000000000000000000000000000087
:105920000000000000000000000000000000000077
:105930001002100210021002FE07FE070802080102
:10594000080108010801FE07FE0704010401040123
:105950000401000000000000000000000000400002
:105960004000F00158034C03CC034C005800700079
:10597000E000C001C00140034C035C034C0348013C
:10598000F0004000400000000000000000000000A7
:105990000E010A01910091009100510051003A005E
:1059A000AE03A00250045004480448044804840292
:1059B0008403000000000000000000000000000060
:1059C00038006C006C006C006C006C002C009807B8
:1059D0001C011A01330133016301E300C308C60946
:1059E0003C07000000000000000000000C001C004C
:1059F000100010000800040000000000000000007B
:105A00000000000000000000000000000000000096
:105A10000000000000000000000000000004000280
:105A20000001800080004000400020002000200095
:105A30002000200020002000400040008000800066
:105A40000001000200040000000000000200040049
:105A5000080010001000200020004000400040001E
:105A600040004000400040002000200010001000D6
:105A70000800040002000000000000000000000018
:105A8000000000004000C0004000460C4E0FD00156
:105A9000F0015E0F460C4000400040000000000096
:105AA00000000000000000000000000000000000F6
:105AB00000000000000040004000400040004000A6
:105AC000FE0F400040004000400040000000000089
:105AD00000000000000000000000000000000000C6
