:020000040100F9
:1000000008420020E5000001490700014B070001FC
:1000100000000000000000000000000000000000E0
:100020000000000000000000000000004F07000179
:10003000000000000000000051070001530700010C
:10004000F7000001F7000001F7000001F7000001D0
:10005000F7000001F7000001CB300001F7000001BC
:10006000F7000001F7000001F7000001F7000001B0
:10007000F7000001F7000001F7000001F7000001A0
:100080000B320001F7000001F7000001F70000014A
:10009000F7000001F7000001F7000001F700000180
:1000A000F7000001F7000001F7000001F700000170
:1000B000ED340001F700000123330001F7000001D7
:1000C0000348854605F00EFE00480047B12E0001AA
:1000D0000842002040BA7047C0BA70470138FDD1CD
:1000E000704700000448804704480047FEE7FEE7E9
:1000F000FEE7FEE7FEE7FEE7D5020001C1000001D2
:10010000F0B5D1B004460D4600BFEFF310800646AF
:1001100004AF0137FF2241329F49684605F032FBA8
:10012000012080F3108800BF2A4621460003B8470B
:10013000304680F3108800BF51B0F0BD10B597482D
:100140000069401C002803D094480069002803D1AE
:1001500034219248FFF7D4FF90480069401C0028E2
:1001600003D08E480069002801D1002010BD8B48C3
:10017000FCE710B589480069401C002803D0874877
:100180000069002803D134218448FFF7B9FF834870
:100190000069401C002803D080480069002801D174
:1001A000002010BD7D482430FBE710B57B48006976
:1001B000401C002803D079480069002803D134216D
:1001C0007648FFF79DFF75480069401C002803D062
:1001D00072480069002801D1002010BD6F48293005
:1001E000FBE7F1B588B0002007907D20C0000690A5
:1001F0000124A4020020059004907F200390684809
:1002000000684004450E00260020029065490898C9
:10021000884207D1624800686101884360490860EC
:10022000CC1408E05E4800680121C90308435C491A
:1002300008600324A40200BF594800687F21090216
:100240008843019028020199084355490860052018
:10025000FFF744FF10E00120FFF740FF5048406BDC
:1002600002210840002800D007E00298411C0291BA
:100270000699884200D900E0EDE700BF4848C06B0E
:1002800086B2A64202D9301B059001E0A01B059062
:10029000A64201D3039500E0049503990498401801
:1002A000C005070EAF4200D104E03D46079905980E
:1002B0008842C1D800BF3A484068400840003849E9
:1002C000486000BF36484068042108400028F9D142
:1002D00009B0F0BD10B53248C069012109070843D3
:1002E0002F49C861812000062F4908632F484861C3
:1002F0002F4808622F4800680321890388432D494D
:10030000086034212548FFF7FBFE24480069401CA3
:10031000002803D021480069002817D120484068F0
:100320000121090408431E49486008464068072126
:10033000090288431A49486008464068091508437D
:10034000174948601C48FFF74CFF18E016488069C1
:100350004409640111480078C006C00E04431248E5
:1003600084610F48006A154908400D490862084633
:10037000006A0A49C968090208430949086210BDB0
:1003800008480F490860704710B504466B21614367
:100390000846FFF7A3FE10BDB0620001EC0200208A
:1003A000001002400090D003007000400F080000D1
:1003B00018000200001001400048E801FF00F8FFAB
:1003C0000000002010B50446D548844209D101211F
:1003D000880300F071FE00210120800300F06CFE14
:1003E00008E00121480400F075FE002101204004CE
:1003F00000F070FE10BDF0B589B005460E46002431
:100400000020089000BF00BF0027B089002800D05E
:1004100000BF2F462C8AC3480440F08804432C8236
:10042000AC89C1480440B0883189084371890843C8
:100430000443AC81AC8ABD480440B0890443AC821B
:1004400001A800F0A6FDB648874202D104980890A2
:1004500001E003980890326891001923089A5A43E2
:10046000104605F065F907906421079805F060F9DA
:1004700004012109642041430798411A0691069915
:10048000090108463230642105F052F90007000FD7
:1004900004432C8109B0F0BD4B21C901016000214A
:1004A0008180C18001810C214181002181817047BF
:1004B00010B502460020108A9D4B18400B884C88CE
:1004C00023438C882343CC8823431843108210BDD8
:1004D0000021018041808180C1807047002905D0C2
:1004E000828901235B031A43828103E08289914B55
:1004F0001A4082817047F8B5034600240026009612
:10050000002500208C4EB14200D100BF18460E06D7
:10051000740FCE06F60E00960127009EB7403D46AA
:10052000012C01D10C3004E0022C01D1103000E08C
:100530001430002A03D006682E43066002E00668E5
:10054000AE430660F8BD002A03D0838A0B43838242
:1005500002E0838A8B4383827047028A774B1A407A
:100560000282028A0A43028270478289744B1A40CF
:10057000828182890A4382817047002904D082895E
:1005800002231A43828104E082896C4B0D331A40A6
:1005900082817047028A694B113B1A400282028AAB
:1005A0000A4302827047002905D0028A01239B0377
:1005B0001A43028203E0028A624B1A4002827047A9
:1005C000CA05D20D8280704701468888C005C00DDB
:1005D000704781890122114381817047028BD2B219
:1005E0000283028B0B021A4302837047028BFF23A4
:1005F0001B021A400283028B0A43028370470029C0
:1006000004D0828A20231A43828204E0828A4B4BE0
:10061000113B1A4082827047002904D0828A10233D
:100620001A43828204E0828A444B5B1E1A40828213
:100630007047002904D0828A08231A43828204E08A
:10064000828A3E4BDB1D1A4082827047828A3B4B76
:100650000B331A408282828A0A43828270470029C1
:1006600004D0828A02231A43828204E0828A334BB6
:100670000D331A40828270470246002001235B023C
:10068000994200D100BF13880B40002B01D00120FC
:1006900000E000207047012252020A4001235B0261
:1006A0009A4200D100BFCA430280704770B502462B
:1006B00000240023002500201F4EB14200D100BFBE
:1006C0000E06750FCB06DB0E01269E403346012D2C
:1006D00002D19689334006E0022D02D1168A3340BA
:1006E00001E0968A33400C120126A6403446168853
:1006F0003440002B03D0002C01D0012000E000206A
:1007000070BD10B5002300220B4CA14200D100BFE8
:100710000B1201249C40A2B2D443048010BD0000FF
:1007200000380140FFCF0000F3E90000FFFC0000AB
:10073000FFF00000FFDF00006A090000F0FF00008A
:10074000FFF70000FFBF0000704700BFFEE77047E3
:10075000704770477047000010B50446F94884425E
:1007600008D10121042000F0A7FC0021042000F0A2
:10077000A3FC0CE0F448844208D10121082000F0D9
:100780009BFC0021082000F097FC00E010BD00BF9A
:10079000FCE770B50A460021002334E001248C40B8
:1007A00014402346002B2DD004684E000325B5408D
:1007B0002C43046008240C40002C07D0446A4D07E9
:1007C000EE0E0F25B5402C43446206E0046A4D0747
:1007D000EE0E0F25B5402C430462446801258D4080
:1007E000AC434460C4684E000325B540AC43C460CC
:1007F000846801258D402C438460C46A01258D40A6
:10080000AC43C462491C1446CC40002CC6D170BD18
:1008100010B50121084600F04FFC0021012000F036
:100820004BFC10BD70B503460A4600210024002091
:1008300076E001268E40156835402C46002C6ED09F
:100840005568022D02D05568122D20D108250D4083
:10085000002D0ED0586A4D07EE0E0F25B540064606
:10086000AE4330464E07F60E5569B54028435862F0
:100870000DE0186A4D07EE0E0F25B5400646AE4353
:1008800030464E07F60E5569B54028431862556844
:10089000012D08D05568112D05D05568022D02D0C4
:1008A0005568122D0BD1586801258D400646AE4380
:1008B00030461579ED06ED0F8D40284358601868D5
:1008C0004E000325B5400646AE4330461579AD07C8
:1008D000AD0F4E00B54028431860D8684E00032580
:1008E000B5400646AE4330464E009568B5402843B5
:1008F000D860986801258D400646AE433046D568DD
:100900008D4028439860D86A4E000125B5400646C0
:10091000AE4330464E001569B5402843D862491CA5
:100920001568CD40002D84D170BD884901600F212C
:1009300041610021416081600121C16000210161AC
:1009400070470246002013690B40002B01D00120A4
:1009500000E0002070470146086980B270470246F7
:10096000002053690B40002B01D0012000E0002043
:1009700070470146486980B2704781617047816263
:100980007047002A01D0816100E0816270474161B7
:10099000704742694A40426170470122120413467F
:1009A0000B431A46C261C161C261C269C269704724
:1009B00000B500284FD10B0005F083FA07050C198C
:1009C000202D3B434B00624A526892089200604BD4
:1009D0005A603FE05E4A5268920892005C4B5A604F
:1009E0001A46526801231A43594B5A6032E0584A5A
:1009F000526830239A43564B5A602BE0544A52684F
:100A000030239A43524B5A601A46526810231A43B5
:100A10004F4B5A601EE04E4A926803231B029A43D2
:100A20004B4B9A601A4692685B151A43484B9A6082
:100A300010E0474A526803231B039A43444B5A6011
:100A400008E0434A526803231B029A43404B5A6012
:100A500000E000BFB9E00B0005F033FA0E081522E4
:100A6000303E4A57657C8A9198A5ADB5384A5268A0
:100A700092089200364B5A601A46526802231A4373
:100A8000334B5A60A0E0324A526830239A43304BCD
:100A90005A601A46526820231A432D4B5A6093E03D
:100AA0002B4A526803231B029A43294B5A601A4669
:100AB00052689B151A43264B5A6085E0244A5268B7
:100AC00003231B039A43224B5A601A4652689B1415
:100AD0001A431F4B5A6077E01D4A926893089B00A7
:100AE0001B4A9360926801231A43194B9A606BE08A
:100AF000174A926830239A43154B9A601A469268B7
:100B000020231A43124B9A605EE0114A9268032335
:100B10001B029A430E4B9A601A4692689B151A4321
:100B20000B4B9A6050E00A4A926803231B039A43D6
:100B3000074B9A601A4692689B141A43044B9A60BA
:100B400042E0000000080140000C0140FF3F0000AF
:100B5000000001403B4A926803231B039A43394B30
:100B60009A601A4692685B141A43364B9A602BE0DF
:100B7000344A926893089B00324A936024E0314AD9
:100B8000926830239A432F4B9A601DE02D4A926859
:100B900030239A432B4B9A601A46926810231A43CB
:100BA000284B9A6010E0274A926803231B029A435D
:100BB000244B9A6008E0234A926803231B039A435C
:100BC000204B9A6000E000BF00BF00BDF0B50446B6
:100BD000134600250020002C01D11B4E00E01B4EC7
:100BE000324608260E40002E0DD04D076D0F506A7C
:100BF000AF000F26BE400746B743384606461E43A1
:100C0000304650620CE04D076D0F106AAF000F26A2
:100C1000BE400746B743384606461E43304610627C
:100C2000F0BD0A460021074B1968002A03D00B4685
:100C30000343194602E00B4683431946014B1960F2
:100C4000704700000000014000080140000C014016
:100C5000F748006801210843F549086008464068E4
:100C6000F4490840F249486008460068F2490840E3
:100C7000EF49086008460068012189048843EC496F
:100C8000086008464068ED490840E9494860072087
:100C9000C002C862BF20000488607047E449096848
:100CA000012212049143E24A116001210904411A10
:100CB00007D111460968012212041143DC4A116070
:100CC00000E000BF00BF704710B5014600220023BE
:100CD00000204A11012A02D1D54C236806E0022ADD
:100CE00002D1D34C236A01E0D14C636ACA06D20E0A
:100CF000012494401C40002C01D0012000E0002081
:100D000010BD38B5002000900024002500BF312020
:100D1000FFF7DAFF05460098401C009001214903C7
:100D20000098884201D0002DF1D03120FFF7CCFF90
:100D3000002801D0012400E00024204638BDBC4931
:100D4000096849084900BA4A1160012806D11146CC
:100D5000096801221143B64A116000E000BF00BFDC
:100D6000704738B5002000900024002500BF2120E6
:100D7000FFF7AAFF05460098401C009005210902D4
:100D80000098884201D0002DF1D02120FFF79CFF70
:100D9000002801D0012400E00024204638BD0128AD
:100DA00006D1A349096801221143A14A116005E057
:100DB0009F490968490849009D4A116070470146EA
:100DC00000209B4A50684008400002460A431046F3
:100DD000974A506070479648406804210840704721
:100DE00001460020924A5068302302469A4310463A
:100DF00002460A4310468E4A506070470146002062
:100E00008B4A506807231B0202469A43104602464B
:100E10000A431046864A5060704701460020844AC3
:100E200050680723DB0202469A431046CA0010436B
:100E30007F4A50607047002906D07D4A126A03023B
:100E40001A437B4B1A6205E0794A126A03029A43FD
:100E5000774B1A62704701460020754AD06A4000FD
:100E6000400802460A431046714AD0627047014664
:100E700000206F4AD06A102302469A431046024669
:100E80000A4310466A4AD062704700280AD1684A6D
:100E9000126A01239B069A43654B1A621A46126A2C
:100EA0000A431A62704701466148006A644A10406A
:100EB0007047012806D15E49096AC20611435C4A9F
:100EC000116206E05A49096A0122D2069143584A42
:100ED000116270475649096A14229143544A1162BB
:100EE000042802D010280ED106E05149096A0422D4
:100EF00011434F4A116207E04D49096A1422114318
:100F00004B4A116200E000BF00BF7047012806D1C4
:100F10004749096A01221143454A116205E04449E3
:100F2000096A49084900424A116270474049096A02
:100F3000202291433E4A11621146096A014311621F
:100F400070473B48006A202108407047012806D1BD
:100F50003749096A02061143354A116206E03449ED
:100F6000096A012212069143314A11627047002832
:100F700007D02F49096A0122520611432C4A1162F7
:100F800006E02B49096A012252069143284A116260
:100F9000704710B500210022254B5B6804242340D4
:100FA0001946002902D0042906D102E0254B03602E
:100FB00005E0254B036002E0224B036000BF00BF49
:100FC0001B4B5B6830242340194609091F4B5A5CB0
:100FD0000368D3404360164B5B6807242402234018
:100FE0001946090A1A4B5A5C4368D3408360104B78
:100FF0005B68E40023401946C90A154B5A5C4368F4
:10100000D340C3600A4BDB6A10242340002B02D07C
:10101000104B036102E07D23DB03036110BD002957
:101020001AD0034A52690243014B5A6119E0000089
:10103000001002400000FF21FFFFF6FEFFFF00FE50
:10104000200000040090D0030048E801F86300018C
:10105000F063000100093D004C4A526982434B4B4A
:101060005A617047002905D0484A92690243474BAC
:101070009A6104E0454A92698243444B9A61704701
:10108000002905D0414AD2690243404BDA6104E0AD
:101090003E4AD26982433D4BDA617047002905D050
:1010A0003A4A926A0243394B9A6204E0374A926A9A
:1010B0008243364B9A627047002905D0334AD26882
:1010C0000243324BDA6004E0304AD26882432F4B4D
:1010D000DA607047002905D02C4A126902432B4B75
:1010E0001A6104E0294A12698243284B1A61704749
:1010F00001460020254A50680F235B0602469A43AA
:1011000010464A061043214A506070471F48406A03
:10111000012108431D4948620846406A40084000D2
:101120004862704701460020184A92680A40002A27
:1011300001D0012000E00020704714498968014374
:10114000124A91607047012806D1104909680206C9
:1011500011430E4A116006E00C490968012212068B
:1011600091430A4A11607047002907D0074A40326C
:1011700052680243054B40335A6006E0034A40324E
:1011800052688243014B40335A607047001002405E
:1011900010B50446F948844208D101218014FFF7B4
:1011A0008BFF0021A014FFF787FF16E0F44884426C
:1011B00008D101210220FFF78DFF00210220FFF757
:1011C00089FF0AE0EF48844207D101211020FFF790
:1011D00081FF00211020FFF77DFF10BD10B50A46EA
:1011E00000210168E54B984202D0E54B984205D1B9
:1011F00070240B46A343194653881943E14B984288
:1012000006D0032424020B46A3431946D38819436E
:1012100001609388838513880385D84B984201D158
:10122000137A0386012383820168D44B984202D04B
:10123000D34B98420BD1537A002B03D00123DB020E
:10124000194304E00124E4020B46A3431946CC4BA6
:10125000984216D1937A002B02D08314194304E0EC
:10126000012424030B46A3431946D37A002B03D051
:1012700001235B03194304E0012464030B46A343E9
:101280001946BE4B984202D0BD4B98420BD1137BFE
:10129000002B03D00123DB03194304E00124E40302
:1012A0000B46A343194601604168416010BD70B50B
:1012B000002400220023056A6D086D000562026AA1
:1012C0004368048BB04D2C40AF4D6D352C400D88DC
:1012D0002C4302261546B5432A460D892A434D88DC
:1012E0002A43A64DA84217D108261546B5432A46DB
:1012F0004D892A4304261546B5432A468D882A433C
:1013000086151D46B5432B4646151D46B5432B464F
:101310008D892B43CD892B4343600483CD888586FB
:10132000026270BD70B5002400220023056A1026F9
:10133000B5430562026A4368048B944D2C40944D7A
:101340002C400D782D062D0C2C4320261546B54338
:101350002A460D892D012A434D882D012A43874DA8
:10136000A8421BD180261546B5432A464D892D013A
:101370002A4340261546B5432A468D882D012A4327
:1013800006151D46B5432B46C6141D46B5432B46D0
:101390008D89AD002B43CD89AD002B434360048381
:1013A000CD880587026270BD70B50024002200233D
:1013B000056AFF260136B5430562026A4368848BDD
:1013C000714D2C40704D6D352C400D882C437600AE
:1013D0001546B5432A460D892D022A434D882D0214
:1013E0002A43664DA8421BD1C6141546B5432A466A
:1013F0004D892D022A4306151546B5432A468D8888
:101400002D022A4386141D46B5432B4646141D461D
:10141000B5432B468D892D012B43CD892D012B43BF
:1014200043608483CD888587026270BD70B50022D9
:1014300000230024056A01263603B5430562036ACA
:101440004468828B514D2A40514D2A400D782D061B
:101450002D0C2A4376001D46B5432B460D892D03DE
:101460002B434D882D032B43444DA84206D17600D3
:101470002546B5432C468D89AD012C4344608283BB
:10148000CE8840252E52036270BD828B414B1A409C
:101490008283828B0B061B0C1A4382837047F8B53C
:1014A0000C460025002100260096066A01273F030E
:1014B000BE430662858B016A26030096364E354090
:1014C0001606360C35431E07360C35432B4EB042FC
:1014D00002D02B4EB0420AD1012676030F46B74305
:1014E000394601273F03009E3E43314307E0012672
:1014F00076030F46B743394676102643314385833A
:101500000162F8BD828B204B64331A408283828B48
:101510000A4382837047F8B50C4600250021002657
:101520000096066AFF270137BE430662858B016A73
:1015300026020096144E833E35401E05360C164397
:1015400035430E4EB04202D00D4EB0420AD10126B4
:1015500076020F46B7433946FF270137009E3E43C8
:10156000314308E0052676020F46B7433946FF2689
:1015700001362643314385830162F8BD002C0140CA
:1015800000040040001000408FFF0000FF8F0000AB
:10159000FFFC0000FFF30000FF0C0000028BF84B83
:1015A0001A400283028B0B061B0C1A4302837047FE
:1015B000F8B50C460025002100260096066A102783
:1015C000BE430662058B016A26010096ED4E35404A
:1015D0001E07360C35431606360C3543EA4EB0422C
:1015E00002D0EA4EB04208D120260F46B743394612
:1015F0001027009E3E43314306E0A0260F46B74326
:10160000394610262643314305830162F8BD028B1B
:10161000DF4B1A400283028B0A4302837047F0B506
:101620000C4600250021066A760876000662058BC6
:10163000016AD74EE73E35401E05360C164335434A
:10164000D14EB04202D0D14EB04207D102260F4651
:10165000B743394601262643314306E00A260F46A2
:10166000B743394601262643314305830162F0BD65
:1016700070B505460C46C448854202D0C348854231
:1016800000D100E000BF208800280AD12389A28869
:1016900061882846FFF7C3FFE1882846FFF7B7FFB8
:1016A00025E0208804280AD12389A2886188284659
:1016B000FFF77EFFE1882846FFF770FF17E02088DC
:1016C00008280AD12389A28861882846FFF723FFCA
:1016D000E1882846FFF716FF09E02389A288618880
:1016E0002846FFF7DCFEE1882846FFF7CEFE70BDF6
:1016F000F8B505460C46002601276088002801D170
:10170000022600E00026A088012801D1022700E07F
:1017100001272088002814D12389A28861882846BF
:10172000FFF77DFFE1882846FFF771FF23893A46DE
:1017300031462846FFF73CFFE1882846FFF72EFF99
:1017400013E02389A28861882846FFF731FFE188EA
:101750002846FFF723FF23893A4631462846FFF7FC
:101760005EFFE1882846FFF752FFF8BD10B502463C
:101770000B884C8823438C882343CC8823430C89D3
:1017800023434C8923438C8923434424A352106868
:101790008B7B002B05D00124A4020346A3431846EB
:1017A00002E001239B021843CB7B002B03D00123D3
:1017B0001B04184304E0012424040346A3431846F1
:1017C0000B7C002B03D001235B04184304E00124AD
:1017D00064040346A3431846106010BD0021C943AA
:1017E000818000210180C18041800172417281723B
:1017F000C172017341737047002101804180818073
:10180000C180018141818181C181704700210180B6
:101810004180012181800021C18001817047002128
:10182000018041808180C180018141818181704737
:10183000002904D0026801231A43026003E0026811
:101840005208520002607047002907D04422125A01
:101850000123DB031A4344231A5205E04422125A9F
:1018600053045B0C442213527047002A03D083892F
:101870000B43838102E083898B438381704781829C
:10188000704710B50B4613434824235210BD002A5D
:1018900003D083890B43838102E083898B43838157
:1018A000704701893A4A521D1140018170470A462A
:1018B00000210189364B643B19400B4613431946FE
:1018C0000181704730B504460D4629462046FFF792
:1018D000EEFF208907210843208130BDF8B504467A
:1018E0000D4616461F46602D06D13B460122314665
:1018F0002046FFF75DFE05E03B46012231462046CB
:10190000FFF78DFE29462046FFF7D1FF20890721EA
:1019100008432081F8BD30B50C4600210189C9B2C9
:101920001D062D0C154325432943018130BDFFB50C
:1019300005460E46174600243A4631462846039B84
:10194000FFF7E9FF2C891248401D0440072004439B
:101950000F4864380440702004432C81FFBDF0B56B
:1019600004460D4616461F463B463246294620464B
:10197000FFF7D1FF20890121890308432081F0BDB1
:10198000FFF30000FF0C0000002C014000040040A9
:10199000F3FF000001858282704710B50A460021DE
:1019A000016870240B46A34319460B46134319469E
:1019B000016010BDFFB50C46154600210022002332
:1019C0000189028B036AF74E31400E4626433146A9
:1019D000F54E3240FF260236324322261F46B743D9
:1019E0003B46039E3605360C2E433343018102836A
:1019F0000362FFBD0A460021018BEA4B693B194097
:101A00000B4613431946018370470A460021018B98
:101A1000E64B194013061B0C1943018370470A4615
:101A20000021818BDF4B693B19400B46134319465C
:101A3000818370470A460021818BDC4B19401306D5
:101A40001B0C194381837047002904D0026880234E
:101A50001A43026003E0026880239A4302607047E1
:101A6000002904D0426804231A43426003E042681C
:101A700004239A4342607047002904D04268082337
:101A80001A43426003E0426808239A434260704769
:101A9000002904D0426801231A43426003E04268EF
:101AA00052085200426070470A460021018BBD4B2C
:101AB0005B1E19400B4613431946018370470A46C3
:101AC0000021018BBA4B194013061B0C19430183EB
:101AD00070470A460021818BB24B5B1E19400B46B2
:101AE00013431946818370470A460021818BB04B0E
:101AF000194013061B0C1943818370470A460021C5
:101B0000018BA84BDB1C19400B461343194601837C
:101B100070470A460021018BA34BFD3B1940130679
:101B20001B0C1943018370470A460021818B9D4B92
:101B3000DB1C19400B4613431946818370470A4644
:101B40000021818B984BFD3B194013061B0C194358
:101B5000818370470A460021018B924B793B1940E3
:101B60000B4613431946018370470A460021018B37
:101B70004904490C13061B0C1943018370470A469C
:101B80000021818B874B793B19400B461343194643
:101B9000818370470A460021818B4904490C130652
:101BA0001B0C19438183704710B50A460021016A56
:101BB00002240B46A34319460B4613431946016200
:101BC00010BD10B50A460021016A08240B46A34344
:101BD00019460B4613431946016210BD10B50A465B
:101BE0000021016A20240B46A3431946130119431F
:101BF000016210BD10B50A460021016A80240B461F
:101C0000A343194613011943016210BD10B50A46DA
:101C10000021016A012464020B46A3431946130202
:101C20001943016210BD10B50A460021016A012462
:101C3000E4020B46A343194613021943016210BD87
:101C400010B50A460021016A012464030B46A34330
:101C5000194613031943016210BD30B50023012456
:101C60008C40A3B2046A9C430462046A15468D400A
:101C70002C43046230BD30B5002304248C40A3B251
:101C8000046A9C430462046A15468D402C43046236
:101C900030BD70B5034600200024184618300125D9
:101CA0008D40ACB21D6AE643B6B235401D620029D4
:101CB00001D0082909D14D10281805687026B543B0
:101CC00005600568154305600DE00D1F2D046D0CC2
:101CD0002818056807263603B5430560056816060B
:101CE000360C3543056070BD002904D0026802231C
:101CF0001A43026003E0026802239A4302607047BD
:101D0000002904D0026804231A43026003E0026839
:101D100004239A4302607047002904D0426880235C
:101D20001A43426003E0426880239A43426070474E
:101D3000026808239A43026002680A4302607047FF
:101D4000426870239A43426042680A434260704787
:101D50000289144B1A40028102890A4302817047AA
:101D60000289104B793B1A40028102890A430281A1
:101D700070478184704781857047818670470187ED
:101D800070478187704740221152704702680323D1
:101D90001B029A43026002680A43026070470146D0
:101DA000888E7047F8FF0000FCFC0000FF8F0000E9
:101DB000FFF700000146088F70470146888F704783
:101DC00001464020405A70470146888C70470146C2
:101DD000088D70470246002013690B40002B01D08C
:101DE000012000E00020704702698A4302617047C9
:101DF00030B5024600200023002415690D402B4613
:101E000095890D402C46002B03D0002C01D00120D9
:101E100000E0002030BD02698A4302617047000083
:101E200010B5044661780020205600F029F8A0780B
:101E3000002809D000202056C206D20E0121914070
:101E40002B4A116000BF0AE000202056C206D20EC5
:101E500001219140264A8032116000BF00BF10BDB1
:101E6000042806D12349096904221143214A11613A
:101E700005E020490969042291431E4A1161704717
:101E800010B5002819DA1C4A03071B0F083B9B08F2
:101E90009B00D2588307DC0EFF23A3409A438B0795
:101EA0001B0E8407E40EA3401A43134B0407240FB0
:101EB000083CA408A4001A5118E00D4A03231B0291
:101EC000D21883089B00D2588307DC0EFF23A3405F
:101ED0009A438B071B0E8407E40EA3401A43044B5E
:101EE000032424021B198408A4001A5110BD000009
:101EF00000E100E000E000E01CED00E000203D49D2
:101F0000086048608860C8603B48486170470021AD
:101F100038498279002A35D00A46126803689A4304
:101F20000B461A600A46526803689A430B465A6089
:101F3000027951180A6803681A430A602D4A9268A8
:101F400003689A432B4B9A601A46D26803689A43F7
:101F5000284BDA604279102A0CD11A46926803683D
:101F60001A43244B9A601A46D26803681A43214BDD
:101F7000DA600DE01F49427951180A6803681A4374
:101F80000A6005E0027951180A6803689A430A60FA
:101F900070470021016001710C21417100218171A4
:101FA0007047144909690143124A1161704701469B
:101FB0000020104A52690A40002A01D0012000E0A6
:101FC000002070470B4948617047014600200022FD
:101FD000084B1B680B401A46064B5B690B40002BF5
:101FE00003D0002A01D0012000E000207047014901
:101FF0004861704700040140FFFFFF008B498842A1
:102000000CD18B49096A012212071143884A1162D7
:102010001146096A12049143854A11627047028988
:102020009204920C028102890A4302817047F0B542
:102030008DB005460C46002600200C900B900A90AF
:1020400000BF00BF079000BF059005952E89794815
:102050000640A088E1880843218908436189084334
:1020600006432E817148059D854203D10020FEF76D
:102070001AFF0C90012189060C98884202D1C012E7
:102080000B900BE06C490C98884202D1C0120B9067
:1020900004E06846FEF77DFF02980B9021680B98DC
:1020A00003F046FB0A900A980A2805D80121890303
:1020B0002846FFF7B4FF03E000212846FFF7AFFFF3
:1020C0000A98A88121680B9803F032FB5B484143D2
:1020D0000F463846216803F02BFB0990002609982B
:1020E00008900020069018E0089807900999079832
:1020F000401808905149089803F01AFB07464F49C9
:10210000079803F015FB4740002F03D001200699E4
:10211000884006430698401C069006980828E3D39A
:102120002E750DB0F0BD4B21C901016008218180E1
:102130000221C180090201810021418170470246CC
:10214000002013880B40002B01D0012000E000206C
:10215000704710B50446208904210843208100BF40
:1021600020212046FFF7EBFF0028F9D120893449D0
:102170000840208110BD10B5002A04D00379CCB2EC
:102180002343037102E003798B43037110BD002ADE
:1021900003D003890B43038102E003898B4303814E
:1021A00070470289274B1A40028102890A43028143
:1021B0007047002904D0028980231A43028104E079
:1021C00002891F4B7C3B1A4002817047002904D0D2
:1021D000028910231A43028103E002891A4B1A4034
:1021E00002817047017470470146087C7047816125
:1021F00070470180704730B502460024002300205C
:102200004D046B0E01259D402B4615792B40CCB219
:1022100015882C40002B03D0002C01D0012000E0B9
:10222000002030BD0022CAB2028070470048004042
:1022300000100240F470000020000004102700008D
:10224000FB7F0000FF4F0000EFFF0000002806D0DA
:10225000FE49896880229143FC4A91600AE0CA21C4
:10226000FA4A516253215162114689688022114312
:10227000F64A9160704718B50020009000230024B2
:10228000FFF7E4FFF148C06820218843EF49C860A8
:1022900000BFEE48C0682021084004460098401C5A
:1022A000009089020098884201D0002CF1D0E748C4
:1022B000C06820210840002801D0012300E000234D
:1022C0000120FFF7C3FF184618BDE048C068802111
:1022D0008843DE49C860704708B50022009200209C
:1022E0000021DA4AD26840231A40002A1ED1D74A78
:1022F000D26880231A43D54BDA6000BFD34AD26834
:1023000040231A401146009A521C0092DB01009AA9
:102310009A4201D00029F1D0CC4AD26840231A4019
:10232000002A01D0012002E0002000E0012008BDC9
:1023300038B50020009000240025FFF787FFFFF745
:10234000CBFF002800D140E00020C0490860C04811
:1023500048600846806887210840BC49886000BF03
:10236000BA48C0680421084004460098401C009008
:10237000C9020098884201D0002CF1D0B348C0684F
:1023800004210840002801D100251EE0AF488068E4
:1023900080210840AD498860AE484861AE48086178
:1023A0000020C861C862C863A84940314860A74896
:1023B000C068C0B2A549C860FFF787FFFFF75BFFA1
:1023C000002801D1002500E001250120FFF73EFF94
:1023D000284638BD30B5044600250020FFF736FFFB
:1023E000FFF77AFF002800D117E098488068402165
:1023F0008843964988600846806821680843934965
:102400008860A068086108460069A188090408433B
:102410008E490861FFF759FF01250120FFF716FFDC
:10242000284630BD002101607F214160FF2181608D
:10243000704700B503460020FFF708FF002B06D0C9
:1024400082488068202108438049886005E07F48F1
:102450008068DF2108407D4988600120FFF7F6FE93
:1024600000BD0146002204E0501CC2B208460A38F2
:10247000C1B20A29F8DA1007000E08437047014676
:1024800000BFF020084000110A2358430246080705
:10249000000F8018C0B27047F8B505460C460026FC
:1024A00000200090002D0AD1684880684021084033
:1024B000002800D002E00020E07000BF0EE063487A
:1024C000806840210840002804D02078FFF7D7FF1B
:1024D000064602E00020E07000BF00BF002D0BD0D8
:1024E00020780004617809020843A1780843E17864
:1024F00009040843064610E02078FFF7B2FF0704FE
:102500006078FFF7AEFF00020743A078FFF7A9FF4E
:102510000743E078000407433E460020FFF796FE9D
:10252000FFF7DAFE002801D1009016E04B4830405A
:1025300046490860FFF7C9FE4448806820210840EA
:10254000002808D1FFF797FE002801D1009004E091
:102550000120009001E0012000900120FFF776FEAD
:102560000098F8BD0021C170017041708170704702
:1025700070B506460C4600253448006837490840C7
:1025800005463F2000042840000C20707F200002F8
:102590002840000A60706806400EA0700120800587
:1025A0002840000CE070002E0BD12078FFF767FF69
:1025B00020706078FFF763FF6070A078FFF75FFF1F
:1025C000A07070BD00202149886A49687047F8B53D
:1025D00005460C46002600200090002D08D16078AA
:1025E00010210840102803D1607888430A306070B9
:1025F000002D00D108E06078FFF741FF0646A07883
:10260000FFF73DFF064600BF002D0BD0E078000429
:10261000617809020843A1780843217849030843F7
:10262000064610E0E078FFF71CFF07046078FFF72C
:1026300018FF00020743A078FFF713FF0743207835
:10264000400307433E4600200AE000000028004007
:1026500001210000FFFF0000FF007F007F7F7F005F
:10266000FFF7F4FDFFF738FE002801D1009016E0D7
:10267000FD483040FD494860FFF727FEFB48806871
:1026800020210840002808D1FFF7F5FD002801D1DE
:10269000009004E00120009001E001200090012062
:1026A000FFF7D4FD0098F8BD0121017081704170E1
:1026B0000021C170704770B506460C460025EB48F6
:1026C0004068E94908400546FF2000042840000C06
:1026D000E0701F2000022840000A6070A806800EEB
:1026E000A070072040032840400B2070002E0BD123
:1026F000E078FFF7C4FEE0706078FFF7C0FE60701E
:10270000A078FFF7BCFEA07070BDF8B505460E4678
:10271000144600200090002D0ED1D448806840213E
:102720000840002800D002E00020E07000BFA06850
:10273000002800D11BE01AE0CC4880684021084006
:10274000002804D02078FFF79AFE009002E00020D5
:10275000E07000BFA068002804D1207BFFF78FFE47
:10276000009004E0207BFFF78AFE009000BF002D60
:1027700012D020780004617809020843A178084348
:10278000E17809040843217B09060843A16808434E
:1027900061680843009019E02078FFF762FE0704A3
:1027A0006078FFF75EFE00020743A078FFF759FE4E
:1027B0000743E07800040743207BFFF752FE000642
:1027C0000743A06807436068074300970020FFF7AE
:1027D0003DFDFF200130864202D1A4490098C86126
:1027E0000120FFF733FDF8BD0021C1700170417079
:1027F0008170816001210173002141607047F8B54B
:1028000006460F4614460025FF200130874201D1BD
:102810009648C5693F2000042840000C20707F20A6
:1028200000022840000A60706806400EA070012077
:1028300080052840000CE0703F2000062840000E74
:102840002073012080072840A060894828406060EC
:10285000002E0FD12078FFF712FE20706078FFF76E
:102860000EFE6070A078FFF70AFEA070207BFFF7D5
:1028700006FE2073F8BD78B503460C460020009094
:1028800000250026FFF7E2FC002C06D07748806880
:1028900018437649886001261DE074488068984393
:1028A0007249886000BF7148C068190A084005462F
:1028B0000098401C0090012149030098884201D0F3
:1028C000002DF0D06948C068190A0840002801D1DD
:1028D000002600E001260120FFF7B8FC304678BD55
:1028E00070B503460C46154600260020FFF7AEFCE7
:1028F000204628430646FF200130834202D15B4830
:10290000403046600120FFF7A1FC70BD0146002069
:10291000FF220132914204D1544A4032526850049D
:10292000400C704700B503460020FFF78FFC4F486E
:102930008068C008C0004D49886008468068184318
:1029400088600120FFF782FC00BD00B5034600202F
:10295000FFF77CFC454843610120FFF777FC00BD91
:102960004248406980B2704738B503460020009065
:1029700000240025FFF76AFC002B08D03B48806844
:102980000121890208433949886001251EE0374842
:1029900080680121890288433449886000BF334838
:1029A000C0680421084004460098401C0090C902F9
:1029B0000098884201D0002CF1D02C48C068042136
:1029C0000840002801D1002500E001250120FFF783
:1029D0003DFC284638BD10B504460B460020FFF7E5
:1029E00035FC224880680121890488431F4988609A
:1029F000084680682146194308431C498860012025
:102A0000FFF724FC10BD19488068012189040840A3
:102A10007047F0B503460C461546002700260020F7
:102A2000FFF714FC1148C068012109040840002880
:102A30000BD000E0761C0D48C06801210904084055
:102A4000002802D008118642F4D10848C06801214C
:102A50000904084000280DD11846204328430349A3
:102A6000C863012707E000003FFFFF000028004087
:102A70008080808000270120FFF7E8FB3846F0BD0A
:102A8000F0B504460D46002700260020FFF7DEFBC8
:102A90004148C0680821084000280AD000E0761CA0
:102AA0003D48C06808210840002802D088028642BC
:102AB000F5D13948C0680821084000280BD12846C4
:102AC00020433549C862FFF7D6FB002801D1002713
:102AD00002E0012700E000270120FFF7B7FB38469E
:102AE000F0BD10B503460C460020FFF7AFFB002CED
:102AF00005D02948806818432749886004E02648A3
:102B000080689843244988600120FFF79FFB10BD2F
:102B100010B50146002000221F4BDB681F4C2340EC
:102B20001A4613460B40002B01D0012000E0002084
:102B300010BD80210143C903C90BC943164AD2689D
:102B400080231A401143144AD160704730B50146C2
:102B5000002000220023104CA4680C4023460E4C99
:102B6000E4680D092C402246002B04D094B2002CBE
:102B700001D0012000E0002030BD10B50021010986
:102B800080220A4392B2D243034BDB688024234065
:102B90001A43014BDA6010BD002800407D0501009A
:102BA00010B5BA48BA4908609430BA490860FF388D
:102BB0002D38B9490860C9229200B849093802F095
:102BC000E1FD10BD70B50446002500BF00F058F9C6
:102BD0000546012000F057F900BF01200006241A25
:102BE0002046AB4909688847064600BF284600F0E2
:102BF0004AF900BF304670BDF8B504460D4616468A
:102C0000002700BF00F03CF90746012000F03BF927
:102C100000BF01200006241A3246294620469D4B5B
:102C20001B689847009000BF384600F02CF900BFA1
:102C30000098F8BDF8B504460D461646002700BFBB
:102C400000F01EF90746012000F01DF900BF012029
:102C50000006241A3246294620468F4B1B689847A7
:102C6000009000BF384600F00EF900BF0098F8BD94
:102C7000F0B5D3B004460D4616460520529000200C
:102C8000519000BF00F0FCF85190012000F0FBF8DB
:102C900000BF01200003844203D309204002844284
:102CA0000FD301204003844203D311204002844209
:102CB00007D303200003844211D319204002844229
:102CC0000DD204AF0137FF2241327549684602F048
:102CD00059FD324629462046B847529000BF00BFF2
:102CE000519800F0D0F800BF529853B0F0BDF7B53E
:102CF000FFB085B0044615460520839000208290E1
:102D000000BF00F0BDF88290012000F0BCF800BFC9
:102D100001200003844203D30920400284420FD3E0
:102D200001204003844203D311204002844207D390
:102D30000320000384422AD319204002844226D271
:102D400005AF013701225202564901A802F01AFDCF
:102D5000FF200130854201D82E4601E0FF260136D2
:102D6000324620468599B84783908398002803D03F
:102D700083987FB008B0F0BDFF200130854205D9AF
:102D80002A1A859909182018B847839000BF00BFF8
:102D9000829800F078F800BF8398EAE7F0B5E1B0D8
:102DA00004460525002600BF00F06AF8064601200B
:102DB00000F069F800BF01200003844203D309201A
:102DC000400284420FD301204003844203D31120E8
:102DD0004002844207D30320000384420FD319200A
:102DE000400284420BD204AF0137FF2281322E49C8
:102DF000684602F0C7FC2046B847054600BF00BF42
:102E0000304600F040F800BF284661B0F0BDF0B594
:102E1000D1B004460525002600BF00F031F8064673
:102E2000012000F030F800BF01200003844203D3EA
:102E30000920400284420FD301204003844203D37F
:102E400011204002844207D30320000384420FD3A1
:102E50001920400284420BD212AF0137FF224132C7
:102E60001249684602F08EFC2046B847054600BF6E
:102E700000BF304600F007F800BF284651B0F0BD53
:102E8000EFF31080704780F310887047C103002073
:102E900004000020080000200C000020FC6300015A
:102EA000B06200012067000120690001A06A0001F2
:102EB00000F01CF902F097FA05E000F03AF900F092
:102EC00038FD01F03FFDF8E710B501200004FDF7E3
:102ED000E5FE00BFFDF715FF0028FBD00120FDF740
:102EE0006EFF0121A948FEF7BDF801214804FEF755
:102EF000C7F800210846FDF7C8FF0120FDF7D9FFFC
:102F000010BD08B510216846017001214170817023
:102F1000FEF786FF1E2168460170022141700121E3
:102F20008170FEF77DFF1C2168460170042141700D
:102F300001218170FEF774FF0621684601700321AC
:102F4000417001218170FEF76BFF08BD10B50120B3
:102F50008F49087000F012FD40000321081AFA2181
:102F6000484304468B4A2146002000F0F5FA10BD84
:102F700010B58748007800281AD0002084490870CE
:102F800085480078401C844908700846007801286C
:102F900003D140218148FDF7F2FC7F4800780228E8
:102FA00006DB00207C49087040217C48FDF7E5FCE9
:102FB00010BD00B587B0402001900120029001A90A
:102FC0007648FDF72FFC40217448FDF7D6FC01211F
:102FD000C9027348FDF7D1FC6E4AFF21F53100208C
:102FE00000F0BAFA07B000BD10B56E4800780028AE
:102FF00011D06D480078002804D002216748FDF701
:10300000BEFC03E002216548FDF7B7FC6648007886
:10301000C04365490870654800887D21C900884221
:1030200003DB00206149088004E060480088401C00
:103030005E4908805D480088002802D15C4908701C
:103040000AE05A4800885B49884205D15848007810
:10305000002801D153490870574A1E21012000F071
:103060007BFA10BD00B587B00220019001200290CC
:1030700001A94A48FDF7D6FB4F4A1E21012000F066
:103080006BFA07B000BD012049490870704700B5D0
:1030900089B004200390002004900120059003A92A
:1030A0003E48FDF7BFFB02210020FDF781FC022016
:1030B00001900021684601720C2141720121817248
:1030C00001A8FEF724FF09B000BD10B50220FEF7ED
:1030D0007CFF002809D000F0EEFA012148400446A8
:1030E00000F0A1FA0220FEF782FF10BD10B5FFF735
:1030F000EBFEFFF706FF00F067F800F01FFA01F0A3
:1031000096FD00F0A2F900F074F900F0B9F8FFF7AD
:1031100050FF00F072FA00F097FCFFF7A3FFFFF7F3
:10312000B6FF00F037FB01F0A7FF24A002F08EFEEF
:1031300010BD10B5FFF7A7FFFFF71AFF01F0BCFFA6
:1031400010BD002107E0002200E0521C1923DB0122
:103150009A42FADD491C8142F5D3704770B50446A6
:10316000002504E03220FDF70FF9681C85B2A54266
:10317000F8DB70BD70B50446002504E00520FDF7BE
:1031800003F9681C85B2A542F8DB70BD0D40000054
:10319000210000204D2F00012300002000080140E5
:1031A000000C014026000020270000202400002001
:1031B00022000020E7030000E92F00017368736814
:1031C00073680D0A000000001FB56846FEF706FB95
:1031D00001210220FDF754FF00216846C180418093
:1031E0007D21C90081801F21018000210172694673
:1031F0000D48FDF7F3FF012211460B48FEF735FBA2
:1032000001210948FEF714FB1FBD10B50121064836
:10321000FEF7EEFD012805D101210348FEF7FBFD75
:1032200000F0B4F910BD00000004004070B5044681
:103230000D46E1B2B648FEF7D5FF00BF0221B44803
:10324000FEF77DFF0028F9D00221B148FEF7D1FF3B
:10325000204670BD00B587B010200190022002907A
:103260000320069001A9AB48FDF7DCFA202001906D
:103270000320069001A9A748FDF7D4FA07B000BDC6
:103280001FB5FFF7E7FF4B20C00100900021684603
:103290008180C180018181810C21418169469E48E4
:1032A000FDF7A9F801229D499B48FDF724F901216A
:1032B0009948FDF713F91FBD10B50120984908750D
:1032C000022000F051F910BD002004E00021954AD1
:1032D0001154411C88B29249098A8142F6DC0021CE
:1032E0008F4A1182117570478D48007D012800D1E9
:1032F00070470020FCE770B505460E46002400BF6D
:103300000CE0295D8448FDF75BF900BF802182480D
:10331000FDF7B2F90028F9D0601C84B2B442F0DBAA
:1033200070BD10B57D497C48FDF7C0F900281DD05F
:103330007B48007D002815D17748FDF745F9C4B2D8
:103340007748008A77490C547548008A401C7449B4
:103350000882022000F008F9734A3221022000F0AE
:10336000FBF803E06C48FDF72FF9C4B210BD70B54F
:103370000025002600245825FFF7B6FF00281ED0A0
:103380006748008A172818D100BF05E06548005D2E
:10339000401985B2601CC4B26148008A401EA04238
:1033A000F4DCE843C6B25E48008A401E5D49085C12
:1033B000B04202D1084600F017FAFFF785FF70BD52
:1033C00000B587B001200003019002200290069012
:1033D00001A95048FDF726FA0120C0020190012002
:1033E00003900220069001A94A48FDF71BFA07B096
:1033F00000BD0EB5FFF7E4FFE12040020090082178
:103400006846818089010181002141810221C180BA
:1034100069463F48FEF70BFE0EBD00B587B0402061
:103420000190022002900420069001A93948FDF77E
:10343000F9F980200190022002900420069001A951
:103440003448FDF7EFF907B000BD1FB5FFF7E5FF02
:10345000E12040020090002168468180C180018106
:1034600081810C21418169463048FCF7C4FF01226B
:103470002A492E48FDF73FF801212C48FDF72EF888
:103480001FBD10B501202A490875042000F06CF812
:1034900010BD002004E00021264A1154411C88B2CE
:1034A0002349098A8142F6DC0021214A11821175E3
:1034B00070471F48007D012800D170470020FCE7BD
:1034C00070B505460E46002400BF0CE0295D174884
:1034D000FDF776F800BF80211448FDF7CDF80028ED
:1034E000F9D0601C84B2B442F0DB70BD10B50B495A
:1034F0000E48FDF7DBF8002808D00C48FDF764F80B
:10350000C4B221460C48006801F02BFB10BD00003E
:1035100000480040000C0140004400402505000028
:10352000080E002048060020B93200010038014092
:10353000DE1500201E0E002050000020002008E0B4
:103540000021C200224B9950C200D2185160411C88
:10355000C8B21228F4DB704710B5C3001C4CE15010
:10356000C3001B195A6010BD0021C200184B9950AE
:10357000C200D218516070470146C800144A105862
:10358000002801D1012070470020FCE710B500247D
:103590001AE0E0000E490858002813D0E00008584F
:1035A000401EE1000A4A5050E000114640184068B1
:1035B000002807D0E0000858002803D1E10089184E
:1035C00048688047601CC4B2122CE2DB10BD0000CA
:1035D000F4150020002101E0491C401E0028FBD109
:1035E000704700B587B0082001900120029001A922
:1035F0003548FDF717F907B000BD00B587B00620C4
:1036000001900120029001A93048FDF70BF9042137
:103610002E48FDF7B4F902212C48FDF7B0F9FFF769
:10362000E0FF07B000BD10B50446002C02D0012C0D
:1036300036D11AE004212548FDF79FF902212348DD
:10364000FDF79DF91420FFF789FD04211F48FDF7C0
:1036500096F902211D48FDF792F908211A48FDF755
:103660008CF900201A49087023E002211748FDF761
:1036700084F904211548FDF782F91420FFF76EFD47
:1036800004211248FDF77BF902211048FDF777F974
:1036900008210D48FDF773F901200D49087008E075
:1036A00004210A48FDF76BF902210848FDF767F984
:1036B00000BF00BF10BD06480078002801D00120DF
:1036C00070470020FCE7000000080140000C0140AA
:1036D0002800002010B5012099490870994A7D21E1
:1036E000C9000320FFF738FF10BD01B582B0582193
:1036F00068460171017A4171022101A8FFF7FBFDC3
:103700000EBD33B583B000240025A82168460171A1
:10371000017B4171032204A9801D02F033F800BF30
:1037200005E001A8005D4019C5B2601CC4B2052CBB
:10373000F7DBE84369464872062101A8FFF7DBFD85
:1037400005B030BD10B555211D20FFF7DAFF64200C
:10375000FFF704FDC7211920FFF7D3FF6420FFF70F
:10376000FDFCAA211D20FFF7CCFF6420FFF7F6FC2B
:103770001920FFF7BAFF10BD10B508217248FDF7F8
:10378000FCF8FF20F530FFF7E9FC08216E48FDF753
:10379000F6F810BD00B587B0082001900120029016
:1037A00001A96948FDF73EF8FFF7E6FF7D20C0005C
:1037B000FFF7D4FCFFF7C6FF624A7D21C900032052
:1037C000FFF7CAFE07B000BD08B560A00068009012
:1037D0005B480078012806D1002059490870022171
:1037E0006846FFF788FD08BDF0B587B004460020A5
:1037F000069000270322211D554801F0C3FF032234
:10380000611C5348001F01F0BDFF0322E11D504819
:10381000001D01F0B7FF032221460A314C48083051
:1038200001F0B0FF032221460D3149480C3001F070
:10383000A9FF0322214610314548103001F0A2FFB4
:103840000322214613314248143001F09BFF4049C6
:10385000091F486802F0D8F83E4A3F4B0591049092
:1038600002F062F8054602F0F1F83C490880384958
:10387000091F086802F0C8F80546364A364B02F0C0
:1038800053F80591049002F0E1F83449488030493A
:10389000091FC86802F0B8F8314A324B059104900C
:1038A00002F042F8054602F0D1F82C4988802849F8
:1038B000091F486902F0A0F8014605907F20C00565
:1038C00001F0F3FF0646284901F0B2FF054602F079
:1038D000A9F8224908731E48001F00692349096896
:1038E0004018224908600846006836281FD3084659
:1038F000006802F081F8019002F0C6F805461C4A03
:103900001C4B02F011F800221B4B0391029002F0B5
:103910000BF80591049002F099F806900F4887681B
:1039200006983F180D48876000201049086007B0CE
:10393000F0BD10B5FFF748FFFFF719FD10BD0000FF
:103940002C000020D5360001000C014058AA0000D0
:10395000881600209FE74A621B81103FA0160020B6
:10396000D3F8FC6534485A3F0024744930000020E5
:10397000CA4B0B528177283F00408F40FC480078AB
:103980007047FC480078002801D0012070470020D3
:10399000FCE7FFB581B0044615461E460A9FF54870
:1039A0000470F5480580C821F44801F004FFF2488E
:1039B0000288F248029901F0E5FEF14807807D2176
:1039C000C900F04801F0F7FEED4802883146ED48A5
:1039D00001F0D8FE05B0F0BD0120EB49087070473A
:1039E000E9490978002904D001200021E64A117034
:1039F00000E00020704710B504460020E24908703E
:103A0000E24A21460C20FFF7A7FD10BD10B50020AB
:103A1000DD4908700C20FFF7A7FD10BD002004E071
:103A20000021DB4A1154411C88B27D21C900884223
:103A3000F6DB0021D74A118070470120D649087073
:103A40000020CB490870704700B587B00120800284
:103A500001900120029001A9D048FCF7E3FE01216A
:103A60008902CE48FCF789FF07B000BD10B5CC48ED
:103A70000078002804D0012820D002283AD12EE076
:103A80000020BB490870C748006801F093F804465D
:103A9000C44821460268BE4801F0ABF8FFF7BEFFFC
:103AA00001218902BD48FCF768FFFF20F530FFF7D0
:103AB000A2FF0120BA490870002010BDFFF790FF57
:103AC00000280AD001218902B448FCF758FFB64803
:103AD000FFF791FF0220B24908700020EDE7FFF7E1
:103AE0007FFF002804D00020AD4908700120E4E7E2
:103AF0000020E2E70020E0E770B50024AB48007842
:103B0000030002F0DEF90A0620424B54628492BDA3
:103B1000CBF9A448006801F04DF80546A1482946B4
:103B200002689B4801F065F8FFF778FF0421A0A028
:103B3000FFF7C6FC7D200001FFF75DFF01209B49D8
:103B40000870002070BDFFF74BFF00281BD0954880
:103B5000006801F02FF805469248294602688C4813
:103B600001F047F894A18A4801F030FE0446002C89
:103B700004D002208D4908700020E3E700208B4923
:103B800008700220DEE70020DCE77D200001FFF75F
:103B900032FF0320854908700020D3E7FFF720FF9C
:103BA000002802D00420814908700020CAE7FFF7EE
:103BB00035FF0A2181A0FFF783FC6420FFF71BFF7C
:103BC00005207A4908700020BCE7FFF709FF0028AC
:103BD0001BD07448006800F0EDFF05467148294687
:103BE00002686B4801F005F877A1694801F0EEFD25
:103BF0000446002C04D006206C4908700020A1E780
:103C000000206A49087002209CE700209AE7FFF72D
:103C100005FF0B2170A0FFF753FC6420FFF7EBFEBC
:103C200007206249087000208CE7FFF7D9FE0028C2
:103C300024D05C48006800F0BDFF0546594829467D
:103C40000268534800F0D5FF66A1514801F0BEFD5F
:103C50000446002C0DD00F22E11D644801F092FDB6
:103C600000216248401F017508205049087000205B
:103C700068E700204D490870022063E7002061E7F3
:103C8000FFF7CCFE0A215AA0FFF71AFC6420FFF7C9
:103C9000B2FE092045490870002053E7FFF7A0FE57
:103CA000002827D03F48006800F084FF05463D48C3
:103CB00029460268364800F09CFF50A1344801F0C4
:103CC00085FD0446002C10D01422214608314748B7
:103CD000103001F057FD00214448103001750020DC
:103CE0003249087001202DE706E000202F490870B6
:103CF000022027E7002025E7002023E770B50024F5
:103D000041480078002802D0012830D112E03F4815
:103D10000078401C3D490870FFF780FE0B213CA055
:103D2000FFF7CEFB6420FFF766FE012036490870DE
:103D3000002070BDFFF754FE002875D019480068B8
:103D400000F038FF0546174829460268104800F081
:103D500050FF32A10E4801F039FD0446002C64D01A
:103D6000002029490870294908700120E1E76DE029
:103D70003F0000204000002038000020B71C002039
:103D80003A0000207F1D00203D000020D9390001AD
:103D9000B01600203400002036000020000C014046
:103DA000440000205000002088130000450000203F
:103DB00041540D0A000000004F4B000041542B43BA
:103DC00050494E3F0D0A00002B4350494E3A2052B5
:103DD000454144590000000041542B4347534E3D98
:103DE000310D0A002B4347534E3A2000911C00200E
:103DF00041542B49434349440D0A00002B49434396
:103E000049443A2000000000460000204100002004
:103E100041542B43455245473F0D0A002B43455221
:103E200045473A20302C31000EE0FE4800785A28F1
:103E300003DC0020FC4908707BE70020F94908708A
:103E4000F9490870022074E7002072E7002070E74B
:103E500070B50024F5480078002802D0012841D12F
:103E600012E0F0480078401CEE490870FFF7D6FDDC
:103E70000B21EFA0FFF724FB6420FFF7BCFD01201E
:103E8000EA490870002070BDFFF7AAFD002827D07E
:103E9000EA48006800F08EFE0546E84829460268B8
:103EA000E74800F0A6FEE7A1E54801F08FFC0446D4
:103EB000002C06D00020DD490870DA490870012086
:103EC000E1E7D84800785A2803DC0020D749087079
:103ED000D9E70020D3490870D44908700220D2E7FE
:103EE0000020D0E70020CEE770B50024D848007845
:103EF000002802D001283FD112E0CA480078401CB7
:103F0000C8490870FFF78AFD1F21D2A0FFF7D8FA31
:103F10006420FFF770FD0120CD490870002070BDBE
:103F2000FFF75EFD002825D0C448006800F042FE7F
:103F30000546C24829460268C14800F05AFECDA194
:103F4000BF4801F043FC0446002C04D00020C049C7
:103F500008700120E3E7B34800780A2803DC00205A
:103F6000BB490870DBE70020AE490870B84908700B
:103F70000220D4E70020D2E70020D0E770B500246B
:103F8000BD480078002802D001283FD112E0A548A2
:103F90000078401CA3490870FFF740FD0C21B7A032
:103FA000FFF78EFA6420FFF726FD0120B249087062
:103FB000002070BDFFF714FD002825D09F48006841
:103FC00000F0F8FD05469D48294602689C4800F02F
:103FD00010FEA8A19A4801F0F9FB0446002C04D079
:103FE0000020A54908700120E3E78E4800780A28E0
:103FF00003DC0020A0490870DBE700208949087035
:104000009D4908700220D4E70020D2E70020D0E7C5
:10401000FEB5002600249D480078002802D0012823
:1040200078D112E09A480078401C99490870FFF74F
:10403000F5FC0A2197A0FFF743FAC820FFF7DBFC45
:104040000120924908700020FEBDFFF7C9FC00283E
:1040500070D07A48006800F0ADFD074677483946D1
:104060000268774800F0C5FD8DA1754801F0AEFBF0
:104070000646002E5FD02C21714801F0BBFB0446A0
:10408000002C48D0002082490870641C601C0290FB
:10409000204600F044FE0A2107464F43029800F0F4
:1040A0003EFE3818C5B2102D03DA28460830C5B2D6
:1040B00002E028461038C5B2E41C601C029020467D
:1040C00000F02DFE0A2107464F43029800F027FE1C
:1040D0003818C0B20190F61C701C0290204600F007
:1040E0001EFE0A2107464F43029800F018FE3818BA
:1040F000C0B200902846009A019900F0D2FF2946EC
:1041000069A0009B019A01F0A1FE00205F490870A0
:10411000012099E720E05E4800780A2806D10020B7
:104120005B4908705949087002208DE70020574903
:10413000087089E70EE0564800780A2806D100206A
:10414000534908705149087002207DE700204F490B
:10415000087079E7002077E7002075E770B58CB02C
:104160000024002553480078030001F0AAFE0A0647
:10417000153745D1FEFDFCFBFAF9FFF74FFC19217D
:104180004DA0FFF79DF96420FFF735FC0120494958
:10419000087000200CB070BDFFF722FC00281BD077
:1041A0002648006800F006FD0646244831460268AD
:1041B000234800F01EFD2FA1214801F007FB044613
:1041C000002C04D002203B4908700020E2E70020C8
:1041D000384908700220DDE70020DBE7FFF71EFC0E
:1041E0001D213CA0FFF76CF96420FFF704FC0320BD
:1041F000304908700020CDE7FFF7F2FB002879D0A6
:104200000E48006800F0D6FC06460C4831460268AD
:104210000B4800F0EEFC17A1094801F0D7FA04465C
:10422000002C68E0410000204600002047000020EC
:1042300041542B43474154543F0D0A005000002085
:10424000B01600202B43474154543A20310000005F
:104250004800002041542B5149435347503D312CD5
:10426000312C22434D4E4554222C22222C22222C2A
:10427000310D0A004F4B00004900002041542B51E2
:10428000494143543D310D0A000000004A0000201E
:104290004200002041542B43434C4B3F0D0A000089
:1042A0002B43434C4B3A000025643A25643A25647D
:1042B0000D0A00004B00002041542B4D5154544333
:1042C00046473D22636163686564222C302C310DC2
:1042D0000A00000041542B4D5154544346473D229F
:1042E0006B656570616C697665222C302C36300DFB
:1042F0000A0000000AE004D00420F74908700020FA
:1043000048E70020F4490870022043E7002041E715
:10431000FFF784FB0F21F1A0FFF7D2F8C620B821E8
:10432000EA23312200910190F0A102A801F09EFD44
:1043300002A801F069FA86B2314602A8FFF7C0F878
:10434000EE4AEFA102A801F091FD02A801F05CFA8B
:1043500086B2314602A8FFF7B3F80221E9A005E0D2
:10436000CDE0A3E083E059E039E016E0FFF7A8F8DC
:104370001021E548FFF7A4F80221E4A0FFF7A0F818
:104380001321E3A0FFF79CF87D200001FFF733FB2A
:104390000520D14908700020FCE6FFF721FB00282A
:1043A0001BD0E048006800F005FC0646DD483146B9
:1043B0000268DD4800F01DFCDCA1DB4801F006FAD4
:1043C0000446002C04D00620C34908700020E1E612
:1043D0000020C14908700220DCE60020DAE6FFF781
:1043E0001DFB1D21D7A0FFF76BF8C74ADDA102A86E
:1043F00001F03CFD02A801F007FA86B2314602A89E
:10440000FFF75EF80521D8A0FFF75AF8D848FFF764
:10441000F2FA0720B04908700020BBE6FFF7E0FA87
:10442000002822D0BF48006800F0C4FB0646BD4803
:1044300031460268BC4800F0DCFBCEA1BA4801F06E
:10444000C5F90446CCA1B84801F0C0F90546002CD6
:1044500006D0002D04D008209F490870002099E65E
:1044600000209D490870022094E6002092E6FFF7A4
:10447000D5FA1A21C3A0FFF723F8A34AB9A102A8CD
:1044800001F0F4FC02A801F0BFF986B2314602A89F
:10449000FFF716F80521B4A0FFF712F8B448FFF7AC
:1044A000AAFA09208C490870002073E6FFF798FAF1
:1044B000002822D09B48006800F07CFB0646994803
:1044C00031460268984800F094FBAAA1964801F092
:1044D0007DF90446A8A1944801F078F90546002C1E
:1044E00006D0002D04D000207B490870012051E641
:1044F00000207949087002204CE600204AE600209E
:1045000048E6F0B5A64B9D440021A64868440163E7
:104510000024C1620025816200260391A248007830
:10452000030001F0CEFC0906151C2DA4ABBCD6D5AA
:10453000D4009E480078012806D100209B490870CD
:1045400004209949087002E0012097490870F4E1BD
:104550006420FFF750FA022093490870EDE1FFF75D
:104560003FFA00280BD0FFF759FA112190A0FEF76F
:10457000A7FF6420FFF73FFA03208B490870DCE1B6
:10458000FFF72EFA002871D06648006800F012FB91
:104590000746644839460268634800F02AFB89A14F
:1045A000614801F013F90446002C5CD088A15E48F4
:1045B00001F00CF97B496944C8620846C06A0146AB
:1045C000103178486844C162C06A7649694488629B
:1045D00004E074496944C86A401CC8627148684470
:1045E000C06A00782C28F4D16E486844C16A806A99
:1045F000091A4E1EC82113A801F0DDF83246694899
:104600006844816A13A801F0BDF866486844816A6D
:10461000891981623DA1806A01F0D8F80546002D14
:1046200021D0AD1C08E029780EAA039811540398F4
:10463000401C81B203916D1C28782C28F3D10021F5
:104640000EAA039811540EA801F0E5F80646C821F9
:1046500013A801F0B0F83246691C13A801F092F8D3
:1046600000205149087000204F49087065E164201E
:10467000FFF7C1F905204C4908705EE1FFF7B0F97A
:1046800000280BD0FFF7CAF9082155A0FEF718FF44
:104690006420FFF7B0F90620434908704DE1FFF7A9
:1046A0009FF9002816D01F48006800F083FA0746DB
:1046B0001C48394602681C4800F09BFA4BA11A4876
:1046C00001F084F80446002C05D0A41D94E030E1EC
:1046D0000BE1D4E0D2E0CEE04B00002041542B4D62
:1046E000515454434F4E4E3D302C220025642E250C
:1046F000642E25642E2564222C000000482B000027
:10470000256400002C22000010000020222C000054
:104710002275736572222C22302E313233343536B5
:10472000220D0A0050000020B01600202B4D5154DD
:10473000545552433A2022636F6E6E222C302C3037
:104740000000000041542B4D5154545355423D300C
:104750002C226D6F646275735F636F6E74726F6C21
:104760002F00000025730000222C300D0A000000ED
:10477000881300004F4B00002B4D515454535542A9
:104780003A20300041542B4D5154545355423D3042
:104790002C226D6F646275735F74696D652F000004
:1047A000CCF9FFFF000600004C0000204000002074
:1047B00041542B4D515454524541443D302C310D00
:1047C0000A0000002B4D515454524541443A000018
:1047D0002B4D515454524541443A20302C302C003A
:1047E00041542B4353510D0A000000002B435351F9
:1047F0003A200000761C641C20782C28FAD1A41BD7
:1048000000210291012E14D1204600F088FA029076
:10481000029840007121081AC1B20291A9A101A811
:10482000029A01F023FBA84968460079087000202D
:104830004870022E1ED1204600F071FA0A21074668
:104840004F43601C00F06BFA391802910298400047
:104850007121081AC1B202919AA101A8029A01F02D
:1048600005FB9949684600790870684640794870A8
:104870000020887000BF0720944908705DE00E2179
:1048800093A0FEF71DFE964801889648FEF718FE95
:10489000022195A0FEF714FE062194A0FEF710FE5B
:1048A0009448028887A104A801F0E0FA04A800F067
:1048B000ABFF87B2394604A8FEF702FE022187A0AB
:1048C000FEF7FEFD8B4801888B48FEF7F9FD0321BA
:1048D0008A48FEF7F5FD002089490870C820FFF7D7
:1048E0008AF808207949087027E0FFF779F800284E
:1048F0001ED08448006800F05DF9074681483946BB
:104900000268814800F075F980A17F4800F05EFFE1
:1049100001467F4868440163006B002803D00020F3
:104920006A49087004E0FFF788F8002067490870BA
:1049300003E000206549087000BF00BF744B3433AA
:104940009D44F0BD10B573480078030001F0B9FA3A
:104950000B071B2F43576B7FB693B6AAB600FFF722
:1049600085F8002804D0012803D0022809D104E0EA
:1049700007E001206749087003E0002065490870DE
:1049800000BF00BF9BE0FFF7B7F8002804D0012864
:1049900003D0022809D104E007E002205D49087035
:1049A00003E000205B49087000BF00BF87E0FFF70D
:1049B000A5F9002804D0012803D0022809D104E079
:1049C00007E003205349087003E0002051490870B4
:1049D00000BF00BF73E0FFF73BFA002804D00128B6
:1049E00003D0022809D104E007E0042049490870F7
:1049F00003E000204749087000BF00BF5FE0FFF7F9
:104A000007FB002804D0012803D0022809D104E0C4
:104A100007E008203F49087003E000203D49087086
:104A200000BF00BF4BE0FFF75FFA002804D0012869
:104A300003D0022809D104E007E0062035490870B8
:104A400003E000203349087000BF00BF37E0FFF7E4
:104A500095FA002804D0012803D0022809D104E0E7
:104A600007E008202B49087003E00020294908705E
:104A700000BF00BF23E0FFF771FB002804D001282E
:104A800003D002280CD107E00AE00A20214908706F
:104A900001202149087003E000201E49087000BF72
:104AA00000BF0CE01D480078012804D100201B49FC
:104AB000087018490870FFF724FD00E000BF00BF30
:104AC00010BD0000256400008C1C00204C0000205C
:104AD00041542B4D5154545055423D302C2200002E
:104AE00038000020B71C0020222C0000302C302C75
:104AF000302C00003A0000207F1D002020470001DC
:104B00004000002050000020B01600204F4B000055
:104B1000000600004D0000203F000020360000206D
:104B200070B50546102001F08DFB0446002C0AD01C
:104B3000681C6060606801F085FB20600020E06018
:104B4000A060204670BD0020FCE710B50446206838
:104B500001F04EFB00202060204601F049FB0024BC
:104B600010BD70B504460D46E268501C616800F047
:104B7000F5FDA068814208D0E16820684554E268EC
:104B8000501C616800F0EAFDE16070BD70B504463C
:104B90000025A168E068884201D1002070BDA168AD
:104BA0002068455CA268501C616800F0D7FDA160D8
:104BB0002846F3E701468B68CA68D01A002801DB53
:104BC000024601E04A6812181046704701468B6899
:104BD000CA68D01A002801DB024601E04A681218B0
:104BE00010464A68121A501E704701464868401E17
:104BF0007047F8B505460E461746002400BF04E08E
:104C00003846FFF7C3FF2855641CB442F8D3F8BDFB
:104C1000F8B505460E461746002400BF04E0295D9E
:104C20003846FFF79EFF641CB442F8D3F8BD10B5B8
:104C30000248FFF775FF0249086010BDDC0500005F
:104C400050000020F7B503461C46002005460146EB
:104C50001BE0665C3011092802DD0646573601E08C
:104C600006463036F0B22E466D1C9055665C300715
:104C7000000F092802DD0646573601E006463036A9
:104C8000F0B22E466D1C9055491C01988142E0D32C
:104C9000FEBD30B503460C4600210FE0585C001104
:104CA000264D285C4D006055585C0007000F234DD1
:104CB000285C4D002D196870481C81B29142EDDBD3
:104CC0005004000C30BDF7B50B461446002222E01C
:104CD000002109E05000185C184F7F5CB84201D1F8
:104CE0000807060E481CC1B21029F3DB00210AE0B8
:104CF0005000C0184078114F7F5CB84201D10D07B9
:104D00002D0F481CC1B21029F2DB30462843009F0A
:104D1000B854501C82B2A242DADB6010FEBD0146DC
:104D2000002007E00A78054B1B5C9A4200D103E0A3
:104D3000421CD0B20A28F5DB00BF7047E06B0001CF
:104D400070B50A46FF23FF2408E00178401C594053
:104D5000594D6D5C65402B46584D6C5C1546561E92
:104D6000B2B2002DF1D1564D2C70564D2B7070BD46
:104D70000F2811DC012906D101228240524B1B88E9
:104D80001A43514B1A80002906D1012282404E4B12
:104D90001B8893434C4A1380704701460F2909DC56
:104DA00001208840484A12881040002800D17047EE
:104DB0000120FCE70020FAE701464800434A105A68
:104DC00070474200414B995270474200404B995204
:104DD0007047014648003E4A105A704730B5FDB052
:104DE00000253A48017868460170012141708170C0
:104DF000354801786846C1700421FFF7A1FF3148AA
:104E00000178684601712E480178684641712F4843
:104E10000178684681710321C17144210172002427
:104E20000FE060002949085A0112600009306A4603
:104E3000115460002549095C60000A301154601C5F
:104E4000C4B2222CEDDD472101A80230FFF778FF24
:104E50001C48017810A841731948017810A8817383
:104E60001A48017810A8C173042101741C214174EF
:104E700000240FE060001649085A01126000523009
:104E80006A46115460001249095C600053301154A5
:104E9000601CC4B20E2CEDDD1F2114A80130FFF7F9
:104EA0004FFF0848017818A881730548017818A8B1
:104EB000C17370257DB030BDBF000020BF01002050
:104EC000BD000020BE00002054000020560000203D
:104ED0006821002010B581490020FDF7ECFB10BDD2
:104EE00010B57F490020FDF743FB7E48406810BDA8
:104EF00003207D490870142088700B20487013200F
:104F0000C87000207949C8700920087033204870A3
:104F100000208870704770B5FF24FF25FF26724877
:104F20000478FF2C01D1002070BD6C490C70FF2467
:104F30006D488478FF2C01D10020F5E767498C701B
:104F400069484578FF2D01D10020EDE763494D7098
:104F50006548C678FF2E01D10020E5E75F49CE7095
:104F60000020FDF734FB002800D1DDE7FFF7B2FF9A
:104F70000120D9E770B5FF24FF25FF265B48C078E4
:104F80005749C87059480478FF2C01D1002070BDE2
:104F900053490C7055484578FF2D01D10020F6E7A4
:104FA0004F494D7051488678FF2E01D10020EEE721
:104FB0004B498E700020FDF76FFA002800D1E6E71C
:104FC000FFF78EFF0120E2E710B549480068494924
:104FD0004860494800688860002008600846FDF77E
:104FE000F9F910BD10B5044601210807FCF748F88F
:104FF00001210846FCF736F80020FBF7A7FF012C3B
:1050000015D10420FBF766FF00BF4320FBF75CFED1
:105010000028FAD02020FBF789FF0020FBF776FF5D
:10502000FF20354908607F203149086013E0022CD9
:1050300011D10120FBF76AFF00BF4120FBF744FEBE
:105040000028FAD00020FBF771FFFF202A490860F2
:105050007F20274908600120FBF778FFFDF70BF957
:1050600010BD10B5012025490870254AFF21F531F2
:105070000520FEF771FA10BD10B50220FFF7B2FF50
:10508000FFF7A2FF002101208003FDF72AFD002089
:10509000FDF76AFC1A4AFF21F5310520FEF75CFA9C
:1050A00010BD70B506460C46154610480670447093
:1050B0008570FFF75FFF70BD10B5104800780128BC
:1050C00004D100200D490870FFF70AFF10BD01212F
:1050D0000C4A117070470B4800787047C0020020DE
:1050E000C802002000280040C4020020CC0200209A
:1050F000D4020020B8210020D0020020D8020020D5
:1051000063500001D902002000B587B0FDA000F077
:105110009DFEA1216846017158214171592181717B
:10512000A221C1710121017241720021817201210C
:10513000C1720E21017300214173B42181731F21BB
:10514000C1734021017444214174C02181740F2135
:10515000C17402210175FF21417500218175C1755E
:105160007F210176172141763B2181768120400401
:10517000FDF728FD172201A981204004FDF73CFD21
:1051800007B000BD70B500242F22ED4981204004F6
:10519000FDF750FDEA48C0790002E94A127A80180A
:1051A00081B20320FFF70DFEE548407A0002E44A91
:1051B000927A801881B20420FFF703FEE048C07A9B
:1051C0000002DF4A127B801881B20520FFF7F9FD4B
:1051D000DB48407B0002DA4A927B801881B20820CB
:1051E000FFF7EFFDD648C17B0920FFF7EAFDD44861
:1051F000017C0D20FFF7E5FD00BF1DE06200A21855
:105200001132CF4B995C62000E32D0B2FFF7D9FD5C
:105210006200A2181232CA4B9A5C13026200A218F2
:105220001332C74DAA5C9A1891B262000F32D0B205
:10523000FFF7C7FD601CC4B20A2CDFDB0320FFF7B9
:10524000BBFD05462946BFA000F000FE0420FFF785
:10525000B3FD05462946BFA000F0F8FD0520FFF785
:10526000ABFD05462946BFA000F0F0FD0820FFF782
:10527000A3FD05462946BFA000F0E8FD0920FFF781
:105280009BFD05462946BFA000F0E0FD0920FFF781
:1052900093FDC007C00F002803D0BFA000F0D6FDCB
:1052A00002E0C1A000F0D2FD0920FFF785FD022138
:1052B0000840002803D0C0A000F0C8FD02E0C2A052
:1052C00000F0C4FD0920FFF777FD04210840002805
:1052D00003D0C1A000F0BAFD02E0C3A000F0B6FD0B
:1052E0000920FFF769FD08210840002803D0C2A06B
:1052F00000F0ACFD02E0C4A000F0A8FD0D20FFF717
:105300005BFD05462946C4A000F0A0FD00242DE069
:1053100061000F31C8B2FFF74FFDC5B261000F3118
:10532000C8B2FFF749FD06122B463246611CBEA0EB
:1053300000F08CFD61000E31C8B2FFF73DFD802109
:105340000840002803D0BFA000F080FD02E0BEA00E
:1053500000F07CFD61000E31C8B2FFF72DFD05465F
:105360002946BAA000F072FD601CC4B20A2CCFDB43
:10537000002406E07248015DB6A000F067FD601CE5
:10538000C4B22F2CF6DB70BD10B52B226C498120E6
:105390004004FDF74FFC6A4801790120FFF7E8FC63
:1053A000674841790220FFF7E3FC654881790320D3
:1053B000FFF7DEFC0120FFF7F0FC04462146A7A022
:1053C00000F044FD0220FFF7E8FC04462146A8A0B7
:1053D00000F03CFD0320FFF7E0FC04462146AAA0B4
:1053E00000F034FD10BD1CB5FDF7DAFB042201A965
:1053F00081204004FDF71EFC6846C0790090684695
:10540000837942790179A5A000F020FD68460079F2
:10541000A12813D16846407958280FD16846807971
:1054200059280BD16846C079A22807D1A1A000F065
:105430000DFDFFF7A9FFFFF7A5FE01E0FFF764FEF2
:105440001CBD10B52F223E4981204004FDF7F2FB20
:105450000120FFF7A2FC3A4908710220FFF79DFCEA
:10546000374948710320FFF798FC3549887181203E
:105470004004FDF7A7FB2F22314981204004FDF7AE
:10548000BBFB10BD10B500242F222D498120400404
:10549000FDF7D0FB0320FFF78FFC00122849C871ED
:1054A0000320FFF789FC264908720420FFF784FCDB
:1054B0000012234948720420FFF77EFC20498872BD
:1054C0000520FFF779FC00121D49C8720520FFF77F
:1054D00073FC1B4908730820FFF76EFC0012184983
:1054E00048730820FFF768FC154988730920FFF707
:1054F00063FC1349C8730D20FFF75EFC1049087464
:1055000000BF06E1546869732069732061206E65ED
:105510007720466C6173682077616974696E6720D3
:10552000746F2077726974652064656661756C7448
:1055300020706172616D65746572730D0A00000000
:10554000D4210020B9FDD1B9D6B5A3BA25640D0A7E
:1055500000000000C7B7D1B9D6B5A3BA25640D0ABB
:1055600000000000B9FDC1F7D6B5A3BA25640D0A45
:1055700000000000B9FDD4D8B9A6C2CAA3BA2564F8
:105580000D0A0000CCF8D5A2BFAAB9D8A3BA3078CA
:1055900025780D0A00000000B9FDD1B9CCF8D5A2DC
:1055A00020BFAA0D0A000000B9FDD1B9CCF8D5A2E0
:1055B00020B9D80D0A000000C7B7D1B9CCF8D5A2E0
:1055C00020BFAA0D0A000000C7B7D1B9CCF8D5A2F8
:1055D00020B9D80D0A000000B9FDC1F7CCF8D5A25A
:1055E00020BFAA0D0A000000B9FDC1F7CCF8D5A272
:1055F00020B9D80D0A000000B9FDD4D8CCF8D5A246
:1056000020BFAA0D0A000000B9FDD4D8CCF8D5A25D
:1056100020B9D80D0A000000B6A8CAB1B5E3CAFD8A
:10562000A3BA25640D0A0000B6A8CAB1B5E3256483
:1056300020CAB1A3BA25642020B7D63A2025642019
:1056400020200000BFAA2000B9D82000307825789B
:105650000D0A00003078257820000000B7D6BACFB8
:10566000D5A2BFAAB9D8A3BA307825780D0A000010
:10567000B1BEB5D8CAB9C4DCBFAAB9D8A3BA30780C
:1056800025780D0A00000000B6A8CAB1BFAAB9D893
:10569000A3BA307825780D0A00000000307825780C
:1056A00020307825782030782578203078257820AB
:1056B000000000005265616420666C6173682070B0
:1056C0006172616D65746572730D0A0061000E315F
:1056D000C8B2FFF771FBC1B2600020181130134A45
:1056E000115461000F31C8B2FFF766FB0012610070
:1056F000611812310D4A505461000F31C8B2FFF7E2
:105700005BFBC1B2600020181330084A1154601CC2
:10571000C4B20A2CDADB81204004FDF753FA2F22B1
:10572000024981204004FDF767FA10BDD421002012
:1057300030B50B46014600202022012409E00D4629
:10574000D5409D4205D31D469540491B25469540B1
:1057500040191546521E002DF1DC30BD70B50024F5
:105760002546002801DA01244042002901DA0125FA
:105770004942FFF7DDFFAC4200D04042002C00D090
:10578000494270BD03460B439B0703D009E008C99B
:10579000121F08C0042AFAD203E00B780370401CE1
:1057A000491C521EF9D27047D2B201E00270401C6F
:1057B000491EFBD270470022F6E710B513460A4691
:1057C00004461946FFF7F0FF204610BD30B50546E8
:1057D0002A460B4610781C78521C5B1C002801D00E
:1057E000A042F7D0002C03D0002802D06D1CEFE7B8
:1057F000284630BDCAB2401E4178401C8A4202D0C1
:105800000029F9D100207047421C0178401C002972
:10581000FBD1801A704770B5064600F061FB046842
:1058200005460A220021304600F084F92C6070BD44
:10583000024670B54A40D30FDB0740002DD04A0026
:105840002AD0010E140E000212020919400A520A4F
:105850008418E50104465443000A120A2E045043FA
:10586000A4194219200CC543AA18120C0125AD0336
:10587000521C521912047F39240400D0521C1043C8
:1058800001D44000491EC2B20C06C0092018401CB9
:105890004008802A02D003E0002070BD400840008C
:1058A000002900DA0020184370BD70B502464A4056
:1058B000D50F40004A00ED0740085208002814D0D8
:1058C000002A12D0C40DD30D41020120C00552029E
:1058D000490A520AE41A091812187D34914201D378
:1058E000641C00E04900002C01DA002070BD002398
:1058F000914201D3891A0343400849000028F7D197
:1059000000290AD0914202D10121C90705E0914244
:1059100001D2012101E00121C943E005C01840196D
:1059200000F040F970BD0000F0B51FB488B00B99CD
:105930000998002448400999C00F49004908099175
:10594000C0070B990090490049080B9109990898E4
:10595000A64608431CD00B990A98084318D009980A
:1059600001244000420D4800410D09982405000320
:10597000000B204309900B980003000B20430B9071
:1059800050181C494018002201901446104605E0AA
:10599000002001460DB0F0BD032801DA034600E007
:1059A00003239C46C11A0AAE0AE05F0008ADED5B16
:1059B0004F00F75B7D430027AA187C41491C5B1E02
:1059C0006145F2DD410004AB5A522104120C0A4336
:1059D000240C401C0828DFDB0198029000997046D7
:1059E00001910090059B049A0799069800F028F908
:1059F000D0E700000DFCFFFF10B5002296231146F2
:105A000000F0D8F810BD00000EB505490291002144
:105A100000910A460B46019100F012F903B000BD57
:105A200033040000410040020122400AD205090E61
:105A300080187F2901DA00207047962903DC96221E
:105A4000511AC84070479639884070474A00090388
:105A50000123090B1B051943094B10B5520D9A423E
:105A600001DA002010BD064B34339A4203DC9A1A47
:105A700000F04EF810BD03495118884010BD0000D9
:105A8000FF030000CDFBFFFFC20FD207400040081C
:105A90000BD0C10D0723DB01C91840020905400ADC
:105AA0001143C20840071143704700200146704768
:105AB000F0B51FB40646002082B00546402401918F
:105AC00000901BE0019922460F46304600F020F876
:105AD000049A059B801A994110D310461946224614
