:020000040800F2
:10000000D8F40020AD010008390F0008890E00085F
:10001000350F000881020008892F00080000000049
:10002000000000000000000000000000BF01000808
:100030008502000800000000C3010008BD1600088A
:10004000C7010008C7010008C7010008C701000870
:10005000C7010008C7010008C7010008C701000860
:10006000C7010008C7010008C7010008C701000850
:10007000C7010008C7010008C7010008C701000840
:10008000C7010008C7010008C7010008C701000830
:10009000C7010008C7010008C7010008C701000820
:1000A000C7010008C7010008C7010008C701000810
:1000B000C7010008C7010008C7010008C701000800
:1000C000C7010008C7010008C7010008C7010008F0
:1000D000C701000871240008C7010008C701000813
:1000E000C7010008C7010008C7010008C7010008D0
:1000F000C7010008C7010008C7010008C7010008C0
:10010000C7010008C7010008C7010008C7010008AF
:10011000C7010008C70100083D1C0008C70100080E
:10012000C7010008C7010008C7010008C70100088F
:10013000C7010008C7010008C7010008C70100087F
:10014000C7010008C7010008C7010008C70100086F
:10015000C7010008C7010008C7010008C70100085F
:10016000C7010008C7010008C7010008C70100084F
:10017000C7010008C7010008C7010008C70100083F
:10018000C7010008C7010008C7010008C70100082F
:10019000C7010008C7010008DFF80CD000F02EF8F6
:1001A0000048004779340008D8F40020064880470A
:1001B00006480047FEE7FEE7FEE7FEE7FEE7FEE74C
:1001C000FEE7FEE7FEE7FEE7C1160008990100081A
:1001D00030B50B46014600202022012409E021FA17
:1001E00002F59D4205D303FA02F5491B04FA02F514
:1001F0002844151EA2F10102F1DC30BD064C074D6A
:1002000006E0E06840F0010394E8070098471034E6
:10021000AC42F6D3FFF7C4FF2C5200084C52000842
:1002200008B54FF48050ADF8000010208DF80300A1
:1002300001208DF802006946044800F009FC4FF4E3
:100240008051024800F040FD08BD00000008014058
:1002500010B502F0A5FE00F069F803F06DF803F0A8
:10026000B7F8FFF7DDFF00F025FE01F0CBFC01F051
:10027000CFFA10BD10B500F00BF800F029FE10BD4C
:1002800000BFFEE7704700E0401E0028FCD1704729
:1002900001200149087070470700002010B51E4872
:1002A000007880B11D48007820B101211C4800F081
:1002B0007BFD03E001211A4800F006FD1748007895
:1002C000C0431649087017480088B0F57A7F03DBF1
:1002D00000201449088004E012480088401C11499D
:1002E00008801048008818B900200F4908700BE0FA
:1002F0000C48008840F2E731884205D10A4800786E
:1003000010B9002004490870AFF26F021E210220CC
:1003100002F064FE10BD00000C0000200D00002063
:10032000001001400A0000200700002008B501204D
:10033000ADF8000010208DF8030001208DF80200B8
:100340006946044800F084FB034A1E21022002F0A3
:1003500045FE08BD001001409D0200082DE9F04750
:1003600004460F464FF00008C2460026B14600255D
:10037000012C7DD0022CFCD0042CFAD0082CF8D013
:10038000FE488442F5D0FD4820308442F1D0FC483C
:100390008442EED0FA4880308442EAD0F948844260
:1003A000E7D0F9488442E4D0F8488442E1D0F848E4
:1003B0008442DED0F7488442DBD0B4F5805FD8D0E9
:1003C000B4F5E91FD5D0B4F5EA1FD2D0B4F5EB1FD0
:1003D000CFD0B4F5004FCCD0EF488442C9D0401CF8
:1003E0008442C6D0801C8442C3D0001D8442C0D049
:1003F000E9480F308442BCD0E8488442B9D0E8488C
:100400008442B6D0E7488442B3D0E7488442B0D0B3
:10041000E6488442ADD0E6488442AAD0001D84421A
:10042000A7D0E4488442A4D0E24810308442A0D04F
:10043000E14884429DD0E0488030844299D0DF4832
:10044000844296D0DE48844293D0DE48844290D0E5
:10045000DD4884428DD0DD4884428AD0DC48844225
:1004600087D0DC48844284D0DB48844285D000E0D9
:10047000B2E0DA48844285D0D948844286D0401C14
:10048000844286D0401C844287D0D648844284D09F
:10049000001D844284D0D448844284D0D34884420E
:1004A00084D0D2480830844286D0D148844286D055
:1004B000D048844286D0CF481030844285D0CD4881
:1004C0002030844284D0CC48844284D0CA48403012
:1004D000844286D0C848803084427DD0C748844258
:1004E0007AD0C748844277D0C648844274D0C64880
:1004F000844271D0C54884426ED0C54884426BD0D6
:10050000C448844268D0C448844265D0C348844209
:1005100062D0401C84425FD0401C84425CD0C04802
:10052000844259D0001D844256D0001D844253D0CD
:10053000BC48844250D0BB48203084424CD0BA489A
:10054000844249D0B8488030844245D0B74884427C
:1005500042D0B74884423FD0B64884423CD0B648E7
:10056000844239D0B548844236D0B548844233D02D
:100570004FEAF03084422FD0B24884427DD0B24856
:1005800084427AD0401C844277D0801C844274D04C
:10059000001D844271D0AD4884426ED0AB482030FB
:1005A00084426AD0A8483F30844266D0A6487F3053
:1005B000844262D0A448FF3084425ED0A448844282
:1005C0005BD075487F30844257D06D4840308442BC
:1005D00053D0A048844200E04FE04ED09D484038C0
:1005E00084424AD09B486038844246D0994870384B
:1005F000844242D09748783884423ED0001F8442DB
:100600003BD0801E844238D0401E844235D0924870
:10061000844232D0914884422FD0914884422CD0D9
:10062000B4F1102F29D04FEA7040844225D08D4874
:10063000844222D08C4884421FD08C4884421CD0F3
:100640008A488038844218D08848C038844214D000
:100650008648E038844210D08448F03884420CD078
:100660008248F838844208D0001F844205D0801E9A
:10067000844202D0401E844200D105E040F27A223A
:100680007BA18AA002F0E6FD0FB1012F00D105E0A9
:1006900040F27B2276A18BA002F0DCFD04F000404A
:1006A000B0F1004F02D18E48C66919E004F08040D5
:1006B000B0F1804F02D18A48066A11E004F0005080
:1006C000B0F1005F02D18648466A09E004F080502C
:1006D000B0F1805F02D18248866A01E080484668B6
:1006E000C4F303491FFA84F87E482040B0F5401F48
:1006F00008D126F070667A48406820F0706078492A
:10070000486077E104F48010B0F5801F16D104F43E
:100710000010B0F5001F05D1032000FA09F04FEAE0
:10072000004A02E0032000FA09FA26EA0A0604F069
:10073000E040002801D146F070665BE104F0807073
:10074000B0F1807F17D104F00400042814D104F024
:100750000070B0F1007F10D1C4F34050000108FADE
:1007600000F0864337B15E48456845F0010545F025
:100770007065B9E0BAE0E7E0CEE0BFE01000140039
:1007800040001600000118000002180000031800C5
:1007900000081A00000C1A000100200000013000BF
:1007A000000230000004300000040080010000401E
:1007B0000200114020001440400016400002184082
:1007C0000003184000041A40000C1A4000101C409E
:1007D00000301C4000401E4000801E4000C01E40F3
:1007E000010030400000204104002043000020446C
:1007F00008002046100034404000364000023840D7
:100800000003384000043A40000C3A4000103C40DD
:1008100000303C4000403E4000C03E4001001020FF
:10082000040012201000142040001620000118209F
:10083000000218200003182000041A20000C1A20BF
:100840000010002000800020010020201000342033
:1008500000022020800020100080001000400010C6
:100860000020001000040010000200100001001021
:100870002E2E5C6669726D776172655C6E333267CD
:100880003435785F7374645F7065726970685F6433
:1008900072697665725C7372635C6E33326734358D
:1008A000785F6770696F2E630000000049535F47EF
:1008B00050494F5F52454D415028526D7050696EFE
:1008C0002900000049535F46554E4354494F4E415D
:1008D0004C5F535441544528436D64290000000087
:1008E0000000014000003070456083E057484568D3
:1008F00025F0010545F0706545607BE0C4F340508C
:10090000000108FA00F086435048456825F00105CB
:1009100045F0706545606DE048F00400C4F3405157
:100920000901884086433FB14848456845F00105C4
:1009300045F0706545605DE04448456825F0010577
:1009400045F07065456055E004F08060B0F1806F5F
:1009500045D104F00800082829D104F00070B0F156
:10096000007F16D1C4F34050000108FA00F086431E
:100970003FB13648456845F0080545F0706545606B
:1009800038E03248456825F0080545F07065456057
:1009900030E0C4F34050000108FA00F086432B48D1
:1009A000456825F0080545F07065456022E048F08F
:1009B0000800C4F340510901884086433FB12348F1
:1009C000456845F0080545F07065456012E01F4830
:1009D000456825F0080545F0706545600AE0C4F3F8
:1009E0004050000108FA00F0864304F0E04008B9E6
:1009F00046F070662FB1C4F34050010108FA01F0CF
:100A0000064304F00040B0F1004F02D10F48C66128
:100A100019E004F08040B0F1804F02D10B4806622B
:100A200011E004F00050B0F1005F02D107484662C7
:100A300009E004F08050B0F1805F02D10348866283
:100A400001E002484660BDE8F08700000000014078
:100A50002DE9F05F05460C464FF00009CA46002616
:100A60000027B046B3465C48854211D05B488542BA
:100A70000ED05B4885420BD05A48854208D05A4870
:100A8000854205D05948854202D05948854200D157
:100A900004E0BE2257A166A002F0DCFBE078A0B122
:100AA000E078042811D0E07828280ED0E078482893
:100AB0000BD0E078142808D0E078102805D0E07832
:100AC0001C2802D0E078182800D104E0BF2249A1F8
:100AD0005EA002F0BFFB002010B9208800B104E046
:100AE000C02244A164A002F0B5FBE07800F00F0939
:100AF000E07800F0100098B1A07840B1A07802280A
:100B000005D0A078012802D0A078032800D104E005
:100B1000C72238A161A002F09DFBA07840EA090934
:100B2000207838B3D5F8008000261FE0012000FAB5
:100B300006F7208800EA070ABA4516D1B7000F2049
:100B400000FA07FB28EA0B0809FA07F040EA080850
:100B5000E078282803D10120B040686105E0E07802
:100B6000482802D10120B0402861761C082EDDD330
:100B7000C5F800802088FF282BDDD5F804800026EA
:100B800023E006F10800012101FA00F7208800EABD
:100B9000070ABA4518D1B7000F2000FA07FB28EA68
:100BA0000B0809FA07F040EA0808E078282803D182
:100BB00006F1080081406961E078482804D106F117
:100BC0000800012181402961761C082ED9D3C5F87F
:100BD0000480BDE8F09F000000080140000C0140C7
:100BE000001001400014014000180140001C0140A9
:100BF000002001402E2E5C6669726D776172655C23
:100C00006E3332673435785F7374645F7065726910
:100C100070685F6472697665725C7372635C6E3370
:100C200032673435785F6770696F2E6300000000AB
:100C300049535F4750494F5F414C4C5F50455249C3
:100C40005048284750494F782900000049535F47D2
:100C500050494F5F4D4F4445284750494F5F496EBB
:100C600069745374727563742D3E4750494F5F4DDC
:100C70006F6465290000000049535F4750494F5F8A
:100C800050494E284750494F5F496E6974537472FA
:100C90007563742D3E50696E2900000049535F470B
:100CA00050494F5F5350454544284750494F5F498D
:100CB0006E69745374727563742D3E4750494F5F6B
:100CC000537065656429000070B504460D461448EC
:100CD000844211D0134884420ED0134884420BD072
:100CE0001248844208D01248844205D011488442F8
:100CF00002D01148844200D105E04FF4C5720FA123
:100D00001DA002F0A7FA002008B905B105E040F2E5
:100D10008B120AA11FA002F09DFA656170BD000050
:100D200000080140000C0140001001400014014087
:100D300000180140001C0140002001402E2E5C667E
:100D400069726D776172655C6E3332673435785FD6
:100D50007374645F7065726970685F6472697665E8
:100D6000725C7372635C6E3332673435785F6770C0
:100D7000696F2E630000000049535F4750494F5F81
:100D8000414C4C5F504552495048284750494F7894
:100D90002900000049535F4750494F5F50494E2892
:100DA00050696E290000000070B504460D461448D5
:100DB000844211D0134884420ED0134884420BD091
:100DC0001248844208D01248844205D01148844217
:100DD00002D01148844200D105E040F273120FA105
:100DE0001DA002F037FA002008B905B105E04FF464
:100DF000BA720AA11FA002F02DFA256170BD000091
:100E000000080140000C01400010014000140140A6
:100E100000180140001C0140002001402E2E5C669D
:100E200069726D776172655C6E3332673435785FF5
:100E30007374645F7065726970685F647269766507
:100E4000725C7372635C6E3332673435785F6770DF
:100E5000696F2E630000000049535F4750494F5FA0
:100E6000414C4C5F504552495048284750494F78B3
:100E70002900000049535F4750494F5F50494E28B1
:100E800050696E290000000002E002A002F0D2F8D2
:100E9000FBE70000766F6964204861726446617503
:100EA0006C745F48616E646C657228766F69642942
:100EB0000D0A000008B50120ADF8000048208DF8AB
:100EC000030069460148FFF7C3FD08BD0008014063
:100ED00010B50E480078012817D100200B49087082
:100EE0000B480078401C0A49087008460078012821
:100EF00004D120210748FFF757FF06E000200449EE
:100F0000087020210348FFF7DFFE10BD0600002017
:100F1000080000200008014010B5012004490870B5
:100F2000AFF20B024FF4FA7102F058F810BD000056
:100F30000600002000BFFEE7704708B535208DF899
:100F4000000000208DF801008DF8020001208DF8CE
:100F50000300684600F002F808BD00002DE9F041EA
:100F60000446002500270F26E07810B1E07801281C
:100F700000D104E07D2222A12EA002F06BF960785E
:100F8000102800DA04E07E221DA1394802F062F93F
:100F9000A078102800DA04E07F2219A1354802F079
:100FA00059F9E07800B33448006800F4E060C0F517
:100FB000E060050AC5F10407EE40607800FA07F525
:100FC000A078304005432D012C48227885542078A4
:100FD00000F01F010120884021784911890001F1AA
:100FE000E021C1F8000109E0207800F01F01012094
:100FF000884023492278521141F82200BDE8F0814F
:101000002E2E5C6669726D776172655C6E33326735
:101010003435785F7374645F7065726970685F649B
:1010200072697665725C7372635C6D6973632E635B
:101030000000000049535F46554E4354494F4E410E
:101040004C5F5354415445284E5649435F496E699D
:10105000745374727563742D3E4E5649435F495202
:10106000514368616E6E656C436D64290000000039
:1010700094510008505100080CED00E000E400E03D
:1010800080E100E010B50446B4F5E06F0BD0B4F594
:10109000C06F08D0B4F5A06F05D0B4F5806F02D052
:1010A000B4F5407F00D104E06C2204A110A002F04E
:1010B000D1F81A4820431A49086010BD2E2E5C66EC
:1010C00069726D776172655C6E3332673435785F53
:1010D0007374645F7065726970685F647269766565
:1010E000725C7372635C6D6973632E630000000051
:1010F00049535F4E5649435F5052494F52495459E4
:101100005F47524F5550284E5649435F5072696FA2
:101110007269747947726F75702900000000FA05D2
:101120000CED00E070B5044600255CB1B4F5806FAD
:1011300008D0B4F5A06F05D0B4F5C06F02D0B4F5F7
:10114000E06F00D105E040F2C31205A112A002F049
:1011500081F81848456825F4E0652543456070BD71
:101160002E2E5C6669726D776172655C6E333267D4
:101170003435785F7374645F7065726970685F643A
:1011800072697665725C7372635C6E333267343594
:10119000785F7263632E630049535F5243435F4835
:1011A000434C4B5F444956285243435F48434C4BA2
:1011B000290000000010024070B504460D46114899
:1011C000204008B904B105E040F2C2320EA11CA0D3
:1011D00002F040F80DB1012D00D105E040F2C3321C
:1011E00009A120A002F036F82DB12548406920431E
:1011F0002349486104E022484069A04320494861EE
:1012000070BD0000A802FCFF2E2E5C6669726D772F
:101210006172655C6E3332673435785F7374645F16
:101220007065726970685F6472697665725C73720A
:10123000635C6E3332673435785F7263632E6300AC
:1012400049535F5243435F4148425F5045524950C2
:1012500048285243435F414842506572697068298B
:101260000000000049535F46554E4354494F4E41DC
:101270004C5F535441544528436D642900000000DD
:101280000010024070B504460D461148204008B9D0
:1012900004B105E040F2FE320EA11CA001F0DAFF1D
:1012A0000DB1012D00D105E040F2FF3209A120A0CF
:1012B00001F0D0FF2DB12548C06920432349C86102
:1012C00004E02248C069A0432049C86170BD000005
:1012D000003301412E2E5C6669726D776172655C28
:1012E0006E3332673435785F7374645F706572692A
:1012F00070685F6472697665725C7372635C6E338A
:1013000032673435785F7263632E630049535F52EE
:1013100043435F415042315F504552495048285243
:1013200043435F4150423150657269706829000043
:1013300049535F46554E4354494F4E414C5F5354B9
:1013400041544528436D642900000000001002400C
:1013500070B504460D461148204008B904B105E0B7
:1013600040F2DF320EA11CA001F074FF0DB1012D7F
:1013700000D105E04FF4787209A120A001F06AFFC6
:101380002DB12548806920432349886104E0224823
:101390008069A0432049886170BD00000286E0FF9B
:1013A0002E2E5C6669726D776172655C6E33326792
:1013B0003435785F7374645F7065726970685F64F8
:1013C00072697665725C7372635C6E333267343552
:1013D000785F7263632E630049535F5243435F41FA
:1013E0005042325F504552495048285243435F4172
:1013F00050423250657269706829000049535F4657
:10140000554E4354494F4E414C5F53544154452827
:10141000436D64290000000000100240F0B5002177
:1014200000BF002200250024384E7668384F06EAB7
:101430000702364E766806F4803502F000661EB963
:10144000022606EB924204E04FF4F876C6EB924691
:10145000721C1DB92F4E02FB06F30BE02B4E766873
:1014600006F400361EB12B4E02FB06F302E02A4EB4
:1014700002FB06F3254E766806F00C0121B1042923
:1014800005D0082908D105E0234E066007E0224E6A
:10149000066004E0036002E01F4E066000BF00BF6C
:1014A0001A4E766806F0F00109091C4E745C066855
:1014B000E6404660154E766806F4E061090A174E6C
:1014C000745C4668E6408660104E766806F46051AB
:1014D000C90A124E745C4668E640C6600B4EF66A56
:1014E00006F00F010E4E745C4668B6FBF4F64661DA
:1014F000064EF66A06F4F871090901F00F06094F65
:1015000037F81640B3FBF4F60661F0BD0010024058
:1015100000003C0800093D0000127A00DC3400089D
:10152000EC340008FC3400080EB500200290019055
:1015300000903948006840F480303749086000BFA7
:1015400035480068C0F3404001900098401C00906E
:101550009DF8040018B90098B0F5004FF0D12E485E
:101560000068C0F3404001909DF8040018B92B4872
:101570002B4908600EBD2B48006820F00700294960
:1015800008600846006840F0030008602248406890
:10159000214948600846406840F4005048600846C9
:1015A000406840F4A0604860084640681E49084012
:1015B00019494860084640680290029840F480301B
:1015C0000290029840F400300290029840F00260CD
:1015D0000290029848600846006840F080700860F9
:1015E00000BF0D48006800F000700028F9D00A48DC
:1015F000406820F00300084948600846406840F011
:101600000200486000BF0448406800F00C00082851
:10161000F9D100BFAEE700000010024000127A00CE
:101620000000002000200240FFFFC0F710B5044674
:10163000042C01D0601D00B904E0CF2207A114A042
:1016400001F008FE042C07D14FF0E020006940F0C3
:1016500004004FF0E021086110BD00002E2E5C66F2
:1016600069726D776172655C6E3332673435785FAD
:101670007374645F7065726970685F6472697665BF
:10168000725C7372635C6D6973632E6300000000AB
:1016900049535F5359535449434B5F434C4B5F533A
:1016A0004F55524345285379735469636B5F434CDC
:1016B0004B536F757263652900000000704700008E
:1016C00010B52448006840F47000224908602248A0
:1016D000006840F0010020490860084640681F4942
:1016E00008401D494860084600681D4908401A49DD
:1016F00008600846006820F48020086008464068BA
:1017000018490840144948600020C86208634FF433
:101710001F0088600846C06940F08050C8611248C8
:10172000C06840F001001049C8600B48C06920F053
:1017300080500949C8610D48006840F090000B498D
:101740000860FFF7F1FE4FF0006002498039086041
:1017500010BD000088ED00E00010024000C0FFF85E
:10176000FFFFF6FEFFFF00F7007000400020024080
:101770002DE9F04104460D4616461F462A2000F08A
:1017800005FAA0B200F0F3F9B0B200F0F0F92B20A6
:1017900000F0FCF9A8B200F0EAF9B8B200F0E7F9FD
:1017A0002C2000F0F3F9BDE8F08170B504460D4639
:1017B00016462B46224629462046FFF7D9FF3046DB
:1017C00000F0D5F970BD2DE9F04706460F461446E6
:1017D0001D46DDF820A0681E83B2601E82B2394625
:1017E0003046FFF7C5FFB8460EE0B14606E050466A
:1017F00000F0BDF909F101001FFA80F9A145F6DBFF
:1018000008F101001FFA80F8A845EEDBBDE8F0877B
:1018100010B54FF400717548FFF756FA642001F0D7
:1018200035FD4FF400717148FFF7BEFA642001F0F6
:101830002DFD10216D48FFF747FA642001F026FDC9
:10184000362000F0A3F9002000F09AF93A2000F0C9
:101850009DF9052000F094F9B22000F097F90C20D2
:1018600000F08EF90C2000F08BF9002000F088F9D0
:10187000332000F085F9332000F082F9B72000F022
:1018800085F9352000F07CF9BB2000F07FF91920A4
:1018900000F076F9C02000F079F92C2000F070F902
:1018A000C22000F073F9012000F06AF9C32000F0B3
:1018B0006DF9122000F064F9C42000F067F92020CF
:1018C00000F05EF9C62000F061F90F2000F058F931
:1018D000D02000F05BF9A42000F052F9A12000F024
:1018E0004FF9E02000F052F9D02000F049F904202F
:1018F00000F046F90D2000F043F9112000F040F906
:10190000132000F03DF92B2000F03AF93F2000F0C1
:1019100037F9542000F034F94C2000F031F9182048
:1019200000F02EF90D2000F02BF90B2000F028F923
:101930001F2000F025F9232000F022F9E12000F01B
:1019400025F9D02000F01CF9042000F019F90C2032
:1019500000F016F9112000F013F9132000F010F92F
:101960002C2000F00DF93F2000F00AF9442000F08F
:1019700007F9512000F004F92F2000F001F91F2091
:1019800000F0FEF81F2000F0FBF8202000F0F8F82F
:10199000232000F0F5F8212000F0F8F8112000F0E5
:1019A000F5F8292000F0F2F82A2000F0EFF80020E6
:1019B00000F0E6F8002000F0E3F8002000F0E0F886
:1019C000EF2000F0DDF82B2000F0E0F8002000F020
:1019D000D7F8002000F0D4F8002000F0D1F8C5209E
:1019E00000F0CEF82C2000F0D1F810BD000C014022
:1019F0002DE9FF5F07468A4690469B460F9D0020D3
:101A000002900097284605EBD071C1F347042046A9
:101A1000E21704EB5272D2102146E31704EB537322
:101A2000DB10A4EBC3030BB1012300E000231A4435
:101A30006A4392B20192A8F1200000F0FF080AEB7D
:101A40000500401E83B23819401E82B25146384606
:101A5000FFF78EFE00265DE00C2D07D108EB480055
:101A60002F4901EB8000805D039013E0102D05D11C
:101A70002C4800EB0810805D03900BE0182D07D177
:101A800008EB4800284901EB0010805D039001E05D
:101A9000BDE8FF9F4FF0000936E01098C8B901205B
:101AA00000FA09F00399084018B1584600F05FF8B1
:101AB00002E00E9800F05BF80298401CC0B2029061
:101AC000029890FBF4F104FB1100C8B900200290C9
:101AD0001DE0012000FA09F00399084020B15A46A0
:101AE00051463846FFF761FE781C87B20098381AD5
:101AF000A04205D1009F0AF101001FFA80FA06E01A
:101B000009F1010000F0FF09B9F1080FC5DB00BFC2
:101B1000701C86B2019886429EDB00BFB8E70000C9
:101B20001C35000890390008803F00082DE9FE4F61
:101B300006460F4614469846DDE90D5ADDF830900A
:101B400010E0CDE9015ACDF800902278434639469D
:101B50003046FFF74DFF284605EBD07106EB6101DB
:101B60008EB2641C20780028EBD1BDE8FE8F10B542
:101B70000446201200F01CF8E0B200F019F810BD85
:101B800010B50446204600F013F810BD10B5044609
:101B90004FF480710548FFF797F8204600F008F8E9
:101BA0004FF480710148FFF7FFF810BD000C0140B1
:101BB00070B5044620211248FFF786F8002517E08B
:101BC00040210F48FFF780F804F0800020B1802109
:101BD0000B48FFF7E9F803E080210948FFF774F8A4
:101BE00040210748FFF7E0F86006040E681CC5B204
:101BF000082DE5DB20210248FFF7D6F870BD000074
:101C0000000C014008B54FF47C70ADF800001020C6
:101C10008DF8030003208DF8020069460548FEF7A1
:101C200017FF01210920FFF793FB01210248FEF76E
:101C300095FB08BD000C01400002300010B50121E9
:101C4000054800F041FA28B10121034800F006F8E8
:101C500001F0CEF910BD00000010004070B5044640
:101C60000D461748844214D0B4F1804F11D0154866
:101C700084420ED0144884420BD01448844208D0C9
:101C80001348844205D01348844202D0124884424B
:101C900000D105E040F6224210A11EA001F0DAFAC0
:101CA00005F47F4008B905B105E040F623420BA1D9
:101CB0001EA001F0CFFA2069A843206170BD00008A
:101CC000002C01400004004000080040000C0040CF
:101CD0000010004000140040003401402E2E5C66CD
:101CE00069726D776172655C6E3332673435785F27
:101CF0007374645F7065726970685F647269766539
:101D0000725C7372635C6E3332673435785F74690A
:101D10006D2E6300497354696D416C6C4D6F647531
:101D20006C652854494D78290000000049735469B6
:101D30006D496E742854494D5F49542900000000D4
:101D400070B504460D4616461E48844214D0B4F1C0
:101D5000804F11D01C4884420ED01C4884420BD0C6
:101D60001B48844208D01B48844205D01A4884424C
:101D700002D01A48844200D105E04FF47B7218A1CA
:101D800025A001F067FA05F47F4008B905B105E028
:101D900040F2ED3212A126A001F05CFA0EB1012E44
:101DA00000D105E040F2EE320DA126A001F052FA7A
:101DB0001EB1A0892843A08102E0A089A843A08188
:101DC00070BD0000002C01400004004000080040ED
:101DD000000C00400010004000140040003401409E
:101DE0002E2E5C6669726D776172655C6E33326748
:101DF0003435785F7374645F7065726970685F64AE
:101E000072697665725C7372635C6E333267343507
:101E1000785F74696D2E6300497354696D416C6C11
:101E20004D6F64756C652854494D78290000000099
:101E3000497354696D496E742854494D5F4954295A
:101E40000000000049535F46554E4354494F4E41F0
:101E50004C5F535441544528436D642900000000F1
:101E600070B504460E4615461548844214D0B4F1A8
:101E7000804F11D0134884420ED0134884420BD0B7
:101E80001248844208D01248844205D01148844246
:101E900002D01148844200D105E040F219520FA14E
:101EA0001CA001F0D7F90DB1012D00D105E040F2E1
:101EB0001A520AA11DA001F0CDF92685A58270BD98
:101EC000002C01400004004000080040000C0040CD
:101ED0000010004000140040003401402E2E5C66CB
:101EE00069726D776172655C6E3332673435785F25
:101EF0007374645F7065726970685F647269766537
:101F0000725C7372635C6E3332673435785F746908
:101F10006D2E6300497354696D416C6C4D6F64752F
:101F20006C652854494D78290000000049735469B4
:101F30006D50736352656C6F61644D6F64652854B6
:101F4000494D5F50534352656C6F61644D6F6465DA
:101F50002900000008B541F63F701A4908804FF487
:101F6000A060FFF7DFF801211020FFF78BF9362082
:101F70008DF8000003208DF8010000208DF802008C
:101F800001208DF803006846FEF7E8FF03200E49A4
:101F90008880042008800020C88048800B4800F01A
:101FA00021F90122074801880848FFF759FF01225B
:101FB00011460648FFF7C4FE0121044800F008F866
:101FC00008BD0000040000201400002000100040A4
:101FD00070B504460D461A48844214D0B4F1804FBF
:101FE00011D0184884420ED0174884420BD01748AD
:101FF000844208D01648844205D01648844202D054
:102000001548844200D105E040F2AF3213A121A06F
:1020100001F020F90DB1012D00D105E04FF46C72F3
:102020000EA122A001F016F925B1206840F00100B0
:10203000206003E0206820F00100206070BD0000F7
:10204000002C01400004004000080040000C00404B
:102050000010004000140040003401402E2E5C6649
:1020600069726D776172655C6E3332673435785FA3
:102070007374645F7065726970685F6472697665B5
:10208000725C7372635C6E3332673435785F746987
:102090006D2E6300497354696D416C6C4D6F6475AE
:1020A0006C652854494D78290000000049535F466B
:1020B000554E4354494F4E414C5F5354415445286B
:1020C000436D6429000000002DE9F04104460D46EF
:1020D00000260027B0462348844214D0B4F1804F34
:1020E00011D0214884420ED0204884420BD0204891
:1020F000844208D01F48844205D01F48844202D041
:102100001E48844200D105E040F6FC321CA12AA002
:1021100001F0A0F8012D0DD0022D0BD0042D09D017
:10212000082D07D0102D05D0202D03D0402D01D033
:10213000802D00D105E040F6FD3211A124A001F070
:1021400089F8206900EA0507A08900EA050827B197
:10215000B8F1000F01D0012600E000263046BDE8AE
:10216000F0810000002C0140000400400008004005
:10217000000C0040001000400014004000340140FA
:102180002E2E5C6669726D776172655C6E333267A4
:102190003435785F7374645F7065726970685F640A
:1021A00072697665725C7372635C6E333267343564
:1021B000785F74696D2E6300497354696D416C6C6E
:1021C0004D6F64756C652854494D782900000000F6
:1021D000497354696D476574496E742854494D5F5D
:1021E0004954290070B504460D4600266E488442C5
:1021F00014D0B4F1804F11D06C4884420ED06C489A
:1022000084420BD06B48844208D06B48844205D08E
:102210006A48844202D06A48844200D104E0BD2268
:1022200068A176A001F016F8688858B1688810286F
:1022300008D06888202805D06888402802D068889F
:10224000602800D104E0BE225EA172A001F002F875
:10225000E88838B1E888B0F5807F03D0E888B0F529
:10226000007F00D104E0BF2256A176A000F0F2FF6B
:1022700026684D4884420ED0514884420BD0B4F1B8
:10228000804F08D04948844205D04948844202D052
:102290004848844203D126F07006688806434648C1
:1022A000844206D04548844203D026F44076E8882C
:1022B00006432660A888A085288820853A4884425D
:1022C00002D03F48844201D1287A20860120A08292
:1022D0002668354884420ED0394884420BD0B4F188
:1022E000804F08D03148844205D03148844202D022
:1022F0003048844206D1687A10B146F4006601E0A5
:1023000026F40066B4F1804F08D02848844205D0F6
:102310002748844202D0274884420DD1A87A10B1C0
:1023200046F4805601E026F48056E87A10B146F46F
:10233000005601E026F40056B4F1804F05D01B484A
:10234000844202D01A48844206D1287B10B146F458
:10235000804601E026F48046134884420BD018489A
:10236000844208D0B4F1804F05D01048844202D096
:102370000F48844206D1687B10B146F4004601E064
:1023800026F4004626606668B4F1804F02D0084803
:10239000844206D1A87B10B146F4807601E026F491
:1023A0008076666070BD0000002C01400004004093
:1023B00000080040000C00400010004000140040E5
:1023C000003401402E2E5C6669726D776172655C27
:1023D0006E3332673435785F7374645F7065726929
:1023E00070685F6472697665725C7372635C6E3389
:1023F00032673435785F74696D2E630049735469B0
:102400006D416C6C4D6F64756C652854494D78292D
:1024100000000000497354696D436E744D6F64652C
:102420002854494D5F54696D6542617365496E6911
:10243000745374727563742D3E436E744D6F64658E
:1024400029000000497354696D436C6B4469762818
:1024500054494D5F54696D6542617365496E697495
:102460005374727563742D3E436C6B446976290016
:1024700010B540F22551134800F040FAE8B1124877
:102480000078A8B90F4800F0B1FCC4B20E484188EA
:10249000001D4454001F4088401C0B494880042004
:1024A00000F092FD094A3221042000F097FD08E077
:1024B000044800F09BFCC4B203E0024800F096FC24
:1024C000C4B210BD00380140840000208D2F0008E8
:1024D0002DE9F04704460D4617464FF00008C24666
:1024E000C14600263D48844211D03D4884420ED06A
:1024F0003C4884420BD03C48844208D03B4884424C
:1025000005D03B48844202D03A48844200D105E0DD
:1025100040F27F1238A147A000F09CFE282D19D070
:1025200040F22770854215D040F22660854211D0D6
:1025300040F2255085420DD040F22440854209D01A
:1025400040F64600854205D040F66A10854201D02B
:10255000602D00D105E04FF4C07227A13CA000F02F
:1025600079FE0FB1012F00D105E040F2811222A1C6
:102570003EA000F06FFE40F66A1085420FD117486A
:10258000844205D01648844202D01648844200D1C5
:1025900005E040F2851218A13BA000F05BFE264644
:1025A000C5F3421805F01F0A012000FA0AF9B8F134
:1025B000010F01D10C3605E0B8F1020F01D1103640
:1025C00000E0143627B1306840EA0900306003E0CB
:1025D000306820EA09003060BDE8F087003801402B
:1025E0000044004000480040004C004000500040C3
:1025F00000500140005401402E2E5C6669726D77D8
:102600006172655C6E3332673435785F7374645F12
:102610007065726970685F6472697665725C737206
:10262000635C6E3332673435785F75736172742E14
:102630006300000049535F55534152545F414C4C75
:102640005F5045524950482855534152547829000B
:1026500049535F55534152545F4346475F494E5477
:102660002855534152545F494E54290049535F46FF
:10267000554E4354494F4E414C5F535441544528A5
:10268000436D64290000000049535F555341525483
:102690005F3132335F5045524950482855534152BB
:1026A0005478290070B504460D461948844211D06B
:1026B000184884420ED0184884420BD017488442F0
:1026C00008D01748844205D01648844202D01648E4
:1026D000844200D105E040F2591214A122A000F07A
:1026E000B9FD0DB1012D00D105E04FF4AD720FA180
:1026F00024A000F0AFFD25B1A08940F40050A081D6
:1027000004E0A0894DF6FF710840A08170BD000073
:10271000003801400044004000480040004C0040A8
:102720000050004000500140005401402E2E5C66D5
:1027300069726D776172655C6E3332673435785FCC
:102740007374645F7065726970685F6472697665DE
:10275000725C7372635C6E3332673435785F7573A5
:102760006172742E6300000049535F555341525407
:102770005F414C4C5F504552495048285553415297
:102780005478290049535F46554E4354494F4E41B2
:102790004C5F535441544528436D642900000000A8
:1027A00070B505460C4600262948854211D02948B7
:1027B00085420ED0284885420BD02848854208D053
:1027C0002748854205D02748854202D026488542C1
:1027D00000D105E040F2193224A133A000F03AFD07
:1027E000012C13D0802C11D0402C0FD0202C0DD0D8
:1027F000102C0BD0B4F5807F08D0B4F5007F05D045
:10280000082C03D0042C01D0022C00D105E040F2AA
:102810001A3216A12BA000F01DFDB4F5007F0FD1D8
:102820000B48854205D00B48854202D00A488542B4
:1028300000D105E040F21E320CA129A000F00AFDF3
:102840002888204008B1012600E00026304670BDEF
:10285000003801400044004000480040004C004067
:102860000050004000500140005401402E2E5C6694
:1028700069726D776172655C6E3332673435785F8B
:102880007374645F7065726970685F64726976659D
:10289000725C7372635C6E3332673435785F757364
:1028A0006172742E6300000049535F5553415254C6
:1028B0005F414C4C5F504552495048285553415256
:1028C0005478290049535F55534152545F464C4157
:1028D000472855534152545F464C41472900000058
:1028E00049535F55534152545F3132335F50455223
:1028F0004950482855534152547829002DE9F04752
:1029000004460D4600270026B046B1463F488442A3
:1029100011D03F4884420ED03E4884420BD03E48FE
:10292000844208D03D48844205D03D48844202D0CC
:102930003C48844200D105E040F26B323AA149A004
:1029400000F088FC282D20D040F2277085421CD052
:1029500040F22660854218D040F22550854214D0BE
:1029600040F22440854210D040F6460085420CD00B
:1029700040F66A10854208D0B5F5587F05D0B5F508
:10298000187F02D0B5F5B07F00D105E04FF45B723F
:1029900025A13BA000F05EFC40F66A1085420FD1F5
:1029A0001A48844205D01A48844202D01948844209
:1029B00000D105E04FF45C721BA138A000F04AFC86
:1029C000C5F3421805F01F06012000FA06F6B8F11B
:1029D000010F02D1A089064007E0B8F1020F02D131
:1029E000208A064001E0A08A06402F12012000FA4A
:1029F00007F7208807401EB117B14FF0010901E029
:102A00004FF000094846BDE8F0870000003801405B
:102A10000044004000480040004C0040005000408E
:102A200000500140005401402E2E5C6669726D77A3
:102A30006172655C6E3332673435785F7374645FDE
:102A40007065726970685F6472697665725C7372D2
:102A5000635C6E3332673435785F75736172742EE0
:102A60006300000049535F55534152545F414C4C41
:102A70005F504552495048285553415254782900D7
:102A800049535F55534152545F4745545F494E5433
:102A90002855534152545F494E54290049535F55BC
:102AA000534152545F3132335F50455249504828A8
:102AB00055534152547829002DE9F04786B0054618
:102AC0000C460026B24600BF00BF0027674885427B
:102AD00011D0674885420ED0664885420BD06648C3
:102AE000854208D06548854205D06548854202D0B8
:102AF0006448854200D104E0C42263A171A000F0C3
:102B0000A9FB206820B176492068884200D204E001
:102B1000C5225DA173A000F09DFBA08818B1A0881C
:102B2000B0F5805F00D104E0C62257A179A000F083
:102B300091FBE08858B1E088B0F5805F07D0E0886D
:102B4000B0F5005F03D0E088B0F5405F00D104E04D
:102B5000C7224DA17CA000F07DFB208938B12089DF
:102B6000B0F5806F03D02089B0F5C06F00D104E0CC
:102B7000C82245A180A000F06DFB60894FF6F3717B
:102B8000084010B9608900B104E0C9223EA185A0C7
:102B900000F060FBA08958B1A089B0F5807F07D014
:102BA000A089B0F5007F03D0A089B0F5407F00D1A7
:102BB00004E0CA2234A1854800F04CFBA08970B122
:102BC0002A48854205D02A48854202D029488542B4
:102BD00000D104E0CE222CA17DA000F03BFB2F46CB
:102BE0002E8A4CF6FF700640E08806432E82AE899E
:102BF0004EF6F3100640A0882189084361890843F6
:102C00000643AE81AE8A4FF6FF400640A0890643D8
:102C1000AE826846FEF702FC1448874205D0184889
:102C2000874202D01748874202D1DDF80CA001E0AC
:102C3000DDF808A00AEBCA0000EB0A102168890041
:102C4000B0FBF1F86420B8FBF0F006013009642114
:102C500001FB1089322000EB0910B0FBF1F000F00D
:102C60000F0006432E8106B0BDE8F0870038014012
:102C70000044004000480040004C0040005000402C
:102C800000500140005401402E2E5C6669726D7741
:102C90006172655C6E3332673435785F7374645F7C
:102CA0007065726970685F6472697665725C737270
:102CB000635C6E3332673435785F75736172742E7E
:102CC0006300000049535F55534152545F414C4CDF
:102CD0005F50455249504828555341525478290075
:102CE00021AA440049535F55534152545F42415514
:102CF00044524154452855534152545F496E6974BA
:102D00005374727563742D3E4261756452617465CB
:102D10002900000049535F55534152545F574F52A9
:102D2000445F4C454E4754482855534152545F49DF
:102D30006E69745374727563742D3E576F72644C70
:102D4000656E67746829000049535F5553415254BA
:102D50005F53544F50424954532855534152545F86
:102D6000496E69745374727563742D3E53746F7039
:102D7000426974732900000049535F55534152540E
:102D80005F5041524954592855534152545F496E3E
:102D900069745374727563742D3E506172697479ED
:102DA0002900000049535F55534152545F4D4F4431
:102DB000452855534152545F496E69745374727576
:102DC00063742D3E4D6F646529000000E4510008D6
:102DD00049535F55534152545F3132335F5045522E
:102DE00049504828555341525478290010B504469B
:102DF0000F48844211D00F4884420ED00E488442BE
:102E00000BD00E48844208D00D48844205D00D48AE
:102E1000844202D00C48844200D105E040F25122A5
:102E20000AA119A000F016FAA088C0F3080010BD8E
:102E3000003801400044004000480040004C004081
:102E40000050004000500140005401402E2E5C66AE
:102E500069726D776172655C6E3332673435785FA5
:102E60007374645F7065726970685F6472697665B7
:102E7000725C7372635C6E3332673435785F75737E
:102E80006172742E6300000049535F5553415254E0
:102E90005F414C4C5F504552495048285553415270
:102EA0005478290070B504460D461548844211D067
:102EB000144884420ED0144884420BD013488442F4
:102EC00008D01348844205D01248844202D01248E8
:102ED000844200D105E04FF4107210A11EA000F052
:102EE000B9F9B5F5007F00DA05E040F241220BA107
:102EF00020A000F0AFF9C5F30800A08070BD00006D
:102F0000003801400044004000480040004C0040B0
:102F10000050004000500140005401402E2E5C66DD
:102F200069726D776172655C6E3332673435785FD4
:102F30007374645F7065726970685F6472697665E6
:102F4000725C7372635C6E3332673435785F7573AD
:102F50006172742E6300000049535F55534152540F
:102F60005F414C4C5F50455249504828555341529F
:102F70005478290049535F55534152545F4441549A
:102F8000412844617461290000BFFEE710B50120AB
:102F900002490870042000F017F810BD84000020DA
:102FA00010B5002408E00020064941F8340001EB88
:102FB000C4014860601CC4B20A2CF4DBFEF7CAFFEF
:102FC00010BD0000340000200021034A42F83010F8
:102FD00002EBC0025160704734000020034B43F8FD
:102FE000301003EBC0035A6070470000340000202B
:102FF00010B5002419E00E4850F8340098B10C4880
:1030000050F83400401E0A4941F83400084600EBED
:10301000C400406838B1084650F8340018B901EBD4
:10302000C40148688047601CC4B20A2CE3DB10BDB1
:10303000340000200FB4054B10B503A9044A0298D0
:1030400000F02CF810BC5DF814FB0000A932000859
:103050001000002010B5002804DB0A07130E054AF3
:10306000135406E00A07140E034A00F00F031B1F57
:10307000D45410BD00E400E018ED00E002E008C800
:10308000121F08C1002AFAD170477047002001E0E2
:1030900001C1121F002AFBD1704700002DE9FF4F2C
:1030A0008BB09A460F460546002606E025280BD031
:1030B00052460D9990476D1C761C28780028F5D152
:1030C0000FB03046BDE8F08F0024A04601226049D1
:1030D00000E0044315F8013F203B02FA03F00842E8
:1030E000F7D128782E2817D115F8010F44F00404E1
:1030F0002A280ED06FF02F022878A0F1300109297C
:103100000AD808EB880102EB410100EB01086D1CB5
:10311000F2E757F8048B6D1C287869283ED006DC4E
:103120000028CDD063280BD0642804D136E0732862
:1031300010D075284BD052460D999047761C85E0EB
:1031400017F8040B8DF8000000208DF80100E94607
:10315000012003E057F8049B4FF0FF3061074FF068
:10316000000401D40AE0641C44450DDA8442FADB11
:1031700019F804100029F6D106E0641C8442FCDB37
:1031800019F804100029F8D1264404E019F8010BBD
:1031900052460D999047641EF8D257E001CF4FF088
:1031A0000A0B002802DA40422D2102E0210504D555
:1031B0002B218DF82410012103E0E10705D0202107
:1031C000F7E70DF1200908910CE00021F9E701CFA4
:1031D0004FF00A0BF9E75946FCF7FAFF01F130020C
:1031E00009F8012D0028F6D1ADEB090000F1200B04
:1031F000600701D44FF00108D84502DDA8EB0B00B1
:1032000000E000208046002406E009A85246005D48
:103210000D999047641C761C08988442F5DB04E005
:10322000302052460D999047761CB8F10001A8F164
:103230000108F5DC05E019F8010B52460D9990479D
:10324000761CBBF10001ABF1010BF4DC6D1C34E723
:103250000928010004460D46164633462A462146F3
:1032600002A0FFF7E7FE00BFFEE700006173736591
:103270007274696F6E206661696C65643A206025BE
:1032800073602061742025733A25640000B50246FE
:10329000002300BF04E046F2A810FCF7F4FF5B1C1B
:1032A0009342F8D300BD000070B504460D46E1B26C
:1032B0000548FFF7F7FD00BF40210348FFF770FA0C
:1032C0000028F9D0204670BD0050004010B586B0EF
:1032D0006846FEF7A3F8012140F2FD10FEF738F82A
:1032E00001210804FDF768FF4FF44070FDF7CAFEA6
:1032F0000420FEF79BF964210198B0FBF1F4601EF5
:10330000B0F1807F00D30FE0601E4FF0E0214861F4
:103310000F214FF0FF30FFF79DFE00204FF0E0211E
:1033200088610720086100BF0021481EFFF792FE58
:10333000FDF703FE06B010BD10B586B0FDF7FDFD2C
:1033400001213120FEF704F801210805FDF79AFF5D
:103350004FF48050ADF8140018208DF817000320AA
:103360008DF8160005A91748FDF772FB0420ADF88B
:1033700014008DF8170005A91348FDF769FB4FF4F9
:10338000E13001900020ADF80800ADF80A00ADF87A
:103390000C00ADF810000820ADF80E0001A90B4894
:1033A000FFF78AFB012240F225510848FFF790F809
:1033B00001210648FFF776F904480088C4B206B038
:1033C00010BD0000001001400014014000500040FA
:1033D00008B52020ADF8000010208DF80300012072
:1033E0008DF8020069462048FDF732FB20211E4877
:1033F000FDF7DAFC1D4A4FF4FA710120FFF7EEFDEC
:103400008020ADF8000010208DF8030001208DF819
:10341000020069461448FDF71BFB80211248FDF7A6
:10342000C3FC1020ADF800008DF8030001208DF8DA
:10343000020069460E48FDF70BFB10210C48FDF712
:10344000B3FC0120ADF8000010208DF8030001202E
:103450008DF8020069460748FDF7FAFA0121054890
:10346000FDF7A2FC08BD000000080140190F00088C
:1034700000100140000C01400EB5FFF727FFFCF7DC
:10348000E7FE0FA0FFF7D6FD4FF6FF704FF4A073D5
:10349000F022002100900846FEF795F90020102147
:1034A0004FF6FF724FF47843CDE90021029008A255
:1034B0000146FEF73BFB01E0FCF7DCFEFCE7000009
:1034C00068656C6C6F20776F726C640D0A00000089
:1034D00069206D69737320796F750000000000002A
:1034E000010203040102030406070809010204069D
:1034F000080A0C102020202020202020010002009B
:103500000400060008000A000C0010002000400023
:103510008000000100010001000100010000000026
:103520000000000000000000000004040404040087
:103530000004000014140A00000000000000000055
:1035400000000A0A1F0A0A1F0A0A000000040E15DA
:1035500005060C14150E0400000012150D152E2C76
:103560002A1200000000040A0A3615152916000068
:103570000202010000000000000000001008080422
:1035800004040404080810000204040808080808D9
:103590000404020000000004150E0E1504000000D3
:1035A00000000008083E08080000000000000000BD
:1035B000000000000202010000000000003F0000C7
:1035C00000000000000000000000000000020000F9
:1035D00000201010080804040202010000000E116F
:1035E00011111111110E000000000406040404045E
:1035F000040E000000000E1111080402011F00005B
:1036000000000E11100C1010110E00000000080C2C
:103610000C0A091F081C000000001F01010F1110F7
:10362000110E000000000C12010D1311110E00000C
:1036300000001E10080804040404000000000E111D
:10364000110E1111110E000000000E1111191610AB
:103650000906000000000000040000000004000053
:103660000000000000040000000404000000100836
:103670000402020408100000000000003F003F00A8
:1036800000000000000002040810100804020000FE
:1036900000000E11110804040004000000001C22A8
:1036A000292D2D1D221C0000000004040C0A0A1EF6
:1036B0001233000000000F12120E1212120F00003F
:1036C00000001E1101010101110E000000000F1287
:1036D00012121212120F000000001F120A0E0A022C
:1036E000121F000000001F120A0E0A02020700004B
:1036F00000001C1201013911120C000000003312ED
:10370000121E12121233000000001F0404040404ED
:10371000041F000000003E08080808080808090700
:10372000000037120A060A121237000000000702D2
:1037300002020202223F000000003B1B1B1B15156A
:103740001535000000003B1216161A1A1217000059
:1037500000000E1111111111110E000000000F12C6
:10376000120E02020207000000000E1111111117C3
:10377000190E180000000F12120E0A121237000064
:1037800000001E1101060810110F000000001F1597
:1037900004040404040E000000003312121212127A
:1037A000120C000000003312120A0A0C040400007C
:1037B0000000151515150E0A0A0A000000001B0A64
:1037C0000A04040A0A1B000000001B0A0A0A040477
:1037D000040E000000001F0908040402121F00006C
:1037E0001C0404040404040404041C000002020475
:1037F00004040808081010000E0808080808080843
:1038000008080E00040A000000000000000000008C
:1038100000000000000000000000003F0204000063
:10382000000000000000000000000000000C121C5E
:10383000123C000000030202020E1212120E0000DF
:1038400000000000001C1202120C000000181010F2
:10385000101C1212123C000000000000000C121E8E
:10386000021C000000182404041E0404041E0000AE
:1038700000000000003C120C021C221C000302028B
:10388000020E1212123700000004040000060404A5
:10389000040E000000080800000C080808080807CB
:1038A00000030202021A0A060A13000000070404B9
:1038B00004040404041F000000000000000F15159C
:1038C0001515000000000000000F12121237000052
:1038D00000000000000C1212120C0000000000009A
:1038E000000F1212120E020700000000001C12123C
:1038F000121C103800000000001B06020207000026
:1039000000000000001E020C101E00000000000459
:10391000041E0404041C000000000000001B12121E
:10392000123C000000000000001B0A0A0404000012
:10393000000000000015150E0A0A0000000000003B
:10394000001B0A040A1B00000000000000331212D2
:103950000C08040300000000001E0804041E000000
:1039600018080808080C08080808180008080808BB
:1039700008080808080808080604040404080404E1
:10398000040406001609000000000000000000000A
:103990000000000000000000000000000000000027
:1039A00000000008080808080808000018180000AF
:1039B00000486C241200000000000000000000001D
:1039C0000000002424247F1212127F121212000021
:1039D0000000081C2A2A0A0C1828282A2A1C080871
:1039E00000000022251515152A58545454220000B1
:1039F0000000000C1212120A76252911916E0000A7
:103A000000060604030000000000000000000000A3
:103A10000040201010080808080808101020400076
:103A2000000204080810101010101008080402000A
:103A30000000000008086B1C1C6B08080000000058
:103A400000000000080808087F08080808000000B7
:103A50000000000000000000000000000606040353
:103A60000000000000000000FE0000000000000058
:103A7000000000000000000000000000060600003A
:103A800000008040402020101008080404020200BA
:103A900000000018244242424242424224180000E0
:103AA000000000080E08080808080808083E000082
:103AB0000000003C4242422020100804427E0000E8
:103AC0000000003C4242201820404042221C0000DE
:103AD000000000203028242422227E2020780000AC
:103AE0000000007E0202021A26404042221C000012
:103AF000000000382402021A264242422418000024
:103B00000000007E222210100808080808080000A3
:103B10000000003C4242422418244242423C000041
:103B2000000000182442424264584040241C000017
:103B30000000000000001818000000001818000025
:103B40000000000000000008000000000008080459
:103B5000000000402010080402040810204000006B
:103B60000000000000007F0000007F000000000057
:103B70000000000204081020402010080402000089
:103B80000000003C4242464020101000181800007F
:103B90000000001C225A555555552D42221C00008C
:103BA0000000000808181414243C224242E70000D8
:103BB0000000001F2222221E22424242221F000039
:103BC0000000007C4242010101010142221C000070
:103BD0000000001F2242424242424242221F000095
:103BE0000000003F4212121E12120242423F000029
:103BF0000000003F4212121E1212020202070000D1
:103C00000000003C2222010101712122221C00003F
:103C1000000000E7424242427E42424242E7000048
:103C20000000003E0808080808080808083E0000D0
:103C30000000007C10101010101010101010110F48
:103C40000000007722120A0E0A12122222770000C8
:103C5000000000070202020202020202427F00008C
:103C600000000077363636362A2A2A2A2A6B0000C8
:103C7000000000E346464A4A525252626247000040
:103C80000000001C2241414141414141221C0000F1
:103C90000000003F424242423E0202020207000090
:103CA0000000001C2241414141414D53321C600043
:103CB0000000003F4242423E1212222242C7000050
:103CC0000000007C4242020418204042423E0000B4
:103CD0000000007F4908080808080808081C0000C0
:103CE000000000E74242424242424242423C00005F
:103CF000000000E74242222424141418080800009F
:103D00000000006B494949495555362222220000DE
:103D1000000000E7422424181818242442E7000079
:103D2000000000772222141408080808081C00006C
:103D30000000007E2120101008040442423F0000D1
:103D40000078080808080808080808080808780023
:103D5000000002020404080808101020202040403F
:103D6000001E1010101010101010101010101E0057
:103D700000384400000000000000000000000000C7
:103D8000000000000000000000000000000000FF34
:103D90000006080000000000000000000000000015
:103DA000000000000000003C4278444242FC000059
:103DB000000000030202021A26424242261A0000B4
:103DC00000000000000000384402020244380000F5
:103DD00000000060404040784442424264D8000005
:103DE000000000000000003C427E0202423C000055
:103DF000000000F08808087E08080808083E000057
:103E0000000000000000007C22221C023C42423CD8
:103E1000000000030202023A4642424242E700002A
:103E20000000000C0C00000E08080808083E000006
:103E30000000003030000038202020202020221EEA
:103E40000000000302020272120A1612227700001A
:103E50000000000E0808080808080808083E0000CE
:103E6000000000000000007F9292929292B7000042
:103E7000000000000000003B4642424242E70000D2
:103E8000000000000000003C42424242423C000070
:103E9000000000000000001B26424242221E0207D2
:103EA000000000000000007844424242447840E0B4
:103EB00000000000000000774C040404041F000010
:103EC000000000000000007C42023C40423E000036
:103ED000000000000008083E08080808083000003C
:103EE00000000000000000634242424262DC000029
:103EF00000000000000000E742242414080800002D
:103F000000000000000000EB494955552222000046
:103F1000000000000000007624181818246E00002D
:103F200000000000000000E74224241418080807DD
:103F3000000000000000007E22100808447E0000FF
:103F400000C0202020202010202020202020C00081
:103F50001010101010101010101010101010101061
:103F600000060808080808100808080808080600DD
:103F70000C32C20000000000000000000000000041
:103F80000000000000000000000000000000000031
:103F90000000000000000000000000000000000021
:103FA0000000000000000000000000000000000011
:103FB0000000000000000000600060006000600081
:103FC0006000600060004000200020002000000031
:103FD00000000000600060006000000000000000C1
:103FE000000000006006600630039801880044006D
:103FF00000000000000000000000000000000000C1
:1040000000000000000000000000000000000000B0
:104010000000000000000000100210021002100258
:10402000FE07FE0708020801080108010801FE0753
:10403000FE07040104010401040100000000000067
:1040400000000000000040004000F00158034C0355
:10405000CC034C0058007000E000C001C0014003D8
:104060004C035C034C034801F0004000400000009A
:1040700000000000000000000E010A019100910004
:104080009100510051003A00AE03A00250045004C8
:10409000480448044804840284030000000000002F
:1040A000000000000000000038006C006C006C0094
:1040B0006C006C002C0098071C011A0133013301BD
:1040C0006301E300C308C6093C07000000000000CC
:1040D000000000000C001C0010001000080004008C
:1040E00000000000000000000000000000000000D0
:1040F00000000000000000000000000000000000C0
:104100000000000000040002000180008000400068
:10411000400020002000200020002000200020007F
:104120004000400080008000000100020004000008
:104130000000000002000400080010001000200031
:10414000200040004000400040004000400040008F
:1041500020002000100010000800040002000000F1
:104160000000000000000000000000004000C0004F
:104170004000460C4E0FD001F0015E0F460C40008F
:1041800040004000000000000000000000000000AF
:1041900000000000000000000000000000004000DF
:1041A0004000400040004000FE0F40004000400042
:1041B000400040000000000000000000000000007F
:1041C00000000000000000000000000000000000EF
:1041D00000000000000000000000000000000000DF
:1041E000000000000C001C0010001000080004007B
:1041F00000000000000000000000000000000000BF
:104200000000000000000000FE07000000000000A9
:10421000000000000000000000000000000000009E
:10422000000000000000000000000000000000008E
:10423000000000000000000000000000000000007E
:10424000000000001C001C001C000000000000001A
:10425000000000000004000600020003000100014D
:10426000800080004000400060002000200010001E
:104270001000080008000C00040006000200000006
:1042800000000000000000000000F00098010C0396
:104290000C030606060606060606060606060606BB
:1042A00006060C030C039801F0000000000000005B
:1042B0000000000000000000000040007C006000E2
:1042C00060006000600060006000600060006000EE
:1042D0006000600060006000FC030000000000005F
:1042E00000000000000000000000F800840102034C
:1042F00006030603000300018001C00060002000E7
:104300001000080204020602FE0300000000000084
:10431000000000000000000000007800C6008601D8
:10432000860180018001C00070008001000100034F
:104330000003060306038601F800000000000000E9
:104340000000000000000000000080018001C001AA
:10435000A001A00190018801880184018201FE0F63
:104360008001800180018001E00700000000000062
:1043700000000000000000000000FC030400040036
:10438000040004000400F4008C0104030003000393
:104390000603060382018401F8000000000000000B
:1043A00000000000000000000000E00118030C0302
:1043B0000C0004000600E60116030E0606060606BB
:1043C000060604060C021803F000000000000000BE
:1043D00000000000000000000000F8070C060402C6
:1043E0000401000100018000800040004000400006
:1043F00060006000600060006000000000000000DD
:1044000000000000000000000000F8010C03060698
:10441000060606060C021C03F000C8010C03060683
:104420000606060606060C03F00100000000000068
:1044300000000000000000000000F0000C010C0370
:10444000060206060606060606078C06780600061D
:10445000000300030C018C01780000000000000044
:10446000000000000000000000000000000000004C
:1044700000000000E000E000E0000000000000009C
:1044800000000000E000E000E0000000000000008C
:10449000000000000000000000000000000000001C
:1044A000000000006000600000000000000000004C
:1044B00000000000000060006000400020002000BC
:1044C0000000000000000000000400020001800065
:1044D0004000200010000800040008001000200028
:1044E0004000800000010002000400000000000005
:1044F00000000000000000000000000000000000BC
:1045000000000000FE07000000000000FE070000A1
:10451000000000000000000000000000000000009B
:10452000000000000000000004000800100020004F
:104530004000800000010002000400020001800031
:1045400040002000100008000400000000000000EF
:1045500000000000000000000000E0031806040C4A
:10456000040C0C0C0C0C00078001400040004000C3
:1045700000000000E000E000E0000000000000009B
:104580000000000000000000E00018030C02CC0551
:1045900064056605A605B604B604B604B604B602FC
:1045A000E4010C040C021803F000000000000000FD
:1045B00000000000000000000000600060005000EB
:1045C000D00090009000880088010801F8010403E1
:1045D00004030402020202060F0F000000000000A4
:1045E00000000000000000000000FE008C030C032F
:1045F0000C030C030C038C01FC000C030C020C06D6
:104600000C060C060C060C03FE0100000000000066
:1046100000000000000000000000E00318030C068A
:104620000C0404040600060006000600060006004E
:1046300006040C040C021803F00000000000000047
:10464000000000000000000000007F008C010C034F
:104650000C030C060C060C060C060C060C060C06CD
:104660000C060C030C038C017F000000000000000E
:1046700000000000000000000000FF030603060425
:104680000604060086008600FE008600860086007E
:104690000600060406040602FF03000000000000F6
:1046A00000000000000000000000FF0306030604F5
:1046B0000604060086008600FE008600860086004E
:1046C00006000600060006001F00000000000000B3
:1046D00000000000000000000000F00018010C02C3
:1046E0000C0204020600060006000600C60F0603C0
:1046F00006030C030C031803F00000000000000088
:10470000000000000000000000000F0F0606060673
:104710000606060606060606FE0706060606060640
:1047200006060606060606060F0F0000000000003B
:1047300000000000000000000000FC0360006000BA
:104740006000600060006000600060006000600069
:104750006000600060006000FC03000000000000DA
:1047600000000000000000000000F807C000C000CA
:10477000C000C000C000C000C000C000C000C00039
:10478000C000C000C000C000C000C60066003C0001
:1047900000000000000000000000CF038601C600FA
:1047A00046002600160036002E006E004600C600A9
:1047B00086008601060106038F0700000000000046
:1047C000000000000000000000001F0006000600BE
:1047D00006000600060006000600060006000600A9
:1047E0000600060406040602FF03000000000000A5
:1047F0000000000000000000000007078603860399
:104800008E038E034E034E034A035A035A033A03A0
:104810003203320332031203870700000000000056
:10482000000000000000000000008E0F0C021C02BF
:104830001C0234023402640264024402C402840290
:1048400084038403040304031F020000000000002B
:1048500000000000000000000000F00098010C03C0
:104860000C020606060606060606060606060606E6
:1048700006060C020C039801F00000000000000086
:1048800000000000000000000000FF000603060614
:1048900006060606060606068603FE000600060055
:1048A00006000600060006001F00000000000000D1
:1048B00000000000000000000000F00098010C0360
:1048C0000C02060606060606060606060606060686
:1048D00076064C02CC039801F0008007000300002C
:1048E00000000000000000000000FF0106030606B3
:1048F0000606060606060603FE004600C6008600FB
:1049000086010603060306060F0E000000000000E5
:1049100000000000000000000000F8020C03060286
:10492000060206000E003C00F800E00380030007CA
:104930000206020606060C03F0010000000000005B
:1049400000000000000000000000FE076204610893
:10495000610860006000600060006000600060004E
:104960006000600060006000F801000000000000CE
:10497000000000000000000000001E070C020C02F6
:104980000C020C020C020C020C020C020C020C02B7
:104990000C020C020C021801F000000000000000E4
:1049A000000000000000000000000F0706020401E4
:1049B00004010C010C018800880098009800500048
:1049C00050007000300020002000000000000000B7
:1049D00000000000000000000000F70E6204420426
:1049E0004604460464026402E402E4029C029C0160
:1049F00098019801880188008800000000000000EC
:104A0000000000000000000000009E070C010801EB
:104A100018019000B0006000200060006000D0002D
:104A200090008801080104038E07000000000000C8
:104A3000000000000000000000000F0F0604040248
:104A40000C0208011801B800B0007000600060009E
:104A50006000600060006000F801000000000000DD
:104A600000000000000000000000FC070C0206032C
:104A70000201800180004000400020002000100062
:104A8000180008040C040402FE03000000000000EB
:104A900000000000E0032000200020002000200093
:104AA0002000200020002000200020002000200006
:104AB000200020002000200020002000E003000053
:104AC00000000000000000000400040008000800CE
:104AD0001000100010002000200040004000C00026
:104AE00080008000000100010002000200020004BA
:104AF000000000007C0040004000400040004000FA
:104B000040004000400040004000400040004000A5
:104B10004000400040004000400040007C00000099
:104B2000000060009000080100000000000000008C
:104B30000000000000000000000000000000000075
:104B40000000000000000000000000000000000065
:104B50000000000000000000000000000000000055
:104B60000000000000000000000000000000000045
:104B70000000000000000000000000000000FF0F27
:104B800000000000180060000000000000000000AD
:104B90000000000000000000000000000000000015
:104BA0000000000000000000000000000000000005
:104BB00000000000000000000000000000000000F5
:104BC00000000000F0010C030C030003E0031C03D1
:104BD0000E03060306038E0B7C0E0000000000008F
:104BE000000000000000000008000E000C000C0097
:104BF0000C000C00CC013C031C060C060C060C0639
:104C00000C060C060C021C03E4010000000000006E
:104C10000000000000000000000000000000000094
:104C200000000000F0008C018C01860106000600E7
:104C3000060006020C020C01F0000000000000005B
:104C400000000000000000000002C0030003000399
:104C50000003000378038C030C030603060306031A
:104C60000603060304038C0778010000000000001F
:104C70000000000000000000000000000000000034
:104C800000000000E001180308020C060C06FC07F7
:104C90000C000C0018041802E001000000000000E5
:104CA00000000000000000000000C00360063006A5
:104CB00030003000FE0130003000300030003000A5
:104CC0003000300030003000FC0100000000000027
:104CD00000000000000000000000000000000000D4
:104CE00000000000F007D8068C018C018C019801AF
:104CF000F8000C00FC00CC03060306038E03F8004A
:104D0000000000000000000008000E000C000C0075
:104D10000C000C00EC011C030C030C030C030C0333
:104D20000C030C030C030C039E07000000000000A2
:104D300000000000000000000000600060000000B3
:104D4000000040007C0060006000600060006000C7
:104D50006000600060006000FC03000000000000D4
:104D600000000000000000000000C001C0010000C1
:104D700000000001F00180018001800180018001BC
:104D8000800180018001800180018001CC007C00D5
:104D9000000000000000000008000E000C000C00E5
:104DA0000C000C008C038C008C004C006C005C0030
:104DB0008C008C010C010C039E0700000000000019
:104DC000000000000000000040007C006000600067
:104DD00060006000600060006000600060006000D3
:104DE0006000600060006000FC0300000000000044
:104DF00000000000000000000000000000000000B3
:104E0000000000003707EE066606660666066606C0
:104E10006606660666066606FF0F000000000000D4
:104E20000000000000000000000000000000000082
:104E300000000000EE011C030C030C030C030C0328
:104E40000C030C030C030C039E0700000000000081
:104E50000000000000000000000000000000000052
:104E600000000000F00098010C0306060606060686
:104E7000060606060C030C03F0000000000000000C
:104E80000000000000000000000000000000000022
:104E900000000000EE011C030C060C060C060C06BC
:104EA0000C060C060C031C03EC010C000C003E006D
:104EB00000000000000000000000000000000000F2
:104EC0000000000078028C030C03060306030603AF
:104ED0000603060304038C03780300030003C007E2
:104EE00000000000000000000000000000000000C2
:104EF000000000009F03580638061800180018002C
:104F00001800180018001800FF0000000000000042
:104F10000000000000000000000000000000000091
:104F200000000000F0031C030C020C023800F0002B
:104F3000C003040304038C03FC0100000000000014
:104F40000000000000000000000000002000200021
:104F500030003000FE013000300030003000300002
:104F60003000300030023002E0010000000000009C
:104F70000000000000000000000000000000000031
:104F8000000008028E030C030C030C030C030C033B
:104F90000C030C030C039C077801000000000000C8
:104FA0000000000000000000000000000000000001
:104FB000000000001E070C02080108011801900003
:104FC000B000B000600060002000000000000000A1
:104FD00000000000000000000000000000000000D1
:104FE00000000000F70E6204460464026402EC0252
:104FF0009C01980198019801080000000000000041
:1050000000000000000000000000000000000000A0
:1050100000000000BC0718011001B0006000600033
:10502000E0009000080108039E0700000000000057
:105030000000000000000000000000000000000070
:10504000000000009E070801080108019000900080
:10505000B0006000600060002000200024001C0000
:105060000000000000000000000000000000000040
:1050700000000000FC018401C40044006000200026
:105080003000180208020C03FC01000000000000C0
:10509000000000000003800080008000800080008D
:1050A00080008000800040002000400080008000E0
:1050B00080008000800080008000800000030000ED
:1050C00040004000400040004000400040004000E0
:1050D00040004000400040004000400040004000D0
:1050E00040004000400040004000400040004000C0
:1050F000000000000C001000100010001000100054
:1051000010001000100020004000200010001000CF
:105110001000100010001000100010000C00000023
:1051200000001C002204C2048003000000000000F4
:10513000000000000000000000000000000000006F
:10514000000000000000000000000000000000005F
:1051500049535F4E5649435F5355425F5052494F42
:1051600052495459284E5649435F496E69745374E5
:10517000727563742D3E4E5649435F4952514368E0
:10518000616E6E656C5375625072696F7269747985
:105190002900000049535F4E5649435F5052454530
:1051A0004D5054494F4E5F5052494F52495459281F
:1051B0004E5649435F496E69745374727563742D1A
:1051C0003E4E5649435F4952514368616E6E656C6D
:1051D000507265656D7074696F6E5072696F726937
:1051E0007479290049535F55534152545F484152E5
:1051F00044574152455F464C4F575F434F4E5452C0
:105200004F4C2855534152545F496E697453747220
:105210007563742D3E4861726477617265466C6F88
:1052200077436F6E74726F6C290000004C52000857
:1052300000000020140000007C30000860520008CC
:1052400014000020C4F400008C30000800E1F505D3
:10525000000000000000000001000000000000004D
:040000050800019955
:00000001FF
