:020000040100F9
:1000000050080020E5000001D52C0001D72C00018C
:1000100000000000000000000000000000000000E0
:10002000000000000000000000000000DB2C0001C8
:100030000000000000000000DD2C0001DF2C0001AA
:10004000F7000001F7000001F7000001F7000001D0
:10005000F7000001F7000001F7000001F7000001C0
:10006000F7000001F7000001F7000001F7000001B0
:10007000F7000001F7000001F7000001F7000001A0
:10008000F7000001F7000001F7000001F700000190
:10009000F7000001F7000001F7000001F700000180
:1000A000F7000001F7000001F7000001F700000170
:1000B000F7000001F7000001F7000001F700000160
:1000C0000348854602F034FE00480047532C0001E7
:1000D0005008002040BA7047C0BA70470138FDD1BF
:1000E000704700000448804704480047FEE7FEE7E9
:1000F000FEE7FEE7FEE7FEE7D5020001C1000001D2
:10010000F0B5D1B004460D4600BFEFF310800646AF
:1001100004AF0137FF2241329F49684602F0F6FDE5
:10012000012080F3108800BF2A4621460003B8470B
:10013000304680F3108800BF51B0F0BD10B597482D
:100140000069401C002803D094480069002803D1AE
:1001500034219248FFF7D4FF90480069401C0028E2
:1001600003D08E480069002801D1002010BD8B48C3
:10017000FCE710B589480069401C002803D0874877
:100180000069002803D134218448FFF7B9FF834870
:100190000069401C002803D080480069002801D174
:1001A000002010BD7D482430FBE710B57B48006976
:1001B000401C002803D079480069002803D134216D
:1001C0007648FFF79DFF75480069401C002803D062
:1001D00072480069002801D1002010BD6F48293005
:1001E000FBE7F1B588B0002007907D20C0000690A5
:1001F0000124A4020020059004907F200390684809
:1002000000684004450E00260020029065490898C9
:10021000884207D1624800686101884360490860EC
:10022000CC1408E05E4800680121C90308435C491A
:1002300008600324A40200BF594800687F21090216
:100240008843019028020199084355490860052018
:10025000FFF744FF10E00120FFF740FF5048406BDC
:1002600002210840002800D007E00298411C0291BA
:100270000699884200D900E0EDE700BF4848C06B0E
:1002800086B2A64202D9301B059001E0A01B059062
:10029000A64201D3039500E0049503990498401801
:1002A000C005070EAF4200D104E03D46079905980E
:1002B0008842C1D800BF3A484068400840003849E9
:1002C000486000BF36484068042108400028F9D142
:1002D00009B0F0BD10B53248C069012109070843D3
:1002E0002F49C861812000062F4908632F484861C3
:1002F0002F4808622F4800680321890388432D494D
:10030000086034212548FFF7FBFE24480069401CA3
:10031000002803D021480069002817D120484068F0
:100320000121090408431E49486008464068072126
:10033000090288431A49486008464068091508437D
:10034000174948601C48FFF74CFF18E016488069C1
:100350004409640111480078C006C00E04431248E5
:1003600084610F48006A154908400D490862084633
:10037000006A0A49C968090208430949086210BDB0
:1003800008480F490860704710B504466B21614367
:100390000846FFF7A3FE10BDC02D00010800002095
:1003A000001002400090D003007000400F080000D1
:1003B00018000200001001400048E801FF00F8FFAB
:1003C0000000002010B50446FB48844202D0FB48E0
:1003D000844200D104E06922F949FAA002F06BFCE2
:1003E000F548844208D10121042001F0EDFA0021F2
:1003F000042001F0E9FA0CE0F048844208D1012120
:10040000082001F0E1FA0021082001F0DDFA00E007
:1004100010BD00BFFCE7F8B504460E4600250027D6
:10042000E548844202D0E548844200D104E08722B6
:10043000E349E4A002F03FFCDF48844207D17006A4
:10044000400E002803D07F2030437F280BD0DB48AC
:10045000844209D1B004800C002805D0E048304324
:10046000DF49884200D104E08822D549DDA002F0AE
:1004700022FC34E00120A84030400746002F2DD058
:1004800020686A000321914008432060082028402A
:10049000002807D0606A6907CA0E0F2191400843FF
:1004A000606206E0206A6907CA0E0F219140084386
:1004B000206260680121A94088436060E0686A00AA
:1004C000032191408843E060A0680121A9400843CE
:1004D000A060E06A0121A9408843E0626D1C3046BB
:1004E000E8400028C6D1F8BD10B50121084601F04A
:1004F0006BFA0021012001F067FA10BDF8B506463D
:100500000C460027002000900025AB48864202D010
:10051000AA48864200D104E0C422A949A9A002F059
:10052000CAFBA548864209D120784006400E002823
:1005300004D07F21206808437F280CD09F48864242
:100540000AD120888004800C002805D0A4492068A6
:100550000843884200D104E0C5229949AAA002F0CC
:10056000AAFB60690F2800D804E0C6229449B3A012
:1005700002F0A1FB6068002826D06068012823D023
:100580006068112820D0606802281DD06068122899
:100590001AD0B5496068884216D0B449606888426C
:1005A00012D0B349606888420ED0B2496068884270
:1005B0000AD0B1496068884206D0B0496068884274
:1005C00002D06068032800D104E0C7227C49ACA0B7
:1005D00002F071FBA068002805D0A068012802D0B5
:1005E000A068022800D104E0C8227549AFA002F03B
:1005F00062FBE068002802D0E068012800D104E036
:10060000C9226F49B4A002F056FB2069112802D01C
:100610002069002800D104E0CA226949B9A002F08B
:100620004AFB80E00121B940206808400090009812
:10063000002877D06068022802D06068122829D18B
:1006400060690F2800D804E0D8225D497BA002F041
:1006500032FB0820384000280ED0756A7807C10E9A
:100660000F208840294681430D467907C90E6069ED
:100670008840054375620DE0356A7807C10E0F208A
:100680008840294681430D467907C90E6069884034
:10069000054335626068012808D06068112805D0DC
:1006A0006068022802D0606812280BD175680120AA
:1006B000B840294681430D462079C006C00FB84096
:1006C00005437560356879000320884029468143D9
:1006D0000D4620798007800F7900884005433560FA
:1006E000F568790003208840294681430D4679004A
:1006F000A06888400543F560B5680120B8402946E8
:1007000081430D46E068B8400543B560F56A79005D
:1007100001208840294681430D46790020698840A0
:100720000543F5627F1C2068F840002800D079E777
:10073000F8BD2B4901600F214161002141608160BA
:100740000121C16000210161704770B504460D466A
:1007500000261948844202D01848844200D105E09E
:10076000FF223032164917A002F0A5FA124884423F
:1007700007D16806400E002803D07F2028437F2839
:100780000BD00E48844209D1A804800C002805D063
:10079000134828431249884200D105E0FF22313234
:1007A000074910A002F087FA20692840002801D0EC
:1007B0000126C0E0BEE0000000080140000C01403E
:1007C0000C2F000149535F4750494F5F414C4C5F2C
:1007D000504552495048284750494F782900000059
:1007E000FF3F000049535F4750494F5F50494E5FFC
:1007F000415641494C41424C45284750494F782C7D
:100800002050696E2900000049535F4750494F5FEF
:1008100050494E5F415641494C41424C4528475052
:10082000494F782C204750494F5F496E6974537483
:10083000727563742D3E50696E29000049535F47FD
:1008400050494F5F4146284750494F5F496E697490
:100850005374727563742D3E4750494F5F416C74F9
:1008600065726E617465290000001110000021108E
:100870000000311000201310000012100000321090
:1008800049535F4750494F5F4D4F444528475049B2
:100890004F5F496E69745374727563742D3E47508F
:1008A000494F5F4D6F6465290000000049535F4761
:1008B00050494F5F50554C4C284750494F5F496E47
:1008C00069745374727563742D3E4750494F5F507D
:1008D000756C6C290000000049535F4750494F5F19
:1008E0005350454544284750494F5F496E697453FA
:1008F00074727563742D3E4750494F5F5370656540
:100900006429000049535F4750494F5F4355525295
:10091000454E54284750494F5F496E69745374726D
:100920007563742D3E4750494F5F43757272656E13
:10093000742900000026304670BD10B50446F94801
:10094000844202D0F848844200D105E0FF224632BA
:10095000F649F74802F0AFF9206980B210BD70B5D2
:1009600004460D460026EF48844202D0EE488442F9
:1009700000D105E0FF225732EC49ED4802F09BF927
:10098000E848844207D16806400E002803D07F2043
:1009900028437F280BD0E448844209D1A804800C66
:1009A000002805D0E3482843E249884200D106E008
:1009B000FF225832DD49DE48203002F07CF96069C0
:1009C0002840002801D0012600E00026304670BDF6
:1009D00010B50446D348844202D0D348844200D1A3
:1009E00005E0FF226D32D149D14802F064F9606917
:1009F00080B210BD70B504460D46CA48844202D08C
:100A0000C948844200D105E0FF227B32C749C8486B
:100A100002F051F9C348844207D16806400E00280D
:100A200003D07F2028437F280BD0BF48844209D1C0
:100A3000A804800C002805D0BE482843BD49884240
:100A400000D106E0FF227C32B849B948203002F0DC
:100A500032F9A56170BD70B504460D46B1488442B7
:100A600002D0B148844200D105E0FF228A32AF496A
:100A7000AF4802F020F9AB48844207D16806400E27
:100A8000002803D07F2028437F280BD0A64884422B
:100A900009D1A804800C002805D0A6482843A54900
:100AA000884200D106E0FF228B32A049A0482030C6
:100AB00002F001F9A56270BD70B504460D461646F8
:100AC0009848844202D09848844200D105E0FF2231
:100AD0009D329649964802F0EEF89248844207D13A
:100AE0006806400E002803D07F2028437F280BD0C3
:100AF0008D48844209D1A804800C002805D08D4877
:100B000028438C49884200D106E0FF229E32874963
:100B10008748203002F0CFF8002E01D0012E00D1FE
:100B200005E0FF229F32814983A002F0C4F8002E25
:100B300001D0A56100E0A56270BD70B504460D4608
:100B40007848844202D07848844200D105E0FF22F0
:100B5000B3327649764802F0AEF8656170BD70B583
:100B600005460C466F48854207D16006400E0028B6
:100B700003D07F2020437F280BD06B48854209D1CA
:100B8000A004800C002805D06A48204369498842A7
:100B900000D106E0FF22C23264496548203002F0ED
:100BA0008AF86048854207D16006400E002803D0CD
:100BB0007F2020437F280BD05B48854209D1A004C9
:100BC000800C002805D05B4820435A49884200D158
:100BD00006E0FF22C33255495548203002F06BF839
:100BE00068696040686170BD70B504460D460126B5
:100BF00036044C48844202D04B48844200D105E080
:100C0000FF22D23249494A4802F055F84548844209
:100C100007D16806400E002803D07F2028437F2894
:100C20000BD04148844209D1A804800C002805D08B
:100C3000404828433F49884200D106E0FF22D33292
:100C40003A493B48203002F036F830462843064601
:100C5000E661E561E661E669E66970BD70B5054685
:100C60000C46002D01D0012D00D105E0FF22EC3211
:100C70002E4938A002F01FF8002C19D0012C17D0F3
:100C8000022C15D0032C13D0042C11D0052C0FD01E
:100C9000062C0DD0072C0BD0082C09D0092C07D01E
:100CA0000A2C05D00B2C03D00C2C01D00D2C00D11C
:100CB00005E0FF22ED321D4930A001F0FCFF002DC0
:100CC0002FD1230002F050F807050C19206C7A820E
:100CD0008A003248406880088000304948607EE0E1
:100CE0002E484068800880002C49486008464068CB
:100CF000012108432949486071E0284840683021B3
:100D00008843264948606AE0244840683021884387
:100D10002249486008464068102108431F4948603E
:100D20005DE05DE000080140000C01400C2F000177
:100D3000C4070001FF3F000049535F4750494F5F20
:100D40004249545F4F5045524154452842697443CB
:100D50006D64290049535F4750494F5F45585449D6
:100D60005F504F52545F534F5552434528506F7256
:100D700074536F75726365290000000049535F4723
:100D800050494F5F50494E5F534F5552434528508D
:100D9000696E536F757263652900000000000140A1
:100DA000B3488068032109028843B1498860084636
:100DB000806849150843AE49886010E0AC48406837
:100DC000032109038843AA49486008E0A84840680D
:100DD000032109028843A649486000E000BFB0E053
:100DE000230001F0C1FF0E081522303E4A576573FB
:100DF00081888F9CA4AC9E484068800880009C49F4
:100E0000486008464068022108439949486097E0D5
:100E100097484068302188439549486008464068B3
:100E200020210843924948608AE0914840680321A4
:100E3000090288438E49486008464068891508437E
:100E40008B4948607CE08A48406803210903884355
:100E500087494860084640688914084384494860C7
:100E60006EE08348806881088900814881608068DD
:100E7000012108437E49886062E07D488068302116
:100E800088437B4988600846806820210843784968
:100E9000886055E0764880680321090288437449D8
:100EA000886008468068891508437149886047E072
:100EB0006F4880680321090388436D4988600846AC
:100EC0008068891408436A49886039E06848806806
:100ED00003210903884366498860084680684914ED
:100EE0000843634988602BE0614880688108890075
:100EF0005F48816024E05E488068302188435C4917
:100F000088601DE05A4880683021884358498860CD
:100F100008468068102108435549886010E054480D
:100F200080680321090288435149886008E05048DD
:100F300080680321090388434D49886000E000BFB1
:100F400000BF70BDFEB506460C4617460020019056
:100F50000025002E01D0012E00D104E0454A46496B
:100F600046A001F0A8FE002C19D0012C17D0022CAD
:100F700015D0032C13D0042C11D0052C0FD0062C27
:100F80000DD0072C0BD0082C09D0092C07D00A2C27
:100F900005D00B2C03D00C2C01D00D2C00D105E07A
:100FA0004B22D20034493F4801F085FE0F2F00D874
:100FB00005E0304A921C30493BA001F07CFE002E37
:100FC00001D1414800E0414800900820204000281D
:100FD00011D06007400F01900098456A0198810088
:100FE0000F208840294681430D4628463843054650
:100FF0000098456210E06007400F01900098056A74
:10100000019881000F208840294681430D462846DB
:101010003843054600980562FEBD70B504460D468E
:1010200000260120C002844202D04010844200D138
:1010300005E0A1229200104925A001F03CFE002D00
:1010400001D0012D00D105E00A4A2E320A4927A01D
:1010500001F031FE06480668002D03D030462043DB
:10106000064602E03046A04306460148066070BDD1
:1010700000000140570200000C2F000149535F4758
:1010800050494F5F52454D41505F504F52545F534E
:101090004F5552434528506F7274536F7572636594
:1010A000290000007C0D000149535F4750494F5F04
:1010B000414628416C7465726E61746546756E6355
:1010C00074696F6E2900000000080140000C0140A7
:1010D00049535F4146494F5F53504958284146495B
:1010E0004F5F535049785F4E5353290049535F4136
:1010F00046494F5F5350495F4E5353285370694ED2
:1011000073734D6F64652900FA4800680121084334
:10111000F849086008464068F7490840F5494860C2
:1011200008460068F5490840F2490860084600682A
:10113000012189048843EF49086008464068F04966
:101140000840EC4948600720C002C862BF20000484
:101150008860704710B50446002C03D001200004BD
:10116000844200D104E08222E649E7A001F0A3FD19
:10117000E0480068012109048843DE490860012035
:101180000004201A07D10846006801210904084319
:10119000D849086000E000BF00BF10BDF8B50446A4
:1011A000002500260027212C0FD0312C0DD0412CFA
:1011B0000BD0832C09D0842C07D0432C05D0852C50
:1011C00003D0862C01D0872C00D104E0D34ACD492E
:1011D000D3A001F070FD6511012D02D1C54806684C
:1011E00006E0022D02D1C348066A01E0C148466A02
:1011F000E506ED0E0120A8403040002801D001276F
:1012000000E000273846F8BD38B5002000900024E3
:10121000002500BF3120FFF7C1FF05460098401CA4
:101220000090012149030098884201D0002DF1D09F
:101230003120FFF7B3FF002801D0012400E0002493
:10124000204638BD10B50446002C01D0012C00D139
:1012500004E0BB22AB49B8A001F02DFDA548006811
:1012600040084000A3490860012C06D108460068E8
:10127000012108439F49086000E000BF00BF10BD86
:1012800038B5002000900024002500BF2120FFF782
:1012900085FF05460098401C009005210902009832
:1012A000884201D0002DF1D02120FFF777FF0028E0
:1012B00001D0012400E00024204638BD10B50446CA
:1012C000002C01D0012C00D104E0F2228D499FA016
:1012D00001F0F1FC012C06D1864800680121084389
:1012E0008449086005E0834800684008400081495F
:1012F000086010BD70B504460025002C01D0012CFB
:1013000000D105E0FF220D327E4997A001F0D3FC09
:10131000784845686D086D002846204305467548A5
:10132000456070BD7348406804210840704770B53F
:1013300004460025002C03D0202C01D0302C00D1F5
:1013400005E0FF2230326F4990A001F0B4FC6948FB
:1013500045683021284688430546284620430546EF
:101360006448456070BD70B504460025002C0FD060
:101370000120800284420BD005200002844207D065
:1013800003204002844203D007200002844200D19F
:1013900005E0FF2249325B4984A001F08CFC5548EE
:1013A0004568072109022846884305462846204308
:1013B00005465048456070BD70B504460025002CB8
:1013C0000FD00120800284420BD00520000284420D
:1013D00007D003204002844203D007200002844249
:1013E00000D105E0FF226232464970A001F063FCA3
:1013F000404845680721C902284688430546E00061
:1014000005433C48456070BD70B504460D46012C4F
:1014100005D0022C03D0042C01D0082C00D105E00B
:10142000FF227E32374968A001F045FC002D01D033
:10143000012D00D105E0FF227F32324943A001F0A7
:101440003AFC002D06D02B48006A210208432949A6
:10145000086205E02748006A21028843254908629E
:1014600070BD70B504460025002C03D00120C007D4
:10147000844200D105E0FF229732224957A001F0B3
:101480001AFC1C48C56A6D006D08284620430546B5
:101490001848C56270BD70B504460025002C01D007
:1014A000102C00D105E0FF22AF32164955A001F003
:1014B00002FC1048C56A1021284688430546284684
:1014C000204305460B48C56270BD70B505460C4605
:1014D000002D00D105E0FF22C9320A4952A001F0D7
:1014E000EAFB002C03D001208006844200D1AFE04B
:1014F000A8E00000001002400000FF21FFFFF6FE00
:10150000FFFF00FE582F000149535F5243435F48DD
:101510005345285243435F48534529008E0300003A
:1015200049535F5243435F464C4147285243435F10
:10153000464C41472900000049535F5243435F48EE
:101540005349285243435F485349290049535F4652
:10155000554E4354494F4E414C5F535441544528D6
:10156000436D64290000000049535F5243435F53B9
:101570005953434C4B5F535243285243435F535993
:1015800053434C4B536F75726365290049535F5247
:1015900043435F535953434C4B5F4449562852438E
:1015A000435F535953434C4B2900000049535F524A
:1015B00043435F48434C4B5F444956285243435F83
:1015C00048434C4B2900000049535F5243435F4955
:1015D0004E5428526363496E7429000049535F5288
:1015E00043435F54494D31434C4B5352432852437C
:1015F000435F54494D31434C4B536F7572636529BA
:101600000000000049535F5243435F414443434C51
:101610004B535243285243435F414443434C4B5343
:101620006F7572636529000049535F5243435F4CF5
:10163000505541525458285243435F4C50554152E3
:1016400054782900FF22CA32F149F2A001F033FB9D
:10165000002D0AD1F948006A012189068843F7491B
:1016600008620846006A2043086270BD0146F348DC
:10167000006AF34A1040704710B50446002C01D0B0
:10168000012C00D105E0FF22EF32E149ED4801F0E5
:1016900012FB012C06D1E948006AE1060843E7493C
:1016A000086206E0E548006A0121C9068843E3496B
:1016B000086210BD10B50446002C03D0042C01D0E4
:1016C000102C00D104E0E04AD149E0A001F0F3FA87
:1016D000DA48006A14218843D8490862042C02D0F1
:1016E000102C0ED106E0D548006A04210843D349E6
:1016F000086207E0D148006A14210843CF49086214
:1017000000E000BF00BF10BD10B50446002C01D0A2
:10171000012C00D105E089229200BD49C94801F0A1
:10172000CAFA012C06D1C548006A01210843C34901
:10173000086205E0C148006A40084000BF490862ED
:1017400010BD10B50446202C01D0002C00D105E0BE
:10175000BD4A3632AE49C2A001F0ADFAB748006AC0
:1017600020218843B54908620846006A2043086280
:1017700010BDB248006A20210840704710B50446E9
:10178000002C01D0012C00D105E0AF4A5332A04912
:10179000AC4801F090FA012C06D1A848006A210655
:1017A0000843A649086206E0A448006A0121090628
:1017B0008843A249086210BD10B50446002C01D030
:1017C000012C00D105E0A04A6A3291499D4801F000
:1017D00072FA002C07D09948006A01214906084393
:1017E0009649086206E09548006A01214906884347
:1017F0009249086210BD10B5002100228F4B5B6832
:10180000042423401946002902D0042906D102E00D
:101810009C4B036005E09C4B036002E0994B036026
:1018200000BF00BF854B5B6830242340194609097F
:10183000964B5A5C0368D3404360804B5B68072437
:10184000240223401946090A914B5A5C4368D3404D
:1018500083607A4B5B68E40023401946C90A8C4BCD
:101860005A5C4368D340C360744BDB6A1024234046
:10187000002B02D0874B036102E07D23DB03036171
:1018800010BD70B504460D4683482040002802D1A3
:10189000002C00D005E06C4AC4325D497FA001F005
:1018A0000AFA002D01D0012D00D105E0B3229200EB
:1018B0005749644801F0FFF9002D05D05F484069A1
:1018C00020435E49486104E05C484069A0435B49AD
:1018D000486170BD70B504460D4679482040002827
:1018E00002D1002C00D005E0574ADF32484975A0EC
:1018F00001F0E1F9002D01D0012D00D105E0524A9F
:10190000E03243494F4801F0D6F9002D05D04B484D
:10191000806920434949886104E048488069A043C0
:101920004649886170BD70B504460D466E4820403A
:10193000002802D1002C00D005E0434AFB32344994
:101940006AA001F0B8F9002D01D0012D00D105E009
:101950003D4AFC322E493B4801F0ADF9002D05D03F
:101960003648C06920433549C86104E03348C0693E
:10197000A0433249C86170BD70B504460D46464863
:101980002040002802D1002C00D004E0604A204909
:1019900060A001F090F9002D01D0012D00D105E0EB
:1019A0005B4A521C1A49274801F085F9002D05D0E1
:1019B0002248806A20432149886204E01F48806AE7
:1019C000A0431E49886270BD70B504460D463C4870
:1019D0002040002802D1002C00D005E04C4A1A32E9
:1019E0000B4938A001F067F9002D01D0012D00D17D
:1019F00005E0CD2292000649124801F05CF9002D65
:101A000005D00E48C06820430C49C8609BE095E0B3
:101A1000582F000149535F5243435F4C5055415288
:101A2000545F434C4B285243435F4C5055415254F2
:101A3000434C4B536F7572636529000000100240E0
:101A4000200000044C1500010702000049535F52BA
:101A500043435F4C5345285243435F4C5345290051
:101A600049535F5243435F525443434C4B5F53527D
:101A700043285243435F4C535F536F75726365292C
:101A8000000000000090D0030048E801082F00018A
:101A9000002F000100093D008AAFFFFF49535F524C
:101AA00043435F4148425F504552495048285243A2
:101AB000435F414842506572697068290000000028
:101AC000F2A9FFFF49535F5243435F415042325FE7
:101AD000504552495048285243435F41504232508A
:101AE0006572697068290000EDF7DDEF49535F52B8
:101AF00043435F415042315F50455249504828525C
:101B000043435F415042315065726970682900005B
:101B10001903000049535F5243435F4148425F50FD
:101B200045524950485F5245534554285243435FFC
:101B30004148425065726970682900006348C06876
:101B4000A0436249C86070BD70B504460D46604848
:101B50002040002802D1002C00D004E05D4A5E49FC
:101B60005EA001F0A8F8002D01D0012D00D105E004
:101B7000584A521C5849644801F09DF8002D05D080
:101B80005248006920435149086104E04F48006908
:101B9000A0434E49086170BD70B504460025002C75
:101BA0000CD0012C0AD0022C08D0032C06D0042C17
:101BB00004D0052C02D0062C00D000D105E0454A07
:101BC0001D32454951A001F076F8404845680F2183
:101BD0004906284688430546600605433B4845605C
:101BE00070BD3A48406A01210843384948620846B6
:101BF000406A400840004862704770B504460025BE
:101C0000012C05D0022C03D0042C01D0082C00D1CB
:101C100005E0F3229200304941A001F04CF82B4836
:101C200080682040002801D0012500E000252846DA
:101C300070BD10B5044601200004844208D0400065
:101C4000844205D04000844202D04000844200D14A
:101C500005E0204A9C32204937A001F02CF81B48AF
:101C6000806820431949886010BD10B50446002CD7
:101C700001D0012C00D105E0164AA83216492248AD
:101C800001F019F8012C06D110480068210608431C
:101C90000E49086006E00D480068012109068843E6
:101CA0000A49086010BD002907D0084A403252682E
:101CB0000243064B40335A6006E0044A4032526801
:101CC0008243024B40335A607047000000100240CC
:101CD000EDF7DDEF4E030000582F000149535F522E
:101CE00043435F415042315F5045524950485F5233
:101CF00045534554285243435F4150423150657229
:101D000069706829000000004C15000149535F52BA
:101D100043435F4D434F285243435F4D434F290098
:101D200049535F5243435F4745545F494E542852DD
:101D30006363496E7429000049535F5243435F4314
:101D40004C525F494E544628526363436C72496E4D
:101D50007429000010B50446FA48844202D0FA48BB
:101D6000844200D104E08822F849F9A000F0A3FFE2
:101D7000F448844209D101218803FFF725FE0021A0
:101D800001208003FFF720FE08E001214804FFF74F
:101D9000DBFE002101204004FFF7D6FE10BDF0B5A8
:101DA00089B005460C4600260020089000BF00BF01
:101DB0000027E448854202D0E348854200D104E090
:101DC000A922E249E2A000F076FF2068002804D0B2
:101DD000E6492068884200D204E0AA22DB49E4A058
:101DE00000F069FFA088002804D0A0880121090321
:101DF000884200D104E0AB22D449E9A000F05BFFA7
:101E0000E08800280DD0E08801210903884208D02D
:101E1000E0884900884204D0E08803210903884211
:101E200000D104E0AC22C949EAA000F044FF2089B7
:101E3000002809D0208901218902884204D0208904
:101E400003214902884200D104E0AD22BF49EDA040
:101E500000F031FF6089F6490840002803D160890D
:101E6000002800D004E0AE22B849F2A000F023FF21
:101E7000A08900280DD0A089FF210131884208D017
:101E8000A0894900884204D0A08903210902884220
:101E900000D104E0AF22AD49F04800F00CFFA0896A
:101EA00000280BD0A748854202D0A748854200D120
:101EB00004E0B322A549EAA000F0FDFE2F462E8AD9
:101EC000EE480640E08806432E82AE89EC48064084
:101ED000A08821890843618908430643AE81AE8A00
:101EE000E8480640A0890643AE8201A8FFF783FCBC
:101EF0009448874202D10498089001E00398089022
:101F0000226891001923089A5A43104600F0E8FE0F
:101F100007906421079800F0E3FE06013109642070
:101F200041430798411A0691069909010846323043
:101F3000642100F0D5FE0007000F06432E8109B092
:101F4000F0BD4B21C901016000218180C180018168
:101F50000C21418100218181704770B505460C46F6
:101F600000267848854202D07748854200D105E0B6
:101F7000FF2211327549BAA000F09DFE208800288A
:101F800004D020880121C902884200D105E0FF2247
:101F900012326E49BCA000F08EFE6088002804D08A
:101FA000608801218902884200D105E0FF221332B6
:101FB0006649C1A000F07FFEA088002804D0A08858
:101FC00001214902884200D105E0FF2214325F4915
:101FD000C5A000F070FEE088002804D0E088FF2152
:101FE0000131884200D105E0FF2215325749C9A0CE
:101FF00000F061FE2E8AD44806402088618808439C
:10200000A1880843E188084306432E8270BD002161
:10201000018041808180C180704770B504460D46C3
:102020004848844202D04848844200D105E0FF225B
:102030003F32464946A000F03EFE002D01D0012D62
:1020400000D105E0FF2240324049C0A000F033FE3D
:10205000002D05D0A089012149030843A08103E098
:10206000A089C1490840A08170BDFEB506460C4656
:1020700017460020029001900090002531488642CA
:1020800002D03148864200D105E0FF2265322F4957
:102090002FA000F010FE282C13D0B448844210D09A
:1020A000B34884420DD0B34884420AD0B248844237
:1020B00007D0B248844204D0B148844201D0602C99
:1020C00000D105E0FF2266322049AEA000F0F3FD0A
:1020D000002F01D0012F00D105E0FF2267321B49FC
:1020E0009AA000F0E8FDA64884420CD1154886422B
:1020F00002D01548864200D105E0FF226B32134919
:1021000057A000F0D8FD35462006400F0290E006AB
:10211000C00E019001210198814000910298012890
:1021200001D10C3505E00298022801D1103500E0FC
:102130001435002F04D0286800990843286033E143
:102140002EE100000038014000440040EC2F000167
:1021500049535F55534152545F414C4C5F50455277
:1021600049504828555341525478290001093D00EF
:1021700049535F55534152545F4241554452415473
:10218000452855534152545F496E697453747275B2
:1021900063742D3E426175645261746529000000CC
:1021A00049535F55534152545F574F52445F4C451A
:1021B0004E4754482855534152545F496E697453F1
:1021C00074727563742D3E576F72644C656E6774DC
:1021D0006829000049535F55534152545F53544F8F
:1021E00050424954532855534152545F496E6974C3
:1021F0005374727563742D3E53746F7042697473B7
:102200002900000049535F55534152545F504152D9
:102210004954592855534152545F496E6974537457
:10222000727563742D3E50617269747929000000E3
:10223000F3FF000049535F55534152545F4D4F44E3
:10224000452855534152545F496E697453747275F1
:1022500063742D3E4D6F646529000000A42F0001BA
:1022600049535F55534152545F31325F5045524993
:10227000504828555341525478290000FFCF0000A0
:10228000F3E90000FFFC000049535F5553415254ED
:102290005F434C4F434B2855534152545F436C6F3F
:1022A000636B496E69745374727563742D3E436C2D
:1022B0006F636B290000000049535F55534152542E
:1022C0005F43504F4C2855534152545F436C6F63EA
:1022D0006B496E69745374727563742D3E506F6CE4
:1022E000617269747929000049535F555341525412
:1022F0005F435048412855534152545F436C6F63CC
:102300006B496E69745374727563742D3E506861C5
:102310007365290049535F55534152545F4C4153F3
:10232000544249542855534152545F436C6F636B78
:10233000496E69745374727563742D3E4C61737485
:102340004269742900000000FFF0000049535F4615
:10235000554E4354494F4E414C5F535441544528C8
:10236000436D642900000000FFDF00002707000024
:102370002606000025050000240400004608000091
:102380006A09000049535F55534152545F43464721
:102390005F494E542855534152545F494E542900C9
:1023A0002968009881432960FEBD70B504460D463A
:1023B0001646F848844202D0F748844200D105E02E
:1023C000FF229C32F549F64800F075FCF54828409C
:1023D000002802D1002D00D005E0FF229D32EF49F8
:1023E000F1A000F068FC002E01D0012E00D105E024
:1023F000FF229E32E949F44800F05DFC002E03D034
:10240000A08A2843A08202E0A08AA843A08270BDCF
:1024100070B504460D46DF48844202D0DE4884424F
:1024200000D105E0FF22B732DC49DD4800F043FC73
:102430000F2D00DC05E0FF22B832D849E3A000F000
:102440003AFC208AD749B13108402082208A2843AB
:10245000208270BD70B504460D46CE48844202D03D
:10246000CD48844200D105E0FF22CD32CB49CC4893
:1024700000F021FC002D03D00120C002854200D1D4
:1024800005E0FF22CE32C549D8A000F014FCA08997
:10249000DF490840A081A0892843A08170BD70B5A4
:1024A00004460D46BB48844202D0BB48844200D15A
:1024B00005E0FF22DF32B949B94800F0FCFB002DEE
:1024C00001D0012D00D105E0FF22E032B349BE4822
:1024D00000F0F1FB002D04D0A08902210843A08167
:1024E00004E0A089AF49BE310840A08170BD70B53D
:1024F00004460D46A748844202D0A748844200D132
:1025000005E0FF22FB32A549A54800F0D4FB002DD1
:1025100001D0202D00D105E0FF22FC329F49BDA053
:1025200000F0C9FB208A9F49A03108402082208A00
:102530002843208270BD70B504460D4695488442FC
:1025400002D09548844200D105E08322920093494D
:10255000934800F0B0FB002D01D0012D00D104E024
:10256000BC4A8E49984800F0A6FB002D05D0208A71
:10257000012189030843208203E0208AB6490840EC
:10258000208270BD70B504460D468248844202D058
:102590008148844200D105E0AE4A18327F49804824
:1025A00000F089FBAB480E38854200DC05E0A94A03
:1025B00019327A49A9A000F07EFBE805C00DA08081
:1025C00070BD10B504467348844202D072488442FC
:1025D00000D105E09F4A29327049714800F06BFB39
:1025E000A088C005C00D10BD10B5044669488442DE
:1025F00002D06948844200D105E0964A38326749E2
:10260000674800F058FBA08901210843A08110BD54
:1026100070B504460D465F48844202D05E4884424D
:1026200000D106E0952292005C496748EC3800F042
:1026300042FB208BC0B22083208B290208432083D9
:1026400070BD70B504460D465248844202D05248CF
:10265000844200D105E07F4A5A325049504800F088
:102660002AFB208BFF21090208402083208B28436E
:10267000208370BD70B504460D464648844202D0A2
:102680004548844200D106E0724A6C3243494E48C4
:10269000EC3800F010FB002D01D0012D00D105E039
:1026A0006C4A6D323D49484800F005FB002D04D0CE
:1026B000A08A20210843A08204E0A08A3949A031E1
:1026C0000840A08270BD70B504460D463148844272
:1026D00002D03148844200D106E05E4A84322F495C
:1026E0003948EC3800F0E7FA002D01D0012D00D177
:1026F00005E0584A85322949334800F0DCFA002DBC
:1027000004D0A08A10210843A08204E0A08A2549B1
:10271000B0310840A08270BD70B504460D461D481A
:10272000844202D01C48844200D105E0494A9D32CF
:102730001A491B4800F0BFFA002D01D0012D00D12D
:1027400005E0444A9E3215491F4800F0B4FA002DB6
:1027500004D0A08A08210843A08204E0A08A11497D
:10276000B8310840A08270BD70B504460D460948D6
:10277000844202D00848844200D105E0354AB9328B
:102780000649074800F097FA042D01D0002D6FD1BB
:1027900073E06DE00038014000440040EC2F000180
:1027A000502100013FFF000049535F5553415254EF
:1027B0005F444D415245512855534152545F444D59
:1027C00041526571290000004C23000149535F55B7
:1027D000534152545F414444524553532855534149
:1027E00052545F41646472290000000049535F55F0
:1027F000534152545F57414B455550285553415210
:10280000545F57616B6555704D6F6465290000001A
:10281000FFF7000049535F55534152545F4C494EF6
:102820005F425245414B5F4445544543545F4C45DC
:102830004E4754482855534152545F4C494E4272BA
:1028400065616B4465746563744C656E6774682973
:10285000000000000D020000FFBF000049535F555B
:10286000534152545F4441544128446174612900EA
:10287000B24AB349B3A000F01EFAA08ABA49084090
:10288000A082A08A2843A08270BD70B504460D4680
:10289000B648844202D0B648844200D105E05B22AB
:1028A000D200A749B34800F006FA002D01D0012D4F
:1028B00000D105E0A14A1232A149AF4800F0FBF96E
:1028C000002D04D0A08A02210843A08204E0A08A3F
:1028D000A549891C0840A08270BD70B505460C460C
:1028E0000026A248854202D0A148854200D105E0D9
:1028F000924A373292499F4800F0DDF9012C14D0FA
:10290000802C12D0402C10D0202C0ED0102C0CD0AB
:10291000FF200130844208D04000844205D0082CBA
:1029200003D0042C01D0022C00D105E0834A3832B8
:10293000834992A000F0BFF90120400284420DD1EA
:102940008A48854202D08A48854200D106E07B4A07
:102950003C327B498848EC3800F0ADF928882040AB
:10296000002801D0012600E00026304670BD70B579
:1029700004460D467D48844202D07D48844200D101
:1029800005E06E4A66326E497A4800F094F9824852
:102990002840002802D1002D00D005E0674A6732A8
:1029A00067497EA000F087F90120400228400121FC
:1029B000490288420DD16D48844202D06C4884425D
:1029C00000D106E05D4A6B325D496B48EC3800F09F
:1029D00072F9E843208070BDFEB505460C4600271D
:1029E00000260020019000906048854202D0604897
:1029F000854200D105E03522120151495D4800F0C1
:102A00005AF9282C1DD06D4884421AD06C48844253
:102A100017D06C48844214D06B48844211D06B4864
:102A200084420ED06A4884420BD01B20400184426D
:102A300007D013204001844203D0FF20613084423C
:102A400000D105E03D4A8A323D4962A000F033F9E9
:102A50005F4884420DD14548854202D044488542B2
:102A600000D106E0354A8E3235494348EC3800F053
:102A700022F92006400F0190E606F60E0120B04034
:102A800006460198012802D1A889064007E001986E
:102A9000022802D1288A064001E0A88A06402712AF
:102AA0000120B840074628880740002E04D0002F98
:102AB00002D00120009001E0002000900098FEBDAF
:102AC000F8B505460C46002600272848854202D066
:102AD0002748854200D105E07322D20018492548D5
:102AE00000F0E9F83648844208D03648844205D0E0
:102AF0003648844202D03648844200D105E0324A4A
:102B00008B3A0F493AA000F0D6F8314884420DD1F3
:102B10001648854202D01648854200D106E02A4A6E
:102B2000873A07491448EC3800F0C5F8261201200E
:102B3000B04087B2F8432880F8BD0000C70200000B
:102B4000EC2F000149535F55534152545F495244A1
:102B5000415F4D4F44452855534152545F4972449B
:102B6000414D6F6465290000FBFF00000038014003
:102B700000440040502100014C23000149535F559F
:102B8000534152545F464C41472855534152545F7C
:102B9000464C4147290000009FFC000049535F5507
:102BA000534152545F434C4541525F464C41472884
:102BB00055534152545F464C4147290027070000B6
:102BC0002606000025050000240400004608000039
:102BD0006A09000049535F55534152545F474554B9
:102BE0005F494E542855534152545F494E54290071
:102BF00049535F55534152545F434C525F494E54C1
:102C00002855534152545F494E54290000B587B0AE
:102C100001A8FDF78EFD40200190022002900420C3
:102C2000069001A92548FDF769FC80200190042049
:102C3000069001A92148FDF761FC07B000BD10B561
:102C400001210820FEF746FE01218803FEF742FE1F
:102C500010BD86B0FFF7F3FFFFF7D8FF01A8FEF71E
:102C6000CAFDE12040021649086000208880C88023
:102C7000088188810C2048811248FFF790F80121D3
:102C80001048FFF7CAF9104800F064F802E00FA0FE
:102C900000F060F8FBE770B504460D46E1B2094864
:102CA000FFF770FC00BF80210648FFF716FE0028E2
:102CB000F9D0204670BD00BFFEE70000000C0140C7
:102CC0003C00002000380140383000013131313102
:102CD0000D0A0000704700BFFEE77047704770475D
:102CE00030B50B46014600202022012409E00D46A4
:102CF000D5409D4205D31D469540491B254695402C
:102D000040191546521E002DF1DC30BD03460B4321
:102D10009B0703D009E008C9121F08C0042AFAD291
:102D200003E00B780370401C491C521EF9D2704717
:102D3000064C0125064E05E0E36807CC2B430C3C0E
:102D400098471034B442F7D3FDF7BEF9883000013C
:102D5000A830000110B5024A024900F022F810BD67
:102D6000972C00010400002030B47446641E2578BE
:102D7000641CAB4204D3635D5B00E31830BC1847AE
:102D80001D46F8E702E008C8121F08C1002AFAD160
:102D900070477047002001E001C1121F002AFBD1DB
:102DA0007047F8B516460F460446002503E039463D
:102DB000B047641C6D1C20780028F8D12846F8BD67
:102DC00040BA7047C0BA70470138FDD17047000063
:102DD000F7B50325AD06286A82B016460C464008B2
:102DE00040002862286A022108432862286A800776
:102DF000FCD46620686001272F61A86AC005FCD555
:102E0000992068602F61A86AC005FCD5FF20913029
:102E1000FFF7DAFFFF230133AB626846EF6035212D
:102E200069602F61A96AC905FCD5AB62A969EF6029
:102E3000C9B205226A602F61AA6AD205FCD5AB62CD
:102E4000AA690902D2B211430180C80702D0032047
:102E500005B0F0BDAB626869FF2108318843686145
:102E60006869C91E084368610298000248306860BA
:102E70000820A860EE602F61A86AC005FCD5FF207D
:102E80000130A8620023F61CB0080ED0B208114829
:102E9000006899006054060A09194E70060C000E6D
:102EA0008E705B1CC8709A42F1D8FF200130A86276
:102EB0006869FF210831884368616869384368613F
:102EC000286A800880002862286A38432862002027
:102ED00005B0F0BD8000000C032080064169FF2290
:102EE000083291434161426901210A434261026A09
:102EF000920892000262026A0A430262704700006E
:102F00000000000001020304000001022E2E5C2ECE
:102F10002E5C2E2E5C2E2E5C2E2E5C2E2E5C666978
:102F2000726D776172655C6E333277623033785FD1
:102F30007374645F7065726970685F6472697665E6
:102F4000725C7372635C6E333277623033785F67C2
:102F500070696F2E630000002E2E5C2E2E5C2E2ECC
:102F60005C2E2E5C2E2E5C2E2E5C6669726D776157
:102F700072655C6E333277623033785F7374645F8E
:102F80007065726970685F6472697665725C73728D
:102F9000635C6E333277623033785F7263632E63C3
:102FA0000000000049535F55534152545F4841525D
:102FB00044574152455F464C4F575F434F4E545222
:102FC0004F4C2855534152545F496E697453747283
:102FD0007563742D3E4861726477617265466C6FEB
:102FE00077436F6E74726F6C290000002E2E5C2E7A
:102FF0002E5C2E2E5C2E2E5C2E2E5C2E2E5C666998
:10300000726D776172655C6E333277623033785FF0
:103010007374645F7065726970685F647269766505
:10302000725C7372635C6E333277623033785F75D3
:10303000736172742E6300000A0D5553415254207F
:103040005072696E7466204578616D706C653A20C7
:103050007265746172676574207468652043206CC2
:10306000696272617279207072696E746620667529
:103070006E6374696F6E20746F2074686520555399
:103080004152540A0D000000A83000010000002049
:1030900008000000842D0001B0300001080000206D
:1030A00048080000942D00010048E80100000000DD
:04000005010000C135
:00000001FF
