:020000040800F2
:1000000048690020AD010008C9450008852D000899
:10001000A13E00086D110008918100080000000059
:10002000000000000000000000000000BF01000808
:100030006F11000800000000C3010008D96100082A
:10004000C7010008C7010008C7010008C701000870
:10005000C7010008C7010008C7010008C701000860
:100060004D1A0008C7010008C7010008C7010008B1
:10007000C7010008C7010008C7010008C701000840
:10008000C7010008C7010008C7010008C701000830
:10009000C7010008C7010008C7010008C701000820
:1000A000C7010008C7010008C7010008C701000810
:1000B000C7010008C7010008C7010008C701000800
:1000C000C7010008C7010008C7010008C7010008F0
:1000D000C7010008C70100085D750008B575000874
:1000E000C7010008C7010008C7010008C7010008D0
:1000F000C7010008C7010008C7010008C7010008C0
:10010000C7010008C7010008C7010008C7010008AF
:100110003D750008C70100087D6C0008C701000894
:10012000C7010008C7010008C7010008C70100088F
:10013000C7010008C7010008C7010008C70100087F
:10014000C7010008C7010008C7010008C70100086F
:10015000C7010008C7010008C7010008C70100085F
:10016000C7010008C7010008C7010008C70100084F
:10017000C7010008C7010008C7010008C70100083F
:10018000C7010008C7010008C7010008C70100082F
:10019000C7010008C7010008DFF80CD000F05AFBC7
:1001A0000048004701910008486900200648804740
:1001B00006480047FEE7FEE7FEE7FEE7FEE7FEE74C
:1001C000FEE7FEE7FEE7FEE7DD61000899010008B3
:1001D00040EA01039B0703D009E008C9121F08C0C9
:1001E000042AFAD203E011F8013B00F8013B521E49
:1001F000F9D27047D2B201E000F8012B491EFBD2C0
:1002000070470022F6E710B513460A460446194621
:10021000FFF7F0FF204610BD30B505462A460B46D5
:1002200012F8010B13F8014B08B1A042F8D01CB131
:10023000002802D06D1CF1E7284630BDCAB2401E2E
:1002400010F8011F8A4202D00029F9D1002070471E
:10025000421C10F8011B0029FBD1801A704770B5B1
:10026000064608F007F8046805460A2200213046D1
:1002700000F015F92C6070BD2DE9FE4F81EA0304F2
:1002800004F0004421F0004100944FF0000B23F0F3
:10029000004350EA01045ED052EA03045BD0C3F38A
:1002A0000A54C1F30A552C44A4F2F3340194A0FB80
:1002B0000254C1F3130141F48011C3F3130343F457
:1002C000801301FB024400FB034E840A970A44EAB0
:1002D000815447EA8357A4FB076802958D0A05FB02
:1002E00007854FEA932C04FB0C542705029D4FEA27
:1002F000065847EA1637B5EB08056EEB070C870E74
:10030000920E47EA811742EA8312A7FB0201B6EB7D
:100310000B0164EB00042B0D43EA0C335E1844EB35
:100320001C50DA465146E7FB0201C5F313044FEABD
:100330000B3343EA14534FEA0432019C43EA0603A9
:10034000A4F10C040294009CCDE900B400F0EEF896
:1003500003B0BDE8F08F00200146F9E70EB5C10FEC
:1003600080EAE0700844CA07002140F233438DE878
:100370000E000A460B4600F0D9F803B000BD0EB5DA
:1003800040F2334102910021CDE900110A460B46AB
:1003900000F0CCF803B000BDC1F30A5210B5C1F3B0
:1003A000130140F2FF3341F480119A4201DA002038
:1003B00010BD40F233439A42A2F2334203DC524270
:1003C00000F05DF810BD904010BD00F0004230F02C
:1003D00000400AD0C10D01F56071C0F3160042EA79
:1003E0000151C20840071143704700200146704781
:1003F00030B50B46014600202022012409E021FAF5
:1004000002F59D4205D303FA02F5491B04FA02F5F1
:100410002844151EA2F10102F1DC30BD2DE9F05F88
:100420000546002092469B46884606468146402463
:100430001BE0284641464746224600F020F8534636
:100440005A46C01A914110D311461846224600F070
:1004500013FA2D1A67EB01084F46224601200021AE
:1004600000F00AFA17EB00094E41201EA4F1010426
:10047000DFDC484631462A464346BDE8F09F202A45
:1004800004DB203A21FA02F00021704721FA02F33E
:10049000D040C2F1200291400843194670472DE92F
:1004A000F04791460F4680460446002614F8015B4B
:1004B0002DB100F003FA0068405DC007F6D12B2D86
:1004C00002D02D2D18D0641E4A463946204600F031
:1004D000F9F927B13968A14201D1C7F80080710547
:1004E0004FF002040BD54042002803DD07F0C2FEA6
:1004F0000460A007BDE8F08746F48066E4E70028C2
:10050000F8DA07F0B7FE04606FF00040F2E710B5CC
:10051000141E73F1000408DA401C41F10001921826
:100520005B411A4301D120F0010010BD2DE9F04DCF
:1005300092469B4611B1B1FA81F202E0B0FA80F224
:100540002032904600F098F904460F4640EA0A002F
:1005500041EA0B0153465A46084313D0114653EA69
:10056000010019D0C8F140025046FFF788FF054648
:100570000E4650465946424600F07EF9084305D0E3
:10058000012004E020463946BDE8F08D00200543F7
:1005900046EAE0762C4337430A986305E40AA0EB69
:1005A00008000022FD0A44EA47540A3002D5002020
:1005B0000146E9E7010510196941DDE9084500191F
:1005C0006941BDE8F04DA2E72DE9FE4F804681EA82
:1005D0000300C00F0C46009021F0004123F00045BD
:1005E000B8EB0200A94105D24046214690461C4680
:1005F0000B46024623F00040104347D0270DC7F3B7
:100600000A00C3F30A510290401A019040286BDAA5
:10061000C3F3130040F4801B0098924620B10023DE
:10062000D2EB030A63EB0B0B01985946C0F1400271
:10063000504600F021F906460D4650465946019AAB
:1006400000F029F910EB08006141002487EA1152FB
:1006500084EAE7731A4340D0009A62B3019A012AF0
:100660004FEA075215DC001B61EB02014FF000421C
:1006700002EA0752CDE90042001C41F580113246E2
:100680002B46FFF753FF03B0BDE8F08F40462146ED
:10069000F9E7001B61EB0201001C41F58013001813
:1006A0005B412018A2F5001747EB030140EAD57023
:1006B000B6196D4111E06D084FEA360645EAC0757E
:1006C0004FEA0752001B61EB0201001C41F580114B
:1006D00049084FEA30000019514132462B4603B019
:1006E000BDE8F04FFFF713BF009801224000002340
:1006F000D0EB020263EBE073009821464FEAE0740E
:10070000B8EB000061EB0401E9E783F000435BE72D
:1007100081F0004158E72DE9F04D81EA030404F02F
:10072000004B21F0004514464FF0000A23F0004131
:1007300050EA050220D054EA01021DD0C5F30A5741
:100740000246C5F31303C1F31300C1F30A5640F484
:10075000801543F48013A7EB0608101BD64608F259
:10076000FD3873EB050002D308F1010801E092188F
:100770005B41B8F1000F03DA00200146BDE8F08DBF
:1007800000204FF48011064684460EE0171B73EBE1
:10079000050705D3121B63EB050306434CEA010C66
:1007A00049084FEA300092185B4150EA0107EDD149
:1007B00052EA030012D082EA040083EA05010843EA
:1007C00005D0101BAB4106D20122002306E0002217
:1007D0004FF0004302E06FF0010253101AEB0600E5
:1007E0004CEB085110EB0A0041EB0B01BDE8F04D5A
:1007F000FFF78DBEC1F30A52C1F3130140F2FF337C
:1008000041F480119A4202DA00200146704740F21A
:1008100033439A42A2F2334202DC5242FFF72FBE28
:1008200000F02AB830B5041E71F1000404DB4FF06B
:100830000044404264EB0101141E73F1000405DB27
:100840001C464FF00043524263EB0403994208BF39
:10085000904230BD064C074D06E0E06840F00103D1
:1008600094E8070098471034AC42F6D3FFF798FCA1
:10087000C4BB0008E4BB0008202A04DB203A00FACD
:1008800002F1002070479140C2F1200320FA03F3E7
:10089000194390407047202A06DBCB17203A41FAD3
:1008A00002F043EAE07306E041FA02F3D040C2F1FD
:1008B00020029140084319467047000000487047E5
:1008C00084BA00082DE9F05F8246007800271546BB
:1008D0008B460AF10104B946302801D09DB113E0DE
:1008E00014F8010B0127782803D0582801D045B10E
:1008F0000AE00DB1102D07D10027102514F8010BC7
:1009000002E0082500E00A250026B0460EE005FBBF
:10091000080005FB06F1012701EB10461FFA80F8DD
:10092000B6F5803F00D3B94614F8010B294600F014
:1009300018F80028EBDABBF1000F05D00FB1641EE8
:1009400000E05446CBF80040B9F1000F06D007F0A4
:1009500091FC02210160C81EBDE8F09F48EA0640F4
:10096000FAE73A2800D2303820F02002412A01D399
:10097000A2F13700884201D34FF0FF30704770B5C5
:100980008C1810F8015B15F0070301D110F8013B3A
:100990002A1106D110F8012B03E010F8016B01F8C1
:1009A000016B5B1EF9D12B0705D40023521E0DD419
:1009B00001F8013BFAE710F8013BCB1A921C03E067
:1009C00013F8015B01F8015B521EF9D5A142D8D39F
:1009D000002070BDF8B54FF40050ADF800001025B0
:1009E0000E4E8DF8035001248DF8024069463046C2
:1009F00001F024FF2103ADF800108DF803508DF8AD
:100A000002406946304601F019FF6103304602F0AA
:100A100029F92103304602F025F9F8BD000C014008
:100A200070B5C0F307110E2202EAD10200F00F00E8
:100A300001F00F0142F0A00440EA011502F05EFB54
:100A400004F0FE0002F01CFB02F0A6FB284602F0B8
:100A500017FB02F0A1FB02F051FB44F0010002F091
:100A60000FFB02F099FB002002F08CFA044602F022
:100A70006FFB44F6206008F0F5F8204670BD70B5B5
:100A800002460E46C0F307100E2101EAD00102F023
:100A90000F0200F00F0041F0A00442EA001502F03E
:100AA0002DFB204602F0ECFA02F076FB284602F01D
:100AB000E7FA02F071FB304602F0E2FA02F06CFB5A
:100AC00002F046FBBDE8704044F6206008F0CAB86A
:100AD00070B51D4C0025E07A10B1012813D010E04C
:100AE0002079401C207103F059FD0C2117A007F05C
:100AF00033FB64216570194A0F2007F075FB012054
:100B0000E072002070BD03F03DFD002808BF70BDFD
:100B1000134E306804F0DCF901461248326801F0E7
:100B20008DFA11A10F48FFF777FB00281EBFE57271
:100B3000012070BD20790A2898BFE572E1D925719E
:100B4000E572022070BD00003C00002041542B5192
:100B5000494143543D310D0A00000000BD450008E5
:100B600038000020FC1000204F4B00000146064AD0
:100B700009780020135C994208BF7047401CC0B23E
:100B80000A28F7D3704700005E9200082DE9F001B3
:100B90004FF0000C002A88BF154C24D911F81C60B6
:100BA000002314F80380464504BF1D072D0E5B1C6F
:100BB000DBB2102BF5D301EB4C060023767814F84A
:100BC0000380464508BF03F00F075B1CDBB2102B08
:100BD000F5D345EA070300F80C300CF101031FFAC6
:100BE00083FC9445DAD3BDE8F0015008704700005B
:100BF0005E92000838B5044600200090042C18BF0F
:100C0000082C54D00C2C18BF102C50D0142C18BF0A
:100C1000182C4CD01C2C18BF202C48D0242C18BFCA
:100C2000282C44D0402C18BF442C40D0482C18BF4E
:100C30004C2C3CD0502C18BF542C38D0582C18BFFA
:100C40005C2C34D0602C18BF642C30D0682C18BFBA
:100C50006C2C2CD0702C18BF742C28D0782C18BF7A
:100C60007C2C24D0802C18BF842C20D0882C18BF3A
:100C70008C2C1CD0902C18BF942C18D0982C18BFFA
:100C80009C2C14D0A02C18BFA42C10D0A82C18BFBA
:100C9000AC2C0CD0B02C18BFB42C08D0B82C18BF7A
:100CA000BC2C04D0C62205A112A007F045FF04F118
:100CB000804000F5D8400090008838BD2E2E5C663C
:100CC00069726D776172655C6E3332673435785F57
:100CD0007374645F7065726970685F647269766569
:100CE000725C7372635C6E3332673435785F626B4B
:100CF000702E630049535F424B505F444154284279
:100D00004B505F444154290038B5044600200D463D
:100D10000090042C18BF082C54D00C2C18BF102C99
:100D200050D0142C18BF182C4CD01C2C18BF202CC1
:100D300048D0242C18BF282C44D0402C18BF442C59
:100D400040D0482C18BF4C2C3CD0502C18BF542CF1
:100D500038D0582C18BF5C2C34D0602C18BF642CB1
:100D600030D0682C18BF6C2C2CD0702C18BF742C71
:100D700028D0782C18BF7C2C24D0802C18BF842C31
:100D800020D0882C18BF8C2C1CD0902C18BF942CF1
:100D900018D0982C18BF9C2C14D0A02C18BFA42CB1
:100DA00010D0A82C18BFAC2C0CD0B02C18BFB42C71
:100DB00008D0B82C18BFBC2C04D0B32205A113A0B6
:100DC00007F0BAFE04F1804000F5D84000900560BD
:100DD00038BD00002E2E5C6669726D776172655CAD
:100DE0006E3332673435785F7374645F706572692F
:100DF00070685F6472697665725C7372635C6E338F
:100E000032673435785F626B702E630049535F42FE
:100E10004B505F44415428424B505F444154290099
:100E20002DE9F0415E4C8188A1808179A171B0F8F3
:100E300001102180C178A170B0F807102181417A9A
:100E4000A1724189A181017BA173B0F80D102182AB
:100E5000C17BA174018AA182817CA175B0F81310B5
:100E60002183407DA0766068FFF789FA9FED4E1BD5
:100E700053EC112BFFF700FAFFF78EFA04F11C0573
:100E800086B22E802068FFF77AFA9FED491B53EC5B
:100E9000112BFFF7F1F9FFF77FFA07466860E0686A
:100EA000B0F5000F03DBC043401CC0F31600FFF792
:100EB00055FA9FED411B53EC112BFFF7DDF9FFF7BE
:100EC0006BFA80B200EE100A28813F4BB8EE401A50
:100ED00000EE106AB8EE400AC1EE000A00EE107A89
:100EE000B8EE401A80EE810ADFED350A60EE200A86
:100EF0009FED340A60EE800AFCEEE00A10EE900AE4
:100F00002874206959680844586019469A68C96865
:100F1000904203D3821A1144D96006E06FF07F4CEF
:100F2000ACEB020202441144D9600024C3E9014041
:100F30000D291AD300EE901A9FED241AE968F8EEF5
:100F4000600A60EE810A20EE800ABCEEC00A10EE54
:100F5000100A0844E860010C0820DC6003F098FAED
:100F6000A88981B2092003F093FA2988042003F0AC
:100F70008FFA17496868A1FB0010C0F3CF01052064
:100F800003F086FA2989072003F082FA297C0620DB
:100F900003F07EFA2C806C602C81EC60BDE8F0815F
:100FA0001C0C0020000000009FE74A621B81103FDC
:100FB000CD2D44350B4E903F56B7DD7835487A3FFE
:100FC0000000C84200007A4428000020EDF8433AAF
:100FD000CDCCCCCC08B507A00068009006480178BD
:100FE000012918BF08BD002101700221684607F0E1
:100FF0001DF808BD58AA000028000020084808B5C0
:101000000068009007480178012905D1002101708E
:101010000221684607F00AF8BDE8084007F022B848
:10102000F40F00082800002038B50220ADF80000B9
:1010300010208DF803000120104C8DF80200694645
:10104000204601F0FBFB0221204601F0A1FD022118
:10105000204601F007FE4FF4FA7007F0F7FD022179
:10106000204601F095FD40F6B83007F0EFFD044A48
:101070004FF47A71042007F0B7F838BD000801403A
:10108000995E000838B507F011FE07F093F80124C7
:10109000ADF8004010258DF803508DF802406946E8
:1010A000224801F0CBFB224A1E21022007F09CF8C7
:1010B00003F0F6FE07F0F0FE07F02AFE07F0AAFEA6
:1010C00003F083FA04F04AFFFFF7AEFF07F0C2FF18
:1010D0002003ADF800008DF80350164D8DF8024046
:1010E0006946284601F0AAFB2103284601F050FD7D
:1010F000ADF8004048218DF803106946284601F0FC
:101100009DFB05F0E9F904F003FF04F093F9FFF704
:1011100061FC00F099FE02F079FB07F04DFF05F04D
:10112000A1FDBDE8384004A007F080B800100140E0
:10113000E51900080008014048656C6C6F20576F86
:10114000726C64210D0A0000074910B50120487037
:1011500002F026FCFFF752FF07F07AFF06F078F95D
:10116000BDE8104000F05FBF16000020FEE77047AA
:1011700070B584B000254CF2186420B301281CBF60
:1011800004B070BD1026CDE900464FF61F030022C3
:101190000C21D820029505F091FBCDE900464FF6D1
:1011A0001F0301220C21E820029505F087FBCDE901
:1011B00000464FF61F0302220C21F820029505F08D
:1011C0007DFB04B070BD1820CDE90040002304A2CF
:1011D0000C210295D82005F0E9FC04B070BD000098
:1011E000202020200000000070B5002484B02025BD
:1011F0004CF21866E8B101281CBF04B070BD012094
:1012000002F0B6FB0096CDE901544FF47843142266
:10121000C021E02005F052FB0096CDE901544FF4C7
:1012200078430F22C0214FF4807005F047FB04B0D3
:1012300070BD002002F09CFB0096CDE901544FF4F4
:10124000FC631522C021E02005F038FB0096CDE9B3
:1012500001544FF4FC630F22C0214FF4807005F05D
:101260002DFB04B070BD70B5002484B020254CF275
:101270001866E0B101281CBF04B070BD012002F067
:1012800083FB0096CDE901544FF4FC631122402109
:10129000E02005F013FB0096CDE9015440214FF406
:1012A000FC631322880005F009FB04B070BD002028
:1012B00002F06AFB0096CDE901544FF47843122204
:1012C0004021E02005F0FAFA0096CDE901544021D2
:1012D0004FF478431322880005F0F0FA04B070BD93
:1012E00070B5002484B020254CF21866E0B10128C6
:1012F0001CBF04B070BD012002F080FB0096CDE958
:1013000001544FF4FC630B22C021582005F0D6FA9B
:101310000096CDE901544FF4FC630C22C0217820E3
:1013200005F0CCFA04B070BD002002F067FB009617
:10133000CDE901544FF478430D22C021582005F027
:10134000BDFA0096CDE901544FF478430E22C02136
:10135000782005F0B3FA04B070BD00000000000072
:10136000F0B5834A18252DED028B87B05078814F58
:10137000401CC0B20024804950704CF21866072807
:1013800080F0EE80DFE800F0EC041E2F3C6D75006D
:10139000CDE9004602953A8804230821002005F093
:1013A000ABFBCDE900460295BA78022308213C2028
:1013B00005F0A2FBCDE90046029502230821FA7848
:1013C000602017E0CDE9004602953A790223082112
:1013D000842005F091FBCDE9004602950223082107
:1013E0007A79A82006E0CDE9004602950A88042310
:1013F00040213CE005F080FB07B0BDEC028BF0BD66
:101400004868642820D300EE100AB8EE400ADFEDE9
:101410005B0A20EE200A10EE100AFEF7D6FF41EC20
:10142000100B57A153EC102B06A806F00FFF0096E7
:10143000CDE90154002306AA6021642005F0B6FB23
:1014400007B0BDEC028BF0BD0096CDE9015400233E
:101450004DA26021642005F0A9FB07B0BDEC028B12
:10146000F0BDCDE9004602950A8906238021582067
:10147000C0E7C868002866D04449A1FB002149099B
:101480006FF01802514310EB81019FED418B24D086
:101490004149A1FB0021C908494201EB810110EB40
:1014A000410135D0FEF76BFF53EC182BFEF7E4FE3D
:1014B00041EC100B39A153EC102B03A806F0C6FE2B
:1014C0000096CDE90154002303AAA021642005F071
:1014D0006DFB07B0BDEC028BF0BDFEF750FF53EC87
:1014E000182BFEF7C9FE41EC100B25A153EC102B75
:1014F00003A806F0ABFE0096CDE90154002303AA31
:10150000A021642005F052FB07B0BDEC028BF0BDBA
:10151000FEF735FF53EC182BFEF7AEFE41EC100B37
:1015200020A153EC102B03A806F090FE0096CDE905
:101530000154002303AAA021642005F037FB07B063
:10154000BDEC028BF0BD0096CDE9015400230EA244
:10155000A021642005F02AFB07B0BDEC028BF0BD92
:10156000547007B0BDEC028BF0BD0000000000001D
:101570005300002020000020380C00206F12833A16
:10158000252E316600000000300000001F85EB5161
:10159000FCA9F1D24D62503FCDCCCCCC252E336688
:1015A00000000000252E3266000000000000000050
:1015B0002DE9F0412DED028B88B04CF2186400212A
:1015C000F0234FF4A0720846009404F05EFF4FF43D
:1015D0007840302300904FF4A0721946002004F0A8
:1015E000F5FE0025EA4FCDE90054182602963A8808
:1015F00004230821284605F07FFACDE900460023A0
:10160000E4A208213020029505F0D0FACDE900547B
:101610000296BA78022308213C2005F06DFACDE944
:1016200000460023DBA208215420029505F0BEFAF3
:10163000CDE900540296FA7802230821602005F0D3
:101640005BFACDE9005402963A79022308218420FE
:1016500005F052FACDE900460023CFA208219C20D4
:10166000029505F0A3FACDE9005402967A79022397
:101670000821A82005F040FA042002F0D7FEFFF769
:1016800077FDCDE900460023C4A208214FF49170F4
:10169000029505F08BFA20270023CDE900471A4672
:1016A00040211846029505F009F9CDE900470023CD
:1016B000012240212020029505F000F9CDE90046E5
:1016C00040210023B4A20846029505F06FFADFF826
:1016D000D082CDE900540296B8F8002004234021BE
:1016E000582005F009FACDE900460023ADA24021BB
:1016F000A020029505F05AFACDE900474FF478434F
:1017000012224021E020029505F0D8F8CDE90047EB
:1017100040214FF4784313228800029505F0CEF85B
:101720000023CDE900471A4660211846029505F0CE
:10173000C5F8CDE900470023022260212020029550
:1017400005F0BCF8CDE90046002393A260214020BB
:10175000029505F02BFAD8F8040064281DD300EE9A
:10176000100AB8EE400ADFED900A20EE200A10EED3
:10177000100AFEF72AFE41EC100B8CA153EC102B43
:1017800006A806F063FDCDE90046002306AA602105
:101790006420029505F00AFA08E0CDE9004600232E
:1017A00084A260216420029505F000FACDE900468C
:1017B000002341226021A020029505F0F7F8CDE931
:1017C00000470023032280211846029505F076F891
:1017D000CDE900470023042280212020029505F056
:1017E0006DF8CDE9004600236BA2802140200295D0
:1017F00005F0DCF9CDE900540296B8F8082006237C
:101800008021582005F078F9CDE9004600236AA22E
:101810008021D020029505F0C9F9CDE900470023C9
:101820000722A0211846029505F048F8CDE90047A7
:1018300000230822A0212020029505F03FF8CDE9E1
:101840000046002354A2A0214020029505F0AEF9E5
:10185000D8F80C0000285DD05849A1FB00214909A7
:101860006FF01802514310EB81019FED558B21D091
:101870005549A1FB0021C908494201EB810110EB48
:1018800041012FD0FEF77BFD53EC182BFEF7F4FC43
:1018900041EC100B4DA153EC102B03A806F0D6FC25
:1018A000CDE90046002303AAA0216420029505F09B
:1018B0007DF938E0FEF763FD53EC182BFEF7DCFCF6
:1018C00041EC100B39A153EC102B03A806F0BEFC21
:1018D000CDE90046002303AAA0216420029505F06B
:1018E00065F920E0FEF74BFD53EC182BFEF7C4FC26
:1018F00041EC100B37A153EC102B03A806F0A6FC0B
:10190000CDE90046002303AAA0216420029505F03A
:101910004DF908E0CDE90046002326A2A02164206D
:10192000029505F043F9CDE9004600232BA2A02142
:101930004FF48070029505F039F9CDE90047002396
:101940000922C0211846029504F0B8FFCDE90047EE
:1019500000230A22C0212020029504F0AFFFCDE928
:10196000004600230CA2C0214020029505F01EF97C
:10197000012002F05BFDFFF7B3FC022002F056FDF0
:10198000FFF732FC08B0BDEC028BBDE8F08100002F
:10199000200000202F0000003A0000003447000023
:1019A000380C0020560000006F12833A252E316655
:1019B0000000000030000000570000001F85EB51C0
:1019C000FCA9F1D24D62503FCDCCCCCC252E336654
:1019D00000000000252E3266000000004B572F4803
:1019E0000000000010B5174CE07868B12179164866
:1019F00000294FF0010102D001F034F901E001F0BB
:101A0000C7F82079C043207120890021B0F57A7F82
:101A100028BF21810CD2401C0004000C208107D07B
:101A2000A0F54072E73A02BF60780028E17000E05C
:101A30006170AFF24F021E21BDE81040022006F097
:101A4000D3BB0000160000200010014010B5042098
:101A500000F028F8002808BF10BD07F0A7FABDE87D
:101A600010400420AFF3008010B50446800D00D173
:101A70002CB940F20112034903A007F05DF80848B1
:101A8000046010BD64BB000849535F455854495F6A
:101A90004C494E4528455854495F4C696E652900AC
:101AA0001404014070B500250446012818BF022C1B
:101AB0003AD0042C18BF082C36D0102C18BF202C7C
:101AC00032D0402C18BF802C2ED0B4F5807F18BFA8
:101AD000B4F5007F28D0B4F5806F18BFB4F5006F5F
:101AE00022D0B4F5805F18BFB4F5005F1CD0B4F508
:101AF000804F18BFB4F5004F16D0B4F5803F18BF23
:101B0000B4F5003F10D0B4F5802F18BFB4F5002F06
:101B10000AD0B4F5801F18BFB4F5001F04D0EB2223
:101B2000074908A007F008F80D4800680D49204053
:101B3000096821421CBF00280125284670BD00000D
:101B400064BB000849535F4745545F455854495F9B
:101B50004C494E4528455854495F4C696E652900EB
:101B6000000401401404014010B504460079002827
:101B700018BF042804D073222F4930A006F0DCFFE0
:101B8000607908281CBF0C28102804D074222A4928
:101B900035A006F0D1FF2068810D00D120B9752253
:101BA00025493DA006F0C8FFA079002818BF0128EC
:101BB00004D07622204943A006F0BEFFA1794E480A
:101BC000002930D00168226891430160001D01683E
:101BD000226891430160207900F1804000F5823055
:101BE00001682268114301604449086822689043F3
:101BF00008600A1D106823689843106060791028F7
:101C000008D000F1804000F582300168226811435D
:101C1000016010BD086823681843086010682168D7
:101C20000843106010BD207900F1804000F582303B
:101C3000016822689143EBE764BB000849535F45A4
:101C40005854495F4D4F444528455854495F496EA3
:101C500069745374727563742D3E455854495F4DD1
:101C60006F6465290000000049535F455854495F7F
:101C70005452494747455228455854495F496E696F
:101C8000745374727563742D3E455854495F547291
:101C9000696767657229000049535F455854495F79
:101CA0004C494E4528455854495F496E69745374F0
:101CB000727563742D3E455854495F4C696E6529B1
:101CC0000000000049535F46554E4354494F4E4172
:101CD0004C5F535441544528455854495F496E69F7
:101CE000745374727563742D3E455854495F4C6942
:101CF0006E65436D64290000000401400804014042
:101D0000001DFEF7BCBE2DE9F0475FEA010807465B
:101D10004FF000041ABF4FF017094FF0180ABDE842
:101D2000F087E519E8B202F097FB010A3E1909EBCA
:101D30004600FEF7A4FEE8B202F08EFBC1B20AEB49
:101D40004600FEF79CFE601CC4B2A045E9D8BDE881
:101D5000F08710B500211720FEF791FE0121182011
:101D6000FEF78DFE00211920FEF789FE00211A20C2
:101D7000FEF785FE25211B20FEF781FE80211C2019
:101D8000FEF77DFE01211D20FEF779FE0E211E20AB
:101D9000FEF775FE00211F20FEF771FEB421202002
:101DA000FEF76DFE1F212120FEF769FE4021222053
:101DB000FEF765FE00212320FEF761FE1E21242090
:101DC000FEF75DFE00212520FEF759FE502126205A
:101DD000FEF755FE44212720FEF751FEC0212820A2
:101DE000FEF74DFE00212920FEF749FE3F212A2063
:101DF000FEF745FE00213120FEF741FE0221322090
:101E0000FEF73DFE00213320FEF739FEFF2134208E
:101E1000FEF735FE00213520FEF731FE0021362089
:101E2000FEF72DFE00213720FEF729FE7F21382006
:101E3000FEF725FE17213920FEF721FE3B21BDE8E4
:101E400010403A20FEF71BBEF8B500246D46204630
:101E5000FEF7E6FD2855601CC4B2042CF7D39DF8AC
:101E6000000018251726A12804BF9DF80100582856
:101E700007D19DF80200592804BF9DF80300A2284D
:101E800041D0A1210020FEF7FAFD58210120FEF7E4
:101E9000F6FD59210220FEF7F2FDA2210320FEF7F4
:101EA000EEFD00218F20FEF7EAFD00219020FEF7D5
:101EB000E6FD00219120FEF7E2FD00219220FEF7D1
:101EC000DEFD00F079F800210420FEF7D8FD0121A5
:101ED0000520FEF7D4FD00210620FEF7D0FD0121EC
:101EE0000720FEF7CCFD00210820FEF7C8FDFFF714
:101EF00030FF00F061F80024201DFEF791FD01285D
:101F000033D088B33AE000F057F80024201DFEF7E4
:101F100087FD012801D028B108E00121204602F008
:101F2000A1FA03E00021204602F09CFA601CC4B232
:101F3000052CEBD3012002F079FA03F0B9FF00245D
:101F400005EB4400FEF76CFD074606EB4400FEF788
:101F500067FD07EB002081B2204602F09FFA601C6B
:101F6000C4B2212CECD3F8BD04E00121204602F0DC
:101F700079FA03E00021204602F074FA601CC4B232
:101F8000052CB9D3012002F051FA03F091FF00248F
:101F900005EB4400FEF744FD074606EB4400FEF760
:101FA0003FFD07EB002081B2204602F077FA601C6B
:101FB000C4B2212CECD3F8BD10B58F20FEF730FD54
:101FC00004069020FEF72CFD04EB00449120FEF760
:101FD00027FD04EB00249220FEF722FD2044064C4E
:101FE000010CE060082002F053FAA089BDE810401F
:101FF00081B2092002F04CBA380C002010B5002143
:102000008F20FEF73CFD00219020FEF738FD0021D7
:102010009120FEF734FD00219220FEF730FDBDE84F
:102020001040FFF7C9BF10B502F0BEFC01F0FEFC86
:1020300002F0E8FBBDE8104002F052BC002300298A
:1020400098BF7047F0B40026D2E902C4644508BFC7
:1020500034460BD01468556814F80C400CF1010C90
:102060009CFBF5F705FB17CCC2F808C0C4545B1CF9
:102070008B42E9D3F0BC704770B50C46050018BF21
:10208000012D0ED0022D18BF032D0AD0042D1CBF28
:10209000052D062D05D040F247321FA12DA006F0D8
:1020A0004BFD002C18BF012C21D0022C18BF032C93
:1020B0001DD0042C18BF052C19D0062C18BF072CD6
:1020C00015D0082C18BF092C11D00A2C18BF0B2CC6
:1020D0000DD00C2C18BF0D2C09D00E2C18BF0F2CB6
:1020E00005D04FF452720CA124A006F025FDA007E4
:1020F000010F0F2000FA01F224F0030000F18040EC
:1021000000F58030836823EA02028260826805FA63
:1021100001F11143816070BD2E2E5C6669726D778E
:102120006172655C6E3332673435785F7374645FF7
:102130007065726970685F6472697665725C7372EB
:10214000635C6E3332673435785F6770696F2E6316
:102150000000000049535F4750494F5F45585449BC
:102160005F504F52545F534F5552434528506F7242
:1021700074536F75726365290000000049535F470F
:1021800050494F5F50494E5F534F55524345285079
:10219000696E536F757263652900000070B50D4656
:1021A0000446012818BF022C00F0E081042C18BF5F
:1021B000082C00F0DB81A4F5A01010381CBFA4F59A
:1021C000A010B0F1300000F0D181A4F5B01040387B
:1021D0001CBFA4F5B010B0F1C00000F0C781A4F599
:1021E000C010B0F580701CBFA4F5C010B0F5007031
:1021F00000F0BC81A4F5C010B0F540701CBFA4F580
:10220000C010B0F5023000F0B181A4F5C010B0F5F7
:10221000033018BFB4F5805F00F0A881B4F5E91F62
:1022200018BFB4F5EA1F00F0A181B4F5EB1F18BF89
:10223000B4F5004F00F09A816FF40010C4421CBF47
:10224000A4F50010B0F1020000F09081A4F5001098
:10225000001F1CBFA4F50010B0F1080000F086813B
:10226000A4F5001010381CBFA4F54010B0F5807024
:1022700000F07C81A4F54010B0F500701CBFA4F5FF
:102280004010B0F5806000F07181FB4884421CBFB3
:102290006FF08040C44200F06981F84884421CBF5E
:1022A000F748844200F06281F64884421CBFF64839
:1022B000844200F05B81F54884421CBFF4488442AC
:1022C00000F05481F34884421CBFF348844200F07C
:1022D0004D81F24884421CBFF148844200F046819F
:1022E000F04884421CBFF048844200F03F81A4F1D2
:1022F0008040B0F5F2101CBFA4F18040B0F5F4109E
:1023000000F03481A4F18040B0F5F6101CBFE7481E
:10231000844200F02B81E64884421CBFE548844299
:1023200000F02481A4F18040B0F190701CBFE2481D
:10233000844200F01B81E14884421CBFA4F180402C
:10234000B0F1846000F01281DD4884421CBFDD489A
:10235000844200F00B81DC4884421CBFDB4884428D
:1023600000F00481DA4884421CBFDA48844200F05D
:10237000FD80D94884421CBFD848844200F0F680D2
:10238000D74884421CBFD748844200F0EF80D6482B
:1023900084421CBFD548844200F0E880D44884427F
:1023A0001CBFD448844200F0E180A4F18040B0F525
:1023B00079101CBFA4F18040B0F57B107ED0CE48D0
:1023C00084421CBFCD48844278D0CD4884421CBF93
:1023D000CC48844272D0CC4884421CBFCB48844253
:1023E0006CD0CB4884421CBFCA48844266D0CA48DD
:1023F00084421CBFC948844260D0C94884421CBF83
:10240000C84884425AD0C84884421CBFC748844246
:1024100054D0C74884421CBFA4F10050B0F580508E
:102420004CD0A4F10050B0F580401CBFA4F1005086
:10243000B0F5004042D0BF4884421CBFBE48844231
:102440003CD0BE4884421CBFBD48844236D0BD4803
:1024500084421CBFBC48844230D0BC4884421CBF6C
:10246000BB4884422AD0BB4884421CBFBA4884423D
:102470007CD0A4F5001080381CBFA4F5B010B0F1DA
:10248000800073D0A4F1815080381CBFA4F181502A
:10249000B0F140006AD0A4F1815020381CBFA4F1F3
:1024A0008150B0F1100061D0A4F1815008381CBFF8
:1024B000A4F18150B0F1040058D000E056E0A4F13E
:1024C0008150801E1CBF6FF08150C4424ED0A4F1D9
:1024D0008050B0F500401CBFA4F18050B0F58040A2
:1024E00044D0A4F18050B0F5005018BFB4F1102FC3
:1024F0003CD0A4F18050B0F500601CBFA4F1805026
:10250000B0F5806032D0A4F18050B0F500701CBFEF
:10251000A4F18050B0F5807028D0A4F180508038AC
:102520001CBFA4F18050B0F140001FD0A4F1805036
:1025300020381CBFA4F18050B0F1100016D0A4F1D7
:10254000805008381CBFA4F18050B0F104000DD0B9
:10255000A4F18050801E1CBF6FF08050C44205D093
:1025600040F27A227DA18CA006F0E6FA002D18BF79
:10257000012D05D040F27B2278A18DA006F0DCFA77
:10258000924A14F0004F18BFD0691ED090491FFA2C
:1025900084FC04EA0106C4F340510B01A1B2994046
:1025A000B6F5401F21D014F4801F24D014F4001F6E
:1025B0004FF00303C4F3034603FA06F318BF1B04EA
:1025C000984314F0E04F52D11EE114F0804F18BF31
:1025D000106ADBD114F0005F18BF506AD6D114F036
:1025E000805F14BF906A5068D0E7536820F0706035
:1025F00023F07063FAE014F0807F25D014F0040F0C
:102600001AD014F0007F20EA01000ED035B15368D3
:1026100043F0010343F070635360F8E0516821F028
:10262000010141F070615160F2E0536823F0010351
:1026300043F070635360E9E04CF0040C0CFA03F3D0
:102640009843002DEAD0E2E714F0806F11D014F027
:10265000080F0FD014F0007F20EA01000BD03DB12D
:10266000536843F0080343F070635360CFE0CDE05C
:10267000B0E0C5E0BCE0B4E000040080020011401E
:102680000600114020001440300014404000164065
:10269000C0001640000218400003184000041A4011
:1026A000000C1A4000101C4000301C40010030405B
:1026B0000200304003003040040020410400204369
:1026C0000800204408002046100034402000344018
:1026D000300034404000364080003640C000364074
:1026E000000238400003384000043A40000C3A40F1
:1026F00000103C4000303C4001001020020010203F
:102700000300102004001220080012200C001220E8
:10271000100014203000142040001620C0001620A5
:1027200000011820000218200003182000041A20BD
:10273000000C1A200100202002002020040020208C
:1027400008002020100034203000342040002020D9
:102750008000202000012020000220202E2E5C6618
:1027600069726D776172655C6E3332673435785F9C
:102770007374645F7065726970685F6472697665AE
:10278000725C7372635C6E3332673435785F677086
:10279000696F2E630000000049535F4750494F5F47
:1027A00052454D415028526D7050696E290000000D
:1027B00049535F46554E4354494F4E414C5F535425
:1027C00041544528436D6429000000000000014089
:1027D00000003070516821F0080141F070615160D3
:1027E00016E0536823F0080343F0706353600DE074
:1027F0004CF0080C0CFA03F39843002DEAD02FE7B5
:10280000884314F0E04F01D140F0706005B10843F7
:1028100014F0004F1CBFD06170BD14F0804F1CBF7E
:10282000106270BD14F0005F1CBF506270BD14F0E8
:10283000805F14BF9062506070BD00002DE9F041D0
:1028400004460026A0F180400D46B0F584301CBF40
:10285000A4F18040B0F586301CD0A4F18040B0F5E2
:1028600088301CBFA4F18040B0F58A3012D0A4F1AA
:102870008040B0F58C301FBFA4F18040B0F58E30A1
:10288000A4F18040B0F5903004D0BE223FA14EA00C
:1028900006F052F9E878002818BF042810D028283C
:1028A00018BF48280CD0142818BF102808D01C289E
:1028B00018BF182804D0BF2234A14AA006F03CF962
:1028C000288820B9C02231A151A006F035F9E87856
:1028D00000F00F0710F0100F0FD0A878002818BFD5
:1028E000022808D0012818BF032804D0C72227A136
:1028F00050A006F021F9A878074328784FF00F0C74
:1029000010F0FF0F4FF0010318BF216819D02A887B
:1029100003FA06F0024082420FD1B2000CFA02F82C
:1029200021EA080107FA02F21143EA78282A08BFCF
:10293000606102D0482A08BF2061761C082EE6D3C9
:1029400021602888FF2886BF62680020BDE8F081EA
:1029500000F108012E8803FA01F10E408E420FD1DA
:1029600086000CFA06F822EA080207FA06F6324355
:10297000EE78282E08BF6161EE78482E08BF2161ED
:10298000401C0828E4D36260BDE8F0812E2E5C660E
:1029900069726D776172655C6E3332673435785F6A
:1029A0007374645F7065726970685F64726976657C
:1029B000725C7372635C6E3332673435785F677054
:1029C000696F2E630000000049535F4750494F5F15
:1029D000414C4C5F504552495048284750494F7828
:1029E0002900000049535F4750494F5F4D4F444510
:1029F000284750494F5F496E697453747275637408
:102A00002D3E4750494F5F4D6F646529000000001F
:102A100049535F4750494F5F50494E284750494FEF
:102A20005F496E69745374727563742D3E50696E9C
:102A30002900000049535F4750494F5F53504545B7
:102A400044284750494F5F496E69745374727563E7
:102A5000742D3E4750494F5F5370656564290000EF
:102A600070B505460026A0F180400C46B0F58430D4
:102A70001CBFA5F18040B0F586301DD0A5F1804087
:102A8000B0F588301CBFA5F18040B0F58A3013D076
:102A9000A5F18040B0F58C301FBFA5F18040B0F5A6
:102AA0008E30A5F18040B0F5903005D040F229126B
:102AB0001BA12AA006F040F8012C18BF022C28D038
:102AC000042C18BF082C24D0102C18BF202C20D088
:102AD000402C18BF802C1CD0B4F5807F18BFB4F5F3
:102AE000007F16D0B4F5806F18BFB4F5006F10D01A
:102AF000B4F5805F18BFB4F5005F0AD0B4F5804F1D
:102B000018BF052C05D04FF4957205A11AA006F048
:102B100013F8A868204218BF0126304670BD000097
:102B20002E2E5C6669726D776172655C6E333267FA
:102B30003435785F7374645F7065726970685F6460
:102B400072697665725C7372635C6E3332673435BA
:102B5000785F6770696F2E630000000049535F471C
:102B600050494F5F414C4C5F5045524950482847AF
:102B700050494F782900000049535F4745545F474B
:102B800050494F5F50494E2850696E29000000009F
:102B900070B50446A0F180400D46B0F584301CBFEE
:102BA000A4F18040B0F586301DD0A4F18040B0F58E
:102BB00088301CBFA4F18040B0F58A3013D0A4F156
:102BC0008040B0F58C301FBFA4F18040B0F58E304E
:102BD000A4F18040B0F5903005D04FF4C57206A145
:102BE00014A005F0A9FF2DB940F28B1202A118A084
:102BF00005F0A2FF656170BD2E2E5C6669726D776F
:102C00006172655C6E3332673435785F7374645F0C
:102C10007065726970685F6472697665725C737200
:102C2000635C6E3332673435785F6770696F2E632B
:102C30000000000049535F4750494F5F414C4C5FD3
:102C4000504552495048284750494F7829000000C4
:102C500049535F4750494F5F50494E2850696E298C
:102C60000000000070B50446A0F180400D46B0F5AC
:102C700084301CBFA4F18040B0F586301DD0A4F193
:102C80008040B0F588301CBFA4F18040B0F58A3098
:102C900013D0A4F18040B0F58C301FBFA4F1804068
:102CA000B0F58E30A4F18040B0F5903005D040F200
:102CB000731206A114A005F03FFF2DB94FF4BA72AC
:102CC00002A118A005F038FF256170BD2E2E5C66AC
:102CD00069726D776172655C6E3332673435785F27
:102CE0007374645F7065726970685F647269766539
:102CF000725C7372635C6E3332673435785F677011
:102D0000696F2E630000000049535F4750494F5FD1
:102D1000414C4C5F504552495048284750494F78E4
:102D20002900000049535F4750494F5F50494E28E2
:102D300050696E290000000000B583B001A9002091
:102D400002F0F2FD6946002002F088FD0C489DF873
:102D5000041001719DF8051041719DF806108171F4
:102D60009DF8011081709DF80210C1709DF803104C
:102D700001F5FA6101809DF80010C17103B000BD3A
:102D80002000002001A005F051FAFBE7766F69648E
:102D900020486172644661756C745F48616E646C52
:102DA000657228766F6964290D0A000070B51D4DA3
:102DB000A8B0A878002804BF28B070BD0026AE7067
:102DC000194A1AA11AA805F041FA1C480090431D9F
:102DD00000F115021AA101A805F038FA01A8FDF7C3
:102DE00037FA84B21AA8FDF733FA82B201AB1AA9F6
:102DF0000120009403F066F92878401CC0B22870C6
:102E000003283CBF28B070BD2E70BFF34F8F0F4812
:102E100001680F4A01F4E06111430160BFF34F8F75
:102E200000BFFDE7C2020020040000206D6F646255
:102E300075735F696E666F2F25730000D8160020CA
:102E400025735F25735F2573000000000CED00E023
:102E50000400FA05044901208870AFF20702034913
:102E60000A2005F0C1B90000C2020020989F0400AA
:102E7000024A03490A2005F0B7B90000552E0008A0
:102E8000989F040010B5B4B00E4A0FA127A805F012
:102E9000DDF911480090431D00F115020FA101A8B2
:102EA00005F0D4F901A8FDF7D3F984B227A8FDF7FE
:102EB000CFF982B201AB27A90120009403F002F9F7
:102EC00034B010BD040000206D6F646275735F69DB
:102ED0006E666F2F25730000D816002025735F25BE
:102EE000735F2573000000000848C178012918BFEE
:102EF000704710B50021C17001F0F4FD002808BF33
:102F000010BDBDE8104001F007BA0000C202002069
:102F100004490120C870AFF2070203490B2005F0F5
:102F200063B90000C2020020C0D40100024A034974
:102F30000B2005F059B90000112F0008C0D4010082
:102F400030B40023002A88BFDFF834C011D9C45C34
:102F500001EB43050CEB1414247801F81340C45C16
:102F60005B1C04F00F049BB21CF804406C709A4286
:102F7000EDD84FF6FF7030BC00EA42007047000009
:102F80005E9200082DE9F84380464FF48057ADF873
:102F900000700420394E8DF8030000246946304645
:102FA000FFF74CFC00254FF400513046FFF7F0FDD1
:102FB000022005F057FE4FF400513046FFF752FE55
:102FC0006006040E4FF480513046FFF749FD00289B
:102FD0001CBF601CC4B2012005F044FE681CC5B2D1
:102FE000082DE0D310254FF00109B8F1000F4FF480
:102FF0000051304620D0FFF7CBFDADF800708DF8C2
:1030000003508DF8029069463046FFF717FC2902FD
:103010003046FFF7BDFD022005F024FE6902304670
:10302000FFF720FE022005F01DFE69023046FFF783
:10303000AFFD2046BDE8F883FFF7AAFDADF80070AC
:103040008DF803508DF8029069463046FFF7F6FB85
:103050004FF480513046FFF705FE022005F002FED6
:103060004FF400513046FFF7FDFD022005F0FAFD58
:103070004FF400513046FFF78BFDDAE7000C0140BA
:10308000F8B505464FF48050ADF8000010208DF8DB
:1030900003000120184E8DF8020069463046FFF704
:1030A000CDFB71143046FFF773FD002415F0800F3F
:1030B0004FF48051304602D0FFF7D4FD01E0FFF716
:1030C00067FD6806050E022005F0CCFD4FF40051A7
:1030D0003046FFF7C7FD022005F0C4FD4FF4005154
:1030E0003046FFF755FD022005F0BCFD601CC4B260
:1030F000082CDBD3F8BD0000000C014038B54FF4BC
:103100008050ADF8000010208DF8030001200F4C16
:103110008DF8020069462046FFF790FBA114204677
:10312000FFF7A0FD61142046FFF79CFD022005F08B
:1031300099FDA1142046FFF72BFD022005F092FD1A
:1031400061142046BDE83840FFF722BD000C014065
:1031500038B54FF48050ADF8000010208DF8030012
:1031600001200C4C8DF8020069462046FFF766FBF3
:10317000A1142046FFF70CFD61142046FFF772FDF5
:10318000022005F06FFDA1142046BDE83840FFF78E
:1031900069BD0000000C0140F8B54FF48056ADF851
:1031A00000600420264D8DF803000024694628465F
:1031B000FFF744FBA9142846FFF754FD012005F052
:1031C00051FD69142846FFF74DFD012005F04AFD29
:1031D000A9142846FFF744FC50B3601CC4B2FA2C73
:1031E0001FD9ADF8006010208DF8030001208DF884
:1031F000020069462846FFF721FB4FF4805128461C
:10320000FFF7C6FC4FF400512846FFF72BFD0220C4
:1032100005F028FD4FF480512846FFF723FD0120DB
:10322000F8BD4FF480512846FFF71AFC0028D4D18E
:103230004FF400512846FFF7ABFC0020F8BD00001A
:10324000000C014010B4C268D0F804C0531C93FBBA
:10325000FCF40CFB1433D0F808C0634504BF10BC69
:10326000704703689954C1684268491C91FBF2F3A6
:1032700002FB1311C16010BC704700002DE9F04F34
:10328000584D83B00026287B10B1012812D0A2E04F
:103290006879401C687101F081F90A2152A004F09C
:1032A0005BFFC8216E70534A0F2004F09DFF012080
:1032B000287390E001F066F9002804BF03B0BDE870
:1032C000F08F4D4C206801F003FE01464B48226808
:1032D000FEF7B4FE4AA14948FCF79EFF002876D0CD
:1032E0002C214648FCF7AAFF00286CD0441C6E71C4
:1032F000801CFDF73BFC07462046FDF737FC00EB42
:10330000800007EB4000C0B210282CBF10380830F6
:10331000C7B2201DE41CFDF729FC80462046FDF7BE
:1033200025FC00EB800008EB400000F0FF08201DAA
:10333000E41CFDF71BFC81462046FDF717FC00EB63
:10334000800009EB400000F0FF092DA12B48FCF79D
:1033500063FF00F108040930FDF708FC82462046AF
:10336000FDF704FC00EB80000AEB400000F5FA607A
:103370000290201DE41CFDF7F9FB82462046FDF774
:10338000F5FB00EB80000AEB400000F0FF0A04F1BF
:10339000030B201DFDF7EAFB04465846FDF7E6FB4C
:1033A00000EB800004EB4000C2B23B465146CDE941
:1033B0000089029802F0ACFE2E73012003B0BDE834
:1033C000F08F04E0FFE768790A2803D105E0687907
:1033D0000A2802D02E730020F0E76E712E730220AF
:1033E000ECE700003C00002041542B43434C4B3F92
:1033F0000D0A0000BD45000838000020FC10002028
:103400002B43434C4B3A00002DE9F047B54E0024C6
:10341000DFF8D492B07BADF5C46D25464FF00108BE
:103420002746092880F05681DFE800F005121A2CA3
:103430009098AEFDFC00F078012807BFF7700420DB
:1034400086F80E800DF5C46D18BFBDE8F08796E0D4
:1034500064217770A54A0F2004F0C6FE02208EE09A
:1034600001F090F8002870D001F098F81121A0A088
:1034700004F072FE642177709C4A0F2004F0B4FEC1
:1034800003207CE001F07EF8002879D0D9F8000014
:1034900001F01EFD01469B48D9F80020FEF7CEFD45
:1034A00099A19848FCF7B8FE002800F0138199A173
:1034B0009448FCF7B1FE1030044601782C2903D063
:1034C00010F8011F2C29FBD1001BA0F10108C82115
:1034D0006846FCF796FE424621466846FCF778FEB1
:1034E00004EB08008FA1FCF797FE002800F0F280A3
:1034F000841C81780DF5C1602C2907D014F8011BBC
:103500004155691C8DB221782C29F7D14755FCF71C
:10351000A6FE0546C8216846FCF773FE2A46611CD4
:103520006846FCF755FE0E2D09D005D9A9B24FF01B
:103530000102684600F0B8FFB77300F0CBB80E2167
:103540000022684600F0B0FFF6E719E064217770CA
:10355000664A0F2004F048FE052010E001F012F842
:1035600000280DD001F01AF808216FA004F0F4FD36
:10357000642177705D4A0F2004F036FE0620B07398
:103580000DF5C46DBDE8F08700F0FCFF002804BF16
:103590000DF5C46DBDE8F087D9F8000001F098FC86
:1035A00001465848D9F80020FEF748FD61A155486A
:1035B000FCF732FE28B310F8061F2C2904D010F8AF
:1035C000011F641C2C29FAD1DFF870817125A0EB52
:1035D000040A08F52379012C02D0022C12D02EE027
:1035E0005046FDF7C3FAA5EB4000C2B254A10DF25C
:1035F000DC5004F02BFE9DF8DC0588F88C0289F87D
:1036000001701CE00AF10100FDF7B0FA04465046D3
:10361000FDF7ACFA00EB800004EB4000A5EB4000A6
:10362000C2B201E042E00DE045A10DF2DC5004F031
:103630000DFEBDF8DC05A8F88C0289F802700720A1
:10364000B0739DE70E213FA004F086FD318A41480A
:1036500004F082FD022133A004F07EFD06213EA08D
:1036600004F07AFD728A36A10DF5BC6004F0EEFD1F
:103670000DF5BC60FCF7ECFD81B20DF5BC6004F00B
:103680006BFD022132A004F067FD718A344804F01A
:1036900063FD032133A004F05FFDF770C82177704C
:1036A000124A0F2004F0A0FD082068E700F06AFF2E
:1036B00000283FF465AFD9F8000001F009FC01468D
:1036C0001048D9F80020FEF7B9FC27A10D48FCF7F7
:1036D000A3FD08B1B77353E786F80080B770B773DE
:1036E0004EE700003C00002038000020BD450008E7
:1036F00041542B4D515454524541443D302C310DD1
:103700000A000000FC1000202B4D5154545245413A
:10371000443A00002B4D515454524541443A203014
:103720002C302C00222C000041542B4353510D0A05
:10373000000000002B4353513A2000004C1400209D
:103740002564000041542B4D5154545055423D3096
:103750002C2200004C0C0020302C302C302C00008F
:10376000140D0020220D0A004F4B00002DE9F041FE
:10377000214C224F0025A07920B101281FD002281A
:1037800031D02DE01E4EA570306801F0A1FB01463E
:103790001C483268FEF752FC00F000FF4FF4004175
:1037A0003846FFF75FFA4FF4FA716570164A0F203A
:1037B00004F01AFD0120A0710020BDE8F08100F0A6
:1037C000E1FE68B14FF400413846FFF7E1F941F2FC
:1037D000883165700C4A0F2004F006FD0220A071AC
:1037E0000020BDE8F08100F0CDFE00281CBFA571CF
:1037F0000120BDE8F08100003C00002000080140ED
:1038000038000020FC100020BD45000838B54FF4FA
:103810000040ADF8000010208DF803000120064C98
:103820008DF8020069462046FFF708F84FF4004182
:103830002046FFF717FA38BD000801404B4810B585
:10384000C07B0B2828BF10BDDFE800F0061B29371E
:103850004957650D6F0D8400FFF788FF20B10128DF
:1038600007D0022809D010BDBDE81040002005F0A7
:103870009FBC3E490120C87310BD3C490020C8735D
:1038800010BD01F0D5F9002808BF10BD012802D0F5
:103890000228F2D010BD35480221C17310BD01F0DD
:1038A00077F9002808BF10BD012802D00228E4D013
:1038B00010BD2E490320C87310BD01F019F900286E
:1038C00008BF10BD012806D0022818BF10BD002176
:1038D0002648C17310BD25490420C87310BDFFF7E9
:1038E000CDFC002808BF10BD012802D00228C4D09A
:1038F00010BD1E490820C87310BD02F08DFB0028C2
:1039000008BF10BD012802D00228B6D010BD17494B
:103910000620C87310BDFDF7DBF8002808BF10BDF6
:103920000128E6D00228A8D010BD00F0E9F8002850
:1039300008BF10BD012802D002289ED010BD0B4840
:103940000A21C17301218170FFF79CFABDE8104084
:10395000FFF798BA05480178012902D100210170CA
:10396000C173BDE81040FFF74FBD00003C000020D0
:10397000010004484FF0100101D0FFF709B9FFF72B
:1039800071B9000000100140010004484FF08001AF
:1039900001D0FFF7FDB8FFF765B90000000801404E
:1039A000144A10B51078144C01280CD10020107066
:1039B0009178491CC9B2917001290FD090702021D3
:1039C0002046FFF7E5F805F06BF900284FF080017D
:1039D00020460AD0BDE81040FFF7DAB8FFF7ACF98F
:1039E00020212046FFF73EF9EDE7BDE81040FFF744
:1039F00039B9000016000020000801400100044809
:103A00004FF0010101D0FFF7C3B8FFF72BB9000059
:103A1000000C0140044901200870AFF207024FF486
:103A20007A7104F0E1BB0000160000202DE9F0419E
:103A30000B2000F00BFD0746092000F00DFD0646A7
:103A4000012000F0F3FC2C4C002520B9A5710D20BD
:103A500004F0C0FB6570A17921B3012937D0022998
:103A600018BFBDE8F08147F004010B2000F010FD05
:103A70000121002000F0F6FC16F0020F0FD000200C
:103A800002F016FA0021012000F0ECFC02210A20CD
:103A900000F0FEFC0020FDF723FC00F03DFCA571CA
:103AA000BDE8F081042000F0D1FC0546042000F0C0
:103AB000D3FC854288BFBDE8F0810120A071BDE83C
:103AC000F0410E4A40F6B8310D2004F08DBB60780D
:103AD000012818BFBDE8F0816570042000F0B6FC35
:103AE0000646042000F0B8FC86429CBF0220A0716C
:103AF000D5D8BDE8F0810000C6020020F59000088E
:103B000010B5A7488CB0407B0A2833D2DFE800F01C
:103B10000519354761A0B9DBFDFB00F03FFD192118
:103B2000A0A004F019FB9E4C00204FF49671607029
:103B3000A34A0F2004F058FB012060730CB0002052
:103B400010BD00F01FFD002804BF0CB010BD9D4C3F
:103B5000206801F0BDF901469B482268FEF76EFA25
:103B60009AA19948FCF758FB002800F013818C4972
:103B7000022048730CB0002010BD00F00FFD1E2184
:103B800093A004F0E9FA864C00204FF4967160701F
:103B90008B4A0F2004F028FB032000F092B800F0BD
:103BA000F1FC002804BF0CB010BD864C206801F069
:103BB0008FF9014684482268FEF740FA83A18248C3
:103BC000FCF72AFB002800F0E580754904204873C3
:103BD000D0E700F0E3FC0F2185A004F0BDFAC62178
:103BE000B820CDE90001EA23312285A102A804F022
:103BF0002DFB02A8FCF72CFB81B202A804F0ACFA62
:103C000042F6483282A102A804F020FB02A8FCF789
:103C10001FFB81B202A804F09FFA02217DA004F0EC
:103C20009BFA10217C4804F097FA02217BA004F053
:103C300093FA13217AA004F08FFA594C002041F234
:103C4000883160705E4A0F2004F0CEFA052038E01B
:103C500000F098FC002804BF0CB010BD594C20683F
:103C600001F036F9014658482268FEF7E7F971A1DC
:103C70005548FCF7D1FA00287ED049490620487300
:103C800078E700F08BFC1D2170A004F065FA624A11
:103C900076A102A804F0DAFA02A8FCF7D9FA81B2F8
:103CA00002A804F059FA052171A004F055FA3C4C21
:103CB000002041F288316070414A0F2004F094FAEC
:103CC0000720607356E700F05DFC002804BF0CB0CD
:103CD00010BD3C4C206801F0FBF801463A482268D0
:103CE000FEF7ACF939A13848FCF796FA044662A110
:103CF0003548FCF791FA002C18BF00284AD0284913
:103D00000820487336E721E0FFE700F047FC1A215E
:103D10005CA004F021FA404A54A102A804F096FAEB
:103D200002A8FCF795FA81B202A804F015FA052161
:103D30004FA004F011FA1A4C002041F28831607053
:103D40001F4A0F2004F050FA0920BAE700F01AFCCD
:103D5000002804BF0CB010BD1A4C206801F0B8F860
:103D6000014619482268FEF769F918A11648FCF7C0
:103D700053FA044640A100E00CE01348FCF74CFA6B
:103D8000002C18BF002805D00549002048730CB04E
:103D9000012010BD0249002048730CB0022010BD64
:103DA0003C00002041542B4D5154544346473D2282
:103DB000636163686564222C302C310D0A000000B9
:103DC000BD45000838000020FC1000204F4B0000CB
:103DD00041542B4D5154544346473D226B65657009
:103DE000616C697665222C302C3132300D0A00006E
:103DF00041542B4D515454434F4E4E3D302C2200D4
:103E000025642E25642E25642E2564222C000000B6
:103E1000256400002C22000004000020222C000059
:103E20002275736572222C22302E313233343536AE
:103E3000220D0A002B4D5154545552433A2022630F
:103E40006F6E6E222C302C300000000041542B4D40
:103E50005154545355423D302C226D6F646275733A
:103E60005F636F6E74726F6C2F000000257300002B
:103E7000222C300D0A0000002B4D51545453554252
:103E80003A20300041542B4D5154545355423D304B
:103E90002C226D6F646275735F74696D652F00000D
:103EA000FEE700002DE9F047FF4E0024DFF8FC8319
:103EB000B0889AB027460228C0F01F82811E404673
:103EC00004F0A8FEB0883278404410F8011C9142FA
:103ED00040F0138210F8020C7178884240F00D8295
:103EE00098F8032098F8023006F1060A02EB032244
:103EF00095B298F80010BAF8002098F801008A42AC
:103F000040F0FB8108F5FA79052854D00BDC6F46A8
:103F1000012810D00522032800F07F81042800F03A
:103F2000B08100F0EAB9062800F00A81102800F0FC
:103F3000308100F0E2B9042D00F2DF8198F805200D
:103F400098F8043002EB032292B25319052B00F2C9
:103F5000D4818DF800108DF80100D11D01200F29AA
:103F600005D312F0070F14BF00EBD200D0088DF874
:103F7000020010F0FF0F1CBF7088E8400AD0E1007B
:103F800020FA01F13A19D170611CCCB29DF80210EF
:103F9000A142F4D89DF80200401DC4B2A11E3846CB
:103FA00004F038FE3819717800F8021C317800F8F6
:103FB000011C00F063B998F8052098F80430072D2B
:103FC00002EB032294B200F298818DF800108DF874
:103FD0000100280A8DF80200200A8DF804008DF8EF
:103FE00003508DF805400621684604F013FE7078F2
:103FF0008DF8060030788DF80700082D28D2DFE80C
:1040000005F0041751276D27737EB4F57F4F40F0FC
:10401000358105F0D9F8BFF34F8FA5480168A54A4F
:1040200001F4E06111430160BFF34F8F00BFFDE772
:10403000022000F0FBF9002840F02081032000F06E
:10404000F5F9012840F01A81B4F57F4F05D0BCB1D5
:10405000002F40F0528100F011B9002000F0E6F985
:10406000002840F00B810121084600F0FBF90121F6
:104070000846FDF745FE012001F01AFF01200EE081
:104080000021012000F0EEF900210120FDF738FEAB
:104090000A20A9F81400002001F00AFF0020FDF713
:1040A0001FF9EBE0B4F57F4F01D04CB110E00121D6
:1040B000022000F0D7F901210220FDF721FE07E0E0
:1040C0000021022000F0CEF900210220FDF718FEA9
:1040D000022000F0ABF9FDF787F8CFE0B4F57F4F91
:1040E00008BFFDF78BFFC9E0B4F57F4F7DD10021FC
:1040F000084600F0B7F90020A9F81600BEE0B4F5B4
:104100007F4F01D074B1B9E00121042000F0AAF979
:1041100001210420FDF7F4FD042000F087F9FDF7EC
:1041200027F8ABE00021042000F09CF900210420D6
:10413000FDF7E6FD042000F079F9FDF719F89DE0A0
:1041400098F8052098F80430212D02EB032294B250
:1041500062D88DF800108DF80100280A8DF8020051
:10416000200A8DF80400EFB28DF803708DF8054039
:104170000621684604F04EFD70788DF80600307810
:104180008DF8070000F0C8F82AF8154001213846DC
:1041900040E098F8052098F80430212D02EB032226
:1041A00092B29CBFAB18222B36D8002A0ED908EB4E
:1041B000440393F808C0DB790CEB032304EB050CF4
:1041C0002AF81C30631CDCB2A242F0D88DF8001033
:1041D0008DF80100280A8DF80200ECB2100A8DF863
:1041E00003408DF80400D5B200E047E08DF805509B
:1041F00098F806008DF806000721684604F00AFDCD
:1042000070788DF8070030788DF8080000F084F899
:1042100029462046FDF777FD6FE098F8053098F8BD
:1042200004C0212D03EB0C239BB29CBF03EB050CB8
:10423000BCF1220F61D88DF800108DF801005800F4
:104240008DF80200281907EB44013AF810004FEAF4
:10425000102C81F803C00871601CC4B29C42F1D9D3
:1042600002EB4300C4B2A11E384604F0D3FC381957
:10427000717800F8021C317800F8011C00F04CF84D
:104280003BE098F8053098F804C00D2D03EB0C23A3
:104290009BB29CBF05EB030CBCF10E0F2DD88DF823
:1042A00000108DF8010007E05600002002170020E2
:1042B0000CED00E00400FA0558008DF80200281902
:1042C00007EB440139F810004FEA102C81F803C0C5
:1042D0000871601CC4B29C42F1D902EB4300C4B225
:1042E000A11E384604F096FC3819717800F8021CBB
:1042F000317800F8011C00F00FF80020B288014668
:10430000002A05D908F80010401C80B28242F9D872
:10431000B1801AB0BDE8F08770B53C4EADF5C36D05
:10432000B51F30788DF8F00301208DF8F1038DF87A
:10433000F203A8788DF8F3030421FCA804F06AFCCA
:1043400068788DF8F40328788DF8F50330788DF8C7
:10435000F60303208DF8F70344208DF8F8030020BE
:10436000FCAC36F8101004EB40020B0A401C5372F0
:10437000C0B291722228F4D94721A01D04F04AFC52
:1043800068788DF83D0428788DF83E0430788DF8F3
:104390003F0404208DF840041C208DF841041C4B80
:1043A000002004EB400233F81010401C4FEA112C9F
:1043B00082F852C0C0B282F853100E28F1D91F21E2
:1043C00004F1510004F026FC68788DF85E0428782A
:1043D0008DF85F0470240F4A0FA10DF2E45003F032
:1043E00035FF224602A9FCA8FEF7AAFD04460DF2FD
:1043F000E450FBF72DFF82B202AB0DF2E451012035
:10440000009401F05FFE0DF5C36D70BD5C000020EF
:10441000F6180020040000206D6F646275735F73EE
:1044200074617475732F2573000000000F2884BF1A
:1044300000207047012101FA00F003494988084033
:1044400018BF01207047000056000020014931F8D4
:1044500010007047F6180020014931F8100070472D
:104460005C0000200F2888BF7047012202FA00F08C
:104470000129064A04BF5188084305D0002906BF18
:10448000518821EA00007047508070475600002094
:10449000014A22F810107047F6180020014A22F84D
:1044A000101070475C0000202DE9F04704460025FD
:1044B000314E9CB00F460120AAB1012A1CBF1CB08E
:1044C000BDE8F08770700120FCF7CDFE35703A46EC
:1044D00021462A48FCF75AFB29490880FFF7E2FCED
:1044E0001CB0BDE8F08770700120FCF7BCFE357091
:1044F000206802908DF80C5002A8FBF7B0FE1FFA5E
:1045000080FAA088ADF808008DF80A5002A8FBF7E1
:10451000A6FE00F0FF09E088ADF808008DF80A500B
:1045200002A8FBF79CFE00F0FF082089ADF8080008
:104530008DF80A5002A8FBF792FEC7B26089ADF869
:1045400008008DF80A5002A8FBF789FEC6B2A089C0
:10455000ADF808008DF80A5002A8FBF780FEC0B243
:10456000CDE900603B4642464946504601F0D0FD49
:104570001CB0BDE8F0870000C20200200217002036
:104580005A00002004494878002808BF70470120DD
:1045900000224A70704700003C0000200020054ABD
:1045A00001461154401C80B2B0F57A7FF9D302481D
:1045B00081827047FC1000203C000020014901204E
:1045C000487070473C000020704738B535208DF8A2
:1045D000000000248DF801408DF8024001258DF87F
:1045E0000350684600F032F826208DF800008DF860
:1045F00001408DF802408DF80350684600F026F81F
:1046000027208DF800008DF801408DF802408DF8CC
:104610000350684600F01AF834208DF8000002209C
:104620008DF801008DF802408DF80350684600F0C7
:104630000DF808208DF800008DF801408DF802502B
:104640008DF80350684600F001F838BD70B5044697
:10465000C0780F25002818BF012804D07D2223A18F
:104660002FA004F069FA6078102804D37E221FA1DD
:104670003A4804F061FAA078102804D37F221BA1E5
:10468000374804F059FAE078012210B33548006841
:10469000637800F4E060C0F5E060000AC0F1040156
:1046A00003FA01F1A37825FA00F0184008432178B5
:1046B000000101F1E02181F80004207800F01F01E1
:1046C00002FA01F14009800000F1E020C0F8001179
:1046D00070BD207800F01F0102FA01F1400980004E
:1046E00000F1E020C0F8801170BD00002E2E5C6645
:1046F00069726D776172655C6E3332673435785FED
:104700007374645F7065726970685F6472697665FE
:10471000725C7372635C6D6973632E6300000000EA
:1047200049535F46554E4354494F4E414C5F535495
:10473000415445284E5649435F496E69745374721B
:104740007563742D3E4E5649435F4952514368612B
:104750006E6E656C436D642900000000CCBA0008E1
:1047600088BA00080CED00E010B50446B0F5E06F23
:1047700018BFB4F5C06F0CD0B4F5A06F1CBFB4F572
:10478000806FB4F5407F04D06C2205A111A004F025
:10479000D3F91B4944F0FD7040F08060086010BD03
:1047A0002E2E5C6669726D776172655C6E3332675E
:1047B0003435785F7374645F7065726970685F64C4
:1047C00072697665725C7372635C6D6973632E6384
:1047D0000000000049535F4E5649435F5052494F15
:1047E000524954595F47524F5550284E5649435FDE
:1047F0005072696F7269747947726F757029000021
:104800000CED00E02DE9F0410B20FFF71FFE0746FD
:104810000920FFF721FE304C0646E17939B3002527
:1048200001293ED0022946D0032918BFBDE8F081F6
:1048300047F008010B20FFF72BFE01210020FFF7B6
:1048400011FE16F0040F0FD0002001F031FB002103
:104850000120FFF707FE03210A20FFF719FE0020C1
:10486000FCF73EFDFFF758FDE571BDE8F08105203E
:10487000FFF7ECFD00EB800045000520FFF7ECFDA5
:1048800000EB8000B5EB400F38BFBDE8F0810120A0
:10489000E071BDE8F041114A4FF4FA610E2003F0D7
:1048A000A3BCA078012806BFA5700220BDE8F08156
:1048B000E071BDE8F0810520FFF7C8FD00EB800046
:1048C00046000520FFF7C8FD00EB8000B6EB400F67
:1048D00028BF0320ECD2C7E7C6020020BD91000824
:1048E0002DE9F0410B20FFF7B1FD07460920FFF746
:1048F000B3FD2B4C0646217A39B30025012939D066
:1049000002293ED0032918BFBDE8F08147F04001DD
:104910000B20FFF7BDFD01210020FFF7A3FD16F0DE
:10492000100F0FD0002001F0C3FA00210120FFF783
:1049300099FD06210A20FFF7ABFD0020FCF7D0FC13
:10494000FFF7EAFC2572BDE8F0810720FFF77EFD46
:1049500005460820FFF780FD854238BFBDE8F0819D
:1049600001202072BDE8F0410E4A4FF4FA61102098
:1049700003F03ABC2079012804BF25712572BDE8F7
:10498000F0810720FFF762FD06460820FFF764FD6F
:10499000864224BF03202072D4D3BDE8F0810000FA
:1049A000C6020020A59100082DE9F0410B20FFF779
:1049B0004DFD06460920FFF74FFD2B4C054661795A
:1049C00039B30027012939D0022941D0032918BF62
:1049D000BDE8F08146F002010B20FFF759FD0121EF
:1049E0000020FFF73FFD15F0010F0FD0002001F070
:1049F0005FFA00210120FFF735FD01210A20FFF7B2
:104A000047FD0020FCF76CFCFFF786FC6771BDE8F2
:104A1000F0810420FFF71AFD05460320FFF71CFD77
:104A2000854238BFBDE8F08101206071BDE8F041EA
:104A30000E4A4FF4FA610C2003F0D6BB207801280F
:104A400006BF27700220BDE8F0816071BDE8F081EB
:104A50000420FFF7FBFC05460320FFF7FDFC854221
:104A600028BF0320F1D2D1E7C602002099910008A7
:104A700010B5040018BF012C04D0862203A111A098
:104A800004F05AF81648046210BD00002E2E5C6631
:104A900069726D776172655C6E3332673435785F49
:104AA0007374645F7065726970685F64726976655B
:104AB000725C7372635C6E3332673435785F707723
:104AC000722E630049535F46554E4354494F4E4141
:104AD0004C5F535441544528436D64290000000045
:104AE00000000E4201488078704700003C00002022
:104AF00070B51D4C0025607A10B1012813D010E06C
:104B00002079401C2071FFF749FD0B2117A003F00D
:104B100023FB64216570184A0F2003F065FB012018
:104B20006072002070BDFFF72DFD002808BF70BD2A
:104B3000124E306800F0CCF9014611483268FDF79A
:104B40007DFA10A10E48FBF767FB18B1657225715D
:104B5000012070BD20795A2898BF6572E1D925716E
:104B60006572022070BD00003C00002041542B43C0
:104B7000474154543F0D0A00BD450008380000204D
:104B8000FC1000202B43474154543A2031000000D0
:104B900070B51D4C0025207A10B1012813D010E00B
:104BA0002079401C2071FFF7F9FC0B2117A003F0BE
:104BB000D3FA64216570184A0F2003F015FB012019
:104BC0002072002070BDFFF7DDFC002808BF70BD1B
:104BD000124E306800F07CF9014611483268FDF74A
:104BE0002DFA10A10E48FBF717FB18B1257225719D
:104BF000012070BD20795A2898BF2572E1D925710E
:104C00002572022070BD00003C00002041542B435F
:104C1000455245473F0D0A00BD45000838000020B9
:104C2000FC1000202B43455245473A20302C3100E0
:104C3000814810B5C0790A283AD2DFE800F0052192
:104C40003B4850617989B9CA7C4C206800F040F932
:104C500001467B482268FDF7F1F9FFF79FFC04212C
:104C600078A003F079FA744C00204FF4FA61607078
:104C7000764A0F2003F0B8FA0120E071002010BD41
:104C8000FFF780FC002808BF10BD6C4C206800F0C6
:104C90001FF901466A482268FDF7D0F96CA16848FF
:104CA000FBF7BAFA002800F0C28063490220C871FD
:104CB000002010BD604C00204FF4FA616070634A20
:104CC0000F2003F091FA0320E071002010BDFFF7E0
:104CD00059FC0028ECD058490420C871E8E7FFF7D8
:104CE0005DFC0A215BA003F037FA534C00206421DD
:104CF0006070564A0F2003F077FA0520E071D7E77D
:104D0000FFF740FC002808BF10BD4C4C206800F0A5
:104D1000DFF801464A482268FDF790F950A148485B
:104D2000FBF77AFA00287DD043490620C871BFE717
:104D3000FFF734FC0B214EA003F00EFA3E4C00208E
:104D400064216070414A0F2003F04EFA07203EE0D4
:104D5000FFF718FC002808BF10BD384C206800F091
:104D6000B7F8014636482268FDF768F943A1344890
:104D7000FBF752FA00285AD04249D0F80720C1F870
:104D80009122D0F80B20C1F89522D0F80F20C1F85D
:104D90009922B0F81320A1F89D22407D81F89F024E
:104DA00001F523710020087523490820C8717FE7A9
:104DB000FFF7F4FB0A2134A003F0CEF91E4C0020CB
:104DC00064216070214A0F2003F00EFA0920E0717F
:104DD0006EE7FFF7D7FB002808BF10BD174C20680F
:104DE00000F076F8014616482268FDF727F929A158
:104DF0001348FBF711FAA8B122498268C1F8A12231
:104E0000C268C1F8A5220269C1F8A9224269C1F8A5
:104E1000AD228069C1F8B10201F52371002081F84B
:104E2000290000E003E00449C871012010BD0249D7
:104E30000020C871022010BD3C0000203800002076
:104E4000FC10002041540D0A00000000BD45000880
:104E50004F4B000041542B4350494E3F0D0A000078
:104E60002B4350494E3A205245414459000000001E
:104E700041542B4347534E3D310D0A002B434753BA
:104E80004E3A20004C14002041542B4943434944DE
:104E90000D0A00002B49434349443A20000000001A
:104EA00070B5102004F042F904004FF0000508BF6F
:104EB0002C4607D040F2DD50606004F037F9E56021
:104EC000A56020600148046070BD0000380000202B
:104ED0000146D1E90220801A44BF4968084470475E
:104EE00010B504001CBF012C042C05D040F2033285
:104EF0000AA118A003F020FE1B48002180F8201012
:104F000080F82010012C08BF012103D0042C0CBF15
:104F1000052110BD80F8201010BD00002E2E5C660B
:104F200069726D776172655C6E3332673435785FB4
:104F30007374645F7065726970685F6472697665C6
:104F4000725C7372635C6E3332673435785F7263A0
:104F5000632E630049535F5243435F4C53452852CD
:104F600043435F4C534529000010024010B5040034
:104F700018BFB4F5806F0DD0B4F5A06F1CBFB4F5A9
:104F8000C06FB4F5E06F05D040F2C31205A113A0C5
:104F900003F0D2FD1849486820F4E06020434860DF
:104FA00010BD00002E2E5C6669726D776172655CC3
:104FB0006E3332673435785F7374645F706572691D
:104FC00070685F6472697665725C7372635C6E337D
:104FD00032673435785F7263632E630049535F52E2
:104FE00043435F48434C4B5F444956285243435F19
:104FF00048434C4B290000000010024010B5044605
:10500000B0F5807F1CBFB4F5007FB4F5407F05D0BC
:1050100040F2333206A114A003F08EFD1B48016A52
:1050200021F440710162016A2143016210BD000058
:105030002E2E5C6669726D776172655C6E333267C5
:105040003435785F7374645F7065726970685F642B
:1050500072697665725C7372635C6E333267343585
:10506000785F7263632E630049535F5243435F521C
:105070005443434C4B5F535243285243435F525473
:1050800043434C4B536F7572636529000010024017
:1050900070B504460E480D46044200D12CB940F2CA
:1050A000FE320CA119A003F047FD214E002D04BFD4
:1050B000F069A04309D0012D05D040F2FF3205A1CF
:1050C0001CA003F039FDF0692043F06170BD0000C1
:1050D000003301412E2E5C6669726D776172655CEA
:1050E0006E3332673435785F7374645F70657269EC
:1050F00070685F6472697665725C7372635C6E334C
:1051000032673435785F7263632E630049535F52B0
:1051100043435F415042315F504552495048285205
:1051200043435F4150423150657269706829000005
:105130000010024049535F46554E4354494F4E417B
:105140004C5F535441544528436D642900000000CE
:1051500070B504460E480D46044200D12CB940F209
:10516000DF320CA119A003F0E7FC214E002D04BF93
:10517000B069A04309D0012D05D04FF4787205A184
:105180001CA003F0D9FCB0692043B06170BD0000E1
:105190000286E0FF2E2E5C6669726D776172655C37
:1051A0006E3332673435785F7374645F706572692B
:1051B00070685F6472697665725C7372635C6E338B
:1051C00032673435785F7263632E630049535F52F0
:1051D00043435F415042325F504552495048285244
:1051E00043435F4150423250657269706829000044
:1051F0000010024049535F46554E4354494F4E41BB
:105200004C5F535441544528436D6429000000000D
:1052100010B5040018BF012C05D04FF4517203A142
:1052200010A003F089FC1648046010BD2E2E5C66A9
:1052300069726D776172655C6E3332673435785FA1
:105240007374645F7065726970685F6472697665B3
:10525000725C7372635C6E3332673435785F72638D
:10526000632E630049535F46554E4354494F4E41A8
:105270004C5F535441544528436D6429000000009D
:105280003C044242324B30B45968324A11405A68A9
:1052900011F0006F02F480320CBF4FF0020C6FF47B
:1052A000F77C0CEB9141002A04BF2B4A514306D0F6
:1052B0005A6812F4003F14BF274A284A51435A68DB
:1052C000DFF898C012F00C0218BF042A03D0082A95
:1052D00008BF016001D0C0F800C05A684FF00F0C41
:1052E0001F4D0CEA1212D0F800C0AA5C2CFA02F290
:1052F0004260D3F804C0072404EA1C2C15F80CC043
:1053000022FA0CFCC0F808C0D3F804C004EADC2C74
:1053100015F80CC022FA0CFCC0F80CC0D3F82CC055
:1053200005F110040CF00F0C14F80CC0B2FBFCF2E9
:105330004261DA6A1F2303EA121202F00F0204F13B
:10534000100333F81220B1FBF2F1016130BC704759
:105350000010024000003C0800093D0000127A00E5
:105360001E92000870B500250446212818BF312C74
:1053700021D0392C18BF412C1DD0612C18BF732CA3
:1053800019D0742C18BF752C15D0772C18BF792C18
:1053900011D07A2C18BF7B2C0DD07C2C18BF7D2C03
:1053A00009D07E2C18BF7F2C05D040F2E3420CA11F
:1053B00019A003F0C1FB60091D49012808BF086856
:1053C00003D002280CBF086A486A04F01F010122BA
:1053D00002FA01F1014218BF0125284670BD000004
:1053E0002E2E5C6669726D776172655C6E33326712
:1053F0003435785F7374645F7065726970685F6478
:1054000072697665725C7372635C6E3332673435D1
:10541000785F7263632E630049535F5243435F4674
:105420004C4147285243435F464C41472900000006
:105430000010024038B503F0ABFC4FF40060ADF84B
:10544000000010208DF803000120064C8DF80200AA
:1054500069462046FDF7F2F9E1142046FDF798FB76
:1054600038BD00000008014002F032BE00210A28C9
:1054700005D3491C0A38C0B2C9B20A28F9D20907B3
:1054800040EA11607047000070B50026674D0C4679
:1054900000282AD0012805D04FF4E37264A172A03D
:1054A00003F04AFB286810F0400F00F07F8020785E
:1054B000010901EB810100F00F0000EB4100C0B2D7
:1054C000401E0B2805D94FF4EE7259A16DA003F0D0
:1054D00033FBE078002818BF402800F0798040F2C4
:1054E000DD1253A16EA000F071B8286810F0400FD3
:1054F00013D02078401E0B2805D94FF4E6724CA13A
:105500006FA003F019FBE078002818BF40280ED0E8
:1055100040F2CD1246A162A007E0E670207817287D
:1055200005D94FF4E97242A16FA003F005FB607842
:105530003B2805D94FF4EA723DA175A003F0FCFAAF
:10554000A0783B2805D940F2D51239A17AA003F002
:10555000F3FA2078FFF78AFF06046078FFF786FFEA
:1055600046EA0026A078FFF781FFE178304340EA61
:1055700001437B4CCA2020605320206000F04CF98E
:1055800070B178487849184008607848016821F07F
:1055900080010160286810F0200F08BF00F056FC61
:1055A000FF202060BDE8704000F050BCE67020781D
:1055B000010901EB810100F00F0000EB4100C0B2D6
:1055C000172805D94FF4F17219A169A003F0B4FAB4
:1055D0006078010901EB810100F00F0000EB410050
:1055E000C0B23B2805D94FF4F27211A16EA003F0AE
:1055F000A3FAA078010901EB810100F00F0000EB94
:105600004100C0B23B2805D940F2E51208A174A0C0
:1056100003F092FAA0782178E27840EA01406178BC
:10562000090241EA024140EA0103A2E708280040DA
:105630002E2E5C6669726D776172655C6E333267BF
:105640003435785F7374645F7065726970685F6425
:1056500072697665725C7372635C6E33326734357F
:10566000785F7274632E630049535F5254435F4600
:105670004F524D4154285254435F466F726D6174CE
:105680002900000049535F5254435F3132484F555F
:105690005228746D707265676973746572290000B1
:1056A00049535F5254435F483132285254435F5448
:1056B000696D655374727563742D3E4831322900EB
:1056C00049535F5254435F3132484F555228525428
:1056D000435F54696D655374727563742D3E486FF2
:1056E000757273290000000049535F5254435F32C2
:1056F00034484F5552285254435F54696D65537472
:10570000727563742D3E486F757273290000000036
:1057100049535F5254435F4D494E555445532852A7
:1057200054435F54696D655374727563742D3E4DB7
:10573000696E75746573290049535F5254435F5312
:1057400045434F4E4453285254435F54696D65534B
:1057500074727563742D3E5365636F6E64732900B4
:10576000242800407F7F7F00002800400C28004054
:1057700049535F5254435F3234484F555228525474
:10578000435F42636432546F4279746528525443D4
:105790005F54696D655374727563742D3E486F75FF
:1057A000727329290000000049535F5254435F4D32
:1057B000494E55544553285254435F426364325412
:1057C0006F42797465285254435F54696D65537410
:1057D000727563742D3E4D696E7574657329290069
:1057E00049535F5254435F5345434F4E44532852ED
:1057F00054435F42636432546F4279746528525453
:10580000435F54696D655374727563742D3E5365BF
:10581000636F6E647329290081B00F4900200090E6
:10582000086810F0400F04BF8020086010D108689D
:10583000009A00F04000521C0092B2F5005F01D0C7
:105840000028F4D0086810F0400004BF01B0704791
:10585000012001B0704700000C28004070B50C46D4
:10586000050018BF012D05D04FF4377218A126A0EE
:1058700003F062F92B48006820F0C00121F07F415D
:105880000B0CC1F30422E37001F03F006270A070C2
:10589000C1F342312170002D18BF70BD190901EB11
:1058A000810103F00F0303EB4101E170110901EBEA
:1058B000810102F00F0202EB41016170010901EB6D
:1058C000810100F00F0000EB4100A07070BD0000EE
:1058D0002E2E5C6669726D776172655C6E3332671D
:1058E0003435785F7374645F7065726970685F6483
:1058F00072697665725C7372635C6E3332673435DD
:10590000785F7274632E630049535F5254435F465D
:105910004F524D4154285254435F466F726D61742B
:10592000290000000428004070B50C46050018BF8F
:10593000012D05D040F23D2218A126A003F0FCF86D
:105940002B4800682B494FF0400C0140C1F3054241
:10595000C1F30623227001F07F006370A0700CEA8F
:105960001141E170002D18BF70BD110901EB8101DB
:1059700002F00F0202EB41012170190901EB8101D4
:1059800003F00F0202EB41016170010901EB81019B
:1059900000F00F0000EB4100A07070BD2E2E5C6681
:1059A00069726D776172655C6E3332673435785F2A
:1059B0007374645F7065726970685F64726976653C
:1059C000725C7372635C6E3332673435785F727405
:1059D000632E630049535F5254435F464F524D411B
:1059E00054285254435F466F726D61742900000061
:1059F000002800407F7F7F0070B5054600260068C4
:105A00003446402818BF002804D0C7221EA12CA06D
:105A100003F092F868687F2804D9C8221AA135A03B
:105A200003F08AF8A868B0F5004F04D3C92216A184
:105A30003EA003F081F84B4BCA2018605320186039
:105A4000FFF7EAFEB0B14848016821F0400101606B
:105A500001682A68114301604448A968016001682F
:105A6000AA8841EA02410160001F016821F080011B
:105A700001600126FF20186040F2FF20641C844270
:105A8000FCD3304670BD00002E2E5C6669726D77C7
:105A90006172655C6E3332673435785F7374645F4E
:105AA0007065726970685F6472697665725C737242
:105AB000635C6E3332673435785F7274632E6300D3
:105AC00049535F5254435F484F55525F464F524DC2
:105AD0004154285254435F496E697453747275631C
